{
	"crowdFunding.sol": {
		"CrowdFunding": {
			"abi": [
				{
					"inputs": [],
					"stateMutability": "nonpayable",
					"type": "constructor"
				},
				{
					"inputs": [
						{
							"internalType": "uint256",
							"name": "_campaignId",
							"type": "uint256"
						}
					],
					"name": "donateToCampaign",
					"outputs": [],
					"stateMutability": "payable",
					"type": "function"
				},
				{
					"inputs": [
						{
							"internalType": "uint256",
							"name": "_campaignId",
							"type": "uint256"
						}
					],
					"name": "getApprovalStatus",
					"outputs": [
						{
							"internalType": "bool",
							"name": "",
							"type": "bool"
						}
					],
					"stateMutability": "view",
					"type": "function"
				},
				{
					"inputs": [
						{
							"internalType": "uint256",
							"name": "_campaignId",
							"type": "uint256"
						}
					],
					"name": "getDonators",
					"outputs": [
						{
							"internalType": "address[]",
							"name": "",
							"type": "address[]"
						}
					],
					"stateMutability": "view",
					"type": "function"
				},
				{
					"inputs": [
						{
							"internalType": "uint256",
							"name": "_campaignId",
							"type": "uint256"
						}
					],
					"name": "managerApproval",
					"outputs": [],
					"stateMutability": "nonpayable",
					"type": "function"
				},
				{
					"inputs": [
						{
							"internalType": "string",
							"name": "_camapaignName",
							"type": "string"
						},
						{
							"internalType": "uint256",
							"name": "_amountToRaise",
							"type": "uint256"
						},
						{
							"internalType": "uint256",
							"name": "_startTime",
							"type": "uint256"
						},
						{
							"internalType": "uint256",
							"name": "_endTime",
							"type": "uint256"
						}
					],
					"name": "registerCampaign",
					"outputs": [],
					"stateMutability": "nonpayable",
					"type": "function"
				},
				{
					"inputs": [],
					"name": "showCampaigns",
					"outputs": [
						{
							"components": [
								{
									"internalType": "uint256",
									"name": "campaignId",
									"type": "uint256"
								},
								{
									"internalType": "string",
									"name": "campaignName",
									"type": "string"
								},
								{
									"internalType": "address",
									"name": "startedBy",
									"type": "address"
								},
								{
									"internalType": "uint256",
									"name": "amountToRaise",
									"type": "uint256"
								},
								{
									"internalType": "uint256",
									"name": "amountRaised",
									"type": "uint256"
								},
								{
									"internalType": "uint256",
									"name": "amountRemaining",
									"type": "uint256"
								},
								{
									"internalType": "uint256",
									"name": "startTime",
									"type": "uint256"
								},
								{
									"internalType": "uint256",
									"name": "endTime",
									"type": "uint256"
								},
								{
									"internalType": "bool",
									"name": "approval",
									"type": "bool"
								},
								{
									"internalType": "bool",
									"name": "isLive",
									"type": "bool"
								}
							],
							"internalType": "struct CrowdFunding.campaign[]",
							"name": "",
							"type": "tuple[]"
						}
					],
					"stateMutability": "view",
					"type": "function"
				},
				{
					"inputs": [
						{
							"internalType": "uint256",
							"name": "_campaignId",
							"type": "uint256"
						}
					],
					"name": "startCampaign",
					"outputs": [],
					"stateMutability": "nonpayable",
					"type": "function"
				},
				{
					"inputs": [],
					"name": "withdrawAllFund",
					"outputs": [],
					"stateMutability": "nonpayable",
					"type": "function"
				},
				{
					"inputs": [
						{
							"internalType": "uint256",
							"name": "_campaignId",
							"type": "uint256"
						}
					],
					"name": "withdrawFund",
					"outputs": [],
					"stateMutability": "nonpayable",
					"type": "function"
				},
				{
					"stateMutability": "payable",
					"type": "receive"
				}
			],
			"devdoc": {
				"kind": "dev",
				"methods": {},
				"version": 1
			},
			"evm": {
				"assembly": "    /* \"crowdFunding.sol\":61:4213  contract CrowdFunding {... */\n  mstore(0x40, 0x80)\n    /* \"crowdFunding.sol\":146:147  1 */\n  0x01\n    /* \"crowdFunding.sol\":124:147  uint nextCampaignId = 1 */\n  dup1\n  sstore\n    /* \"crowdFunding.sol\":173:174  1 */\n  0x01\n    /* \"crowdFunding.sol\":154:174  uint lastDonater = 1 */\n  0x02\n  sstore\n    /* \"crowdFunding.sol\":203:256  constructor (){... */\n  callvalue\n  dup1\n  iszero\n  tag_1\n  jumpi\n  0x00\n  dup1\n  revert\ntag_1:\n  pop\n    /* \"crowdFunding.sol\":238:248  msg.sender */\n  caller\n    /* \"crowdFunding.sol\":228:235  manager */\n  0x00\n  dup1\n    /* \"crowdFunding.sol\":228:248  manager = msg.sender */\n  0x0100\n  exp\n  dup2\n  sload\n  dup2\n  0xffffffffffffffffffffffffffffffffffffffff\n  mul\n  not\n  and\n  swap1\n  dup4\n  0xffffffffffffffffffffffffffffffffffffffff\n  and\n  mul\n  or\n  swap1\n  sstore\n  pop\n    /* \"crowdFunding.sol\":61:4213  contract CrowdFunding {... */\n  dataSize(sub_0)\n  dup1\n  dataOffset(sub_0)\n  0x00\n  codecopy\n  0x00\n  return\nstop\n\nsub_0: assembly {\n        /* \"crowdFunding.sol\":61:4213  contract CrowdFunding {... */\n      mstore(0x40, 0x80)\n      jumpi(tag_1, lt(calldatasize, 0x04))\n      shr(0xe0, calldataload(0x00))\n      dup1\n      0x3e4f2f00\n      gt\n      tag_12\n      jumpi\n      dup1\n      0x3e4f2f00\n      eq\n      tag_7\n      jumpi\n      dup1\n      0x42a4fda8\n      eq\n      tag_8\n      jumpi\n      dup1\n      0x86ff6b65\n      eq\n      tag_9\n      jumpi\n      dup1\n      0xca8f7cc0\n      eq\n      tag_10\n      jumpi\n      dup1\n      0xcf16fd0b\n      eq\n      tag_11\n      jumpi\n      jump(tag_2)\n    tag_12:\n      dup1\n      0x0cee1725\n      eq\n      tag_3\n      jumpi\n      dup1\n      0x0fa91fa9\n      eq\n      tag_4\n      jumpi\n      dup1\n      0x20fdfcdf\n      eq\n      tag_5\n      jumpi\n      dup1\n      0x35dda05a\n      eq\n      tag_6\n      jumpi\n      jump(tag_2)\n    tag_1:\n      jumpi(tag_2, calldatasize)\n      stop\n    tag_2:\n      0x00\n      dup1\n      revert\n        /* \"crowdFunding.sol\":3544:4029  function withdrawFund (uint _campaignId) public {... */\n    tag_3:\n      callvalue\n      dup1\n      iszero\n      tag_15\n      jumpi\n      0x00\n      dup1\n      revert\n    tag_15:\n      pop\n      tag_16\n      0x04\n      dup1\n      calldatasize\n      sub\n      dup2\n      add\n      swap1\n      tag_17\n      swap2\n      swap1\n      tag_18\n      jump\t// in\n    tag_17:\n      tag_19\n      jump\t// in\n    tag_16:\n      stop\n        /* \"crowdFunding.sol\":2828:2949  function getDonators(uint _campaignId) public view returns (address[] memory) {... */\n    tag_4:\n      callvalue\n      dup1\n      iszero\n      tag_20\n      jumpi\n      0x00\n      dup1\n      revert\n    tag_20:\n      pop\n      tag_21\n      0x04\n      dup1\n      calldatasize\n      sub\n      dup2\n      add\n      swap1\n      tag_22\n      swap2\n      swap1\n      tag_18\n      jump\t// in\n    tag_22:\n      tag_23\n      jump\t// in\n    tag_21:\n      mload(0x40)\n      tag_24\n      swap2\n      swap1\n      tag_25\n      jump\t// in\n    tag_24:\n      mload(0x40)\n      dup1\n      swap2\n      sub\n      swap1\n      return\n        /* \"crowdFunding.sol\":2957:3084  function managerApproval (uint _campaignId) external onlyManager {... */\n    tag_5:\n      callvalue\n      dup1\n      iszero\n      tag_26\n      jumpi\n      0x00\n      dup1\n      revert\n    tag_26:\n      pop\n      tag_27\n      0x04\n      dup1\n      calldatasize\n      sub\n      dup2\n      add\n      swap1\n      tag_28\n      swap2\n      swap1\n      tag_18\n      jump\t// in\n    tag_28:\n      tag_29\n      jump\t// in\n    tag_27:\n      stop\n        /* \"crowdFunding.sol\":3230:3535  function startCampaign (uint _campaignId)  external onlyManager() { ... */\n    tag_6:\n      callvalue\n      dup1\n      iszero\n      tag_30\n      jumpi\n      0x00\n      dup1\n      revert\n    tag_30:\n      pop\n      tag_31\n      0x04\n      dup1\n      calldatasize\n      sub\n      dup2\n      add\n      swap1\n      tag_32\n      swap2\n      swap1\n      tag_18\n      jump\t// in\n    tag_32:\n      tag_33\n      jump\t// in\n    tag_31:\n      stop\n        /* \"crowdFunding.sol\":2525:2820  function showCampaigns () public view returns (campaign [] memory) {... */\n    tag_7:\n      callvalue\n      dup1\n      iszero\n      tag_34\n      jumpi\n      0x00\n      dup1\n      revert\n    tag_34:\n      pop\n      tag_35\n      tag_36\n      jump\t// in\n    tag_35:\n      mload(0x40)\n      tag_37\n      swap2\n      swap1\n      tag_38\n      jump\t// in\n    tag_37:\n      mload(0x40)\n      dup1\n      swap2\n      sub\n      swap1\n      return\n        /* \"crowdFunding.sol\":1722:2517  function donateToCampaign (uint _campaignId ) public payable {... */\n    tag_8:\n      tag_39\n      0x04\n      dup1\n      calldatasize\n      sub\n      dup2\n      add\n      swap1\n      tag_40\n      swap2\n      swap1\n      tag_18\n      jump\t// in\n    tag_40:\n      tag_41\n      jump\t// in\n    tag_39:\n      stop\n        /* \"crowdFunding.sol\":4037:4154  function withdrawAllFund () onlyManager external {... */\n    tag_9:\n      callvalue\n      dup1\n      iszero\n      tag_42\n      jumpi\n      0x00\n      dup1\n      revert\n    tag_42:\n      pop\n      tag_43\n      tag_44\n      jump\t// in\n    tag_43:\n      stop\n        /* \"crowdFunding.sol\":1055:1712  function registerCampaign (string calldata _camapaignName,uint _amountToRaise,uint _startTime,uint _endTime) public {... */\n    tag_10:\n      callvalue\n      dup1\n      iszero\n      tag_45\n      jumpi\n      0x00\n      dup1\n      revert\n    tag_45:\n      pop\n      tag_46\n      0x04\n      dup1\n      calldatasize\n      sub\n      dup2\n      add\n      swap1\n      tag_47\n      swap2\n      swap1\n      tag_48\n      jump\t// in\n    tag_47:\n      tag_49\n      jump\t// in\n    tag_46:\n      stop\n        /* \"crowdFunding.sol\":3092:3222  function getApprovalStatus (uint _campaignId) public view returns (bool) {... */\n    tag_11:\n      callvalue\n      dup1\n      iszero\n      tag_50\n      jumpi\n      0x00\n      dup1\n      revert\n    tag_50:\n      pop\n      tag_51\n      0x04\n      dup1\n      calldatasize\n      sub\n      dup2\n      add\n      swap1\n      tag_52\n      swap2\n      swap1\n      tag_18\n      jump\t// in\n    tag_52:\n      tag_53\n      jump\t// in\n    tag_51:\n      mload(0x40)\n      tag_54\n      swap2\n      swap1\n      tag_55\n      jump\t// in\n    tag_54:\n      mload(0x40)\n      dup1\n      swap2\n      sub\n      swap1\n      return\n        /* \"crowdFunding.sol\":3544:4029  function withdrawFund (uint _campaignId) public {... */\n    tag_19:\n        /* \"crowdFunding.sol\":3625:3634  campaigns */\n      0x04\n        /* \"crowdFunding.sol\":3625:3647  campaigns[_campaignId] */\n      0x00\n        /* \"crowdFunding.sol\":3635:3646  _campaignId */\n      dup3\n        /* \"crowdFunding.sol\":3625:3647  campaigns[_campaignId] */\n      dup2\n      mstore\n      0x20\n      add\n      swap1\n      dup2\n      mstore\n      0x20\n      add\n      0x00\n      keccak256\n        /* \"crowdFunding.sol\":3625:3657  campaigns[_campaignId].startedBy */\n      0x02\n      add\n      0x00\n      swap1\n      sload\n      swap1\n      0x0100\n      exp\n      swap1\n      div\n      0xffffffffffffffffffffffffffffffffffffffff\n      and\n        /* \"crowdFunding.sol\":3611:3657  msg.sender == campaigns[_campaignId].startedBy */\n      0xffffffffffffffffffffffffffffffffffffffff\n      and\n        /* \"crowdFunding.sol\":3611:3621  msg.sender */\n      caller\n        /* \"crowdFunding.sol\":3611:3657  msg.sender == campaigns[_campaignId].startedBy */\n      0xffffffffffffffffffffffffffffffffffffffff\n      and\n      eq\n        /* \"crowdFunding.sol\":3603:3683  require(msg.sender == campaigns[_campaignId].startedBy,\"You're not fund raiser\") */\n      tag_57\n      jumpi\n      mload(0x40)\n      0x08c379a000000000000000000000000000000000000000000000000000000000\n      dup2\n      mstore\n      0x04\n      add\n      tag_58\n      swap1\n      tag_59\n      jump\t// in\n    tag_58:\n      mload(0x40)\n      dup1\n      swap2\n      sub\n      swap1\n      revert\n    tag_57:\n        /* \"crowdFunding.sol\":3721:3730  campaigns */\n      0x04\n        /* \"crowdFunding.sol\":3721:3743  campaigns[_campaignId] */\n      0x00\n        /* \"crowdFunding.sol\":3731:3742  _campaignId */\n      dup3\n        /* \"crowdFunding.sol\":3721:3743  campaigns[_campaignId] */\n      dup2\n      mstore\n      0x20\n      add\n      swap1\n      dup2\n      mstore\n      0x20\n      add\n      0x00\n      keccak256\n        /* \"crowdFunding.sol\":3721:3751  campaigns[_campaignId].endTime */\n      0x07\n      add\n      sload\n        /* \"crowdFunding.sol\":3702:3717  block.timestamp */\n      timestamp\n        /* \"crowdFunding.sol\":3702:3751  block.timestamp >= campaigns[_campaignId].endTime */\n      lt\n      iszero\n        /* \"crowdFunding.sol\":3694:3778  require(block.timestamp >= campaigns[_campaignId].endTime,\"Campaign is not end yet\") */\n      tag_60\n      jumpi\n      mload(0x40)\n      0x08c379a000000000000000000000000000000000000000000000000000000000\n      dup2\n      mstore\n      0x04\n      add\n      tag_61\n      swap1\n      tag_62\n      jump\t// in\n    tag_61:\n      mload(0x40)\n      dup1\n      swap2\n      sub\n      swap1\n      revert\n    tag_60:\n        /* \"crowdFunding.sol\":3839:3840  0 */\n      0x00\n        /* \"crowdFunding.sol\":3797:3806  campaigns */\n      0x04\n        /* \"crowdFunding.sol\":3797:3819  campaigns[_campaignId] */\n      0x00\n        /* \"crowdFunding.sol\":3807:3818  _campaignId */\n      dup4\n        /* \"crowdFunding.sol\":3797:3819  campaigns[_campaignId] */\n      dup2\n      mstore\n      0x20\n      add\n      swap1\n      dup2\n      mstore\n      0x20\n      add\n      0x00\n      keccak256\n        /* \"crowdFunding.sol\":3797:3835  campaigns[_campaignId].amountRemaining */\n      0x05\n      add\n      sload\n        /* \"crowdFunding.sol\":3797:3840  campaigns[_campaignId].amountRemaining == 0 */\n      eq\n        /* \"crowdFunding.sol\":3797:3919  campaigns[_campaignId].amountRemaining == 0 && campaigns[_campaignId].amountRaised == campaigns[_campaignId].amountToRaise */\n      dup1\n      iszero\n      tag_63\n      jumpi\n      pop\n        /* \"crowdFunding.sol\":3883:3892  campaigns */\n      0x04\n        /* \"crowdFunding.sol\":3883:3905  campaigns[_campaignId] */\n      0x00\n        /* \"crowdFunding.sol\":3893:3904  _campaignId */\n      dup3\n        /* \"crowdFunding.sol\":3883:3905  campaigns[_campaignId] */\n      dup2\n      mstore\n      0x20\n      add\n      swap1\n      dup2\n      mstore\n      0x20\n      add\n      0x00\n      keccak256\n        /* \"crowdFunding.sol\":3883:3919  campaigns[_campaignId].amountToRaise */\n      0x03\n      add\n      sload\n        /* \"crowdFunding.sol\":3844:3853  campaigns */\n      0x04\n        /* \"crowdFunding.sol\":3844:3866  campaigns[_campaignId] */\n      0x00\n        /* \"crowdFunding.sol\":3854:3865  _campaignId */\n      dup4\n        /* \"crowdFunding.sol\":3844:3866  campaigns[_campaignId] */\n      dup2\n      mstore\n      0x20\n      add\n      swap1\n      dup2\n      mstore\n      0x20\n      add\n      0x00\n      keccak256\n        /* \"crowdFunding.sol\":3844:3879  campaigns[_campaignId].amountRaised */\n      0x04\n      add\n      sload\n        /* \"crowdFunding.sol\":3844:3919  campaigns[_campaignId].amountRaised == campaigns[_campaignId].amountToRaise */\n      eq\n        /* \"crowdFunding.sol\":3797:3919  campaigns[_campaignId].amountRemaining == 0 && campaigns[_campaignId].amountRaised == campaigns[_campaignId].amountToRaise */\n    tag_63:\n        /* \"crowdFunding.sol\":3789:3943  require(campaigns[_campaignId].amountRemaining == 0 && campaigns[_campaignId].amountRaised == campaigns[_campaignId].amountToRaise,\"Target not completed\") */\n      tag_64\n      jumpi\n      mload(0x40)\n      0x08c379a000000000000000000000000000000000000000000000000000000000\n      dup2\n      mstore\n      0x04\n      add\n      tag_65\n      swap1\n      tag_66\n      jump\t// in\n    tag_65:\n      mload(0x40)\n      dup1\n      swap2\n      sub\n      swap1\n      revert\n    tag_64:\n        /* \"crowdFunding.sol\":3963:3973  msg.sender */\n      caller\n        /* \"crowdFunding.sol\":3954:3983  payable (msg.sender).transfer */\n      0xffffffffffffffffffffffffffffffffffffffff\n      and\n        /* \"crowdFunding.sol\":3954:4021  payable (msg.sender).transfer(campaigns[_campaignId].amountToRaise) */\n      0x08fc\n        /* \"crowdFunding.sol\":3984:3993  campaigns */\n      0x04\n        /* \"crowdFunding.sol\":3984:4006  campaigns[_campaignId] */\n      0x00\n        /* \"crowdFunding.sol\":3994:4005  _campaignId */\n      dup5\n        /* \"crowdFunding.sol\":3984:4006  campaigns[_campaignId] */\n      dup2\n      mstore\n      0x20\n      add\n      swap1\n      dup2\n      mstore\n      0x20\n      add\n      0x00\n      keccak256\n        /* \"crowdFunding.sol\":3984:4020  campaigns[_campaignId].amountToRaise */\n      0x03\n      add\n      sload\n        /* \"crowdFunding.sol\":3954:4021  payable (msg.sender).transfer(campaigns[_campaignId].amountToRaise) */\n      swap1\n      dup2\n      iszero\n      mul\n      swap1\n      mload(0x40)\n      0x00\n      mload(0x40)\n      dup1\n      dup4\n      sub\n      dup2\n      dup6\n      dup9\n      dup9\n      call\n      swap4\n      pop\n      pop\n      pop\n      pop\n      iszero\n      dup1\n      iszero\n      tag_68\n      jumpi\n      returndatasize\n      0x00\n      dup1\n      returndatacopy\n      revert(0x00, returndatasize)\n    tag_68:\n      pop\n        /* \"crowdFunding.sol\":3544:4029  function withdrawFund (uint _campaignId) public {... */\n      pop\n      jump\t// out\n        /* \"crowdFunding.sol\":2828:2949  function getDonators(uint _campaignId) public view returns (address[] memory) {... */\n    tag_23:\n        /* \"crowdFunding.sol\":2888:2904  address[] memory */\n      0x60\n        /* \"crowdFunding.sol\":2920:2928  donaters */\n      0x05\n        /* \"crowdFunding.sol\":2920:2941  donaters[_campaignId] */\n      0x00\n        /* \"crowdFunding.sol\":2929:2940  _campaignId */\n      dup4\n        /* \"crowdFunding.sol\":2920:2941  donaters[_campaignId] */\n      dup2\n      mstore\n      0x20\n      add\n      swap1\n      dup2\n      mstore\n      0x20\n      add\n      0x00\n      keccak256\n        /* \"crowdFunding.sol\":2913:2941  return donaters[_campaignId] */\n      dup1\n      sload\n      dup1\n      0x20\n      mul\n      0x20\n      add\n      mload(0x40)\n      swap1\n      dup2\n      add\n      0x40\n      mstore\n      dup1\n      swap3\n      swap2\n      swap1\n      dup2\n      dup2\n      mstore\n      0x20\n      add\n      dup3\n      dup1\n      sload\n      dup1\n      iszero\n      tag_70\n      jumpi\n      0x20\n      mul\n      dup3\n      add\n      swap2\n      swap1\n      0x00\n      mstore\n      keccak256(0x00, 0x20)\n      swap1\n    tag_71:\n      dup2\n      0x00\n      swap1\n      sload\n      swap1\n      0x0100\n      exp\n      swap1\n      div\n      0xffffffffffffffffffffffffffffffffffffffff\n      and\n      0xffffffffffffffffffffffffffffffffffffffff\n      and\n      dup2\n      mstore\n      0x20\n      add\n      swap1\n      0x01\n      add\n      swap1\n      dup1\n      dup4\n      gt\n      tag_71\n      jumpi\n    tag_70:\n      pop\n      pop\n      pop\n      pop\n      pop\n      swap1\n      pop\n        /* \"crowdFunding.sol\":2828:2949  function getDonators(uint _campaignId) public view returns (address[] memory) {... */\n      swap2\n      swap1\n      pop\n      jump\t// out\n        /* \"crowdFunding.sol\":2957:3084  function managerApproval (uint _campaignId) external onlyManager {... */\n    tag_29:\n        /* \"crowdFunding.sol\":319:326  manager */\n      0x00\n      dup1\n      sload\n      swap1\n      0x0100\n      exp\n      swap1\n      div\n      0xffffffffffffffffffffffffffffffffffffffff\n      and\n        /* \"crowdFunding.sol\":307:326  msg.sender==manager */\n      0xffffffffffffffffffffffffffffffffffffffff\n      and\n        /* \"crowdFunding.sol\":307:317  msg.sender */\n      caller\n        /* \"crowdFunding.sol\":307:326  msg.sender==manager */\n      0xffffffffffffffffffffffffffffffffffffffff\n      and\n      eq\n        /* \"crowdFunding.sol\":299:348  require(msg.sender==manager,\"You're not manager\") */\n      tag_73\n      jumpi\n      mload(0x40)\n      0x08c379a000000000000000000000000000000000000000000000000000000000\n      dup2\n      mstore\n      0x04\n      add\n      tag_74\n      swap1\n      tag_75\n      jump\t// in\n    tag_74:\n      mload(0x40)\n      dup1\n      swap2\n      sub\n      swap1\n      revert\n    tag_73:\n        /* \"crowdFunding.sol\":3068:3076  approval */\n      0x03\n      0x00\n      swap1\n      sload\n      swap1\n      0x0100\n      exp\n      swap1\n      div\n      0xff\n      and\n        /* \"crowdFunding.sol\":3067:3076  !approval */\n      iszero\n        /* \"crowdFunding.sol\":3033:3042  campaigns */\n      0x04\n        /* \"crowdFunding.sol\":3033:3055  campaigns[_campaignId] */\n      0x00\n        /* \"crowdFunding.sol\":3043:3054  _campaignId */\n      dup4\n        /* \"crowdFunding.sol\":3033:3055  campaigns[_campaignId] */\n      dup2\n      mstore\n      0x20\n      add\n      swap1\n      dup2\n      mstore\n      0x20\n      add\n      0x00\n      keccak256\n        /* \"crowdFunding.sol\":3033:3064  campaigns[_campaignId].approval */\n      0x08\n      add\n      0x00\n        /* \"crowdFunding.sol\":3033:3076  campaigns[_campaignId].approval = !approval */\n      0x0100\n      exp\n      dup2\n      sload\n      dup2\n      0xff\n      mul\n      not\n      and\n      swap1\n      dup4\n      iszero\n      iszero\n      mul\n      or\n      swap1\n      sstore\n      pop\n        /* \"crowdFunding.sol\":2957:3084  function managerApproval (uint _campaignId) external onlyManager {... */\n      pop\n      jump\t// out\n        /* \"crowdFunding.sol\":3230:3535  function startCampaign (uint _campaignId)  external onlyManager() { ... */\n    tag_33:\n        /* \"crowdFunding.sol\":319:326  manager */\n      0x00\n      dup1\n      sload\n      swap1\n      0x0100\n      exp\n      swap1\n      div\n      0xffffffffffffffffffffffffffffffffffffffff\n      and\n        /* \"crowdFunding.sol\":307:326  msg.sender==manager */\n      0xffffffffffffffffffffffffffffffffffffffff\n      and\n        /* \"crowdFunding.sol\":307:317  msg.sender */\n      caller\n        /* \"crowdFunding.sol\":307:326  msg.sender==manager */\n      0xffffffffffffffffffffffffffffffffffffffff\n      and\n      eq\n        /* \"crowdFunding.sol\":299:348  require(msg.sender==manager,\"You're not manager\") */\n      tag_78\n      jumpi\n      mload(0x40)\n      0x08c379a000000000000000000000000000000000000000000000000000000000\n      dup2\n      mstore\n      0x04\n      add\n      tag_79\n      swap1\n      tag_75\n      jump\t// in\n    tag_79:\n      mload(0x40)\n      dup1\n      swap2\n      sub\n      swap1\n      revert\n    tag_78:\n        /* \"crowdFunding.sol\":3351:3355  true */\n      0x01\n        /* \"crowdFunding.sol\":3316:3355  campaigns[_campaignId].approval == true */\n      iszero\n      iszero\n        /* \"crowdFunding.sol\":3316:3325  campaigns */\n      0x04\n        /* \"crowdFunding.sol\":3316:3338  campaigns[_campaignId] */\n      0x00\n        /* \"crowdFunding.sol\":3326:3337  _campaignId */\n      dup4\n        /* \"crowdFunding.sol\":3316:3338  campaigns[_campaignId] */\n      dup2\n      mstore\n      0x20\n      add\n      swap1\n      dup2\n      mstore\n      0x20\n      add\n      0x00\n      keccak256\n        /* \"crowdFunding.sol\":3316:3347  campaigns[_campaignId].approval */\n      0x08\n      add\n      0x00\n      swap1\n      sload\n      swap1\n      0x0100\n      exp\n      swap1\n      div\n      0xff\n      and\n        /* \"crowdFunding.sol\":3316:3355  campaigns[_campaignId].approval == true */\n      iszero\n      iszero\n      eq\n        /* \"crowdFunding.sol\":3308:3356  require(campaigns[_campaignId].approval == true) */\n      tag_81\n      jumpi\n      0x00\n      dup1\n      revert\n    tag_81:\n        /* \"crowdFunding.sol\":3394:3403  campaigns */\n      0x04\n        /* \"crowdFunding.sol\":3394:3416  campaigns[_campaignId] */\n      0x00\n        /* \"crowdFunding.sol\":3404:3415  _campaignId */\n      dup3\n        /* \"crowdFunding.sol\":3394:3416  campaigns[_campaignId] */\n      dup2\n      mstore\n      0x20\n      add\n      swap1\n      dup2\n      mstore\n      0x20\n      add\n      0x00\n      keccak256\n        /* \"crowdFunding.sol\":3394:3426  campaigns[_campaignId].startTime */\n      0x06\n      add\n      sload\n        /* \"crowdFunding.sol\":3375:3390  block.timestamp */\n      timestamp\n        /* \"crowdFunding.sol\":3375:3426  block.timestamp >= campaigns[_campaignId].startTime */\n      lt\n      iszero\n        /* \"crowdFunding.sol\":3375:3479  block.timestamp >= campaigns[_campaignId].startTime && block.timestamp <= campaigns[_campaignId].endTime */\n      dup1\n      iszero\n      tag_82\n      jumpi\n      pop\n        /* \"crowdFunding.sol\":3449:3458  campaigns */\n      0x04\n        /* \"crowdFunding.sol\":3449:3471  campaigns[_campaignId] */\n      0x00\n        /* \"crowdFunding.sol\":3459:3470  _campaignId */\n      dup3\n        /* \"crowdFunding.sol\":3449:3471  campaigns[_campaignId] */\n      dup2\n      mstore\n      0x20\n      add\n      swap1\n      dup2\n      mstore\n      0x20\n      add\n      0x00\n      keccak256\n        /* \"crowdFunding.sol\":3449:3479  campaigns[_campaignId].endTime */\n      0x07\n      add\n      sload\n        /* \"crowdFunding.sol\":3430:3445  block.timestamp */\n      timestamp\n        /* \"crowdFunding.sol\":3430:3479  block.timestamp <= campaigns[_campaignId].endTime */\n      gt\n      iszero\n        /* \"crowdFunding.sol\":3375:3479  block.timestamp >= campaigns[_campaignId].startTime && block.timestamp <= campaigns[_campaignId].endTime */\n    tag_82:\n        /* \"crowdFunding.sol\":3367:3480  require(block.timestamp >= campaigns[_campaignId].startTime && block.timestamp <= campaigns[_campaignId].endTime) */\n      tag_83\n      jumpi\n      0x00\n      dup1\n      revert\n    tag_83:\n        /* \"crowdFunding.sol\":3523:3527  true */\n      0x01\n        /* \"crowdFunding.sol\":3491:3500  campaigns */\n      0x04\n        /* \"crowdFunding.sol\":3491:3513  campaigns[_campaignId] */\n      0x00\n        /* \"crowdFunding.sol\":3501:3512  _campaignId */\n      dup4\n        /* \"crowdFunding.sol\":3491:3513  campaigns[_campaignId] */\n      dup2\n      mstore\n      0x20\n      add\n      swap1\n      dup2\n      mstore\n      0x20\n      add\n      0x00\n      keccak256\n        /* \"crowdFunding.sol\":3491:3520  campaigns[_campaignId].isLive */\n      0x08\n      add\n      0x01\n        /* \"crowdFunding.sol\":3491:3527  campaigns[_campaignId].isLive = true */\n      0x0100\n      exp\n      dup2\n      sload\n      dup2\n      0xff\n      mul\n      not\n      and\n      swap1\n      dup4\n      iszero\n      iszero\n      mul\n      or\n      swap1\n      sstore\n      pop\n        /* \"crowdFunding.sol\":3230:3535  function startCampaign (uint _campaignId)  external onlyManager() { ... */\n      pop\n      jump\t// out\n        /* \"crowdFunding.sol\":2525:2820  function showCampaigns () public view returns (campaign [] memory) {... */\n    tag_36:\n        /* \"crowdFunding.sol\":2572:2590  campaign [] memory */\n      0x60\n        /* \"crowdFunding.sol\":2603:2634  campaign [] memory campaignList */\n      0x00\n        /* \"crowdFunding.sol\":2669:2670  1 */\n      0x01\n        /* \"crowdFunding.sol\":2654:2668  nextCampaignId */\n      dup1\n      sload\n        /* \"crowdFunding.sol\":2654:2670  nextCampaignId-1 */\n      tag_85\n      swap2\n      swap1\n      tag_86\n      jump\t// in\n    tag_85:\n        /* \"crowdFunding.sol\":2637:2671  new campaign [] (nextCampaignId-1) */\n      0xffffffffffffffff\n      dup2\n      gt\n      iszero\n      tag_87\n      jumpi\n      tag_88\n      tag_89\n      jump\t// in\n    tag_88:\n    tag_87:\n      mload(0x40)\n      swap1\n      dup1\n      dup3\n      mstore\n      dup1\n      0x20\n      mul\n      0x20\n      add\n      dup3\n      add\n      0x40\n      mstore\n      dup1\n      iszero\n      tag_90\n      jumpi\n      dup2\n      0x20\n      add\n    tag_91:\n      tag_92\n      tag_93\n      jump\t// in\n    tag_92:\n      dup2\n      mstore\n      0x20\n      add\n      swap1\n      0x01\n      swap1\n      sub\n      swap1\n      dup2\n      tag_91\n      jumpi\n      swap1\n      pop\n    tag_90:\n      pop\n        /* \"crowdFunding.sol\":2603:2671  campaign [] memory campaignList = new campaign [] (nextCampaignId-1) */\n      swap1\n      pop\n        /* \"crowdFunding.sol\":2687:2693  uint i */\n      0x00\n        /* \"crowdFunding.sol\":2682:2783  for (uint i = 0; i <nextCampaignId-1;i++) {... */\n    tag_94:\n        /* \"crowdFunding.sol\":2717:2718  1 */\n      0x01\n        /* \"crowdFunding.sol\":2702:2716  nextCampaignId */\n      dup1\n      sload\n        /* \"crowdFunding.sol\":2702:2718  nextCampaignId-1 */\n      tag_97\n      swap2\n      swap1\n      tag_86\n      jump\t// in\n    tag_97:\n        /* \"crowdFunding.sol\":2699:2700  i */\n      dup2\n        /* \"crowdFunding.sol\":2699:2718  i <nextCampaignId-1 */\n      lt\n        /* \"crowdFunding.sol\":2682:2783  for (uint i = 0; i <nextCampaignId-1;i++) {... */\n      iszero\n      tag_95\n      jumpi\n        /* \"crowdFunding.sol\":2757:2766  campaigns */\n      0x04\n        /* \"crowdFunding.sol\":2757:2771  campaigns[i+1] */\n      0x00\n        /* \"crowdFunding.sol\":2769:2770  1 */\n      0x01\n        /* \"crowdFunding.sol\":2767:2768  i */\n      dup4\n        /* \"crowdFunding.sol\":2767:2770  i+1 */\n      tag_98\n      swap2\n      swap1\n      tag_99\n      jump\t// in\n    tag_98:\n        /* \"crowdFunding.sol\":2757:2771  campaigns[i+1] */\n      dup2\n      mstore\n      0x20\n      add\n      swap1\n      dup2\n      mstore\n      0x20\n      add\n      0x00\n      keccak256\n        /* \"crowdFunding.sol\":2739:2771  campaignList[i] = campaigns[i+1] */\n      mload(0x40)\n      dup1\n      0x0140\n      add\n      0x40\n      mstore\n      swap1\n      dup2\n      0x00\n      dup3\n      add\n      sload\n      dup2\n      mstore\n      0x20\n      add\n      0x01\n      dup3\n      add\n      dup1\n      sload\n      tag_100\n      swap1\n      tag_101\n      jump\t// in\n    tag_100:\n      dup1\n      0x1f\n      add\n      0x20\n      dup1\n      swap2\n      div\n      mul\n      0x20\n      add\n      mload(0x40)\n      swap1\n      dup2\n      add\n      0x40\n      mstore\n      dup1\n      swap3\n      swap2\n      swap1\n      dup2\n      dup2\n      mstore\n      0x20\n      add\n      dup3\n      dup1\n      sload\n      tag_102\n      swap1\n      tag_101\n      jump\t// in\n    tag_102:\n      dup1\n      iszero\n      tag_103\n      jumpi\n      dup1\n      0x1f\n      lt\n      tag_104\n      jumpi\n      0x0100\n      dup1\n      dup4\n      sload\n      div\n      mul\n      dup4\n      mstore\n      swap2\n      0x20\n      add\n      swap2\n      jump(tag_103)\n    tag_104:\n      dup3\n      add\n      swap2\n      swap1\n      0x00\n      mstore\n      keccak256(0x00, 0x20)\n      swap1\n    tag_105:\n      dup2\n      sload\n      dup2\n      mstore\n      swap1\n      0x01\n      add\n      swap1\n      0x20\n      add\n      dup1\n      dup4\n      gt\n      tag_105\n      jumpi\n      dup3\n      swap1\n      sub\n      0x1f\n      and\n      dup3\n      add\n      swap2\n    tag_103:\n      pop\n      pop\n      pop\n      pop\n      pop\n      dup2\n      mstore\n      0x20\n      add\n      0x02\n      dup3\n      add\n      0x00\n      swap1\n      sload\n      swap1\n      0x0100\n      exp\n      swap1\n      div\n      0xffffffffffffffffffffffffffffffffffffffff\n      and\n      0xffffffffffffffffffffffffffffffffffffffff\n      and\n      0xffffffffffffffffffffffffffffffffffffffff\n      and\n      dup2\n      mstore\n      0x20\n      add\n      0x03\n      dup3\n      add\n      sload\n      dup2\n      mstore\n      0x20\n      add\n      0x04\n      dup3\n      add\n      sload\n      dup2\n      mstore\n      0x20\n      add\n      0x05\n      dup3\n      add\n      sload\n      dup2\n      mstore\n      0x20\n      add\n      0x06\n      dup3\n      add\n      sload\n      dup2\n      mstore\n      0x20\n      add\n      0x07\n      dup3\n      add\n      sload\n      dup2\n      mstore\n      0x20\n      add\n      0x08\n      dup3\n      add\n      0x00\n      swap1\n      sload\n      swap1\n      0x0100\n      exp\n      swap1\n      div\n      0xff\n      and\n      iszero\n      iszero\n      iszero\n      iszero\n      dup2\n      mstore\n      0x20\n      add\n      0x08\n      dup3\n      add\n      0x01\n      swap1\n      sload\n      swap1\n      0x0100\n      exp\n      swap1\n      div\n      0xff\n      and\n      iszero\n      iszero\n      iszero\n      iszero\n      dup2\n      mstore\n      pop\n      pop\n        /* \"crowdFunding.sol\":2739:2751  campaignList */\n      dup3\n        /* \"crowdFunding.sol\":2752:2753  i */\n      dup3\n        /* \"crowdFunding.sol\":2739:2754  campaignList[i] */\n      dup2\n      mload\n      dup2\n      lt\n      tag_106\n      jumpi\n      tag_107\n      tag_108\n      jump\t// in\n    tag_107:\n    tag_106:\n      0x20\n      mul\n      0x20\n      add\n      add\n        /* \"crowdFunding.sol\":2739:2771  campaignList[i] = campaigns[i+1] */\n      dup2\n      swap1\n      mstore\n      pop\n        /* \"crowdFunding.sol\":2719:2722  i++ */\n      dup1\n      dup1\n      0x01\n      add\n      swap2\n      pop\n      pop\n        /* \"crowdFunding.sol\":2682:2783  for (uint i = 0; i <nextCampaignId-1;i++) {... */\n      jump(tag_94)\n    tag_95:\n      pop\n        /* \"crowdFunding.sol\":2800:2812  campaignList */\n      dup1\n        /* \"crowdFunding.sol\":2793:2812  return campaignList */\n      swap2\n      pop\n      pop\n        /* \"crowdFunding.sol\":2525:2820  function showCampaigns () public view returns (campaign [] memory) {... */\n      swap1\n      jump\t// out\n        /* \"crowdFunding.sol\":1722:2517  function donateToCampaign (uint _campaignId ) public payable {... */\n    tag_41:\n        /* \"crowdFunding.sol\":1814:1815  0 */\n      0x00\n        /* \"crowdFunding.sol\":1802:1811  msg.value */\n      callvalue\n        /* \"crowdFunding.sol\":1802:1815  msg.value > 0 */\n      gt\n        /* \"crowdFunding.sol\":1794:1841  require(msg.value > 0,\"invalid amount to fund\") */\n      tag_110\n      jumpi\n      mload(0x40)\n      0x08c379a000000000000000000000000000000000000000000000000000000000\n      dup2\n      mstore\n      0x04\n      add\n      tag_111\n      swap1\n      tag_112\n      jump\t// in\n    tag_111:\n      mload(0x40)\n      dup1\n      swap2\n      sub\n      swap1\n      revert\n    tag_110:\n        /* \"crowdFunding.sol\":1875:1889  nextCampaignId */\n      sload(0x01)\n        /* \"crowdFunding.sol\":1860:1871  _campaignId */\n      dup2\n        /* \"crowdFunding.sol\":1860:1889  _campaignId <= nextCampaignId */\n      gt\n      iszero\n        /* \"crowdFunding.sol\":1860:1906  _campaignId <= nextCampaignId && _campaignId>0 */\n      dup1\n      iszero\n      tag_113\n      jumpi\n      pop\n        /* \"crowdFunding.sol\":1905:1906  0 */\n      0x00\n        /* \"crowdFunding.sol\":1893:1904  _campaignId */\n      dup2\n        /* \"crowdFunding.sol\":1893:1906  _campaignId>0 */\n      gt\n        /* \"crowdFunding.sol\":1860:1906  _campaignId <= nextCampaignId && _campaignId>0 */\n    tag_113:\n        /* \"crowdFunding.sol\":1852:1929  require(_campaignId <= nextCampaignId && _campaignId>0,\"Invalid campaign id\") */\n      tag_114\n      jumpi\n      mload(0x40)\n      0x08c379a000000000000000000000000000000000000000000000000000000000\n      dup2\n      mstore\n      0x04\n      add\n      tag_115\n      swap1\n      tag_116\n      jump\t// in\n    tag_115:\n      mload(0x40)\n      dup1\n      swap2\n      sub\n      swap1\n      revert\n    tag_114:\n        /* \"crowdFunding.sol\":1981:1985  true */\n      0x01\n        /* \"crowdFunding.sol\":1948:1985  campaigns[_campaignId].approval==true */\n      iszero\n      iszero\n        /* \"crowdFunding.sol\":1948:1957  campaigns */\n      0x04\n        /* \"crowdFunding.sol\":1948:1970  campaigns[_campaignId] */\n      0x00\n        /* \"crowdFunding.sol\":1958:1969  _campaignId */\n      dup4\n        /* \"crowdFunding.sol\":1948:1970  campaigns[_campaignId] */\n      dup2\n      mstore\n      0x20\n      add\n      swap1\n      dup2\n      mstore\n      0x20\n      add\n      0x00\n      keccak256\n        /* \"crowdFunding.sol\":1948:1979  campaigns[_campaignId].approval */\n      0x08\n      add\n      0x00\n      swap1\n      sload\n      swap1\n      0x0100\n      exp\n      swap1\n      div\n      0xff\n      and\n        /* \"crowdFunding.sol\":1948:1985  campaigns[_campaignId].approval==true */\n      iszero\n      iszero\n      eq\n        /* \"crowdFunding.sol\":1940:2022  require(campaigns[_campaignId].approval==true,\"This campaign is not approved yet\") */\n      tag_117\n      jumpi\n      mload(0x40)\n      0x08c379a000000000000000000000000000000000000000000000000000000000\n      dup2\n      mstore\n      0x04\n      add\n      tag_118\n      swap1\n      tag_119\n      jump\t// in\n    tag_118:\n      mload(0x40)\n      dup1\n      swap2\n      sub\n      swap1\n      revert\n    tag_117:\n        /* \"crowdFunding.sol\":2072:2076  true */\n      0x01\n        /* \"crowdFunding.sol\":2041:2076  campaigns[_campaignId].isLive==true */\n      iszero\n      iszero\n        /* \"crowdFunding.sol\":2041:2050  campaigns */\n      0x04\n        /* \"crowdFunding.sol\":2041:2063  campaigns[_campaignId] */\n      0x00\n        /* \"crowdFunding.sol\":2051:2062  _campaignId */\n      dup4\n        /* \"crowdFunding.sol\":2041:2063  campaigns[_campaignId] */\n      dup2\n      mstore\n      0x20\n      add\n      swap1\n      dup2\n      mstore\n      0x20\n      add\n      0x00\n      keccak256\n        /* \"crowdFunding.sol\":2041:2070  campaigns[_campaignId].isLive */\n      0x08\n      add\n      0x01\n      swap1\n      sload\n      swap1\n      0x0100\n      exp\n      swap1\n      div\n      0xff\n      and\n        /* \"crowdFunding.sol\":2041:2076  campaigns[_campaignId].isLive==true */\n      iszero\n      iszero\n      eq\n        /* \"crowdFunding.sol\":2033:2109  require(campaigns[_campaignId].isLive==true,\"This campaign is not live yet\") */\n      tag_120\n      jumpi\n      mload(0x40)\n      0x08c379a000000000000000000000000000000000000000000000000000000000\n      dup2\n      mstore\n      0x04\n      add\n      tag_121\n      swap1\n      tag_122\n      jump\t// in\n    tag_121:\n      mload(0x40)\n      dup1\n      swap2\n      sub\n      swap1\n      revert\n    tag_120:\n        /* \"crowdFunding.sol\":2147:2156  campaigns */\n      0x04\n        /* \"crowdFunding.sol\":2147:2169  campaigns[_campaignId] */\n      0x00\n        /* \"crowdFunding.sol\":2157:2168  _campaignId */\n      dup3\n        /* \"crowdFunding.sol\":2147:2169  campaigns[_campaignId] */\n      dup2\n      mstore\n      0x20\n      add\n      swap1\n      dup2\n      mstore\n      0x20\n      add\n      0x00\n      keccak256\n        /* \"crowdFunding.sol\":2147:2179  campaigns[_campaignId].startTime */\n      0x06\n      add\n      sload\n        /* \"crowdFunding.sol\":2128:2143  block.timestamp */\n      timestamp\n        /* \"crowdFunding.sol\":2128:2179  block.timestamp >= campaigns[_campaignId].startTime */\n      lt\n      iszero\n        /* \"crowdFunding.sol\":2128:2232  block.timestamp >= campaigns[_campaignId].startTime && block.timestamp <= campaigns[_campaignId].endTime */\n      dup1\n      iszero\n      tag_123\n      jumpi\n      pop\n        /* \"crowdFunding.sol\":2202:2211  campaigns */\n      0x04\n        /* \"crowdFunding.sol\":2202:2224  campaigns[_campaignId] */\n      0x00\n        /* \"crowdFunding.sol\":2212:2223  _campaignId */\n      dup3\n        /* \"crowdFunding.sol\":2202:2224  campaigns[_campaignId] */\n      dup2\n      mstore\n      0x20\n      add\n      swap1\n      dup2\n      mstore\n      0x20\n      add\n      0x00\n      keccak256\n        /* \"crowdFunding.sol\":2202:2232  campaigns[_campaignId].endTime */\n      0x07\n      add\n      sload\n        /* \"crowdFunding.sol\":2183:2198  block.timestamp */\n      timestamp\n        /* \"crowdFunding.sol\":2183:2232  block.timestamp <= campaigns[_campaignId].endTime */\n      gt\n      iszero\n        /* \"crowdFunding.sol\":2128:2232  block.timestamp >= campaigns[_campaignId].startTime && block.timestamp <= campaigns[_campaignId].endTime */\n    tag_123:\n        /* \"crowdFunding.sol\":2120:2260  require(block.timestamp >= campaigns[_campaignId].startTime && block.timestamp <= campaigns[_campaignId].endTime,\"Cannot fund at this time\") */\n      tag_124\n      jumpi\n      mload(0x40)\n      0x08c379a000000000000000000000000000000000000000000000000000000000\n      dup2\n      mstore\n      0x04\n      add\n      tag_125\n      swap1\n      tag_126\n      jump\t// in\n    tag_125:\n      mload(0x40)\n      dup1\n      swap2\n      sub\n      swap1\n      revert\n    tag_124:\n        /* \"crowdFunding.sol\":2349:2358  msg.value */\n      callvalue\n        /* \"crowdFunding.sol\":2311:2320  campaigns */\n      0x04\n        /* \"crowdFunding.sol\":2311:2333  campaigns[_campaignId] */\n      0x00\n        /* \"crowdFunding.sol\":2321:2332  _campaignId */\n      dup4\n        /* \"crowdFunding.sol\":2311:2333  campaigns[_campaignId] */\n      dup2\n      mstore\n      0x20\n      add\n      swap1\n      dup2\n      mstore\n      0x20\n      add\n      0x00\n      keccak256\n        /* \"crowdFunding.sol\":2311:2346  campaigns[_campaignId].amountRaised */\n      0x04\n      add\n      sload\n        /* \"crowdFunding.sol\":2311:2358  campaigns[_campaignId].amountRaised + msg.value */\n      tag_127\n      swap2\n      swap1\n      tag_99\n      jump\t// in\n    tag_127:\n        /* \"crowdFunding.sol\":2273:2282  campaigns */\n      0x04\n        /* \"crowdFunding.sol\":2273:2295  campaigns[_campaignId] */\n      0x00\n        /* \"crowdFunding.sol\":2283:2294  _campaignId */\n      dup4\n        /* \"crowdFunding.sol\":2273:2295  campaigns[_campaignId] */\n      dup2\n      mstore\n      0x20\n      add\n      swap1\n      dup2\n      mstore\n      0x20\n      add\n      0x00\n      keccak256\n        /* \"crowdFunding.sol\":2273:2308  campaigns[_campaignId].amountRaised */\n      0x04\n      add\n        /* \"crowdFunding.sol\":2273:2358  campaigns[_campaignId].amountRaised = campaigns[_campaignId].amountRaised + msg.value */\n      dup2\n      swap1\n      sstore\n      pop\n        /* \"crowdFunding.sol\":2451:2460  msg.value */\n      callvalue\n        /* \"crowdFunding.sol\":2410:2419  campaigns */\n      0x04\n        /* \"crowdFunding.sol\":2410:2432  campaigns[_campaignId] */\n      0x00\n        /* \"crowdFunding.sol\":2420:2431  _campaignId */\n      dup4\n        /* \"crowdFunding.sol\":2410:2432  campaigns[_campaignId] */\n      dup2\n      mstore\n      0x20\n      add\n      swap1\n      dup2\n      mstore\n      0x20\n      add\n      0x00\n      keccak256\n        /* \"crowdFunding.sol\":2410:2448  campaigns[_campaignId].amountRemaining */\n      0x05\n      add\n      sload\n        /* \"crowdFunding.sol\":2410:2460  campaigns[_campaignId].amountRemaining - msg.value */\n      tag_128\n      swap2\n      swap1\n      tag_86\n      jump\t// in\n    tag_128:\n        /* \"crowdFunding.sol\":2369:2378  campaigns */\n      0x04\n        /* \"crowdFunding.sol\":2369:2391  campaigns[_campaignId] */\n      0x00\n        /* \"crowdFunding.sol\":2379:2390  _campaignId */\n      dup4\n        /* \"crowdFunding.sol\":2369:2391  campaigns[_campaignId] */\n      dup2\n      mstore\n      0x20\n      add\n      swap1\n      dup2\n      mstore\n      0x20\n      add\n      0x00\n      keccak256\n        /* \"crowdFunding.sol\":2369:2407  campaigns[_campaignId].amountRemaining */\n      0x05\n      add\n        /* \"crowdFunding.sol\":2369:2460  campaigns[_campaignId].amountRemaining = campaigns[_campaignId].amountRemaining - msg.value */\n      dup2\n      swap1\n      sstore\n      pop\n        /* \"crowdFunding.sol\":2471:2479  donaters */\n      0x05\n        /* \"crowdFunding.sol\":2471:2492  donaters[_campaignId] */\n      0x00\n        /* \"crowdFunding.sol\":2480:2491  _campaignId */\n      dup3\n        /* \"crowdFunding.sol\":2471:2492  donaters[_campaignId] */\n      dup2\n      mstore\n      0x20\n      add\n      swap1\n      dup2\n      mstore\n      0x20\n      add\n      0x00\n      keccak256\n        /* \"crowdFunding.sol\":2498:2508  msg.sender */\n      caller\n        /* \"crowdFunding.sol\":2471:2509  donaters[_campaignId].push(msg.sender) */\n      swap1\n      dup1\n      0x01\n      dup2\n      sload\n      add\n      dup1\n      dup3\n      sstore\n      dup1\n      swap2\n      pop\n      pop\n      0x01\n      swap1\n      sub\n      swap1\n      0x00\n      mstore\n      keccak256(0x00, 0x20)\n      add\n      0x00\n      swap1\n      swap2\n      swap1\n      swap2\n      swap1\n      swap2\n      0x0100\n      exp\n      dup2\n      sload\n      dup2\n      0xffffffffffffffffffffffffffffffffffffffff\n      mul\n      not\n      and\n      swap1\n      dup4\n      0xffffffffffffffffffffffffffffffffffffffff\n      and\n      mul\n      or\n      swap1\n      sstore\n      pop\n        /* \"crowdFunding.sol\":1722:2517  function donateToCampaign (uint _campaignId ) public payable {... */\n      pop\n      jump\t// out\n        /* \"crowdFunding.sol\":4037:4154  function withdrawAllFund () onlyManager external {... */\n    tag_44:\n        /* \"crowdFunding.sol\":319:326  manager */\n      0x00\n      dup1\n      sload\n      swap1\n      0x0100\n      exp\n      swap1\n      div\n      0xffffffffffffffffffffffffffffffffffffffff\n      and\n        /* \"crowdFunding.sol\":307:326  msg.sender==manager */\n      0xffffffffffffffffffffffffffffffffffffffff\n      and\n        /* \"crowdFunding.sol\":307:317  msg.sender */\n      caller\n        /* \"crowdFunding.sol\":307:326  msg.sender==manager */\n      0xffffffffffffffffffffffffffffffffffffffff\n      and\n      eq\n        /* \"crowdFunding.sol\":299:348  require(msg.sender==manager,\"You're not manager\") */\n      tag_131\n      jumpi\n      mload(0x40)\n      0x08c379a000000000000000000000000000000000000000000000000000000000\n      dup2\n      mstore\n      0x04\n      add\n      tag_132\n      swap1\n      tag_75\n      jump\t// in\n    tag_132:\n      mload(0x40)\n      dup1\n      swap2\n      sub\n      swap1\n      revert\n    tag_131:\n        /* \"crowdFunding.sol\":4106:4113  manager */\n      0x00\n      dup1\n      sload\n      swap1\n      0x0100\n      exp\n      swap1\n      div\n      0xffffffffffffffffffffffffffffffffffffffff\n      and\n        /* \"crowdFunding.sol\":4097:4123  payable (manager).transfer */\n      0xffffffffffffffffffffffffffffffffffffffff\n      and\n        /* \"crowdFunding.sol\":4097:4146  payable (manager).transfer(address(this).balance) */\n      0x08fc\n        /* \"crowdFunding.sol\":4124:4145  address(this).balance */\n      selfbalance\n        /* \"crowdFunding.sol\":4097:4146  payable (manager).transfer(address(this).balance) */\n      swap1\n      dup2\n      iszero\n      mul\n      swap1\n      mload(0x40)\n      0x00\n      mload(0x40)\n      dup1\n      dup4\n      sub\n      dup2\n      dup6\n      dup9\n      dup9\n      call\n      swap4\n      pop\n      pop\n      pop\n      pop\n      iszero\n      dup1\n      iszero\n      tag_135\n      jumpi\n      returndatasize\n      0x00\n      dup1\n      returndatacopy\n      revert(0x00, returndatasize)\n    tag_135:\n      pop\n        /* \"crowdFunding.sol\":4037:4154  function withdrawAllFund () onlyManager external {... */\n      jump\t// out\n        /* \"crowdFunding.sol\":1055:1712  function registerCampaign (string calldata _camapaignName,uint _amountToRaise,uint _startTime,uint _endTime) public {... */\n    tag_49:\n        /* \"crowdFunding.sol\":1211:1677  campaign (... */\n      mload(0x40)\n      dup1\n      0x0140\n      add\n      0x40\n      mstore\n      dup1\n        /* \"crowdFunding.sol\":1483:1497  nextCampaignId */\n      sload(0x01)\n        /* \"crowdFunding.sol\":1211:1677  campaign (... */\n      dup2\n      mstore\n      0x20\n      add\n        /* \"crowdFunding.sol\":1269:1283  _camapaignName */\n      dup7\n      dup7\n        /* \"crowdFunding.sol\":1211:1677  campaign (... */\n      dup1\n      dup1\n      0x1f\n      add\n      0x20\n      dup1\n      swap2\n      div\n      mul\n      0x20\n      add\n      mload(0x40)\n      swap1\n      dup2\n      add\n      0x40\n      mstore\n      dup1\n      swap4\n      swap3\n      swap2\n      swap1\n      dup2\n      dup2\n      mstore\n      0x20\n      add\n      dup4\n      dup4\n      dup1\n      dup3\n      dup5\n      calldatacopy\n      0x00\n      dup2\n      dup5\n      add\n      mstore\n      not(0x1f)\n      0x1f\n      dup3\n      add\n      and\n      swap1\n      pop\n      dup1\n      dup4\n      add\n      swap3\n      pop\n      pop\n      pop\n      pop\n      pop\n      pop\n      pop\n      dup2\n      mstore\n      0x20\n      add\n        /* \"crowdFunding.sol\":1314:1324  msg.sender */\n      caller\n        /* \"crowdFunding.sol\":1211:1677  campaign (... */\n      0xffffffffffffffffffffffffffffffffffffffff\n      and\n      dup2\n      mstore\n      0x20\n      add\n        /* \"crowdFunding.sol\":1359:1373  _amountToRaise */\n      dup5\n        /* \"crowdFunding.sol\":1211:1677  campaign (... */\n      dup2\n      mstore\n      0x20\n      add\n        /* \"crowdFunding.sol\":1531:1532  0 */\n      0x00\n        /* \"crowdFunding.sol\":1211:1677  campaign (... */\n      dup2\n      mstore\n      0x20\n      add\n        /* \"crowdFunding.sol\":1569:1583  _amountToRaise */\n      dup5\n        /* \"crowdFunding.sol\":1211:1677  campaign (... */\n      dup2\n      mstore\n      0x20\n      add\n        /* \"crowdFunding.sol\":1404:1414  _startTime */\n      dup4\n        /* \"crowdFunding.sol\":1211:1677  campaign (... */\n      dup2\n      mstore\n      0x20\n      add\n        /* \"crowdFunding.sol\":1443:1451  _endTime */\n      dup3\n        /* \"crowdFunding.sol\":1211:1677  campaign (... */\n      dup2\n      mstore\n      0x20\n      add\n        /* \"crowdFunding.sol\":1613:1618  false */\n      0x00\n        /* \"crowdFunding.sol\":1211:1677  campaign (... */\n      iszero\n      iszero\n      dup2\n      mstore\n      0x20\n      add\n        /* \"crowdFunding.sol\":1646:1651  false */\n      0x00\n        /* \"crowdFunding.sol\":1211:1677  campaign (... */\n      iszero\n      iszero\n      dup2\n      mstore\n      pop\n        /* \"crowdFunding.sol\":1182:1191  campaigns */\n      0x04\n        /* \"crowdFunding.sol\":1182:1208  campaigns [nextCampaignId] */\n      0x00\n        /* \"crowdFunding.sol\":1193:1207  nextCampaignId */\n      sload(0x01)\n        /* \"crowdFunding.sol\":1182:1208  campaigns [nextCampaignId] */\n      dup2\n      mstore\n      0x20\n      add\n      swap1\n      dup2\n      mstore\n      0x20\n      add\n      0x00\n      keccak256\n        /* \"crowdFunding.sol\":1182:1677  campaigns [nextCampaignId] = campaign (... */\n      0x00\n      dup3\n      add\n      mload\n      dup2\n      0x00\n      add\n      sstore\n      0x20\n      dup3\n      add\n      mload\n      dup2\n      0x01\n      add\n      swap1\n      dup2\n      tag_137\n      swap2\n      swap1\n      tag_138\n      jump\t// in\n    tag_137:\n      pop\n      0x40\n      dup3\n      add\n      mload\n      dup2\n      0x02\n      add\n      exp(0x0100, 0x00)\n      dup2\n      sload\n      dup2\n      0xffffffffffffffffffffffffffffffffffffffff\n      mul\n      not\n      and\n      swap1\n      dup4\n      0xffffffffffffffffffffffffffffffffffffffff\n      and\n      mul\n      or\n      swap1\n      sstore\n      pop\n      0x60\n      dup3\n      add\n      mload\n      dup2\n      0x03\n      add\n      sstore\n      0x80\n      dup3\n      add\n      mload\n      dup2\n      0x04\n      add\n      sstore\n      0xa0\n      dup3\n      add\n      mload\n      dup2\n      0x05\n      add\n      sstore\n      0xc0\n      dup3\n      add\n      mload\n      dup2\n      0x06\n      add\n      sstore\n      0xe0\n      dup3\n      add\n      mload\n      dup2\n      0x07\n      add\n      sstore\n      0x0100\n      dup3\n      add\n      mload\n      dup2\n      0x08\n      add\n      exp(0x0100, 0x00)\n      dup2\n      sload\n      dup2\n      0xff\n      mul\n      not\n      and\n      swap1\n      dup4\n      iszero\n      iszero\n      mul\n      or\n      swap1\n      sstore\n      pop\n      0x0120\n      dup3\n      add\n      mload\n      dup2\n      0x08\n      add\n      exp(0x0100, 0x01)\n      dup2\n      sload\n      dup2\n      0xff\n      mul\n      not\n      and\n      swap1\n      dup4\n      iszero\n      iszero\n      mul\n      or\n      swap1\n      sstore\n      pop\n      swap1\n      pop\n      pop\n        /* \"crowdFunding.sol\":1688:1702  nextCampaignId */\n      0x01\n      0x00\n        /* \"crowdFunding.sol\":1688:1704  nextCampaignId++ */\n      dup2\n      sload\n      dup1\n      swap3\n      swap2\n      swap1\n      tag_139\n      swap1\n      tag_140\n      jump\t// in\n    tag_139:\n      swap2\n      swap1\n      pop\n      sstore\n      pop\n        /* \"crowdFunding.sol\":1055:1712  function registerCampaign (string calldata _camapaignName,uint _amountToRaise,uint _startTime,uint _endTime) public {... */\n      pop\n      pop\n      pop\n      pop\n      pop\n      jump\t// out\n        /* \"crowdFunding.sol\":3092:3222  function getApprovalStatus (uint _campaignId) public view returns (bool) {... */\n    tag_53:\n        /* \"crowdFunding.sol\":3159:3163  bool */\n      0x00\n        /* \"crowdFunding.sol\":3183:3192  campaigns */\n      0x04\n        /* \"crowdFunding.sol\":3183:3205  campaigns[_campaignId] */\n      0x00\n        /* \"crowdFunding.sol\":3193:3204  _campaignId */\n      dup4\n        /* \"crowdFunding.sol\":3183:3205  campaigns[_campaignId] */\n      dup2\n      mstore\n      0x20\n      add\n      swap1\n      dup2\n      mstore\n      0x20\n      add\n      0x00\n      keccak256\n        /* \"crowdFunding.sol\":3183:3214  campaigns[_campaignId].approval */\n      0x08\n      add\n      0x00\n      swap1\n      sload\n      swap1\n      0x0100\n      exp\n      swap1\n      div\n      0xff\n      and\n        /* \"crowdFunding.sol\":3176:3214  return campaigns[_campaignId].approval */\n      swap1\n      pop\n        /* \"crowdFunding.sol\":3092:3222  function getApprovalStatus (uint _campaignId) public view returns (bool) {... */\n      swap2\n      swap1\n      pop\n      jump\t// out\n    tag_93:\n      mload(0x40)\n      dup1\n      0x0140\n      add\n      0x40\n      mstore\n      dup1\n      0x00\n      dup2\n      mstore\n      0x20\n      add\n      0x60\n      dup2\n      mstore\n      0x20\n      add\n      and(0xffffffffffffffffffffffffffffffffffffffff, 0x00)\n      dup2\n      mstore\n      0x20\n      add\n      0x00\n      dup2\n      mstore\n      0x20\n      add\n      0x00\n      dup2\n      mstore\n      0x20\n      add\n      0x00\n      dup2\n      mstore\n      0x20\n      add\n      0x00\n      dup2\n      mstore\n      0x20\n      add\n      0x00\n      dup2\n      mstore\n      0x20\n      add\n      iszero(iszero(0x00))\n      dup2\n      mstore\n      0x20\n      add\n      iszero(iszero(0x00))\n      dup2\n      mstore\n      pop\n      swap1\n      jump\t// out\n        /* \"#utility.yul\":88:205   */\n    tag_143:\n        /* \"#utility.yul\":197:198   */\n      0x00\n        /* \"#utility.yul\":194:195   */\n      dup1\n        /* \"#utility.yul\":187:199   */\n      revert\n        /* \"#utility.yul\":211:328   */\n    tag_144:\n        /* \"#utility.yul\":320:321   */\n      0x00\n        /* \"#utility.yul\":317:318   */\n      dup1\n        /* \"#utility.yul\":310:322   */\n      revert\n        /* \"#utility.yul\":334:411   */\n    tag_145:\n        /* \"#utility.yul\":371:378   */\n      0x00\n        /* \"#utility.yul\":400:405   */\n      dup2\n        /* \"#utility.yul\":389:405   */\n      swap1\n      pop\n        /* \"#utility.yul\":334:411   */\n      swap2\n      swap1\n      pop\n      jump\t// out\n        /* \"#utility.yul\":417:539   */\n    tag_146:\n        /* \"#utility.yul\":490:514   */\n      tag_219\n        /* \"#utility.yul\":508:513   */\n      dup2\n        /* \"#utility.yul\":490:514   */\n      tag_145\n      jump\t// in\n    tag_219:\n        /* \"#utility.yul\":483:488   */\n      dup2\n        /* \"#utility.yul\":480:515   */\n      eq\n        /* \"#utility.yul\":470:533   */\n      tag_220\n      jumpi\n        /* \"#utility.yul\":529:530   */\n      0x00\n        /* \"#utility.yul\":526:527   */\n      dup1\n        /* \"#utility.yul\":519:531   */\n      revert\n        /* \"#utility.yul\":470:533   */\n    tag_220:\n        /* \"#utility.yul\":417:539   */\n      pop\n      jump\t// out\n        /* \"#utility.yul\":545:684   */\n    tag_147:\n        /* \"#utility.yul\":591:596   */\n      0x00\n        /* \"#utility.yul\":629:635   */\n      dup2\n        /* \"#utility.yul\":616:636   */\n      calldataload\n        /* \"#utility.yul\":607:636   */\n      swap1\n      pop\n        /* \"#utility.yul\":645:678   */\n      tag_222\n        /* \"#utility.yul\":672:677   */\n      dup2\n        /* \"#utility.yul\":645:678   */\n      tag_146\n      jump\t// in\n    tag_222:\n        /* \"#utility.yul\":545:684   */\n      swap3\n      swap2\n      pop\n      pop\n      jump\t// out\n        /* \"#utility.yul\":690:1019   */\n    tag_18:\n        /* \"#utility.yul\":749:755   */\n      0x00\n        /* \"#utility.yul\":798:800   */\n      0x20\n        /* \"#utility.yul\":786:795   */\n      dup3\n        /* \"#utility.yul\":777:784   */\n      dup5\n        /* \"#utility.yul\":773:796   */\n      sub\n        /* \"#utility.yul\":769:801   */\n      slt\n        /* \"#utility.yul\":766:885   */\n      iszero\n      tag_224\n      jumpi\n        /* \"#utility.yul\":804:883   */\n      tag_225\n      tag_143\n      jump\t// in\n    tag_225:\n        /* \"#utility.yul\":766:885   */\n    tag_224:\n        /* \"#utility.yul\":924:925   */\n      0x00\n        /* \"#utility.yul\":949:1002   */\n      tag_226\n        /* \"#utility.yul\":994:1001   */\n      dup5\n        /* \"#utility.yul\":985:991   */\n      dup3\n        /* \"#utility.yul\":974:983   */\n      dup6\n        /* \"#utility.yul\":970:992   */\n      add\n        /* \"#utility.yul\":949:1002   */\n      tag_147\n      jump\t// in\n    tag_226:\n        /* \"#utility.yul\":939:1002   */\n      swap2\n      pop\n        /* \"#utility.yul\":895:1012   */\n      pop\n        /* \"#utility.yul\":690:1019   */\n      swap3\n      swap2\n      pop\n      pop\n      jump\t// out\n        /* \"#utility.yul\":1025:1139   */\n    tag_148:\n        /* \"#utility.yul\":1092:1098   */\n      0x00\n        /* \"#utility.yul\":1126:1131   */\n      dup2\n        /* \"#utility.yul\":1120:1132   */\n      mload\n        /* \"#utility.yul\":1110:1132   */\n      swap1\n      pop\n        /* \"#utility.yul\":1025:1139   */\n      swap2\n      swap1\n      pop\n      jump\t// out\n        /* \"#utility.yul\":1145:1329   */\n    tag_149:\n        /* \"#utility.yul\":1244:1255   */\n      0x00\n        /* \"#utility.yul\":1278:1284   */\n      dup3\n        /* \"#utility.yul\":1273:1276   */\n      dup3\n        /* \"#utility.yul\":1266:1285   */\n      mstore\n        /* \"#utility.yul\":1318:1322   */\n      0x20\n        /* \"#utility.yul\":1313:1316   */\n      dup3\n        /* \"#utility.yul\":1309:1323   */\n      add\n        /* \"#utility.yul\":1294:1323   */\n      swap1\n      pop\n        /* \"#utility.yul\":1145:1329   */\n      swap3\n      swap2\n      pop\n      pop\n      jump\t// out\n        /* \"#utility.yul\":1335:1467   */\n    tag_150:\n        /* \"#utility.yul\":1402:1406   */\n      0x00\n        /* \"#utility.yul\":1425:1428   */\n      dup2\n        /* \"#utility.yul\":1417:1428   */\n      swap1\n      pop\n        /* \"#utility.yul\":1455:1459   */\n      0x20\n        /* \"#utility.yul\":1450:1453   */\n      dup3\n        /* \"#utility.yul\":1446:1460   */\n      add\n        /* \"#utility.yul\":1438:1460   */\n      swap1\n      pop\n        /* \"#utility.yul\":1335:1467   */\n      swap2\n      swap1\n      pop\n      jump\t// out\n        /* \"#utility.yul\":1473:1599   */\n    tag_151:\n        /* \"#utility.yul\":1510:1517   */\n      0x00\n        /* \"#utility.yul\":1550:1592   */\n      0xffffffffffffffffffffffffffffffffffffffff\n        /* \"#utility.yul\":1543:1548   */\n      dup3\n        /* \"#utility.yul\":1539:1593   */\n      and\n        /* \"#utility.yul\":1528:1593   */\n      swap1\n      pop\n        /* \"#utility.yul\":1473:1599   */\n      swap2\n      swap1\n      pop\n      jump\t// out\n        /* \"#utility.yul\":1605:1701   */\n    tag_152:\n        /* \"#utility.yul\":1642:1649   */\n      0x00\n        /* \"#utility.yul\":1671:1695   */\n      tag_232\n        /* \"#utility.yul\":1689:1694   */\n      dup3\n        /* \"#utility.yul\":1671:1695   */\n      tag_151\n      jump\t// in\n    tag_232:\n        /* \"#utility.yul\":1660:1695   */\n      swap1\n      pop\n        /* \"#utility.yul\":1605:1701   */\n      swap2\n      swap1\n      pop\n      jump\t// out\n        /* \"#utility.yul\":1707:1815   */\n    tag_153:\n        /* \"#utility.yul\":1784:1808   */\n      tag_234\n        /* \"#utility.yul\":1802:1807   */\n      dup2\n        /* \"#utility.yul\":1784:1808   */\n      tag_152\n      jump\t// in\n    tag_234:\n        /* \"#utility.yul\":1779:1782   */\n      dup3\n        /* \"#utility.yul\":1772:1809   */\n      mstore\n        /* \"#utility.yul\":1707:1815   */\n      pop\n      pop\n      jump\t// out\n        /* \"#utility.yul\":1821:2000   */\n    tag_154:\n        /* \"#utility.yul\":1890:1900   */\n      0x00\n        /* \"#utility.yul\":1911:1957   */\n      tag_236\n        /* \"#utility.yul\":1953:1956   */\n      dup4\n        /* \"#utility.yul\":1945:1951   */\n      dup4\n        /* \"#utility.yul\":1911:1957   */\n      tag_153\n      jump\t// in\n    tag_236:\n        /* \"#utility.yul\":1989:1993   */\n      0x20\n        /* \"#utility.yul\":1984:1987   */\n      dup4\n        /* \"#utility.yul\":1980:1994   */\n      add\n        /* \"#utility.yul\":1966:1994   */\n      swap1\n      pop\n        /* \"#utility.yul\":1821:2000   */\n      swap3\n      swap2\n      pop\n      pop\n      jump\t// out\n        /* \"#utility.yul\":2006:2119   */\n    tag_155:\n        /* \"#utility.yul\":2076:2080   */\n      0x00\n        /* \"#utility.yul\":2108:2112   */\n      0x20\n        /* \"#utility.yul\":2103:2106   */\n      dup3\n        /* \"#utility.yul\":2099:2113   */\n      add\n        /* \"#utility.yul\":2091:2113   */\n      swap1\n      pop\n        /* \"#utility.yul\":2006:2119   */\n      swap2\n      swap1\n      pop\n      jump\t// out\n        /* \"#utility.yul\":2155:2887   */\n    tag_156:\n        /* \"#utility.yul\":2274:2277   */\n      0x00\n        /* \"#utility.yul\":2303:2357   */\n      tag_239\n        /* \"#utility.yul\":2351:2356   */\n      dup3\n        /* \"#utility.yul\":2303:2357   */\n      tag_148\n      jump\t// in\n    tag_239:\n        /* \"#utility.yul\":2373:2459   */\n      tag_240\n        /* \"#utility.yul\":2452:2458   */\n      dup2\n        /* \"#utility.yul\":2447:2450   */\n      dup6\n        /* \"#utility.yul\":2373:2459   */\n      tag_149\n      jump\t// in\n    tag_240:\n        /* \"#utility.yul\":2366:2459   */\n      swap4\n      pop\n        /* \"#utility.yul\":2483:2539   */\n      tag_241\n        /* \"#utility.yul\":2533:2538   */\n      dup4\n        /* \"#utility.yul\":2483:2539   */\n      tag_150\n      jump\t// in\n    tag_241:\n        /* \"#utility.yul\":2562:2569   */\n      dup1\n        /* \"#utility.yul\":2593:2594   */\n      0x00\n        /* \"#utility.yul\":2578:2862   */\n    tag_242:\n        /* \"#utility.yul\":2603:2609   */\n      dup4\n        /* \"#utility.yul\":2600:2601   */\n      dup2\n        /* \"#utility.yul\":2597:2610   */\n      lt\n        /* \"#utility.yul\":2578:2862   */\n      iszero\n      tag_244\n      jumpi\n        /* \"#utility.yul\":2679:2685   */\n      dup2\n        /* \"#utility.yul\":2673:2686   */\n      mload\n        /* \"#utility.yul\":2706:2769   */\n      tag_245\n        /* \"#utility.yul\":2765:2768   */\n      dup9\n        /* \"#utility.yul\":2750:2763   */\n      dup3\n        /* \"#utility.yul\":2706:2769   */\n      tag_154\n      jump\t// in\n    tag_245:\n        /* \"#utility.yul\":2699:2769   */\n      swap8\n      pop\n        /* \"#utility.yul\":2792:2852   */\n      tag_246\n        /* \"#utility.yul\":2845:2851   */\n      dup4\n        /* \"#utility.yul\":2792:2852   */\n      tag_155\n      jump\t// in\n    tag_246:\n        /* \"#utility.yul\":2782:2852   */\n      swap3\n      pop\n        /* \"#utility.yul\":2638:2862   */\n      pop\n        /* \"#utility.yul\":2625:2626   */\n      0x01\n        /* \"#utility.yul\":2622:2623   */\n      dup2\n        /* \"#utility.yul\":2618:2627   */\n      add\n        /* \"#utility.yul\":2613:2627   */\n      swap1\n      pop\n        /* \"#utility.yul\":2578:2862   */\n      jump(tag_242)\n    tag_244:\n        /* \"#utility.yul\":2582:2596   */\n      pop\n        /* \"#utility.yul\":2878:2881   */\n      dup6\n        /* \"#utility.yul\":2871:2881   */\n      swap4\n      pop\n        /* \"#utility.yul\":2279:2887   */\n      pop\n      pop\n      pop\n        /* \"#utility.yul\":2155:2887   */\n      swap3\n      swap2\n      pop\n      pop\n      jump\t// out\n        /* \"#utility.yul\":2893:3266   */\n    tag_25:\n        /* \"#utility.yul\":3036:3040   */\n      0x00\n        /* \"#utility.yul\":3074:3076   */\n      0x20\n        /* \"#utility.yul\":3063:3072   */\n      dup3\n        /* \"#utility.yul\":3059:3077   */\n      add\n        /* \"#utility.yul\":3051:3077   */\n      swap1\n      pop\n        /* \"#utility.yul\":3123:3132   */\n      dup2\n        /* \"#utility.yul\":3117:3121   */\n      dup2\n        /* \"#utility.yul\":3113:3133   */\n      sub\n        /* \"#utility.yul\":3109:3110   */\n      0x00\n        /* \"#utility.yul\":3098:3107   */\n      dup4\n        /* \"#utility.yul\":3094:3111   */\n      add\n        /* \"#utility.yul\":3087:3134   */\n      mstore\n        /* \"#utility.yul\":3151:3259   */\n      tag_248\n        /* \"#utility.yul\":3254:3258   */\n      dup2\n        /* \"#utility.yul\":3245:3251   */\n      dup5\n        /* \"#utility.yul\":3151:3259   */\n      tag_156\n      jump\t// in\n    tag_248:\n        /* \"#utility.yul\":3143:3259   */\n      swap1\n      pop\n        /* \"#utility.yul\":2893:3266   */\n      swap3\n      swap2\n      pop\n      pop\n      jump\t// out\n        /* \"#utility.yul\":3272:3410   */\n    tag_157:\n        /* \"#utility.yul\":3363:3369   */\n      0x00\n        /* \"#utility.yul\":3397:3402   */\n      dup2\n        /* \"#utility.yul\":3391:3403   */\n      mload\n        /* \"#utility.yul\":3381:3403   */\n      swap1\n      pop\n        /* \"#utility.yul\":3272:3410   */\n      swap2\n      swap1\n      pop\n      jump\t// out\n        /* \"#utility.yul\":3416:3624   */\n    tag_158:\n        /* \"#utility.yul\":3539:3550   */\n      0x00\n        /* \"#utility.yul\":3573:3579   */\n      dup3\n        /* \"#utility.yul\":3568:3571   */\n      dup3\n        /* \"#utility.yul\":3561:3580   */\n      mstore\n        /* \"#utility.yul\":3613:3617   */\n      0x20\n        /* \"#utility.yul\":3608:3611   */\n      dup3\n        /* \"#utility.yul\":3604:3618   */\n      add\n        /* \"#utility.yul\":3589:3618   */\n      swap1\n      pop\n        /* \"#utility.yul\":3416:3624   */\n      swap3\n      swap2\n      pop\n      pop\n      jump\t// out\n        /* \"#utility.yul\":3630:3786   */\n    tag_159:\n        /* \"#utility.yul\":3721:3725   */\n      0x00\n        /* \"#utility.yul\":3744:3747   */\n      dup2\n        /* \"#utility.yul\":3736:3747   */\n      swap1\n      pop\n        /* \"#utility.yul\":3774:3778   */\n      0x20\n        /* \"#utility.yul\":3769:3772   */\n      dup3\n        /* \"#utility.yul\":3765:3779   */\n      add\n        /* \"#utility.yul\":3757:3779   */\n      swap1\n      pop\n        /* \"#utility.yul\":3630:3786   */\n      swap2\n      swap1\n      pop\n      jump\t// out\n        /* \"#utility.yul\":3792:3900   */\n    tag_160:\n        /* \"#utility.yul\":3869:3893   */\n      tag_253\n        /* \"#utility.yul\":3887:3892   */\n      dup2\n        /* \"#utility.yul\":3869:3893   */\n      tag_145\n      jump\t// in\n    tag_253:\n        /* \"#utility.yul\":3864:3867   */\n      dup3\n        /* \"#utility.yul\":3857:3894   */\n      mstore\n        /* \"#utility.yul\":3792:3900   */\n      pop\n      pop\n      jump\t// out\n        /* \"#utility.yul\":3906:4005   */\n    tag_161:\n        /* \"#utility.yul\":3958:3964   */\n      0x00\n        /* \"#utility.yul\":3992:3997   */\n      dup2\n        /* \"#utility.yul\":3986:3998   */\n      mload\n        /* \"#utility.yul\":3976:3998   */\n      swap1\n      pop\n        /* \"#utility.yul\":3906:4005   */\n      swap2\n      swap1\n      pop\n      jump\t// out\n        /* \"#utility.yul\":4011:4170   */\n    tag_162:\n        /* \"#utility.yul\":4085:4096   */\n      0x00\n        /* \"#utility.yul\":4119:4125   */\n      dup3\n        /* \"#utility.yul\":4114:4117   */\n      dup3\n        /* \"#utility.yul\":4107:4126   */\n      mstore\n        /* \"#utility.yul\":4159:4163   */\n      0x20\n        /* \"#utility.yul\":4154:4157   */\n      dup3\n        /* \"#utility.yul\":4150:4164   */\n      add\n        /* \"#utility.yul\":4135:4164   */\n      swap1\n      pop\n        /* \"#utility.yul\":4011:4170   */\n      swap3\n      swap2\n      pop\n      pop\n      jump\t// out\n        /* \"#utility.yul\":4176:4315   */\n    tag_163:\n        /* \"#utility.yul\":4265:4271   */\n      dup3\n        /* \"#utility.yul\":4260:4263   */\n      dup2\n        /* \"#utility.yul\":4255:4258   */\n      dup4\n        /* \"#utility.yul\":4249:4272   */\n      mcopy\n        /* \"#utility.yul\":4306:4307   */\n      0x00\n        /* \"#utility.yul\":4297:4303   */\n      dup4\n        /* \"#utility.yul\":4292:4295   */\n      dup4\n        /* \"#utility.yul\":4288:4304   */\n      add\n        /* \"#utility.yul\":4281:4308   */\n      mstore\n        /* \"#utility.yul\":4176:4315   */\n      pop\n      pop\n      pop\n      jump\t// out\n        /* \"#utility.yul\":4321:4423   */\n    tag_164:\n        /* \"#utility.yul\":4362:4368   */\n      0x00\n        /* \"#utility.yul\":4413:4415   */\n      0x1f\n        /* \"#utility.yul\":4409:4416   */\n      not\n        /* \"#utility.yul\":4404:4406   */\n      0x1f\n        /* \"#utility.yul\":4397:4402   */\n      dup4\n        /* \"#utility.yul\":4393:4407   */\n      add\n        /* \"#utility.yul\":4389:4417   */\n      and\n        /* \"#utility.yul\":4379:4417   */\n      swap1\n      pop\n        /* \"#utility.yul\":4321:4423   */\n      swap2\n      swap1\n      pop\n      jump\t// out\n        /* \"#utility.yul\":4429:4786   */\n    tag_165:\n        /* \"#utility.yul\":4507:4510   */\n      0x00\n        /* \"#utility.yul\":4535:4574   */\n      tag_259\n        /* \"#utility.yul\":4568:4573   */\n      dup3\n        /* \"#utility.yul\":4535:4574   */\n      tag_161\n      jump\t// in\n    tag_259:\n        /* \"#utility.yul\":4590:4651   */\n      tag_260\n        /* \"#utility.yul\":4644:4650   */\n      dup2\n        /* \"#utility.yul\":4639:4642   */\n      dup6\n        /* \"#utility.yul\":4590:4651   */\n      tag_162\n      jump\t// in\n    tag_260:\n        /* \"#utility.yul\":4583:4651   */\n      swap4\n      pop\n        /* \"#utility.yul\":4660:4725   */\n      tag_261\n        /* \"#utility.yul\":4718:4724   */\n      dup2\n        /* \"#utility.yul\":4713:4716   */\n      dup6\n        /* \"#utility.yul\":4706:4710   */\n      0x20\n        /* \"#utility.yul\":4699:4704   */\n      dup7\n        /* \"#utility.yul\":4695:4711   */\n      add\n        /* \"#utility.yul\":4660:4725   */\n      tag_163\n      jump\t// in\n    tag_261:\n        /* \"#utility.yul\":4750:4779   */\n      tag_262\n        /* \"#utility.yul\":4772:4778   */\n      dup2\n        /* \"#utility.yul\":4750:4779   */\n      tag_164\n      jump\t// in\n    tag_262:\n        /* \"#utility.yul\":4745:4748   */\n      dup5\n        /* \"#utility.yul\":4741:4780   */\n      add\n        /* \"#utility.yul\":4734:4780   */\n      swap2\n      pop\n        /* \"#utility.yul\":4511:4786   */\n      pop\n        /* \"#utility.yul\":4429:4786   */\n      swap3\n      swap2\n      pop\n      pop\n      jump\t// out\n        /* \"#utility.yul\":4792:4882   */\n    tag_166:\n        /* \"#utility.yul\":4826:4833   */\n      0x00\n        /* \"#utility.yul\":4869:4874   */\n      dup2\n        /* \"#utility.yul\":4862:4875   */\n      iszero\n        /* \"#utility.yul\":4855:4876   */\n      iszero\n        /* \"#utility.yul\":4844:4876   */\n      swap1\n      pop\n        /* \"#utility.yul\":4792:4882   */\n      swap2\n      swap1\n      pop\n      jump\t// out\n        /* \"#utility.yul\":4888:4987   */\n    tag_167:\n        /* \"#utility.yul\":4959:4980   */\n      tag_265\n        /* \"#utility.yul\":4974:4979   */\n      dup2\n        /* \"#utility.yul\":4959:4980   */\n      tag_166\n      jump\t// in\n    tag_265:\n        /* \"#utility.yul\":4954:4957   */\n      dup3\n        /* \"#utility.yul\":4947:4981   */\n      mstore\n        /* \"#utility.yul\":4888:4987   */\n      pop\n      pop\n      jump\t// out\n        /* \"#utility.yul\":5061:7106   */\n    tag_168:\n        /* \"#utility.yul\":5168:5171   */\n      0x00\n        /* \"#utility.yul\":5204:5210   */\n      0x0140\n        /* \"#utility.yul\":5199:5202   */\n      dup4\n        /* \"#utility.yul\":5195:5211   */\n      add\n        /* \"#utility.yul\":5299:5303   */\n      0x00\n        /* \"#utility.yul\":5292:5297   */\n      dup4\n        /* \"#utility.yul\":5288:5304   */\n      add\n        /* \"#utility.yul\":5282:5305   */\n      mload\n        /* \"#utility.yul\":5318:5381   */\n      tag_267\n        /* \"#utility.yul\":5375:5379   */\n      0x00\n        /* \"#utility.yul\":5370:5373   */\n      dup7\n        /* \"#utility.yul\":5366:5380   */\n      add\n        /* \"#utility.yul\":5352:5364   */\n      dup3\n        /* \"#utility.yul\":5318:5381   */\n      tag_160\n      jump\t// in\n    tag_267:\n        /* \"#utility.yul\":5221:5391   */\n      pop\n        /* \"#utility.yul\":5481:5485   */\n      0x20\n        /* \"#utility.yul\":5474:5479   */\n      dup4\n        /* \"#utility.yul\":5470:5486   */\n      add\n        /* \"#utility.yul\":5464:5487   */\n      mload\n        /* \"#utility.yul\":5534:5537   */\n      dup5\n        /* \"#utility.yul\":5528:5532   */\n      dup3\n        /* \"#utility.yul\":5524:5538   */\n      sub\n        /* \"#utility.yul\":5517:5521   */\n      0x20\n        /* \"#utility.yul\":5512:5515   */\n      dup7\n        /* \"#utility.yul\":5508:5522   */\n      add\n        /* \"#utility.yul\":5501:5539   */\n      mstore\n        /* \"#utility.yul\":5560:5633   */\n      tag_268\n        /* \"#utility.yul\":5628:5632   */\n      dup3\n        /* \"#utility.yul\":5614:5626   */\n      dup3\n        /* \"#utility.yul\":5560:5633   */\n      tag_165\n      jump\t// in\n    tag_268:\n        /* \"#utility.yul\":5552:5633   */\n      swap2\n      pop\n        /* \"#utility.yul\":5401:5644   */\n      pop\n        /* \"#utility.yul\":5731:5735   */\n      0x40\n        /* \"#utility.yul\":5724:5729   */\n      dup4\n        /* \"#utility.yul\":5720:5736   */\n      add\n        /* \"#utility.yul\":5714:5737   */\n      mload\n        /* \"#utility.yul\":5750:5813   */\n      tag_269\n        /* \"#utility.yul\":5807:5811   */\n      0x40\n        /* \"#utility.yul\":5802:5805   */\n      dup7\n        /* \"#utility.yul\":5798:5812   */\n      add\n        /* \"#utility.yul\":5784:5796   */\n      dup3\n        /* \"#utility.yul\":5750:5813   */\n      tag_153\n      jump\t// in\n    tag_269:\n        /* \"#utility.yul\":5654:5823   */\n      pop\n        /* \"#utility.yul\":5914:5918   */\n      0x60\n        /* \"#utility.yul\":5907:5912   */\n      dup4\n        /* \"#utility.yul\":5903:5919   */\n      add\n        /* \"#utility.yul\":5897:5920   */\n      mload\n        /* \"#utility.yul\":5933:5996   */\n      tag_270\n        /* \"#utility.yul\":5990:5994   */\n      0x60\n        /* \"#utility.yul\":5985:5988   */\n      dup7\n        /* \"#utility.yul\":5981:5995   */\n      add\n        /* \"#utility.yul\":5967:5979   */\n      dup3\n        /* \"#utility.yul\":5933:5996   */\n      tag_160\n      jump\t// in\n    tag_270:\n        /* \"#utility.yul\":5833:6006   */\n      pop\n        /* \"#utility.yul\":6096:6100   */\n      0x80\n        /* \"#utility.yul\":6089:6094   */\n      dup4\n        /* \"#utility.yul\":6085:6101   */\n      add\n        /* \"#utility.yul\":6079:6102   */\n      mload\n        /* \"#utility.yul\":6115:6178   */\n      tag_271\n        /* \"#utility.yul\":6172:6176   */\n      0x80\n        /* \"#utility.yul\":6167:6170   */\n      dup7\n        /* \"#utility.yul\":6163:6177   */\n      add\n        /* \"#utility.yul\":6149:6161   */\n      dup3\n        /* \"#utility.yul\":6115:6178   */\n      tag_160\n      jump\t// in\n    tag_271:\n        /* \"#utility.yul\":6016:6188   */\n      pop\n        /* \"#utility.yul\":6281:6285   */\n      0xa0\n        /* \"#utility.yul\":6274:6279   */\n      dup4\n        /* \"#utility.yul\":6270:6286   */\n      add\n        /* \"#utility.yul\":6264:6287   */\n      mload\n        /* \"#utility.yul\":6300:6363   */\n      tag_272\n        /* \"#utility.yul\":6357:6361   */\n      0xa0\n        /* \"#utility.yul\":6352:6355   */\n      dup7\n        /* \"#utility.yul\":6348:6362   */\n      add\n        /* \"#utility.yul\":6334:6346   */\n      dup3\n        /* \"#utility.yul\":6300:6363   */\n      tag_160\n      jump\t// in\n    tag_272:\n        /* \"#utility.yul\":6198:6373   */\n      pop\n        /* \"#utility.yul\":6460:6464   */\n      0xc0\n        /* \"#utility.yul\":6453:6458   */\n      dup4\n        /* \"#utility.yul\":6449:6465   */\n      add\n        /* \"#utility.yul\":6443:6466   */\n      mload\n        /* \"#utility.yul\":6479:6542   */\n      tag_273\n        /* \"#utility.yul\":6536:6540   */\n      0xc0\n        /* \"#utility.yul\":6531:6534   */\n      dup7\n        /* \"#utility.yul\":6527:6541   */\n      add\n        /* \"#utility.yul\":6513:6525   */\n      dup3\n        /* \"#utility.yul\":6479:6542   */\n      tag_160\n      jump\t// in\n    tag_273:\n        /* \"#utility.yul\":6383:6552   */\n      pop\n        /* \"#utility.yul\":6637:6641   */\n      0xe0\n        /* \"#utility.yul\":6630:6635   */\n      dup4\n        /* \"#utility.yul\":6626:6642   */\n      add\n        /* \"#utility.yul\":6620:6643   */\n      mload\n        /* \"#utility.yul\":6656:6719   */\n      tag_274\n        /* \"#utility.yul\":6713:6717   */\n      0xe0\n        /* \"#utility.yul\":6708:6711   */\n      dup7\n        /* \"#utility.yul\":6704:6718   */\n      add\n        /* \"#utility.yul\":6690:6702   */\n      dup3\n        /* \"#utility.yul\":6656:6719   */\n      tag_160\n      jump\t// in\n    tag_274:\n        /* \"#utility.yul\":6562:6729   */\n      pop\n        /* \"#utility.yul\":6815:6821   */\n      0x0100\n        /* \"#utility.yul\":6808:6813   */\n      dup4\n        /* \"#utility.yul\":6804:6822   */\n      add\n        /* \"#utility.yul\":6798:6823   */\n      mload\n        /* \"#utility.yul\":6836:6895   */\n      tag_275\n        /* \"#utility.yul\":6887:6893   */\n      0x0100\n        /* \"#utility.yul\":6882:6885   */\n      dup7\n        /* \"#utility.yul\":6878:6894   */\n      add\n        /* \"#utility.yul\":6864:6876   */\n      dup3\n        /* \"#utility.yul\":6836:6895   */\n      tag_167\n      jump\t// in\n    tag_275:\n        /* \"#utility.yul\":6739:6905   */\n      pop\n        /* \"#utility.yul\":6989:6995   */\n      0x0120\n        /* \"#utility.yul\":6982:6987   */\n      dup4\n        /* \"#utility.yul\":6978:6996   */\n      add\n        /* \"#utility.yul\":6972:6997   */\n      mload\n        /* \"#utility.yul\":7010:7069   */\n      tag_276\n        /* \"#utility.yul\":7061:7067   */\n      0x0120\n        /* \"#utility.yul\":7056:7059   */\n      dup7\n        /* \"#utility.yul\":7052:7068   */\n      add\n        /* \"#utility.yul\":7038:7050   */\n      dup3\n        /* \"#utility.yul\":7010:7069   */\n      tag_167\n      jump\t// in\n    tag_276:\n        /* \"#utility.yul\":6915:7079   */\n      pop\n        /* \"#utility.yul\":7096:7100   */\n      dup1\n        /* \"#utility.yul\":7089:7100   */\n      swap2\n      pop\n        /* \"#utility.yul\":5173:7106   */\n      pop\n        /* \"#utility.yul\":5061:7106   */\n      swap3\n      swap2\n      pop\n      pop\n      jump\t// out\n        /* \"#utility.yul\":7112:7364   */\n    tag_169:\n        /* \"#utility.yul\":7229:7239   */\n      0x00\n        /* \"#utility.yul\":7264:7358   */\n      tag_278\n        /* \"#utility.yul\":7354:7357   */\n      dup4\n        /* \"#utility.yul\":7346:7352   */\n      dup4\n        /* \"#utility.yul\":7264:7358   */\n      tag_168\n      jump\t// in\n    tag_278:\n        /* \"#utility.yul\":7250:7358   */\n      swap1\n      pop\n        /* \"#utility.yul\":7112:7364   */\n      swap3\n      swap2\n      pop\n      pop\n      jump\t// out\n        /* \"#utility.yul\":7370:7507   */\n    tag_170:\n        /* \"#utility.yul\":7464:7468   */\n      0x00\n        /* \"#utility.yul\":7496:7500   */\n      0x20\n        /* \"#utility.yul\":7491:7494   */\n      dup3\n        /* \"#utility.yul\":7487:7501   */\n      add\n        /* \"#utility.yul\":7479:7501   */\n      swap1\n      pop\n        /* \"#utility.yul\":7370:7507   */\n      swap2\n      swap1\n      pop\n      jump\t// out\n        /* \"#utility.yul\":7585:8688   */\n    tag_171:\n        /* \"#utility.yul\":7752:7755   */\n      0x00\n        /* \"#utility.yul\":7781:7859   */\n      tag_281\n        /* \"#utility.yul\":7853:7858   */\n      dup3\n        /* \"#utility.yul\":7781:7859   */\n      tag_157\n      jump\t// in\n    tag_281:\n        /* \"#utility.yul\":7875:7985   */\n      tag_282\n        /* \"#utility.yul\":7978:7984   */\n      dup2\n        /* \"#utility.yul\":7973:7976   */\n      dup6\n        /* \"#utility.yul\":7875:7985   */\n      tag_158\n      jump\t// in\n    tag_282:\n        /* \"#utility.yul\":7868:7985   */\n      swap4\n      pop\n        /* \"#utility.yul\":8011:8014   */\n      dup4\n        /* \"#utility.yul\":8056:8060   */\n      0x20\n        /* \"#utility.yul\":8048:8054   */\n      dup3\n        /* \"#utility.yul\":8044:8061   */\n      mul\n        /* \"#utility.yul\":8039:8042   */\n      dup6\n        /* \"#utility.yul\":8035:8062   */\n      add\n        /* \"#utility.yul\":8086:8166   */\n      tag_283\n        /* \"#utility.yul\":8160:8165   */\n      dup6\n        /* \"#utility.yul\":8086:8166   */\n      tag_159\n      jump\t// in\n    tag_283:\n        /* \"#utility.yul\":8189:8196   */\n      dup1\n        /* \"#utility.yul\":8220:8221   */\n      0x00\n        /* \"#utility.yul\":8205:8643   */\n    tag_284:\n        /* \"#utility.yul\":8230:8236   */\n      dup6\n        /* \"#utility.yul\":8227:8228   */\n      dup2\n        /* \"#utility.yul\":8224:8237   */\n      lt\n        /* \"#utility.yul\":8205:8643   */\n      iszero\n      tag_286\n      jumpi\n        /* \"#utility.yul\":8301:8310   */\n      dup5\n        /* \"#utility.yul\":8295:8299   */\n      dup5\n        /* \"#utility.yul\":8291:8311   */\n      sub\n        /* \"#utility.yul\":8286:8289   */\n      dup10\n        /* \"#utility.yul\":8279:8312   */\n      mstore\n        /* \"#utility.yul\":8352:8358   */\n      dup2\n        /* \"#utility.yul\":8346:8359   */\n      mload\n        /* \"#utility.yul\":8380:8492   */\n      tag_287\n        /* \"#utility.yul\":8487:8491   */\n      dup6\n        /* \"#utility.yul\":8472:8485   */\n      dup3\n        /* \"#utility.yul\":8380:8492   */\n      tag_169\n      jump\t// in\n    tag_287:\n        /* \"#utility.yul\":8372:8492   */\n      swap5\n      pop\n        /* \"#utility.yul\":8515:8599   */\n      tag_288\n        /* \"#utility.yul\":8592:8598   */\n      dup4\n        /* \"#utility.yul\":8515:8599   */\n      tag_170\n      jump\t// in\n    tag_288:\n        /* \"#utility.yul\":8505:8599   */\n      swap3\n      pop\n        /* \"#utility.yul\":8628:8632   */\n      0x20\n        /* \"#utility.yul\":8623:8626   */\n      dup11\n        /* \"#utility.yul\":8619:8633   */\n      add\n        /* \"#utility.yul\":8612:8633   */\n      swap10\n      pop\n        /* \"#utility.yul\":8265:8643   */\n      pop\n        /* \"#utility.yul\":8252:8253   */\n      0x01\n        /* \"#utility.yul\":8249:8250   */\n      dup2\n        /* \"#utility.yul\":8245:8254   */\n      add\n        /* \"#utility.yul\":8240:8254   */\n      swap1\n      pop\n        /* \"#utility.yul\":8205:8643   */\n      jump(tag_284)\n    tag_286:\n        /* \"#utility.yul\":8209:8223   */\n      pop\n        /* \"#utility.yul\":8659:8663   */\n      dup3\n        /* \"#utility.yul\":8652:8663   */\n      swap8\n      pop\n        /* \"#utility.yul\":8679:8682   */\n      dup8\n        /* \"#utility.yul\":8672:8682   */\n      swap6\n      pop\n        /* \"#utility.yul\":7757:8688   */\n      pop\n      pop\n      pop\n      pop\n      pop\n        /* \"#utility.yul\":7585:8688   */\n      swap3\n      swap2\n      pop\n      pop\n      jump\t// out\n        /* \"#utility.yul\":8694:9163   */\n    tag_38:\n        /* \"#utility.yul\":8885:8889   */\n      0x00\n        /* \"#utility.yul\":8923:8925   */\n      0x20\n        /* \"#utility.yul\":8912:8921   */\n      dup3\n        /* \"#utility.yul\":8908:8926   */\n      add\n        /* \"#utility.yul\":8900:8926   */\n      swap1\n      pop\n        /* \"#utility.yul\":8972:8981   */\n      dup2\n        /* \"#utility.yul\":8966:8970   */\n      dup2\n        /* \"#utility.yul\":8962:8982   */\n      sub\n        /* \"#utility.yul\":8958:8959   */\n      0x00\n        /* \"#utility.yul\":8947:8956   */\n      dup4\n        /* \"#utility.yul\":8943:8960   */\n      add\n        /* \"#utility.yul\":8936:8983   */\n      mstore\n        /* \"#utility.yul\":9000:9156   */\n      tag_290\n        /* \"#utility.yul\":9151:9155   */\n      dup2\n        /* \"#utility.yul\":9142:9148   */\n      dup5\n        /* \"#utility.yul\":9000:9156   */\n      tag_171\n      jump\t// in\n    tag_290:\n        /* \"#utility.yul\":8992:9156   */\n      swap1\n      pop\n        /* \"#utility.yul\":8694:9163   */\n      swap3\n      swap2\n      pop\n      pop\n      jump\t// out\n        /* \"#utility.yul\":9169:9286   */\n    tag_172:\n        /* \"#utility.yul\":9278:9279   */\n      0x00\n        /* \"#utility.yul\":9275:9276   */\n      dup1\n        /* \"#utility.yul\":9268:9280   */\n      revert\n        /* \"#utility.yul\":9292:9409   */\n    tag_173:\n        /* \"#utility.yul\":9401:9402   */\n      0x00\n        /* \"#utility.yul\":9398:9399   */\n      dup1\n        /* \"#utility.yul\":9391:9403   */\n      revert\n        /* \"#utility.yul\":9415:9532   */\n    tag_174:\n        /* \"#utility.yul\":9524:9525   */\n      0x00\n        /* \"#utility.yul\":9521:9522   */\n      dup1\n        /* \"#utility.yul\":9514:9526   */\n      revert\n        /* \"#utility.yul\":9552:10105   */\n    tag_175:\n        /* \"#utility.yul\":9610:9618   */\n      0x00\n        /* \"#utility.yul\":9620:9626   */\n      dup1\n        /* \"#utility.yul\":9670:9673   */\n      dup4\n        /* \"#utility.yul\":9663:9667   */\n      0x1f\n        /* \"#utility.yul\":9655:9661   */\n      dup5\n        /* \"#utility.yul\":9651:9668   */\n      add\n        /* \"#utility.yul\":9647:9674   */\n      slt\n        /* \"#utility.yul\":9637:9759   */\n      tag_295\n      jumpi\n        /* \"#utility.yul\":9678:9757   */\n      tag_296\n      tag_172\n      jump\t// in\n    tag_296:\n        /* \"#utility.yul\":9637:9759   */\n    tag_295:\n        /* \"#utility.yul\":9791:9797   */\n      dup3\n        /* \"#utility.yul\":9778:9798   */\n      calldataload\n        /* \"#utility.yul\":9768:9798   */\n      swap1\n      pop\n        /* \"#utility.yul\":9821:9839   */\n      0xffffffffffffffff\n        /* \"#utility.yul\":9813:9819   */\n      dup2\n        /* \"#utility.yul\":9810:9840   */\n      gt\n        /* \"#utility.yul\":9807:9924   */\n      iszero\n      tag_297\n      jumpi\n        /* \"#utility.yul\":9843:9922   */\n      tag_298\n      tag_173\n      jump\t// in\n    tag_298:\n        /* \"#utility.yul\":9807:9924   */\n    tag_297:\n        /* \"#utility.yul\":9957:9961   */\n      0x20\n        /* \"#utility.yul\":9949:9955   */\n      dup4\n        /* \"#utility.yul\":9945:9962   */\n      add\n        /* \"#utility.yul\":9933:9962   */\n      swap2\n      pop\n        /* \"#utility.yul\":10011:10014   */\n      dup4\n        /* \"#utility.yul\":10003:10007   */\n      0x01\n        /* \"#utility.yul\":9995:10001   */\n      dup3\n        /* \"#utility.yul\":9991:10008   */\n      mul\n        /* \"#utility.yul\":9981:9989   */\n      dup4\n        /* \"#utility.yul\":9977:10009   */\n      add\n        /* \"#utility.yul\":9974:10015   */\n      gt\n        /* \"#utility.yul\":9971:10099   */\n      iszero\n      tag_299\n      jumpi\n        /* \"#utility.yul\":10018:10097   */\n      tag_300\n      tag_174\n      jump\t// in\n    tag_300:\n        /* \"#utility.yul\":9971:10099   */\n    tag_299:\n        /* \"#utility.yul\":9552:10105   */\n      swap3\n      pop\n      swap3\n      swap1\n      pop\n      jump\t// out\n        /* \"#utility.yul\":10111:11076   */\n    tag_48:\n        /* \"#utility.yul\":10209:10215   */\n      0x00\n        /* \"#utility.yul\":10217:10223   */\n      dup1\n        /* \"#utility.yul\":10225:10231   */\n      0x00\n        /* \"#utility.yul\":10233:10239   */\n      dup1\n        /* \"#utility.yul\":10241:10247   */\n      0x00\n        /* \"#utility.yul\":10290:10293   */\n      0x80\n        /* \"#utility.yul\":10278:10287   */\n      dup7\n        /* \"#utility.yul\":10269:10276   */\n      dup9\n        /* \"#utility.yul\":10265:10288   */\n      sub\n        /* \"#utility.yul\":10261:10294   */\n      slt\n        /* \"#utility.yul\":10258:10378   */\n      iszero\n      tag_302\n      jumpi\n        /* \"#utility.yul\":10297:10376   */\n      tag_303\n      tag_143\n      jump\t// in\n    tag_303:\n        /* \"#utility.yul\":10258:10378   */\n    tag_302:\n        /* \"#utility.yul\":10445:10446   */\n      0x00\n        /* \"#utility.yul\":10434:10443   */\n      dup7\n        /* \"#utility.yul\":10430:10447   */\n      add\n        /* \"#utility.yul\":10417:10448   */\n      calldataload\n        /* \"#utility.yul\":10475:10493   */\n      0xffffffffffffffff\n        /* \"#utility.yul\":10467:10473   */\n      dup2\n        /* \"#utility.yul\":10464:10494   */\n      gt\n        /* \"#utility.yul\":10461:10578   */\n      iszero\n      tag_304\n      jumpi\n        /* \"#utility.yul\":10497:10576   */\n      tag_305\n      tag_144\n      jump\t// in\n    tag_305:\n        /* \"#utility.yul\":10461:10578   */\n    tag_304:\n        /* \"#utility.yul\":10610:10675   */\n      tag_306\n        /* \"#utility.yul\":10667:10674   */\n      dup9\n        /* \"#utility.yul\":10658:10664   */\n      dup3\n        /* \"#utility.yul\":10647:10656   */\n      dup10\n        /* \"#utility.yul\":10643:10665   */\n      add\n        /* \"#utility.yul\":10610:10675   */\n      tag_175\n      jump\t// in\n    tag_306:\n        /* \"#utility.yul\":10592:10675   */\n      swap6\n      pop\n      swap6\n      pop\n        /* \"#utility.yul\":10388:10685   */\n      pop\n        /* \"#utility.yul\":10724:10726   */\n      0x20\n        /* \"#utility.yul\":10750:10803   */\n      tag_307\n        /* \"#utility.yul\":10795:10802   */\n      dup9\n        /* \"#utility.yul\":10786:10792   */\n      dup3\n        /* \"#utility.yul\":10775:10784   */\n      dup10\n        /* \"#utility.yul\":10771:10793   */\n      add\n        /* \"#utility.yul\":10750:10803   */\n      tag_147\n      jump\t// in\n    tag_307:\n        /* \"#utility.yul\":10740:10803   */\n      swap4\n      pop\n        /* \"#utility.yul\":10695:10813   */\n      pop\n        /* \"#utility.yul\":10852:10854   */\n      0x40\n        /* \"#utility.yul\":10878:10931   */\n      tag_308\n        /* \"#utility.yul\":10923:10930   */\n      dup9\n        /* \"#utility.yul\":10914:10920   */\n      dup3\n        /* \"#utility.yul\":10903:10912   */\n      dup10\n        /* \"#utility.yul\":10899:10921   */\n      add\n        /* \"#utility.yul\":10878:10931   */\n      tag_147\n      jump\t// in\n    tag_308:\n        /* \"#utility.yul\":10868:10931   */\n      swap3\n      pop\n        /* \"#utility.yul\":10823:10941   */\n      pop\n        /* \"#utility.yul\":10980:10982   */\n      0x60\n        /* \"#utility.yul\":11006:11059   */\n      tag_309\n        /* \"#utility.yul\":11051:11058   */\n      dup9\n        /* \"#utility.yul\":11042:11048   */\n      dup3\n        /* \"#utility.yul\":11031:11040   */\n      dup10\n        /* \"#utility.yul\":11027:11049   */\n      add\n        /* \"#utility.yul\":11006:11059   */\n      tag_147\n      jump\t// in\n    tag_309:\n        /* \"#utility.yul\":10996:11059   */\n      swap2\n      pop\n        /* \"#utility.yul\":10951:11069   */\n      pop\n        /* \"#utility.yul\":10111:11076   */\n      swap3\n      swap6\n      pop\n      swap3\n      swap6\n      swap1\n      swap4\n      pop\n      jump\t// out\n        /* \"#utility.yul\":11082:11191   */\n    tag_176:\n        /* \"#utility.yul\":11163:11184   */\n      tag_311\n        /* \"#utility.yul\":11178:11183   */\n      dup2\n        /* \"#utility.yul\":11163:11184   */\n      tag_166\n      jump\t// in\n    tag_311:\n        /* \"#utility.yul\":11158:11161   */\n      dup3\n        /* \"#utility.yul\":11151:11185   */\n      mstore\n        /* \"#utility.yul\":11082:11191   */\n      pop\n      pop\n      jump\t// out\n        /* \"#utility.yul\":11197:11407   */\n    tag_55:\n        /* \"#utility.yul\":11284:11288   */\n      0x00\n        /* \"#utility.yul\":11322:11324   */\n      0x20\n        /* \"#utility.yul\":11311:11320   */\n      dup3\n        /* \"#utility.yul\":11307:11325   */\n      add\n        /* \"#utility.yul\":11299:11325   */\n      swap1\n      pop\n        /* \"#utility.yul\":11335:11400   */\n      tag_313\n        /* \"#utility.yul\":11397:11398   */\n      0x00\n        /* \"#utility.yul\":11386:11395   */\n      dup4\n        /* \"#utility.yul\":11382:11399   */\n      add\n        /* \"#utility.yul\":11373:11379   */\n      dup5\n        /* \"#utility.yul\":11335:11400   */\n      tag_176\n      jump\t// in\n    tag_313:\n        /* \"#utility.yul\":11197:11407   */\n      swap3\n      swap2\n      pop\n      pop\n      jump\t// out\n        /* \"#utility.yul\":11413:11582   */\n    tag_177:\n        /* \"#utility.yul\":11497:11508   */\n      0x00\n        /* \"#utility.yul\":11531:11537   */\n      dup3\n        /* \"#utility.yul\":11526:11529   */\n      dup3\n        /* \"#utility.yul\":11519:11538   */\n      mstore\n        /* \"#utility.yul\":11571:11575   */\n      0x20\n        /* \"#utility.yul\":11566:11569   */\n      dup3\n        /* \"#utility.yul\":11562:11576   */\n      add\n        /* \"#utility.yul\":11547:11576   */\n      swap1\n      pop\n        /* \"#utility.yul\":11413:11582   */\n      swap3\n      swap2\n      pop\n      pop\n      jump\t// out\n        /* \"#utility.yul\":11588:11760   */\n    tag_178:\n        /* \"#utility.yul\":11728:11752   */\n      0x596f75277265206e6f742066756e642072616973657200000000000000000000\n        /* \"#utility.yul\":11724:11725   */\n      0x00\n        /* \"#utility.yul\":11716:11722   */\n      dup3\n        /* \"#utility.yul\":11712:11726   */\n      add\n        /* \"#utility.yul\":11705:11753   */\n      mstore\n        /* \"#utility.yul\":11588:11760   */\n      pop\n      jump\t// out\n        /* \"#utility.yul\":11766:12132   */\n    tag_179:\n        /* \"#utility.yul\":11908:11911   */\n      0x00\n        /* \"#utility.yul\":11929:11996   */\n      tag_317\n        /* \"#utility.yul\":11993:11995   */\n      0x16\n        /* \"#utility.yul\":11988:11991   */\n      dup4\n        /* \"#utility.yul\":11929:11996   */\n      tag_177\n      jump\t// in\n    tag_317:\n        /* \"#utility.yul\":11922:11996   */\n      swap2\n      pop\n        /* \"#utility.yul\":12005:12098   */\n      tag_318\n        /* \"#utility.yul\":12094:12097   */\n      dup3\n        /* \"#utility.yul\":12005:12098   */\n      tag_178\n      jump\t// in\n    tag_318:\n        /* \"#utility.yul\":12123:12125   */\n      0x20\n        /* \"#utility.yul\":12118:12121   */\n      dup3\n        /* \"#utility.yul\":12114:12126   */\n      add\n        /* \"#utility.yul\":12107:12126   */\n      swap1\n      pop\n        /* \"#utility.yul\":11766:12132   */\n      swap2\n      swap1\n      pop\n      jump\t// out\n        /* \"#utility.yul\":12138:12557   */\n    tag_59:\n        /* \"#utility.yul\":12304:12308   */\n      0x00\n        /* \"#utility.yul\":12342:12344   */\n      0x20\n        /* \"#utility.yul\":12331:12340   */\n      dup3\n        /* \"#utility.yul\":12327:12345   */\n      add\n        /* \"#utility.yul\":12319:12345   */\n      swap1\n      pop\n        /* \"#utility.yul\":12391:12400   */\n      dup2\n        /* \"#utility.yul\":12385:12389   */\n      dup2\n        /* \"#utility.yul\":12381:12401   */\n      sub\n        /* \"#utility.yul\":12377:12378   */\n      0x00\n        /* \"#utility.yul\":12366:12375   */\n      dup4\n        /* \"#utility.yul\":12362:12379   */\n      add\n        /* \"#utility.yul\":12355:12402   */\n      mstore\n        /* \"#utility.yul\":12419:12550   */\n      tag_320\n        /* \"#utility.yul\":12545:12549   */\n      dup2\n        /* \"#utility.yul\":12419:12550   */\n      tag_179\n      jump\t// in\n    tag_320:\n        /* \"#utility.yul\":12411:12550   */\n      swap1\n      pop\n        /* \"#utility.yul\":12138:12557   */\n      swap2\n      swap1\n      pop\n      jump\t// out\n        /* \"#utility.yul\":12563:12736   */\n    tag_180:\n        /* \"#utility.yul\":12703:12728   */\n      0x43616d706169676e206973206e6f7420656e6420796574000000000000000000\n        /* \"#utility.yul\":12699:12700   */\n      0x00\n        /* \"#utility.yul\":12691:12697   */\n      dup3\n        /* \"#utility.yul\":12687:12701   */\n      add\n        /* \"#utility.yul\":12680:12729   */\n      mstore\n        /* \"#utility.yul\":12563:12736   */\n      pop\n      jump\t// out\n        /* \"#utility.yul\":12742:13108   */\n    tag_181:\n        /* \"#utility.yul\":12884:12887   */\n      0x00\n        /* \"#utility.yul\":12905:12972   */\n      tag_323\n        /* \"#utility.yul\":12969:12971   */\n      0x17\n        /* \"#utility.yul\":12964:12967   */\n      dup4\n        /* \"#utility.yul\":12905:12972   */\n      tag_177\n      jump\t// in\n    tag_323:\n        /* \"#utility.yul\":12898:12972   */\n      swap2\n      pop\n        /* \"#utility.yul\":12981:13074   */\n      tag_324\n        /* \"#utility.yul\":13070:13073   */\n      dup3\n        /* \"#utility.yul\":12981:13074   */\n      tag_180\n      jump\t// in\n    tag_324:\n        /* \"#utility.yul\":13099:13101   */\n      0x20\n        /* \"#utility.yul\":13094:13097   */\n      dup3\n        /* \"#utility.yul\":13090:13102   */\n      add\n        /* \"#utility.yul\":13083:13102   */\n      swap1\n      pop\n        /* \"#utility.yul\":12742:13108   */\n      swap2\n      swap1\n      pop\n      jump\t// out\n        /* \"#utility.yul\":13114:13533   */\n    tag_62:\n        /* \"#utility.yul\":13280:13284   */\n      0x00\n        /* \"#utility.yul\":13318:13320   */\n      0x20\n        /* \"#utility.yul\":13307:13316   */\n      dup3\n        /* \"#utility.yul\":13303:13321   */\n      add\n        /* \"#utility.yul\":13295:13321   */\n      swap1\n      pop\n        /* \"#utility.yul\":13367:13376   */\n      dup2\n        /* \"#utility.yul\":13361:13365   */\n      dup2\n        /* \"#utility.yul\":13357:13377   */\n      sub\n        /* \"#utility.yul\":13353:13354   */\n      0x00\n        /* \"#utility.yul\":13342:13351   */\n      dup4\n        /* \"#utility.yul\":13338:13355   */\n      add\n        /* \"#utility.yul\":13331:13378   */\n      mstore\n        /* \"#utility.yul\":13395:13526   */\n      tag_326\n        /* \"#utility.yul\":13521:13525   */\n      dup2\n        /* \"#utility.yul\":13395:13526   */\n      tag_181\n      jump\t// in\n    tag_326:\n        /* \"#utility.yul\":13387:13526   */\n      swap1\n      pop\n        /* \"#utility.yul\":13114:13533   */\n      swap2\n      swap1\n      pop\n      jump\t// out\n        /* \"#utility.yul\":13539:13709   */\n    tag_182:\n        /* \"#utility.yul\":13679:13701   */\n      0x546172676574206e6f7420636f6d706c65746564000000000000000000000000\n        /* \"#utility.yul\":13675:13676   */\n      0x00\n        /* \"#utility.yul\":13667:13673   */\n      dup3\n        /* \"#utility.yul\":13663:13677   */\n      add\n        /* \"#utility.yul\":13656:13702   */\n      mstore\n        /* \"#utility.yul\":13539:13709   */\n      pop\n      jump\t// out\n        /* \"#utility.yul\":13715:14081   */\n    tag_183:\n        /* \"#utility.yul\":13857:13860   */\n      0x00\n        /* \"#utility.yul\":13878:13945   */\n      tag_329\n        /* \"#utility.yul\":13942:13944   */\n      0x14\n        /* \"#utility.yul\":13937:13940   */\n      dup4\n        /* \"#utility.yul\":13878:13945   */\n      tag_177\n      jump\t// in\n    tag_329:\n        /* \"#utility.yul\":13871:13945   */\n      swap2\n      pop\n        /* \"#utility.yul\":13954:14047   */\n      tag_330\n        /* \"#utility.yul\":14043:14046   */\n      dup3\n        /* \"#utility.yul\":13954:14047   */\n      tag_182\n      jump\t// in\n    tag_330:\n        /* \"#utility.yul\":14072:14074   */\n      0x20\n        /* \"#utility.yul\":14067:14070   */\n      dup3\n        /* \"#utility.yul\":14063:14075   */\n      add\n        /* \"#utility.yul\":14056:14075   */\n      swap1\n      pop\n        /* \"#utility.yul\":13715:14081   */\n      swap2\n      swap1\n      pop\n      jump\t// out\n        /* \"#utility.yul\":14087:14506   */\n    tag_66:\n        /* \"#utility.yul\":14253:14257   */\n      0x00\n        /* \"#utility.yul\":14291:14293   */\n      0x20\n        /* \"#utility.yul\":14280:14289   */\n      dup3\n        /* \"#utility.yul\":14276:14294   */\n      add\n        /* \"#utility.yul\":14268:14294   */\n      swap1\n      pop\n        /* \"#utility.yul\":14340:14349   */\n      dup2\n        /* \"#utility.yul\":14334:14338   */\n      dup2\n        /* \"#utility.yul\":14330:14350   */\n      sub\n        /* \"#utility.yul\":14326:14327   */\n      0x00\n        /* \"#utility.yul\":14315:14324   */\n      dup4\n        /* \"#utility.yul\":14311:14328   */\n      add\n        /* \"#utility.yul\":14304:14351   */\n      mstore\n        /* \"#utility.yul\":14368:14499   */\n      tag_332\n        /* \"#utility.yul\":14494:14498   */\n      dup2\n        /* \"#utility.yul\":14368:14499   */\n      tag_183\n      jump\t// in\n    tag_332:\n        /* \"#utility.yul\":14360:14499   */\n      swap1\n      pop\n        /* \"#utility.yul\":14087:14506   */\n      swap2\n      swap1\n      pop\n      jump\t// out\n        /* \"#utility.yul\":14512:14680   */\n    tag_184:\n        /* \"#utility.yul\":14652:14672   */\n      0x596f75277265206e6f74206d616e616765720000000000000000000000000000\n        /* \"#utility.yul\":14648:14649   */\n      0x00\n        /* \"#utility.yul\":14640:14646   */\n      dup3\n        /* \"#utility.yul\":14636:14650   */\n      add\n        /* \"#utility.yul\":14629:14673   */\n      mstore\n        /* \"#utility.yul\":14512:14680   */\n      pop\n      jump\t// out\n        /* \"#utility.yul\":14686:15052   */\n    tag_185:\n        /* \"#utility.yul\":14828:14831   */\n      0x00\n        /* \"#utility.yul\":14849:14916   */\n      tag_335\n        /* \"#utility.yul\":14913:14915   */\n      0x12\n        /* \"#utility.yul\":14908:14911   */\n      dup4\n        /* \"#utility.yul\":14849:14916   */\n      tag_177\n      jump\t// in\n    tag_335:\n        /* \"#utility.yul\":14842:14916   */\n      swap2\n      pop\n        /* \"#utility.yul\":14925:15018   */\n      tag_336\n        /* \"#utility.yul\":15014:15017   */\n      dup3\n        /* \"#utility.yul\":14925:15018   */\n      tag_184\n      jump\t// in\n    tag_336:\n        /* \"#utility.yul\":15043:15045   */\n      0x20\n        /* \"#utility.yul\":15038:15041   */\n      dup3\n        /* \"#utility.yul\":15034:15046   */\n      add\n        /* \"#utility.yul\":15027:15046   */\n      swap1\n      pop\n        /* \"#utility.yul\":14686:15052   */\n      swap2\n      swap1\n      pop\n      jump\t// out\n        /* \"#utility.yul\":15058:15477   */\n    tag_75:\n        /* \"#utility.yul\":15224:15228   */\n      0x00\n        /* \"#utility.yul\":15262:15264   */\n      0x20\n        /* \"#utility.yul\":15251:15260   */\n      dup3\n        /* \"#utility.yul\":15247:15265   */\n      add\n        /* \"#utility.yul\":15239:15265   */\n      swap1\n      pop\n        /* \"#utility.yul\":15311:15320   */\n      dup2\n        /* \"#utility.yul\":15305:15309   */\n      dup2\n        /* \"#utility.yul\":15301:15321   */\n      sub\n        /* \"#utility.yul\":15297:15298   */\n      0x00\n        /* \"#utility.yul\":15286:15295   */\n      dup4\n        /* \"#utility.yul\":15282:15299   */\n      add\n        /* \"#utility.yul\":15275:15322   */\n      mstore\n        /* \"#utility.yul\":15339:15470   */\n      tag_338\n        /* \"#utility.yul\":15465:15469   */\n      dup2\n        /* \"#utility.yul\":15339:15470   */\n      tag_185\n      jump\t// in\n    tag_338:\n        /* \"#utility.yul\":15331:15470   */\n      swap1\n      pop\n        /* \"#utility.yul\":15058:15477   */\n      swap2\n      swap1\n      pop\n      jump\t// out\n        /* \"#utility.yul\":15483:15663   */\n    tag_186:\n        /* \"#utility.yul\":15531:15608   */\n      0x4e487b7100000000000000000000000000000000000000000000000000000000\n        /* \"#utility.yul\":15528:15529   */\n      0x00\n        /* \"#utility.yul\":15521:15609   */\n      mstore\n        /* \"#utility.yul\":15628:15632   */\n      0x11\n        /* \"#utility.yul\":15625:15626   */\n      0x04\n        /* \"#utility.yul\":15618:15633   */\n      mstore\n        /* \"#utility.yul\":15652:15656   */\n      0x24\n        /* \"#utility.yul\":15649:15650   */\n      0x00\n        /* \"#utility.yul\":15642:15657   */\n      revert\n        /* \"#utility.yul\":15669:15863   */\n    tag_86:\n        /* \"#utility.yul\":15709:15713   */\n      0x00\n        /* \"#utility.yul\":15729:15749   */\n      tag_341\n        /* \"#utility.yul\":15747:15748   */\n      dup3\n        /* \"#utility.yul\":15729:15749   */\n      tag_145\n      jump\t// in\n    tag_341:\n        /* \"#utility.yul\":15724:15749   */\n      swap2\n      pop\n        /* \"#utility.yul\":15763:15783   */\n      tag_342\n        /* \"#utility.yul\":15781:15782   */\n      dup4\n        /* \"#utility.yul\":15763:15783   */\n      tag_145\n      jump\t// in\n    tag_342:\n        /* \"#utility.yul\":15758:15783   */\n      swap3\n      pop\n        /* \"#utility.yul\":15807:15808   */\n      dup3\n        /* \"#utility.yul\":15804:15805   */\n      dup3\n        /* \"#utility.yul\":15800:15809   */\n      sub\n        /* \"#utility.yul\":15792:15809   */\n      swap1\n      pop\n        /* \"#utility.yul\":15831:15832   */\n      dup2\n        /* \"#utility.yul\":15825:15829   */\n      dup2\n        /* \"#utility.yul\":15822:15833   */\n      gt\n        /* \"#utility.yul\":15819:15856   */\n      iszero\n      tag_343\n      jumpi\n        /* \"#utility.yul\":15836:15854   */\n      tag_344\n      tag_186\n      jump\t// in\n    tag_344:\n        /* \"#utility.yul\":15819:15856   */\n    tag_343:\n        /* \"#utility.yul\":15669:15863   */\n      swap3\n      swap2\n      pop\n      pop\n      jump\t// out\n        /* \"#utility.yul\":15869:16049   */\n    tag_89:\n        /* \"#utility.yul\":15917:15994   */\n      0x4e487b7100000000000000000000000000000000000000000000000000000000\n        /* \"#utility.yul\":15914:15915   */\n      0x00\n        /* \"#utility.yul\":15907:15995   */\n      mstore\n        /* \"#utility.yul\":16014:16018   */\n      0x41\n        /* \"#utility.yul\":16011:16012   */\n      0x04\n        /* \"#utility.yul\":16004:16019   */\n      mstore\n        /* \"#utility.yul\":16038:16042   */\n      0x24\n        /* \"#utility.yul\":16035:16036   */\n      0x00\n        /* \"#utility.yul\":16028:16043   */\n      revert\n        /* \"#utility.yul\":16055:16246   */\n    tag_99:\n        /* \"#utility.yul\":16095:16098   */\n      0x00\n        /* \"#utility.yul\":16114:16134   */\n      tag_347\n        /* \"#utility.yul\":16132:16133   */\n      dup3\n        /* \"#utility.yul\":16114:16134   */\n      tag_145\n      jump\t// in\n    tag_347:\n        /* \"#utility.yul\":16109:16134   */\n      swap2\n      pop\n        /* \"#utility.yul\":16148:16168   */\n      tag_348\n        /* \"#utility.yul\":16166:16167   */\n      dup4\n        /* \"#utility.yul\":16148:16168   */\n      tag_145\n      jump\t// in\n    tag_348:\n        /* \"#utility.yul\":16143:16168   */\n      swap3\n      pop\n        /* \"#utility.yul\":16191:16192   */\n      dup3\n        /* \"#utility.yul\":16188:16189   */\n      dup3\n        /* \"#utility.yul\":16184:16193   */\n      add\n        /* \"#utility.yul\":16177:16193   */\n      swap1\n      pop\n        /* \"#utility.yul\":16212:16215   */\n      dup1\n        /* \"#utility.yul\":16209:16210   */\n      dup3\n        /* \"#utility.yul\":16206:16216   */\n      gt\n        /* \"#utility.yul\":16203:16239   */\n      iszero\n      tag_349\n      jumpi\n        /* \"#utility.yul\":16219:16237   */\n      tag_350\n      tag_186\n      jump\t// in\n    tag_350:\n        /* \"#utility.yul\":16203:16239   */\n    tag_349:\n        /* \"#utility.yul\":16055:16246   */\n      swap3\n      swap2\n      pop\n      pop\n      jump\t// out\n        /* \"#utility.yul\":16252:16432   */\n    tag_187:\n        /* \"#utility.yul\":16300:16377   */\n      0x4e487b7100000000000000000000000000000000000000000000000000000000\n        /* \"#utility.yul\":16297:16298   */\n      0x00\n        /* \"#utility.yul\":16290:16378   */\n      mstore\n        /* \"#utility.yul\":16397:16401   */\n      0x22\n        /* \"#utility.yul\":16394:16395   */\n      0x04\n        /* \"#utility.yul\":16387:16402   */\n      mstore\n        /* \"#utility.yul\":16421:16425   */\n      0x24\n        /* \"#utility.yul\":16418:16419   */\n      0x00\n        /* \"#utility.yul\":16411:16426   */\n      revert\n        /* \"#utility.yul\":16438:16758   */\n    tag_101:\n        /* \"#utility.yul\":16482:16488   */\n      0x00\n        /* \"#utility.yul\":16519:16520   */\n      0x02\n        /* \"#utility.yul\":16513:16517   */\n      dup3\n        /* \"#utility.yul\":16509:16521   */\n      div\n        /* \"#utility.yul\":16499:16521   */\n      swap1\n      pop\n        /* \"#utility.yul\":16566:16567   */\n      0x01\n        /* \"#utility.yul\":16560:16564   */\n      dup3\n        /* \"#utility.yul\":16556:16568   */\n      and\n        /* \"#utility.yul\":16587:16605   */\n      dup1\n        /* \"#utility.yul\":16577:16658   */\n      tag_353\n      jumpi\n        /* \"#utility.yul\":16643:16647   */\n      0x7f\n        /* \"#utility.yul\":16635:16641   */\n      dup3\n        /* \"#utility.yul\":16631:16648   */\n      and\n        /* \"#utility.yul\":16621:16648   */\n      swap2\n      pop\n        /* \"#utility.yul\":16577:16658   */\n    tag_353:\n        /* \"#utility.yul\":16705:16707   */\n      0x20\n        /* \"#utility.yul\":16697:16703   */\n      dup3\n        /* \"#utility.yul\":16694:16708   */\n      lt\n        /* \"#utility.yul\":16674:16692   */\n      dup2\n        /* \"#utility.yul\":16671:16709   */\n      sub\n        /* \"#utility.yul\":16668:16752   */\n      tag_354\n      jumpi\n        /* \"#utility.yul\":16724:16742   */\n      tag_355\n      tag_187\n      jump\t// in\n    tag_355:\n        /* \"#utility.yul\":16668:16752   */\n    tag_354:\n        /* \"#utility.yul\":16489:16758   */\n      pop\n        /* \"#utility.yul\":16438:16758   */\n      swap2\n      swap1\n      pop\n      jump\t// out\n        /* \"#utility.yul\":16764:16944   */\n    tag_108:\n        /* \"#utility.yul\":16812:16889   */\n      0x4e487b7100000000000000000000000000000000000000000000000000000000\n        /* \"#utility.yul\":16809:16810   */\n      0x00\n        /* \"#utility.yul\":16802:16890   */\n      mstore\n        /* \"#utility.yul\":16909:16913   */\n      0x32\n        /* \"#utility.yul\":16906:16907   */\n      0x04\n        /* \"#utility.yul\":16899:16914   */\n      mstore\n        /* \"#utility.yul\":16933:16937   */\n      0x24\n        /* \"#utility.yul\":16930:16931   */\n      0x00\n        /* \"#utility.yul\":16923:16938   */\n      revert\n        /* \"#utility.yul\":16950:17122   */\n    tag_188:\n        /* \"#utility.yul\":17090:17114   */\n      0x696e76616c696420616d6f756e7420746f2066756e6400000000000000000000\n        /* \"#utility.yul\":17086:17087   */\n      0x00\n        /* \"#utility.yul\":17078:17084   */\n      dup3\n        /* \"#utility.yul\":17074:17088   */\n      add\n        /* \"#utility.yul\":17067:17115   */\n      mstore\n        /* \"#utility.yul\":16950:17122   */\n      pop\n      jump\t// out\n        /* \"#utility.yul\":17128:17494   */\n    tag_189:\n        /* \"#utility.yul\":17270:17273   */\n      0x00\n        /* \"#utility.yul\":17291:17358   */\n      tag_359\n        /* \"#utility.yul\":17355:17357   */\n      0x16\n        /* \"#utility.yul\":17350:17353   */\n      dup4\n        /* \"#utility.yul\":17291:17358   */\n      tag_177\n      jump\t// in\n    tag_359:\n        /* \"#utility.yul\":17284:17358   */\n      swap2\n      pop\n        /* \"#utility.yul\":17367:17460   */\n      tag_360\n        /* \"#utility.yul\":17456:17459   */\n      dup3\n        /* \"#utility.yul\":17367:17460   */\n      tag_188\n      jump\t// in\n    tag_360:\n        /* \"#utility.yul\":17485:17487   */\n      0x20\n        /* \"#utility.yul\":17480:17483   */\n      dup3\n        /* \"#utility.yul\":17476:17488   */\n      add\n        /* \"#utility.yul\":17469:17488   */\n      swap1\n      pop\n        /* \"#utility.yul\":17128:17494   */\n      swap2\n      swap1\n      pop\n      jump\t// out\n        /* \"#utility.yul\":17500:17919   */\n    tag_112:\n        /* \"#utility.yul\":17666:17670   */\n      0x00\n        /* \"#utility.yul\":17704:17706   */\n      0x20\n        /* \"#utility.yul\":17693:17702   */\n      dup3\n        /* \"#utility.yul\":17689:17707   */\n      add\n        /* \"#utility.yul\":17681:17707   */\n      swap1\n      pop\n        /* \"#utility.yul\":17753:17762   */\n      dup2\n        /* \"#utility.yul\":17747:17751   */\n      dup2\n        /* \"#utility.yul\":17743:17763   */\n      sub\n        /* \"#utility.yul\":17739:17740   */\n      0x00\n        /* \"#utility.yul\":17728:17737   */\n      dup4\n        /* \"#utility.yul\":17724:17741   */\n      add\n        /* \"#utility.yul\":17717:17764   */\n      mstore\n        /* \"#utility.yul\":17781:17912   */\n      tag_362\n        /* \"#utility.yul\":17907:17911   */\n      dup2\n        /* \"#utility.yul\":17781:17912   */\n      tag_189\n      jump\t// in\n    tag_362:\n        /* \"#utility.yul\":17773:17912   */\n      swap1\n      pop\n        /* \"#utility.yul\":17500:17919   */\n      swap2\n      swap1\n      pop\n      jump\t// out\n        /* \"#utility.yul\":17925:18094   */\n    tag_190:\n        /* \"#utility.yul\":18065:18086   */\n      0x496e76616c69642063616d706169676e20696400000000000000000000000000\n        /* \"#utility.yul\":18061:18062   */\n      0x00\n        /* \"#utility.yul\":18053:18059   */\n      dup3\n        /* \"#utility.yul\":18049:18063   */\n      add\n        /* \"#utility.yul\":18042:18087   */\n      mstore\n        /* \"#utility.yul\":17925:18094   */\n      pop\n      jump\t// out\n        /* \"#utility.yul\":18100:18466   */\n    tag_191:\n        /* \"#utility.yul\":18242:18245   */\n      0x00\n        /* \"#utility.yul\":18263:18330   */\n      tag_365\n        /* \"#utility.yul\":18327:18329   */\n      0x13\n        /* \"#utility.yul\":18322:18325   */\n      dup4\n        /* \"#utility.yul\":18263:18330   */\n      tag_177\n      jump\t// in\n    tag_365:\n        /* \"#utility.yul\":18256:18330   */\n      swap2\n      pop\n        /* \"#utility.yul\":18339:18432   */\n      tag_366\n        /* \"#utility.yul\":18428:18431   */\n      dup3\n        /* \"#utility.yul\":18339:18432   */\n      tag_190\n      jump\t// in\n    tag_366:\n        /* \"#utility.yul\":18457:18459   */\n      0x20\n        /* \"#utility.yul\":18452:18455   */\n      dup3\n        /* \"#utility.yul\":18448:18460   */\n      add\n        /* \"#utility.yul\":18441:18460   */\n      swap1\n      pop\n        /* \"#utility.yul\":18100:18466   */\n      swap2\n      swap1\n      pop\n      jump\t// out\n        /* \"#utility.yul\":18472:18891   */\n    tag_116:\n        /* \"#utility.yul\":18638:18642   */\n      0x00\n        /* \"#utility.yul\":18676:18678   */\n      0x20\n        /* \"#utility.yul\":18665:18674   */\n      dup3\n        /* \"#utility.yul\":18661:18679   */\n      add\n        /* \"#utility.yul\":18653:18679   */\n      swap1\n      pop\n        /* \"#utility.yul\":18725:18734   */\n      dup2\n        /* \"#utility.yul\":18719:18723   */\n      dup2\n        /* \"#utility.yul\":18715:18735   */\n      sub\n        /* \"#utility.yul\":18711:18712   */\n      0x00\n        /* \"#utility.yul\":18700:18709   */\n      dup4\n        /* \"#utility.yul\":18696:18713   */\n      add\n        /* \"#utility.yul\":18689:18736   */\n      mstore\n        /* \"#utility.yul\":18753:18884   */\n      tag_368\n        /* \"#utility.yul\":18879:18883   */\n      dup2\n        /* \"#utility.yul\":18753:18884   */\n      tag_191\n      jump\t// in\n    tag_368:\n        /* \"#utility.yul\":18745:18884   */\n      swap1\n      pop\n        /* \"#utility.yul\":18472:18891   */\n      swap2\n      swap1\n      pop\n      jump\t// out\n        /* \"#utility.yul\":18897:19117   */\n    tag_192:\n        /* \"#utility.yul\":19037:19071   */\n      0x546869732063616d706169676e206973206e6f7420617070726f766564207965\n        /* \"#utility.yul\":19033:19034   */\n      0x00\n        /* \"#utility.yul\":19025:19031   */\n      dup3\n        /* \"#utility.yul\":19021:19035   */\n      add\n        /* \"#utility.yul\":19014:19072   */\n      mstore\n        /* \"#utility.yul\":19106:19109   */\n      0x7400000000000000000000000000000000000000000000000000000000000000\n        /* \"#utility.yul\":19101:19103   */\n      0x20\n        /* \"#utility.yul\":19093:19099   */\n      dup3\n        /* \"#utility.yul\":19089:19104   */\n      add\n        /* \"#utility.yul\":19082:19110   */\n      mstore\n        /* \"#utility.yul\":18897:19117   */\n      pop\n      jump\t// out\n        /* \"#utility.yul\":19123:19489   */\n    tag_193:\n        /* \"#utility.yul\":19265:19268   */\n      0x00\n        /* \"#utility.yul\":19286:19353   */\n      tag_371\n        /* \"#utility.yul\":19350:19352   */\n      0x21\n        /* \"#utility.yul\":19345:19348   */\n      dup4\n        /* \"#utility.yul\":19286:19353   */\n      tag_177\n      jump\t// in\n    tag_371:\n        /* \"#utility.yul\":19279:19353   */\n      swap2\n      pop\n        /* \"#utility.yul\":19362:19455   */\n      tag_372\n        /* \"#utility.yul\":19451:19454   */\n      dup3\n        /* \"#utility.yul\":19362:19455   */\n      tag_192\n      jump\t// in\n    tag_372:\n        /* \"#utility.yul\":19480:19482   */\n      0x40\n        /* \"#utility.yul\":19475:19478   */\n      dup3\n        /* \"#utility.yul\":19471:19483   */\n      add\n        /* \"#utility.yul\":19464:19483   */\n      swap1\n      pop\n        /* \"#utility.yul\":19123:19489   */\n      swap2\n      swap1\n      pop\n      jump\t// out\n        /* \"#utility.yul\":19495:19914   */\n    tag_119:\n        /* \"#utility.yul\":19661:19665   */\n      0x00\n        /* \"#utility.yul\":19699:19701   */\n      0x20\n        /* \"#utility.yul\":19688:19697   */\n      dup3\n        /* \"#utility.yul\":19684:19702   */\n      add\n        /* \"#utility.yul\":19676:19702   */\n      swap1\n      pop\n        /* \"#utility.yul\":19748:19757   */\n      dup2\n        /* \"#utility.yul\":19742:19746   */\n      dup2\n        /* \"#utility.yul\":19738:19758   */\n      sub\n        /* \"#utility.yul\":19734:19735   */\n      0x00\n        /* \"#utility.yul\":19723:19732   */\n      dup4\n        /* \"#utility.yul\":19719:19736   */\n      add\n        /* \"#utility.yul\":19712:19759   */\n      mstore\n        /* \"#utility.yul\":19776:19907   */\n      tag_374\n        /* \"#utility.yul\":19902:19906   */\n      dup2\n        /* \"#utility.yul\":19776:19907   */\n      tag_193\n      jump\t// in\n    tag_374:\n        /* \"#utility.yul\":19768:19907   */\n      swap1\n      pop\n        /* \"#utility.yul\":19495:19914   */\n      swap2\n      swap1\n      pop\n      jump\t// out\n        /* \"#utility.yul\":19920:20099   */\n    tag_194:\n        /* \"#utility.yul\":20060:20091   */\n      0x546869732063616d706169676e206973206e6f74206c69766520796574000000\n        /* \"#utility.yul\":20056:20057   */\n      0x00\n        /* \"#utility.yul\":20048:20054   */\n      dup3\n        /* \"#utility.yul\":20044:20058   */\n      add\n        /* \"#utility.yul\":20037:20092   */\n      mstore\n        /* \"#utility.yul\":19920:20099   */\n      pop\n      jump\t// out\n        /* \"#utility.yul\":20105:20471   */\n    tag_195:\n        /* \"#utility.yul\":20247:20250   */\n      0x00\n        /* \"#utility.yul\":20268:20335   */\n      tag_377\n        /* \"#utility.yul\":20332:20334   */\n      0x1d\n        /* \"#utility.yul\":20327:20330   */\n      dup4\n        /* \"#utility.yul\":20268:20335   */\n      tag_177\n      jump\t// in\n    tag_377:\n        /* \"#utility.yul\":20261:20335   */\n      swap2\n      pop\n        /* \"#utility.yul\":20344:20437   */\n      tag_378\n        /* \"#utility.yul\":20433:20436   */\n      dup3\n        /* \"#utility.yul\":20344:20437   */\n      tag_194\n      jump\t// in\n    tag_378:\n        /* \"#utility.yul\":20462:20464   */\n      0x20\n        /* \"#utility.yul\":20457:20460   */\n      dup3\n        /* \"#utility.yul\":20453:20465   */\n      add\n        /* \"#utility.yul\":20446:20465   */\n      swap1\n      pop\n        /* \"#utility.yul\":20105:20471   */\n      swap2\n      swap1\n      pop\n      jump\t// out\n        /* \"#utility.yul\":20477:20896   */\n    tag_122:\n        /* \"#utility.yul\":20643:20647   */\n      0x00\n        /* \"#utility.yul\":20681:20683   */\n      0x20\n        /* \"#utility.yul\":20670:20679   */\n      dup3\n        /* \"#utility.yul\":20666:20684   */\n      add\n        /* \"#utility.yul\":20658:20684   */\n      swap1\n      pop\n        /* \"#utility.yul\":20730:20739   */\n      dup2\n        /* \"#utility.yul\":20724:20728   */\n      dup2\n        /* \"#utility.yul\":20720:20740   */\n      sub\n        /* \"#utility.yul\":20716:20717   */\n      0x00\n        /* \"#utility.yul\":20705:20714   */\n      dup4\n        /* \"#utility.yul\":20701:20718   */\n      add\n        /* \"#utility.yul\":20694:20741   */\n      mstore\n        /* \"#utility.yul\":20758:20889   */\n      tag_380\n        /* \"#utility.yul\":20884:20888   */\n      dup2\n        /* \"#utility.yul\":20758:20889   */\n      tag_195\n      jump\t// in\n    tag_380:\n        /* \"#utility.yul\":20750:20889   */\n      swap1\n      pop\n        /* \"#utility.yul\":20477:20896   */\n      swap2\n      swap1\n      pop\n      jump\t// out\n        /* \"#utility.yul\":20902:21076   */\n    tag_196:\n        /* \"#utility.yul\":21042:21068   */\n      0x43616e6e6f742066756e6420617420746869732074696d650000000000000000\n        /* \"#utility.yul\":21038:21039   */\n      0x00\n        /* \"#utility.yul\":21030:21036   */\n      dup3\n        /* \"#utility.yul\":21026:21040   */\n      add\n        /* \"#utility.yul\":21019:21069   */\n      mstore\n        /* \"#utility.yul\":20902:21076   */\n      pop\n      jump\t// out\n        /* \"#utility.yul\":21082:21448   */\n    tag_197:\n        /* \"#utility.yul\":21224:21227   */\n      0x00\n        /* \"#utility.yul\":21245:21312   */\n      tag_383\n        /* \"#utility.yul\":21309:21311   */\n      0x18\n        /* \"#utility.yul\":21304:21307   */\n      dup4\n        /* \"#utility.yul\":21245:21312   */\n      tag_177\n      jump\t// in\n    tag_383:\n        /* \"#utility.yul\":21238:21312   */\n      swap2\n      pop\n        /* \"#utility.yul\":21321:21414   */\n      tag_384\n        /* \"#utility.yul\":21410:21413   */\n      dup3\n        /* \"#utility.yul\":21321:21414   */\n      tag_196\n      jump\t// in\n    tag_384:\n        /* \"#utility.yul\":21439:21441   */\n      0x20\n        /* \"#utility.yul\":21434:21437   */\n      dup3\n        /* \"#utility.yul\":21430:21442   */\n      add\n        /* \"#utility.yul\":21423:21442   */\n      swap1\n      pop\n        /* \"#utility.yul\":21082:21448   */\n      swap2\n      swap1\n      pop\n      jump\t// out\n        /* \"#utility.yul\":21454:21873   */\n    tag_126:\n        /* \"#utility.yul\":21620:21624   */\n      0x00\n        /* \"#utility.yul\":21658:21660   */\n      0x20\n        /* \"#utility.yul\":21647:21656   */\n      dup3\n        /* \"#utility.yul\":21643:21661   */\n      add\n        /* \"#utility.yul\":21635:21661   */\n      swap1\n      pop\n        /* \"#utility.yul\":21707:21716   */\n      dup2\n        /* \"#utility.yul\":21701:21705   */\n      dup2\n        /* \"#utility.yul\":21697:21717   */\n      sub\n        /* \"#utility.yul\":21693:21694   */\n      0x00\n        /* \"#utility.yul\":21682:21691   */\n      dup4\n        /* \"#utility.yul\":21678:21695   */\n      add\n        /* \"#utility.yul\":21671:21718   */\n      mstore\n        /* \"#utility.yul\":21735:21866   */\n      tag_386\n        /* \"#utility.yul\":21861:21865   */\n      dup2\n        /* \"#utility.yul\":21735:21866   */\n      tag_197\n      jump\t// in\n    tag_386:\n        /* \"#utility.yul\":21727:21866   */\n      swap1\n      pop\n        /* \"#utility.yul\":21454:21873   */\n      swap2\n      swap1\n      pop\n      jump\t// out\n        /* \"#utility.yul\":21879:22020   */\n    tag_198:\n        /* \"#utility.yul\":21928:21932   */\n      0x00\n        /* \"#utility.yul\":21951:21954   */\n      dup2\n        /* \"#utility.yul\":21943:21954   */\n      swap1\n      pop\n        /* \"#utility.yul\":21974:21977   */\n      dup2\n        /* \"#utility.yul\":21971:21972   */\n      0x00\n        /* \"#utility.yul\":21964:21978   */\n      mstore\n        /* \"#utility.yul\":22008:22012   */\n      0x20\n        /* \"#utility.yul\":22005:22006   */\n      0x00\n        /* \"#utility.yul\":21995:22013   */\n      keccak256\n        /* \"#utility.yul\":21987:22013   */\n      swap1\n      pop\n        /* \"#utility.yul\":21879:22020   */\n      swap2\n      swap1\n      pop\n      jump\t// out\n        /* \"#utility.yul\":22026:22119   */\n    tag_199:\n        /* \"#utility.yul\":22063:22069   */\n      0x00\n        /* \"#utility.yul\":22110:22112   */\n      0x20\n        /* \"#utility.yul\":22105:22107   */\n      0x1f\n        /* \"#utility.yul\":22098:22103   */\n      dup4\n        /* \"#utility.yul\":22094:22108   */\n      add\n        /* \"#utility.yul\":22090:22113   */\n      div\n        /* \"#utility.yul\":22080:22113   */\n      swap1\n      pop\n        /* \"#utility.yul\":22026:22119   */\n      swap2\n      swap1\n      pop\n      jump\t// out\n        /* \"#utility.yul\":22125:22232   */\n    tag_200:\n        /* \"#utility.yul\":22169:22177   */\n      0x00\n        /* \"#utility.yul\":22219:22224   */\n      dup3\n        /* \"#utility.yul\":22213:22217   */\n      dup3\n        /* \"#utility.yul\":22209:22225   */\n      shl\n        /* \"#utility.yul\":22188:22225   */\n      swap1\n      pop\n        /* \"#utility.yul\":22125:22232   */\n      swap3\n      swap2\n      pop\n      pop\n      jump\t// out\n        /* \"#utility.yul\":22238:22631   */\n    tag_201:\n        /* \"#utility.yul\":22307:22313   */\n      0x00\n        /* \"#utility.yul\":22357:22358   */\n      0x08\n        /* \"#utility.yul\":22345:22355   */\n      dup4\n        /* \"#utility.yul\":22341:22359   */\n      mul\n        /* \"#utility.yul\":22380:22477   */\n      tag_391\n        /* \"#utility.yul\":22410:22476   */\n      0xffffffffffffffffffffffffffffffffffffffffffffffffffffffffffffffff\n        /* \"#utility.yul\":22399:22408   */\n      dup3\n        /* \"#utility.yul\":22380:22477   */\n      tag_200\n      jump\t// in\n    tag_391:\n        /* \"#utility.yul\":22498:22537   */\n      tag_392\n        /* \"#utility.yul\":22528:22536   */\n      dup7\n        /* \"#utility.yul\":22517:22526   */\n      dup4\n        /* \"#utility.yul\":22498:22537   */\n      tag_200\n      jump\t// in\n    tag_392:\n        /* \"#utility.yul\":22486:22537   */\n      swap6\n      pop\n        /* \"#utility.yul\":22570:22574   */\n      dup1\n        /* \"#utility.yul\":22566:22575   */\n      not\n        /* \"#utility.yul\":22559:22564   */\n      dup5\n        /* \"#utility.yul\":22555:22576   */\n      and\n        /* \"#utility.yul\":22546:22576   */\n      swap4\n      pop\n        /* \"#utility.yul\":22619:22623   */\n      dup1\n        /* \"#utility.yul\":22609:22617   */\n      dup7\n        /* \"#utility.yul\":22605:22624   */\n      and\n        /* \"#utility.yul\":22598:22603   */\n      dup5\n        /* \"#utility.yul\":22595:22625   */\n      or\n        /* \"#utility.yul\":22585:22625   */\n      swap3\n      pop\n        /* \"#utility.yul\":22314:22631   */\n      pop\n      pop\n        /* \"#utility.yul\":22238:22631   */\n      swap4\n      swap3\n      pop\n      pop\n      pop\n      jump\t// out\n        /* \"#utility.yul\":22637:22697   */\n    tag_202:\n        /* \"#utility.yul\":22665:22668   */\n      0x00\n        /* \"#utility.yul\":22686:22691   */\n      dup2\n        /* \"#utility.yul\":22679:22691   */\n      swap1\n      pop\n        /* \"#utility.yul\":22637:22697   */\n      swap2\n      swap1\n      pop\n      jump\t// out\n        /* \"#utility.yul\":22703:22845   */\n    tag_203:\n        /* \"#utility.yul\":22753:22762   */\n      0x00\n        /* \"#utility.yul\":22786:22839   */\n      tag_395\n        /* \"#utility.yul\":22804:22838   */\n      tag_396\n        /* \"#utility.yul\":22813:22837   */\n      tag_397\n        /* \"#utility.yul\":22831:22836   */\n      dup5\n        /* \"#utility.yul\":22813:22837   */\n      tag_145\n      jump\t// in\n    tag_397:\n        /* \"#utility.yul\":22804:22838   */\n      tag_202\n      jump\t// in\n    tag_396:\n        /* \"#utility.yul\":22786:22839   */\n      tag_145\n      jump\t// in\n    tag_395:\n        /* \"#utility.yul\":22773:22839   */\n      swap1\n      pop\n        /* \"#utility.yul\":22703:22845   */\n      swap2\n      swap1\n      pop\n      jump\t// out\n        /* \"#utility.yul\":22851:22926   */\n    tag_204:\n        /* \"#utility.yul\":22894:22897   */\n      0x00\n        /* \"#utility.yul\":22915:22920   */\n      dup2\n        /* \"#utility.yul\":22908:22920   */\n      swap1\n      pop\n        /* \"#utility.yul\":22851:22926   */\n      swap2\n      swap1\n      pop\n      jump\t// out\n        /* \"#utility.yul\":22932:23201   */\n    tag_205:\n        /* \"#utility.yul\":23042:23081   */\n      tag_400\n        /* \"#utility.yul\":23073:23080   */\n      dup4\n        /* \"#utility.yul\":23042:23081   */\n      tag_203\n      jump\t// in\n    tag_400:\n        /* \"#utility.yul\":23103:23194   */\n      tag_401\n        /* \"#utility.yul\":23152:23193   */\n      tag_402\n        /* \"#utility.yul\":23176:23192   */\n      dup3\n        /* \"#utility.yul\":23152:23193   */\n      tag_204\n      jump\t// in\n    tag_402:\n        /* \"#utility.yul\":23144:23150   */\n      dup5\n        /* \"#utility.yul\":23137:23141   */\n      dup5\n        /* \"#utility.yul\":23131:23142   */\n      sload\n        /* \"#utility.yul\":23103:23194   */\n      tag_201\n      jump\t// in\n    tag_401:\n        /* \"#utility.yul\":23097:23101   */\n      dup3\n        /* \"#utility.yul\":23090:23195   */\n      sstore\n        /* \"#utility.yul\":23008:23201   */\n      pop\n        /* \"#utility.yul\":22932:23201   */\n      pop\n      pop\n      pop\n      jump\t// out\n        /* \"#utility.yul\":23207:23280   */\n    tag_206:\n        /* \"#utility.yul\":23252:23255   */\n      0x00\n        /* \"#utility.yul\":23207:23280   */\n      swap1\n      jump\t// out\n        /* \"#utility.yul\":23286:23475   */\n    tag_207:\n        /* \"#utility.yul\":23363:23395   */\n      tag_405\n      tag_206\n      jump\t// in\n    tag_405:\n        /* \"#utility.yul\":23404:23469   */\n      tag_406\n        /* \"#utility.yul\":23462:23468   */\n      dup2\n        /* \"#utility.yul\":23454:23460   */\n      dup5\n        /* \"#utility.yul\":23448:23452   */\n      dup5\n        /* \"#utility.yul\":23404:23469   */\n      tag_205\n      jump\t// in\n    tag_406:\n        /* \"#utility.yul\":23339:23475   */\n      pop\n        /* \"#utility.yul\":23286:23475   */\n      pop\n      pop\n      jump\t// out\n        /* \"#utility.yul\":23481:23667   */\n    tag_208:\n        /* \"#utility.yul\":23541:23661   */\n    tag_408:\n        /* \"#utility.yul\":23558:23561   */\n      dup2\n        /* \"#utility.yul\":23551:23556   */\n      dup2\n        /* \"#utility.yul\":23548:23562   */\n      lt\n        /* \"#utility.yul\":23541:23661   */\n      iszero\n      tag_410\n      jumpi\n        /* \"#utility.yul\":23612:23651   */\n      tag_411\n        /* \"#utility.yul\":23649:23650   */\n      0x00\n        /* \"#utility.yul\":23642:23647   */\n      dup3\n        /* \"#utility.yul\":23612:23651   */\n      tag_207\n      jump\t// in\n    tag_411:\n        /* \"#utility.yul\":23585:23586   */\n      0x01\n        /* \"#utility.yul\":23578:23583   */\n      dup2\n        /* \"#utility.yul\":23574:23587   */\n      add\n        /* \"#utility.yul\":23565:23587   */\n      swap1\n      pop\n        /* \"#utility.yul\":23541:23661   */\n      jump(tag_408)\n    tag_410:\n        /* \"#utility.yul\":23481:23667   */\n      pop\n      pop\n      jump\t// out\n        /* \"#utility.yul\":23673:24216   */\n    tag_209:\n        /* \"#utility.yul\":23774:23776   */\n      0x1f\n        /* \"#utility.yul\":23769:23772   */\n      dup3\n        /* \"#utility.yul\":23766:23777   */\n      gt\n        /* \"#utility.yul\":23763:24209   */\n      iszero\n      tag_413\n      jumpi\n        /* \"#utility.yul\":23808:23846   */\n      tag_414\n        /* \"#utility.yul\":23840:23845   */\n      dup2\n        /* \"#utility.yul\":23808:23846   */\n      tag_198\n      jump\t// in\n    tag_414:\n        /* \"#utility.yul\":23892:23921   */\n      tag_415\n        /* \"#utility.yul\":23910:23920   */\n      dup5\n        /* \"#utility.yul\":23892:23921   */\n      tag_199\n      jump\t// in\n    tag_415:\n        /* \"#utility.yul\":23882:23890   */\n      dup2\n        /* \"#utility.yul\":23878:23922   */\n      add\n        /* \"#utility.yul\":24075:24077   */\n      0x20\n        /* \"#utility.yul\":24063:24073   */\n      dup6\n        /* \"#utility.yul\":24060:24078   */\n      lt\n        /* \"#utility.yul\":24057:24106   */\n      iszero\n      tag_416\n      jumpi\n        /* \"#utility.yul\":24096:24104   */\n      dup2\n        /* \"#utility.yul\":24081:24104   */\n      swap1\n      pop\n        /* \"#utility.yul\":24057:24106   */\n    tag_416:\n        /* \"#utility.yul\":24119:24199   */\n      tag_417\n        /* \"#utility.yul\":24175:24197   */\n      tag_418\n        /* \"#utility.yul\":24193:24196   */\n      dup6\n        /* \"#utility.yul\":24175:24197   */\n      tag_199\n      jump\t// in\n    tag_418:\n        /* \"#utility.yul\":24165:24173   */\n      dup4\n        /* \"#utility.yul\":24161:24198   */\n      add\n        /* \"#utility.yul\":24148:24159   */\n      dup3\n        /* \"#utility.yul\":24119:24199   */\n      tag_208\n      jump\t// in\n    tag_417:\n        /* \"#utility.yul\":23778:24209   */\n      pop\n      pop\n        /* \"#utility.yul\":23763:24209   */\n    tag_413:\n        /* \"#utility.yul\":23673:24216   */\n      pop\n      pop\n      pop\n      jump\t// out\n        /* \"#utility.yul\":24222:24339   */\n    tag_210:\n        /* \"#utility.yul\":24276:24284   */\n      0x00\n        /* \"#utility.yul\":24326:24331   */\n      dup3\n        /* \"#utility.yul\":24320:24324   */\n      dup3\n        /* \"#utility.yul\":24316:24332   */\n      shr\n        /* \"#utility.yul\":24295:24332   */\n      swap1\n      pop\n        /* \"#utility.yul\":24222:24339   */\n      swap3\n      swap2\n      pop\n      pop\n      jump\t// out\n        /* \"#utility.yul\":24345:24514   */\n    tag_211:\n        /* \"#utility.yul\":24389:24395   */\n      0x00\n        /* \"#utility.yul\":24422:24473   */\n      tag_421\n        /* \"#utility.yul\":24470:24471   */\n      0x00\n        /* \"#utility.yul\":24466:24472   */\n      not\n        /* \"#utility.yul\":24458:24463   */\n      dup5\n        /* \"#utility.yul\":24455:24456   */\n      0x08\n        /* \"#utility.yul\":24451:24464   */\n      mul\n        /* \"#utility.yul\":24422:24473   */\n      tag_210\n      jump\t// in\n    tag_421:\n        /* \"#utility.yul\":24418:24474   */\n      not\n        /* \"#utility.yul\":24503:24507   */\n      dup1\n        /* \"#utility.yul\":24497:24501   */\n      dup4\n        /* \"#utility.yul\":24493:24508   */\n      and\n        /* \"#utility.yul\":24483:24508   */\n      swap2\n      pop\n        /* \"#utility.yul\":24396:24514   */\n      pop\n        /* \"#utility.yul\":24345:24514   */\n      swap3\n      swap2\n      pop\n      pop\n      jump\t// out\n        /* \"#utility.yul\":24519:24814   */\n    tag_212:\n        /* \"#utility.yul\":24595:24599   */\n      0x00\n        /* \"#utility.yul\":24741:24770   */\n      tag_423\n        /* \"#utility.yul\":24766:24769   */\n      dup4\n        /* \"#utility.yul\":24760:24764   */\n      dup4\n        /* \"#utility.yul\":24741:24770   */\n      tag_211\n      jump\t// in\n    tag_423:\n        /* \"#utility.yul\":24733:24770   */\n      swap2\n      pop\n        /* \"#utility.yul\":24803:24806   */\n      dup3\n        /* \"#utility.yul\":24800:24801   */\n      0x02\n        /* \"#utility.yul\":24796:24807   */\n      mul\n        /* \"#utility.yul\":24790:24794   */\n      dup3\n        /* \"#utility.yul\":24787:24808   */\n      or\n        /* \"#utility.yul\":24779:24808   */\n      swap1\n      pop\n        /* \"#utility.yul\":24519:24814   */\n      swap3\n      swap2\n      pop\n      pop\n      jump\t// out\n        /* \"#utility.yul\":24819:26214   */\n    tag_138:\n        /* \"#utility.yul\":24936:24973   */\n      tag_425\n        /* \"#utility.yul\":24969:24972   */\n      dup3\n        /* \"#utility.yul\":24936:24973   */\n      tag_161\n      jump\t// in\n    tag_425:\n        /* \"#utility.yul\":25038:25056   */\n      0xffffffffffffffff\n        /* \"#utility.yul\":25030:25036   */\n      dup2\n        /* \"#utility.yul\":25027:25057   */\n      gt\n        /* \"#utility.yul\":25024:25080   */\n      iszero\n      tag_426\n      jumpi\n        /* \"#utility.yul\":25060:25078   */\n      tag_427\n      tag_89\n      jump\t// in\n    tag_427:\n        /* \"#utility.yul\":25024:25080   */\n    tag_426:\n        /* \"#utility.yul\":25104:25142   */\n      tag_428\n        /* \"#utility.yul\":25136:25140   */\n      dup3\n        /* \"#utility.yul\":25130:25141   */\n      sload\n        /* \"#utility.yul\":25104:25142   */\n      tag_101\n      jump\t// in\n    tag_428:\n        /* \"#utility.yul\":25189:25256   */\n      tag_429\n        /* \"#utility.yul\":25249:25255   */\n      dup3\n        /* \"#utility.yul\":25241:25247   */\n      dup3\n        /* \"#utility.yul\":25235:25239   */\n      dup6\n        /* \"#utility.yul\":25189:25256   */\n      tag_209\n      jump\t// in\n    tag_429:\n        /* \"#utility.yul\":25283:25284   */\n      0x00\n        /* \"#utility.yul\":25307:25311   */\n      0x20\n        /* \"#utility.yul\":25294:25311   */\n      swap1\n      pop\n        /* \"#utility.yul\":25339:25341   */\n      0x1f\n        /* \"#utility.yul\":25331:25337   */\n      dup4\n        /* \"#utility.yul\":25328:25342   */\n      gt\n        /* \"#utility.yul\":25356:25357   */\n      0x01\n        /* \"#utility.yul\":25351:25969   */\n      dup2\n      eq\n      tag_431\n      jumpi\n        /* \"#utility.yul\":26013:26014   */\n      0x00\n        /* \"#utility.yul\":26030:26036   */\n      dup5\n        /* \"#utility.yul\":26027:26104   */\n      iszero\n      tag_432\n      jumpi\n        /* \"#utility.yul\":26079:26088   */\n      dup3\n        /* \"#utility.yul\":26074:26077   */\n      dup8\n        /* \"#utility.yul\":26070:26089   */\n      add\n        /* \"#utility.yul\":26064:26090   */\n      mload\n        /* \"#utility.yul\":26055:26090   */\n      swap1\n      pop\n        /* \"#utility.yul\":26027:26104   */\n    tag_432:\n        /* \"#utility.yul\":26130:26197   */\n      tag_433\n        /* \"#utility.yul\":26190:26196   */\n      dup6\n        /* \"#utility.yul\":26183:26188   */\n      dup3\n        /* \"#utility.yul\":26130:26197   */\n      tag_212\n      jump\t// in\n    tag_433:\n        /* \"#utility.yul\":26124:26128   */\n      dup7\n        /* \"#utility.yul\":26117:26198   */\n      sstore\n        /* \"#utility.yul\":25986:26208   */\n      pop\n        /* \"#utility.yul\":25321:26208   */\n      jump(tag_430)\n        /* \"#utility.yul\":25351:25969   */\n    tag_431:\n        /* \"#utility.yul\":25403:25407   */\n      0x1f\n        /* \"#utility.yul\":25399:25408   */\n      not\n        /* \"#utility.yul\":25391:25397   */\n      dup5\n        /* \"#utility.yul\":25387:25409   */\n      and\n        /* \"#utility.yul\":25437:25474   */\n      tag_434\n        /* \"#utility.yul\":25469:25473   */\n      dup7\n        /* \"#utility.yul\":25437:25474   */\n      tag_198\n      jump\t// in\n    tag_434:\n        /* \"#utility.yul\":25496:25497   */\n      0x00\n        /* \"#utility.yul\":25510:25718   */\n    tag_435:\n        /* \"#utility.yul\":25524:25531   */\n      dup3\n        /* \"#utility.yul\":25521:25522   */\n      dup2\n        /* \"#utility.yul\":25518:25532   */\n      lt\n        /* \"#utility.yul\":25510:25718   */\n      iszero\n      tag_437\n      jumpi\n        /* \"#utility.yul\":25603:25612   */\n      dup5\n        /* \"#utility.yul\":25598:25601   */\n      dup10\n        /* \"#utility.yul\":25594:25613   */\n      add\n        /* \"#utility.yul\":25588:25614   */\n      mload\n        /* \"#utility.yul\":25580:25586   */\n      dup3\n        /* \"#utility.yul\":25573:25615   */\n      sstore\n        /* \"#utility.yul\":25654:25655   */\n      0x01\n        /* \"#utility.yul\":25646:25652   */\n      dup3\n        /* \"#utility.yul\":25642:25656   */\n      add\n        /* \"#utility.yul\":25632:25656   */\n      swap2\n      pop\n        /* \"#utility.yul\":25701:25703   */\n      0x20\n        /* \"#utility.yul\":25690:25699   */\n      dup6\n        /* \"#utility.yul\":25686:25704   */\n      add\n        /* \"#utility.yul\":25673:25704   */\n      swap5\n      pop\n        /* \"#utility.yul\":25547:25551   */\n      0x20\n        /* \"#utility.yul\":25544:25545   */\n      dup2\n        /* \"#utility.yul\":25540:25552   */\n      add\n        /* \"#utility.yul\":25535:25552   */\n      swap1\n      pop\n        /* \"#utility.yul\":25510:25718   */\n      jump(tag_435)\n    tag_437:\n        /* \"#utility.yul\":25746:25752   */\n      dup7\n        /* \"#utility.yul\":25737:25744   */\n      dup4\n        /* \"#utility.yul\":25734:25753   */\n      lt\n        /* \"#utility.yul\":25731:25910   */\n      iszero\n      tag_438\n      jumpi\n        /* \"#utility.yul\":25804:25813   */\n      dup5\n        /* \"#utility.yul\":25799:25802   */\n      dup10\n        /* \"#utility.yul\":25795:25814   */\n      add\n        /* \"#utility.yul\":25789:25815   */\n      mload\n        /* \"#utility.yul\":25847:25895   */\n      tag_439\n        /* \"#utility.yul\":25889:25893   */\n      0x1f\n        /* \"#utility.yul\":25881:25887   */\n      dup10\n        /* \"#utility.yul\":25877:25894   */\n      and\n        /* \"#utility.yul\":25866:25875   */\n      dup3\n        /* \"#utility.yul\":25847:25895   */\n      tag_211\n      jump\t// in\n    tag_439:\n        /* \"#utility.yul\":25839:25845   */\n      dup4\n        /* \"#utility.yul\":25832:25896   */\n      sstore\n        /* \"#utility.yul\":25754:25910   */\n      pop\n        /* \"#utility.yul\":25731:25910   */\n    tag_438:\n        /* \"#utility.yul\":25956:25957   */\n      0x01\n        /* \"#utility.yul\":25952:25953   */\n      0x02\n        /* \"#utility.yul\":25944:25950   */\n      dup9\n        /* \"#utility.yul\":25940:25954   */\n      mul\n        /* \"#utility.yul\":25936:25958   */\n      add\n        /* \"#utility.yul\":25930:25934   */\n      dup9\n        /* \"#utility.yul\":25923:25959   */\n      sstore\n        /* \"#utility.yul\":25358:25969   */\n      pop\n      pop\n      pop\n        /* \"#utility.yul\":25321:26208   */\n    tag_430:\n      pop\n        /* \"#utility.yul\":24911:26214   */\n      pop\n      pop\n      pop\n        /* \"#utility.yul\":24819:26214   */\n      pop\n      pop\n      jump\t// out\n        /* \"#utility.yul\":26220:26453   */\n    tag_140:\n        /* \"#utility.yul\":26259:26262   */\n      0x00\n        /* \"#utility.yul\":26282:26306   */\n      tag_441\n        /* \"#utility.yul\":26300:26305   */\n      dup3\n        /* \"#utility.yul\":26282:26306   */\n      tag_145\n      jump\t// in\n    tag_441:\n        /* \"#utility.yul\":26273:26306   */\n      swap2\n      pop\n        /* \"#utility.yul\":26328:26394   */\n      0xffffffffffffffffffffffffffffffffffffffffffffffffffffffffffffffff\n        /* \"#utility.yul\":26321:26326   */\n      dup3\n        /* \"#utility.yul\":26318:26395   */\n      sub\n        /* \"#utility.yul\":26315:26418   */\n      tag_442\n      jumpi\n        /* \"#utility.yul\":26398:26416   */\n      tag_443\n      tag_186\n      jump\t// in\n    tag_443:\n        /* \"#utility.yul\":26315:26418   */\n    tag_442:\n        /* \"#utility.yul\":26445:26446   */\n      0x01\n        /* \"#utility.yul\":26438:26443   */\n      dup3\n        /* \"#utility.yul\":26434:26447   */\n      add\n        /* \"#utility.yul\":26427:26447   */\n      swap1\n      pop\n        /* \"#utility.yul\":26220:26453   */\n      swap2\n      swap1\n      pop\n      jump\t// out\n\n    auxdata: 0xa2646970667358221220fe99d35c581bcc584389ef6e4a1f2acf3c2c7b42e3b7e6388a4b65c487c4835464736f6c634300081a0033\n}\n",
				"bytecode": {
					"linkReferences": {},
					"object": "60806040526001805560016002553480156017575f80fd5b50335f806101000a81548173ffffffffffffffffffffffffffffffffffffffff021916908373ffffffffffffffffffffffffffffffffffffffff160217905550611b64806100645f395ff3fe608060405260043610610089575f3560e01c80633e4f2f00116100585780633e4f2f001461014857806342a4fda81461017257806386ff6b651461018e578063ca8f7cc0146101a4578063cf16fd0b146101cc57610090565b80630cee1725146100945780630fa91fa9146100bc57806320fdfcdf146100f857806335dda05a1461012057610090565b3661009057005b5f80fd5b34801561009f575f80fd5b506100ba60048036038101906100b59190610ec9565b610208565b005b3480156100c7575f80fd5b506100e260048036038101906100dd9190610ec9565b6103e4565b6040516100ef9190610fdb565b60405180910390f35b348015610103575f80fd5b5061011e60048036038101906101199190610ec9565b610480565b005b34801561012b575f80fd5b5061014660048036038101906101419190610ec9565b61054a565b005b348015610153575f80fd5b5061015c610677565b6040516101699190611226565b60405180910390f35b61018c60048036038101906101879190610ec9565b6108a5565b005b348015610199575f80fd5b506101a2610b5f565b005b3480156101af575f80fd5b506101ca60048036038101906101c591906112a7565b610c51565b005b3480156101d7575f80fd5b506101f260048036038101906101ed9190610ec9565b610e01565b6040516101ff919061133a565b60405180910390f35b60045f8281526020019081526020015f206002015f9054906101000a900473ffffffffffffffffffffffffffffffffffffffff1673ffffffffffffffffffffffffffffffffffffffff163373ffffffffffffffffffffffffffffffffffffffff16146102a9576040517f08c379a00000000000000000000000000000000000000000000000000000000081526004016102a0906113ad565b60405180910390fd5b60045f8281526020019081526020015f2060070154421015610300576040517f08c379a00000000000000000000000000000000000000000000000000000000081526004016102f790611415565b60405180910390fd5b5f60045f8381526020019081526020015f206005015414801561034a575060045f8281526020019081526020015f206003015460045f8381526020019081526020015f2060040154145b610389576040517f08c379a00000000000000000000000000000000000000000000000000000000081526004016103809061147d565b60405180910390fd5b3373ffffffffffffffffffffffffffffffffffffffff166108fc60045f8481526020019081526020015f206003015490811502906040515f60405180830381858888f193505050501580156103e0573d5f803e3d5ffd5b5050565b606060055f8381526020019081526020015f2080548060200260200160405190810160405280929190818152602001828054801561047457602002820191905f5260205f20905b815f9054906101000a900473ffffffffffffffffffffffffffffffffffffffff1673ffffffffffffffffffffffffffffffffffffffff168152602001906001019080831161042b575b50505050509050919050565b5f8054906101000a900473ffffffffffffffffffffffffffffffffffffffff1673ffffffffffffffffffffffffffffffffffffffff163373ffffffffffffffffffffffffffffffffffffffff161461050d576040517f08c379a0000000000000000000000000000000000000000000000000000000008152600401610504906114e5565b60405180910390fd5b60035f9054906101000a900460ff161560045f8381526020019081526020015f206008015f6101000a81548160ff02191690831515021790555050565b5f8054906101000a900473ffffffffffffffffffffffffffffffffffffffff1673ffffffffffffffffffffffffffffffffffffffff163373ffffffffffffffffffffffffffffffffffffffff16146105d7576040517f08c379a00000000000000000000000000000000000000000000000000000000081526004016105ce906114e5565b60405180910390fd5b6001151560045f8381526020019081526020015f206008015f9054906101000a900460ff16151514610607575f80fd5b60045f8281526020019081526020015f2060060154421015801561063f575060045f8281526020019081526020015f20600701544211155b610647575f80fd5b600160045f8381526020019081526020015f2060080160016101000a81548160ff02191690831515021790555050565b60605f600180546106889190611530565b67ffffffffffffffff8111156106a1576106a0611563565b5b6040519080825280602002602001820160405280156106da57816020015b6106c7610e2a565b8152602001906001900390816106bf5790505b5090505f5b600180546106ed9190611530565b81101561089d5760045f6001836107049190611590565b81526020019081526020015f20604051806101400160405290815f8201548152602001600182018054610736906115f0565b80601f0160208091040260200160405190810160405280929190818152602001828054610762906115f0565b80156107ad5780601f10610784576101008083540402835291602001916107ad565b820191905f5260205f20905b81548152906001019060200180831161079057829003601f168201915b50505050508152602001600282015f9054906101000a900473ffffffffffffffffffffffffffffffffffffffff1673ffffffffffffffffffffffffffffffffffffffff1673ffffffffffffffffffffffffffffffffffffffff1681526020016003820154815260200160048201548152602001600582015481526020016006820154815260200160078201548152602001600882015f9054906101000a900460ff161515151581526020016008820160019054906101000a900460ff16151515158152505082828151811061088557610884611620565b5b602002602001018190525080806001019150506106df565b508091505090565b5f34116108e7576040517f08c379a00000000000000000000000000000000000000000000000000000000081526004016108de90611697565b60405180910390fd5b60015481111580156108f857505f81115b610937576040517f08c379a000000000000000000000000000000000000000000000000000000000815260040161092e906116ff565b60405180910390fd5b6001151560045f8381526020019081526020015f206008015f9054906101000a900460ff1615151461099e576040517f08c379a00000000000000000000000000000000000000000000000000000000081526004016109959061178d565b60405180910390fd5b6001151560045f8381526020019081526020015f2060080160019054906101000a900460ff16151514610a06576040517f08c379a00000000000000000000000000000000000000000000000000000000081526004016109fd906117f5565b60405180910390fd5b60045f8281526020019081526020015f20600601544210158015610a3e575060045f8281526020019081526020015f20600701544211155b610a7d576040517f08c379a0000000000000000000000000000000000000000000000000000000008152600401610a749061185d565b60405180910390fd5b3460045f8381526020019081526020015f2060040154610a9d9190611590565b60045f8381526020019081526020015f20600401819055503460045f8381526020019081526020015f2060050154610ad59190611530565b60045f8381526020019081526020015f206005018190555060055f8281526020019081526020015f2033908060018154018082558091505060019003905f5260205f20015f9091909190916101000a81548173ffffffffffffffffffffffffffffffffffffffff021916908373ffffffffffffffffffffffffffffffffffffffff16021790555050565b5f8054906101000a900473ffffffffffffffffffffffffffffffffffffffff1673ffffffffffffffffffffffffffffffffffffffff163373ffffffffffffffffffffffffffffffffffffffff1614610bec576040517f08c379a0000000000000000000000000000000000000000000000000000000008152600401610be3906114e5565b60405180910390fd5b5f8054906101000a900473ffffffffffffffffffffffffffffffffffffffff1673ffffffffffffffffffffffffffffffffffffffff166108fc4790811502906040515f60405180830381858888f19350505050158015610c4e573d5f803e3d5ffd5b50565b604051806101400160405280600154815260200186868080601f0160208091040260200160405190810160405280939291908181526020018383808284375f81840152601f19601f8201169050808301925050505050505081526020013373ffffffffffffffffffffffffffffffffffffffff1681526020018481526020015f81526020018481526020018381526020018281526020015f151581526020015f151581525060045f60015481526020019081526020015f205f820151815f01556020820151816001019081610d269190611a18565b506040820151816002015f6101000a81548173ffffffffffffffffffffffffffffffffffffffff021916908373ffffffffffffffffffffffffffffffffffffffff160217905550606082015181600301556080820151816004015560a0820151816005015560c0820151816006015560e08201518160070155610100820151816008015f6101000a81548160ff0219169083151502179055506101208201518160080160016101000a81548160ff02191690831515021790555090505060015f815480929190610df590611ae7565b91905055505050505050565b5f60045f8381526020019081526020015f206008015f9054906101000a900460ff169050919050565b6040518061014001604052805f8152602001606081526020015f73ffffffffffffffffffffffffffffffffffffffff1681526020015f81526020015f81526020015f81526020015f81526020015f81526020015f151581526020015f151581525090565b5f80fd5b5f80fd5b5f819050919050565b610ea881610e96565b8114610eb2575f80fd5b50565b5f81359050610ec381610e9f565b92915050565b5f60208284031215610ede57610edd610e8e565b5b5f610eeb84828501610eb5565b91505092915050565b5f81519050919050565b5f82825260208201905092915050565b5f819050602082019050919050565b5f73ffffffffffffffffffffffffffffffffffffffff82169050919050565b5f610f4682610f1d565b9050919050565b610f5681610f3c565b82525050565b5f610f678383610f4d565b60208301905092915050565b5f602082019050919050565b5f610f8982610ef4565b610f938185610efe565b9350610f9e83610f0e565b805f5b83811015610fce578151610fb58882610f5c565b9750610fc083610f73565b925050600181019050610fa1565b5085935050505092915050565b5f6020820190508181035f830152610ff38184610f7f565b905092915050565b5f81519050919050565b5f82825260208201905092915050565b5f819050602082019050919050565b61102d81610e96565b82525050565b5f81519050919050565b5f82825260208201905092915050565b8281835e5f83830152505050565b5f601f19601f8301169050919050565b5f61107582611033565b61107f818561103d565b935061108f81856020860161104d565b6110988161105b565b840191505092915050565b5f8115159050919050565b6110b7816110a3565b82525050565b5f61014083015f8301516110d35f860182611024565b50602083015184820360208601526110eb828261106b565b91505060408301516111006040860182610f4d565b5060608301516111136060860182611024565b5060808301516111266080860182611024565b5060a083015161113960a0860182611024565b5060c083015161114c60c0860182611024565b5060e083015161115f60e0860182611024565b506101008301516111746101008601826110ae565b506101208301516111896101208601826110ae565b508091505092915050565b5f61119f83836110bd565b905092915050565b5f602082019050919050565b5f6111bd82610ffb565b6111c78185611005565b9350836020820285016111d985611015565b805f5b8581101561121457848403895281516111f58582611194565b9450611200836111a7565b925060208a019950506001810190506111dc565b50829750879550505050505092915050565b5f6020820190508181035f83015261123e81846111b3565b905092915050565b5f80fd5b5f80fd5b5f80fd5b5f8083601f84011261126757611266611246565b5b8235905067ffffffffffffffff8111156112845761128361124a565b5b6020830191508360018202830111156112a05761129f61124e565b5b9250929050565b5f805f805f608086880312156112c0576112bf610e8e565b5b5f86013567ffffffffffffffff8111156112dd576112dc610e92565b5b6112e988828901611252565b955095505060206112fc88828901610eb5565b935050604061130d88828901610eb5565b925050606061131e88828901610eb5565b9150509295509295909350565b611334816110a3565b82525050565b5f60208201905061134d5f83018461132b565b92915050565b5f82825260208201905092915050565b7f596f75277265206e6f742066756e6420726169736572000000000000000000005f82015250565b5f611397601683611353565b91506113a282611363565b602082019050919050565b5f6020820190508181035f8301526113c48161138b565b9050919050565b7f43616d706169676e206973206e6f7420656e64207965740000000000000000005f82015250565b5f6113ff601783611353565b915061140a826113cb565b602082019050919050565b5f6020820190508181035f83015261142c816113f3565b9050919050565b7f546172676574206e6f7420636f6d706c657465640000000000000000000000005f82015250565b5f611467601483611353565b915061147282611433565b602082019050919050565b5f6020820190508181035f8301526114948161145b565b9050919050565b7f596f75277265206e6f74206d616e6167657200000000000000000000000000005f82015250565b5f6114cf601283611353565b91506114da8261149b565b602082019050919050565b5f6020820190508181035f8301526114fc816114c3565b9050919050565b7f4e487b71000000000000000000000000000000000000000000000000000000005f52601160045260245ffd5b5f61153a82610e96565b915061154583610e96565b925082820390508181111561155d5761155c611503565b5b92915050565b7f4e487b71000000000000000000000000000000000000000000000000000000005f52604160045260245ffd5b5f61159a82610e96565b91506115a583610e96565b92508282019050808211156115bd576115bc611503565b5b92915050565b7f4e487b71000000000000000000000000000000000000000000000000000000005f52602260045260245ffd5b5f600282049050600182168061160757607f821691505b60208210810361161a576116196115c3565b5b50919050565b7f4e487b71000000000000000000000000000000000000000000000000000000005f52603260045260245ffd5b7f696e76616c696420616d6f756e7420746f2066756e64000000000000000000005f82015250565b5f611681601683611353565b915061168c8261164d565b602082019050919050565b5f6020820190508181035f8301526116ae81611675565b9050919050565b7f496e76616c69642063616d706169676e206964000000000000000000000000005f82015250565b5f6116e9601383611353565b91506116f4826116b5565b602082019050919050565b5f6020820190508181035f830152611716816116dd565b9050919050565b7f546869732063616d706169676e206973206e6f7420617070726f7665642079655f8201527f7400000000000000000000000000000000000000000000000000000000000000602082015250565b5f611777602183611353565b91506117828261171d565b604082019050919050565b5f6020820190508181035f8301526117a48161176b565b9050919050565b7f546869732063616d706169676e206973206e6f74206c697665207965740000005f82015250565b5f6117df601d83611353565b91506117ea826117ab565b602082019050919050565b5f6020820190508181035f83015261180c816117d3565b9050919050565b7f43616e6e6f742066756e6420617420746869732074696d6500000000000000005f82015250565b5f611847601883611353565b915061185282611813565b602082019050919050565b5f6020820190508181035f8301526118748161183b565b9050919050565b5f819050815f5260205f209050919050565b5f6020601f8301049050919050565b5f82821b905092915050565b5f600883026118d77fffffffffffffffffffffffffffffffffffffffffffffffffffffffffffffffff8261189c565b6118e1868361189c565b95508019841693508086168417925050509392505050565b5f819050919050565b5f61191c61191761191284610e96565b6118f9565b610e96565b9050919050565b5f819050919050565b61193583611902565b61194961194182611923565b8484546118a8565b825550505050565b5f90565b61195d611951565b61196881848461192c565b505050565b5b8181101561198b576119805f82611955565b60018101905061196e565b5050565b601f8211156119d0576119a18161187b565b6119aa8461188d565b810160208510156119b9578190505b6119cd6119c58561188d565b83018261196d565b50505b505050565b5f82821c905092915050565b5f6119f05f19846008026119d5565b1980831691505092915050565b5f611a0883836119e1565b9150826002028217905092915050565b611a2182611033565b67ffffffffffffffff811115611a3a57611a39611563565b5b611a4482546115f0565b611a4f82828561198f565b5f60209050601f831160018114611a80575f8415611a6e578287015190505b611a7885826119fd565b865550611adf565b601f198416611a8e8661187b565b5f5b82811015611ab557848901518255600182019150602085019450602081019050611a90565b86831015611ad25784890151611ace601f8916826119e1565b8355505b6001600288020188555050505b505050505050565b5f611af182610e96565b91507fffffffffffffffffffffffffffffffffffffffffffffffffffffffffffffffff8203611b2357611b22611503565b5b60018201905091905056fea2646970667358221220fe99d35c581bcc584389ef6e4a1f2acf3c2c7b42e3b7e6388a4b65c487c4835464736f6c634300081a0033",
					"opcodes": "PUSH1 0x80 PUSH1 0x40 MSTORE PUSH1 0x1 DUP1 SSTORE PUSH1 0x1 PUSH1 0x2 SSTORE CALLVALUE DUP1 ISZERO PUSH1 0x17 JUMPI PUSH0 DUP1 REVERT JUMPDEST POP CALLER PUSH0 DUP1 PUSH2 0x100 EXP DUP2 SLOAD DUP2 PUSH20 0xFFFFFFFFFFFFFFFFFFFFFFFFFFFFFFFFFFFFFFFF MUL NOT AND SWAP1 DUP4 PUSH20 0xFFFFFFFFFFFFFFFFFFFFFFFFFFFFFFFFFFFFFFFF AND MUL OR SWAP1 SSTORE POP PUSH2 0x1B64 DUP1 PUSH2 0x64 PUSH0 CODECOPY PUSH0 RETURN INVALID PUSH1 0x80 PUSH1 0x40 MSTORE PUSH1 0x4 CALLDATASIZE LT PUSH2 0x89 JUMPI PUSH0 CALLDATALOAD PUSH1 0xE0 SHR DUP1 PUSH4 0x3E4F2F00 GT PUSH2 0x58 JUMPI DUP1 PUSH4 0x3E4F2F00 EQ PUSH2 0x148 JUMPI DUP1 PUSH4 0x42A4FDA8 EQ PUSH2 0x172 JUMPI DUP1 PUSH4 0x86FF6B65 EQ PUSH2 0x18E JUMPI DUP1 PUSH4 0xCA8F7CC0 EQ PUSH2 0x1A4 JUMPI DUP1 PUSH4 0xCF16FD0B EQ PUSH2 0x1CC JUMPI PUSH2 0x90 JUMP JUMPDEST DUP1 PUSH4 0xCEE1725 EQ PUSH2 0x94 JUMPI DUP1 PUSH4 0xFA91FA9 EQ PUSH2 0xBC JUMPI DUP1 PUSH4 0x20FDFCDF EQ PUSH2 0xF8 JUMPI DUP1 PUSH4 0x35DDA05A EQ PUSH2 0x120 JUMPI PUSH2 0x90 JUMP JUMPDEST CALLDATASIZE PUSH2 0x90 JUMPI STOP JUMPDEST PUSH0 DUP1 REVERT JUMPDEST CALLVALUE DUP1 ISZERO PUSH2 0x9F JUMPI PUSH0 DUP1 REVERT JUMPDEST POP PUSH2 0xBA PUSH1 0x4 DUP1 CALLDATASIZE SUB DUP2 ADD SWAP1 PUSH2 0xB5 SWAP2 SWAP1 PUSH2 0xEC9 JUMP JUMPDEST PUSH2 0x208 JUMP JUMPDEST STOP JUMPDEST CALLVALUE DUP1 ISZERO PUSH2 0xC7 JUMPI PUSH0 DUP1 REVERT JUMPDEST POP PUSH2 0xE2 PUSH1 0x4 DUP1 CALLDATASIZE SUB DUP2 ADD SWAP1 PUSH2 0xDD SWAP2 SWAP1 PUSH2 0xEC9 JUMP JUMPDEST PUSH2 0x3E4 JUMP JUMPDEST PUSH1 0x40 MLOAD PUSH2 0xEF SWAP2 SWAP1 PUSH2 0xFDB JUMP JUMPDEST PUSH1 0x40 MLOAD DUP1 SWAP2 SUB SWAP1 RETURN JUMPDEST CALLVALUE DUP1 ISZERO PUSH2 0x103 JUMPI PUSH0 DUP1 REVERT JUMPDEST POP PUSH2 0x11E PUSH1 0x4 DUP1 CALLDATASIZE SUB DUP2 ADD SWAP1 PUSH2 0x119 SWAP2 SWAP1 PUSH2 0xEC9 JUMP JUMPDEST PUSH2 0x480 JUMP JUMPDEST STOP JUMPDEST CALLVALUE DUP1 ISZERO PUSH2 0x12B JUMPI PUSH0 DUP1 REVERT JUMPDEST POP PUSH2 0x146 PUSH1 0x4 DUP1 CALLDATASIZE SUB DUP2 ADD SWAP1 PUSH2 0x141 SWAP2 SWAP1 PUSH2 0xEC9 JUMP JUMPDEST PUSH2 0x54A JUMP JUMPDEST STOP JUMPDEST CALLVALUE DUP1 ISZERO PUSH2 0x153 JUMPI PUSH0 DUP1 REVERT JUMPDEST POP PUSH2 0x15C PUSH2 0x677 JUMP JUMPDEST PUSH1 0x40 MLOAD PUSH2 0x169 SWAP2 SWAP1 PUSH2 0x1226 JUMP JUMPDEST PUSH1 0x40 MLOAD DUP1 SWAP2 SUB SWAP1 RETURN JUMPDEST PUSH2 0x18C PUSH1 0x4 DUP1 CALLDATASIZE SUB DUP2 ADD SWAP1 PUSH2 0x187 SWAP2 SWAP1 PUSH2 0xEC9 JUMP JUMPDEST PUSH2 0x8A5 JUMP JUMPDEST STOP JUMPDEST CALLVALUE DUP1 ISZERO PUSH2 0x199 JUMPI PUSH0 DUP1 REVERT JUMPDEST POP PUSH2 0x1A2 PUSH2 0xB5F JUMP JUMPDEST STOP JUMPDEST CALLVALUE DUP1 ISZERO PUSH2 0x1AF JUMPI PUSH0 DUP1 REVERT JUMPDEST POP PUSH2 0x1CA PUSH1 0x4 DUP1 CALLDATASIZE SUB DUP2 ADD SWAP1 PUSH2 0x1C5 SWAP2 SWAP1 PUSH2 0x12A7 JUMP JUMPDEST PUSH2 0xC51 JUMP JUMPDEST STOP JUMPDEST CALLVALUE DUP1 ISZERO PUSH2 0x1D7 JUMPI PUSH0 DUP1 REVERT JUMPDEST POP PUSH2 0x1F2 PUSH1 0x4 DUP1 CALLDATASIZE SUB DUP2 ADD SWAP1 PUSH2 0x1ED SWAP2 SWAP1 PUSH2 0xEC9 JUMP JUMPDEST PUSH2 0xE01 JUMP JUMPDEST PUSH1 0x40 MLOAD PUSH2 0x1FF SWAP2 SWAP1 PUSH2 0x133A JUMP JUMPDEST PUSH1 0x40 MLOAD DUP1 SWAP2 SUB SWAP1 RETURN JUMPDEST PUSH1 0x4 PUSH0 DUP3 DUP2 MSTORE PUSH1 0x20 ADD SWAP1 DUP2 MSTORE PUSH1 0x20 ADD PUSH0 KECCAK256 PUSH1 0x2 ADD PUSH0 SWAP1 SLOAD SWAP1 PUSH2 0x100 EXP SWAP1 DIV PUSH20 0xFFFFFFFFFFFFFFFFFFFFFFFFFFFFFFFFFFFFFFFF AND PUSH20 0xFFFFFFFFFFFFFFFFFFFFFFFFFFFFFFFFFFFFFFFF AND CALLER PUSH20 0xFFFFFFFFFFFFFFFFFFFFFFFFFFFFFFFFFFFFFFFF AND EQ PUSH2 0x2A9 JUMPI PUSH1 0x40 MLOAD PUSH32 0x8C379A000000000000000000000000000000000000000000000000000000000 DUP2 MSTORE PUSH1 0x4 ADD PUSH2 0x2A0 SWAP1 PUSH2 0x13AD JUMP JUMPDEST PUSH1 0x40 MLOAD DUP1 SWAP2 SUB SWAP1 REVERT JUMPDEST PUSH1 0x4 PUSH0 DUP3 DUP2 MSTORE PUSH1 0x20 ADD SWAP1 DUP2 MSTORE PUSH1 0x20 ADD PUSH0 KECCAK256 PUSH1 0x7 ADD SLOAD TIMESTAMP LT ISZERO PUSH2 0x300 JUMPI PUSH1 0x40 MLOAD PUSH32 0x8C379A000000000000000000000000000000000000000000000000000000000 DUP2 MSTORE PUSH1 0x4 ADD PUSH2 0x2F7 SWAP1 PUSH2 0x1415 JUMP JUMPDEST PUSH1 0x40 MLOAD DUP1 SWAP2 SUB SWAP1 REVERT JUMPDEST PUSH0 PUSH1 0x4 PUSH0 DUP4 DUP2 MSTORE PUSH1 0x20 ADD SWAP1 DUP2 MSTORE PUSH1 0x20 ADD PUSH0 KECCAK256 PUSH1 0x5 ADD SLOAD EQ DUP1 ISZERO PUSH2 0x34A JUMPI POP PUSH1 0x4 PUSH0 DUP3 DUP2 MSTORE PUSH1 0x20 ADD SWAP1 DUP2 MSTORE PUSH1 0x20 ADD PUSH0 KECCAK256 PUSH1 0x3 ADD SLOAD PUSH1 0x4 PUSH0 DUP4 DUP2 MSTORE PUSH1 0x20 ADD SWAP1 DUP2 MSTORE PUSH1 0x20 ADD PUSH0 KECCAK256 PUSH1 0x4 ADD SLOAD EQ JUMPDEST PUSH2 0x389 JUMPI PUSH1 0x40 MLOAD PUSH32 0x8C379A000000000000000000000000000000000000000000000000000000000 DUP2 MSTORE PUSH1 0x4 ADD PUSH2 0x380 SWAP1 PUSH2 0x147D JUMP JUMPDEST PUSH1 0x40 MLOAD DUP1 SWAP2 SUB SWAP1 REVERT JUMPDEST CALLER PUSH20 0xFFFFFFFFFFFFFFFFFFFFFFFFFFFFFFFFFFFFFFFF AND PUSH2 0x8FC PUSH1 0x4 PUSH0 DUP5 DUP2 MSTORE PUSH1 0x20 ADD SWAP1 DUP2 MSTORE PUSH1 0x20 ADD PUSH0 KECCAK256 PUSH1 0x3 ADD SLOAD SWAP1 DUP2 ISZERO MUL SWAP1 PUSH1 0x40 MLOAD PUSH0 PUSH1 0x40 MLOAD DUP1 DUP4 SUB DUP2 DUP6 DUP9 DUP9 CALL SWAP4 POP POP POP POP ISZERO DUP1 ISZERO PUSH2 0x3E0 JUMPI RETURNDATASIZE PUSH0 DUP1 RETURNDATACOPY RETURNDATASIZE PUSH0 REVERT JUMPDEST POP POP JUMP JUMPDEST PUSH1 0x60 PUSH1 0x5 PUSH0 DUP4 DUP2 MSTORE PUSH1 0x20 ADD SWAP1 DUP2 MSTORE PUSH1 0x20 ADD PUSH0 KECCAK256 DUP1 SLOAD DUP1 PUSH1 0x20 MUL PUSH1 0x20 ADD PUSH1 0x40 MLOAD SWAP1 DUP2 ADD PUSH1 0x40 MSTORE DUP1 SWAP3 SWAP2 SWAP1 DUP2 DUP2 MSTORE PUSH1 0x20 ADD DUP3 DUP1 SLOAD DUP1 ISZERO PUSH2 0x474 JUMPI PUSH1 0x20 MUL DUP3 ADD SWAP2 SWAP1 PUSH0 MSTORE PUSH1 0x20 PUSH0 KECCAK256 SWAP1 JUMPDEST DUP2 PUSH0 SWAP1 SLOAD SWAP1 PUSH2 0x100 EXP SWAP1 DIV PUSH20 0xFFFFFFFFFFFFFFFFFFFFFFFFFFFFFFFFFFFFFFFF AND PUSH20 0xFFFFFFFFFFFFFFFFFFFFFFFFFFFFFFFFFFFFFFFF AND DUP2 MSTORE PUSH1 0x20 ADD SWAP1 PUSH1 0x1 ADD SWAP1 DUP1 DUP4 GT PUSH2 0x42B JUMPI JUMPDEST POP POP POP POP POP SWAP1 POP SWAP2 SWAP1 POP JUMP JUMPDEST PUSH0 DUP1 SLOAD SWAP1 PUSH2 0x100 EXP SWAP1 DIV PUSH20 0xFFFFFFFFFFFFFFFFFFFFFFFFFFFFFFFFFFFFFFFF AND PUSH20 0xFFFFFFFFFFFFFFFFFFFFFFFFFFFFFFFFFFFFFFFF AND CALLER PUSH20 0xFFFFFFFFFFFFFFFFFFFFFFFFFFFFFFFFFFFFFFFF AND EQ PUSH2 0x50D JUMPI PUSH1 0x40 MLOAD PUSH32 0x8C379A000000000000000000000000000000000000000000000000000000000 DUP2 MSTORE PUSH1 0x4 ADD PUSH2 0x504 SWAP1 PUSH2 0x14E5 JUMP JUMPDEST PUSH1 0x40 MLOAD DUP1 SWAP2 SUB SWAP1 REVERT JUMPDEST PUSH1 0x3 PUSH0 SWAP1 SLOAD SWAP1 PUSH2 0x100 EXP SWAP1 DIV PUSH1 0xFF AND ISZERO PUSH1 0x4 PUSH0 DUP4 DUP2 MSTORE PUSH1 0x20 ADD SWAP1 DUP2 MSTORE PUSH1 0x20 ADD PUSH0 KECCAK256 PUSH1 0x8 ADD PUSH0 PUSH2 0x100 EXP DUP2 SLOAD DUP2 PUSH1 0xFF MUL NOT AND SWAP1 DUP4 ISZERO ISZERO MUL OR SWAP1 SSTORE POP POP JUMP JUMPDEST PUSH0 DUP1 SLOAD SWAP1 PUSH2 0x100 EXP SWAP1 DIV PUSH20 0xFFFFFFFFFFFFFFFFFFFFFFFFFFFFFFFFFFFFFFFF AND PUSH20 0xFFFFFFFFFFFFFFFFFFFFFFFFFFFFFFFFFFFFFFFF AND CALLER PUSH20 0xFFFFFFFFFFFFFFFFFFFFFFFFFFFFFFFFFFFFFFFF AND EQ PUSH2 0x5D7 JUMPI PUSH1 0x40 MLOAD PUSH32 0x8C379A000000000000000000000000000000000000000000000000000000000 DUP2 MSTORE PUSH1 0x4 ADD PUSH2 0x5CE SWAP1 PUSH2 0x14E5 JUMP JUMPDEST PUSH1 0x40 MLOAD DUP1 SWAP2 SUB SWAP1 REVERT JUMPDEST PUSH1 0x1 ISZERO ISZERO PUSH1 0x4 PUSH0 DUP4 DUP2 MSTORE PUSH1 0x20 ADD SWAP1 DUP2 MSTORE PUSH1 0x20 ADD PUSH0 KECCAK256 PUSH1 0x8 ADD PUSH0 SWAP1 SLOAD SWAP1 PUSH2 0x100 EXP SWAP1 DIV PUSH1 0xFF AND ISZERO ISZERO EQ PUSH2 0x607 JUMPI PUSH0 DUP1 REVERT JUMPDEST PUSH1 0x4 PUSH0 DUP3 DUP2 MSTORE PUSH1 0x20 ADD SWAP1 DUP2 MSTORE PUSH1 0x20 ADD PUSH0 KECCAK256 PUSH1 0x6 ADD SLOAD TIMESTAMP LT ISZERO DUP1 ISZERO PUSH2 0x63F JUMPI POP PUSH1 0x4 PUSH0 DUP3 DUP2 MSTORE PUSH1 0x20 ADD SWAP1 DUP2 MSTORE PUSH1 0x20 ADD PUSH0 KECCAK256 PUSH1 0x7 ADD SLOAD TIMESTAMP GT ISZERO JUMPDEST PUSH2 0x647 JUMPI PUSH0 DUP1 REVERT JUMPDEST PUSH1 0x1 PUSH1 0x4 PUSH0 DUP4 DUP2 MSTORE PUSH1 0x20 ADD SWAP1 DUP2 MSTORE PUSH1 0x20 ADD PUSH0 KECCAK256 PUSH1 0x8 ADD PUSH1 0x1 PUSH2 0x100 EXP DUP2 SLOAD DUP2 PUSH1 0xFF MUL NOT AND SWAP1 DUP4 ISZERO ISZERO MUL OR SWAP1 SSTORE POP POP JUMP JUMPDEST PUSH1 0x60 PUSH0 PUSH1 0x1 DUP1 SLOAD PUSH2 0x688 SWAP2 SWAP1 PUSH2 0x1530 JUMP JUMPDEST PUSH8 0xFFFFFFFFFFFFFFFF DUP2 GT ISZERO PUSH2 0x6A1 JUMPI PUSH2 0x6A0 PUSH2 0x1563 JUMP JUMPDEST JUMPDEST PUSH1 0x40 MLOAD SWAP1 DUP1 DUP3 MSTORE DUP1 PUSH1 0x20 MUL PUSH1 0x20 ADD DUP3 ADD PUSH1 0x40 MSTORE DUP1 ISZERO PUSH2 0x6DA JUMPI DUP2 PUSH1 0x20 ADD JUMPDEST PUSH2 0x6C7 PUSH2 0xE2A JUMP JUMPDEST DUP2 MSTORE PUSH1 0x20 ADD SWAP1 PUSH1 0x1 SWAP1 SUB SWAP1 DUP2 PUSH2 0x6BF JUMPI SWAP1 POP JUMPDEST POP SWAP1 POP PUSH0 JUMPDEST PUSH1 0x1 DUP1 SLOAD PUSH2 0x6ED SWAP2 SWAP1 PUSH2 0x1530 JUMP JUMPDEST DUP2 LT ISZERO PUSH2 0x89D JUMPI PUSH1 0x4 PUSH0 PUSH1 0x1 DUP4 PUSH2 0x704 SWAP2 SWAP1 PUSH2 0x1590 JUMP JUMPDEST DUP2 MSTORE PUSH1 0x20 ADD SWAP1 DUP2 MSTORE PUSH1 0x20 ADD PUSH0 KECCAK256 PUSH1 0x40 MLOAD DUP1 PUSH2 0x140 ADD PUSH1 0x40 MSTORE SWAP1 DUP2 PUSH0 DUP3 ADD SLOAD DUP2 MSTORE PUSH1 0x20 ADD PUSH1 0x1 DUP3 ADD DUP1 SLOAD PUSH2 0x736 SWAP1 PUSH2 0x15F0 JUMP JUMPDEST DUP1 PUSH1 0x1F ADD PUSH1 0x20 DUP1 SWAP2 DIV MUL PUSH1 0x20 ADD PUSH1 0x40 MLOAD SWAP1 DUP2 ADD PUSH1 0x40 MSTORE DUP1 SWAP3 SWAP2 SWAP1 DUP2 DUP2 MSTORE PUSH1 0x20 ADD DUP3 DUP1 SLOAD PUSH2 0x762 SWAP1 PUSH2 0x15F0 JUMP JUMPDEST DUP1 ISZERO PUSH2 0x7AD JUMPI DUP1 PUSH1 0x1F LT PUSH2 0x784 JUMPI PUSH2 0x100 DUP1 DUP4 SLOAD DIV MUL DUP4 MSTORE SWAP2 PUSH1 0x20 ADD SWAP2 PUSH2 0x7AD JUMP JUMPDEST DUP3 ADD SWAP2 SWAP1 PUSH0 MSTORE PUSH1 0x20 PUSH0 KECCAK256 SWAP1 JUMPDEST DUP2 SLOAD DUP2 MSTORE SWAP1 PUSH1 0x1 ADD SWAP1 PUSH1 0x20 ADD DUP1 DUP4 GT PUSH2 0x790 JUMPI DUP3 SWAP1 SUB PUSH1 0x1F AND DUP3 ADD SWAP2 JUMPDEST POP POP POP POP POP DUP2 MSTORE PUSH1 0x20 ADD PUSH1 0x2 DUP3 ADD PUSH0 SWAP1 SLOAD SWAP1 PUSH2 0x100 EXP SWAP1 DIV PUSH20 0xFFFFFFFFFFFFFFFFFFFFFFFFFFFFFFFFFFFFFFFF AND PUSH20 0xFFFFFFFFFFFFFFFFFFFFFFFFFFFFFFFFFFFFFFFF AND PUSH20 0xFFFFFFFFFFFFFFFFFFFFFFFFFFFFFFFFFFFFFFFF AND DUP2 MSTORE PUSH1 0x20 ADD PUSH1 0x3 DUP3 ADD SLOAD DUP2 MSTORE PUSH1 0x20 ADD PUSH1 0x4 DUP3 ADD SLOAD DUP2 MSTORE PUSH1 0x20 ADD PUSH1 0x5 DUP3 ADD SLOAD DUP2 MSTORE PUSH1 0x20 ADD PUSH1 0x6 DUP3 ADD SLOAD DUP2 MSTORE PUSH1 0x20 ADD PUSH1 0x7 DUP3 ADD SLOAD DUP2 MSTORE PUSH1 0x20 ADD PUSH1 0x8 DUP3 ADD PUSH0 SWAP1 SLOAD SWAP1 PUSH2 0x100 EXP SWAP1 DIV PUSH1 0xFF AND ISZERO ISZERO ISZERO ISZERO DUP2 MSTORE PUSH1 0x20 ADD PUSH1 0x8 DUP3 ADD PUSH1 0x1 SWAP1 SLOAD SWAP1 PUSH2 0x100 EXP SWAP1 DIV PUSH1 0xFF AND ISZERO ISZERO ISZERO ISZERO DUP2 MSTORE POP POP DUP3 DUP3 DUP2 MLOAD DUP2 LT PUSH2 0x885 JUMPI PUSH2 0x884 PUSH2 0x1620 JUMP JUMPDEST JUMPDEST PUSH1 0x20 MUL PUSH1 0x20 ADD ADD DUP2 SWAP1 MSTORE POP DUP1 DUP1 PUSH1 0x1 ADD SWAP2 POP POP PUSH2 0x6DF JUMP JUMPDEST POP DUP1 SWAP2 POP POP SWAP1 JUMP JUMPDEST PUSH0 CALLVALUE GT PUSH2 0x8E7 JUMPI PUSH1 0x40 MLOAD PUSH32 0x8C379A000000000000000000000000000000000000000000000000000000000 DUP2 MSTORE PUSH1 0x4 ADD PUSH2 0x8DE SWAP1 PUSH2 0x1697 JUMP JUMPDEST PUSH1 0x40 MLOAD DUP1 SWAP2 SUB SWAP1 REVERT JUMPDEST PUSH1 0x1 SLOAD DUP2 GT ISZERO DUP1 ISZERO PUSH2 0x8F8 JUMPI POP PUSH0 DUP2 GT JUMPDEST PUSH2 0x937 JUMPI PUSH1 0x40 MLOAD PUSH32 0x8C379A000000000000000000000000000000000000000000000000000000000 DUP2 MSTORE PUSH1 0x4 ADD PUSH2 0x92E SWAP1 PUSH2 0x16FF JUMP JUMPDEST PUSH1 0x40 MLOAD DUP1 SWAP2 SUB SWAP1 REVERT JUMPDEST PUSH1 0x1 ISZERO ISZERO PUSH1 0x4 PUSH0 DUP4 DUP2 MSTORE PUSH1 0x20 ADD SWAP1 DUP2 MSTORE PUSH1 0x20 ADD PUSH0 KECCAK256 PUSH1 0x8 ADD PUSH0 SWAP1 SLOAD SWAP1 PUSH2 0x100 EXP SWAP1 DIV PUSH1 0xFF AND ISZERO ISZERO EQ PUSH2 0x99E JUMPI PUSH1 0x40 MLOAD PUSH32 0x8C379A000000000000000000000000000000000000000000000000000000000 DUP2 MSTORE PUSH1 0x4 ADD PUSH2 0x995 SWAP1 PUSH2 0x178D JUMP JUMPDEST PUSH1 0x40 MLOAD DUP1 SWAP2 SUB SWAP1 REVERT JUMPDEST PUSH1 0x1 ISZERO ISZERO PUSH1 0x4 PUSH0 DUP4 DUP2 MSTORE PUSH1 0x20 ADD SWAP1 DUP2 MSTORE PUSH1 0x20 ADD PUSH0 KECCAK256 PUSH1 0x8 ADD PUSH1 0x1 SWAP1 SLOAD SWAP1 PUSH2 0x100 EXP SWAP1 DIV PUSH1 0xFF AND ISZERO ISZERO EQ PUSH2 0xA06 JUMPI PUSH1 0x40 MLOAD PUSH32 0x8C379A000000000000000000000000000000000000000000000000000000000 DUP2 MSTORE PUSH1 0x4 ADD PUSH2 0x9FD SWAP1 PUSH2 0x17F5 JUMP JUMPDEST PUSH1 0x40 MLOAD DUP1 SWAP2 SUB SWAP1 REVERT JUMPDEST PUSH1 0x4 PUSH0 DUP3 DUP2 MSTORE PUSH1 0x20 ADD SWAP1 DUP2 MSTORE PUSH1 0x20 ADD PUSH0 KECCAK256 PUSH1 0x6 ADD SLOAD TIMESTAMP LT ISZERO DUP1 ISZERO PUSH2 0xA3E JUMPI POP PUSH1 0x4 PUSH0 DUP3 DUP2 MSTORE PUSH1 0x20 ADD SWAP1 DUP2 MSTORE PUSH1 0x20 ADD PUSH0 KECCAK256 PUSH1 0x7 ADD SLOAD TIMESTAMP GT ISZERO JUMPDEST PUSH2 0xA7D JUMPI PUSH1 0x40 MLOAD PUSH32 0x8C379A000000000000000000000000000000000000000000000000000000000 DUP2 MSTORE PUSH1 0x4 ADD PUSH2 0xA74 SWAP1 PUSH2 0x185D JUMP JUMPDEST PUSH1 0x40 MLOAD DUP1 SWAP2 SUB SWAP1 REVERT JUMPDEST CALLVALUE PUSH1 0x4 PUSH0 DUP4 DUP2 MSTORE PUSH1 0x20 ADD SWAP1 DUP2 MSTORE PUSH1 0x20 ADD PUSH0 KECCAK256 PUSH1 0x4 ADD SLOAD PUSH2 0xA9D SWAP2 SWAP1 PUSH2 0x1590 JUMP JUMPDEST PUSH1 0x4 PUSH0 DUP4 DUP2 MSTORE PUSH1 0x20 ADD SWAP1 DUP2 MSTORE PUSH1 0x20 ADD PUSH0 KECCAK256 PUSH1 0x4 ADD DUP2 SWAP1 SSTORE POP CALLVALUE PUSH1 0x4 PUSH0 DUP4 DUP2 MSTORE PUSH1 0x20 ADD SWAP1 DUP2 MSTORE PUSH1 0x20 ADD PUSH0 KECCAK256 PUSH1 0x5 ADD SLOAD PUSH2 0xAD5 SWAP2 SWAP1 PUSH2 0x1530 JUMP JUMPDEST PUSH1 0x4 PUSH0 DUP4 DUP2 MSTORE PUSH1 0x20 ADD SWAP1 DUP2 MSTORE PUSH1 0x20 ADD PUSH0 KECCAK256 PUSH1 0x5 ADD DUP2 SWAP1 SSTORE POP PUSH1 0x5 PUSH0 DUP3 DUP2 MSTORE PUSH1 0x20 ADD SWAP1 DUP2 MSTORE PUSH1 0x20 ADD PUSH0 KECCAK256 CALLER SWAP1 DUP1 PUSH1 0x1 DUP2 SLOAD ADD DUP1 DUP3 SSTORE DUP1 SWAP2 POP POP PUSH1 0x1 SWAP1 SUB SWAP1 PUSH0 MSTORE PUSH1 0x20 PUSH0 KECCAK256 ADD PUSH0 SWAP1 SWAP2 SWAP1 SWAP2 SWAP1 SWAP2 PUSH2 0x100 EXP DUP2 SLOAD DUP2 PUSH20 0xFFFFFFFFFFFFFFFFFFFFFFFFFFFFFFFFFFFFFFFF MUL NOT AND SWAP1 DUP4 PUSH20 0xFFFFFFFFFFFFFFFFFFFFFFFFFFFFFFFFFFFFFFFF AND MUL OR SWAP1 SSTORE POP POP JUMP JUMPDEST PUSH0 DUP1 SLOAD SWAP1 PUSH2 0x100 EXP SWAP1 DIV PUSH20 0xFFFFFFFFFFFFFFFFFFFFFFFFFFFFFFFFFFFFFFFF AND PUSH20 0xFFFFFFFFFFFFFFFFFFFFFFFFFFFFFFFFFFFFFFFF AND CALLER PUSH20 0xFFFFFFFFFFFFFFFFFFFFFFFFFFFFFFFFFFFFFFFF AND EQ PUSH2 0xBEC JUMPI PUSH1 0x40 MLOAD PUSH32 0x8C379A000000000000000000000000000000000000000000000000000000000 DUP2 MSTORE PUSH1 0x4 ADD PUSH2 0xBE3 SWAP1 PUSH2 0x14E5 JUMP JUMPDEST PUSH1 0x40 MLOAD DUP1 SWAP2 SUB SWAP1 REVERT JUMPDEST PUSH0 DUP1 SLOAD SWAP1 PUSH2 0x100 EXP SWAP1 DIV PUSH20 0xFFFFFFFFFFFFFFFFFFFFFFFFFFFFFFFFFFFFFFFF AND PUSH20 0xFFFFFFFFFFFFFFFFFFFFFFFFFFFFFFFFFFFFFFFF AND PUSH2 0x8FC SELFBALANCE SWAP1 DUP2 ISZERO MUL SWAP1 PUSH1 0x40 MLOAD PUSH0 PUSH1 0x40 MLOAD DUP1 DUP4 SUB DUP2 DUP6 DUP9 DUP9 CALL SWAP4 POP POP POP POP ISZERO DUP1 ISZERO PUSH2 0xC4E JUMPI RETURNDATASIZE PUSH0 DUP1 RETURNDATACOPY RETURNDATASIZE PUSH0 REVERT JUMPDEST POP JUMP JUMPDEST PUSH1 0x40 MLOAD DUP1 PUSH2 0x140 ADD PUSH1 0x40 MSTORE DUP1 PUSH1 0x1 SLOAD DUP2 MSTORE PUSH1 0x20 ADD DUP7 DUP7 DUP1 DUP1 PUSH1 0x1F ADD PUSH1 0x20 DUP1 SWAP2 DIV MUL PUSH1 0x20 ADD PUSH1 0x40 MLOAD SWAP1 DUP2 ADD PUSH1 0x40 MSTORE DUP1 SWAP4 SWAP3 SWAP2 SWAP1 DUP2 DUP2 MSTORE PUSH1 0x20 ADD DUP4 DUP4 DUP1 DUP3 DUP5 CALLDATACOPY PUSH0 DUP2 DUP5 ADD MSTORE PUSH1 0x1F NOT PUSH1 0x1F DUP3 ADD AND SWAP1 POP DUP1 DUP4 ADD SWAP3 POP POP POP POP POP POP POP DUP2 MSTORE PUSH1 0x20 ADD CALLER PUSH20 0xFFFFFFFFFFFFFFFFFFFFFFFFFFFFFFFFFFFFFFFF AND DUP2 MSTORE PUSH1 0x20 ADD DUP5 DUP2 MSTORE PUSH1 0x20 ADD PUSH0 DUP2 MSTORE PUSH1 0x20 ADD DUP5 DUP2 MSTORE PUSH1 0x20 ADD DUP4 DUP2 MSTORE PUSH1 0x20 ADD DUP3 DUP2 MSTORE PUSH1 0x20 ADD PUSH0 ISZERO ISZERO DUP2 MSTORE PUSH1 0x20 ADD PUSH0 ISZERO ISZERO DUP2 MSTORE POP PUSH1 0x4 PUSH0 PUSH1 0x1 SLOAD DUP2 MSTORE PUSH1 0x20 ADD SWAP1 DUP2 MSTORE PUSH1 0x20 ADD PUSH0 KECCAK256 PUSH0 DUP3 ADD MLOAD DUP2 PUSH0 ADD SSTORE PUSH1 0x20 DUP3 ADD MLOAD DUP2 PUSH1 0x1 ADD SWAP1 DUP2 PUSH2 0xD26 SWAP2 SWAP1 PUSH2 0x1A18 JUMP JUMPDEST POP PUSH1 0x40 DUP3 ADD MLOAD DUP2 PUSH1 0x2 ADD PUSH0 PUSH2 0x100 EXP DUP2 SLOAD DUP2 PUSH20 0xFFFFFFFFFFFFFFFFFFFFFFFFFFFFFFFFFFFFFFFF MUL NOT AND SWAP1 DUP4 PUSH20 0xFFFFFFFFFFFFFFFFFFFFFFFFFFFFFFFFFFFFFFFF AND MUL OR SWAP1 SSTORE POP PUSH1 0x60 DUP3 ADD MLOAD DUP2 PUSH1 0x3 ADD SSTORE PUSH1 0x80 DUP3 ADD MLOAD DUP2 PUSH1 0x4 ADD SSTORE PUSH1 0xA0 DUP3 ADD MLOAD DUP2 PUSH1 0x5 ADD SSTORE PUSH1 0xC0 DUP3 ADD MLOAD DUP2 PUSH1 0x6 ADD SSTORE PUSH1 0xE0 DUP3 ADD MLOAD DUP2 PUSH1 0x7 ADD SSTORE PUSH2 0x100 DUP3 ADD MLOAD DUP2 PUSH1 0x8 ADD PUSH0 PUSH2 0x100 EXP DUP2 SLOAD DUP2 PUSH1 0xFF MUL NOT AND SWAP1 DUP4 ISZERO ISZERO MUL OR SWAP1 SSTORE POP PUSH2 0x120 DUP3 ADD MLOAD DUP2 PUSH1 0x8 ADD PUSH1 0x1 PUSH2 0x100 EXP DUP2 SLOAD DUP2 PUSH1 0xFF MUL NOT AND SWAP1 DUP4 ISZERO ISZERO MUL OR SWAP1 SSTORE POP SWAP1 POP POP PUSH1 0x1 PUSH0 DUP2 SLOAD DUP1 SWAP3 SWAP2 SWAP1 PUSH2 0xDF5 SWAP1 PUSH2 0x1AE7 JUMP JUMPDEST SWAP2 SWAP1 POP SSTORE POP POP POP POP POP POP JUMP JUMPDEST PUSH0 PUSH1 0x4 PUSH0 DUP4 DUP2 MSTORE PUSH1 0x20 ADD SWAP1 DUP2 MSTORE PUSH1 0x20 ADD PUSH0 KECCAK256 PUSH1 0x8 ADD PUSH0 SWAP1 SLOAD SWAP1 PUSH2 0x100 EXP SWAP1 DIV PUSH1 0xFF AND SWAP1 POP SWAP2 SWAP1 POP JUMP JUMPDEST PUSH1 0x40 MLOAD DUP1 PUSH2 0x140 ADD PUSH1 0x40 MSTORE DUP1 PUSH0 DUP2 MSTORE PUSH1 0x20 ADD PUSH1 0x60 DUP2 MSTORE PUSH1 0x20 ADD PUSH0 PUSH20 0xFFFFFFFFFFFFFFFFFFFFFFFFFFFFFFFFFFFFFFFF AND DUP2 MSTORE PUSH1 0x20 ADD PUSH0 DUP2 MSTORE PUSH1 0x20 ADD PUSH0 DUP2 MSTORE PUSH1 0x20 ADD PUSH0 DUP2 MSTORE PUSH1 0x20 ADD PUSH0 DUP2 MSTORE PUSH1 0x20 ADD PUSH0 DUP2 MSTORE PUSH1 0x20 ADD PUSH0 ISZERO ISZERO DUP2 MSTORE PUSH1 0x20 ADD PUSH0 ISZERO ISZERO DUP2 MSTORE POP SWAP1 JUMP JUMPDEST PUSH0 DUP1 REVERT JUMPDEST PUSH0 DUP1 REVERT JUMPDEST PUSH0 DUP2 SWAP1 POP SWAP2 SWAP1 POP JUMP JUMPDEST PUSH2 0xEA8 DUP2 PUSH2 0xE96 JUMP JUMPDEST DUP2 EQ PUSH2 0xEB2 JUMPI PUSH0 DUP1 REVERT JUMPDEST POP JUMP JUMPDEST PUSH0 DUP2 CALLDATALOAD SWAP1 POP PUSH2 0xEC3 DUP2 PUSH2 0xE9F JUMP JUMPDEST SWAP3 SWAP2 POP POP JUMP JUMPDEST PUSH0 PUSH1 0x20 DUP3 DUP5 SUB SLT ISZERO PUSH2 0xEDE JUMPI PUSH2 0xEDD PUSH2 0xE8E JUMP JUMPDEST JUMPDEST PUSH0 PUSH2 0xEEB DUP5 DUP3 DUP6 ADD PUSH2 0xEB5 JUMP JUMPDEST SWAP2 POP POP SWAP3 SWAP2 POP POP JUMP JUMPDEST PUSH0 DUP2 MLOAD SWAP1 POP SWAP2 SWAP1 POP JUMP JUMPDEST PUSH0 DUP3 DUP3 MSTORE PUSH1 0x20 DUP3 ADD SWAP1 POP SWAP3 SWAP2 POP POP JUMP JUMPDEST PUSH0 DUP2 SWAP1 POP PUSH1 0x20 DUP3 ADD SWAP1 POP SWAP2 SWAP1 POP JUMP JUMPDEST PUSH0 PUSH20 0xFFFFFFFFFFFFFFFFFFFFFFFFFFFFFFFFFFFFFFFF DUP3 AND SWAP1 POP SWAP2 SWAP1 POP JUMP JUMPDEST PUSH0 PUSH2 0xF46 DUP3 PUSH2 0xF1D JUMP JUMPDEST SWAP1 POP SWAP2 SWAP1 POP JUMP JUMPDEST PUSH2 0xF56 DUP2 PUSH2 0xF3C JUMP JUMPDEST DUP3 MSTORE POP POP JUMP JUMPDEST PUSH0 PUSH2 0xF67 DUP4 DUP4 PUSH2 0xF4D JUMP JUMPDEST PUSH1 0x20 DUP4 ADD SWAP1 POP SWAP3 SWAP2 POP POP JUMP JUMPDEST PUSH0 PUSH1 0x20 DUP3 ADD SWAP1 POP SWAP2 SWAP1 POP JUMP JUMPDEST PUSH0 PUSH2 0xF89 DUP3 PUSH2 0xEF4 JUMP JUMPDEST PUSH2 0xF93 DUP2 DUP6 PUSH2 0xEFE JUMP JUMPDEST SWAP4 POP PUSH2 0xF9E DUP4 PUSH2 0xF0E JUMP JUMPDEST DUP1 PUSH0 JUMPDEST DUP4 DUP2 LT ISZERO PUSH2 0xFCE JUMPI DUP2 MLOAD PUSH2 0xFB5 DUP9 DUP3 PUSH2 0xF5C JUMP JUMPDEST SWAP8 POP PUSH2 0xFC0 DUP4 PUSH2 0xF73 JUMP JUMPDEST SWAP3 POP POP PUSH1 0x1 DUP2 ADD SWAP1 POP PUSH2 0xFA1 JUMP JUMPDEST POP DUP6 SWAP4 POP POP POP POP SWAP3 SWAP2 POP POP JUMP JUMPDEST PUSH0 PUSH1 0x20 DUP3 ADD SWAP1 POP DUP2 DUP2 SUB PUSH0 DUP4 ADD MSTORE PUSH2 0xFF3 DUP2 DUP5 PUSH2 0xF7F JUMP JUMPDEST SWAP1 POP SWAP3 SWAP2 POP POP JUMP JUMPDEST PUSH0 DUP2 MLOAD SWAP1 POP SWAP2 SWAP1 POP JUMP JUMPDEST PUSH0 DUP3 DUP3 MSTORE PUSH1 0x20 DUP3 ADD SWAP1 POP SWAP3 SWAP2 POP POP JUMP JUMPDEST PUSH0 DUP2 SWAP1 POP PUSH1 0x20 DUP3 ADD SWAP1 POP SWAP2 SWAP1 POP JUMP JUMPDEST PUSH2 0x102D DUP2 PUSH2 0xE96 JUMP JUMPDEST DUP3 MSTORE POP POP JUMP JUMPDEST PUSH0 DUP2 MLOAD SWAP1 POP SWAP2 SWAP1 POP JUMP JUMPDEST PUSH0 DUP3 DUP3 MSTORE PUSH1 0x20 DUP3 ADD SWAP1 POP SWAP3 SWAP2 POP POP JUMP JUMPDEST DUP3 DUP2 DUP4 MCOPY PUSH0 DUP4 DUP4 ADD MSTORE POP POP POP JUMP JUMPDEST PUSH0 PUSH1 0x1F NOT PUSH1 0x1F DUP4 ADD AND SWAP1 POP SWAP2 SWAP1 POP JUMP JUMPDEST PUSH0 PUSH2 0x1075 DUP3 PUSH2 0x1033 JUMP JUMPDEST PUSH2 0x107F DUP2 DUP6 PUSH2 0x103D JUMP JUMPDEST SWAP4 POP PUSH2 0x108F DUP2 DUP6 PUSH1 0x20 DUP7 ADD PUSH2 0x104D JUMP JUMPDEST PUSH2 0x1098 DUP2 PUSH2 0x105B JUMP JUMPDEST DUP5 ADD SWAP2 POP POP SWAP3 SWAP2 POP POP JUMP JUMPDEST PUSH0 DUP2 ISZERO ISZERO SWAP1 POP SWAP2 SWAP1 POP JUMP JUMPDEST PUSH2 0x10B7 DUP2 PUSH2 0x10A3 JUMP JUMPDEST DUP3 MSTORE POP POP JUMP JUMPDEST PUSH0 PUSH2 0x140 DUP4 ADD PUSH0 DUP4 ADD MLOAD PUSH2 0x10D3 PUSH0 DUP7 ADD DUP3 PUSH2 0x1024 JUMP JUMPDEST POP PUSH1 0x20 DUP4 ADD MLOAD DUP5 DUP3 SUB PUSH1 0x20 DUP7 ADD MSTORE PUSH2 0x10EB DUP3 DUP3 PUSH2 0x106B JUMP JUMPDEST SWAP2 POP POP PUSH1 0x40 DUP4 ADD MLOAD PUSH2 0x1100 PUSH1 0x40 DUP7 ADD DUP3 PUSH2 0xF4D JUMP JUMPDEST POP PUSH1 0x60 DUP4 ADD MLOAD PUSH2 0x1113 PUSH1 0x60 DUP7 ADD DUP3 PUSH2 0x1024 JUMP JUMPDEST POP PUSH1 0x80 DUP4 ADD MLOAD PUSH2 0x1126 PUSH1 0x80 DUP7 ADD DUP3 PUSH2 0x1024 JUMP JUMPDEST POP PUSH1 0xA0 DUP4 ADD MLOAD PUSH2 0x1139 PUSH1 0xA0 DUP7 ADD DUP3 PUSH2 0x1024 JUMP JUMPDEST POP PUSH1 0xC0 DUP4 ADD MLOAD PUSH2 0x114C PUSH1 0xC0 DUP7 ADD DUP3 PUSH2 0x1024 JUMP JUMPDEST POP PUSH1 0xE0 DUP4 ADD MLOAD PUSH2 0x115F PUSH1 0xE0 DUP7 ADD DUP3 PUSH2 0x1024 JUMP JUMPDEST POP PUSH2 0x100 DUP4 ADD MLOAD PUSH2 0x1174 PUSH2 0x100 DUP7 ADD DUP3 PUSH2 0x10AE JUMP JUMPDEST POP PUSH2 0x120 DUP4 ADD MLOAD PUSH2 0x1189 PUSH2 0x120 DUP7 ADD DUP3 PUSH2 0x10AE JUMP JUMPDEST POP DUP1 SWAP2 POP POP SWAP3 SWAP2 POP POP JUMP JUMPDEST PUSH0 PUSH2 0x119F DUP4 DUP4 PUSH2 0x10BD JUMP JUMPDEST SWAP1 POP SWAP3 SWAP2 POP POP JUMP JUMPDEST PUSH0 PUSH1 0x20 DUP3 ADD SWAP1 POP SWAP2 SWAP1 POP JUMP JUMPDEST PUSH0 PUSH2 0x11BD DUP3 PUSH2 0xFFB JUMP JUMPDEST PUSH2 0x11C7 DUP2 DUP6 PUSH2 0x1005 JUMP JUMPDEST SWAP4 POP DUP4 PUSH1 0x20 DUP3 MUL DUP6 ADD PUSH2 0x11D9 DUP6 PUSH2 0x1015 JUMP JUMPDEST DUP1 PUSH0 JUMPDEST DUP6 DUP2 LT ISZERO PUSH2 0x1214 JUMPI DUP5 DUP5 SUB DUP10 MSTORE DUP2 MLOAD PUSH2 0x11F5 DUP6 DUP3 PUSH2 0x1194 JUMP JUMPDEST SWAP5 POP PUSH2 0x1200 DUP4 PUSH2 0x11A7 JUMP JUMPDEST SWAP3 POP PUSH1 0x20 DUP11 ADD SWAP10 POP POP PUSH1 0x1 DUP2 ADD SWAP1 POP PUSH2 0x11DC JUMP JUMPDEST POP DUP3 SWAP8 POP DUP8 SWAP6 POP POP POP POP POP POP SWAP3 SWAP2 POP POP JUMP JUMPDEST PUSH0 PUSH1 0x20 DUP3 ADD SWAP1 POP DUP2 DUP2 SUB PUSH0 DUP4 ADD MSTORE PUSH2 0x123E DUP2 DUP5 PUSH2 0x11B3 JUMP JUMPDEST SWAP1 POP SWAP3 SWAP2 POP POP JUMP JUMPDEST PUSH0 DUP1 REVERT JUMPDEST PUSH0 DUP1 REVERT JUMPDEST PUSH0 DUP1 REVERT JUMPDEST PUSH0 DUP1 DUP4 PUSH1 0x1F DUP5 ADD SLT PUSH2 0x1267 JUMPI PUSH2 0x1266 PUSH2 0x1246 JUMP JUMPDEST JUMPDEST DUP3 CALLDATALOAD SWAP1 POP PUSH8 0xFFFFFFFFFFFFFFFF DUP2 GT ISZERO PUSH2 0x1284 JUMPI PUSH2 0x1283 PUSH2 0x124A JUMP JUMPDEST JUMPDEST PUSH1 0x20 DUP4 ADD SWAP2 POP DUP4 PUSH1 0x1 DUP3 MUL DUP4 ADD GT ISZERO PUSH2 0x12A0 JUMPI PUSH2 0x129F PUSH2 0x124E JUMP JUMPDEST JUMPDEST SWAP3 POP SWAP3 SWAP1 POP JUMP JUMPDEST PUSH0 DUP1 PUSH0 DUP1 PUSH0 PUSH1 0x80 DUP7 DUP9 SUB SLT ISZERO PUSH2 0x12C0 JUMPI PUSH2 0x12BF PUSH2 0xE8E JUMP JUMPDEST JUMPDEST PUSH0 DUP7 ADD CALLDATALOAD PUSH8 0xFFFFFFFFFFFFFFFF DUP2 GT ISZERO PUSH2 0x12DD JUMPI PUSH2 0x12DC PUSH2 0xE92 JUMP JUMPDEST JUMPDEST PUSH2 0x12E9 DUP9 DUP3 DUP10 ADD PUSH2 0x1252 JUMP JUMPDEST SWAP6 POP SWAP6 POP POP PUSH1 0x20 PUSH2 0x12FC DUP9 DUP3 DUP10 ADD PUSH2 0xEB5 JUMP JUMPDEST SWAP4 POP POP PUSH1 0x40 PUSH2 0x130D DUP9 DUP3 DUP10 ADD PUSH2 0xEB5 JUMP JUMPDEST SWAP3 POP POP PUSH1 0x60 PUSH2 0x131E DUP9 DUP3 DUP10 ADD PUSH2 0xEB5 JUMP JUMPDEST SWAP2 POP POP SWAP3 SWAP6 POP SWAP3 SWAP6 SWAP1 SWAP4 POP JUMP JUMPDEST PUSH2 0x1334 DUP2 PUSH2 0x10A3 JUMP JUMPDEST DUP3 MSTORE POP POP JUMP JUMPDEST PUSH0 PUSH1 0x20 DUP3 ADD SWAP1 POP PUSH2 0x134D PUSH0 DUP4 ADD DUP5 PUSH2 0x132B JUMP JUMPDEST SWAP3 SWAP2 POP POP JUMP JUMPDEST PUSH0 DUP3 DUP3 MSTORE PUSH1 0x20 DUP3 ADD SWAP1 POP SWAP3 SWAP2 POP POP JUMP JUMPDEST PUSH32 0x596F75277265206E6F742066756E642072616973657200000000000000000000 PUSH0 DUP3 ADD MSTORE POP JUMP JUMPDEST PUSH0 PUSH2 0x1397 PUSH1 0x16 DUP4 PUSH2 0x1353 JUMP JUMPDEST SWAP2 POP PUSH2 0x13A2 DUP3 PUSH2 0x1363 JUMP JUMPDEST PUSH1 0x20 DUP3 ADD SWAP1 POP SWAP2 SWAP1 POP JUMP JUMPDEST PUSH0 PUSH1 0x20 DUP3 ADD SWAP1 POP DUP2 DUP2 SUB PUSH0 DUP4 ADD MSTORE PUSH2 0x13C4 DUP2 PUSH2 0x138B JUMP JUMPDEST SWAP1 POP SWAP2 SWAP1 POP JUMP JUMPDEST PUSH32 0x43616D706169676E206973206E6F7420656E6420796574000000000000000000 PUSH0 DUP3 ADD MSTORE POP JUMP JUMPDEST PUSH0 PUSH2 0x13FF PUSH1 0x17 DUP4 PUSH2 0x1353 JUMP JUMPDEST SWAP2 POP PUSH2 0x140A DUP3 PUSH2 0x13CB JUMP JUMPDEST PUSH1 0x20 DUP3 ADD SWAP1 POP SWAP2 SWAP1 POP JUMP JUMPDEST PUSH0 PUSH1 0x20 DUP3 ADD SWAP1 POP DUP2 DUP2 SUB PUSH0 DUP4 ADD MSTORE PUSH2 0x142C DUP2 PUSH2 0x13F3 JUMP JUMPDEST SWAP1 POP SWAP2 SWAP1 POP JUMP JUMPDEST PUSH32 0x546172676574206E6F7420636F6D706C65746564000000000000000000000000 PUSH0 DUP3 ADD MSTORE POP JUMP JUMPDEST PUSH0 PUSH2 0x1467 PUSH1 0x14 DUP4 PUSH2 0x1353 JUMP JUMPDEST SWAP2 POP PUSH2 0x1472 DUP3 PUSH2 0x1433 JUMP JUMPDEST PUSH1 0x20 DUP3 ADD SWAP1 POP SWAP2 SWAP1 POP JUMP JUMPDEST PUSH0 PUSH1 0x20 DUP3 ADD SWAP1 POP DUP2 DUP2 SUB PUSH0 DUP4 ADD MSTORE PUSH2 0x1494 DUP2 PUSH2 0x145B JUMP JUMPDEST SWAP1 POP SWAP2 SWAP1 POP JUMP JUMPDEST PUSH32 0x596F75277265206E6F74206D616E616765720000000000000000000000000000 PUSH0 DUP3 ADD MSTORE POP JUMP JUMPDEST PUSH0 PUSH2 0x14CF PUSH1 0x12 DUP4 PUSH2 0x1353 JUMP JUMPDEST SWAP2 POP PUSH2 0x14DA DUP3 PUSH2 0x149B JUMP JUMPDEST PUSH1 0x20 DUP3 ADD SWAP1 POP SWAP2 SWAP1 POP JUMP JUMPDEST PUSH0 PUSH1 0x20 DUP3 ADD SWAP1 POP DUP2 DUP2 SUB PUSH0 DUP4 ADD MSTORE PUSH2 0x14FC DUP2 PUSH2 0x14C3 JUMP JUMPDEST SWAP1 POP SWAP2 SWAP1 POP JUMP JUMPDEST PUSH32 0x4E487B7100000000000000000000000000000000000000000000000000000000 PUSH0 MSTORE PUSH1 0x11 PUSH1 0x4 MSTORE PUSH1 0x24 PUSH0 REVERT JUMPDEST PUSH0 PUSH2 0x153A DUP3 PUSH2 0xE96 JUMP JUMPDEST SWAP2 POP PUSH2 0x1545 DUP4 PUSH2 0xE96 JUMP JUMPDEST SWAP3 POP DUP3 DUP3 SUB SWAP1 POP DUP2 DUP2 GT ISZERO PUSH2 0x155D JUMPI PUSH2 0x155C PUSH2 0x1503 JUMP JUMPDEST JUMPDEST SWAP3 SWAP2 POP POP JUMP JUMPDEST PUSH32 0x4E487B7100000000000000000000000000000000000000000000000000000000 PUSH0 MSTORE PUSH1 0x41 PUSH1 0x4 MSTORE PUSH1 0x24 PUSH0 REVERT JUMPDEST PUSH0 PUSH2 0x159A DUP3 PUSH2 0xE96 JUMP JUMPDEST SWAP2 POP PUSH2 0x15A5 DUP4 PUSH2 0xE96 JUMP JUMPDEST SWAP3 POP DUP3 DUP3 ADD SWAP1 POP DUP1 DUP3 GT ISZERO PUSH2 0x15BD JUMPI PUSH2 0x15BC PUSH2 0x1503 JUMP JUMPDEST JUMPDEST SWAP3 SWAP2 POP POP JUMP JUMPDEST PUSH32 0x4E487B7100000000000000000000000000000000000000000000000000000000 PUSH0 MSTORE PUSH1 0x22 PUSH1 0x4 MSTORE PUSH1 0x24 PUSH0 REVERT JUMPDEST PUSH0 PUSH1 0x2 DUP3 DIV SWAP1 POP PUSH1 0x1 DUP3 AND DUP1 PUSH2 0x1607 JUMPI PUSH1 0x7F DUP3 AND SWAP2 POP JUMPDEST PUSH1 0x20 DUP3 LT DUP2 SUB PUSH2 0x161A JUMPI PUSH2 0x1619 PUSH2 0x15C3 JUMP JUMPDEST JUMPDEST POP SWAP2 SWAP1 POP JUMP JUMPDEST PUSH32 0x4E487B7100000000000000000000000000000000000000000000000000000000 PUSH0 MSTORE PUSH1 0x32 PUSH1 0x4 MSTORE PUSH1 0x24 PUSH0 REVERT JUMPDEST PUSH32 0x696E76616C696420616D6F756E7420746F2066756E6400000000000000000000 PUSH0 DUP3 ADD MSTORE POP JUMP JUMPDEST PUSH0 PUSH2 0x1681 PUSH1 0x16 DUP4 PUSH2 0x1353 JUMP JUMPDEST SWAP2 POP PUSH2 0x168C DUP3 PUSH2 0x164D JUMP JUMPDEST PUSH1 0x20 DUP3 ADD SWAP1 POP SWAP2 SWAP1 POP JUMP JUMPDEST PUSH0 PUSH1 0x20 DUP3 ADD SWAP1 POP DUP2 DUP2 SUB PUSH0 DUP4 ADD MSTORE PUSH2 0x16AE DUP2 PUSH2 0x1675 JUMP JUMPDEST SWAP1 POP SWAP2 SWAP1 POP JUMP JUMPDEST PUSH32 0x496E76616C69642063616D706169676E20696400000000000000000000000000 PUSH0 DUP3 ADD MSTORE POP JUMP JUMPDEST PUSH0 PUSH2 0x16E9 PUSH1 0x13 DUP4 PUSH2 0x1353 JUMP JUMPDEST SWAP2 POP PUSH2 0x16F4 DUP3 PUSH2 0x16B5 JUMP JUMPDEST PUSH1 0x20 DUP3 ADD SWAP1 POP SWAP2 SWAP1 POP JUMP JUMPDEST PUSH0 PUSH1 0x20 DUP3 ADD SWAP1 POP DUP2 DUP2 SUB PUSH0 DUP4 ADD MSTORE PUSH2 0x1716 DUP2 PUSH2 0x16DD JUMP JUMPDEST SWAP1 POP SWAP2 SWAP1 POP JUMP JUMPDEST PUSH32 0x546869732063616D706169676E206973206E6F7420617070726F766564207965 PUSH0 DUP3 ADD MSTORE PUSH32 0x7400000000000000000000000000000000000000000000000000000000000000 PUSH1 0x20 DUP3 ADD MSTORE POP JUMP JUMPDEST PUSH0 PUSH2 0x1777 PUSH1 0x21 DUP4 PUSH2 0x1353 JUMP JUMPDEST SWAP2 POP PUSH2 0x1782 DUP3 PUSH2 0x171D JUMP JUMPDEST PUSH1 0x40 DUP3 ADD SWAP1 POP SWAP2 SWAP1 POP JUMP JUMPDEST PUSH0 PUSH1 0x20 DUP3 ADD SWAP1 POP DUP2 DUP2 SUB PUSH0 DUP4 ADD MSTORE PUSH2 0x17A4 DUP2 PUSH2 0x176B JUMP JUMPDEST SWAP1 POP SWAP2 SWAP1 POP JUMP JUMPDEST PUSH32 0x546869732063616D706169676E206973206E6F74206C69766520796574000000 PUSH0 DUP3 ADD MSTORE POP JUMP JUMPDEST PUSH0 PUSH2 0x17DF PUSH1 0x1D DUP4 PUSH2 0x1353 JUMP JUMPDEST SWAP2 POP PUSH2 0x17EA DUP3 PUSH2 0x17AB JUMP JUMPDEST PUSH1 0x20 DUP3 ADD SWAP1 POP SWAP2 SWAP1 POP JUMP JUMPDEST PUSH0 PUSH1 0x20 DUP3 ADD SWAP1 POP DUP2 DUP2 SUB PUSH0 DUP4 ADD MSTORE PUSH2 0x180C DUP2 PUSH2 0x17D3 JUMP JUMPDEST SWAP1 POP SWAP2 SWAP1 POP JUMP JUMPDEST PUSH32 0x43616E6E6F742066756E6420617420746869732074696D650000000000000000 PUSH0 DUP3 ADD MSTORE POP JUMP JUMPDEST PUSH0 PUSH2 0x1847 PUSH1 0x18 DUP4 PUSH2 0x1353 JUMP JUMPDEST SWAP2 POP PUSH2 0x1852 DUP3 PUSH2 0x1813 JUMP JUMPDEST PUSH1 0x20 DUP3 ADD SWAP1 POP SWAP2 SWAP1 POP JUMP JUMPDEST PUSH0 PUSH1 0x20 DUP3 ADD SWAP1 POP DUP2 DUP2 SUB PUSH0 DUP4 ADD MSTORE PUSH2 0x1874 DUP2 PUSH2 0x183B JUMP JUMPDEST SWAP1 POP SWAP2 SWAP1 POP JUMP JUMPDEST PUSH0 DUP2 SWAP1 POP DUP2 PUSH0 MSTORE PUSH1 0x20 PUSH0 KECCAK256 SWAP1 POP SWAP2 SWAP1 POP JUMP JUMPDEST PUSH0 PUSH1 0x20 PUSH1 0x1F DUP4 ADD DIV SWAP1 POP SWAP2 SWAP1 POP JUMP JUMPDEST PUSH0 DUP3 DUP3 SHL SWAP1 POP SWAP3 SWAP2 POP POP JUMP JUMPDEST PUSH0 PUSH1 0x8 DUP4 MUL PUSH2 0x18D7 PUSH32 0xFFFFFFFFFFFFFFFFFFFFFFFFFFFFFFFFFFFFFFFFFFFFFFFFFFFFFFFFFFFFFFFF DUP3 PUSH2 0x189C JUMP JUMPDEST PUSH2 0x18E1 DUP7 DUP4 PUSH2 0x189C JUMP JUMPDEST SWAP6 POP DUP1 NOT DUP5 AND SWAP4 POP DUP1 DUP7 AND DUP5 OR SWAP3 POP POP POP SWAP4 SWAP3 POP POP POP JUMP JUMPDEST PUSH0 DUP2 SWAP1 POP SWAP2 SWAP1 POP JUMP JUMPDEST PUSH0 PUSH2 0x191C PUSH2 0x1917 PUSH2 0x1912 DUP5 PUSH2 0xE96 JUMP JUMPDEST PUSH2 0x18F9 JUMP JUMPDEST PUSH2 0xE96 JUMP JUMPDEST SWAP1 POP SWAP2 SWAP1 POP JUMP JUMPDEST PUSH0 DUP2 SWAP1 POP SWAP2 SWAP1 POP JUMP JUMPDEST PUSH2 0x1935 DUP4 PUSH2 0x1902 JUMP JUMPDEST PUSH2 0x1949 PUSH2 0x1941 DUP3 PUSH2 0x1923 JUMP JUMPDEST DUP5 DUP5 SLOAD PUSH2 0x18A8 JUMP JUMPDEST DUP3 SSTORE POP POP POP POP JUMP JUMPDEST PUSH0 SWAP1 JUMP JUMPDEST PUSH2 0x195D PUSH2 0x1951 JUMP JUMPDEST PUSH2 0x1968 DUP2 DUP5 DUP5 PUSH2 0x192C JUMP JUMPDEST POP POP POP JUMP JUMPDEST JUMPDEST DUP2 DUP2 LT ISZERO PUSH2 0x198B JUMPI PUSH2 0x1980 PUSH0 DUP3 PUSH2 0x1955 JUMP JUMPDEST PUSH1 0x1 DUP2 ADD SWAP1 POP PUSH2 0x196E JUMP JUMPDEST POP POP JUMP JUMPDEST PUSH1 0x1F DUP3 GT ISZERO PUSH2 0x19D0 JUMPI PUSH2 0x19A1 DUP2 PUSH2 0x187B JUMP JUMPDEST PUSH2 0x19AA DUP5 PUSH2 0x188D JUMP JUMPDEST DUP2 ADD PUSH1 0x20 DUP6 LT ISZERO PUSH2 0x19B9 JUMPI DUP2 SWAP1 POP JUMPDEST PUSH2 0x19CD PUSH2 0x19C5 DUP6 PUSH2 0x188D JUMP JUMPDEST DUP4 ADD DUP3 PUSH2 0x196D JUMP JUMPDEST POP POP JUMPDEST POP POP POP JUMP JUMPDEST PUSH0 DUP3 DUP3 SHR SWAP1 POP SWAP3 SWAP2 POP POP JUMP JUMPDEST PUSH0 PUSH2 0x19F0 PUSH0 NOT DUP5 PUSH1 0x8 MUL PUSH2 0x19D5 JUMP JUMPDEST NOT DUP1 DUP4 AND SWAP2 POP POP SWAP3 SWAP2 POP POP JUMP JUMPDEST PUSH0 PUSH2 0x1A08 DUP4 DUP4 PUSH2 0x19E1 JUMP JUMPDEST SWAP2 POP DUP3 PUSH1 0x2 MUL DUP3 OR SWAP1 POP SWAP3 SWAP2 POP POP JUMP JUMPDEST PUSH2 0x1A21 DUP3 PUSH2 0x1033 JUMP JUMPDEST PUSH8 0xFFFFFFFFFFFFFFFF DUP2 GT ISZERO PUSH2 0x1A3A JUMPI PUSH2 0x1A39 PUSH2 0x1563 JUMP JUMPDEST JUMPDEST PUSH2 0x1A44 DUP3 SLOAD PUSH2 0x15F0 JUMP JUMPDEST PUSH2 0x1A4F DUP3 DUP3 DUP6 PUSH2 0x198F JUMP JUMPDEST PUSH0 PUSH1 0x20 SWAP1 POP PUSH1 0x1F DUP4 GT PUSH1 0x1 DUP2 EQ PUSH2 0x1A80 JUMPI PUSH0 DUP5 ISZERO PUSH2 0x1A6E JUMPI DUP3 DUP8 ADD MLOAD SWAP1 POP JUMPDEST PUSH2 0x1A78 DUP6 DUP3 PUSH2 0x19FD JUMP JUMPDEST DUP7 SSTORE POP PUSH2 0x1ADF JUMP JUMPDEST PUSH1 0x1F NOT DUP5 AND PUSH2 0x1A8E DUP7 PUSH2 0x187B JUMP JUMPDEST PUSH0 JUMPDEST DUP3 DUP2 LT ISZERO PUSH2 0x1AB5 JUMPI DUP5 DUP10 ADD MLOAD DUP3 SSTORE PUSH1 0x1 DUP3 ADD SWAP2 POP PUSH1 0x20 DUP6 ADD SWAP5 POP PUSH1 0x20 DUP2 ADD SWAP1 POP PUSH2 0x1A90 JUMP JUMPDEST DUP7 DUP4 LT ISZERO PUSH2 0x1AD2 JUMPI DUP5 DUP10 ADD MLOAD PUSH2 0x1ACE PUSH1 0x1F DUP10 AND DUP3 PUSH2 0x19E1 JUMP JUMPDEST DUP4 SSTORE POP JUMPDEST PUSH1 0x1 PUSH1 0x2 DUP9 MUL ADD DUP9 SSTORE POP POP POP JUMPDEST POP POP POP POP POP POP JUMP JUMPDEST PUSH0 PUSH2 0x1AF1 DUP3 PUSH2 0xE96 JUMP JUMPDEST SWAP2 POP PUSH32 0xFFFFFFFFFFFFFFFFFFFFFFFFFFFFFFFFFFFFFFFFFFFFFFFFFFFFFFFFFFFFFFFF DUP3 SUB PUSH2 0x1B23 JUMPI PUSH2 0x1B22 PUSH2 0x1503 JUMP JUMPDEST JUMPDEST PUSH1 0x1 DUP3 ADD SWAP1 POP SWAP2 SWAP1 POP JUMP INVALID LOG2 PUSH5 0x6970667358 0x22 SLT KECCAK256 INVALID SWAP10 0xD3 TLOAD PC SHL 0xCC PC NUMBER DUP10 0xEF PUSH15 0x4A1F2ACF3C2C7B42E3B7E6388A4B65 0xC4 DUP8 0xC4 DUP4 SLOAD PUSH5 0x736F6C6343 STOP ADDMOD BYTE STOP CALLER "
				},
				"gasEstimates": {
					"creation": {
						"codeDepositCost": "1402400",
						"executionCost": "69940",
						"totalCost": "1472340"
					},
					"external": {
						"donateToCampaign(uint256)": "infinite",
						"getApprovalStatus(uint256)": "2904",
						"getDonators(uint256)": "infinite",
						"managerApproval(uint256)": "29098",
						"registerCampaign(string,uint256,uint256,uint256)": "infinite",
						"showCampaigns()": "infinite",
						"startCampaign(uint256)": "33707",
						"withdrawAllFund()": "infinite",
						"withdrawFund(uint256)": "infinite"
					}
				},
				"methodIdentifiers": {
					"donateToCampaign(uint256)": "42a4fda8",
					"getApprovalStatus(uint256)": "cf16fd0b",
					"getDonators(uint256)": "0fa91fa9",
					"managerApproval(uint256)": "20fdfcdf",
					"registerCampaign(string,uint256,uint256,uint256)": "ca8f7cc0",
					"showCampaigns()": "3e4f2f00",
					"startCampaign(uint256)": "35dda05a",
					"withdrawAllFund()": "86ff6b65",
					"withdrawFund(uint256)": "0cee1725"
				}
			},
			"storageLayout": {
				"storage": [
					{
						"astId": 3,
						"contract": "crowdFunding.sol:CrowdFunding",
						"label": "manager",
						"offset": 0,
						"slot": "0",
						"type": "t_address"
					},
					{
						"astId": 6,
						"contract": "crowdFunding.sol:CrowdFunding",
						"label": "nextCampaignId",
						"offset": 0,
						"slot": "1",
						"type": "t_uint256"
					},
					{
						"astId": 9,
						"contract": "crowdFunding.sol:CrowdFunding",
						"label": "lastDonater",
						"offset": 0,
						"slot": "2",
						"type": "t_uint256"
					},
					{
						"astId": 11,
						"contract": "crowdFunding.sol:CrowdFunding",
						"label": "approval",
						"offset": 0,
						"slot": "3",
						"type": "t_bool"
					},
					{
						"astId": 37,
						"contract": "crowdFunding.sol:CrowdFunding",
						"label": "campaigns",
						"offset": 0,
						"slot": "4",
						"type": "t_mapping(t_uint256,t_struct(campaign)63_storage)"
					},
					{
						"astId": 42,
						"contract": "crowdFunding.sol:CrowdFunding",
						"label": "donaters",
						"offset": 0,
						"slot": "5",
						"type": "t_mapping(t_uint256,t_array(t_address)dyn_storage)"
					}
				],
				"types": {
					"t_address": {
						"encoding": "inplace",
						"label": "address",
						"numberOfBytes": "20"
					},
					"t_array(t_address)dyn_storage": {
						"base": "t_address",
						"encoding": "dynamic_array",
						"label": "address[]",
						"numberOfBytes": "32"
					},
					"t_bool": {
						"encoding": "inplace",
						"label": "bool",
						"numberOfBytes": "1"
					},
					"t_mapping(t_uint256,t_array(t_address)dyn_storage)": {
						"encoding": "mapping",
						"key": "t_uint256",
						"label": "mapping(uint256 => address[])",
						"numberOfBytes": "32",
						"value": "t_array(t_address)dyn_storage"
					},
					"t_mapping(t_uint256,t_struct(campaign)63_storage)": {
						"encoding": "mapping",
						"key": "t_uint256",
						"label": "mapping(uint256 => struct CrowdFunding.campaign)",
						"numberOfBytes": "32",
						"value": "t_struct(campaign)63_storage"
					},
					"t_string_storage": {
						"encoding": "bytes",
						"label": "string",
						"numberOfBytes": "32"
					},
					"t_struct(campaign)63_storage": {
						"encoding": "inplace",
						"label": "struct CrowdFunding.campaign",
						"members": [
							{
								"astId": 44,
								"contract": "crowdFunding.sol:CrowdFunding",
								"label": "campaignId",
								"offset": 0,
								"slot": "0",
								"type": "t_uint256"
							},
							{
								"astId": 46,
								"contract": "crowdFunding.sol:CrowdFunding",
								"label": "campaignName",
								"offset": 0,
								"slot": "1",
								"type": "t_string_storage"
							},
							{
								"astId": 48,
								"contract": "crowdFunding.sol:CrowdFunding",
								"label": "startedBy",
								"offset": 0,
								"slot": "2",
								"type": "t_address"
							},
							{
								"astId": 50,
								"contract": "crowdFunding.sol:CrowdFunding",
								"label": "amountToRaise",
								"offset": 0,
								"slot": "3",
								"type": "t_uint256"
							},
							{
								"astId": 52,
								"contract": "crowdFunding.sol:CrowdFunding",
								"label": "amountRaised",
								"offset": 0,
								"slot": "4",
								"type": "t_uint256"
							},
							{
								"astId": 54,
								"contract": "crowdFunding.sol:CrowdFunding",
								"label": "amountRemaining",
								"offset": 0,
								"slot": "5",
								"type": "t_uint256"
							},
							{
								"astId": 56,
								"contract": "crowdFunding.sol:CrowdFunding",
								"label": "startTime",
								"offset": 0,
								"slot": "6",
								"type": "t_uint256"
							},
							{
								"astId": 58,
								"contract": "crowdFunding.sol:CrowdFunding",
								"label": "endTime",
								"offset": 0,
								"slot": "7",
								"type": "t_uint256"
							},
							{
								"astId": 60,
								"contract": "crowdFunding.sol:CrowdFunding",
								"label": "approval",
								"offset": 0,
								"slot": "8",
								"type": "t_bool"
							},
							{
								"astId": 62,
								"contract": "crowdFunding.sol:CrowdFunding",
								"label": "isLive",
								"offset": 1,
								"slot": "8",
								"type": "t_bool"
							}
						],
						"numberOfBytes": "288"
					},
					"t_uint256": {
						"encoding": "inplace",
						"label": "uint256",
						"numberOfBytes": "32"
					}
				}
			},
			"userdoc": {
				"kind": "user",
				"methods": {},
				"version": 1
			}
		}
	}
}