{
	"Erc20ForVoting.sol": {
		"MyToken": {
			"abi": [
				{
					"inputs": [],
					"stateMutability": "nonpayable",
					"type": "constructor"
				},
				{
					"anonymous": false,
					"inputs": [
						{
							"indexed": true,
							"internalType": "address",
							"name": "owner",
							"type": "address"
						},
						{
							"indexed": true,
							"internalType": "address",
							"name": "spender",
							"type": "address"
						},
						{
							"indexed": false,
							"internalType": "uint256",
							"name": "value",
							"type": "uint256"
						}
					],
					"name": "Approval",
					"type": "event"
				},
				{
					"anonymous": false,
					"inputs": [
						{
							"indexed": true,
							"internalType": "address",
							"name": "from",
							"type": "address"
						},
						{
							"indexed": true,
							"internalType": "address",
							"name": "to",
							"type": "address"
						},
						{
							"indexed": false,
							"internalType": "uint256",
							"name": "value",
							"type": "uint256"
						}
					],
					"name": "Transfer",
					"type": "event"
				},
				{
					"inputs": [
						{
							"internalType": "address",
							"name": "owner",
							"type": "address"
						},
						{
							"internalType": "address",
							"name": "spender",
							"type": "address"
						}
					],
					"name": "allowance",
					"outputs": [
						{
							"internalType": "uint256",
							"name": "",
							"type": "uint256"
						}
					],
					"stateMutability": "view",
					"type": "function"
				},
				{
					"inputs": [
						{
							"internalType": "address",
							"name": "",
							"type": "address"
						},
						{
							"internalType": "address",
							"name": "",
							"type": "address"
						}
					],
					"name": "allowedTokens",
					"outputs": [
						{
							"internalType": "uint256",
							"name": "",
							"type": "uint256"
						}
					],
					"stateMutability": "view",
					"type": "function"
				},
				{
					"inputs": [
						{
							"internalType": "address",
							"name": "spender",
							"type": "address"
						},
						{
							"internalType": "uint256",
							"name": "value",
							"type": "uint256"
						}
					],
					"name": "approve",
					"outputs": [
						{
							"internalType": "bool",
							"name": "",
							"type": "bool"
						}
					],
					"stateMutability": "nonpayable",
					"type": "function"
				},
				{
					"inputs": [
						{
							"internalType": "address",
							"name": "account",
							"type": "address"
						}
					],
					"name": "balanceOf",
					"outputs": [
						{
							"internalType": "uint256",
							"name": "",
							"type": "uint256"
						}
					],
					"stateMutability": "view",
					"type": "function"
				},
				{
					"inputs": [
						{
							"internalType": "address",
							"name": "",
							"type": "address"
						}
					],
					"name": "balanceOfUser",
					"outputs": [
						{
							"internalType": "uint256",
							"name": "",
							"type": "uint256"
						}
					],
					"stateMutability": "view",
					"type": "function"
				},
				{
					"inputs": [
						{
							"internalType": "address",
							"name": "account",
							"type": "address"
						}
					],
					"name": "blacklist",
					"outputs": [],
					"stateMutability": "nonpayable",
					"type": "function"
				},
				{
					"inputs": [
						{
							"internalType": "uint256",
							"name": "amount",
							"type": "uint256"
						}
					],
					"name": "burn",
					"outputs": [],
					"stateMutability": "nonpayable",
					"type": "function"
				},
				{
					"inputs": [],
					"name": "decimals",
					"outputs": [
						{
							"internalType": "uint256",
							"name": "",
							"type": "uint256"
						}
					],
					"stateMutability": "view",
					"type": "function"
				},
				{
					"inputs": [],
					"name": "founder",
					"outputs": [
						{
							"internalType": "address",
							"name": "",
							"type": "address"
						}
					],
					"stateMutability": "view",
					"type": "function"
				},
				{
					"inputs": [
						{
							"internalType": "address",
							"name": "account",
							"type": "address"
						}
					],
					"name": "freezeAccount",
					"outputs": [],
					"stateMutability": "nonpayable",
					"type": "function"
				},
				{
					"inputs": [
						{
							"internalType": "address",
							"name": "to",
							"type": "address"
						},
						{
							"internalType": "uint256",
							"name": "amount",
							"type": "uint256"
						}
					],
					"name": "mint",
					"outputs": [],
					"stateMutability": "nonpayable",
					"type": "function"
				},
				{
					"inputs": [],
					"name": "pause",
					"outputs": [],
					"stateMutability": "nonpayable",
					"type": "function"
				},
				{
					"inputs": [],
					"name": "totalSupply",
					"outputs": [
						{
							"internalType": "uint256",
							"name": "",
							"type": "uint256"
						}
					],
					"stateMutability": "view",
					"type": "function"
				},
				{
					"inputs": [
						{
							"internalType": "address",
							"name": "to",
							"type": "address"
						},
						{
							"internalType": "uint256",
							"name": "value",
							"type": "uint256"
						}
					],
					"name": "transfer",
					"outputs": [
						{
							"internalType": "bool",
							"name": "",
							"type": "bool"
						}
					],
					"stateMutability": "nonpayable",
					"type": "function"
				},
				{
					"inputs": [
						{
							"internalType": "address",
							"name": "from",
							"type": "address"
						},
						{
							"internalType": "address",
							"name": "to",
							"type": "address"
						},
						{
							"internalType": "uint256",
							"name": "value",
							"type": "uint256"
						}
					],
					"name": "transferFrom",
					"outputs": [
						{
							"internalType": "bool",
							"name": "",
							"type": "bool"
						}
					],
					"stateMutability": "nonpayable",
					"type": "function"
				},
				{
					"inputs": [
						{
							"internalType": "address",
							"name": "newOwner",
							"type": "address"
						}
					],
					"name": "transferOwnership",
					"outputs": [],
					"stateMutability": "nonpayable",
					"type": "function"
				},
				{
					"inputs": [
						{
							"internalType": "address",
							"name": "account",
							"type": "address"
						}
					],
					"name": "unblacklist",
					"outputs": [],
					"stateMutability": "nonpayable",
					"type": "function"
				},
				{
					"inputs": [
						{
							"internalType": "address",
							"name": "account",
							"type": "address"
						}
					],
					"name": "unfreezeAccount",
					"outputs": [],
					"stateMutability": "nonpayable",
					"type": "function"
				},
				{
					"inputs": [],
					"name": "unpause",
					"outputs": [],
					"stateMutability": "nonpayable",
					"type": "function"
				}
			],
			"devdoc": {
				"kind": "dev",
				"methods": {},
				"version": 1
			},
			"evm": {
				"assembly": "    /* \"Erc20ForVoting.sol\":1012:6890  contract MyToken is IERC20 {... */\n  mstore(0x40, 0x80)\n    /* \"Erc20ForVoting.sol\":1101:1108  1000000 */\n  0x0f4240\n    /* \"Erc20ForVoting.sol\":1075:1108  uint public totalSupply = 1000000 */\n  0x01\n  sstore\n    /* \"Erc20ForVoting.sol\":1615:1617  18 */\n  0x12\n    /* \"Erc20ForVoting.sol\":1592:1617  uint public decimals = 18 */\n  0x06\n  sstore\n    /* \"Erc20ForVoting.sol\":1668:1807  constructor () {... */\n  callvalue\n  dup1\n  iszero\n  tag_1\n  jumpi\n  0x00\n  dup1\n  revert\ntag_1:\n  pop\n    /* \"Erc20ForVoting.sol\":1704:1714  msg.sender */\n  caller\n    /* \"Erc20ForVoting.sol\":1694:1701  founder */\n  0x00\n  dup1\n    /* \"Erc20ForVoting.sol\":1694:1714  founder = msg.sender */\n  0x0100\n  exp\n  dup2\n  sload\n  dup2\n  0xffffffffffffffffffffffffffffffffffffffff\n  mul\n  not\n  and\n  swap1\n  dup4\n  0xffffffffffffffffffffffffffffffffffffffff\n  and\n  mul\n  or\n  swap1\n  sstore\n  pop\n    /* \"Erc20ForVoting.sol\":1748:1759  totalSupply */\n  sload(0x01)\n    /* \"Erc20ForVoting.sol\":1725:1738  balanceOfUser */\n  0x02\n    /* \"Erc20ForVoting.sol\":1725:1747  balanceOfUser[founder] */\n  0x00\n    /* \"Erc20ForVoting.sol\":1739:1746  founder */\n  dup1\n  0x00\n  swap1\n  sload\n  swap1\n  0x0100\n  exp\n  swap1\n  div\n  0xffffffffffffffffffffffffffffffffffffffff\n  and\n    /* \"Erc20ForVoting.sol\":1725:1747  balanceOfUser[founder] */\n  0xffffffffffffffffffffffffffffffffffffffff\n  and\n  0xffffffffffffffffffffffffffffffffffffffff\n  and\n  dup2\n  mstore\n  0x20\n  add\n  swap1\n  dup2\n  mstore\n  0x20\n  add\n  0x00\n  keccak256\n    /* \"Erc20ForVoting.sol\":1725:1759  balanceOfUser[founder]=totalSupply */\n  dup2\n  swap1\n  sstore\n  pop\n    /* \"Erc20ForVoting.sol\":1012:6890  contract MyToken is IERC20 {... */\n  dataSize(sub_0)\n  dup1\n  dataOffset(sub_0)\n  0x00\n  codecopy\n  0x00\n  return\nstop\n\nsub_0: assembly {\n        /* \"Erc20ForVoting.sol\":1012:6890  contract MyToken is IERC20 {... */\n      mstore(0x40, 0x80)\n      callvalue\n      dup1\n      iszero\n      tag_1\n      jumpi\n      0x00\n      dup1\n      revert\n    tag_1:\n      pop\n      jumpi(tag_2, lt(calldatasize, 0x04))\n      shr(0xe0, calldataload(0x00))\n      dup1\n      0x4d853ee5\n      gt\n      tag_22\n      jumpi\n      dup1\n      0xa9059cbb\n      gt\n      tag_23\n      jumpi\n      dup1\n      0xa9059cbb\n      eq\n      tag_17\n      jumpi\n      dup1\n      0xdd62ed3e\n      eq\n      tag_18\n      jumpi\n      dup1\n      0xf26c159f\n      eq\n      tag_19\n      jumpi\n      dup1\n      0xf2fde38b\n      eq\n      tag_20\n      jumpi\n      dup1\n      0xf9f92be4\n      eq\n      tag_21\n      jumpi\n      jump(tag_2)\n    tag_23:\n      dup1\n      0x4d853ee5\n      eq\n      tag_12\n      jumpi\n      dup1\n      0x70a08231\n      eq\n      tag_13\n      jumpi\n      dup1\n      0x75e3661e\n      eq\n      tag_14\n      jumpi\n      dup1\n      0x788649ea\n      eq\n      tag_15\n      jumpi\n      dup1\n      0x8456cb59\n      eq\n      tag_16\n      jumpi\n      jump(tag_2)\n    tag_22:\n      dup1\n      0x313ce567\n      gt\n      tag_24\n      jumpi\n      dup1\n      0x313ce567\n      eq\n      tag_7\n      jumpi\n      dup1\n      0x3f4ba83a\n      eq\n      tag_8\n      jumpi\n      dup1\n      0x40c10f19\n      eq\n      tag_9\n      jumpi\n      dup1\n      0x42966c68\n      eq\n      tag_10\n      jumpi\n      dup1\n      0x4995832d\n      eq\n      tag_11\n      jumpi\n      jump(tag_2)\n    tag_24:\n      dup1\n      0x095ea7b3\n      eq\n      tag_3\n      jumpi\n      dup1\n      0x12cae7af\n      eq\n      tag_4\n      jumpi\n      dup1\n      0x18160ddd\n      eq\n      tag_5\n      jumpi\n      dup1\n      0x23b872dd\n      eq\n      tag_6\n      jumpi\n    tag_2:\n      0x00\n      dup1\n      revert\n        /* \"Erc20ForVoting.sol\":2932:3274  function approve(address spender, uint256 value) external returns (bool) {... */\n    tag_3:\n      tag_25\n      0x04\n      dup1\n      calldatasize\n      sub\n      dup2\n      add\n      swap1\n      tag_26\n      swap2\n      swap1\n      tag_27\n      jump\t// in\n    tag_26:\n      tag_28\n      jump\t// in\n    tag_25:\n      mload(0x40)\n      tag_29\n      swap2\n      swap1\n      tag_30\n      jump\t// in\n    tag_29:\n      mload(0x40)\n      dup1\n      swap2\n      sub\n      swap1\n      return\n        /* \"Erc20ForVoting.sol\":1140:1184  mapping (address=>uint) public balanceOfUser */\n    tag_4:\n      tag_31\n      0x04\n      dup1\n      calldatasize\n      sub\n      dup2\n      add\n      swap1\n      tag_32\n      swap2\n      swap1\n      tag_33\n      jump\t// in\n    tag_32:\n      tag_34\n      jump\t// in\n    tag_31:\n      mload(0x40)\n      tag_35\n      swap2\n      swap1\n      tag_36\n      jump\t// in\n    tag_35:\n      mload(0x40)\n      dup1\n      swap2\n      sub\n      swap1\n      return\n        /* \"Erc20ForVoting.sol\":1075:1108  uint public totalSupply = 1000000 */\n    tag_5:\n      tag_37\n      tag_38\n      jump\t// in\n    tag_37:\n      mload(0x40)\n      tag_39\n      swap2\n      swap1\n      tag_36\n      jump\t// in\n    tag_39:\n      mload(0x40)\n      dup1\n      swap2\n      sub\n      swap1\n      return\n        /* \"Erc20ForVoting.sol\":3432:4406  function transferFrom(address from, address to, uint256 value) external returns (bool) {... */\n    tag_6:\n      tag_40\n      0x04\n      dup1\n      calldatasize\n      sub\n      dup2\n      add\n      swap1\n      tag_41\n      swap2\n      swap1\n      tag_42\n      jump\t// in\n    tag_41:\n      tag_43\n      jump\t// in\n    tag_40:\n      mload(0x40)\n      tag_44\n      swap2\n      swap1\n      tag_30\n      jump\t// in\n    tag_44:\n      mload(0x40)\n      dup1\n      swap2\n      sub\n      swap1\n      return\n        /* \"Erc20ForVoting.sol\":1592:1617  uint public decimals = 18 */\n    tag_7:\n      tag_45\n      tag_46\n      jump\t// in\n    tag_45:\n      mload(0x40)\n      tag_47\n      swap2\n      swap1\n      tag_36\n      jump\t// in\n    tag_47:\n      mload(0x40)\n      dup1\n      swap2\n      sub\n      swap1\n      return\n        /* \"Erc20ForVoting.sol\":6078:6158  function unpause() external onlyFounder{... */\n    tag_8:\n      tag_48\n      tag_49\n      jump\t// in\n    tag_48:\n      stop\n        /* \"Erc20ForVoting.sol\":4495:4708  function mint(address to, uint256 amount) external onlyFounder{... */\n    tag_9:\n      tag_50\n      0x04\n      dup1\n      calldatasize\n      sub\n      dup2\n      add\n      swap1\n      tag_51\n      swap2\n      swap1\n      tag_27\n      jump\t// in\n    tag_51:\n      tag_52\n      jump\t// in\n    tag_50:\n      stop\n        /* \"Erc20ForVoting.sol\":4784:5162  function burn(uint256 amount) external {... */\n    tag_10:\n      tag_53\n      0x04\n      dup1\n      calldatasize\n      sub\n      dup2\n      add\n      swap1\n      tag_54\n      swap2\n      swap1\n      tag_55\n      jump\t// in\n    tag_54:\n      tag_56\n      jump\t// in\n    tag_53:\n      stop\n        /* \"Erc20ForVoting.sol\":1252:1312  mapping(address=>mapping(address=>uint))public allowedTokens */\n    tag_11:\n      tag_57\n      0x04\n      dup1\n      calldatasize\n      sub\n      dup2\n      add\n      swap1\n      tag_58\n      swap2\n      swap1\n      tag_59\n      jump\t// in\n    tag_58:\n      tag_60\n      jump\t// in\n    tag_57:\n      mload(0x40)\n      tag_61\n      swap2\n      swap1\n      tag_36\n      jump\t// in\n    tag_61:\n      mload(0x40)\n      dup1\n      swap2\n      sub\n      swap1\n      return\n        /* \"Erc20ForVoting.sol\":1046:1068  address public founder */\n    tag_12:\n      tag_62\n      tag_63\n      jump\t// in\n    tag_62:\n      mload(0x40)\n      tag_64\n      swap2\n      swap1\n      tag_65\n      jump\t// in\n    tag_64:\n      mload(0x40)\n      dup1\n      swap2\n      sub\n      swap1\n      return\n        /* \"Erc20ForVoting.sol\":1925:2041  function balanceOf(address account) external view returns (uint256) {... */\n    tag_13:\n      tag_66\n      0x04\n      dup1\n      calldatasize\n      sub\n      dup2\n      add\n      swap1\n      tag_67\n      swap2\n      swap1\n      tag_33\n      jump\t// in\n    tag_67:\n      tag_68\n      jump\t// in\n    tag_66:\n      mload(0x40)\n      tag_69\n      swap2\n      swap1\n      tag_36\n      jump\t// in\n    tag_69:\n      mload(0x40)\n      dup1\n      swap2\n      sub\n      swap1\n      return\n        /* \"Erc20ForVoting.sol\":6519:6636  function unblacklist(address account) external onlyFounder{... */\n    tag_14:\n      tag_70\n      0x04\n      dup1\n      calldatasize\n      sub\n      dup2\n      add\n      swap1\n      tag_71\n      swap2\n      swap1\n      tag_33\n      jump\t// in\n    tag_71:\n      tag_72\n      jump\t// in\n    tag_70:\n      stop\n        /* \"Erc20ForVoting.sol\":5679:5800  function unfreezeAccount(address account) external onlyFounder  {... */\n    tag_15:\n      tag_73\n      0x04\n      dup1\n      calldatasize\n      sub\n      dup2\n      add\n      swap1\n      tag_74\n      swap2\n      swap1\n      tag_33\n      jump\t// in\n    tag_74:\n      tag_75\n      jump\t// in\n    tag_73:\n      stop\n        /* \"Erc20ForVoting.sol\":5930:6007  function pause() external onlyFounder{... */\n    tag_16:\n      tag_76\n      tag_77\n      jump\t// in\n    tag_76:\n      stop\n        /* \"Erc20ForVoting.sol\":2049:2923  function transfer(address to, uint256 value) external returns (bool) {... */\n    tag_17:\n      tag_78\n      0x04\n      dup1\n      calldatasize\n      sub\n      dup2\n      add\n      swap1\n      tag_79\n      swap2\n      swap1\n      tag_27\n      jump\t// in\n    tag_79:\n      tag_80\n      jump\t// in\n    tag_78:\n      mload(0x40)\n      tag_81\n      swap2\n      swap1\n      tag_30\n      jump\t// in\n    tag_81:\n      mload(0x40)\n      dup1\n      swap2\n      sub\n      swap1\n      return\n        /* \"Erc20ForVoting.sol\":3282:3424  function allowance(address owner, address spender) external view returns (uint256) {... */\n    tag_18:\n      tag_82\n      0x04\n      dup1\n      calldatasize\n      sub\n      dup2\n      add\n      swap1\n      tag_83\n      swap2\n      swap1\n      tag_59\n      jump\t// in\n    tag_83:\n      tag_84\n      jump\t// in\n    tag_82:\n      mload(0x40)\n      tag_85\n      swap2\n      swap1\n      tag_36\n      jump\t// in\n    tag_85:\n      mload(0x40)\n      dup1\n      swap2\n      sub\n      swap1\n      return\n        /* \"Erc20ForVoting.sol\":5321:5514  function freezeAccount(address account) external onlyFounder {... */\n    tag_19:\n      tag_86\n      0x04\n      dup1\n      calldatasize\n      sub\n      dup2\n      add\n      swap1\n      tag_87\n      swap2\n      swap1\n      tag_33\n      jump\t// in\n    tag_87:\n      tag_88\n      jump\t// in\n    tag_86:\n      stop\n        /* \"Erc20ForVoting.sol\":6760:6871  function transferOwnership(address newOwner) external onlyFounder{... */\n    tag_20:\n      tag_89\n      0x04\n      dup1\n      calldatasize\n      sub\n      dup2\n      add\n      swap1\n      tag_90\n      swap2\n      swap1\n      tag_33\n      jump\t// in\n    tag_90:\n      tag_91\n      jump\t// in\n    tag_89:\n      stop\n        /* \"Erc20ForVoting.sol\":6210:6324  function blacklist(address account) external onlyFounder{... */\n    tag_21:\n      tag_92\n      0x04\n      dup1\n      calldatasize\n      sub\n      dup2\n      add\n      swap1\n      tag_93\n      swap2\n      swap1\n      tag_33\n      jump\t// in\n    tag_93:\n      tag_94\n      jump\t// in\n    tag_92:\n      stop\n        /* \"Erc20ForVoting.sol\":2932:3274  function approve(address spender, uint256 value) external returns (bool) {... */\n    tag_28:\n        /* \"Erc20ForVoting.sol\":2999:3003  bool */\n      0x00\n        /* \"Erc20ForVoting.sol\":3043:3044  0 */\n      dup1\n        /* \"Erc20ForVoting.sol\":3025:3045  spender!= address(0) */\n      0xffffffffffffffffffffffffffffffffffffffff\n      and\n        /* \"Erc20ForVoting.sol\":3025:3032  spender */\n      dup4\n        /* \"Erc20ForVoting.sol\":3025:3045  spender!= address(0) */\n      0xffffffffffffffffffffffffffffffffffffffff\n      and\n      sub\n        /* \"Erc20ForVoting.sol\":3017:3064  require(spender!= address(0),\"Invalid address\") */\n      tag_96\n      jumpi\n      mload(0x40)\n      0x08c379a000000000000000000000000000000000000000000000000000000000\n      dup2\n      mstore\n      0x04\n      add\n      tag_97\n      swap1\n      tag_98\n      jump\t// in\n    tag_97:\n      mload(0x40)\n      dup1\n      swap2\n      sub\n      swap1\n      revert\n    tag_96:\n        /* \"Erc20ForVoting.sol\":3112:3117  value */\n      dup2\n        /* \"Erc20ForVoting.sol\":3084:3097  balanceOfUser */\n      0x02\n        /* \"Erc20ForVoting.sol\":3084:3109  balanceOfUser[msg.sender] */\n      0x00\n        /* \"Erc20ForVoting.sol\":3098:3108  msg.sender */\n      caller\n        /* \"Erc20ForVoting.sol\":3084:3109  balanceOfUser[msg.sender] */\n      0xffffffffffffffffffffffffffffffffffffffff\n      and\n      0xffffffffffffffffffffffffffffffffffffffff\n      and\n      dup2\n      mstore\n      0x20\n      add\n      swap1\n      dup2\n      mstore\n      0x20\n      add\n      0x00\n      keccak256\n      sload\n        /* \"Erc20ForVoting.sol\":3084:3117  balanceOfUser[msg.sender]>= value */\n      lt\n      iszero\n        /* \"Erc20ForVoting.sol\":3076:3139  require(balanceOfUser[msg.sender]>= value,\"Insufficient Value\") */\n      tag_99\n      jumpi\n      mload(0x40)\n      0x08c379a000000000000000000000000000000000000000000000000000000000\n      dup2\n      mstore\n      0x04\n      add\n      tag_100\n      swap1\n      tag_101\n      jump\t// in\n    tag_100:\n      mload(0x40)\n      dup1\n      swap2\n      sub\n      swap1\n      revert\n    tag_99:\n        /* \"Erc20ForVoting.sol\":3186:3191  value */\n      dup2\n        /* \"Erc20ForVoting.sol\":3151:3164  allowedTokens */\n      0x03\n        /* \"Erc20ForVoting.sol\":3151:3176  allowedTokens[msg.sender] */\n      0x00\n        /* \"Erc20ForVoting.sol\":3165:3175  msg.sender */\n      caller\n        /* \"Erc20ForVoting.sol\":3151:3176  allowedTokens[msg.sender] */\n      0xffffffffffffffffffffffffffffffffffffffff\n      and\n      0xffffffffffffffffffffffffffffffffffffffff\n      and\n      dup2\n      mstore\n      0x20\n      add\n      swap1\n      dup2\n      mstore\n      0x20\n      add\n      0x00\n      keccak256\n        /* \"Erc20ForVoting.sol\":3151:3185  allowedTokens[msg.sender][spender] */\n      0x00\n        /* \"Erc20ForVoting.sol\":3177:3184  spender */\n      dup6\n        /* \"Erc20ForVoting.sol\":3151:3185  allowedTokens[msg.sender][spender] */\n      0xffffffffffffffffffffffffffffffffffffffff\n      and\n      0xffffffffffffffffffffffffffffffffffffffff\n      and\n      dup2\n      mstore\n      0x20\n      add\n      swap1\n      dup2\n      mstore\n      0x20\n      add\n      0x00\n      keccak256\n        /* \"Erc20ForVoting.sol\":3151:3191  allowedTokens[msg.sender][spender]=value */\n      dup2\n      swap1\n      sstore\n      pop\n        /* \"Erc20ForVoting.sol\":3229:3236  spender */\n      dup3\n        /* \"Erc20ForVoting.sol\":3208:3243  Approval(msg.sender, spender,value) */\n      0xffffffffffffffffffffffffffffffffffffffff\n      and\n        /* \"Erc20ForVoting.sol\":3217:3227  msg.sender */\n      caller\n        /* \"Erc20ForVoting.sol\":3208:3243  Approval(msg.sender, spender,value) */\n      0xffffffffffffffffffffffffffffffffffffffff\n      and\n      0x8c5be1e5ebec7d5bd14f71427d1e84f3dd0314c0f7b2291e5b200ac8c7c3b925\n        /* \"Erc20ForVoting.sol\":3237:3242  value */\n      dup5\n        /* \"Erc20ForVoting.sol\":3208:3243  Approval(msg.sender, spender,value) */\n      mload(0x40)\n      tag_102\n      swap2\n      swap1\n      tag_36\n      jump\t// in\n    tag_102:\n      mload(0x40)\n      dup1\n      swap2\n      sub\n      swap1\n      log3\n        /* \"Erc20ForVoting.sol\":3262:3266  true */\n      0x01\n        /* \"Erc20ForVoting.sol\":3255:3266  return true */\n      swap1\n      pop\n        /* \"Erc20ForVoting.sol\":2932:3274  function approve(address spender, uint256 value) external returns (bool) {... */\n      swap3\n      swap2\n      pop\n      pop\n      jump\t// out\n        /* \"Erc20ForVoting.sol\":1140:1184  mapping (address=>uint) public balanceOfUser */\n    tag_34:\n      mstore(0x20, 0x02)\n      dup1\n      0x00\n      mstore\n      keccak256(0x00, 0x40)\n      0x00\n      swap2\n      pop\n      swap1\n      pop\n      sload\n      dup2\n      jump\t// out\n        /* \"Erc20ForVoting.sol\":1075:1108  uint public totalSupply = 1000000 */\n    tag_38:\n      sload(0x01)\n      dup2\n      jump\t// out\n        /* \"Erc20ForVoting.sol\":3432:4406  function transferFrom(address from, address to, uint256 value) external returns (bool) {... */\n    tag_43:\n        /* \"Erc20ForVoting.sol\":3513:3517  bool */\n      0x00\n        /* \"Erc20ForVoting.sol\":3542:3552  msg.sender */\n      caller\n        /* \"Erc20ForVoting.sol\":3538:3552  to==msg.sender */\n      0xffffffffffffffffffffffffffffffffffffffff\n      and\n        /* \"Erc20ForVoting.sol\":3538:3540  to */\n      dup4\n        /* \"Erc20ForVoting.sol\":3538:3552  to==msg.sender */\n      0xffffffffffffffffffffffffffffffffffffffff\n      and\n      eq\n        /* \"Erc20ForVoting.sol\":3530:3570  require(to==msg.sender,\"Not authorised\") */\n      tag_104\n      jumpi\n      mload(0x40)\n      0x08c379a000000000000000000000000000000000000000000000000000000000\n      dup2\n      mstore\n      0x04\n      add\n      tag_105\n      swap1\n      tag_106\n      jump\t// in\n    tag_105:\n      mload(0x40)\n      dup1\n      swap2\n      sub\n      swap1\n      revert\n    tag_104:\n        /* \"Erc20ForVoting.sol\":3605:3606  0 */\n      0x00\n        /* \"Erc20ForVoting.sol\":3590:3607  from!= address(0) */\n      0xffffffffffffffffffffffffffffffffffffffff\n      and\n        /* \"Erc20ForVoting.sol\":3590:3594  from */\n      dup5\n        /* \"Erc20ForVoting.sol\":3590:3607  from!= address(0) */\n      0xffffffffffffffffffffffffffffffffffffffff\n      and\n      sub\n        /* \"Erc20ForVoting.sol\":3582:3626  require(from!= address(0),\"Invalid address\") */\n      tag_107\n      jumpi\n      mload(0x40)\n      0x08c379a000000000000000000000000000000000000000000000000000000000\n      dup2\n      mstore\n      0x04\n      add\n      tag_108\n      swap1\n      tag_98\n      jump\t// in\n    tag_108:\n      mload(0x40)\n      dup1\n      swap2\n      sub\n      swap1\n      revert\n    tag_107:\n        /* \"Erc20ForVoting.sol\":3659:3660  0 */\n      0x00\n        /* \"Erc20ForVoting.sol\":3646:3661  to!= address(0) */\n      0xffffffffffffffffffffffffffffffffffffffff\n      and\n        /* \"Erc20ForVoting.sol\":3646:3648  to */\n      dup4\n        /* \"Erc20ForVoting.sol\":3646:3661  to!= address(0) */\n      0xffffffffffffffffffffffffffffffffffffffff\n      and\n      sub\n        /* \"Erc20ForVoting.sol\":3638:3680  require(to!= address(0),\"Invalid address\") */\n      tag_109\n      jumpi\n      mload(0x40)\n      0x08c379a000000000000000000000000000000000000000000000000000000000\n      dup2\n      mstore\n      0x04\n      add\n      tag_110\n      swap1\n      tag_98\n      jump\t// in\n    tag_110:\n      mload(0x40)\n      dup1\n      swap2\n      sub\n      swap1\n      revert\n    tag_109:\n        /* \"Erc20ForVoting.sol\":3726:3731  value */\n      dup2\n        /* \"Erc20ForVoting.sol\":3700:3713  allowedTokens */\n      0x03\n        /* \"Erc20ForVoting.sol\":3700:3719  allowedTokens[from] */\n      0x00\n        /* \"Erc20ForVoting.sol\":3714:3718  from */\n      dup7\n        /* \"Erc20ForVoting.sol\":3700:3719  allowedTokens[from] */\n      0xffffffffffffffffffffffffffffffffffffffff\n      and\n      0xffffffffffffffffffffffffffffffffffffffff\n      and\n      dup2\n      mstore\n      0x20\n      add\n      swap1\n      dup2\n      mstore\n      0x20\n      add\n      0x00\n      keccak256\n        /* \"Erc20ForVoting.sol\":3700:3723  allowedTokens[from][to] */\n      0x00\n        /* \"Erc20ForVoting.sol\":3720:3722  to */\n      dup6\n        /* \"Erc20ForVoting.sol\":3700:3723  allowedTokens[from][to] */\n      0xffffffffffffffffffffffffffffffffffffffff\n      and\n      0xffffffffffffffffffffffffffffffffffffffff\n      and\n      dup2\n      mstore\n      0x20\n      add\n      swap1\n      dup2\n      mstore\n      0x20\n      add\n      0x00\n      keccak256\n      sload\n        /* \"Erc20ForVoting.sol\":3700:3731  allowedTokens[from][to]>= value */\n      lt\n      iszero\n        /* \"Erc20ForVoting.sol\":3692:3753  require(allowedTokens[from][to]>= value,\"Insufficient Value\") */\n      tag_111\n      jumpi\n      mload(0x40)\n      0x08c379a000000000000000000000000000000000000000000000000000000000\n      dup2\n      mstore\n      0x04\n      add\n      tag_112\n      swap1\n      tag_101\n      jump\t// in\n    tag_112:\n      mload(0x40)\n      dup1\n      swap2\n      sub\n      swap1\n      revert\n    tag_111:\n        /* \"Erc20ForVoting.sol\":3795:3800  false */\n      0x00\n        /* \"Erc20ForVoting.sol\":3773:3800  freezedAccount[from]==false */\n      iszero\n      iszero\n        /* \"Erc20ForVoting.sol\":3773:3787  freezedAccount */\n      0x04\n        /* \"Erc20ForVoting.sol\":3773:3793  freezedAccount[from] */\n      0x00\n        /* \"Erc20ForVoting.sol\":3788:3792  from */\n      dup7\n        /* \"Erc20ForVoting.sol\":3773:3793  freezedAccount[from] */\n      0xffffffffffffffffffffffffffffffffffffffff\n      and\n      0xffffffffffffffffffffffffffffffffffffffff\n      and\n      dup2\n      mstore\n      0x20\n      add\n      swap1\n      dup2\n      mstore\n      0x20\n      add\n      0x00\n      keccak256\n      0x00\n      swap1\n      sload\n      swap1\n      0x0100\n      exp\n      swap1\n      div\n      0xff\n      and\n        /* \"Erc20ForVoting.sol\":3773:3800  freezedAccount[from]==false */\n      iszero\n      iszero\n      eq\n        /* \"Erc20ForVoting.sol\":3765:3822  require(freezedAccount[from]==false,\"You're not allowed\") */\n      tag_113\n      jumpi\n      mload(0x40)\n      0x08c379a000000000000000000000000000000000000000000000000000000000\n      dup2\n      mstore\n      0x04\n      add\n      tag_114\n      swap1\n      tag_115\n      jump\t// in\n    tag_114:\n      mload(0x40)\n      dup1\n      swap2\n      sub\n      swap1\n      revert\n    tag_113:\n        /* \"Erc20ForVoting.sol\":3862:3867  false */\n      0x00\n        /* \"Erc20ForVoting.sol\":3842:3867  freezedAccount[to]==false */\n      iszero\n      iszero\n        /* \"Erc20ForVoting.sol\":3842:3856  freezedAccount */\n      0x04\n        /* \"Erc20ForVoting.sol\":3842:3860  freezedAccount[to] */\n      0x00\n        /* \"Erc20ForVoting.sol\":3857:3859  to */\n      dup6\n        /* \"Erc20ForVoting.sol\":3842:3860  freezedAccount[to] */\n      0xffffffffffffffffffffffffffffffffffffffff\n      and\n      0xffffffffffffffffffffffffffffffffffffffff\n      and\n      dup2\n      mstore\n      0x20\n      add\n      swap1\n      dup2\n      mstore\n      0x20\n      add\n      0x00\n      keccak256\n      0x00\n      swap1\n      sload\n      swap1\n      0x0100\n      exp\n      swap1\n      div\n      0xff\n      and\n        /* \"Erc20ForVoting.sol\":3842:3867  freezedAccount[to]==false */\n      iszero\n      iszero\n      eq\n        /* \"Erc20ForVoting.sol\":3834:3916  require(freezedAccount[to]==false,\"This address is not allowed to receive tokens\") */\n      tag_116\n      jumpi\n      mload(0x40)\n      0x08c379a000000000000000000000000000000000000000000000000000000000\n      dup2\n      mstore\n      0x04\n      add\n      tag_117\n      swap1\n      tag_118\n      jump\t// in\n    tag_117:\n      mload(0x40)\n      dup1\n      swap2\n      sub\n      swap1\n      revert\n    tag_116:\n        /* \"Erc20ForVoting.sol\":3960:3965  false */\n      0x00\n        /* \"Erc20ForVoting.sol\":3936:3965  blacklistAddress[from]==false */\n      iszero\n      iszero\n        /* \"Erc20ForVoting.sol\":3936:3952  blacklistAddress */\n      0x05\n        /* \"Erc20ForVoting.sol\":3936:3958  blacklistAddress[from] */\n      0x00\n        /* \"Erc20ForVoting.sol\":3953:3957  from */\n      dup7\n        /* \"Erc20ForVoting.sol\":3936:3958  blacklistAddress[from] */\n      0xffffffffffffffffffffffffffffffffffffffff\n      and\n      0xffffffffffffffffffffffffffffffffffffffff\n      and\n      dup2\n      mstore\n      0x20\n      add\n      swap1\n      dup2\n      mstore\n      0x20\n      add\n      0x00\n      keccak256\n      0x00\n      swap1\n      sload\n      swap1\n      0x0100\n      exp\n      swap1\n      div\n      0xff\n      and\n        /* \"Erc20ForVoting.sol\":3936:3965  blacklistAddress[from]==false */\n      iszero\n      iszero\n      eq\n        /* \"Erc20ForVoting.sol\":3928:3991  require(blacklistAddress[from]==false,\"Account is blacklisted\") */\n      tag_119\n      jumpi\n      mload(0x40)\n      0x08c379a000000000000000000000000000000000000000000000000000000000\n      dup2\n      mstore\n      0x04\n      add\n      tag_120\n      swap1\n      tag_121\n      jump\t// in\n    tag_120:\n      mload(0x40)\n      dup1\n      swap2\n      sub\n      swap1\n      revert\n    tag_119:\n        /* \"Erc20ForVoting.sol\":4033:4038  false */\n      0x00\n        /* \"Erc20ForVoting.sol\":4011:4038  blacklistAddress[to]==false */\n      iszero\n      iszero\n        /* \"Erc20ForVoting.sol\":4011:4027  blacklistAddress */\n      0x05\n        /* \"Erc20ForVoting.sol\":4011:4031  blacklistAddress[to] */\n      0x00\n        /* \"Erc20ForVoting.sol\":4028:4030  to */\n      dup6\n        /* \"Erc20ForVoting.sol\":4011:4031  blacklistAddress[to] */\n      0xffffffffffffffffffffffffffffffffffffffff\n      and\n      0xffffffffffffffffffffffffffffffffffffffff\n      and\n      dup2\n      mstore\n      0x20\n      add\n      swap1\n      dup2\n      mstore\n      0x20\n      add\n      0x00\n      keccak256\n      0x00\n      swap1\n      sload\n      swap1\n      0x0100\n      exp\n      swap1\n      div\n      0xff\n      and\n        /* \"Erc20ForVoting.sol\":4011:4038  blacklistAddress[to]==false */\n      iszero\n      iszero\n      eq\n        /* \"Erc20ForVoting.sol\":4003:4064  require(blacklistAddress[to]==false,\"Account is blacklisted\") */\n      tag_122\n      jumpi\n      mload(0x40)\n      0x08c379a000000000000000000000000000000000000000000000000000000000\n      dup2\n      mstore\n      0x04\n      add\n      tag_123\n      swap1\n      tag_121\n      jump\t// in\n    tag_123:\n      mload(0x40)\n      dup1\n      swap2\n      sub\n      swap1\n      revert\n    tag_122:\n        /* \"Erc20ForVoting.sol\":4097:4102  value */\n      dup2\n        /* \"Erc20ForVoting.sol\":4076:4089  balanceOfUser */\n      0x02\n        /* \"Erc20ForVoting.sol\":4076:4095  balanceOfUser[from] */\n      0x00\n        /* \"Erc20ForVoting.sol\":4090:4094  from */\n      dup7\n        /* \"Erc20ForVoting.sol\":4076:4095  balanceOfUser[from] */\n      0xffffffffffffffffffffffffffffffffffffffff\n      and\n      0xffffffffffffffffffffffffffffffffffffffff\n      and\n      dup2\n      mstore\n      0x20\n      add\n      swap1\n      dup2\n      mstore\n      0x20\n      add\n      0x00\n      keccak256\n      0x00\n        /* \"Erc20ForVoting.sol\":4076:4102  balanceOfUser[from]-=value */\n      dup3\n      dup3\n      sload\n      tag_124\n      swap2\n      swap1\n      tag_125\n      jump\t// in\n    tag_124:\n      swap3\n      pop\n      pop\n      dup2\n      swap1\n      sstore\n      pop\n        /* \"Erc20ForVoting.sol\":4183:4188  value */\n      dup2\n        /* \"Erc20ForVoting.sol\":4164:4177  balanceOfUser */\n      0x02\n        /* \"Erc20ForVoting.sol\":4164:4181  balanceOfUser[to] */\n      0x00\n        /* \"Erc20ForVoting.sol\":4178:4180  to */\n      dup6\n        /* \"Erc20ForVoting.sol\":4164:4181  balanceOfUser[to] */\n      0xffffffffffffffffffffffffffffffffffffffff\n      and\n      0xffffffffffffffffffffffffffffffffffffffff\n      and\n      dup2\n      mstore\n      0x20\n      add\n      swap1\n      dup2\n      mstore\n      0x20\n      add\n      0x00\n      keccak256\n      0x00\n        /* \"Erc20ForVoting.sol\":4164:4188  balanceOfUser[to]+=value */\n      dup3\n      dup3\n      sload\n      tag_126\n      swap2\n      swap1\n      tag_127\n      jump\t// in\n    tag_126:\n      swap3\n      pop\n      pop\n      dup2\n      swap1\n      sstore\n      pop\n        /* \"Erc20ForVoting.sol\":4273:4278  value */\n      dup2\n        /* \"Erc20ForVoting.sol\":4248:4261  allowedTokens */\n      0x03\n        /* \"Erc20ForVoting.sol\":4248:4267  allowedTokens[from] */\n      0x00\n        /* \"Erc20ForVoting.sol\":4262:4266  from */\n      dup7\n        /* \"Erc20ForVoting.sol\":4248:4267  allowedTokens[from] */\n      0xffffffffffffffffffffffffffffffffffffffff\n      and\n      0xffffffffffffffffffffffffffffffffffffffff\n      and\n      dup2\n      mstore\n      0x20\n      add\n      swap1\n      dup2\n      mstore\n      0x20\n      add\n      0x00\n      keccak256\n        /* \"Erc20ForVoting.sol\":4248:4271  allowedTokens[from][to] */\n      0x00\n        /* \"Erc20ForVoting.sol\":4268:4270  to */\n      dup6\n        /* \"Erc20ForVoting.sol\":4248:4271  allowedTokens[from][to] */\n      0xffffffffffffffffffffffffffffffffffffffff\n      and\n      0xffffffffffffffffffffffffffffffffffffffff\n      and\n      dup2\n      mstore\n      0x20\n      add\n      swap1\n      dup2\n      mstore\n      0x20\n      add\n      0x00\n      keccak256\n      0x00\n        /* \"Erc20ForVoting.sol\":4248:4278  allowedTokens[from][to]-=value */\n      dup3\n      dup3\n      sload\n      tag_128\n      swap2\n      swap1\n      tag_125\n      jump\t// in\n    tag_128:\n      swap3\n      pop\n      pop\n      dup2\n      swap1\n      sstore\n      pop\n        /* \"Erc20ForVoting.sol\":4366:4368  to */\n      dup3\n        /* \"Erc20ForVoting.sol\":4352:4375  Transfer(from,to,value) */\n      0xffffffffffffffffffffffffffffffffffffffff\n      and\n        /* \"Erc20ForVoting.sol\":4361:4365  from */\n      dup5\n        /* \"Erc20ForVoting.sol\":4352:4375  Transfer(from,to,value) */\n      0xffffffffffffffffffffffffffffffffffffffff\n      and\n      0xddf252ad1be2c89b69c2b068fc378daa952ba7f163c4a11628f55a4df523b3ef\n        /* \"Erc20ForVoting.sol\":4369:4374  value */\n      dup5\n        /* \"Erc20ForVoting.sol\":4352:4375  Transfer(from,to,value) */\n      mload(0x40)\n      tag_129\n      swap2\n      swap1\n      tag_36\n      jump\t// in\n    tag_129:\n      mload(0x40)\n      dup1\n      swap2\n      sub\n      swap1\n      log3\n        /* \"Erc20ForVoting.sol\":4394:4398  true */\n      0x01\n        /* \"Erc20ForVoting.sol\":4387:4398  return true */\n      swap1\n      pop\n        /* \"Erc20ForVoting.sol\":3432:4406  function transferFrom(address from, address to, uint256 value) external returns (bool) {... */\n      swap4\n      swap3\n      pop\n      pop\n      pop\n      jump\t// out\n        /* \"Erc20ForVoting.sol\":1592:1617  uint public decimals = 18 */\n    tag_46:\n      sload(0x06)\n      dup2\n      jump\t// out\n        /* \"Erc20ForVoting.sol\":6078:6158  function unpause() external onlyFounder{... */\n    tag_49:\n        /* \"Erc20ForVoting.sol\":1870:1877  founder */\n      0x00\n      dup1\n      sload\n      swap1\n      0x0100\n      exp\n      swap1\n      div\n      0xffffffffffffffffffffffffffffffffffffffff\n      and\n        /* \"Erc20ForVoting.sol\":1856:1877  msg.sender == founder */\n      0xffffffffffffffffffffffffffffffffffffffff\n      and\n        /* \"Erc20ForVoting.sol\":1856:1866  msg.sender */\n      caller\n        /* \"Erc20ForVoting.sol\":1856:1877  msg.sender == founder */\n      0xffffffffffffffffffffffffffffffffffffffff\n      and\n      eq\n        /* \"Erc20ForVoting.sol\":1848:1899  require(msg.sender == founder,\"You're not founder\") */\n      tag_131\n      jumpi\n      mload(0x40)\n      0x08c379a000000000000000000000000000000000000000000000000000000000\n      dup2\n      mstore\n      0x04\n      add\n      tag_132\n      swap1\n      tag_133\n      jump\t// in\n    tag_132:\n      mload(0x40)\n      dup1\n      swap2\n      sub\n      swap1\n      revert\n    tag_131:\n        /* \"Erc20ForVoting.sol\":6140:6145  false */\n      0x00\n        /* \"Erc20ForVoting.sol\":6132:6139  isPause */\n      0x07\n      0x00\n        /* \"Erc20ForVoting.sol\":6132:6145  isPause=false */\n      0x0100\n      exp\n      dup2\n      sload\n      dup2\n      0xff\n      mul\n      not\n      and\n      swap1\n      dup4\n      iszero\n      iszero\n      mul\n      or\n      swap1\n      sstore\n      pop\n        /* \"Erc20ForVoting.sol\":6078:6158  function unpause() external onlyFounder{... */\n      jump\t// out\n        /* \"Erc20ForVoting.sol\":4495:4708  function mint(address to, uint256 amount) external onlyFounder{... */\n    tag_52:\n        /* \"Erc20ForVoting.sol\":1870:1877  founder */\n      0x00\n      dup1\n      sload\n      swap1\n      0x0100\n      exp\n      swap1\n      div\n      0xffffffffffffffffffffffffffffffffffffffff\n      and\n        /* \"Erc20ForVoting.sol\":1856:1877  msg.sender == founder */\n      0xffffffffffffffffffffffffffffffffffffffff\n      and\n        /* \"Erc20ForVoting.sol\":1856:1866  msg.sender */\n      caller\n        /* \"Erc20ForVoting.sol\":1856:1877  msg.sender == founder */\n      0xffffffffffffffffffffffffffffffffffffffff\n      and\n      eq\n        /* \"Erc20ForVoting.sol\":1848:1899  require(msg.sender == founder,\"You're not founder\") */\n      tag_136\n      jumpi\n      mload(0x40)\n      0x08c379a000000000000000000000000000000000000000000000000000000000\n      dup2\n      mstore\n      0x04\n      add\n      tag_137\n      swap1\n      tag_133\n      jump\t// in\n    tag_137:\n      mload(0x40)\n      dup1\n      swap2\n      sub\n      swap1\n      revert\n    tag_136:\n        /* \"Erc20ForVoting.sol\":4581:4587  amount */\n      dup1\n        /* \"Erc20ForVoting.sol\":4568:4579  totalSupply */\n      0x01\n      0x00\n        /* \"Erc20ForVoting.sol\":4568:4587  totalSupply+=amount */\n      dup3\n      dup3\n      sload\n      tag_139\n      swap2\n      swap1\n      tag_127\n      jump\t// in\n    tag_139:\n      swap3\n      pop\n      pop\n      dup2\n      swap1\n      sstore\n      pop\n        /* \"Erc20ForVoting.sol\":4659:4665  amount */\n      dup1\n        /* \"Erc20ForVoting.sol\":4640:4653  balanceOfUser */\n      0x02\n        /* \"Erc20ForVoting.sol\":4640:4657  balanceOfUser[to] */\n      0x00\n        /* \"Erc20ForVoting.sol\":4654:4656  to */\n      dup5\n        /* \"Erc20ForVoting.sol\":4640:4657  balanceOfUser[to] */\n      0xffffffffffffffffffffffffffffffffffffffff\n      and\n      0xffffffffffffffffffffffffffffffffffffffff\n      and\n      dup2\n      mstore\n      0x20\n      add\n      swap1\n      dup2\n      mstore\n      0x20\n      add\n      0x00\n      keccak256\n      0x00\n        /* \"Erc20ForVoting.sol\":4640:4665  balanceOfUser[to]+=amount */\n      dup3\n      dup3\n      sload\n      tag_140\n      swap2\n      swap1\n      tag_127\n      jump\t// in\n    tag_140:\n      swap3\n      pop\n      pop\n      dup2\n      swap1\n      sstore\n      pop\n        /* \"Erc20ForVoting.sol\":4495:4708  function mint(address to, uint256 amount) external onlyFounder{... */\n      pop\n      pop\n      jump\t// out\n        /* \"Erc20ForVoting.sol\":4784:5162  function burn(uint256 amount) external {... */\n    tag_56:\n        /* \"Erc20ForVoting.sol\":4851:4852  0 */\n      0x00\n        /* \"Erc20ForVoting.sol\":4842:4848  amount */\n      dup2\n        /* \"Erc20ForVoting.sol\":4842:4852  amount > 0 */\n      gt\n        /* \"Erc20ForVoting.sol\":4834:4889  require(amount > 0, \"Amount must be greater than zero\") */\n      tag_142\n      jumpi\n      mload(0x40)\n      0x08c379a000000000000000000000000000000000000000000000000000000000\n      dup2\n      mstore\n      0x04\n      add\n      tag_143\n      swap1\n      tag_144\n      jump\t// in\n    tag_143:\n      mload(0x40)\n      dup1\n      swap2\n      sub\n      swap1\n      revert\n    tag_142:\n        /* \"Erc20ForVoting.sol\":4937:4943  amount */\n      dup1\n        /* \"Erc20ForVoting.sol\":4908:4921  balanceOfUser */\n      0x02\n        /* \"Erc20ForVoting.sol\":4908:4933  balanceOfUser[msg.sender] */\n      0x00\n        /* \"Erc20ForVoting.sol\":4922:4932  msg.sender */\n      caller\n        /* \"Erc20ForVoting.sol\":4908:4933  balanceOfUser[msg.sender] */\n      0xffffffffffffffffffffffffffffffffffffffff\n      and\n      0xffffffffffffffffffffffffffffffffffffffff\n      and\n      dup2\n      mstore\n      0x20\n      add\n      swap1\n      dup2\n      mstore\n      0x20\n      add\n      0x00\n      keccak256\n      sload\n        /* \"Erc20ForVoting.sol\":4908:4943  balanceOfUser[msg.sender] >= amount */\n      lt\n      iszero\n        /* \"Erc20ForVoting.sol\":4900:4976  require(balanceOfUser[msg.sender] >= amount, \"Insufficient balance to burn\") */\n      tag_145\n      jumpi\n      mload(0x40)\n      0x08c379a000000000000000000000000000000000000000000000000000000000\n      dup2\n      mstore\n      0x04\n      add\n      tag_146\n      swap1\n      tag_147\n      jump\t// in\n    tag_146:\n      mload(0x40)\n      dup1\n      swap2\n      sub\n      swap1\n      revert\n    tag_145:\n        /* \"Erc20ForVoting.sol\":5016:5022  amount */\n      dup1\n        /* \"Erc20ForVoting.sol\":4987:5000  balanceOfUser */\n      0x02\n        /* \"Erc20ForVoting.sol\":4987:5012  balanceOfUser[msg.sender] */\n      0x00\n        /* \"Erc20ForVoting.sol\":5001:5011  msg.sender */\n      caller\n        /* \"Erc20ForVoting.sol\":4987:5012  balanceOfUser[msg.sender] */\n      0xffffffffffffffffffffffffffffffffffffffff\n      and\n      0xffffffffffffffffffffffffffffffffffffffff\n      and\n      dup2\n      mstore\n      0x20\n      add\n      swap1\n      dup2\n      mstore\n      0x20\n      add\n      0x00\n      keccak256\n      0x00\n        /* \"Erc20ForVoting.sol\":4987:5022  balanceOfUser[msg.sender] -= amount */\n      dup3\n      dup3\n      sload\n      tag_148\n      swap2\n      swap1\n      tag_125\n      jump\t// in\n    tag_148:\n      swap3\n      pop\n      pop\n      dup2\n      swap1\n      sstore\n      pop\n        /* \"Erc20ForVoting.sol\":5048:5054  amount */\n      dup1\n        /* \"Erc20ForVoting.sol\":5033:5044  totalSupply */\n      0x01\n      0x00\n        /* \"Erc20ForVoting.sol\":5033:5054  totalSupply -= amount */\n      dup3\n      dup3\n      sload\n      tag_149\n      swap2\n      swap1\n      tag_125\n      jump\t// in\n    tag_149:\n      swap3\n      pop\n      pop\n      dup2\n      swap1\n      sstore\n      pop\n        /* \"Erc20ForVoting.sol\":5122:5123  0 */\n      0x00\n        /* \"Erc20ForVoting.sol\":5093:5133  Transfer(msg.sender, address(0), amount) */\n      0xffffffffffffffffffffffffffffffffffffffff\n      and\n        /* \"Erc20ForVoting.sol\":5102:5112  msg.sender */\n      caller\n        /* \"Erc20ForVoting.sol\":5093:5133  Transfer(msg.sender, address(0), amount) */\n      0xffffffffffffffffffffffffffffffffffffffff\n      and\n      0xddf252ad1be2c89b69c2b068fc378daa952ba7f163c4a11628f55a4df523b3ef\n        /* \"Erc20ForVoting.sol\":5126:5132  amount */\n      dup4\n        /* \"Erc20ForVoting.sol\":5093:5133  Transfer(msg.sender, address(0), amount) */\n      mload(0x40)\n      tag_150\n      swap2\n      swap1\n      tag_36\n      jump\t// in\n    tag_150:\n      mload(0x40)\n      dup1\n      swap2\n      sub\n      swap1\n      log3\n        /* \"Erc20ForVoting.sol\":4784:5162  function burn(uint256 amount) external {... */\n      pop\n      jump\t// out\n        /* \"Erc20ForVoting.sol\":1252:1312  mapping(address=>mapping(address=>uint))public allowedTokens */\n    tag_60:\n      mstore(0x20, 0x03)\n      dup2\n      0x00\n      mstore\n      mstore(0x20, keccak256(0x00, 0x40))\n      dup1\n      0x00\n      mstore\n      keccak256(0x00, 0x40)\n      0x00\n      swap2\n      pop\n      swap2\n      pop\n      pop\n      sload\n      dup2\n      jump\t// out\n        /* \"Erc20ForVoting.sol\":1046:1068  address public founder */\n    tag_63:\n      0x00\n      dup1\n      sload\n      swap1\n      0x0100\n      exp\n      swap1\n      div\n      0xffffffffffffffffffffffffffffffffffffffff\n      and\n      dup2\n      jump\t// out\n        /* \"Erc20ForVoting.sol\":1925:2041  function balanceOf(address account) external view returns (uint256) {... */\n    tag_68:\n        /* \"Erc20ForVoting.sol\":1984:1991  uint256 */\n      0x00\n        /* \"Erc20ForVoting.sol\":2011:2024  balanceOfUser */\n      0x02\n        /* \"Erc20ForVoting.sol\":2011:2033  balanceOfUser[account] */\n      0x00\n        /* \"Erc20ForVoting.sol\":2025:2032  account */\n      dup4\n        /* \"Erc20ForVoting.sol\":2011:2033  balanceOfUser[account] */\n      0xffffffffffffffffffffffffffffffffffffffff\n      and\n      0xffffffffffffffffffffffffffffffffffffffff\n      and\n      dup2\n      mstore\n      0x20\n      add\n      swap1\n      dup2\n      mstore\n      0x20\n      add\n      0x00\n      keccak256\n      sload\n        /* \"Erc20ForVoting.sol\":2004:2033  return balanceOfUser[account] */\n      swap1\n      pop\n        /* \"Erc20ForVoting.sol\":1925:2041  function balanceOf(address account) external view returns (uint256) {... */\n      swap2\n      swap1\n      pop\n      jump\t// out\n        /* \"Erc20ForVoting.sol\":6519:6636  function unblacklist(address account) external onlyFounder{... */\n    tag_72:\n        /* \"Erc20ForVoting.sol\":1870:1877  founder */\n      0x00\n      dup1\n      sload\n      swap1\n      0x0100\n      exp\n      swap1\n      div\n      0xffffffffffffffffffffffffffffffffffffffff\n      and\n        /* \"Erc20ForVoting.sol\":1856:1877  msg.sender == founder */\n      0xffffffffffffffffffffffffffffffffffffffff\n      and\n        /* \"Erc20ForVoting.sol\":1856:1866  msg.sender */\n      caller\n        /* \"Erc20ForVoting.sol\":1856:1877  msg.sender == founder */\n      0xffffffffffffffffffffffffffffffffffffffff\n      and\n      eq\n        /* \"Erc20ForVoting.sol\":1848:1899  require(msg.sender == founder,\"You're not founder\") */\n      tag_153\n      jumpi\n      mload(0x40)\n      0x08c379a000000000000000000000000000000000000000000000000000000000\n      dup2\n      mstore\n      0x04\n      add\n      tag_154\n      swap1\n      tag_133\n      jump\t// in\n    tag_154:\n      mload(0x40)\n      dup1\n      swap2\n      sub\n      swap1\n      revert\n    tag_153:\n        /* \"Erc20ForVoting.sol\":6618:6623  false */\n      0x00\n        /* \"Erc20ForVoting.sol\":6592:6608  blacklistAddress */\n      0x05\n        /* \"Erc20ForVoting.sol\":6592:6617  blacklistAddress[account] */\n      0x00\n        /* \"Erc20ForVoting.sol\":6609:6616  account */\n      dup4\n        /* \"Erc20ForVoting.sol\":6592:6617  blacklistAddress[account] */\n      0xffffffffffffffffffffffffffffffffffffffff\n      and\n      0xffffffffffffffffffffffffffffffffffffffff\n      and\n      dup2\n      mstore\n      0x20\n      add\n      swap1\n      dup2\n      mstore\n      0x20\n      add\n      0x00\n      keccak256\n      0x00\n        /* \"Erc20ForVoting.sol\":6592:6623  blacklistAddress[account]=false */\n      0x0100\n      exp\n      dup2\n      sload\n      dup2\n      0xff\n      mul\n      not\n      and\n      swap1\n      dup4\n      iszero\n      iszero\n      mul\n      or\n      swap1\n      sstore\n      pop\n        /* \"Erc20ForVoting.sol\":6519:6636  function unblacklist(address account) external onlyFounder{... */\n      pop\n      jump\t// out\n        /* \"Erc20ForVoting.sol\":5679:5800  function unfreezeAccount(address account) external onlyFounder  {... */\n    tag_75:\n        /* \"Erc20ForVoting.sol\":1870:1877  founder */\n      0x00\n      dup1\n      sload\n      swap1\n      0x0100\n      exp\n      swap1\n      div\n      0xffffffffffffffffffffffffffffffffffffffff\n      and\n        /* \"Erc20ForVoting.sol\":1856:1877  msg.sender == founder */\n      0xffffffffffffffffffffffffffffffffffffffff\n      and\n        /* \"Erc20ForVoting.sol\":1856:1866  msg.sender */\n      caller\n        /* \"Erc20ForVoting.sol\":1856:1877  msg.sender == founder */\n      0xffffffffffffffffffffffffffffffffffffffff\n      and\n      eq\n        /* \"Erc20ForVoting.sol\":1848:1899  require(msg.sender == founder,\"You're not founder\") */\n      tag_157\n      jumpi\n      mload(0x40)\n      0x08c379a000000000000000000000000000000000000000000000000000000000\n      dup2\n      mstore\n      0x04\n      add\n      tag_158\n      swap1\n      tag_133\n      jump\t// in\n    tag_158:\n      mload(0x40)\n      dup1\n      swap2\n      sub\n      swap1\n      revert\n    tag_157:\n        /* \"Erc20ForVoting.sol\":5782:5787  false */\n      0x00\n        /* \"Erc20ForVoting.sol\":5758:5772  freezedAccount */\n      0x04\n        /* \"Erc20ForVoting.sol\":5758:5781  freezedAccount[account] */\n      0x00\n        /* \"Erc20ForVoting.sol\":5773:5780  account */\n      dup4\n        /* \"Erc20ForVoting.sol\":5758:5781  freezedAccount[account] */\n      0xffffffffffffffffffffffffffffffffffffffff\n      and\n      0xffffffffffffffffffffffffffffffffffffffff\n      and\n      dup2\n      mstore\n      0x20\n      add\n      swap1\n      dup2\n      mstore\n      0x20\n      add\n      0x00\n      keccak256\n      0x00\n        /* \"Erc20ForVoting.sol\":5758:5787  freezedAccount[account]=false */\n      0x0100\n      exp\n      dup2\n      sload\n      dup2\n      0xff\n      mul\n      not\n      and\n      swap1\n      dup4\n      iszero\n      iszero\n      mul\n      or\n      swap1\n      sstore\n      pop\n        /* \"Erc20ForVoting.sol\":5679:5800  function unfreezeAccount(address account) external onlyFounder  {... */\n      pop\n      jump\t// out\n        /* \"Erc20ForVoting.sol\":5930:6007  function pause() external onlyFounder{... */\n    tag_77:\n        /* \"Erc20ForVoting.sol\":1870:1877  founder */\n      0x00\n      dup1\n      sload\n      swap1\n      0x0100\n      exp\n      swap1\n      div\n      0xffffffffffffffffffffffffffffffffffffffff\n      and\n        /* \"Erc20ForVoting.sol\":1856:1877  msg.sender == founder */\n      0xffffffffffffffffffffffffffffffffffffffff\n      and\n        /* \"Erc20ForVoting.sol\":1856:1866  msg.sender */\n      caller\n        /* \"Erc20ForVoting.sol\":1856:1877  msg.sender == founder */\n      0xffffffffffffffffffffffffffffffffffffffff\n      and\n      eq\n        /* \"Erc20ForVoting.sol\":1848:1899  require(msg.sender == founder,\"You're not founder\") */\n      tag_161\n      jumpi\n      mload(0x40)\n      0x08c379a000000000000000000000000000000000000000000000000000000000\n      dup2\n      mstore\n      0x04\n      add\n      tag_162\n      swap1\n      tag_133\n      jump\t// in\n    tag_162:\n      mload(0x40)\n      dup1\n      swap2\n      sub\n      swap1\n      revert\n    tag_161:\n        /* \"Erc20ForVoting.sol\":5990:5994  true */\n      0x01\n        /* \"Erc20ForVoting.sol\":5982:5989  isPause */\n      0x07\n      0x00\n        /* \"Erc20ForVoting.sol\":5982:5994  isPause=true */\n      0x0100\n      exp\n      dup2\n      sload\n      dup2\n      0xff\n      mul\n      not\n      and\n      swap1\n      dup4\n      iszero\n      iszero\n      mul\n      or\n      swap1\n      sstore\n      pop\n        /* \"Erc20ForVoting.sol\":5930:6007  function pause() external onlyFounder{... */\n      jump\t// out\n        /* \"Erc20ForVoting.sol\":2049:2923  function transfer(address to, uint256 value) external returns (bool) {... */\n    tag_80:\n        /* \"Erc20ForVoting.sol\":2112:2116  bool */\n      0x00\n        /* \"Erc20ForVoting.sol\":2150:2155  false */\n      dup1\n        /* \"Erc20ForVoting.sol\":2141:2155  isPause==false */\n      iszero\n      iszero\n        /* \"Erc20ForVoting.sol\":2141:2148  isPause */\n      0x07\n      0x00\n      swap1\n      sload\n      swap1\n      0x0100\n      exp\n      swap1\n      div\n      0xff\n      and\n        /* \"Erc20ForVoting.sol\":2141:2155  isPause==false */\n      iszero\n      iszero\n      eq\n        /* \"Erc20ForVoting.sol\":2133:2174  require(isPause==false,\"Transfer paused\") */\n      tag_165\n      jumpi\n      mload(0x40)\n      0x08c379a000000000000000000000000000000000000000000000000000000000\n      dup2\n      mstore\n      0x04\n      add\n      tag_166\n      swap1\n      tag_167\n      jump\t// in\n    tag_166:\n      mload(0x40)\n      dup1\n      swap2\n      sub\n      swap1\n      revert\n    tag_165:\n        /* \"Erc20ForVoting.sol\":2210:2211  0 */\n      0x00\n        /* \"Erc20ForVoting.sol\":2197:2212  to!= address(0) */\n      0xffffffffffffffffffffffffffffffffffffffff\n      and\n        /* \"Erc20ForVoting.sol\":2197:2199  to */\n      dup4\n        /* \"Erc20ForVoting.sol\":2197:2212  to!= address(0) */\n      0xffffffffffffffffffffffffffffffffffffffff\n      and\n      sub\n        /* \"Erc20ForVoting.sol\":2189:2231  require(to!= address(0),\"Invalid address\") */\n      tag_168\n      jumpi\n      mload(0x40)\n      0x08c379a000000000000000000000000000000000000000000000000000000000\n      dup2\n      mstore\n      0x04\n      add\n      tag_169\n      swap1\n      tag_98\n      jump\t// in\n    tag_169:\n      mload(0x40)\n      dup1\n      swap2\n      sub\n      swap1\n      revert\n    tag_168:\n        /* \"Erc20ForVoting.sol\":2282:2287  value */\n      dup2\n        /* \"Erc20ForVoting.sol\":2254:2267  balanceOfUser */\n      0x02\n        /* \"Erc20ForVoting.sol\":2254:2279  balanceOfUser[msg.sender] */\n      0x00\n        /* \"Erc20ForVoting.sol\":2268:2278  msg.sender */\n      caller\n        /* \"Erc20ForVoting.sol\":2254:2279  balanceOfUser[msg.sender] */\n      0xffffffffffffffffffffffffffffffffffffffff\n      and\n      0xffffffffffffffffffffffffffffffffffffffff\n      and\n      dup2\n      mstore\n      0x20\n      add\n      swap1\n      dup2\n      mstore\n      0x20\n      add\n      0x00\n      keccak256\n      sload\n        /* \"Erc20ForVoting.sol\":2254:2287  balanceOfUser[msg.sender]>= value */\n      lt\n      iszero\n        /* \"Erc20ForVoting.sol\":2246:2309  require(balanceOfUser[msg.sender]>= value,\"Insufficient Value\") */\n      tag_170\n      jumpi\n      mload(0x40)\n      0x08c379a000000000000000000000000000000000000000000000000000000000\n      dup2\n      mstore\n      0x04\n      add\n      tag_171\n      swap1\n      tag_101\n      jump\t// in\n    tag_171:\n      mload(0x40)\n      dup1\n      swap2\n      sub\n      swap1\n      revert\n    tag_170:\n        /* \"Erc20ForVoting.sol\":2360:2365  false */\n      0x00\n        /* \"Erc20ForVoting.sol\":2332:2365  freezedAccount[msg.sender]==false */\n      iszero\n      iszero\n        /* \"Erc20ForVoting.sol\":2332:2346  freezedAccount */\n      0x04\n        /* \"Erc20ForVoting.sol\":2332:2358  freezedAccount[msg.sender] */\n      0x00\n        /* \"Erc20ForVoting.sol\":2347:2357  msg.sender */\n      caller\n        /* \"Erc20ForVoting.sol\":2332:2358  freezedAccount[msg.sender] */\n      0xffffffffffffffffffffffffffffffffffffffff\n      and\n      0xffffffffffffffffffffffffffffffffffffffff\n      and\n      dup2\n      mstore\n      0x20\n      add\n      swap1\n      dup2\n      mstore\n      0x20\n      add\n      0x00\n      keccak256\n      0x00\n      swap1\n      sload\n      swap1\n      0x0100\n      exp\n      swap1\n      div\n      0xff\n      and\n        /* \"Erc20ForVoting.sol\":2332:2365  freezedAccount[msg.sender]==false */\n      iszero\n      iszero\n      eq\n        /* \"Erc20ForVoting.sol\":2324:2387  require(freezedAccount[msg.sender]==false,\"You're not allowed\") */\n      tag_172\n      jumpi\n      mload(0x40)\n      0x08c379a000000000000000000000000000000000000000000000000000000000\n      dup2\n      mstore\n      0x04\n      add\n      tag_173\n      swap1\n      tag_115\n      jump\t// in\n    tag_173:\n      mload(0x40)\n      dup1\n      swap2\n      sub\n      swap1\n      revert\n    tag_172:\n        /* \"Erc20ForVoting.sol\":2430:2435  false */\n      0x00\n        /* \"Erc20ForVoting.sol\":2410:2435  freezedAccount[to]==false */\n      iszero\n      iszero\n        /* \"Erc20ForVoting.sol\":2410:2424  freezedAccount */\n      0x04\n        /* \"Erc20ForVoting.sol\":2410:2428  freezedAccount[to] */\n      0x00\n        /* \"Erc20ForVoting.sol\":2425:2427  to */\n      dup6\n        /* \"Erc20ForVoting.sol\":2410:2428  freezedAccount[to] */\n      0xffffffffffffffffffffffffffffffffffffffff\n      and\n      0xffffffffffffffffffffffffffffffffffffffff\n      and\n      dup2\n      mstore\n      0x20\n      add\n      swap1\n      dup2\n      mstore\n      0x20\n      add\n      0x00\n      keccak256\n      0x00\n      swap1\n      sload\n      swap1\n      0x0100\n      exp\n      swap1\n      div\n      0xff\n      and\n        /* \"Erc20ForVoting.sol\":2410:2435  freezedAccount[to]==false */\n      iszero\n      iszero\n      eq\n        /* \"Erc20ForVoting.sol\":2402:2484  require(freezedAccount[to]==false,\"This address is not allowed to receive tokens\") */\n      tag_174\n      jumpi\n      mload(0x40)\n      0x08c379a000000000000000000000000000000000000000000000000000000000\n      dup2\n      mstore\n      0x04\n      add\n      tag_175\n      swap1\n      tag_118\n      jump\t// in\n    tag_175:\n      mload(0x40)\n      dup1\n      swap2\n      sub\n      swap1\n      revert\n    tag_174:\n        /* \"Erc20ForVoting.sol\":2527:2532  value */\n      dup2\n        /* \"Erc20ForVoting.sol\":2499:2512  balanceOfUser */\n      0x02\n        /* \"Erc20ForVoting.sol\":2499:2524  balanceOfUser[msg.sender] */\n      0x00\n        /* \"Erc20ForVoting.sol\":2513:2523  msg.sender */\n      caller\n        /* \"Erc20ForVoting.sol\":2499:2524  balanceOfUser[msg.sender] */\n      0xffffffffffffffffffffffffffffffffffffffff\n      and\n      0xffffffffffffffffffffffffffffffffffffffff\n      and\n      dup2\n      mstore\n      0x20\n      add\n      swap1\n      dup2\n      mstore\n      0x20\n      add\n      0x00\n      keccak256\n      0x00\n        /* \"Erc20ForVoting.sol\":2499:2532  balanceOfUser[msg.sender]-= value */\n      dup3\n      dup3\n      sload\n      tag_176\n      swap2\n      swap1\n      tag_125\n      jump\t// in\n    tag_176:\n      swap3\n      pop\n      pop\n      dup2\n      swap1\n      sstore\n      pop\n        /* \"Erc20ForVoting.sol\":2628:2633  value */\n      dup2\n        /* \"Erc20ForVoting.sol\":2609:2622  balanceOfUser */\n      0x02\n        /* \"Erc20ForVoting.sol\":2609:2626  balanceOfUser[to] */\n      0x00\n        /* \"Erc20ForVoting.sol\":2623:2625  to */\n      dup6\n        /* \"Erc20ForVoting.sol\":2609:2626  balanceOfUser[to] */\n      0xffffffffffffffffffffffffffffffffffffffff\n      and\n      0xffffffffffffffffffffffffffffffffffffffff\n      and\n      dup2\n      mstore\n      0x20\n      add\n      swap1\n      dup2\n      mstore\n      0x20\n      add\n      0x00\n      keccak256\n      0x00\n        /* \"Erc20ForVoting.sol\":2609:2633  balanceOfUser[to]+=value */\n      dup3\n      dup3\n      sload\n      tag_177\n      swap2\n      swap1\n      tag_127\n      jump\t// in\n    tag_177:\n      swap3\n      pop\n      pop\n      dup2\n      swap1\n      sstore\n      pop\n        /* \"Erc20ForVoting.sol\":2733:2738  false */\n      0x00\n        /* \"Erc20ForVoting.sol\":2703:2738  blacklistAddress[msg.sender]==false */\n      iszero\n      iszero\n        /* \"Erc20ForVoting.sol\":2703:2719  blacklistAddress */\n      0x05\n        /* \"Erc20ForVoting.sol\":2703:2731  blacklistAddress[msg.sender] */\n      0x00\n        /* \"Erc20ForVoting.sol\":2720:2730  msg.sender */\n      caller\n        /* \"Erc20ForVoting.sol\":2703:2731  blacklistAddress[msg.sender] */\n      0xffffffffffffffffffffffffffffffffffffffff\n      and\n      0xffffffffffffffffffffffffffffffffffffffff\n      and\n      dup2\n      mstore\n      0x20\n      add\n      swap1\n      dup2\n      mstore\n      0x20\n      add\n      0x00\n      keccak256\n      0x00\n      swap1\n      sload\n      swap1\n      0x0100\n      exp\n      swap1\n      div\n      0xff\n      and\n        /* \"Erc20ForVoting.sol\":2703:2738  blacklistAddress[msg.sender]==false */\n      iszero\n      iszero\n      eq\n        /* \"Erc20ForVoting.sol\":2695:2764  require(blacklistAddress[msg.sender]==false,\"Account is blacklisted\") */\n      tag_178\n      jumpi\n      mload(0x40)\n      0x08c379a000000000000000000000000000000000000000000000000000000000\n      dup2\n      mstore\n      0x04\n      add\n      tag_179\n      swap1\n      tag_121\n      jump\t// in\n    tag_179:\n      mload(0x40)\n      dup1\n      swap2\n      sub\n      swap1\n      revert\n    tag_178:\n        /* \"Erc20ForVoting.sol\":2809:2814  false */\n      0x00\n        /* \"Erc20ForVoting.sol\":2787:2814  blacklistAddress[to]==false */\n      iszero\n      iszero\n        /* \"Erc20ForVoting.sol\":2787:2803  blacklistAddress */\n      0x05\n        /* \"Erc20ForVoting.sol\":2787:2807  blacklistAddress[to] */\n      0x00\n        /* \"Erc20ForVoting.sol\":2804:2806  to */\n      dup6\n        /* \"Erc20ForVoting.sol\":2787:2807  blacklistAddress[to] */\n      0xffffffffffffffffffffffffffffffffffffffff\n      and\n      0xffffffffffffffffffffffffffffffffffffffff\n      and\n      dup2\n      mstore\n      0x20\n      add\n      swap1\n      dup2\n      mstore\n      0x20\n      add\n      0x00\n      keccak256\n      0x00\n      swap1\n      sload\n      swap1\n      0x0100\n      exp\n      swap1\n      div\n      0xff\n      and\n        /* \"Erc20ForVoting.sol\":2787:2814  blacklistAddress[to]==false */\n      iszero\n      iszero\n      eq\n        /* \"Erc20ForVoting.sol\":2779:2840  require(blacklistAddress[to]==false,\"Account is blacklisted\") */\n      tag_180\n      jumpi\n      mload(0x40)\n      0x08c379a000000000000000000000000000000000000000000000000000000000\n      dup2\n      mstore\n      0x04\n      add\n      tag_181\n      swap1\n      tag_121\n      jump\t// in\n    tag_181:\n      mload(0x40)\n      dup1\n      swap2\n      sub\n      swap1\n      revert\n    tag_180:\n        /* \"Erc20ForVoting.sol\":2880:2882  to */\n      dup3\n        /* \"Erc20ForVoting.sol\":2860:2889  Transfer(msg.sender,to,value) */\n      0xffffffffffffffffffffffffffffffffffffffff\n      and\n        /* \"Erc20ForVoting.sol\":2869:2879  msg.sender */\n      caller\n        /* \"Erc20ForVoting.sol\":2860:2889  Transfer(msg.sender,to,value) */\n      0xffffffffffffffffffffffffffffffffffffffff\n      and\n      0xddf252ad1be2c89b69c2b068fc378daa952ba7f163c4a11628f55a4df523b3ef\n        /* \"Erc20ForVoting.sol\":2883:2888  value */\n      dup5\n        /* \"Erc20ForVoting.sol\":2860:2889  Transfer(msg.sender,to,value) */\n      mload(0x40)\n      tag_182\n      swap2\n      swap1\n      tag_36\n      jump\t// in\n    tag_182:\n      mload(0x40)\n      dup1\n      swap2\n      sub\n      swap1\n      log3\n        /* \"Erc20ForVoting.sol\":2911:2915  true */\n      0x01\n        /* \"Erc20ForVoting.sol\":2904:2915  return true */\n      swap1\n      pop\n        /* \"Erc20ForVoting.sol\":2049:2923  function transfer(address to, uint256 value) external returns (bool) {... */\n      swap3\n      swap2\n      pop\n      pop\n      jump\t// out\n        /* \"Erc20ForVoting.sol\":3282:3424  function allowance(address owner, address spender) external view returns (uint256) {... */\n    tag_84:\n        /* \"Erc20ForVoting.sol\":3356:3363  uint256 */\n      0x00\n        /* \"Erc20ForVoting.sol\":3387:3400  allowedTokens */\n      0x03\n        /* \"Erc20ForVoting.sol\":3387:3407  allowedTokens[owner] */\n      0x00\n        /* \"Erc20ForVoting.sol\":3401:3406  owner */\n      dup5\n        /* \"Erc20ForVoting.sol\":3387:3407  allowedTokens[owner] */\n      0xffffffffffffffffffffffffffffffffffffffff\n      and\n      0xffffffffffffffffffffffffffffffffffffffff\n      and\n      dup2\n      mstore\n      0x20\n      add\n      swap1\n      dup2\n      mstore\n      0x20\n      add\n      0x00\n      keccak256\n        /* \"Erc20ForVoting.sol\":3387:3416  allowedTokens[owner][spender] */\n      0x00\n        /* \"Erc20ForVoting.sol\":3408:3415  spender */\n      dup4\n        /* \"Erc20ForVoting.sol\":3387:3416  allowedTokens[owner][spender] */\n      0xffffffffffffffffffffffffffffffffffffffff\n      and\n      0xffffffffffffffffffffffffffffffffffffffff\n      and\n      dup2\n      mstore\n      0x20\n      add\n      swap1\n      dup2\n      mstore\n      0x20\n      add\n      0x00\n      keccak256\n      sload\n        /* \"Erc20ForVoting.sol\":3380:3416  return allowedTokens[owner][spender] */\n      swap1\n      pop\n        /* \"Erc20ForVoting.sol\":3282:3424  function allowance(address owner, address spender) external view returns (uint256) {... */\n      swap3\n      swap2\n      pop\n      pop\n      jump\t// out\n        /* \"Erc20ForVoting.sol\":5321:5514  function freezeAccount(address account) external onlyFounder {... */\n    tag_88:\n        /* \"Erc20ForVoting.sol\":1870:1877  founder */\n      0x00\n      dup1\n      sload\n      swap1\n      0x0100\n      exp\n      swap1\n      div\n      0xffffffffffffffffffffffffffffffffffffffff\n      and\n        /* \"Erc20ForVoting.sol\":1856:1877  msg.sender == founder */\n      0xffffffffffffffffffffffffffffffffffffffff\n      and\n        /* \"Erc20ForVoting.sol\":1856:1866  msg.sender */\n      caller\n        /* \"Erc20ForVoting.sol\":1856:1877  msg.sender == founder */\n      0xffffffffffffffffffffffffffffffffffffffff\n      and\n      eq\n        /* \"Erc20ForVoting.sol\":1848:1899  require(msg.sender == founder,\"You're not founder\") */\n      tag_185\n      jumpi\n      mload(0x40)\n      0x08c379a000000000000000000000000000000000000000000000000000000000\n      dup2\n      mstore\n      0x04\n      add\n      tag_186\n      swap1\n      tag_133\n      jump\t// in\n    tag_186:\n      mload(0x40)\n      dup1\n      swap2\n      sub\n      swap1\n      revert\n    tag_185:\n        /* \"Erc20ForVoting.sol\":5484:5488  true */\n      0x01\n        /* \"Erc20ForVoting.sol\":5460:5474  freezedAccount */\n      0x04\n        /* \"Erc20ForVoting.sol\":5460:5483  freezedAccount[account] */\n      0x00\n        /* \"Erc20ForVoting.sol\":5475:5482  account */\n      dup4\n        /* \"Erc20ForVoting.sol\":5460:5483  freezedAccount[account] */\n      0xffffffffffffffffffffffffffffffffffffffff\n      and\n      0xffffffffffffffffffffffffffffffffffffffff\n      and\n      dup2\n      mstore\n      0x20\n      add\n      swap1\n      dup2\n      mstore\n      0x20\n      add\n      0x00\n      keccak256\n      0x00\n        /* \"Erc20ForVoting.sol\":5460:5488  freezedAccount[account]=true */\n      0x0100\n      exp\n      dup2\n      sload\n      dup2\n      0xff\n      mul\n      not\n      and\n      swap1\n      dup4\n      iszero\n      iszero\n      mul\n      or\n      swap1\n      sstore\n      pop\n        /* \"Erc20ForVoting.sol\":5321:5514  function freezeAccount(address account) external onlyFounder {... */\n      pop\n      jump\t// out\n        /* \"Erc20ForVoting.sol\":6760:6871  function transferOwnership(address newOwner) external onlyFounder{... */\n    tag_91:\n        /* \"Erc20ForVoting.sol\":1870:1877  founder */\n      0x00\n      dup1\n      sload\n      swap1\n      0x0100\n      exp\n      swap1\n      div\n      0xffffffffffffffffffffffffffffffffffffffff\n      and\n        /* \"Erc20ForVoting.sol\":1856:1877  msg.sender == founder */\n      0xffffffffffffffffffffffffffffffffffffffff\n      and\n        /* \"Erc20ForVoting.sol\":1856:1866  msg.sender */\n      caller\n        /* \"Erc20ForVoting.sol\":1856:1877  msg.sender == founder */\n      0xffffffffffffffffffffffffffffffffffffffff\n      and\n      eq\n        /* \"Erc20ForVoting.sol\":1848:1899  require(msg.sender == founder,\"You're not founder\") */\n      tag_189\n      jumpi\n      mload(0x40)\n      0x08c379a000000000000000000000000000000000000000000000000000000000\n      dup2\n      mstore\n      0x04\n      add\n      tag_190\n      swap1\n      tag_133\n      jump\t// in\n    tag_190:\n      mload(0x40)\n      dup1\n      swap2\n      sub\n      swap1\n      revert\n    tag_189:\n        /* \"Erc20ForVoting.sol\":6850:6858  newOwner */\n      dup1\n        /* \"Erc20ForVoting.sol\":6840:6847  founder */\n      0x00\n      dup1\n        /* \"Erc20ForVoting.sol\":6840:6858  founder = newOwner */\n      0x0100\n      exp\n      dup2\n      sload\n      dup2\n      0xffffffffffffffffffffffffffffffffffffffff\n      mul\n      not\n      and\n      swap1\n      dup4\n      0xffffffffffffffffffffffffffffffffffffffff\n      and\n      mul\n      or\n      swap1\n      sstore\n      pop\n        /* \"Erc20ForVoting.sol\":6760:6871  function transferOwnership(address newOwner) external onlyFounder{... */\n      pop\n      jump\t// out\n        /* \"Erc20ForVoting.sol\":6210:6324  function blacklist(address account) external onlyFounder{... */\n    tag_94:\n        /* \"Erc20ForVoting.sol\":1870:1877  founder */\n      0x00\n      dup1\n      sload\n      swap1\n      0x0100\n      exp\n      swap1\n      div\n      0xffffffffffffffffffffffffffffffffffffffff\n      and\n        /* \"Erc20ForVoting.sol\":1856:1877  msg.sender == founder */\n      0xffffffffffffffffffffffffffffffffffffffff\n      and\n        /* \"Erc20ForVoting.sol\":1856:1866  msg.sender */\n      caller\n        /* \"Erc20ForVoting.sol\":1856:1877  msg.sender == founder */\n      0xffffffffffffffffffffffffffffffffffffffff\n      and\n      eq\n        /* \"Erc20ForVoting.sol\":1848:1899  require(msg.sender == founder,\"You're not founder\") */\n      tag_193\n      jumpi\n      mload(0x40)\n      0x08c379a000000000000000000000000000000000000000000000000000000000\n      dup2\n      mstore\n      0x04\n      add\n      tag_194\n      swap1\n      tag_133\n      jump\t// in\n    tag_194:\n      mload(0x40)\n      dup1\n      swap2\n      sub\n      swap1\n      revert\n    tag_193:\n        /* \"Erc20ForVoting.sol\":6307:6311  true */\n      0x01\n        /* \"Erc20ForVoting.sol\":6281:6297  blacklistAddress */\n      0x05\n        /* \"Erc20ForVoting.sol\":6281:6306  blacklistAddress[account] */\n      0x00\n        /* \"Erc20ForVoting.sol\":6298:6305  account */\n      dup4\n        /* \"Erc20ForVoting.sol\":6281:6306  blacklistAddress[account] */\n      0xffffffffffffffffffffffffffffffffffffffff\n      and\n      0xffffffffffffffffffffffffffffffffffffffff\n      and\n      dup2\n      mstore\n      0x20\n      add\n      swap1\n      dup2\n      mstore\n      0x20\n      add\n      0x00\n      keccak256\n      0x00\n        /* \"Erc20ForVoting.sol\":6281:6311  blacklistAddress[account]=true */\n      0x0100\n      exp\n      dup2\n      sload\n      dup2\n      0xff\n      mul\n      not\n      and\n      swap1\n      dup4\n      iszero\n      iszero\n      mul\n      or\n      swap1\n      sstore\n      pop\n        /* \"Erc20ForVoting.sol\":6210:6324  function blacklist(address account) external onlyFounder{... */\n      pop\n      jump\t// out\n        /* \"#utility.yul\":88:205   */\n    tag_197:\n        /* \"#utility.yul\":197:198   */\n      0x00\n        /* \"#utility.yul\":194:195   */\n      dup1\n        /* \"#utility.yul\":187:199   */\n      revert\n        /* \"#utility.yul\":334:460   */\n    tag_199:\n        /* \"#utility.yul\":371:378   */\n      0x00\n        /* \"#utility.yul\":411:453   */\n      0xffffffffffffffffffffffffffffffffffffffff\n        /* \"#utility.yul\":404:409   */\n      dup3\n        /* \"#utility.yul\":400:454   */\n      and\n        /* \"#utility.yul\":389:454   */\n      swap1\n      pop\n        /* \"#utility.yul\":334:460   */\n      swap2\n      swap1\n      pop\n      jump\t// out\n        /* \"#utility.yul\":466:562   */\n    tag_200:\n        /* \"#utility.yul\":503:510   */\n      0x00\n        /* \"#utility.yul\":532:556   */\n      tag_238\n        /* \"#utility.yul\":550:555   */\n      dup3\n        /* \"#utility.yul\":532:556   */\n      tag_199\n      jump\t// in\n    tag_238:\n        /* \"#utility.yul\":521:556   */\n      swap1\n      pop\n        /* \"#utility.yul\":466:562   */\n      swap2\n      swap1\n      pop\n      jump\t// out\n        /* \"#utility.yul\":568:690   */\n    tag_201:\n        /* \"#utility.yul\":641:665   */\n      tag_240\n        /* \"#utility.yul\":659:664   */\n      dup2\n        /* \"#utility.yul\":641:665   */\n      tag_200\n      jump\t// in\n    tag_240:\n        /* \"#utility.yul\":634:639   */\n      dup2\n        /* \"#utility.yul\":631:666   */\n      eq\n        /* \"#utility.yul\":621:684   */\n      tag_241\n      jumpi\n        /* \"#utility.yul\":680:681   */\n      0x00\n        /* \"#utility.yul\":677:678   */\n      dup1\n        /* \"#utility.yul\":670:682   */\n      revert\n        /* \"#utility.yul\":621:684   */\n    tag_241:\n        /* \"#utility.yul\":568:690   */\n      pop\n      jump\t// out\n        /* \"#utility.yul\":696:835   */\n    tag_202:\n        /* \"#utility.yul\":742:747   */\n      0x00\n        /* \"#utility.yul\":780:786   */\n      dup2\n        /* \"#utility.yul\":767:787   */\n      calldataload\n        /* \"#utility.yul\":758:787   */\n      swap1\n      pop\n        /* \"#utility.yul\":796:829   */\n      tag_243\n        /* \"#utility.yul\":823:828   */\n      dup2\n        /* \"#utility.yul\":796:829   */\n      tag_201\n      jump\t// in\n    tag_243:\n        /* \"#utility.yul\":696:835   */\n      swap3\n      swap2\n      pop\n      pop\n      jump\t// out\n        /* \"#utility.yul\":841:918   */\n    tag_203:\n        /* \"#utility.yul\":878:885   */\n      0x00\n        /* \"#utility.yul\":907:912   */\n      dup2\n        /* \"#utility.yul\":896:912   */\n      swap1\n      pop\n        /* \"#utility.yul\":841:918   */\n      swap2\n      swap1\n      pop\n      jump\t// out\n        /* \"#utility.yul\":924:1046   */\n    tag_204:\n        /* \"#utility.yul\":997:1021   */\n      tag_246\n        /* \"#utility.yul\":1015:1020   */\n      dup2\n        /* \"#utility.yul\":997:1021   */\n      tag_203\n      jump\t// in\n    tag_246:\n        /* \"#utility.yul\":990:995   */\n      dup2\n        /* \"#utility.yul\":987:1022   */\n      eq\n        /* \"#utility.yul\":977:1040   */\n      tag_247\n      jumpi\n        /* \"#utility.yul\":1036:1037   */\n      0x00\n        /* \"#utility.yul\":1033:1034   */\n      dup1\n        /* \"#utility.yul\":1026:1038   */\n      revert\n        /* \"#utility.yul\":977:1040   */\n    tag_247:\n        /* \"#utility.yul\":924:1046   */\n      pop\n      jump\t// out\n        /* \"#utility.yul\":1052:1191   */\n    tag_205:\n        /* \"#utility.yul\":1098:1103   */\n      0x00\n        /* \"#utility.yul\":1136:1142   */\n      dup2\n        /* \"#utility.yul\":1123:1143   */\n      calldataload\n        /* \"#utility.yul\":1114:1143   */\n      swap1\n      pop\n        /* \"#utility.yul\":1152:1185   */\n      tag_249\n        /* \"#utility.yul\":1179:1184   */\n      dup2\n        /* \"#utility.yul\":1152:1185   */\n      tag_204\n      jump\t// in\n    tag_249:\n        /* \"#utility.yul\":1052:1191   */\n      swap3\n      swap2\n      pop\n      pop\n      jump\t// out\n        /* \"#utility.yul\":1197:1671   */\n    tag_27:\n        /* \"#utility.yul\":1265:1271   */\n      0x00\n        /* \"#utility.yul\":1273:1279   */\n      dup1\n        /* \"#utility.yul\":1322:1324   */\n      0x40\n        /* \"#utility.yul\":1310:1319   */\n      dup4\n        /* \"#utility.yul\":1301:1308   */\n      dup6\n        /* \"#utility.yul\":1297:1320   */\n      sub\n        /* \"#utility.yul\":1293:1325   */\n      slt\n        /* \"#utility.yul\":1290:1409   */\n      iszero\n      tag_251\n      jumpi\n        /* \"#utility.yul\":1328:1407   */\n      tag_252\n      tag_197\n      jump\t// in\n    tag_252:\n        /* \"#utility.yul\":1290:1409   */\n    tag_251:\n        /* \"#utility.yul\":1448:1449   */\n      0x00\n        /* \"#utility.yul\":1473:1526   */\n      tag_253\n        /* \"#utility.yul\":1518:1525   */\n      dup6\n        /* \"#utility.yul\":1509:1515   */\n      dup3\n        /* \"#utility.yul\":1498:1507   */\n      dup7\n        /* \"#utility.yul\":1494:1516   */\n      add\n        /* \"#utility.yul\":1473:1526   */\n      tag_202\n      jump\t// in\n    tag_253:\n        /* \"#utility.yul\":1463:1526   */\n      swap3\n      pop\n        /* \"#utility.yul\":1419:1536   */\n      pop\n        /* \"#utility.yul\":1575:1577   */\n      0x20\n        /* \"#utility.yul\":1601:1654   */\n      tag_254\n        /* \"#utility.yul\":1646:1653   */\n      dup6\n        /* \"#utility.yul\":1637:1643   */\n      dup3\n        /* \"#utility.yul\":1626:1635   */\n      dup7\n        /* \"#utility.yul\":1622:1644   */\n      add\n        /* \"#utility.yul\":1601:1654   */\n      tag_205\n      jump\t// in\n    tag_254:\n        /* \"#utility.yul\":1591:1654   */\n      swap2\n      pop\n        /* \"#utility.yul\":1546:1664   */\n      pop\n        /* \"#utility.yul\":1197:1671   */\n      swap3\n      pop\n      swap3\n      swap1\n      pop\n      jump\t// out\n        /* \"#utility.yul\":1677:1767   */\n    tag_206:\n        /* \"#utility.yul\":1711:1718   */\n      0x00\n        /* \"#utility.yul\":1754:1759   */\n      dup2\n        /* \"#utility.yul\":1747:1760   */\n      iszero\n        /* \"#utility.yul\":1740:1761   */\n      iszero\n        /* \"#utility.yul\":1729:1761   */\n      swap1\n      pop\n        /* \"#utility.yul\":1677:1767   */\n      swap2\n      swap1\n      pop\n      jump\t// out\n        /* \"#utility.yul\":1773:1882   */\n    tag_207:\n        /* \"#utility.yul\":1854:1875   */\n      tag_257\n        /* \"#utility.yul\":1869:1874   */\n      dup2\n        /* \"#utility.yul\":1854:1875   */\n      tag_206\n      jump\t// in\n    tag_257:\n        /* \"#utility.yul\":1849:1852   */\n      dup3\n        /* \"#utility.yul\":1842:1876   */\n      mstore\n        /* \"#utility.yul\":1773:1882   */\n      pop\n      pop\n      jump\t// out\n        /* \"#utility.yul\":1888:2098   */\n    tag_30:\n        /* \"#utility.yul\":1975:1979   */\n      0x00\n        /* \"#utility.yul\":2013:2015   */\n      0x20\n        /* \"#utility.yul\":2002:2011   */\n      dup3\n        /* \"#utility.yul\":1998:2016   */\n      add\n        /* \"#utility.yul\":1990:2016   */\n      swap1\n      pop\n        /* \"#utility.yul\":2026:2091   */\n      tag_259\n        /* \"#utility.yul\":2088:2089   */\n      0x00\n        /* \"#utility.yul\":2077:2086   */\n      dup4\n        /* \"#utility.yul\":2073:2090   */\n      add\n        /* \"#utility.yul\":2064:2070   */\n      dup5\n        /* \"#utility.yul\":2026:2091   */\n      tag_207\n      jump\t// in\n    tag_259:\n        /* \"#utility.yul\":1888:2098   */\n      swap3\n      swap2\n      pop\n      pop\n      jump\t// out\n        /* \"#utility.yul\":2104:2433   */\n    tag_33:\n        /* \"#utility.yul\":2163:2169   */\n      0x00\n        /* \"#utility.yul\":2212:2214   */\n      0x20\n        /* \"#utility.yul\":2200:2209   */\n      dup3\n        /* \"#utility.yul\":2191:2198   */\n      dup5\n        /* \"#utility.yul\":2187:2210   */\n      sub\n        /* \"#utility.yul\":2183:2215   */\n      slt\n        /* \"#utility.yul\":2180:2299   */\n      iszero\n      tag_261\n      jumpi\n        /* \"#utility.yul\":2218:2297   */\n      tag_262\n      tag_197\n      jump\t// in\n    tag_262:\n        /* \"#utility.yul\":2180:2299   */\n    tag_261:\n        /* \"#utility.yul\":2338:2339   */\n      0x00\n        /* \"#utility.yul\":2363:2416   */\n      tag_263\n        /* \"#utility.yul\":2408:2415   */\n      dup5\n        /* \"#utility.yul\":2399:2405   */\n      dup3\n        /* \"#utility.yul\":2388:2397   */\n      dup6\n        /* \"#utility.yul\":2384:2406   */\n      add\n        /* \"#utility.yul\":2363:2416   */\n      tag_202\n      jump\t// in\n    tag_263:\n        /* \"#utility.yul\":2353:2416   */\n      swap2\n      pop\n        /* \"#utility.yul\":2309:2426   */\n      pop\n        /* \"#utility.yul\":2104:2433   */\n      swap3\n      swap2\n      pop\n      pop\n      jump\t// out\n        /* \"#utility.yul\":2439:2557   */\n    tag_208:\n        /* \"#utility.yul\":2526:2550   */\n      tag_265\n        /* \"#utility.yul\":2544:2549   */\n      dup2\n        /* \"#utility.yul\":2526:2550   */\n      tag_203\n      jump\t// in\n    tag_265:\n        /* \"#utility.yul\":2521:2524   */\n      dup3\n        /* \"#utility.yul\":2514:2551   */\n      mstore\n        /* \"#utility.yul\":2439:2557   */\n      pop\n      pop\n      jump\t// out\n        /* \"#utility.yul\":2563:2785   */\n    tag_36:\n        /* \"#utility.yul\":2656:2660   */\n      0x00\n        /* \"#utility.yul\":2694:2696   */\n      0x20\n        /* \"#utility.yul\":2683:2692   */\n      dup3\n        /* \"#utility.yul\":2679:2697   */\n      add\n        /* \"#utility.yul\":2671:2697   */\n      swap1\n      pop\n        /* \"#utility.yul\":2707:2778   */\n      tag_267\n        /* \"#utility.yul\":2775:2776   */\n      0x00\n        /* \"#utility.yul\":2764:2773   */\n      dup4\n        /* \"#utility.yul\":2760:2777   */\n      add\n        /* \"#utility.yul\":2751:2757   */\n      dup5\n        /* \"#utility.yul\":2707:2778   */\n      tag_208\n      jump\t// in\n    tag_267:\n        /* \"#utility.yul\":2563:2785   */\n      swap3\n      swap2\n      pop\n      pop\n      jump\t// out\n        /* \"#utility.yul\":2791:3410   */\n    tag_42:\n        /* \"#utility.yul\":2868:2874   */\n      0x00\n        /* \"#utility.yul\":2876:2882   */\n      dup1\n        /* \"#utility.yul\":2884:2890   */\n      0x00\n        /* \"#utility.yul\":2933:2935   */\n      0x60\n        /* \"#utility.yul\":2921:2930   */\n      dup5\n        /* \"#utility.yul\":2912:2919   */\n      dup7\n        /* \"#utility.yul\":2908:2931   */\n      sub\n        /* \"#utility.yul\":2904:2936   */\n      slt\n        /* \"#utility.yul\":2901:3020   */\n      iszero\n      tag_269\n      jumpi\n        /* \"#utility.yul\":2939:3018   */\n      tag_270\n      tag_197\n      jump\t// in\n    tag_270:\n        /* \"#utility.yul\":2901:3020   */\n    tag_269:\n        /* \"#utility.yul\":3059:3060   */\n      0x00\n        /* \"#utility.yul\":3084:3137   */\n      tag_271\n        /* \"#utility.yul\":3129:3136   */\n      dup7\n        /* \"#utility.yul\":3120:3126   */\n      dup3\n        /* \"#utility.yul\":3109:3118   */\n      dup8\n        /* \"#utility.yul\":3105:3127   */\n      add\n        /* \"#utility.yul\":3084:3137   */\n      tag_202\n      jump\t// in\n    tag_271:\n        /* \"#utility.yul\":3074:3137   */\n      swap4\n      pop\n        /* \"#utility.yul\":3030:3147   */\n      pop\n        /* \"#utility.yul\":3186:3188   */\n      0x20\n        /* \"#utility.yul\":3212:3265   */\n      tag_272\n        /* \"#utility.yul\":3257:3264   */\n      dup7\n        /* \"#utility.yul\":3248:3254   */\n      dup3\n        /* \"#utility.yul\":3237:3246   */\n      dup8\n        /* \"#utility.yul\":3233:3255   */\n      add\n        /* \"#utility.yul\":3212:3265   */\n      tag_202\n      jump\t// in\n    tag_272:\n        /* \"#utility.yul\":3202:3265   */\n      swap3\n      pop\n        /* \"#utility.yul\":3157:3275   */\n      pop\n        /* \"#utility.yul\":3314:3316   */\n      0x40\n        /* \"#utility.yul\":3340:3393   */\n      tag_273\n        /* \"#utility.yul\":3385:3392   */\n      dup7\n        /* \"#utility.yul\":3376:3382   */\n      dup3\n        /* \"#utility.yul\":3365:3374   */\n      dup8\n        /* \"#utility.yul\":3361:3383   */\n      add\n        /* \"#utility.yul\":3340:3393   */\n      tag_205\n      jump\t// in\n    tag_273:\n        /* \"#utility.yul\":3330:3393   */\n      swap2\n      pop\n        /* \"#utility.yul\":3285:3403   */\n      pop\n        /* \"#utility.yul\":2791:3410   */\n      swap3\n      pop\n      swap3\n      pop\n      swap3\n      jump\t// out\n        /* \"#utility.yul\":3416:3745   */\n    tag_55:\n        /* \"#utility.yul\":3475:3481   */\n      0x00\n        /* \"#utility.yul\":3524:3526   */\n      0x20\n        /* \"#utility.yul\":3512:3521   */\n      dup3\n        /* \"#utility.yul\":3503:3510   */\n      dup5\n        /* \"#utility.yul\":3499:3522   */\n      sub\n        /* \"#utility.yul\":3495:3527   */\n      slt\n        /* \"#utility.yul\":3492:3611   */\n      iszero\n      tag_275\n      jumpi\n        /* \"#utility.yul\":3530:3609   */\n      tag_276\n      tag_197\n      jump\t// in\n    tag_276:\n        /* \"#utility.yul\":3492:3611   */\n    tag_275:\n        /* \"#utility.yul\":3650:3651   */\n      0x00\n        /* \"#utility.yul\":3675:3728   */\n      tag_277\n        /* \"#utility.yul\":3720:3727   */\n      dup5\n        /* \"#utility.yul\":3711:3717   */\n      dup3\n        /* \"#utility.yul\":3700:3709   */\n      dup6\n        /* \"#utility.yul\":3696:3718   */\n      add\n        /* \"#utility.yul\":3675:3728   */\n      tag_205\n      jump\t// in\n    tag_277:\n        /* \"#utility.yul\":3665:3728   */\n      swap2\n      pop\n        /* \"#utility.yul\":3621:3738   */\n      pop\n        /* \"#utility.yul\":3416:3745   */\n      swap3\n      swap2\n      pop\n      pop\n      jump\t// out\n        /* \"#utility.yul\":3751:4225   */\n    tag_59:\n        /* \"#utility.yul\":3819:3825   */\n      0x00\n        /* \"#utility.yul\":3827:3833   */\n      dup1\n        /* \"#utility.yul\":3876:3878   */\n      0x40\n        /* \"#utility.yul\":3864:3873   */\n      dup4\n        /* \"#utility.yul\":3855:3862   */\n      dup6\n        /* \"#utility.yul\":3851:3874   */\n      sub\n        /* \"#utility.yul\":3847:3879   */\n      slt\n        /* \"#utility.yul\":3844:3963   */\n      iszero\n      tag_279\n      jumpi\n        /* \"#utility.yul\":3882:3961   */\n      tag_280\n      tag_197\n      jump\t// in\n    tag_280:\n        /* \"#utility.yul\":3844:3963   */\n    tag_279:\n        /* \"#utility.yul\":4002:4003   */\n      0x00\n        /* \"#utility.yul\":4027:4080   */\n      tag_281\n        /* \"#utility.yul\":4072:4079   */\n      dup6\n        /* \"#utility.yul\":4063:4069   */\n      dup3\n        /* \"#utility.yul\":4052:4061   */\n      dup7\n        /* \"#utility.yul\":4048:4070   */\n      add\n        /* \"#utility.yul\":4027:4080   */\n      tag_202\n      jump\t// in\n    tag_281:\n        /* \"#utility.yul\":4017:4080   */\n      swap3\n      pop\n        /* \"#utility.yul\":3973:4090   */\n      pop\n        /* \"#utility.yul\":4129:4131   */\n      0x20\n        /* \"#utility.yul\":4155:4208   */\n      tag_282\n        /* \"#utility.yul\":4200:4207   */\n      dup6\n        /* \"#utility.yul\":4191:4197   */\n      dup3\n        /* \"#utility.yul\":4180:4189   */\n      dup7\n        /* \"#utility.yul\":4176:4198   */\n      add\n        /* \"#utility.yul\":4155:4208   */\n      tag_202\n      jump\t// in\n    tag_282:\n        /* \"#utility.yul\":4145:4208   */\n      swap2\n      pop\n        /* \"#utility.yul\":4100:4218   */\n      pop\n        /* \"#utility.yul\":3751:4225   */\n      swap3\n      pop\n      swap3\n      swap1\n      pop\n      jump\t// out\n        /* \"#utility.yul\":4231:4349   */\n    tag_209:\n        /* \"#utility.yul\":4318:4342   */\n      tag_284\n        /* \"#utility.yul\":4336:4341   */\n      dup2\n        /* \"#utility.yul\":4318:4342   */\n      tag_200\n      jump\t// in\n    tag_284:\n        /* \"#utility.yul\":4313:4316   */\n      dup3\n        /* \"#utility.yul\":4306:4343   */\n      mstore\n        /* \"#utility.yul\":4231:4349   */\n      pop\n      pop\n      jump\t// out\n        /* \"#utility.yul\":4355:4577   */\n    tag_65:\n        /* \"#utility.yul\":4448:4452   */\n      0x00\n        /* \"#utility.yul\":4486:4488   */\n      0x20\n        /* \"#utility.yul\":4475:4484   */\n      dup3\n        /* \"#utility.yul\":4471:4489   */\n      add\n        /* \"#utility.yul\":4463:4489   */\n      swap1\n      pop\n        /* \"#utility.yul\":4499:4570   */\n      tag_286\n        /* \"#utility.yul\":4567:4568   */\n      0x00\n        /* \"#utility.yul\":4556:4565   */\n      dup4\n        /* \"#utility.yul\":4552:4569   */\n      add\n        /* \"#utility.yul\":4543:4549   */\n      dup5\n        /* \"#utility.yul\":4499:4570   */\n      tag_209\n      jump\t// in\n    tag_286:\n        /* \"#utility.yul\":4355:4577   */\n      swap3\n      swap2\n      pop\n      pop\n      jump\t// out\n        /* \"#utility.yul\":4583:4752   */\n    tag_210:\n        /* \"#utility.yul\":4667:4678   */\n      0x00\n        /* \"#utility.yul\":4701:4707   */\n      dup3\n        /* \"#utility.yul\":4696:4699   */\n      dup3\n        /* \"#utility.yul\":4689:4708   */\n      mstore\n        /* \"#utility.yul\":4741:4745   */\n      0x20\n        /* \"#utility.yul\":4736:4739   */\n      dup3\n        /* \"#utility.yul\":4732:4746   */\n      add\n        /* \"#utility.yul\":4717:4746   */\n      swap1\n      pop\n        /* \"#utility.yul\":4583:4752   */\n      swap3\n      swap2\n      pop\n      pop\n      jump\t// out\n        /* \"#utility.yul\":4758:4923   */\n    tag_211:\n        /* \"#utility.yul\":4898:4915   */\n      0x496e76616c696420616464726573730000000000000000000000000000000000\n        /* \"#utility.yul\":4894:4895   */\n      0x00\n        /* \"#utility.yul\":4886:4892   */\n      dup3\n        /* \"#utility.yul\":4882:4896   */\n      add\n        /* \"#utility.yul\":4875:4916   */\n      mstore\n        /* \"#utility.yul\":4758:4923   */\n      pop\n      jump\t// out\n        /* \"#utility.yul\":4929:5295   */\n    tag_212:\n        /* \"#utility.yul\":5071:5074   */\n      0x00\n        /* \"#utility.yul\":5092:5159   */\n      tag_290\n        /* \"#utility.yul\":5156:5158   */\n      0x0f\n        /* \"#utility.yul\":5151:5154   */\n      dup4\n        /* \"#utility.yul\":5092:5159   */\n      tag_210\n      jump\t// in\n    tag_290:\n        /* \"#utility.yul\":5085:5159   */\n      swap2\n      pop\n        /* \"#utility.yul\":5168:5261   */\n      tag_291\n        /* \"#utility.yul\":5257:5260   */\n      dup3\n        /* \"#utility.yul\":5168:5261   */\n      tag_211\n      jump\t// in\n    tag_291:\n        /* \"#utility.yul\":5286:5288   */\n      0x20\n        /* \"#utility.yul\":5281:5284   */\n      dup3\n        /* \"#utility.yul\":5277:5289   */\n      add\n        /* \"#utility.yul\":5270:5289   */\n      swap1\n      pop\n        /* \"#utility.yul\":4929:5295   */\n      swap2\n      swap1\n      pop\n      jump\t// out\n        /* \"#utility.yul\":5301:5720   */\n    tag_98:\n        /* \"#utility.yul\":5467:5471   */\n      0x00\n        /* \"#utility.yul\":5505:5507   */\n      0x20\n        /* \"#utility.yul\":5494:5503   */\n      dup3\n        /* \"#utility.yul\":5490:5508   */\n      add\n        /* \"#utility.yul\":5482:5508   */\n      swap1\n      pop\n        /* \"#utility.yul\":5554:5563   */\n      dup2\n        /* \"#utility.yul\":5548:5552   */\n      dup2\n        /* \"#utility.yul\":5544:5564   */\n      sub\n        /* \"#utility.yul\":5540:5541   */\n      0x00\n        /* \"#utility.yul\":5529:5538   */\n      dup4\n        /* \"#utility.yul\":5525:5542   */\n      add\n        /* \"#utility.yul\":5518:5565   */\n      mstore\n        /* \"#utility.yul\":5582:5713   */\n      tag_293\n        /* \"#utility.yul\":5708:5712   */\n      dup2\n        /* \"#utility.yul\":5582:5713   */\n      tag_212\n      jump\t// in\n    tag_293:\n        /* \"#utility.yul\":5574:5713   */\n      swap1\n      pop\n        /* \"#utility.yul\":5301:5720   */\n      swap2\n      swap1\n      pop\n      jump\t// out\n        /* \"#utility.yul\":5726:5894   */\n    tag_213:\n        /* \"#utility.yul\":5866:5886   */\n      0x496e73756666696369656e742056616c75650000000000000000000000000000\n        /* \"#utility.yul\":5862:5863   */\n      0x00\n        /* \"#utility.yul\":5854:5860   */\n      dup3\n        /* \"#utility.yul\":5850:5864   */\n      add\n        /* \"#utility.yul\":5843:5887   */\n      mstore\n        /* \"#utility.yul\":5726:5894   */\n      pop\n      jump\t// out\n        /* \"#utility.yul\":5900:6266   */\n    tag_214:\n        /* \"#utility.yul\":6042:6045   */\n      0x00\n        /* \"#utility.yul\":6063:6130   */\n      tag_296\n        /* \"#utility.yul\":6127:6129   */\n      0x12\n        /* \"#utility.yul\":6122:6125   */\n      dup4\n        /* \"#utility.yul\":6063:6130   */\n      tag_210\n      jump\t// in\n    tag_296:\n        /* \"#utility.yul\":6056:6130   */\n      swap2\n      pop\n        /* \"#utility.yul\":6139:6232   */\n      tag_297\n        /* \"#utility.yul\":6228:6231   */\n      dup3\n        /* \"#utility.yul\":6139:6232   */\n      tag_213\n      jump\t// in\n    tag_297:\n        /* \"#utility.yul\":6257:6259   */\n      0x20\n        /* \"#utility.yul\":6252:6255   */\n      dup3\n        /* \"#utility.yul\":6248:6260   */\n      add\n        /* \"#utility.yul\":6241:6260   */\n      swap1\n      pop\n        /* \"#utility.yul\":5900:6266   */\n      swap2\n      swap1\n      pop\n      jump\t// out\n        /* \"#utility.yul\":6272:6691   */\n    tag_101:\n        /* \"#utility.yul\":6438:6442   */\n      0x00\n        /* \"#utility.yul\":6476:6478   */\n      0x20\n        /* \"#utility.yul\":6465:6474   */\n      dup3\n        /* \"#utility.yul\":6461:6479   */\n      add\n        /* \"#utility.yul\":6453:6479   */\n      swap1\n      pop\n        /* \"#utility.yul\":6525:6534   */\n      dup2\n        /* \"#utility.yul\":6519:6523   */\n      dup2\n        /* \"#utility.yul\":6515:6535   */\n      sub\n        /* \"#utility.yul\":6511:6512   */\n      0x00\n        /* \"#utility.yul\":6500:6509   */\n      dup4\n        /* \"#utility.yul\":6496:6513   */\n      add\n        /* \"#utility.yul\":6489:6536   */\n      mstore\n        /* \"#utility.yul\":6553:6684   */\n      tag_299\n        /* \"#utility.yul\":6679:6683   */\n      dup2\n        /* \"#utility.yul\":6553:6684   */\n      tag_214\n      jump\t// in\n    tag_299:\n        /* \"#utility.yul\":6545:6684   */\n      swap1\n      pop\n        /* \"#utility.yul\":6272:6691   */\n      swap2\n      swap1\n      pop\n      jump\t// out\n        /* \"#utility.yul\":6697:6861   */\n    tag_215:\n        /* \"#utility.yul\":6837:6853   */\n      0x4e6f7420617574686f7269736564000000000000000000000000000000000000\n        /* \"#utility.yul\":6833:6834   */\n      0x00\n        /* \"#utility.yul\":6825:6831   */\n      dup3\n        /* \"#utility.yul\":6821:6835   */\n      add\n        /* \"#utility.yul\":6814:6854   */\n      mstore\n        /* \"#utility.yul\":6697:6861   */\n      pop\n      jump\t// out\n        /* \"#utility.yul\":6867:7233   */\n    tag_216:\n        /* \"#utility.yul\":7009:7012   */\n      0x00\n        /* \"#utility.yul\":7030:7097   */\n      tag_302\n        /* \"#utility.yul\":7094:7096   */\n      0x0e\n        /* \"#utility.yul\":7089:7092   */\n      dup4\n        /* \"#utility.yul\":7030:7097   */\n      tag_210\n      jump\t// in\n    tag_302:\n        /* \"#utility.yul\":7023:7097   */\n      swap2\n      pop\n        /* \"#utility.yul\":7106:7199   */\n      tag_303\n        /* \"#utility.yul\":7195:7198   */\n      dup3\n        /* \"#utility.yul\":7106:7199   */\n      tag_215\n      jump\t// in\n    tag_303:\n        /* \"#utility.yul\":7224:7226   */\n      0x20\n        /* \"#utility.yul\":7219:7222   */\n      dup3\n        /* \"#utility.yul\":7215:7227   */\n      add\n        /* \"#utility.yul\":7208:7227   */\n      swap1\n      pop\n        /* \"#utility.yul\":6867:7233   */\n      swap2\n      swap1\n      pop\n      jump\t// out\n        /* \"#utility.yul\":7239:7658   */\n    tag_106:\n        /* \"#utility.yul\":7405:7409   */\n      0x00\n        /* \"#utility.yul\":7443:7445   */\n      0x20\n        /* \"#utility.yul\":7432:7441   */\n      dup3\n        /* \"#utility.yul\":7428:7446   */\n      add\n        /* \"#utility.yul\":7420:7446   */\n      swap1\n      pop\n        /* \"#utility.yul\":7492:7501   */\n      dup2\n        /* \"#utility.yul\":7486:7490   */\n      dup2\n        /* \"#utility.yul\":7482:7502   */\n      sub\n        /* \"#utility.yul\":7478:7479   */\n      0x00\n        /* \"#utility.yul\":7467:7476   */\n      dup4\n        /* \"#utility.yul\":7463:7480   */\n      add\n        /* \"#utility.yul\":7456:7503   */\n      mstore\n        /* \"#utility.yul\":7520:7651   */\n      tag_305\n        /* \"#utility.yul\":7646:7650   */\n      dup2\n        /* \"#utility.yul\":7520:7651   */\n      tag_216\n      jump\t// in\n    tag_305:\n        /* \"#utility.yul\":7512:7651   */\n      swap1\n      pop\n        /* \"#utility.yul\":7239:7658   */\n      swap2\n      swap1\n      pop\n      jump\t// out\n        /* \"#utility.yul\":7664:7832   */\n    tag_217:\n        /* \"#utility.yul\":7804:7824   */\n      0x596f75277265206e6f7420616c6c6f7765640000000000000000000000000000\n        /* \"#utility.yul\":7800:7801   */\n      0x00\n        /* \"#utility.yul\":7792:7798   */\n      dup3\n        /* \"#utility.yul\":7788:7802   */\n      add\n        /* \"#utility.yul\":7781:7825   */\n      mstore\n        /* \"#utility.yul\":7664:7832   */\n      pop\n      jump\t// out\n        /* \"#utility.yul\":7838:8204   */\n    tag_218:\n        /* \"#utility.yul\":7980:7983   */\n      0x00\n        /* \"#utility.yul\":8001:8068   */\n      tag_308\n        /* \"#utility.yul\":8065:8067   */\n      0x12\n        /* \"#utility.yul\":8060:8063   */\n      dup4\n        /* \"#utility.yul\":8001:8068   */\n      tag_210\n      jump\t// in\n    tag_308:\n        /* \"#utility.yul\":7994:8068   */\n      swap2\n      pop\n        /* \"#utility.yul\":8077:8170   */\n      tag_309\n        /* \"#utility.yul\":8166:8169   */\n      dup3\n        /* \"#utility.yul\":8077:8170   */\n      tag_217\n      jump\t// in\n    tag_309:\n        /* \"#utility.yul\":8195:8197   */\n      0x20\n        /* \"#utility.yul\":8190:8193   */\n      dup3\n        /* \"#utility.yul\":8186:8198   */\n      add\n        /* \"#utility.yul\":8179:8198   */\n      swap1\n      pop\n        /* \"#utility.yul\":7838:8204   */\n      swap2\n      swap1\n      pop\n      jump\t// out\n        /* \"#utility.yul\":8210:8629   */\n    tag_115:\n        /* \"#utility.yul\":8376:8380   */\n      0x00\n        /* \"#utility.yul\":8414:8416   */\n      0x20\n        /* \"#utility.yul\":8403:8412   */\n      dup3\n        /* \"#utility.yul\":8399:8417   */\n      add\n        /* \"#utility.yul\":8391:8417   */\n      swap1\n      pop\n        /* \"#utility.yul\":8463:8472   */\n      dup2\n        /* \"#utility.yul\":8457:8461   */\n      dup2\n        /* \"#utility.yul\":8453:8473   */\n      sub\n        /* \"#utility.yul\":8449:8450   */\n      0x00\n        /* \"#utility.yul\":8438:8447   */\n      dup4\n        /* \"#utility.yul\":8434:8451   */\n      add\n        /* \"#utility.yul\":8427:8474   */\n      mstore\n        /* \"#utility.yul\":8491:8622   */\n      tag_311\n        /* \"#utility.yul\":8617:8621   */\n      dup2\n        /* \"#utility.yul\":8491:8622   */\n      tag_218\n      jump\t// in\n    tag_311:\n        /* \"#utility.yul\":8483:8622   */\n      swap1\n      pop\n        /* \"#utility.yul\":8210:8629   */\n      swap2\n      swap1\n      pop\n      jump\t// out\n        /* \"#utility.yul\":8635:8867   */\n    tag_219:\n        /* \"#utility.yul\":8775:8809   */\n      0x546869732061646472657373206973206e6f7420616c6c6f77656420746f2072\n        /* \"#utility.yul\":8771:8772   */\n      0x00\n        /* \"#utility.yul\":8763:8769   */\n      dup3\n        /* \"#utility.yul\":8759:8773   */\n      add\n        /* \"#utility.yul\":8752:8810   */\n      mstore\n        /* \"#utility.yul\":8844:8859   */\n      0x65636569766520746f6b656e7300000000000000000000000000000000000000\n        /* \"#utility.yul\":8839:8841   */\n      0x20\n        /* \"#utility.yul\":8831:8837   */\n      dup3\n        /* \"#utility.yul\":8827:8842   */\n      add\n        /* \"#utility.yul\":8820:8860   */\n      mstore\n        /* \"#utility.yul\":8635:8867   */\n      pop\n      jump\t// out\n        /* \"#utility.yul\":8873:9239   */\n    tag_220:\n        /* \"#utility.yul\":9015:9018   */\n      0x00\n        /* \"#utility.yul\":9036:9103   */\n      tag_314\n        /* \"#utility.yul\":9100:9102   */\n      0x2d\n        /* \"#utility.yul\":9095:9098   */\n      dup4\n        /* \"#utility.yul\":9036:9103   */\n      tag_210\n      jump\t// in\n    tag_314:\n        /* \"#utility.yul\":9029:9103   */\n      swap2\n      pop\n        /* \"#utility.yul\":9112:9205   */\n      tag_315\n        /* \"#utility.yul\":9201:9204   */\n      dup3\n        /* \"#utility.yul\":9112:9205   */\n      tag_219\n      jump\t// in\n    tag_315:\n        /* \"#utility.yul\":9230:9232   */\n      0x40\n        /* \"#utility.yul\":9225:9228   */\n      dup3\n        /* \"#utility.yul\":9221:9233   */\n      add\n        /* \"#utility.yul\":9214:9233   */\n      swap1\n      pop\n        /* \"#utility.yul\":8873:9239   */\n      swap2\n      swap1\n      pop\n      jump\t// out\n        /* \"#utility.yul\":9245:9664   */\n    tag_118:\n        /* \"#utility.yul\":9411:9415   */\n      0x00\n        /* \"#utility.yul\":9449:9451   */\n      0x20\n        /* \"#utility.yul\":9438:9447   */\n      dup3\n        /* \"#utility.yul\":9434:9452   */\n      add\n        /* \"#utility.yul\":9426:9452   */\n      swap1\n      pop\n        /* \"#utility.yul\":9498:9507   */\n      dup2\n        /* \"#utility.yul\":9492:9496   */\n      dup2\n        /* \"#utility.yul\":9488:9508   */\n      sub\n        /* \"#utility.yul\":9484:9485   */\n      0x00\n        /* \"#utility.yul\":9473:9482   */\n      dup4\n        /* \"#utility.yul\":9469:9486   */\n      add\n        /* \"#utility.yul\":9462:9509   */\n      mstore\n        /* \"#utility.yul\":9526:9657   */\n      tag_317\n        /* \"#utility.yul\":9652:9656   */\n      dup2\n        /* \"#utility.yul\":9526:9657   */\n      tag_220\n      jump\t// in\n    tag_317:\n        /* \"#utility.yul\":9518:9657   */\n      swap1\n      pop\n        /* \"#utility.yul\":9245:9664   */\n      swap2\n      swap1\n      pop\n      jump\t// out\n        /* \"#utility.yul\":9670:9842   */\n    tag_221:\n        /* \"#utility.yul\":9810:9834   */\n      0x4163636f756e7420697320626c61636b6c697374656400000000000000000000\n        /* \"#utility.yul\":9806:9807   */\n      0x00\n        /* \"#utility.yul\":9798:9804   */\n      dup3\n        /* \"#utility.yul\":9794:9808   */\n      add\n        /* \"#utility.yul\":9787:9835   */\n      mstore\n        /* \"#utility.yul\":9670:9842   */\n      pop\n      jump\t// out\n        /* \"#utility.yul\":9848:10214   */\n    tag_222:\n        /* \"#utility.yul\":9990:9993   */\n      0x00\n        /* \"#utility.yul\":10011:10078   */\n      tag_320\n        /* \"#utility.yul\":10075:10077   */\n      0x16\n        /* \"#utility.yul\":10070:10073   */\n      dup4\n        /* \"#utility.yul\":10011:10078   */\n      tag_210\n      jump\t// in\n    tag_320:\n        /* \"#utility.yul\":10004:10078   */\n      swap2\n      pop\n        /* \"#utility.yul\":10087:10180   */\n      tag_321\n        /* \"#utility.yul\":10176:10179   */\n      dup3\n        /* \"#utility.yul\":10087:10180   */\n      tag_221\n      jump\t// in\n    tag_321:\n        /* \"#utility.yul\":10205:10207   */\n      0x20\n        /* \"#utility.yul\":10200:10203   */\n      dup3\n        /* \"#utility.yul\":10196:10208   */\n      add\n        /* \"#utility.yul\":10189:10208   */\n      swap1\n      pop\n        /* \"#utility.yul\":9848:10214   */\n      swap2\n      swap1\n      pop\n      jump\t// out\n        /* \"#utility.yul\":10220:10639   */\n    tag_121:\n        /* \"#utility.yul\":10386:10390   */\n      0x00\n        /* \"#utility.yul\":10424:10426   */\n      0x20\n        /* \"#utility.yul\":10413:10422   */\n      dup3\n        /* \"#utility.yul\":10409:10427   */\n      add\n        /* \"#utility.yul\":10401:10427   */\n      swap1\n      pop\n        /* \"#utility.yul\":10473:10482   */\n      dup2\n        /* \"#utility.yul\":10467:10471   */\n      dup2\n        /* \"#utility.yul\":10463:10483   */\n      sub\n        /* \"#utility.yul\":10459:10460   */\n      0x00\n        /* \"#utility.yul\":10448:10457   */\n      dup4\n        /* \"#utility.yul\":10444:10461   */\n      add\n        /* \"#utility.yul\":10437:10484   */\n      mstore\n        /* \"#utility.yul\":10501:10632   */\n      tag_323\n        /* \"#utility.yul\":10627:10631   */\n      dup2\n        /* \"#utility.yul\":10501:10632   */\n      tag_222\n      jump\t// in\n    tag_323:\n        /* \"#utility.yul\":10493:10632   */\n      swap1\n      pop\n        /* \"#utility.yul\":10220:10639   */\n      swap2\n      swap1\n      pop\n      jump\t// out\n        /* \"#utility.yul\":10645:10825   */\n    tag_223:\n        /* \"#utility.yul\":10693:10770   */\n      0x4e487b7100000000000000000000000000000000000000000000000000000000\n        /* \"#utility.yul\":10690:10691   */\n      0x00\n        /* \"#utility.yul\":10683:10771   */\n      mstore\n        /* \"#utility.yul\":10790:10794   */\n      0x11\n        /* \"#utility.yul\":10787:10788   */\n      0x04\n        /* \"#utility.yul\":10780:10795   */\n      mstore\n        /* \"#utility.yul\":10814:10818   */\n      0x24\n        /* \"#utility.yul\":10811:10812   */\n      0x00\n        /* \"#utility.yul\":10804:10819   */\n      revert\n        /* \"#utility.yul\":10831:11025   */\n    tag_125:\n        /* \"#utility.yul\":10871:10875   */\n      0x00\n        /* \"#utility.yul\":10891:10911   */\n      tag_326\n        /* \"#utility.yul\":10909:10910   */\n      dup3\n        /* \"#utility.yul\":10891:10911   */\n      tag_203\n      jump\t// in\n    tag_326:\n        /* \"#utility.yul\":10886:10911   */\n      swap2\n      pop\n        /* \"#utility.yul\":10925:10945   */\n      tag_327\n        /* \"#utility.yul\":10943:10944   */\n      dup4\n        /* \"#utility.yul\":10925:10945   */\n      tag_203\n      jump\t// in\n    tag_327:\n        /* \"#utility.yul\":10920:10945   */\n      swap3\n      pop\n        /* \"#utility.yul\":10969:10970   */\n      dup3\n        /* \"#utility.yul\":10966:10967   */\n      dup3\n        /* \"#utility.yul\":10962:10971   */\n      sub\n        /* \"#utility.yul\":10954:10971   */\n      swap1\n      pop\n        /* \"#utility.yul\":10993:10994   */\n      dup2\n        /* \"#utility.yul\":10987:10991   */\n      dup2\n        /* \"#utility.yul\":10984:10995   */\n      gt\n        /* \"#utility.yul\":10981:11018   */\n      iszero\n      tag_328\n      jumpi\n        /* \"#utility.yul\":10998:11016   */\n      tag_329\n      tag_223\n      jump\t// in\n    tag_329:\n        /* \"#utility.yul\":10981:11018   */\n    tag_328:\n        /* \"#utility.yul\":10831:11025   */\n      swap3\n      swap2\n      pop\n      pop\n      jump\t// out\n        /* \"#utility.yul\":11031:11222   */\n    tag_127:\n        /* \"#utility.yul\":11071:11074   */\n      0x00\n        /* \"#utility.yul\":11090:11110   */\n      tag_331\n        /* \"#utility.yul\":11108:11109   */\n      dup3\n        /* \"#utility.yul\":11090:11110   */\n      tag_203\n      jump\t// in\n    tag_331:\n        /* \"#utility.yul\":11085:11110   */\n      swap2\n      pop\n        /* \"#utility.yul\":11124:11144   */\n      tag_332\n        /* \"#utility.yul\":11142:11143   */\n      dup4\n        /* \"#utility.yul\":11124:11144   */\n      tag_203\n      jump\t// in\n    tag_332:\n        /* \"#utility.yul\":11119:11144   */\n      swap3\n      pop\n        /* \"#utility.yul\":11167:11168   */\n      dup3\n        /* \"#utility.yul\":11164:11165   */\n      dup3\n        /* \"#utility.yul\":11160:11169   */\n      add\n        /* \"#utility.yul\":11153:11169   */\n      swap1\n      pop\n        /* \"#utility.yul\":11188:11191   */\n      dup1\n        /* \"#utility.yul\":11185:11186   */\n      dup3\n        /* \"#utility.yul\":11182:11192   */\n      gt\n        /* \"#utility.yul\":11179:11215   */\n      iszero\n      tag_333\n      jumpi\n        /* \"#utility.yul\":11195:11213   */\n      tag_334\n      tag_223\n      jump\t// in\n    tag_334:\n        /* \"#utility.yul\":11179:11215   */\n    tag_333:\n        /* \"#utility.yul\":11031:11222   */\n      swap3\n      swap2\n      pop\n      pop\n      jump\t// out\n        /* \"#utility.yul\":11228:11396   */\n    tag_224:\n        /* \"#utility.yul\":11368:11388   */\n      0x596f75277265206e6f7420666f756e6465720000000000000000000000000000\n        /* \"#utility.yul\":11364:11365   */\n      0x00\n        /* \"#utility.yul\":11356:11362   */\n      dup3\n        /* \"#utility.yul\":11352:11366   */\n      add\n        /* \"#utility.yul\":11345:11389   */\n      mstore\n        /* \"#utility.yul\":11228:11396   */\n      pop\n      jump\t// out\n        /* \"#utility.yul\":11402:11768   */\n    tag_225:\n        /* \"#utility.yul\":11544:11547   */\n      0x00\n        /* \"#utility.yul\":11565:11632   */\n      tag_337\n        /* \"#utility.yul\":11629:11631   */\n      0x12\n        /* \"#utility.yul\":11624:11627   */\n      dup4\n        /* \"#utility.yul\":11565:11632   */\n      tag_210\n      jump\t// in\n    tag_337:\n        /* \"#utility.yul\":11558:11632   */\n      swap2\n      pop\n        /* \"#utility.yul\":11641:11734   */\n      tag_338\n        /* \"#utility.yul\":11730:11733   */\n      dup3\n        /* \"#utility.yul\":11641:11734   */\n      tag_224\n      jump\t// in\n    tag_338:\n        /* \"#utility.yul\":11759:11761   */\n      0x20\n        /* \"#utility.yul\":11754:11757   */\n      dup3\n        /* \"#utility.yul\":11750:11762   */\n      add\n        /* \"#utility.yul\":11743:11762   */\n      swap1\n      pop\n        /* \"#utility.yul\":11402:11768   */\n      swap2\n      swap1\n      pop\n      jump\t// out\n        /* \"#utility.yul\":11774:12193   */\n    tag_133:\n        /* \"#utility.yul\":11940:11944   */\n      0x00\n        /* \"#utility.yul\":11978:11980   */\n      0x20\n        /* \"#utility.yul\":11967:11976   */\n      dup3\n        /* \"#utility.yul\":11963:11981   */\n      add\n        /* \"#utility.yul\":11955:11981   */\n      swap1\n      pop\n        /* \"#utility.yul\":12027:12036   */\n      dup2\n        /* \"#utility.yul\":12021:12025   */\n      dup2\n        /* \"#utility.yul\":12017:12037   */\n      sub\n        /* \"#utility.yul\":12013:12014   */\n      0x00\n        /* \"#utility.yul\":12002:12011   */\n      dup4\n        /* \"#utility.yul\":11998:12015   */\n      add\n        /* \"#utility.yul\":11991:12038   */\n      mstore\n        /* \"#utility.yul\":12055:12186   */\n      tag_340\n        /* \"#utility.yul\":12181:12185   */\n      dup2\n        /* \"#utility.yul\":12055:12186   */\n      tag_225\n      jump\t// in\n    tag_340:\n        /* \"#utility.yul\":12047:12186   */\n      swap1\n      pop\n        /* \"#utility.yul\":11774:12193   */\n      swap2\n      swap1\n      pop\n      jump\t// out\n        /* \"#utility.yul\":12199:12381   */\n    tag_226:\n        /* \"#utility.yul\":12339:12373   */\n      0x416d6f756e74206d7573742062652067726561746572207468616e207a65726f\n        /* \"#utility.yul\":12335:12336   */\n      0x00\n        /* \"#utility.yul\":12327:12333   */\n      dup3\n        /* \"#utility.yul\":12323:12337   */\n      add\n        /* \"#utility.yul\":12316:12374   */\n      mstore\n        /* \"#utility.yul\":12199:12381   */\n      pop\n      jump\t// out\n        /* \"#utility.yul\":12387:12753   */\n    tag_227:\n        /* \"#utility.yul\":12529:12532   */\n      0x00\n        /* \"#utility.yul\":12550:12617   */\n      tag_343\n        /* \"#utility.yul\":12614:12616   */\n      0x20\n        /* \"#utility.yul\":12609:12612   */\n      dup4\n        /* \"#utility.yul\":12550:12617   */\n      tag_210\n      jump\t// in\n    tag_343:\n        /* \"#utility.yul\":12543:12617   */\n      swap2\n      pop\n        /* \"#utility.yul\":12626:12719   */\n      tag_344\n        /* \"#utility.yul\":12715:12718   */\n      dup3\n        /* \"#utility.yul\":12626:12719   */\n      tag_226\n      jump\t// in\n    tag_344:\n        /* \"#utility.yul\":12744:12746   */\n      0x20\n        /* \"#utility.yul\":12739:12742   */\n      dup3\n        /* \"#utility.yul\":12735:12747   */\n      add\n        /* \"#utility.yul\":12728:12747   */\n      swap1\n      pop\n        /* \"#utility.yul\":12387:12753   */\n      swap2\n      swap1\n      pop\n      jump\t// out\n        /* \"#utility.yul\":12759:13178   */\n    tag_144:\n        /* \"#utility.yul\":12925:12929   */\n      0x00\n        /* \"#utility.yul\":12963:12965   */\n      0x20\n        /* \"#utility.yul\":12952:12961   */\n      dup3\n        /* \"#utility.yul\":12948:12966   */\n      add\n        /* \"#utility.yul\":12940:12966   */\n      swap1\n      pop\n        /* \"#utility.yul\":13012:13021   */\n      dup2\n        /* \"#utility.yul\":13006:13010   */\n      dup2\n        /* \"#utility.yul\":13002:13022   */\n      sub\n        /* \"#utility.yul\":12998:12999   */\n      0x00\n        /* \"#utility.yul\":12987:12996   */\n      dup4\n        /* \"#utility.yul\":12983:13000   */\n      add\n        /* \"#utility.yul\":12976:13023   */\n      mstore\n        /* \"#utility.yul\":13040:13171   */\n      tag_346\n        /* \"#utility.yul\":13166:13170   */\n      dup2\n        /* \"#utility.yul\":13040:13171   */\n      tag_227\n      jump\t// in\n    tag_346:\n        /* \"#utility.yul\":13032:13171   */\n      swap1\n      pop\n        /* \"#utility.yul\":12759:13178   */\n      swap2\n      swap1\n      pop\n      jump\t// out\n        /* \"#utility.yul\":13184:13362   */\n    tag_228:\n        /* \"#utility.yul\":13324:13354   */\n      0x496e73756666696369656e742062616c616e636520746f206275726e00000000\n        /* \"#utility.yul\":13320:13321   */\n      0x00\n        /* \"#utility.yul\":13312:13318   */\n      dup3\n        /* \"#utility.yul\":13308:13322   */\n      add\n        /* \"#utility.yul\":13301:13355   */\n      mstore\n        /* \"#utility.yul\":13184:13362   */\n      pop\n      jump\t// out\n        /* \"#utility.yul\":13368:13734   */\n    tag_229:\n        /* \"#utility.yul\":13510:13513   */\n      0x00\n        /* \"#utility.yul\":13531:13598   */\n      tag_349\n        /* \"#utility.yul\":13595:13597   */\n      0x1c\n        /* \"#utility.yul\":13590:13593   */\n      dup4\n        /* \"#utility.yul\":13531:13598   */\n      tag_210\n      jump\t// in\n    tag_349:\n        /* \"#utility.yul\":13524:13598   */\n      swap2\n      pop\n        /* \"#utility.yul\":13607:13700   */\n      tag_350\n        /* \"#utility.yul\":13696:13699   */\n      dup3\n        /* \"#utility.yul\":13607:13700   */\n      tag_228\n      jump\t// in\n    tag_350:\n        /* \"#utility.yul\":13725:13727   */\n      0x20\n        /* \"#utility.yul\":13720:13723   */\n      dup3\n        /* \"#utility.yul\":13716:13728   */\n      add\n        /* \"#utility.yul\":13709:13728   */\n      swap1\n      pop\n        /* \"#utility.yul\":13368:13734   */\n      swap2\n      swap1\n      pop\n      jump\t// out\n        /* \"#utility.yul\":13740:14159   */\n    tag_147:\n        /* \"#utility.yul\":13906:13910   */\n      0x00\n        /* \"#utility.yul\":13944:13946   */\n      0x20\n        /* \"#utility.yul\":13933:13942   */\n      dup3\n        /* \"#utility.yul\":13929:13947   */\n      add\n        /* \"#utility.yul\":13921:13947   */\n      swap1\n      pop\n        /* \"#utility.yul\":13993:14002   */\n      dup2\n        /* \"#utility.yul\":13987:13991   */\n      dup2\n        /* \"#utility.yul\":13983:14003   */\n      sub\n        /* \"#utility.yul\":13979:13980   */\n      0x00\n        /* \"#utility.yul\":13968:13977   */\n      dup4\n        /* \"#utility.yul\":13964:13981   */\n      add\n        /* \"#utility.yul\":13957:14004   */\n      mstore\n        /* \"#utility.yul\":14021:14152   */\n      tag_352\n        /* \"#utility.yul\":14147:14151   */\n      dup2\n        /* \"#utility.yul\":14021:14152   */\n      tag_229\n      jump\t// in\n    tag_352:\n        /* \"#utility.yul\":14013:14152   */\n      swap1\n      pop\n        /* \"#utility.yul\":13740:14159   */\n      swap2\n      swap1\n      pop\n      jump\t// out\n        /* \"#utility.yul\":14165:14330   */\n    tag_230:\n        /* \"#utility.yul\":14305:14322   */\n      0x5472616e73666572207061757365640000000000000000000000000000000000\n        /* \"#utility.yul\":14301:14302   */\n      0x00\n        /* \"#utility.yul\":14293:14299   */\n      dup3\n        /* \"#utility.yul\":14289:14303   */\n      add\n        /* \"#utility.yul\":14282:14323   */\n      mstore\n        /* \"#utility.yul\":14165:14330   */\n      pop\n      jump\t// out\n        /* \"#utility.yul\":14336:14702   */\n    tag_231:\n        /* \"#utility.yul\":14478:14481   */\n      0x00\n        /* \"#utility.yul\":14499:14566   */\n      tag_355\n        /* \"#utility.yul\":14563:14565   */\n      0x0f\n        /* \"#utility.yul\":14558:14561   */\n      dup4\n        /* \"#utility.yul\":14499:14566   */\n      tag_210\n      jump\t// in\n    tag_355:\n        /* \"#utility.yul\":14492:14566   */\n      swap2\n      pop\n        /* \"#utility.yul\":14575:14668   */\n      tag_356\n        /* \"#utility.yul\":14664:14667   */\n      dup3\n        /* \"#utility.yul\":14575:14668   */\n      tag_230\n      jump\t// in\n    tag_356:\n        /* \"#utility.yul\":14693:14695   */\n      0x20\n        /* \"#utility.yul\":14688:14691   */\n      dup3\n        /* \"#utility.yul\":14684:14696   */\n      add\n        /* \"#utility.yul\":14677:14696   */\n      swap1\n      pop\n        /* \"#utility.yul\":14336:14702   */\n      swap2\n      swap1\n      pop\n      jump\t// out\n        /* \"#utility.yul\":14708:15127   */\n    tag_167:\n        /* \"#utility.yul\":14874:14878   */\n      0x00\n        /* \"#utility.yul\":14912:14914   */\n      0x20\n        /* \"#utility.yul\":14901:14910   */\n      dup3\n        /* \"#utility.yul\":14897:14915   */\n      add\n        /* \"#utility.yul\":14889:14915   */\n      swap1\n      pop\n        /* \"#utility.yul\":14961:14970   */\n      dup2\n        /* \"#utility.yul\":14955:14959   */\n      dup2\n        /* \"#utility.yul\":14951:14971   */\n      sub\n        /* \"#utility.yul\":14947:14948   */\n      0x00\n        /* \"#utility.yul\":14936:14945   */\n      dup4\n        /* \"#utility.yul\":14932:14949   */\n      add\n        /* \"#utility.yul\":14925:14972   */\n      mstore\n        /* \"#utility.yul\":14989:15120   */\n      tag_358\n        /* \"#utility.yul\":15115:15119   */\n      dup2\n        /* \"#utility.yul\":14989:15120   */\n      tag_231\n      jump\t// in\n    tag_358:\n        /* \"#utility.yul\":14981:15120   */\n      swap1\n      pop\n        /* \"#utility.yul\":14708:15127   */\n      swap2\n      swap1\n      pop\n      jump\t// out\n\n    auxdata: 0xa26469706673582212200c332d25cda37fcb82109a232dc90479b38781c4d155200c9bf0fc561ab405b364736f6c634300081a0033\n}\n",
				"bytecode": {
					"linkReferences": {},
					"object": "6080604052620f42406001556012600655348015601a575f80fd5b50335f806101000a81548173ffffffffffffffffffffffffffffffffffffffff021916908373ffffffffffffffffffffffffffffffffffffffff16021790555060015460025f805f9054906101000a900473ffffffffffffffffffffffffffffffffffffffff1673ffffffffffffffffffffffffffffffffffffffff1673ffffffffffffffffffffffffffffffffffffffff1681526020019081526020015f20819055506120ae806100cb5f395ff3fe608060405234801561000f575f80fd5b506004361061011f575f3560e01c80634d853ee5116100ab578063a9059cbb1161006f578063a9059cbb146102f1578063dd62ed3e14610321578063f26c159f14610351578063f2fde38b1461036d578063f9f92be4146103895761011f565b80634d853ee51461026157806370a082311461027f57806375e3661e146102af578063788649ea146102cb5780638456cb59146102e75761011f565b8063313ce567116100f2578063313ce567146101d15780633f4ba83a146101ef57806340c10f19146101f957806342966c68146102155780634995832d146102315761011f565b8063095ea7b31461012357806312cae7af1461015357806318160ddd1461018357806323b872dd146101a1575b5f80fd5b61013d600480360381019061013891906119fa565b6103a5565b60405161014a9190611a52565b60405180910390f35b61016d60048036038101906101689190611a6b565b610580565b60405161017a9190611aa5565b60405180910390f35b61018b610595565b6040516101989190611aa5565b60405180910390f35b6101bb60048036038101906101b69190611abe565b61059b565b6040516101c89190611a52565b60405180910390f35b6101d9610b81565b6040516101e69190611aa5565b60405180910390f35b6101f7610b87565b005b610213600480360381019061020e91906119fa565b610c2f565b005b61022f600480360381019061022a9190611b0e565b610d2b565b005b61024b60048036038101906102469190611b39565b610ec0565b6040516102589190611aa5565b60405180910390f35b610269610ee0565b6040516102769190611b86565b60405180910390f35b61029960048036038101906102949190611a6b565b610f03565b6040516102a69190611aa5565b60405180910390f35b6102c960048036038101906102c49190611a6b565b610f49565b005b6102e560048036038101906102e09190611a6b565b61102d565b005b6102ef611111565b005b61030b600480360381019061030691906119fa565b6111ba565b6040516103189190611a52565b60405180910390f35b61033b60048036038101906103369190611b39565b61164e565b6040516103489190611aa5565b60405180910390f35b61036b60048036038101906103669190611a6b565b6116d0565b005b61038760048036038101906103829190611a6b565b6117b5565b005b6103a3600480360381019061039e9190611a6b565b611884565b005b5f8073ffffffffffffffffffffffffffffffffffffffff168373ffffffffffffffffffffffffffffffffffffffff1603610414576040517f08c379a000000000000000000000000000000000000000000000000000000000815260040161040b90611bf9565b60405180910390fd5b8160025f3373ffffffffffffffffffffffffffffffffffffffff1673ffffffffffffffffffffffffffffffffffffffff1681526020019081526020015f20541015610494576040517f08c379a000000000000000000000000000000000000000000000000000000000815260040161048b90611c61565b60405180910390fd5b8160035f3373ffffffffffffffffffffffffffffffffffffffff1673ffffffffffffffffffffffffffffffffffffffff1681526020019081526020015f205f8573ffffffffffffffffffffffffffffffffffffffff1673ffffffffffffffffffffffffffffffffffffffff1681526020019081526020015f20819055508273ffffffffffffffffffffffffffffffffffffffff163373ffffffffffffffffffffffffffffffffffffffff167f8c5be1e5ebec7d5bd14f71427d1e84f3dd0314c0f7b2291e5b200ac8c7c3b9258460405161056e9190611aa5565b60405180910390a36001905092915050565b6002602052805f5260405f205f915090505481565b60015481565b5f3373ffffffffffffffffffffffffffffffffffffffff168373ffffffffffffffffffffffffffffffffffffffff161461060a576040517f08c379a000000000000000000000000000000000000000000000000000000000815260040161060190611cc9565b60405180910390fd5b5f73ffffffffffffffffffffffffffffffffffffffff168473ffffffffffffffffffffffffffffffffffffffff1603610678576040517f08c379a000000000000000000000000000000000000000000000000000000000815260040161066f90611bf9565b60405180910390fd5b5f73ffffffffffffffffffffffffffffffffffffffff168373ffffffffffffffffffffffffffffffffffffffff16036106e6576040517f08c379a00000000000000000000000000000000000000000000000000000000081526004016106dd90611bf9565b60405180910390fd5b8160035f8673ffffffffffffffffffffffffffffffffffffffff1673ffffffffffffffffffffffffffffffffffffffff1681526020019081526020015f205f8573ffffffffffffffffffffffffffffffffffffffff1673ffffffffffffffffffffffffffffffffffffffff1681526020019081526020015f205410156107a1576040517f08c379a000000000000000000000000000000000000000000000000000000000815260040161079890611c61565b60405180910390fd5b5f151560045f8673ffffffffffffffffffffffffffffffffffffffff1673ffffffffffffffffffffffffffffffffffffffff1681526020019081526020015f205f9054906101000a900460ff16151514610830576040517f08c379a000000000000000000000000000000000000000000000000000000000815260040161082790611d31565b60405180910390fd5b5f151560045f8573ffffffffffffffffffffffffffffffffffffffff1673ffffffffffffffffffffffffffffffffffffffff1681526020019081526020015f205f9054906101000a900460ff161515146108bf576040517f08c379a00000000000000000000000000000000000000000000000000000000081526004016108b690611dbf565b60405180910390fd5b5f151560055f8673ffffffffffffffffffffffffffffffffffffffff1673ffffffffffffffffffffffffffffffffffffffff1681526020019081526020015f205f9054906101000a900460ff1615151461094e576040517f08c379a000000000000000000000000000000000000000000000000000000000815260040161094590611e27565b60405180910390fd5b5f151560055f8573ffffffffffffffffffffffffffffffffffffffff1673ffffffffffffffffffffffffffffffffffffffff1681526020019081526020015f205f9054906101000a900460ff161515146109dd576040517f08c379a00000000000000000000000000000000000000000000000000000000081526004016109d490611e27565b60405180910390fd5b8160025f8673ffffffffffffffffffffffffffffffffffffffff1673ffffffffffffffffffffffffffffffffffffffff1681526020019081526020015f205f828254610a299190611e72565b925050819055508160025f8573ffffffffffffffffffffffffffffffffffffffff1673ffffffffffffffffffffffffffffffffffffffff1681526020019081526020015f205f828254610a7c9190611ea5565b925050819055508160035f8673ffffffffffffffffffffffffffffffffffffffff1673ffffffffffffffffffffffffffffffffffffffff1681526020019081526020015f205f8573ffffffffffffffffffffffffffffffffffffffff1673ffffffffffffffffffffffffffffffffffffffff1681526020019081526020015f205f828254610b0a9190611e72565b925050819055508273ffffffffffffffffffffffffffffffffffffffff168473ffffffffffffffffffffffffffffffffffffffff167fddf252ad1be2c89b69c2b068fc378daa952ba7f163c4a11628f55a4df523b3ef84604051610b6e9190611aa5565b60405180910390a3600190509392505050565b60065481565b5f8054906101000a900473ffffffffffffffffffffffffffffffffffffffff1673ffffffffffffffffffffffffffffffffffffffff163373ffffffffffffffffffffffffffffffffffffffff1614610c14576040517f08c379a0000000000000000000000000000000000000000000000000000000008152600401610c0b90611f22565b60405180910390fd5b5f60075f6101000a81548160ff021916908315150217905550565b5f8054906101000a900473ffffffffffffffffffffffffffffffffffffffff1673ffffffffffffffffffffffffffffffffffffffff163373ffffffffffffffffffffffffffffffffffffffff1614610cbc576040517f08c379a0000000000000000000000000000000000000000000000000000000008152600401610cb390611f22565b60405180910390fd5b8060015f828254610ccd9190611ea5565b925050819055508060025f8473ffffffffffffffffffffffffffffffffffffffff1673ffffffffffffffffffffffffffffffffffffffff1681526020019081526020015f205f828254610d209190611ea5565b925050819055505050565b5f8111610d6d576040517f08c379a0000000000000000000000000000000000000000000000000000000008152600401610d6490611f8a565b60405180910390fd5b8060025f3373ffffffffffffffffffffffffffffffffffffffff1673ffffffffffffffffffffffffffffffffffffffff1681526020019081526020015f20541015610ded576040517f08c379a0000000000000000000000000000000000000000000000000000000008152600401610de490611ff2565b60405180910390fd5b8060025f3373ffffffffffffffffffffffffffffffffffffffff1673ffffffffffffffffffffffffffffffffffffffff1681526020019081526020015f205f828254610e399190611e72565b925050819055508060015f828254610e519190611e72565b925050819055505f73ffffffffffffffffffffffffffffffffffffffff163373ffffffffffffffffffffffffffffffffffffffff167fddf252ad1be2c89b69c2b068fc378daa952ba7f163c4a11628f55a4df523b3ef83604051610eb59190611aa5565b60405180910390a350565b6003602052815f5260405f20602052805f5260405f205f91509150505481565b5f8054906101000a900473ffffffffffffffffffffffffffffffffffffffff1681565b5f60025f8373ffffffffffffffffffffffffffffffffffffffff1673ffffffffffffffffffffffffffffffffffffffff1681526020019081526020015f20549050919050565b5f8054906101000a900473ffffffffffffffffffffffffffffffffffffffff1673ffffffffffffffffffffffffffffffffffffffff163373ffffffffffffffffffffffffffffffffffffffff1614610fd6576040517f08c379a0000000000000000000000000000000000000000000000000000000008152600401610fcd90611f22565b60405180910390fd5b5f60055f8373ffffffffffffffffffffffffffffffffffffffff1673ffffffffffffffffffffffffffffffffffffffff1681526020019081526020015f205f6101000a81548160ff02191690831515021790555050565b5f8054906101000a900473ffffffffffffffffffffffffffffffffffffffff1673ffffffffffffffffffffffffffffffffffffffff163373ffffffffffffffffffffffffffffffffffffffff16146110ba576040517f08c379a00000000000000000000000000000000000000000000000000000000081526004016110b190611f22565b60405180910390fd5b5f60045f8373ffffffffffffffffffffffffffffffffffffffff1673ffffffffffffffffffffffffffffffffffffffff1681526020019081526020015f205f6101000a81548160ff02191690831515021790555050565b5f8054906101000a900473ffffffffffffffffffffffffffffffffffffffff1673ffffffffffffffffffffffffffffffffffffffff163373ffffffffffffffffffffffffffffffffffffffff161461119e576040517f08c379a000000000000000000000000000000000000000000000000000000000815260040161119590611f22565b60405180910390fd5b600160075f6101000a81548160ff021916908315150217905550565b5f80151560075f9054906101000a900460ff1615151461120f576040517f08c379a00000000000000000000000000000000000000000000000000000000081526004016112069061205a565b60405180910390fd5b5f73ffffffffffffffffffffffffffffffffffffffff168373ffffffffffffffffffffffffffffffffffffffff160361127d576040517f08c379a000000000000000000000000000000000000000000000000000000000815260040161127490611bf9565b60405180910390fd5b8160025f3373ffffffffffffffffffffffffffffffffffffffff1673ffffffffffffffffffffffffffffffffffffffff1681526020019081526020015f205410156112fd576040517f08c379a00000000000000000000000000000000000000000000000000000000081526004016112f490611c61565b60405180910390fd5b5f151560045f3373ffffffffffffffffffffffffffffffffffffffff1673ffffffffffffffffffffffffffffffffffffffff1681526020019081526020015f205f9054906101000a900460ff1615151461138c576040517f08c379a000000000000000000000000000000000000000000000000000000000815260040161138390611d31565b60405180910390fd5b5f151560045f8573ffffffffffffffffffffffffffffffffffffffff1673ffffffffffffffffffffffffffffffffffffffff1681526020019081526020015f205f9054906101000a900460ff1615151461141b576040517f08c379a000000000000000000000000000000000000000000000000000000000815260040161141290611dbf565b60405180910390fd5b8160025f3373ffffffffffffffffffffffffffffffffffffffff1673ffffffffffffffffffffffffffffffffffffffff1681526020019081526020015f205f8282546114679190611e72565b925050819055508160025f8573ffffffffffffffffffffffffffffffffffffffff1673ffffffffffffffffffffffffffffffffffffffff1681526020019081526020015f205f8282546114ba9190611ea5565b925050819055505f151560055f3373ffffffffffffffffffffffffffffffffffffffff1673ffffffffffffffffffffffffffffffffffffffff1681526020019081526020015f205f9054906101000a900460ff16151514611550576040517f08c379a000000000000000000000000000000000000000000000000000000000815260040161154790611e27565b60405180910390fd5b5f151560055f8573ffffffffffffffffffffffffffffffffffffffff1673ffffffffffffffffffffffffffffffffffffffff1681526020019081526020015f205f9054906101000a900460ff161515146115df576040517f08c379a00000000000000000000000000000000000000000000000000000000081526004016115d690611e27565b60405180910390fd5b8273ffffffffffffffffffffffffffffffffffffffff163373ffffffffffffffffffffffffffffffffffffffff167fddf252ad1be2c89b69c2b068fc378daa952ba7f163c4a11628f55a4df523b3ef8460405161163c9190611aa5565b60405180910390a36001905092915050565b5f60035f8473ffffffffffffffffffffffffffffffffffffffff1673ffffffffffffffffffffffffffffffffffffffff1681526020019081526020015f205f8373ffffffffffffffffffffffffffffffffffffffff1673ffffffffffffffffffffffffffffffffffffffff1681526020019081526020015f2054905092915050565b5f8054906101000a900473ffffffffffffffffffffffffffffffffffffffff1673ffffffffffffffffffffffffffffffffffffffff163373ffffffffffffffffffffffffffffffffffffffff161461175d576040517f08c379a000000000000000000000000000000000000000000000000000000000815260040161175490611f22565b60405180910390fd5b600160045f8373ffffffffffffffffffffffffffffffffffffffff1673ffffffffffffffffffffffffffffffffffffffff1681526020019081526020015f205f6101000a81548160ff02191690831515021790555050565b5f8054906101000a900473ffffffffffffffffffffffffffffffffffffffff1673ffffffffffffffffffffffffffffffffffffffff163373ffffffffffffffffffffffffffffffffffffffff1614611842576040517f08c379a000000000000000000000000000000000000000000000000000000000815260040161183990611f22565b60405180910390fd5b805f806101000a81548173ffffffffffffffffffffffffffffffffffffffff021916908373ffffffffffffffffffffffffffffffffffffffff16021790555050565b5f8054906101000a900473ffffffffffffffffffffffffffffffffffffffff1673ffffffffffffffffffffffffffffffffffffffff163373ffffffffffffffffffffffffffffffffffffffff1614611911576040517f08c379a000000000000000000000000000000000000000000000000000000000815260040161190890611f22565b60405180910390fd5b600160055f8373ffffffffffffffffffffffffffffffffffffffff1673ffffffffffffffffffffffffffffffffffffffff1681526020019081526020015f205f6101000a81548160ff02191690831515021790555050565b5f80fd5b5f73ffffffffffffffffffffffffffffffffffffffff82169050919050565b5f6119968261196d565b9050919050565b6119a68161198c565b81146119b0575f80fd5b50565b5f813590506119c18161199d565b92915050565b5f819050919050565b6119d9816119c7565b81146119e3575f80fd5b50565b5f813590506119f4816119d0565b92915050565b5f8060408385031215611a1057611a0f611969565b5b5f611a1d858286016119b3565b9250506020611a2e858286016119e6565b9150509250929050565b5f8115159050919050565b611a4c81611a38565b82525050565b5f602082019050611a655f830184611a43565b92915050565b5f60208284031215611a8057611a7f611969565b5b5f611a8d848285016119b3565b91505092915050565b611a9f816119c7565b82525050565b5f602082019050611ab85f830184611a96565b92915050565b5f805f60608486031215611ad557611ad4611969565b5b5f611ae2868287016119b3565b9350506020611af3868287016119b3565b9250506040611b04868287016119e6565b9150509250925092565b5f60208284031215611b2357611b22611969565b5b5f611b30848285016119e6565b91505092915050565b5f8060408385031215611b4f57611b4e611969565b5b5f611b5c858286016119b3565b9250506020611b6d858286016119b3565b9150509250929050565b611b808161198c565b82525050565b5f602082019050611b995f830184611b77565b92915050565b5f82825260208201905092915050565b7f496e76616c6964206164647265737300000000000000000000000000000000005f82015250565b5f611be3600f83611b9f565b9150611bee82611baf565b602082019050919050565b5f6020820190508181035f830152611c1081611bd7565b9050919050565b7f496e73756666696369656e742056616c756500000000000000000000000000005f82015250565b5f611c4b601283611b9f565b9150611c5682611c17565b602082019050919050565b5f6020820190508181035f830152611c7881611c3f565b9050919050565b7f4e6f7420617574686f72697365640000000000000000000000000000000000005f82015250565b5f611cb3600e83611b9f565b9150611cbe82611c7f565b602082019050919050565b5f6020820190508181035f830152611ce081611ca7565b9050919050565b7f596f75277265206e6f7420616c6c6f77656400000000000000000000000000005f82015250565b5f611d1b601283611b9f565b9150611d2682611ce7565b602082019050919050565b5f6020820190508181035f830152611d4881611d0f565b9050919050565b7f546869732061646472657373206973206e6f7420616c6c6f77656420746f20725f8201527f65636569766520746f6b656e7300000000000000000000000000000000000000602082015250565b5f611da9602d83611b9f565b9150611db482611d4f565b604082019050919050565b5f6020820190508181035f830152611dd681611d9d565b9050919050565b7f4163636f756e7420697320626c61636b6c6973746564000000000000000000005f82015250565b5f611e11601683611b9f565b9150611e1c82611ddd565b602082019050919050565b5f6020820190508181035f830152611e3e81611e05565b9050919050565b7f4e487b71000000000000000000000000000000000000000000000000000000005f52601160045260245ffd5b5f611e7c826119c7565b9150611e87836119c7565b9250828203905081811115611e9f57611e9e611e45565b5b92915050565b5f611eaf826119c7565b9150611eba836119c7565b9250828201905080821115611ed257611ed1611e45565b5b92915050565b7f596f75277265206e6f7420666f756e64657200000000000000000000000000005f82015250565b5f611f0c601283611b9f565b9150611f1782611ed8565b602082019050919050565b5f6020820190508181035f830152611f3981611f00565b9050919050565b7f416d6f756e74206d7573742062652067726561746572207468616e207a65726f5f82015250565b5f611f74602083611b9f565b9150611f7f82611f40565b602082019050919050565b5f6020820190508181035f830152611fa181611f68565b9050919050565b7f496e73756666696369656e742062616c616e636520746f206275726e000000005f82015250565b5f611fdc601c83611b9f565b9150611fe782611fa8565b602082019050919050565b5f6020820190508181035f83015261200981611fd0565b9050919050565b7f5472616e736665722070617573656400000000000000000000000000000000005f82015250565b5f612044600f83611b9f565b915061204f82612010565b602082019050919050565b5f6020820190508181035f83015261207181612038565b905091905056fea26469706673582212200c332d25cda37fcb82109a232dc90479b38781c4d155200c9bf0fc561ab405b364736f6c634300081a0033",
					"opcodes": "PUSH1 0x80 PUSH1 0x40 MSTORE PUSH3 0xF4240 PUSH1 0x1 SSTORE PUSH1 0x12 PUSH1 0x6 SSTORE CALLVALUE DUP1 ISZERO PUSH1 0x1A JUMPI PUSH0 DUP1 REVERT JUMPDEST POP CALLER PUSH0 DUP1 PUSH2 0x100 EXP DUP2 SLOAD DUP2 PUSH20 0xFFFFFFFFFFFFFFFFFFFFFFFFFFFFFFFFFFFFFFFF MUL NOT AND SWAP1 DUP4 PUSH20 0xFFFFFFFFFFFFFFFFFFFFFFFFFFFFFFFFFFFFFFFF AND MUL OR SWAP1 SSTORE POP PUSH1 0x1 SLOAD PUSH1 0x2 PUSH0 DUP1 PUSH0 SWAP1 SLOAD SWAP1 PUSH2 0x100 EXP SWAP1 DIV PUSH20 0xFFFFFFFFFFFFFFFFFFFFFFFFFFFFFFFFFFFFFFFF AND PUSH20 0xFFFFFFFFFFFFFFFFFFFFFFFFFFFFFFFFFFFFFFFF AND PUSH20 0xFFFFFFFFFFFFFFFFFFFFFFFFFFFFFFFFFFFFFFFF AND DUP2 MSTORE PUSH1 0x20 ADD SWAP1 DUP2 MSTORE PUSH1 0x20 ADD PUSH0 KECCAK256 DUP2 SWAP1 SSTORE POP PUSH2 0x20AE DUP1 PUSH2 0xCB PUSH0 CODECOPY PUSH0 RETURN INVALID PUSH1 0x80 PUSH1 0x40 MSTORE CALLVALUE DUP1 ISZERO PUSH2 0xF JUMPI PUSH0 DUP1 REVERT JUMPDEST POP PUSH1 0x4 CALLDATASIZE LT PUSH2 0x11F JUMPI PUSH0 CALLDATALOAD PUSH1 0xE0 SHR DUP1 PUSH4 0x4D853EE5 GT PUSH2 0xAB JUMPI DUP1 PUSH4 0xA9059CBB GT PUSH2 0x6F JUMPI DUP1 PUSH4 0xA9059CBB EQ PUSH2 0x2F1 JUMPI DUP1 PUSH4 0xDD62ED3E EQ PUSH2 0x321 JUMPI DUP1 PUSH4 0xF26C159F EQ PUSH2 0x351 JUMPI DUP1 PUSH4 0xF2FDE38B EQ PUSH2 0x36D JUMPI DUP1 PUSH4 0xF9F92BE4 EQ PUSH2 0x389 JUMPI PUSH2 0x11F JUMP JUMPDEST DUP1 PUSH4 0x4D853EE5 EQ PUSH2 0x261 JUMPI DUP1 PUSH4 0x70A08231 EQ PUSH2 0x27F JUMPI DUP1 PUSH4 0x75E3661E EQ PUSH2 0x2AF JUMPI DUP1 PUSH4 0x788649EA EQ PUSH2 0x2CB JUMPI DUP1 PUSH4 0x8456CB59 EQ PUSH2 0x2E7 JUMPI PUSH2 0x11F JUMP JUMPDEST DUP1 PUSH4 0x313CE567 GT PUSH2 0xF2 JUMPI DUP1 PUSH4 0x313CE567 EQ PUSH2 0x1D1 JUMPI DUP1 PUSH4 0x3F4BA83A EQ PUSH2 0x1EF JUMPI DUP1 PUSH4 0x40C10F19 EQ PUSH2 0x1F9 JUMPI DUP1 PUSH4 0x42966C68 EQ PUSH2 0x215 JUMPI DUP1 PUSH4 0x4995832D EQ PUSH2 0x231 JUMPI PUSH2 0x11F JUMP JUMPDEST DUP1 PUSH4 0x95EA7B3 EQ PUSH2 0x123 JUMPI DUP1 PUSH4 0x12CAE7AF EQ PUSH2 0x153 JUMPI DUP1 PUSH4 0x18160DDD EQ PUSH2 0x183 JUMPI DUP1 PUSH4 0x23B872DD EQ PUSH2 0x1A1 JUMPI JUMPDEST PUSH0 DUP1 REVERT JUMPDEST PUSH2 0x13D PUSH1 0x4 DUP1 CALLDATASIZE SUB DUP2 ADD SWAP1 PUSH2 0x138 SWAP2 SWAP1 PUSH2 0x19FA JUMP JUMPDEST PUSH2 0x3A5 JUMP JUMPDEST PUSH1 0x40 MLOAD PUSH2 0x14A SWAP2 SWAP1 PUSH2 0x1A52 JUMP JUMPDEST PUSH1 0x40 MLOAD DUP1 SWAP2 SUB SWAP1 RETURN JUMPDEST PUSH2 0x16D PUSH1 0x4 DUP1 CALLDATASIZE SUB DUP2 ADD SWAP1 PUSH2 0x168 SWAP2 SWAP1 PUSH2 0x1A6B JUMP JUMPDEST PUSH2 0x580 JUMP JUMPDEST PUSH1 0x40 MLOAD PUSH2 0x17A SWAP2 SWAP1 PUSH2 0x1AA5 JUMP JUMPDEST PUSH1 0x40 MLOAD DUP1 SWAP2 SUB SWAP1 RETURN JUMPDEST PUSH2 0x18B PUSH2 0x595 JUMP JUMPDEST PUSH1 0x40 MLOAD PUSH2 0x198 SWAP2 SWAP1 PUSH2 0x1AA5 JUMP JUMPDEST PUSH1 0x40 MLOAD DUP1 SWAP2 SUB SWAP1 RETURN JUMPDEST PUSH2 0x1BB PUSH1 0x4 DUP1 CALLDATASIZE SUB DUP2 ADD SWAP1 PUSH2 0x1B6 SWAP2 SWAP1 PUSH2 0x1ABE JUMP JUMPDEST PUSH2 0x59B JUMP JUMPDEST PUSH1 0x40 MLOAD PUSH2 0x1C8 SWAP2 SWAP1 PUSH2 0x1A52 JUMP JUMPDEST PUSH1 0x40 MLOAD DUP1 SWAP2 SUB SWAP1 RETURN JUMPDEST PUSH2 0x1D9 PUSH2 0xB81 JUMP JUMPDEST PUSH1 0x40 MLOAD PUSH2 0x1E6 SWAP2 SWAP1 PUSH2 0x1AA5 JUMP JUMPDEST PUSH1 0x40 MLOAD DUP1 SWAP2 SUB SWAP1 RETURN JUMPDEST PUSH2 0x1F7 PUSH2 0xB87 JUMP JUMPDEST STOP JUMPDEST PUSH2 0x213 PUSH1 0x4 DUP1 CALLDATASIZE SUB DUP2 ADD SWAP1 PUSH2 0x20E SWAP2 SWAP1 PUSH2 0x19FA JUMP JUMPDEST PUSH2 0xC2F JUMP JUMPDEST STOP JUMPDEST PUSH2 0x22F PUSH1 0x4 DUP1 CALLDATASIZE SUB DUP2 ADD SWAP1 PUSH2 0x22A SWAP2 SWAP1 PUSH2 0x1B0E JUMP JUMPDEST PUSH2 0xD2B JUMP JUMPDEST STOP JUMPDEST PUSH2 0x24B PUSH1 0x4 DUP1 CALLDATASIZE SUB DUP2 ADD SWAP1 PUSH2 0x246 SWAP2 SWAP1 PUSH2 0x1B39 JUMP JUMPDEST PUSH2 0xEC0 JUMP JUMPDEST PUSH1 0x40 MLOAD PUSH2 0x258 SWAP2 SWAP1 PUSH2 0x1AA5 JUMP JUMPDEST PUSH1 0x40 MLOAD DUP1 SWAP2 SUB SWAP1 RETURN JUMPDEST PUSH2 0x269 PUSH2 0xEE0 JUMP JUMPDEST PUSH1 0x40 MLOAD PUSH2 0x276 SWAP2 SWAP1 PUSH2 0x1B86 JUMP JUMPDEST PUSH1 0x40 MLOAD DUP1 SWAP2 SUB SWAP1 RETURN JUMPDEST PUSH2 0x299 PUSH1 0x4 DUP1 CALLDATASIZE SUB DUP2 ADD SWAP1 PUSH2 0x294 SWAP2 SWAP1 PUSH2 0x1A6B JUMP JUMPDEST PUSH2 0xF03 JUMP JUMPDEST PUSH1 0x40 MLOAD PUSH2 0x2A6 SWAP2 SWAP1 PUSH2 0x1AA5 JUMP JUMPDEST PUSH1 0x40 MLOAD DUP1 SWAP2 SUB SWAP1 RETURN JUMPDEST PUSH2 0x2C9 PUSH1 0x4 DUP1 CALLDATASIZE SUB DUP2 ADD SWAP1 PUSH2 0x2C4 SWAP2 SWAP1 PUSH2 0x1A6B JUMP JUMPDEST PUSH2 0xF49 JUMP JUMPDEST STOP JUMPDEST PUSH2 0x2E5 PUSH1 0x4 DUP1 CALLDATASIZE SUB DUP2 ADD SWAP1 PUSH2 0x2E0 SWAP2 SWAP1 PUSH2 0x1A6B JUMP JUMPDEST PUSH2 0x102D JUMP JUMPDEST STOP JUMPDEST PUSH2 0x2EF PUSH2 0x1111 JUMP JUMPDEST STOP JUMPDEST PUSH2 0x30B PUSH1 0x4 DUP1 CALLDATASIZE SUB DUP2 ADD SWAP1 PUSH2 0x306 SWAP2 SWAP1 PUSH2 0x19FA JUMP JUMPDEST PUSH2 0x11BA JUMP JUMPDEST PUSH1 0x40 MLOAD PUSH2 0x318 SWAP2 SWAP1 PUSH2 0x1A52 JUMP JUMPDEST PUSH1 0x40 MLOAD DUP1 SWAP2 SUB SWAP1 RETURN JUMPDEST PUSH2 0x33B PUSH1 0x4 DUP1 CALLDATASIZE SUB DUP2 ADD SWAP1 PUSH2 0x336 SWAP2 SWAP1 PUSH2 0x1B39 JUMP JUMPDEST PUSH2 0x164E JUMP JUMPDEST PUSH1 0x40 MLOAD PUSH2 0x348 SWAP2 SWAP1 PUSH2 0x1AA5 JUMP JUMPDEST PUSH1 0x40 MLOAD DUP1 SWAP2 SUB SWAP1 RETURN JUMPDEST PUSH2 0x36B PUSH1 0x4 DUP1 CALLDATASIZE SUB DUP2 ADD SWAP1 PUSH2 0x366 SWAP2 SWAP1 PUSH2 0x1A6B JUMP JUMPDEST PUSH2 0x16D0 JUMP JUMPDEST STOP JUMPDEST PUSH2 0x387 PUSH1 0x4 DUP1 CALLDATASIZE SUB DUP2 ADD SWAP1 PUSH2 0x382 SWAP2 SWAP1 PUSH2 0x1A6B JUMP JUMPDEST PUSH2 0x17B5 JUMP JUMPDEST STOP JUMPDEST PUSH2 0x3A3 PUSH1 0x4 DUP1 CALLDATASIZE SUB DUP2 ADD SWAP1 PUSH2 0x39E SWAP2 SWAP1 PUSH2 0x1A6B JUMP JUMPDEST PUSH2 0x1884 JUMP JUMPDEST STOP JUMPDEST PUSH0 DUP1 PUSH20 0xFFFFFFFFFFFFFFFFFFFFFFFFFFFFFFFFFFFFFFFF AND DUP4 PUSH20 0xFFFFFFFFFFFFFFFFFFFFFFFFFFFFFFFFFFFFFFFF AND SUB PUSH2 0x414 JUMPI PUSH1 0x40 MLOAD PUSH32 0x8C379A000000000000000000000000000000000000000000000000000000000 DUP2 MSTORE PUSH1 0x4 ADD PUSH2 0x40B SWAP1 PUSH2 0x1BF9 JUMP JUMPDEST PUSH1 0x40 MLOAD DUP1 SWAP2 SUB SWAP1 REVERT JUMPDEST DUP2 PUSH1 0x2 PUSH0 CALLER PUSH20 0xFFFFFFFFFFFFFFFFFFFFFFFFFFFFFFFFFFFFFFFF AND PUSH20 0xFFFFFFFFFFFFFFFFFFFFFFFFFFFFFFFFFFFFFFFF AND DUP2 MSTORE PUSH1 0x20 ADD SWAP1 DUP2 MSTORE PUSH1 0x20 ADD PUSH0 KECCAK256 SLOAD LT ISZERO PUSH2 0x494 JUMPI PUSH1 0x40 MLOAD PUSH32 0x8C379A000000000000000000000000000000000000000000000000000000000 DUP2 MSTORE PUSH1 0x4 ADD PUSH2 0x48B SWAP1 PUSH2 0x1C61 JUMP JUMPDEST PUSH1 0x40 MLOAD DUP1 SWAP2 SUB SWAP1 REVERT JUMPDEST DUP2 PUSH1 0x3 PUSH0 CALLER PUSH20 0xFFFFFFFFFFFFFFFFFFFFFFFFFFFFFFFFFFFFFFFF AND PUSH20 0xFFFFFFFFFFFFFFFFFFFFFFFFFFFFFFFFFFFFFFFF AND DUP2 MSTORE PUSH1 0x20 ADD SWAP1 DUP2 MSTORE PUSH1 0x20 ADD PUSH0 KECCAK256 PUSH0 DUP6 PUSH20 0xFFFFFFFFFFFFFFFFFFFFFFFFFFFFFFFFFFFFFFFF AND PUSH20 0xFFFFFFFFFFFFFFFFFFFFFFFFFFFFFFFFFFFFFFFF AND DUP2 MSTORE PUSH1 0x20 ADD SWAP1 DUP2 MSTORE PUSH1 0x20 ADD PUSH0 KECCAK256 DUP2 SWAP1 SSTORE POP DUP3 PUSH20 0xFFFFFFFFFFFFFFFFFFFFFFFFFFFFFFFFFFFFFFFF AND CALLER PUSH20 0xFFFFFFFFFFFFFFFFFFFFFFFFFFFFFFFFFFFFFFFF AND PUSH32 0x8C5BE1E5EBEC7D5BD14F71427D1E84F3DD0314C0F7B2291E5B200AC8C7C3B925 DUP5 PUSH1 0x40 MLOAD PUSH2 0x56E SWAP2 SWAP1 PUSH2 0x1AA5 JUMP JUMPDEST PUSH1 0x40 MLOAD DUP1 SWAP2 SUB SWAP1 LOG3 PUSH1 0x1 SWAP1 POP SWAP3 SWAP2 POP POP JUMP JUMPDEST PUSH1 0x2 PUSH1 0x20 MSTORE DUP1 PUSH0 MSTORE PUSH1 0x40 PUSH0 KECCAK256 PUSH0 SWAP2 POP SWAP1 POP SLOAD DUP2 JUMP JUMPDEST PUSH1 0x1 SLOAD DUP2 JUMP JUMPDEST PUSH0 CALLER PUSH20 0xFFFFFFFFFFFFFFFFFFFFFFFFFFFFFFFFFFFFFFFF AND DUP4 PUSH20 0xFFFFFFFFFFFFFFFFFFFFFFFFFFFFFFFFFFFFFFFF AND EQ PUSH2 0x60A JUMPI PUSH1 0x40 MLOAD PUSH32 0x8C379A000000000000000000000000000000000000000000000000000000000 DUP2 MSTORE PUSH1 0x4 ADD PUSH2 0x601 SWAP1 PUSH2 0x1CC9 JUMP JUMPDEST PUSH1 0x40 MLOAD DUP1 SWAP2 SUB SWAP1 REVERT JUMPDEST PUSH0 PUSH20 0xFFFFFFFFFFFFFFFFFFFFFFFFFFFFFFFFFFFFFFFF AND DUP5 PUSH20 0xFFFFFFFFFFFFFFFFFFFFFFFFFFFFFFFFFFFFFFFF AND SUB PUSH2 0x678 JUMPI PUSH1 0x40 MLOAD PUSH32 0x8C379A000000000000000000000000000000000000000000000000000000000 DUP2 MSTORE PUSH1 0x4 ADD PUSH2 0x66F SWAP1 PUSH2 0x1BF9 JUMP JUMPDEST PUSH1 0x40 MLOAD DUP1 SWAP2 SUB SWAP1 REVERT JUMPDEST PUSH0 PUSH20 0xFFFFFFFFFFFFFFFFFFFFFFFFFFFFFFFFFFFFFFFF AND DUP4 PUSH20 0xFFFFFFFFFFFFFFFFFFFFFFFFFFFFFFFFFFFFFFFF AND SUB PUSH2 0x6E6 JUMPI PUSH1 0x40 MLOAD PUSH32 0x8C379A000000000000000000000000000000000000000000000000000000000 DUP2 MSTORE PUSH1 0x4 ADD PUSH2 0x6DD SWAP1 PUSH2 0x1BF9 JUMP JUMPDEST PUSH1 0x40 MLOAD DUP1 SWAP2 SUB SWAP1 REVERT JUMPDEST DUP2 PUSH1 0x3 PUSH0 DUP7 PUSH20 0xFFFFFFFFFFFFFFFFFFFFFFFFFFFFFFFFFFFFFFFF AND PUSH20 0xFFFFFFFFFFFFFFFFFFFFFFFFFFFFFFFFFFFFFFFF AND DUP2 MSTORE PUSH1 0x20 ADD SWAP1 DUP2 MSTORE PUSH1 0x20 ADD PUSH0 KECCAK256 PUSH0 DUP6 PUSH20 0xFFFFFFFFFFFFFFFFFFFFFFFFFFFFFFFFFFFFFFFF AND PUSH20 0xFFFFFFFFFFFFFFFFFFFFFFFFFFFFFFFFFFFFFFFF AND DUP2 MSTORE PUSH1 0x20 ADD SWAP1 DUP2 MSTORE PUSH1 0x20 ADD PUSH0 KECCAK256 SLOAD LT ISZERO PUSH2 0x7A1 JUMPI PUSH1 0x40 MLOAD PUSH32 0x8C379A000000000000000000000000000000000000000000000000000000000 DUP2 MSTORE PUSH1 0x4 ADD PUSH2 0x798 SWAP1 PUSH2 0x1C61 JUMP JUMPDEST PUSH1 0x40 MLOAD DUP1 SWAP2 SUB SWAP1 REVERT JUMPDEST PUSH0 ISZERO ISZERO PUSH1 0x4 PUSH0 DUP7 PUSH20 0xFFFFFFFFFFFFFFFFFFFFFFFFFFFFFFFFFFFFFFFF AND PUSH20 0xFFFFFFFFFFFFFFFFFFFFFFFFFFFFFFFFFFFFFFFF AND DUP2 MSTORE PUSH1 0x20 ADD SWAP1 DUP2 MSTORE PUSH1 0x20 ADD PUSH0 KECCAK256 PUSH0 SWAP1 SLOAD SWAP1 PUSH2 0x100 EXP SWAP1 DIV PUSH1 0xFF AND ISZERO ISZERO EQ PUSH2 0x830 JUMPI PUSH1 0x40 MLOAD PUSH32 0x8C379A000000000000000000000000000000000000000000000000000000000 DUP2 MSTORE PUSH1 0x4 ADD PUSH2 0x827 SWAP1 PUSH2 0x1D31 JUMP JUMPDEST PUSH1 0x40 MLOAD DUP1 SWAP2 SUB SWAP1 REVERT JUMPDEST PUSH0 ISZERO ISZERO PUSH1 0x4 PUSH0 DUP6 PUSH20 0xFFFFFFFFFFFFFFFFFFFFFFFFFFFFFFFFFFFFFFFF AND PUSH20 0xFFFFFFFFFFFFFFFFFFFFFFFFFFFFFFFFFFFFFFFF AND DUP2 MSTORE PUSH1 0x20 ADD SWAP1 DUP2 MSTORE PUSH1 0x20 ADD PUSH0 KECCAK256 PUSH0 SWAP1 SLOAD SWAP1 PUSH2 0x100 EXP SWAP1 DIV PUSH1 0xFF AND ISZERO ISZERO EQ PUSH2 0x8BF JUMPI PUSH1 0x40 MLOAD PUSH32 0x8C379A000000000000000000000000000000000000000000000000000000000 DUP2 MSTORE PUSH1 0x4 ADD PUSH2 0x8B6 SWAP1 PUSH2 0x1DBF JUMP JUMPDEST PUSH1 0x40 MLOAD DUP1 SWAP2 SUB SWAP1 REVERT JUMPDEST PUSH0 ISZERO ISZERO PUSH1 0x5 PUSH0 DUP7 PUSH20 0xFFFFFFFFFFFFFFFFFFFFFFFFFFFFFFFFFFFFFFFF AND PUSH20 0xFFFFFFFFFFFFFFFFFFFFFFFFFFFFFFFFFFFFFFFF AND DUP2 MSTORE PUSH1 0x20 ADD SWAP1 DUP2 MSTORE PUSH1 0x20 ADD PUSH0 KECCAK256 PUSH0 SWAP1 SLOAD SWAP1 PUSH2 0x100 EXP SWAP1 DIV PUSH1 0xFF AND ISZERO ISZERO EQ PUSH2 0x94E JUMPI PUSH1 0x40 MLOAD PUSH32 0x8C379A000000000000000000000000000000000000000000000000000000000 DUP2 MSTORE PUSH1 0x4 ADD PUSH2 0x945 SWAP1 PUSH2 0x1E27 JUMP JUMPDEST PUSH1 0x40 MLOAD DUP1 SWAP2 SUB SWAP1 REVERT JUMPDEST PUSH0 ISZERO ISZERO PUSH1 0x5 PUSH0 DUP6 PUSH20 0xFFFFFFFFFFFFFFFFFFFFFFFFFFFFFFFFFFFFFFFF AND PUSH20 0xFFFFFFFFFFFFFFFFFFFFFFFFFFFFFFFFFFFFFFFF AND DUP2 MSTORE PUSH1 0x20 ADD SWAP1 DUP2 MSTORE PUSH1 0x20 ADD PUSH0 KECCAK256 PUSH0 SWAP1 SLOAD SWAP1 PUSH2 0x100 EXP SWAP1 DIV PUSH1 0xFF AND ISZERO ISZERO EQ PUSH2 0x9DD JUMPI PUSH1 0x40 MLOAD PUSH32 0x8C379A000000000000000000000000000000000000000000000000000000000 DUP2 MSTORE PUSH1 0x4 ADD PUSH2 0x9D4 SWAP1 PUSH2 0x1E27 JUMP JUMPDEST PUSH1 0x40 MLOAD DUP1 SWAP2 SUB SWAP1 REVERT JUMPDEST DUP2 PUSH1 0x2 PUSH0 DUP7 PUSH20 0xFFFFFFFFFFFFFFFFFFFFFFFFFFFFFFFFFFFFFFFF AND PUSH20 0xFFFFFFFFFFFFFFFFFFFFFFFFFFFFFFFFFFFFFFFF AND DUP2 MSTORE PUSH1 0x20 ADD SWAP1 DUP2 MSTORE PUSH1 0x20 ADD PUSH0 KECCAK256 PUSH0 DUP3 DUP3 SLOAD PUSH2 0xA29 SWAP2 SWAP1 PUSH2 0x1E72 JUMP JUMPDEST SWAP3 POP POP DUP2 SWAP1 SSTORE POP DUP2 PUSH1 0x2 PUSH0 DUP6 PUSH20 0xFFFFFFFFFFFFFFFFFFFFFFFFFFFFFFFFFFFFFFFF AND PUSH20 0xFFFFFFFFFFFFFFFFFFFFFFFFFFFFFFFFFFFFFFFF AND DUP2 MSTORE PUSH1 0x20 ADD SWAP1 DUP2 MSTORE PUSH1 0x20 ADD PUSH0 KECCAK256 PUSH0 DUP3 DUP3 SLOAD PUSH2 0xA7C SWAP2 SWAP1 PUSH2 0x1EA5 JUMP JUMPDEST SWAP3 POP POP DUP2 SWAP1 SSTORE POP DUP2 PUSH1 0x3 PUSH0 DUP7 PUSH20 0xFFFFFFFFFFFFFFFFFFFFFFFFFFFFFFFFFFFFFFFF AND PUSH20 0xFFFFFFFFFFFFFFFFFFFFFFFFFFFFFFFFFFFFFFFF AND DUP2 MSTORE PUSH1 0x20 ADD SWAP1 DUP2 MSTORE PUSH1 0x20 ADD PUSH0 KECCAK256 PUSH0 DUP6 PUSH20 0xFFFFFFFFFFFFFFFFFFFFFFFFFFFFFFFFFFFFFFFF AND PUSH20 0xFFFFFFFFFFFFFFFFFFFFFFFFFFFFFFFFFFFFFFFF AND DUP2 MSTORE PUSH1 0x20 ADD SWAP1 DUP2 MSTORE PUSH1 0x20 ADD PUSH0 KECCAK256 PUSH0 DUP3 DUP3 SLOAD PUSH2 0xB0A SWAP2 SWAP1 PUSH2 0x1E72 JUMP JUMPDEST SWAP3 POP POP DUP2 SWAP1 SSTORE POP DUP3 PUSH20 0xFFFFFFFFFFFFFFFFFFFFFFFFFFFFFFFFFFFFFFFF AND DUP5 PUSH20 0xFFFFFFFFFFFFFFFFFFFFFFFFFFFFFFFFFFFFFFFF AND PUSH32 0xDDF252AD1BE2C89B69C2B068FC378DAA952BA7F163C4A11628F55A4DF523B3EF DUP5 PUSH1 0x40 MLOAD PUSH2 0xB6E SWAP2 SWAP1 PUSH2 0x1AA5 JUMP JUMPDEST PUSH1 0x40 MLOAD DUP1 SWAP2 SUB SWAP1 LOG3 PUSH1 0x1 SWAP1 POP SWAP4 SWAP3 POP POP POP JUMP JUMPDEST PUSH1 0x6 SLOAD DUP2 JUMP JUMPDEST PUSH0 DUP1 SLOAD SWAP1 PUSH2 0x100 EXP SWAP1 DIV PUSH20 0xFFFFFFFFFFFFFFFFFFFFFFFFFFFFFFFFFFFFFFFF AND PUSH20 0xFFFFFFFFFFFFFFFFFFFFFFFFFFFFFFFFFFFFFFFF AND CALLER PUSH20 0xFFFFFFFFFFFFFFFFFFFFFFFFFFFFFFFFFFFFFFFF AND EQ PUSH2 0xC14 JUMPI PUSH1 0x40 MLOAD PUSH32 0x8C379A000000000000000000000000000000000000000000000000000000000 DUP2 MSTORE PUSH1 0x4 ADD PUSH2 0xC0B SWAP1 PUSH2 0x1F22 JUMP JUMPDEST PUSH1 0x40 MLOAD DUP1 SWAP2 SUB SWAP1 REVERT JUMPDEST PUSH0 PUSH1 0x7 PUSH0 PUSH2 0x100 EXP DUP2 SLOAD DUP2 PUSH1 0xFF MUL NOT AND SWAP1 DUP4 ISZERO ISZERO MUL OR SWAP1 SSTORE POP JUMP JUMPDEST PUSH0 DUP1 SLOAD SWAP1 PUSH2 0x100 EXP SWAP1 DIV PUSH20 0xFFFFFFFFFFFFFFFFFFFFFFFFFFFFFFFFFFFFFFFF AND PUSH20 0xFFFFFFFFFFFFFFFFFFFFFFFFFFFFFFFFFFFFFFFF AND CALLER PUSH20 0xFFFFFFFFFFFFFFFFFFFFFFFFFFFFFFFFFFFFFFFF AND EQ PUSH2 0xCBC JUMPI PUSH1 0x40 MLOAD PUSH32 0x8C379A000000000000000000000000000000000000000000000000000000000 DUP2 MSTORE PUSH1 0x4 ADD PUSH2 0xCB3 SWAP1 PUSH2 0x1F22 JUMP JUMPDEST PUSH1 0x40 MLOAD DUP1 SWAP2 SUB SWAP1 REVERT JUMPDEST DUP1 PUSH1 0x1 PUSH0 DUP3 DUP3 SLOAD PUSH2 0xCCD SWAP2 SWAP1 PUSH2 0x1EA5 JUMP JUMPDEST SWAP3 POP POP DUP2 SWAP1 SSTORE POP DUP1 PUSH1 0x2 PUSH0 DUP5 PUSH20 0xFFFFFFFFFFFFFFFFFFFFFFFFFFFFFFFFFFFFFFFF AND PUSH20 0xFFFFFFFFFFFFFFFFFFFFFFFFFFFFFFFFFFFFFFFF AND DUP2 MSTORE PUSH1 0x20 ADD SWAP1 DUP2 MSTORE PUSH1 0x20 ADD PUSH0 KECCAK256 PUSH0 DUP3 DUP3 SLOAD PUSH2 0xD20 SWAP2 SWAP1 PUSH2 0x1EA5 JUMP JUMPDEST SWAP3 POP POP DUP2 SWAP1 SSTORE POP POP POP JUMP JUMPDEST PUSH0 DUP2 GT PUSH2 0xD6D JUMPI PUSH1 0x40 MLOAD PUSH32 0x8C379A000000000000000000000000000000000000000000000000000000000 DUP2 MSTORE PUSH1 0x4 ADD PUSH2 0xD64 SWAP1 PUSH2 0x1F8A JUMP JUMPDEST PUSH1 0x40 MLOAD DUP1 SWAP2 SUB SWAP1 REVERT JUMPDEST DUP1 PUSH1 0x2 PUSH0 CALLER PUSH20 0xFFFFFFFFFFFFFFFFFFFFFFFFFFFFFFFFFFFFFFFF AND PUSH20 0xFFFFFFFFFFFFFFFFFFFFFFFFFFFFFFFFFFFFFFFF AND DUP2 MSTORE PUSH1 0x20 ADD SWAP1 DUP2 MSTORE PUSH1 0x20 ADD PUSH0 KECCAK256 SLOAD LT ISZERO PUSH2 0xDED JUMPI PUSH1 0x40 MLOAD PUSH32 0x8C379A000000000000000000000000000000000000000000000000000000000 DUP2 MSTORE PUSH1 0x4 ADD PUSH2 0xDE4 SWAP1 PUSH2 0x1FF2 JUMP JUMPDEST PUSH1 0x40 MLOAD DUP1 SWAP2 SUB SWAP1 REVERT JUMPDEST DUP1 PUSH1 0x2 PUSH0 CALLER PUSH20 0xFFFFFFFFFFFFFFFFFFFFFFFFFFFFFFFFFFFFFFFF AND PUSH20 0xFFFFFFFFFFFFFFFFFFFFFFFFFFFFFFFFFFFFFFFF AND DUP2 MSTORE PUSH1 0x20 ADD SWAP1 DUP2 MSTORE PUSH1 0x20 ADD PUSH0 KECCAK256 PUSH0 DUP3 DUP3 SLOAD PUSH2 0xE39 SWAP2 SWAP1 PUSH2 0x1E72 JUMP JUMPDEST SWAP3 POP POP DUP2 SWAP1 SSTORE POP DUP1 PUSH1 0x1 PUSH0 DUP3 DUP3 SLOAD PUSH2 0xE51 SWAP2 SWAP1 PUSH2 0x1E72 JUMP JUMPDEST SWAP3 POP POP DUP2 SWAP1 SSTORE POP PUSH0 PUSH20 0xFFFFFFFFFFFFFFFFFFFFFFFFFFFFFFFFFFFFFFFF AND CALLER PUSH20 0xFFFFFFFFFFFFFFFFFFFFFFFFFFFFFFFFFFFFFFFF AND PUSH32 0xDDF252AD1BE2C89B69C2B068FC378DAA952BA7F163C4A11628F55A4DF523B3EF DUP4 PUSH1 0x40 MLOAD PUSH2 0xEB5 SWAP2 SWAP1 PUSH2 0x1AA5 JUMP JUMPDEST PUSH1 0x40 MLOAD DUP1 SWAP2 SUB SWAP1 LOG3 POP JUMP JUMPDEST PUSH1 0x3 PUSH1 0x20 MSTORE DUP2 PUSH0 MSTORE PUSH1 0x40 PUSH0 KECCAK256 PUSH1 0x20 MSTORE DUP1 PUSH0 MSTORE PUSH1 0x40 PUSH0 KECCAK256 PUSH0 SWAP2 POP SWAP2 POP POP SLOAD DUP2 JUMP JUMPDEST PUSH0 DUP1 SLOAD SWAP1 PUSH2 0x100 EXP SWAP1 DIV PUSH20 0xFFFFFFFFFFFFFFFFFFFFFFFFFFFFFFFFFFFFFFFF AND DUP2 JUMP JUMPDEST PUSH0 PUSH1 0x2 PUSH0 DUP4 PUSH20 0xFFFFFFFFFFFFFFFFFFFFFFFFFFFFFFFFFFFFFFFF AND PUSH20 0xFFFFFFFFFFFFFFFFFFFFFFFFFFFFFFFFFFFFFFFF AND DUP2 MSTORE PUSH1 0x20 ADD SWAP1 DUP2 MSTORE PUSH1 0x20 ADD PUSH0 KECCAK256 SLOAD SWAP1 POP SWAP2 SWAP1 POP JUMP JUMPDEST PUSH0 DUP1 SLOAD SWAP1 PUSH2 0x100 EXP SWAP1 DIV PUSH20 0xFFFFFFFFFFFFFFFFFFFFFFFFFFFFFFFFFFFFFFFF AND PUSH20 0xFFFFFFFFFFFFFFFFFFFFFFFFFFFFFFFFFFFFFFFF AND CALLER PUSH20 0xFFFFFFFFFFFFFFFFFFFFFFFFFFFFFFFFFFFFFFFF AND EQ PUSH2 0xFD6 JUMPI PUSH1 0x40 MLOAD PUSH32 0x8C379A000000000000000000000000000000000000000000000000000000000 DUP2 MSTORE PUSH1 0x4 ADD PUSH2 0xFCD SWAP1 PUSH2 0x1F22 JUMP JUMPDEST PUSH1 0x40 MLOAD DUP1 SWAP2 SUB SWAP1 REVERT JUMPDEST PUSH0 PUSH1 0x5 PUSH0 DUP4 PUSH20 0xFFFFFFFFFFFFFFFFFFFFFFFFFFFFFFFFFFFFFFFF AND PUSH20 0xFFFFFFFFFFFFFFFFFFFFFFFFFFFFFFFFFFFFFFFF AND DUP2 MSTORE PUSH1 0x20 ADD SWAP1 DUP2 MSTORE PUSH1 0x20 ADD PUSH0 KECCAK256 PUSH0 PUSH2 0x100 EXP DUP2 SLOAD DUP2 PUSH1 0xFF MUL NOT AND SWAP1 DUP4 ISZERO ISZERO MUL OR SWAP1 SSTORE POP POP JUMP JUMPDEST PUSH0 DUP1 SLOAD SWAP1 PUSH2 0x100 EXP SWAP1 DIV PUSH20 0xFFFFFFFFFFFFFFFFFFFFFFFFFFFFFFFFFFFFFFFF AND PUSH20 0xFFFFFFFFFFFFFFFFFFFFFFFFFFFFFFFFFFFFFFFF AND CALLER PUSH20 0xFFFFFFFFFFFFFFFFFFFFFFFFFFFFFFFFFFFFFFFF AND EQ PUSH2 0x10BA JUMPI PUSH1 0x40 MLOAD PUSH32 0x8C379A000000000000000000000000000000000000000000000000000000000 DUP2 MSTORE PUSH1 0x4 ADD PUSH2 0x10B1 SWAP1 PUSH2 0x1F22 JUMP JUMPDEST PUSH1 0x40 MLOAD DUP1 SWAP2 SUB SWAP1 REVERT JUMPDEST PUSH0 PUSH1 0x4 PUSH0 DUP4 PUSH20 0xFFFFFFFFFFFFFFFFFFFFFFFFFFFFFFFFFFFFFFFF AND PUSH20 0xFFFFFFFFFFFFFFFFFFFFFFFFFFFFFFFFFFFFFFFF AND DUP2 MSTORE PUSH1 0x20 ADD SWAP1 DUP2 MSTORE PUSH1 0x20 ADD PUSH0 KECCAK256 PUSH0 PUSH2 0x100 EXP DUP2 SLOAD DUP2 PUSH1 0xFF MUL NOT AND SWAP1 DUP4 ISZERO ISZERO MUL OR SWAP1 SSTORE POP POP JUMP JUMPDEST PUSH0 DUP1 SLOAD SWAP1 PUSH2 0x100 EXP SWAP1 DIV PUSH20 0xFFFFFFFFFFFFFFFFFFFFFFFFFFFFFFFFFFFFFFFF AND PUSH20 0xFFFFFFFFFFFFFFFFFFFFFFFFFFFFFFFFFFFFFFFF AND CALLER PUSH20 0xFFFFFFFFFFFFFFFFFFFFFFFFFFFFFFFFFFFFFFFF AND EQ PUSH2 0x119E JUMPI PUSH1 0x40 MLOAD PUSH32 0x8C379A000000000000000000000000000000000000000000000000000000000 DUP2 MSTORE PUSH1 0x4 ADD PUSH2 0x1195 SWAP1 PUSH2 0x1F22 JUMP JUMPDEST PUSH1 0x40 MLOAD DUP1 SWAP2 SUB SWAP1 REVERT JUMPDEST PUSH1 0x1 PUSH1 0x7 PUSH0 PUSH2 0x100 EXP DUP2 SLOAD DUP2 PUSH1 0xFF MUL NOT AND SWAP1 DUP4 ISZERO ISZERO MUL OR SWAP1 SSTORE POP JUMP JUMPDEST PUSH0 DUP1 ISZERO ISZERO PUSH1 0x7 PUSH0 SWAP1 SLOAD SWAP1 PUSH2 0x100 EXP SWAP1 DIV PUSH1 0xFF AND ISZERO ISZERO EQ PUSH2 0x120F JUMPI PUSH1 0x40 MLOAD PUSH32 0x8C379A000000000000000000000000000000000000000000000000000000000 DUP2 MSTORE PUSH1 0x4 ADD PUSH2 0x1206 SWAP1 PUSH2 0x205A JUMP JUMPDEST PUSH1 0x40 MLOAD DUP1 SWAP2 SUB SWAP1 REVERT JUMPDEST PUSH0 PUSH20 0xFFFFFFFFFFFFFFFFFFFFFFFFFFFFFFFFFFFFFFFF AND DUP4 PUSH20 0xFFFFFFFFFFFFFFFFFFFFFFFFFFFFFFFFFFFFFFFF AND SUB PUSH2 0x127D JUMPI PUSH1 0x40 MLOAD PUSH32 0x8C379A000000000000000000000000000000000000000000000000000000000 DUP2 MSTORE PUSH1 0x4 ADD PUSH2 0x1274 SWAP1 PUSH2 0x1BF9 JUMP JUMPDEST PUSH1 0x40 MLOAD DUP1 SWAP2 SUB SWAP1 REVERT JUMPDEST DUP2 PUSH1 0x2 PUSH0 CALLER PUSH20 0xFFFFFFFFFFFFFFFFFFFFFFFFFFFFFFFFFFFFFFFF AND PUSH20 0xFFFFFFFFFFFFFFFFFFFFFFFFFFFFFFFFFFFFFFFF AND DUP2 MSTORE PUSH1 0x20 ADD SWAP1 DUP2 MSTORE PUSH1 0x20 ADD PUSH0 KECCAK256 SLOAD LT ISZERO PUSH2 0x12FD JUMPI PUSH1 0x40 MLOAD PUSH32 0x8C379A000000000000000000000000000000000000000000000000000000000 DUP2 MSTORE PUSH1 0x4 ADD PUSH2 0x12F4 SWAP1 PUSH2 0x1C61 JUMP JUMPDEST PUSH1 0x40 MLOAD DUP1 SWAP2 SUB SWAP1 REVERT JUMPDEST PUSH0 ISZERO ISZERO PUSH1 0x4 PUSH0 CALLER PUSH20 0xFFFFFFFFFFFFFFFFFFFFFFFFFFFFFFFFFFFFFFFF AND PUSH20 0xFFFFFFFFFFFFFFFFFFFFFFFFFFFFFFFFFFFFFFFF AND DUP2 MSTORE PUSH1 0x20 ADD SWAP1 DUP2 MSTORE PUSH1 0x20 ADD PUSH0 KECCAK256 PUSH0 SWAP1 SLOAD SWAP1 PUSH2 0x100 EXP SWAP1 DIV PUSH1 0xFF AND ISZERO ISZERO EQ PUSH2 0x138C JUMPI PUSH1 0x40 MLOAD PUSH32 0x8C379A000000000000000000000000000000000000000000000000000000000 DUP2 MSTORE PUSH1 0x4 ADD PUSH2 0x1383 SWAP1 PUSH2 0x1D31 JUMP JUMPDEST PUSH1 0x40 MLOAD DUP1 SWAP2 SUB SWAP1 REVERT JUMPDEST PUSH0 ISZERO ISZERO PUSH1 0x4 PUSH0 DUP6 PUSH20 0xFFFFFFFFFFFFFFFFFFFFFFFFFFFFFFFFFFFFFFFF AND PUSH20 0xFFFFFFFFFFFFFFFFFFFFFFFFFFFFFFFFFFFFFFFF AND DUP2 MSTORE PUSH1 0x20 ADD SWAP1 DUP2 MSTORE PUSH1 0x20 ADD PUSH0 KECCAK256 PUSH0 SWAP1 SLOAD SWAP1 PUSH2 0x100 EXP SWAP1 DIV PUSH1 0xFF AND ISZERO ISZERO EQ PUSH2 0x141B JUMPI PUSH1 0x40 MLOAD PUSH32 0x8C379A000000000000000000000000000000000000000000000000000000000 DUP2 MSTORE PUSH1 0x4 ADD PUSH2 0x1412 SWAP1 PUSH2 0x1DBF JUMP JUMPDEST PUSH1 0x40 MLOAD DUP1 SWAP2 SUB SWAP1 REVERT JUMPDEST DUP2 PUSH1 0x2 PUSH0 CALLER PUSH20 0xFFFFFFFFFFFFFFFFFFFFFFFFFFFFFFFFFFFFFFFF AND PUSH20 0xFFFFFFFFFFFFFFFFFFFFFFFFFFFFFFFFFFFFFFFF AND DUP2 MSTORE PUSH1 0x20 ADD SWAP1 DUP2 MSTORE PUSH1 0x20 ADD PUSH0 KECCAK256 PUSH0 DUP3 DUP3 SLOAD PUSH2 0x1467 SWAP2 SWAP1 PUSH2 0x1E72 JUMP JUMPDEST SWAP3 POP POP DUP2 SWAP1 SSTORE POP DUP2 PUSH1 0x2 PUSH0 DUP6 PUSH20 0xFFFFFFFFFFFFFFFFFFFFFFFFFFFFFFFFFFFFFFFF AND PUSH20 0xFFFFFFFFFFFFFFFFFFFFFFFFFFFFFFFFFFFFFFFF AND DUP2 MSTORE PUSH1 0x20 ADD SWAP1 DUP2 MSTORE PUSH1 0x20 ADD PUSH0 KECCAK256 PUSH0 DUP3 DUP3 SLOAD PUSH2 0x14BA SWAP2 SWAP1 PUSH2 0x1EA5 JUMP JUMPDEST SWAP3 POP POP DUP2 SWAP1 SSTORE POP PUSH0 ISZERO ISZERO PUSH1 0x5 PUSH0 CALLER PUSH20 0xFFFFFFFFFFFFFFFFFFFFFFFFFFFFFFFFFFFFFFFF AND PUSH20 0xFFFFFFFFFFFFFFFFFFFFFFFFFFFFFFFFFFFFFFFF AND DUP2 MSTORE PUSH1 0x20 ADD SWAP1 DUP2 MSTORE PUSH1 0x20 ADD PUSH0 KECCAK256 PUSH0 SWAP1 SLOAD SWAP1 PUSH2 0x100 EXP SWAP1 DIV PUSH1 0xFF AND ISZERO ISZERO EQ PUSH2 0x1550 JUMPI PUSH1 0x40 MLOAD PUSH32 0x8C379A000000000000000000000000000000000000000000000000000000000 DUP2 MSTORE PUSH1 0x4 ADD PUSH2 0x1547 SWAP1 PUSH2 0x1E27 JUMP JUMPDEST PUSH1 0x40 MLOAD DUP1 SWAP2 SUB SWAP1 REVERT JUMPDEST PUSH0 ISZERO ISZERO PUSH1 0x5 PUSH0 DUP6 PUSH20 0xFFFFFFFFFFFFFFFFFFFFFFFFFFFFFFFFFFFFFFFF AND PUSH20 0xFFFFFFFFFFFFFFFFFFFFFFFFFFFFFFFFFFFFFFFF AND DUP2 MSTORE PUSH1 0x20 ADD SWAP1 DUP2 MSTORE PUSH1 0x20 ADD PUSH0 KECCAK256 PUSH0 SWAP1 SLOAD SWAP1 PUSH2 0x100 EXP SWAP1 DIV PUSH1 0xFF AND ISZERO ISZERO EQ PUSH2 0x15DF JUMPI PUSH1 0x40 MLOAD PUSH32 0x8C379A000000000000000000000000000000000000000000000000000000000 DUP2 MSTORE PUSH1 0x4 ADD PUSH2 0x15D6 SWAP1 PUSH2 0x1E27 JUMP JUMPDEST PUSH1 0x40 MLOAD DUP1 SWAP2 SUB SWAP1 REVERT JUMPDEST DUP3 PUSH20 0xFFFFFFFFFFFFFFFFFFFFFFFFFFFFFFFFFFFFFFFF AND CALLER PUSH20 0xFFFFFFFFFFFFFFFFFFFFFFFFFFFFFFFFFFFFFFFF AND PUSH32 0xDDF252AD1BE2C89B69C2B068FC378DAA952BA7F163C4A11628F55A4DF523B3EF DUP5 PUSH1 0x40 MLOAD PUSH2 0x163C SWAP2 SWAP1 PUSH2 0x1AA5 JUMP JUMPDEST PUSH1 0x40 MLOAD DUP1 SWAP2 SUB SWAP1 LOG3 PUSH1 0x1 SWAP1 POP SWAP3 SWAP2 POP POP JUMP JUMPDEST PUSH0 PUSH1 0x3 PUSH0 DUP5 PUSH20 0xFFFFFFFFFFFFFFFFFFFFFFFFFFFFFFFFFFFFFFFF AND PUSH20 0xFFFFFFFFFFFFFFFFFFFFFFFFFFFFFFFFFFFFFFFF AND DUP2 MSTORE PUSH1 0x20 ADD SWAP1 DUP2 MSTORE PUSH1 0x20 ADD PUSH0 KECCAK256 PUSH0 DUP4 PUSH20 0xFFFFFFFFFFFFFFFFFFFFFFFFFFFFFFFFFFFFFFFF AND PUSH20 0xFFFFFFFFFFFFFFFFFFFFFFFFFFFFFFFFFFFFFFFF AND DUP2 MSTORE PUSH1 0x20 ADD SWAP1 DUP2 MSTORE PUSH1 0x20 ADD PUSH0 KECCAK256 SLOAD SWAP1 POP SWAP3 SWAP2 POP POP JUMP JUMPDEST PUSH0 DUP1 SLOAD SWAP1 PUSH2 0x100 EXP SWAP1 DIV PUSH20 0xFFFFFFFFFFFFFFFFFFFFFFFFFFFFFFFFFFFFFFFF AND PUSH20 0xFFFFFFFFFFFFFFFFFFFFFFFFFFFFFFFFFFFFFFFF AND CALLER PUSH20 0xFFFFFFFFFFFFFFFFFFFFFFFFFFFFFFFFFFFFFFFF AND EQ PUSH2 0x175D JUMPI PUSH1 0x40 MLOAD PUSH32 0x8C379A000000000000000000000000000000000000000000000000000000000 DUP2 MSTORE PUSH1 0x4 ADD PUSH2 0x1754 SWAP1 PUSH2 0x1F22 JUMP JUMPDEST PUSH1 0x40 MLOAD DUP1 SWAP2 SUB SWAP1 REVERT JUMPDEST PUSH1 0x1 PUSH1 0x4 PUSH0 DUP4 PUSH20 0xFFFFFFFFFFFFFFFFFFFFFFFFFFFFFFFFFFFFFFFF AND PUSH20 0xFFFFFFFFFFFFFFFFFFFFFFFFFFFFFFFFFFFFFFFF AND DUP2 MSTORE PUSH1 0x20 ADD SWAP1 DUP2 MSTORE PUSH1 0x20 ADD PUSH0 KECCAK256 PUSH0 PUSH2 0x100 EXP DUP2 SLOAD DUP2 PUSH1 0xFF MUL NOT AND SWAP1 DUP4 ISZERO ISZERO MUL OR SWAP1 SSTORE POP POP JUMP JUMPDEST PUSH0 DUP1 SLOAD SWAP1 PUSH2 0x100 EXP SWAP1 DIV PUSH20 0xFFFFFFFFFFFFFFFFFFFFFFFFFFFFFFFFFFFFFFFF AND PUSH20 0xFFFFFFFFFFFFFFFFFFFFFFFFFFFFFFFFFFFFFFFF AND CALLER PUSH20 0xFFFFFFFFFFFFFFFFFFFFFFFFFFFFFFFFFFFFFFFF AND EQ PUSH2 0x1842 JUMPI PUSH1 0x40 MLOAD PUSH32 0x8C379A000000000000000000000000000000000000000000000000000000000 DUP2 MSTORE PUSH1 0x4 ADD PUSH2 0x1839 SWAP1 PUSH2 0x1F22 JUMP JUMPDEST PUSH1 0x40 MLOAD DUP1 SWAP2 SUB SWAP1 REVERT JUMPDEST DUP1 PUSH0 DUP1 PUSH2 0x100 EXP DUP2 SLOAD DUP2 PUSH20 0xFFFFFFFFFFFFFFFFFFFFFFFFFFFFFFFFFFFFFFFF MUL NOT AND SWAP1 DUP4 PUSH20 0xFFFFFFFFFFFFFFFFFFFFFFFFFFFFFFFFFFFFFFFF AND MUL OR SWAP1 SSTORE POP POP JUMP JUMPDEST PUSH0 DUP1 SLOAD SWAP1 PUSH2 0x100 EXP SWAP1 DIV PUSH20 0xFFFFFFFFFFFFFFFFFFFFFFFFFFFFFFFFFFFFFFFF AND PUSH20 0xFFFFFFFFFFFFFFFFFFFFFFFFFFFFFFFFFFFFFFFF AND CALLER PUSH20 0xFFFFFFFFFFFFFFFFFFFFFFFFFFFFFFFFFFFFFFFF AND EQ PUSH2 0x1911 JUMPI PUSH1 0x40 MLOAD PUSH32 0x8C379A000000000000000000000000000000000000000000000000000000000 DUP2 MSTORE PUSH1 0x4 ADD PUSH2 0x1908 SWAP1 PUSH2 0x1F22 JUMP JUMPDEST PUSH1 0x40 MLOAD DUP1 SWAP2 SUB SWAP1 REVERT JUMPDEST PUSH1 0x1 PUSH1 0x5 PUSH0 DUP4 PUSH20 0xFFFFFFFFFFFFFFFFFFFFFFFFFFFFFFFFFFFFFFFF AND PUSH20 0xFFFFFFFFFFFFFFFFFFFFFFFFFFFFFFFFFFFFFFFF AND DUP2 MSTORE PUSH1 0x20 ADD SWAP1 DUP2 MSTORE PUSH1 0x20 ADD PUSH0 KECCAK256 PUSH0 PUSH2 0x100 EXP DUP2 SLOAD DUP2 PUSH1 0xFF MUL NOT AND SWAP1 DUP4 ISZERO ISZERO MUL OR SWAP1 SSTORE POP POP JUMP JUMPDEST PUSH0 DUP1 REVERT JUMPDEST PUSH0 PUSH20 0xFFFFFFFFFFFFFFFFFFFFFFFFFFFFFFFFFFFFFFFF DUP3 AND SWAP1 POP SWAP2 SWAP1 POP JUMP JUMPDEST PUSH0 PUSH2 0x1996 DUP3 PUSH2 0x196D JUMP JUMPDEST SWAP1 POP SWAP2 SWAP1 POP JUMP JUMPDEST PUSH2 0x19A6 DUP2 PUSH2 0x198C JUMP JUMPDEST DUP2 EQ PUSH2 0x19B0 JUMPI PUSH0 DUP1 REVERT JUMPDEST POP JUMP JUMPDEST PUSH0 DUP2 CALLDATALOAD SWAP1 POP PUSH2 0x19C1 DUP2 PUSH2 0x199D JUMP JUMPDEST SWAP3 SWAP2 POP POP JUMP JUMPDEST PUSH0 DUP2 SWAP1 POP SWAP2 SWAP1 POP JUMP JUMPDEST PUSH2 0x19D9 DUP2 PUSH2 0x19C7 JUMP JUMPDEST DUP2 EQ PUSH2 0x19E3 JUMPI PUSH0 DUP1 REVERT JUMPDEST POP JUMP JUMPDEST PUSH0 DUP2 CALLDATALOAD SWAP1 POP PUSH2 0x19F4 DUP2 PUSH2 0x19D0 JUMP JUMPDEST SWAP3 SWAP2 POP POP JUMP JUMPDEST PUSH0 DUP1 PUSH1 0x40 DUP4 DUP6 SUB SLT ISZERO PUSH2 0x1A10 JUMPI PUSH2 0x1A0F PUSH2 0x1969 JUMP JUMPDEST JUMPDEST PUSH0 PUSH2 0x1A1D DUP6 DUP3 DUP7 ADD PUSH2 0x19B3 JUMP JUMPDEST SWAP3 POP POP PUSH1 0x20 PUSH2 0x1A2E DUP6 DUP3 DUP7 ADD PUSH2 0x19E6 JUMP JUMPDEST SWAP2 POP POP SWAP3 POP SWAP3 SWAP1 POP JUMP JUMPDEST PUSH0 DUP2 ISZERO ISZERO SWAP1 POP SWAP2 SWAP1 POP JUMP JUMPDEST PUSH2 0x1A4C DUP2 PUSH2 0x1A38 JUMP JUMPDEST DUP3 MSTORE POP POP JUMP JUMPDEST PUSH0 PUSH1 0x20 DUP3 ADD SWAP1 POP PUSH2 0x1A65 PUSH0 DUP4 ADD DUP5 PUSH2 0x1A43 JUMP JUMPDEST SWAP3 SWAP2 POP POP JUMP JUMPDEST PUSH0 PUSH1 0x20 DUP3 DUP5 SUB SLT ISZERO PUSH2 0x1A80 JUMPI PUSH2 0x1A7F PUSH2 0x1969 JUMP JUMPDEST JUMPDEST PUSH0 PUSH2 0x1A8D DUP5 DUP3 DUP6 ADD PUSH2 0x19B3 JUMP JUMPDEST SWAP2 POP POP SWAP3 SWAP2 POP POP JUMP JUMPDEST PUSH2 0x1A9F DUP2 PUSH2 0x19C7 JUMP JUMPDEST DUP3 MSTORE POP POP JUMP JUMPDEST PUSH0 PUSH1 0x20 DUP3 ADD SWAP1 POP PUSH2 0x1AB8 PUSH0 DUP4 ADD DUP5 PUSH2 0x1A96 JUMP JUMPDEST SWAP3 SWAP2 POP POP JUMP JUMPDEST PUSH0 DUP1 PUSH0 PUSH1 0x60 DUP5 DUP7 SUB SLT ISZERO PUSH2 0x1AD5 JUMPI PUSH2 0x1AD4 PUSH2 0x1969 JUMP JUMPDEST JUMPDEST PUSH0 PUSH2 0x1AE2 DUP7 DUP3 DUP8 ADD PUSH2 0x19B3 JUMP JUMPDEST SWAP4 POP POP PUSH1 0x20 PUSH2 0x1AF3 DUP7 DUP3 DUP8 ADD PUSH2 0x19B3 JUMP JUMPDEST SWAP3 POP POP PUSH1 0x40 PUSH2 0x1B04 DUP7 DUP3 DUP8 ADD PUSH2 0x19E6 JUMP JUMPDEST SWAP2 POP POP SWAP3 POP SWAP3 POP SWAP3 JUMP JUMPDEST PUSH0 PUSH1 0x20 DUP3 DUP5 SUB SLT ISZERO PUSH2 0x1B23 JUMPI PUSH2 0x1B22 PUSH2 0x1969 JUMP JUMPDEST JUMPDEST PUSH0 PUSH2 0x1B30 DUP5 DUP3 DUP6 ADD PUSH2 0x19E6 JUMP JUMPDEST SWAP2 POP POP SWAP3 SWAP2 POP POP JUMP JUMPDEST PUSH0 DUP1 PUSH1 0x40 DUP4 DUP6 SUB SLT ISZERO PUSH2 0x1B4F JUMPI PUSH2 0x1B4E PUSH2 0x1969 JUMP JUMPDEST JUMPDEST PUSH0 PUSH2 0x1B5C DUP6 DUP3 DUP7 ADD PUSH2 0x19B3 JUMP JUMPDEST SWAP3 POP POP PUSH1 0x20 PUSH2 0x1B6D DUP6 DUP3 DUP7 ADD PUSH2 0x19B3 JUMP JUMPDEST SWAP2 POP POP SWAP3 POP SWAP3 SWAP1 POP JUMP JUMPDEST PUSH2 0x1B80 DUP2 PUSH2 0x198C JUMP JUMPDEST DUP3 MSTORE POP POP JUMP JUMPDEST PUSH0 PUSH1 0x20 DUP3 ADD SWAP1 POP PUSH2 0x1B99 PUSH0 DUP4 ADD DUP5 PUSH2 0x1B77 JUMP JUMPDEST SWAP3 SWAP2 POP POP JUMP JUMPDEST PUSH0 DUP3 DUP3 MSTORE PUSH1 0x20 DUP3 ADD SWAP1 POP SWAP3 SWAP2 POP POP JUMP JUMPDEST PUSH32 0x496E76616C696420616464726573730000000000000000000000000000000000 PUSH0 DUP3 ADD MSTORE POP JUMP JUMPDEST PUSH0 PUSH2 0x1BE3 PUSH1 0xF DUP4 PUSH2 0x1B9F JUMP JUMPDEST SWAP2 POP PUSH2 0x1BEE DUP3 PUSH2 0x1BAF JUMP JUMPDEST PUSH1 0x20 DUP3 ADD SWAP1 POP SWAP2 SWAP1 POP JUMP JUMPDEST PUSH0 PUSH1 0x20 DUP3 ADD SWAP1 POP DUP2 DUP2 SUB PUSH0 DUP4 ADD MSTORE PUSH2 0x1C10 DUP2 PUSH2 0x1BD7 JUMP JUMPDEST SWAP1 POP SWAP2 SWAP1 POP JUMP JUMPDEST PUSH32 0x496E73756666696369656E742056616C75650000000000000000000000000000 PUSH0 DUP3 ADD MSTORE POP JUMP JUMPDEST PUSH0 PUSH2 0x1C4B PUSH1 0x12 DUP4 PUSH2 0x1B9F JUMP JUMPDEST SWAP2 POP PUSH2 0x1C56 DUP3 PUSH2 0x1C17 JUMP JUMPDEST PUSH1 0x20 DUP3 ADD SWAP1 POP SWAP2 SWAP1 POP JUMP JUMPDEST PUSH0 PUSH1 0x20 DUP3 ADD SWAP1 POP DUP2 DUP2 SUB PUSH0 DUP4 ADD MSTORE PUSH2 0x1C78 DUP2 PUSH2 0x1C3F JUMP JUMPDEST SWAP1 POP SWAP2 SWAP1 POP JUMP JUMPDEST PUSH32 0x4E6F7420617574686F7269736564000000000000000000000000000000000000 PUSH0 DUP3 ADD MSTORE POP JUMP JUMPDEST PUSH0 PUSH2 0x1CB3 PUSH1 0xE DUP4 PUSH2 0x1B9F JUMP JUMPDEST SWAP2 POP PUSH2 0x1CBE DUP3 PUSH2 0x1C7F JUMP JUMPDEST PUSH1 0x20 DUP3 ADD SWAP1 POP SWAP2 SWAP1 POP JUMP JUMPDEST PUSH0 PUSH1 0x20 DUP3 ADD SWAP1 POP DUP2 DUP2 SUB PUSH0 DUP4 ADD MSTORE PUSH2 0x1CE0 DUP2 PUSH2 0x1CA7 JUMP JUMPDEST SWAP1 POP SWAP2 SWAP1 POP JUMP JUMPDEST PUSH32 0x596F75277265206E6F7420616C6C6F7765640000000000000000000000000000 PUSH0 DUP3 ADD MSTORE POP JUMP JUMPDEST PUSH0 PUSH2 0x1D1B PUSH1 0x12 DUP4 PUSH2 0x1B9F JUMP JUMPDEST SWAP2 POP PUSH2 0x1D26 DUP3 PUSH2 0x1CE7 JUMP JUMPDEST PUSH1 0x20 DUP3 ADD SWAP1 POP SWAP2 SWAP1 POP JUMP JUMPDEST PUSH0 PUSH1 0x20 DUP3 ADD SWAP1 POP DUP2 DUP2 SUB PUSH0 DUP4 ADD MSTORE PUSH2 0x1D48 DUP2 PUSH2 0x1D0F JUMP JUMPDEST SWAP1 POP SWAP2 SWAP1 POP JUMP JUMPDEST PUSH32 0x546869732061646472657373206973206E6F7420616C6C6F77656420746F2072 PUSH0 DUP3 ADD MSTORE PUSH32 0x65636569766520746F6B656E7300000000000000000000000000000000000000 PUSH1 0x20 DUP3 ADD MSTORE POP JUMP JUMPDEST PUSH0 PUSH2 0x1DA9 PUSH1 0x2D DUP4 PUSH2 0x1B9F JUMP JUMPDEST SWAP2 POP PUSH2 0x1DB4 DUP3 PUSH2 0x1D4F JUMP JUMPDEST PUSH1 0x40 DUP3 ADD SWAP1 POP SWAP2 SWAP1 POP JUMP JUMPDEST PUSH0 PUSH1 0x20 DUP3 ADD SWAP1 POP DUP2 DUP2 SUB PUSH0 DUP4 ADD MSTORE PUSH2 0x1DD6 DUP2 PUSH2 0x1D9D JUMP JUMPDEST SWAP1 POP SWAP2 SWAP1 POP JUMP JUMPDEST PUSH32 0x4163636F756E7420697320626C61636B6C697374656400000000000000000000 PUSH0 DUP3 ADD MSTORE POP JUMP JUMPDEST PUSH0 PUSH2 0x1E11 PUSH1 0x16 DUP4 PUSH2 0x1B9F JUMP JUMPDEST SWAP2 POP PUSH2 0x1E1C DUP3 PUSH2 0x1DDD JUMP JUMPDEST PUSH1 0x20 DUP3 ADD SWAP1 POP SWAP2 SWAP1 POP JUMP JUMPDEST PUSH0 PUSH1 0x20 DUP3 ADD SWAP1 POP DUP2 DUP2 SUB PUSH0 DUP4 ADD MSTORE PUSH2 0x1E3E DUP2 PUSH2 0x1E05 JUMP JUMPDEST SWAP1 POP SWAP2 SWAP1 POP JUMP JUMPDEST PUSH32 0x4E487B7100000000000000000000000000000000000000000000000000000000 PUSH0 MSTORE PUSH1 0x11 PUSH1 0x4 MSTORE PUSH1 0x24 PUSH0 REVERT JUMPDEST PUSH0 PUSH2 0x1E7C DUP3 PUSH2 0x19C7 JUMP JUMPDEST SWAP2 POP PUSH2 0x1E87 DUP4 PUSH2 0x19C7 JUMP JUMPDEST SWAP3 POP DUP3 DUP3 SUB SWAP1 POP DUP2 DUP2 GT ISZERO PUSH2 0x1E9F JUMPI PUSH2 0x1E9E PUSH2 0x1E45 JUMP JUMPDEST JUMPDEST SWAP3 SWAP2 POP POP JUMP JUMPDEST PUSH0 PUSH2 0x1EAF DUP3 PUSH2 0x19C7 JUMP JUMPDEST SWAP2 POP PUSH2 0x1EBA DUP4 PUSH2 0x19C7 JUMP JUMPDEST SWAP3 POP DUP3 DUP3 ADD SWAP1 POP DUP1 DUP3 GT ISZERO PUSH2 0x1ED2 JUMPI PUSH2 0x1ED1 PUSH2 0x1E45 JUMP JUMPDEST JUMPDEST SWAP3 SWAP2 POP POP JUMP JUMPDEST PUSH32 0x596F75277265206E6F7420666F756E6465720000000000000000000000000000 PUSH0 DUP3 ADD MSTORE POP JUMP JUMPDEST PUSH0 PUSH2 0x1F0C PUSH1 0x12 DUP4 PUSH2 0x1B9F JUMP JUMPDEST SWAP2 POP PUSH2 0x1F17 DUP3 PUSH2 0x1ED8 JUMP JUMPDEST PUSH1 0x20 DUP3 ADD SWAP1 POP SWAP2 SWAP1 POP JUMP JUMPDEST PUSH0 PUSH1 0x20 DUP3 ADD SWAP1 POP DUP2 DUP2 SUB PUSH0 DUP4 ADD MSTORE PUSH2 0x1F39 DUP2 PUSH2 0x1F00 JUMP JUMPDEST SWAP1 POP SWAP2 SWAP1 POP JUMP JUMPDEST PUSH32 0x416D6F756E74206D7573742062652067726561746572207468616E207A65726F PUSH0 DUP3 ADD MSTORE POP JUMP JUMPDEST PUSH0 PUSH2 0x1F74 PUSH1 0x20 DUP4 PUSH2 0x1B9F JUMP JUMPDEST SWAP2 POP PUSH2 0x1F7F DUP3 PUSH2 0x1F40 JUMP JUMPDEST PUSH1 0x20 DUP3 ADD SWAP1 POP SWAP2 SWAP1 POP JUMP JUMPDEST PUSH0 PUSH1 0x20 DUP3 ADD SWAP1 POP DUP2 DUP2 SUB PUSH0 DUP4 ADD MSTORE PUSH2 0x1FA1 DUP2 PUSH2 0x1F68 JUMP JUMPDEST SWAP1 POP SWAP2 SWAP1 POP JUMP JUMPDEST PUSH32 0x496E73756666696369656E742062616C616E636520746F206275726E00000000 PUSH0 DUP3 ADD MSTORE POP JUMP JUMPDEST PUSH0 PUSH2 0x1FDC PUSH1 0x1C DUP4 PUSH2 0x1B9F JUMP JUMPDEST SWAP2 POP PUSH2 0x1FE7 DUP3 PUSH2 0x1FA8 JUMP JUMPDEST PUSH1 0x20 DUP3 ADD SWAP1 POP SWAP2 SWAP1 POP JUMP JUMPDEST PUSH0 PUSH1 0x20 DUP3 ADD SWAP1 POP DUP2 DUP2 SUB PUSH0 DUP4 ADD MSTORE PUSH2 0x2009 DUP2 PUSH2 0x1FD0 JUMP JUMPDEST SWAP1 POP SWAP2 SWAP1 POP JUMP JUMPDEST PUSH32 0x5472616E73666572207061757365640000000000000000000000000000000000 PUSH0 DUP3 ADD MSTORE POP JUMP JUMPDEST PUSH0 PUSH2 0x2044 PUSH1 0xF DUP4 PUSH2 0x1B9F JUMP JUMPDEST SWAP2 POP PUSH2 0x204F DUP3 PUSH2 0x2010 JUMP JUMPDEST PUSH1 0x20 DUP3 ADD SWAP1 POP SWAP2 SWAP1 POP JUMP JUMPDEST PUSH0 PUSH1 0x20 DUP3 ADD SWAP1 POP DUP2 DUP2 SUB PUSH0 DUP4 ADD MSTORE PUSH2 0x2071 DUP2 PUSH2 0x2038 JUMP JUMPDEST SWAP1 POP SWAP2 SWAP1 POP JUMP INVALID LOG2 PUSH5 0x6970667358 0x22 SLT KECCAK256 0xC CALLER 0x2D 0x25 0xCD LOG3 PUSH32 0xCB82109A232DC90479B38781C4D155200C9BF0FC561AB405B364736F6C634300 ADDMOD BYTE STOP CALLER "
				},
				"gasEstimates": {
					"creation": {
						"codeDepositCost": "1673200",
						"executionCost": "96669",
						"totalCost": "1769869"
					},
					"external": {
						"allowance(address,address)": "infinite",
						"allowedTokens(address,address)": "infinite",
						"approve(address,uint256)": "infinite",
						"balanceOf(address)": "2874",
						"balanceOfUser(address)": "2848",
						"blacklist(address)": "27079",
						"burn(uint256)": "infinite",
						"decimals()": "2448",
						"founder()": "2528",
						"freezeAccount(address)": "27035",
						"mint(address,uint256)": "infinite",
						"pause()": "26686",
						"totalSupply()": "2493",
						"transfer(address,uint256)": "infinite",
						"transferFrom(address,address,uint256)": "infinite",
						"transferOwnership(address)": "26969",
						"unblacklist(address)": "27035",
						"unfreezeAccount(address)": "27057",
						"unpause()": "26619"
					}
				},
				"methodIdentifiers": {
					"allowance(address,address)": "dd62ed3e",
					"allowedTokens(address,address)": "4995832d",
					"approve(address,uint256)": "095ea7b3",
					"balanceOf(address)": "70a08231",
					"balanceOfUser(address)": "12cae7af",
					"blacklist(address)": "f9f92be4",
					"burn(uint256)": "42966c68",
					"decimals()": "313ce567",
					"founder()": "4d853ee5",
					"freezeAccount(address)": "f26c159f",
					"mint(address,uint256)": "40c10f19",
					"pause()": "8456cb59",
					"totalSupply()": "18160ddd",
					"transfer(address,uint256)": "a9059cbb",
					"transferFrom(address,address,uint256)": "23b872dd",
					"transferOwnership(address)": "f2fde38b",
					"unblacklist(address)": "75e3661e",
					"unfreezeAccount(address)": "788649ea",
					"unpause()": "3f4ba83a"
				}
			},
			"storageLayout": {
				"storage": [
					{
						"astId": 72,
						"contract": "Erc20ForVoting.sol:MyToken",
						"label": "founder",
						"offset": 0,
						"slot": "0",
						"type": "t_address"
					},
					{
						"astId": 75,
						"contract": "Erc20ForVoting.sol:MyToken",
						"label": "totalSupply",
						"offset": 0,
						"slot": "1",
						"type": "t_uint256"
					},
					{
						"astId": 79,
						"contract": "Erc20ForVoting.sol:MyToken",
						"label": "balanceOfUser",
						"offset": 0,
						"slot": "2",
						"type": "t_mapping(t_address,t_uint256)"
					},
					{
						"astId": 85,
						"contract": "Erc20ForVoting.sol:MyToken",
						"label": "allowedTokens",
						"offset": 0,
						"slot": "3",
						"type": "t_mapping(t_address,t_mapping(t_address,t_uint256))"
					},
					{
						"astId": 89,
						"contract": "Erc20ForVoting.sol:MyToken",
						"label": "freezedAccount",
						"offset": 0,
						"slot": "4",
						"type": "t_mapping(t_address,t_bool)"
					},
					{
						"astId": 93,
						"contract": "Erc20ForVoting.sol:MyToken",
						"label": "blacklistAddress",
						"offset": 0,
						"slot": "5",
						"type": "t_mapping(t_address,t_bool)"
					},
					{
						"astId": 96,
						"contract": "Erc20ForVoting.sol:MyToken",
						"label": "decimals",
						"offset": 0,
						"slot": "6",
						"type": "t_uint256"
					},
					{
						"astId": 98,
						"contract": "Erc20ForVoting.sol:MyToken",
						"label": "isPause",
						"offset": 0,
						"slot": "7",
						"type": "t_bool"
					},
					{
						"astId": 100,
						"contract": "Erc20ForVoting.sol:MyToken",
						"label": "isBlacklisted",
						"offset": 1,
						"slot": "7",
						"type": "t_bool"
					}
				],
				"types": {
					"t_address": {
						"encoding": "inplace",
						"label": "address",
						"numberOfBytes": "20"
					},
					"t_bool": {
						"encoding": "inplace",
						"label": "bool",
						"numberOfBytes": "1"
					},
					"t_mapping(t_address,t_bool)": {
						"encoding": "mapping",
						"key": "t_address",
						"label": "mapping(address => bool)",
						"numberOfBytes": "32",
						"value": "t_bool"
					},
					"t_mapping(t_address,t_mapping(t_address,t_uint256))": {
						"encoding": "mapping",
						"key": "t_address",
						"label": "mapping(address => mapping(address => uint256))",
						"numberOfBytes": "32",
						"value": "t_mapping(t_address,t_uint256)"
					},
					"t_mapping(t_address,t_uint256)": {
						"encoding": "mapping",
						"key": "t_address",
						"label": "mapping(address => uint256)",
						"numberOfBytes": "32",
						"value": "t_uint256"
					},
					"t_uint256": {
						"encoding": "inplace",
						"label": "uint256",
						"numberOfBytes": "32"
					}
				}
			},
			"userdoc": {
				"kind": "user",
				"methods": {},
				"version": 1
			}
		}
	}
}