{
	"votingERC.sol": {
		"Vote": {
			"abi": [
				{
					"inputs": [
						{
							"internalType": "address",
							"name": "_gldToken",
							"type": "address"
						}
					],
					"stateMutability": "nonpayable",
					"type": "constructor"
				},
				{
					"inputs": [],
					"name": "announceVotingResult",
					"outputs": [],
					"stateMutability": "nonpayable",
					"type": "function"
				},
				{
					"inputs": [
						{
							"internalType": "uint256",
							"name": "_voterId",
							"type": "uint256"
						},
						{
							"internalType": "uint256",
							"name": "_candidateId",
							"type": "uint256"
						}
					],
					"name": "castVote",
					"outputs": [],
					"stateMutability": "nonpayable",
					"type": "function"
				},
				{
					"inputs": [],
					"name": "electionCommission",
					"outputs": [
						{
							"internalType": "address",
							"name": "",
							"type": "address"
						}
					],
					"stateMutability": "view",
					"type": "function"
				},
				{
					"inputs": [],
					"name": "emergencyStopVoting",
					"outputs": [],
					"stateMutability": "nonpayable",
					"type": "function"
				},
				{
					"inputs": [],
					"name": "getCandidateList",
					"outputs": [
						{
							"components": [
								{
									"internalType": "string",
									"name": "name",
									"type": "string"
								},
								{
									"internalType": "string",
									"name": "party",
									"type": "string"
								},
								{
									"internalType": "uint256",
									"name": "age",
									"type": "uint256"
								},
								{
									"internalType": "enum Vote.Gender",
									"name": "gender",
									"type": "uint8"
								},
								{
									"internalType": "uint256",
									"name": "candidateId",
									"type": "uint256"
								},
								{
									"internalType": "address",
									"name": "candidateAddress",
									"type": "address"
								},
								{
									"internalType": "uint256",
									"name": "votes",
									"type": "uint256"
								}
							],
							"internalType": "struct Vote.Candidate[]",
							"name": "",
							"type": "tuple[]"
						}
					],
					"stateMutability": "view",
					"type": "function"
				},
				{
					"inputs": [],
					"name": "getVoterList",
					"outputs": [
						{
							"components": [
								{
									"internalType": "string",
									"name": "name",
									"type": "string"
								},
								{
									"internalType": "uint256",
									"name": "age",
									"type": "uint256"
								},
								{
									"internalType": "uint256",
									"name": "voterId",
									"type": "uint256"
								},
								{
									"internalType": "enum Vote.Gender",
									"name": "gender",
									"type": "uint8"
								},
								{
									"internalType": "uint256",
									"name": "voteCandidateId",
									"type": "uint256"
								},
								{
									"internalType": "address",
									"name": "voterAddress",
									"type": "address"
								}
							],
							"internalType": "struct Vote.Voter[]",
							"name": "",
							"type": "tuple[]"
						}
					],
					"stateMutability": "view",
					"type": "function"
				},
				{
					"inputs": [],
					"name": "getVotingStatus",
					"outputs": [
						{
							"internalType": "enum Vote.VotingStatus",
							"name": "",
							"type": "uint8"
						}
					],
					"stateMutability": "view",
					"type": "function"
				},
				{
					"inputs": [],
					"name": "gldToken",
					"outputs": [
						{
							"internalType": "contract IERC20",
							"name": "",
							"type": "address"
						}
					],
					"stateMutability": "view",
					"type": "function"
				},
				{
					"inputs": [
						{
							"internalType": "string",
							"name": "_name",
							"type": "string"
						},
						{
							"internalType": "string",
							"name": "_party",
							"type": "string"
						},
						{
							"internalType": "uint256",
							"name": "_age",
							"type": "uint256"
						},
						{
							"internalType": "enum Vote.Gender",
							"name": "_gender",
							"type": "uint8"
						}
					],
					"name": "registerCandidate",
					"outputs": [],
					"stateMutability": "nonpayable",
					"type": "function"
				},
				{
					"inputs": [
						{
							"internalType": "string",
							"name": "_name",
							"type": "string"
						},
						{
							"internalType": "uint256",
							"name": "_age",
							"type": "uint256"
						},
						{
							"internalType": "enum Vote.Gender",
							"name": "_gender",
							"type": "uint8"
						}
					],
					"name": "registerVoter",
					"outputs": [],
					"stateMutability": "nonpayable",
					"type": "function"
				},
				{
					"inputs": [
						{
							"internalType": "uint256",
							"name": "_startTimeDuration",
							"type": "uint256"
						},
						{
							"internalType": "uint256",
							"name": "_endTimeDuration",
							"type": "uint256"
						}
					],
					"name": "setVotingPeriod",
					"outputs": [],
					"stateMutability": "nonpayable",
					"type": "function"
				},
				{
					"inputs": [],
					"name": "winner",
					"outputs": [
						{
							"internalType": "address",
							"name": "",
							"type": "address"
						}
					],
					"stateMutability": "view",
					"type": "function"
				}
			],
			"devdoc": {
				"kind": "dev",
				"methods": {},
				"version": 1
			},
			"evm": {
				"assembly": "    /* \"votingERC.sol\":123:5319  contract Vote {... */\n  mstore(0x40, 0x80)\n    /* \"votingERC.sol\":680:681  1 */\n  0x01\n    /* \"votingERC.sol\":661:681  uint nextVoterId = 1 */\n  0x02\n  sstore\n    /* \"votingERC.sol\":707:708  1 */\n  0x01\n    /* \"votingERC.sol\":684:708  uint nextCandidateId = 1 */\n  0x03\n  sstore\n    /* \"votingERC.sol\":995:1134  constructor(address _gldToken) {... */\n  callvalue\n  dup1\n  iszero\n  tag_1\n  jumpi\n  0x00\n  dup1\n  revert\ntag_1:\n  pop\n  mload(0x40)\n  sub(codesize, bytecodeSize)\n  dup1\n  bytecodeSize\n  dup4\n  codecopy\n  dup2\n  dup2\n  add\n  0x40\n  mstore\n  dup2\n  add\n  swap1\n  tag_2\n  swap2\n  swap1\n  tag_3\n  jump\t// in\ntag_2:\n    /* \"votingERC.sol\":1051:1060  _gldToken */\n  dup1\n    /* \"votingERC.sol\":1033:1041  gldToken */\n  0x09\n  0x00\n    /* \"votingERC.sol\":1033:1061  gldToken = IERC20(_gldToken) */\n  0x0100\n  exp\n  dup2\n  sload\n  dup2\n  0xffffffffffffffffffffffffffffffffffffffff\n  mul\n  not\n  and\n  swap1\n  dup4\n  0xffffffffffffffffffffffffffffffffffffffff\n  and\n  mul\n  or\n  swap1\n  sstore\n  pop\n    /* \"votingERC.sol\":1087:1097  msg.sender */\n  caller\n    /* \"votingERC.sol\":1068:1086  electionCommission */\n  0x00\n  dup1\n    /* \"votingERC.sol\":1068:1097  electionCommission=msg.sender */\n  0x0100\n  exp\n  dup2\n  sload\n  dup2\n  0xffffffffffffffffffffffffffffffffffffffff\n  mul\n  not\n  and\n  swap1\n  dup4\n  0xffffffffffffffffffffffffffffffffffffffff\n  and\n  mul\n  or\n  swap1\n  sstore\n  pop\n    /* \"votingERC.sol\":995:1134  constructor(address _gldToken) {... */\n  pop\n    /* \"votingERC.sol\":123:5319  contract Vote {... */\n  jump(tag_6)\n    /* \"#utility.yul\":88:205   */\ntag_8:\n    /* \"#utility.yul\":197:198   */\n  0x00\n    /* \"#utility.yul\":194:195   */\n  dup1\n    /* \"#utility.yul\":187:199   */\n  revert\n    /* \"#utility.yul\":334:460   */\ntag_10:\n    /* \"#utility.yul\":371:378   */\n  0x00\n    /* \"#utility.yul\":411:453   */\n  0xffffffffffffffffffffffffffffffffffffffff\n    /* \"#utility.yul\":404:409   */\n  dup3\n    /* \"#utility.yul\":400:454   */\n  and\n    /* \"#utility.yul\":389:454   */\n  swap1\n  pop\n    /* \"#utility.yul\":334:460   */\n  swap2\n  swap1\n  pop\n  jump\t// out\n    /* \"#utility.yul\":466:562   */\ntag_11:\n    /* \"#utility.yul\":503:510   */\n  0x00\n    /* \"#utility.yul\":532:556   */\n  tag_20\n    /* \"#utility.yul\":550:555   */\n  dup3\n    /* \"#utility.yul\":532:556   */\n  tag_10\n  jump\t// in\ntag_20:\n    /* \"#utility.yul\":521:556   */\n  swap1\n  pop\n    /* \"#utility.yul\":466:562   */\n  swap2\n  swap1\n  pop\n  jump\t// out\n    /* \"#utility.yul\":568:690   */\ntag_12:\n    /* \"#utility.yul\":641:665   */\n  tag_22\n    /* \"#utility.yul\":659:664   */\n  dup2\n    /* \"#utility.yul\":641:665   */\n  tag_11\n  jump\t// in\ntag_22:\n    /* \"#utility.yul\":634:639   */\n  dup2\n    /* \"#utility.yul\":631:666   */\n  eq\n    /* \"#utility.yul\":621:684   */\n  tag_23\n  jumpi\n    /* \"#utility.yul\":680:681   */\n  0x00\n    /* \"#utility.yul\":677:678   */\n  dup1\n    /* \"#utility.yul\":670:682   */\n  revert\n    /* \"#utility.yul\":621:684   */\ntag_23:\n    /* \"#utility.yul\":568:690   */\n  pop\n  jump\t// out\n    /* \"#utility.yul\":696:839   */\ntag_13:\n    /* \"#utility.yul\":753:758   */\n  0x00\n    /* \"#utility.yul\":784:790   */\n  dup2\n    /* \"#utility.yul\":778:791   */\n  mload\n    /* \"#utility.yul\":769:791   */\n  swap1\n  pop\n    /* \"#utility.yul\":800:833   */\n  tag_25\n    /* \"#utility.yul\":827:832   */\n  dup2\n    /* \"#utility.yul\":800:833   */\n  tag_12\n  jump\t// in\ntag_25:\n    /* \"#utility.yul\":696:839   */\n  swap3\n  swap2\n  pop\n  pop\n  jump\t// out\n    /* \"#utility.yul\":845:1196   */\ntag_3:\n    /* \"#utility.yul\":915:921   */\n  0x00\n    /* \"#utility.yul\":964:966   */\n  0x20\n    /* \"#utility.yul\":952:961   */\n  dup3\n    /* \"#utility.yul\":943:950   */\n  dup5\n    /* \"#utility.yul\":939:962   */\n  sub\n    /* \"#utility.yul\":935:967   */\n  slt\n    /* \"#utility.yul\":932:1051   */\n  iszero\n  tag_27\n  jumpi\n    /* \"#utility.yul\":970:1049   */\n  tag_28\n  tag_8\n  jump\t// in\ntag_28:\n    /* \"#utility.yul\":932:1051   */\ntag_27:\n    /* \"#utility.yul\":1090:1091   */\n  0x00\n    /* \"#utility.yul\":1115:1179   */\n  tag_29\n    /* \"#utility.yul\":1171:1178   */\n  dup5\n    /* \"#utility.yul\":1162:1168   */\n  dup3\n    /* \"#utility.yul\":1151:1160   */\n  dup6\n    /* \"#utility.yul\":1147:1169   */\n  add\n    /* \"#utility.yul\":1115:1179   */\n  tag_13\n  jump\t// in\ntag_29:\n    /* \"#utility.yul\":1105:1179   */\n  swap2\n  pop\n    /* \"#utility.yul\":1061:1189   */\n  pop\n    /* \"#utility.yul\":845:1196   */\n  swap3\n  swap2\n  pop\n  pop\n  jump\t// out\n    /* \"votingERC.sol\":123:5319  contract Vote {... */\ntag_6:\n  dataSize(sub_0)\n  dup1\n  dataOffset(sub_0)\n  0x00\n  codecopy\n  0x00\n  return\nstop\n\nsub_0: assembly {\n        /* \"votingERC.sol\":123:5319  contract Vote {... */\n      mstore(0x40, 0x80)\n      callvalue\n      dup1\n      iszero\n      tag_1\n      jumpi\n      0x00\n      dup1\n      revert\n    tag_1:\n      pop\n      jumpi(tag_2, lt(calldatasize, 0x04))\n      shr(0xe0, calldataload(0x00))\n      dup1\n      0x9fa4e440\n      gt\n      tag_15\n      jumpi\n      dup1\n      0x9fa4e440\n      eq\n      tag_9\n      jumpi\n      dup1\n      0xa15a36c7\n      eq\n      tag_10\n      jumpi\n      dup1\n      0xaab46b7f\n      eq\n      tag_11\n      jumpi\n      dup1\n      0xb28d92ae\n      eq\n      tag_12\n      jumpi\n      dup1\n      0xdfbf53ae\n      eq\n      tag_13\n      jumpi\n      dup1\n      0xfdbc4006\n      eq\n      tag_14\n      jumpi\n      jump(tag_2)\n    tag_15:\n      dup1\n      0x2c0a3f89\n      eq\n      tag_3\n      jumpi\n      dup1\n      0x581c281c\n      eq\n      tag_4\n      jumpi\n      dup1\n      0x6ce2ccc0\n      eq\n      tag_5\n      jumpi\n      dup1\n      0x81ba732f\n      eq\n      tag_6\n      jumpi\n      dup1\n      0x982c777d\n      eq\n      tag_7\n      jumpi\n      dup1\n      0x9939b8b2\n      eq\n      tag_8\n      jumpi\n    tag_2:\n      0x00\n      dup1\n      revert\n        /* \"votingERC.sol\":3697:4326  function castVote(uint _voterId, uint _candidateId) external isVotingOver(){... */\n    tag_3:\n      tag_16\n      0x04\n      dup1\n      calldatasize\n      sub\n      dup2\n      add\n      swap1\n      tag_17\n      swap2\n      swap1\n      tag_18\n      jump\t// in\n    tag_17:\n      tag_19\n      jump\t// in\n    tag_16:\n      stop\n        /* \"votingERC.sol\":4670:4956  function getVotingStatus() public view returns (VotingStatus) {... */\n    tag_4:\n      tag_20\n      tag_21\n      jump\t// in\n    tag_20:\n      mload(0x40)\n      tag_22\n      swap2\n      swap1\n      tag_23\n      jump\t// in\n    tag_22:\n      mload(0x40)\n      dup1\n      swap2\n      sub\n      swap1\n      return\n        /* \"votingERC.sol\":4962:5228  function announceVotingResult() external onlyCommissioner() {... */\n    tag_5:\n      tag_24\n      tag_25\n      jump\t// in\n    tag_24:\n      stop\n        /* \"votingERC.sol\":2984:3423  function registerVoter(... */\n    tag_6:\n      tag_26\n      0x04\n      dup1\n      calldatasize\n      sub\n      dup2\n      add\n      swap1\n      tag_27\n      swap2\n      swap1\n      tag_28\n      jump\t// in\n    tag_27:\n      tag_29\n      jump\t// in\n    tag_26:\n      stop\n        /* \"votingERC.sol\":1472:2139  function registerCandidate(... */\n    tag_7:\n      tag_30\n      0x04\n      dup1\n      calldatasize\n      sub\n      dup2\n      add\n      swap1\n      tag_31\n      swap2\n      swap1\n      tag_32\n      jump\t// in\n    tag_31:\n      tag_33\n      jump\t// in\n    tag_30:\n      stop\n        /* \"votingERC.sol\":866:888  IERC20 public gldToken */\n    tag_8:\n      tag_34\n      tag_35\n      jump\t// in\n    tag_34:\n      mload(0x40)\n      tag_36\n      swap2\n      swap1\n      tag_37\n      jump\t// in\n    tag_36:\n      mload(0x40)\n      dup1\n      swap2\n      sub\n      swap1\n      return\n        /* \"votingERC.sol\":5234:5316  function emergencyStopVoting() public onlyCommissioner() {... */\n    tag_9:\n      tag_38\n      tag_39\n      jump\t// in\n    tag_38:\n      stop\n        /* \"votingERC.sol\":4332:4664  function setVotingPeriod(uint _startTimeDuration, uint _endTimeDuration) external onlyCommissioner() {... */\n    tag_10:\n      tag_40\n      0x04\n      dup1\n      calldatasize\n      sub\n      dup2\n      add\n      swap1\n      tag_41\n      swap2\n      swap1\n      tag_18\n      jump\t// in\n    tag_41:\n      tag_42\n      jump\t// in\n    tag_40:\n      stop\n        /* \"votingERC.sol\":601:634  address public electionCommission */\n    tag_11:\n      tag_43\n      tag_44\n      jump\t// in\n    tag_43:\n      mload(0x40)\n      tag_45\n      swap2\n      swap1\n      tag_46\n      jump\t// in\n    tag_45:\n      mload(0x40)\n      dup1\n      swap2\n      sub\n      swap1\n      return\n        /* \"votingERC.sol\":3429:3691  function getVoterList() public view returns (Voter[] memory) {... */\n    tag_12:\n      tag_47\n      tag_48\n      jump\t// in\n    tag_47:\n      mload(0x40)\n      tag_49\n      swap2\n      swap1\n      tag_50\n      jump\t// in\n    tag_49:\n      mload(0x40)\n      dup1\n      swap2\n      sub\n      swap1\n      return\n        /* \"votingERC.sol\":637:658  address public winner */\n    tag_13:\n      tag_51\n      tag_52\n      jump\t// in\n    tag_51:\n      mload(0x40)\n      tag_53\n      swap2\n      swap1\n      tag_46\n      jump\t// in\n    tag_53:\n      mload(0x40)\n      dup1\n      swap2\n      sub\n      swap1\n      return\n        /* \"votingERC.sol\":2395:2747  function getCandidateList() public view returns (Candidate[] memory) {... */\n    tag_14:\n      tag_54\n      tag_55\n      jump\t// in\n    tag_54:\n      mload(0x40)\n      tag_56\n      swap2\n      swap1\n      tag_57\n      jump\t// in\n    tag_56:\n      mload(0x40)\n      dup1\n      swap2\n      sub\n      swap1\n      return\n        /* \"votingERC.sol\":3697:4326  function castVote(uint _voterId, uint _candidateId) external isVotingOver(){... */\n    tag_19:\n        /* \"votingERC.sol\":1194:1201  endTime */\n      sload(0x05)\n        /* \"votingERC.sol\":1177:1192  block.timestamp */\n      timestamp\n        /* \"votingERC.sol\":1177:1201  block.timestamp<=endTime */\n      gt\n      iszero\n        /* \"votingERC.sol\":1177:1222  block.timestamp<=endTime && stopVoting==false */\n      dup1\n      iszero\n      tag_59\n      jumpi\n      pop\n        /* \"votingERC.sol\":1217:1222  false */\n      0x00\n        /* \"votingERC.sol\":1205:1222  stopVoting==false */\n      iszero\n      iszero\n        /* \"votingERC.sol\":1205:1215  stopVoting */\n      0x06\n      0x00\n      swap1\n      sload\n      swap1\n      0x0100\n      exp\n      swap1\n      div\n      0xff\n      and\n        /* \"votingERC.sol\":1205:1222  stopVoting==false */\n      iszero\n      iszero\n      eq\n        /* \"votingERC.sol\":1177:1222  block.timestamp<=endTime && stopVoting==false */\n    tag_59:\n        /* \"votingERC.sol\":1169:1245  require(block.timestamp<=endTime && stopVoting==false,\"Voting time is over\") */\n      tag_60\n      jumpi\n      mload(0x40)\n      0x08c379a000000000000000000000000000000000000000000000000000000000\n      dup2\n      mstore\n      0x04\n      add\n      tag_61\n      swap1\n      tag_62\n      jump\t// in\n    tag_61:\n      mload(0x40)\n      dup1\n      swap2\n      sub\n      swap1\n      revert\n    tag_60:\n        /* \"votingERC.sol\":3819:3820  0 */\n      0x00\n        /* \"votingERC.sol\":3788:3796  gldToken */\n      0x09\n      0x00\n      swap1\n      sload\n      swap1\n      0x0100\n      exp\n      swap1\n      div\n      0xffffffffffffffffffffffffffffffffffffffff\n      and\n        /* \"votingERC.sol\":3788:3806  gldToken.balanceOf */\n      0xffffffffffffffffffffffffffffffffffffffff\n      and\n      0x70a08231\n        /* \"votingERC.sol\":3807:3817  msg.sender */\n      caller\n        /* \"votingERC.sol\":3788:3818  gldToken.balanceOf(msg.sender) */\n      mload(0x40)\n      dup3\n      0xffffffff\n      and\n      0xe0\n      shl\n      dup2\n      mstore\n      0x04\n      add\n      tag_64\n      swap2\n      swap1\n      tag_46\n      jump\t// in\n    tag_64:\n      0x20\n      mload(0x40)\n      dup1\n      dup4\n      sub\n      dup2\n      dup7\n      gas\n      staticcall\n      iszero\n      dup1\n      iszero\n      tag_66\n      jumpi\n      returndatasize\n      0x00\n      dup1\n      returndatacopy\n      revert(0x00, returndatasize)\n    tag_66:\n      pop\n      pop\n      pop\n      pop\n      mload(0x40)\n      returndatasize\n      not(0x1f)\n      0x1f\n      dup3\n      add\n      and\n      dup3\n      add\n      dup1\n      0x40\n      mstore\n      pop\n      dup2\n      add\n      swap1\n      tag_67\n      swap2\n      swap1\n      tag_68\n      jump\t// in\n    tag_67:\n        /* \"votingERC.sol\":3788:3820  gldToken.balanceOf(msg.sender)>0 */\n      gt\n        /* \"votingERC.sol\":3779:3836  require (gldToken.balanceOf(msg.sender)>0, \"not allowed\") */\n      tag_69\n      jumpi\n      mload(0x40)\n      0x08c379a000000000000000000000000000000000000000000000000000000000\n      dup2\n      mstore\n      0x04\n      add\n      tag_70\n      swap1\n      tag_71\n      jump\t// in\n    tag_70:\n      mload(0x40)\n      dup1\n      swap2\n      sub\n      swap1\n      revert\n    tag_69:\n        /* \"votingERC.sol\":3870:3879  startTime */\n      sload(0x04)\n        /* \"votingERC.sol\":3851:3866  block.timestamp */\n      timestamp\n        /* \"votingERC.sol\":3851:3879  block.timestamp >= startTime */\n      lt\n      iszero\n        /* \"votingERC.sol\":3843:3910  require(block.timestamp >= startTime, \"Voting has not started yet\") */\n      tag_72\n      jumpi\n      mload(0x40)\n      0x08c379a000000000000000000000000000000000000000000000000000000000\n      dup2\n      mstore\n      0x04\n      add\n      tag_73\n      swap1\n      tag_74\n      jump\t// in\n    tag_73:\n      mload(0x40)\n      dup1\n      swap2\n      sub\n      swap1\n      revert\n    tag_72:\n        /* \"votingERC.sol\":3965:3966  0 */\n      0x00\n        /* \"votingERC.sol\":3925:3937  voterDetails */\n      0x07\n        /* \"votingERC.sol\":3925:3947  voterDetails[_voterId] */\n      0x00\n        /* \"votingERC.sol\":3938:3946  _voterId */\n      dup5\n        /* \"votingERC.sol\":3925:3947  voterDetails[_voterId] */\n      dup2\n      mstore\n      0x20\n      add\n      swap1\n      dup2\n      mstore\n      0x20\n      add\n      0x00\n      keccak256\n        /* \"votingERC.sol\":3925:3963  voterDetails[_voterId].voteCandidateId */\n      0x04\n      add\n      sload\n        /* \"votingERC.sol\":3925:3966  voterDetails[_voterId].voteCandidateId==0 */\n      eq\n        /* \"votingERC.sol\":3917:3992  require(voterDetails[_voterId].voteCandidateId==0,\"You have already voted\") */\n      tag_75\n      jumpi\n      mload(0x40)\n      0x08c379a000000000000000000000000000000000000000000000000000000000\n      dup2\n      mstore\n      0x04\n      add\n      tag_76\n      swap1\n      tag_77\n      jump\t// in\n    tag_76:\n      mload(0x40)\n      dup1\n      swap2\n      sub\n      swap1\n      revert\n    tag_75:\n        /* \"votingERC.sol\":4044:4054  msg.sender */\n      caller\n        /* \"votingERC.sol\":4007:4054  voterDetails[_voterId].voterAddress==msg.sender */\n      0xffffffffffffffffffffffffffffffffffffffff\n      and\n        /* \"votingERC.sol\":4007:4019  voterDetails */\n      0x07\n        /* \"votingERC.sol\":4007:4029  voterDetails[_voterId] */\n      0x00\n        /* \"votingERC.sol\":4020:4028  _voterId */\n      dup5\n        /* \"votingERC.sol\":4007:4029  voterDetails[_voterId] */\n      dup2\n      mstore\n      0x20\n      add\n      swap1\n      dup2\n      mstore\n      0x20\n      add\n      0x00\n      keccak256\n        /* \"votingERC.sol\":4007:4042  voterDetails[_voterId].voterAddress */\n      0x05\n      add\n      0x00\n      swap1\n      sload\n      swap1\n      0x0100\n      exp\n      swap1\n      div\n      0xffffffffffffffffffffffffffffffffffffffff\n      and\n        /* \"votingERC.sol\":4007:4054  voterDetails[_voterId].voterAddress==msg.sender */\n      0xffffffffffffffffffffffffffffffffffffffff\n      and\n      eq\n        /* \"votingERC.sol\":3999:4081  require(voterDetails[_voterId].voterAddress==msg.sender,\"You are not authourized\") */\n      tag_78\n      jumpi\n      mload(0x40)\n      0x08c379a000000000000000000000000000000000000000000000000000000000\n      dup2\n      mstore\n      0x04\n      add\n      tag_79\n      swap1\n      tag_80\n      jump\t// in\n    tag_79:\n      mload(0x40)\n      dup1\n      swap2\n      sub\n      swap1\n      revert\n    tag_78:\n        /* \"votingERC.sol\":4110:4111  1 */\n      0x01\n        /* \"votingERC.sol\":4096:4108  _candidateId */\n      dup2\n        /* \"votingERC.sol\":4096:4111  _candidateId>=1 */\n      lt\n      iszero\n        /* \"votingERC.sol\":4096:4130  _candidateId>=1 && _candidateId <3 */\n      dup1\n      iszero\n      tag_81\n      jumpi\n      pop\n        /* \"votingERC.sol\":4129:4130  3 */\n      0x03\n        /* \"votingERC.sol\":4115:4127  _candidateId */\n      dup2\n        /* \"votingERC.sol\":4115:4130  _candidateId <3 */\n      lt\n        /* \"votingERC.sol\":4096:4130  _candidateId>=1 && _candidateId <3 */\n    tag_81:\n        /* \"votingERC.sol\":4088:4161  require(_candidateId>=1 && _candidateId <3,\"Candidate Id is not correct\") */\n      tag_82\n      jumpi\n      mload(0x40)\n      0x08c379a000000000000000000000000000000000000000000000000000000000\n      dup2\n      mstore\n      0x04\n      add\n      tag_83\n      swap1\n      tag_84\n      jump\t// in\n    tag_83:\n      mload(0x40)\n      dup1\n      swap2\n      sub\n      swap1\n      revert\n    tag_82:\n        /* \"votingERC.sol\":4209:4221  _candidateId */\n      dup1\n        /* \"votingERC.sol\":4168:4180  voterDetails */\n      0x07\n        /* \"votingERC.sol\":4168:4190  voterDetails[_voterId] */\n      0x00\n        /* \"votingERC.sol\":4181:4189  _voterId */\n      dup5\n        /* \"votingERC.sol\":4168:4190  voterDetails[_voterId] */\n      dup2\n      mstore\n      0x20\n      add\n      swap1\n      dup2\n      mstore\n      0x20\n      add\n      0x00\n      keccak256\n        /* \"votingERC.sol\":4168:4206  voterDetails[_voterId].voteCandidateId */\n      0x04\n      add\n        /* \"votingERC.sol\":4168:4221  voterDetails[_voterId].voteCandidateId = _candidateId */\n      dup2\n      swap1\n      sstore\n      pop\n        /* \"votingERC.sol\":4253:4269  candidateDetails */\n      0x08\n        /* \"votingERC.sol\":4253:4283  candidateDetails[_candidateId] */\n      0x00\n        /* \"votingERC.sol\":4270:4282  _candidateId */\n      dup3\n        /* \"votingERC.sol\":4253:4283  candidateDetails[_candidateId] */\n      dup2\n      mstore\n      0x20\n      add\n      swap1\n      dup2\n      mstore\n      0x20\n      add\n      0x00\n      keccak256\n        /* \"votingERC.sol\":4253:4289  candidateDetails[_candidateId].votes */\n      0x06\n      add\n      0x00\n        /* \"votingERC.sol\":4253:4291  candidateDetails[_candidateId].votes++ */\n      dup2\n      sload\n      dup1\n      swap3\n      swap2\n      swap1\n      tag_85\n      swap1\n      tag_86\n      jump\t// in\n    tag_85:\n      swap2\n      swap1\n      pop\n      sstore\n      pop\n        /* \"votingERC.sol\":3697:4326  function castVote(uint _voterId, uint _candidateId) external isVotingOver(){... */\n      pop\n      pop\n      jump\t// out\n        /* \"votingERC.sol\":4670:4956  function getVotingStatus() public view returns (VotingStatus) {... */\n    tag_21:\n        /* \"votingERC.sol\":4718:4730  VotingStatus */\n      0x00\n        /* \"votingERC.sol\":4753:4754  0 */\n      dup1\n        /* \"votingERC.sol\":4742:4751  startTime */\n      sload(0x04)\n        /* \"votingERC.sol\":4742:4754  startTime==0 */\n      sub\n        /* \"votingERC.sol\":4739:4953  if(startTime==0){... */\n      tag_88\n      jumpi\n        /* \"votingERC.sol\":4773:4796  VotingStatus.NotStarted */\n      0x00\n        /* \"votingERC.sol\":4766:4796  return VotingStatus.NotStarted */\n      swap1\n      pop\n      jump(tag_87)\n        /* \"votingERC.sol\":4739:4953  if(startTime==0){... */\n    tag_88:\n        /* \"votingERC.sol\":4820:4835  block.timestamp */\n      timestamp\n        /* \"votingERC.sol\":4812:4819  endTime */\n      sload(0x05)\n        /* \"votingERC.sol\":4812:4835  endTime>block.timestamp */\n      gt\n        /* \"votingERC.sol\":4812:4856  endTime>block.timestamp && stopVoting==false */\n      dup1\n      iszero\n      tag_90\n      jumpi\n      pop\n        /* \"votingERC.sol\":4851:4856  false */\n      0x00\n        /* \"votingERC.sol\":4839:4856  stopVoting==false */\n      iszero\n      iszero\n        /* \"votingERC.sol\":4839:4849  stopVoting */\n      0x06\n      0x00\n      swap1\n      sload\n      swap1\n      0x0100\n      exp\n      swap1\n      div\n      0xff\n      and\n        /* \"votingERC.sol\":4839:4856  stopVoting==false */\n      iszero\n      iszero\n      eq\n        /* \"votingERC.sol\":4812:4856  endTime>block.timestamp && stopVoting==false */\n    tag_90:\n        /* \"votingERC.sol\":4809:4953  if(endTime>block.timestamp && stopVoting==false){... */\n      iszero\n      tag_91\n      jumpi\n        /* \"votingERC.sol\":4874:4897  VotingStatus.InProgress */\n      0x01\n        /* \"votingERC.sol\":4867:4897  return VotingStatus.InProgress */\n      swap1\n      pop\n      jump(tag_87)\n        /* \"votingERC.sol\":4809:4953  if(endTime>block.timestamp && stopVoting==false){... */\n    tag_91:\n        /* \"votingERC.sol\":4927:4945  VotingStatus.Ended */\n      0x02\n        /* \"votingERC.sol\":4920:4945  return VotingStatus.Ended */\n      swap1\n      pop\n        /* \"votingERC.sol\":4670:4956  function getVotingStatus() public view returns (VotingStatus) {... */\n    tag_87:\n      swap1\n      jump\t// out\n        /* \"votingERC.sol\":4962:5228  function announceVotingResult() external onlyCommissioner() {... */\n    tag_25:\n        /* \"votingERC.sol\":1316:1334  electionCommission */\n      0x00\n      dup1\n      sload\n      swap1\n      0x0100\n      exp\n      swap1\n      div\n      0xffffffffffffffffffffffffffffffffffffffff\n      and\n        /* \"votingERC.sol\":1304:1334  msg.sender==electionCommission */\n      0xffffffffffffffffffffffffffffffffffffffff\n      and\n        /* \"votingERC.sol\":1304:1314  msg.sender */\n      caller\n        /* \"votingERC.sol\":1304:1334  msg.sender==electionCommission */\n      0xffffffffffffffffffffffffffffffffffffffff\n      and\n      eq\n        /* \"votingERC.sol\":1296:1353  require(msg.sender==electionCommission,\"Not authuorized\") */\n      tag_94\n      jumpi\n      mload(0x40)\n      0x08c379a000000000000000000000000000000000000000000000000000000000\n      dup2\n      mstore\n      0x04\n      add\n      tag_95\n      swap1\n      tag_96\n      jump\t// in\n    tag_95:\n      mload(0x40)\n      dup1\n      swap2\n      sub\n      swap1\n      revert\n    tag_94:\n        /* \"votingERC.sol\":5027:5035  uint max */\n      0x00\n        /* \"votingERC.sol\":5046:5052  uint i */\n      dup1\n        /* \"votingERC.sol\":5053:5054  1 */\n      0x01\n        /* \"votingERC.sol\":5046:5054  uint i=1 */\n      swap1\n      pop\n        /* \"votingERC.sol\":5042:5225  for(uint i=1;i<nextCandidateId;i++){... */\n    tag_98:\n        /* \"votingERC.sol\":5057:5072  nextCandidateId */\n      sload(0x03)\n        /* \"votingERC.sol\":5055:5056  i */\n      dup2\n        /* \"votingERC.sol\":5055:5072  i<nextCandidateId */\n      lt\n        /* \"votingERC.sol\":5042:5225  for(uint i=1;i<nextCandidateId;i++){... */\n      iszero\n      tag_99\n      jumpi\n        /* \"votingERC.sol\":5113:5116  max */\n      dup2\n        /* \"votingERC.sol\":5087:5103  candidateDetails */\n      0x08\n        /* \"votingERC.sol\":5087:5106  candidateDetails[i] */\n      0x00\n        /* \"votingERC.sol\":5104:5105  i */\n      dup4\n        /* \"votingERC.sol\":5087:5106  candidateDetails[i] */\n      dup2\n      mstore\n      0x20\n      add\n      swap1\n      dup2\n      mstore\n      0x20\n      add\n      0x00\n      keccak256\n        /* \"votingERC.sol\":5087:5112  candidateDetails[i].votes */\n      0x06\n      add\n      sload\n        /* \"votingERC.sol\":5087:5116  candidateDetails[i].votes>max */\n      gt\n        /* \"votingERC.sol\":5084:5220  if(candidateDetails[i].votes>max){... */\n      iszero\n      tag_101\n      jumpi\n        /* \"votingERC.sol\":5132:5148  candidateDetails */\n      0x08\n        /* \"votingERC.sol\":5132:5151  candidateDetails[i] */\n      0x00\n        /* \"votingERC.sol\":5149:5150  i */\n      dup3\n        /* \"votingERC.sol\":5132:5151  candidateDetails[i] */\n      dup2\n      mstore\n      0x20\n      add\n      swap1\n      dup2\n      mstore\n      0x20\n      add\n      0x00\n      keccak256\n        /* \"votingERC.sol\":5132:5157  candidateDetails[i].votes */\n      0x06\n      add\n      sload\n        /* \"votingERC.sol\":5128:5157  max=candidateDetails[i].votes */\n      swap2\n      pop\n        /* \"votingERC.sol\":5175:5191  candidateDetails */\n      0x08\n        /* \"votingERC.sol\":5175:5194  candidateDetails[i] */\n      0x00\n        /* \"votingERC.sol\":5192:5193  i */\n      dup3\n        /* \"votingERC.sol\":5175:5194  candidateDetails[i] */\n      dup2\n      mstore\n      0x20\n      add\n      swap1\n      dup2\n      mstore\n      0x20\n      add\n      0x00\n      keccak256\n        /* \"votingERC.sol\":5175:5211  candidateDetails[i].candidateAddress */\n      0x05\n      add\n      0x00\n      swap1\n      sload\n      swap1\n      0x0100\n      exp\n      swap1\n      div\n      0xffffffffffffffffffffffffffffffffffffffff\n      and\n        /* \"votingERC.sol\":5168:5174  winner */\n      0x01\n      0x00\n        /* \"votingERC.sol\":5168:5211  winner=candidateDetails[i].candidateAddress */\n      0x0100\n      exp\n      dup2\n      sload\n      dup2\n      0xffffffffffffffffffffffffffffffffffffffff\n      mul\n      not\n      and\n      swap1\n      dup4\n      0xffffffffffffffffffffffffffffffffffffffff\n      and\n      mul\n      or\n      swap1\n      sstore\n      pop\n        /* \"votingERC.sol\":5084:5220  if(candidateDetails[i].votes>max){... */\n    tag_101:\n        /* \"votingERC.sol\":5073:5076  i++ */\n      dup1\n      dup1\n      0x01\n      add\n      swap2\n      pop\n      pop\n        /* \"votingERC.sol\":5042:5225  for(uint i=1;i<nextCandidateId;i++){... */\n      jump(tag_98)\n    tag_99:\n      pop\n        /* \"votingERC.sol\":5022:5228  {... */\n      pop\n        /* \"votingERC.sol\":4962:5228  function announceVotingResult() external onlyCommissioner() {... */\n      jump\t// out\n        /* \"votingERC.sol\":2984:3423  function registerVoter(... */\n    tag_29:\n        /* \"votingERC.sol\":3095:3099  _age */\n      dup2\n        /* \"votingERC.sol\":1423:1425  18 */\n      0x12\n        /* \"votingERC.sol\":1417:1421  _age */\n      dup2\n        /* \"votingERC.sol\":1417:1425  _age>=18 */\n      lt\n      iszero\n        /* \"votingERC.sol\":1409:1452  require(_age>=18,\"not eligible for voting\") */\n      tag_103\n      jumpi\n      mload(0x40)\n      0x08c379a000000000000000000000000000000000000000000000000000000000\n      dup2\n      mstore\n      0x04\n      add\n      tag_104\n      swap1\n      tag_105\n      jump\t// in\n    tag_104:\n      mload(0x40)\n      dup1\n      swap2\n      sub\n      swap1\n      revert\n    tag_103:\n        /* \"votingERC.sol\":3120:3152  isVoterNotRegistered(msg.sender) */\n      tag_107\n        /* \"votingERC.sol\":3141:3151  msg.sender */\n      caller\n        /* \"votingERC.sol\":3120:3140  isVoterNotRegistered */\n      tag_108\n        /* \"votingERC.sol\":3120:3152  isVoterNotRegistered(msg.sender) */\n      jump\t// in\n    tag_107:\n        /* \"votingERC.sol\":3112:3182  require(isVoterNotRegistered(msg.sender),\"You are already registered\") */\n      tag_109\n      jumpi\n      mload(0x40)\n      0x08c379a000000000000000000000000000000000000000000000000000000000\n      dup2\n      mstore\n      0x04\n      add\n      tag_110\n      swap1\n      tag_111\n      jump\t// in\n    tag_110:\n      mload(0x40)\n      dup1\n      swap2\n      sub\n      swap1\n      revert\n    tag_109:\n        /* \"votingERC.sol\":3220:3395  Voter({... */\n      mload(0x40)\n      dup1\n      0xc0\n      add\n      0x40\n      mstore\n      dup1\n        /* \"votingERC.sol\":3242:3247  _name */\n      dup7\n      dup7\n        /* \"votingERC.sol\":3220:3395  Voter({... */\n      dup1\n      dup1\n      0x1f\n      add\n      0x20\n      dup1\n      swap2\n      div\n      mul\n      0x20\n      add\n      mload(0x40)\n      swap1\n      dup2\n      add\n      0x40\n      mstore\n      dup1\n      swap4\n      swap3\n      swap2\n      swap1\n      dup2\n      dup2\n      mstore\n      0x20\n      add\n      dup4\n      dup4\n      dup1\n      dup3\n      dup5\n      calldatacopy\n      0x00\n      dup2\n      dup5\n      add\n      mstore\n      not(0x1f)\n      0x1f\n      dup3\n      add\n      and\n      swap1\n      pop\n      dup1\n      dup4\n      add\n      swap3\n      pop\n      pop\n      pop\n      pop\n      pop\n      pop\n      pop\n      dup2\n      mstore\n      0x20\n      add\n        /* \"votingERC.sol\":3262:3266  _age */\n      dup5\n        /* \"votingERC.sol\":3220:3395  Voter({... */\n      dup2\n      mstore\n      0x20\n      add\n        /* \"votingERC.sol\":3285:3296  nextVoterId */\n      sload(0x02)\n        /* \"votingERC.sol\":3220:3395  Voter({... */\n      dup2\n      mstore\n      0x20\n      add\n        /* \"votingERC.sol\":3314:3321  _gender */\n      dup4\n        /* \"votingERC.sol\":3220:3395  Voter({... */\n      0x03\n      dup2\n      gt\n      iszero\n      tag_112\n      jumpi\n      tag_113\n      tag_114\n      jump\t// in\n    tag_113:\n    tag_112:\n      dup2\n      mstore\n      0x20\n      add\n        /* \"votingERC.sol\":3348:3349  0 */\n      0x00\n        /* \"votingERC.sol\":3220:3395  Voter({... */\n      dup2\n      mstore\n      0x20\n      add\n        /* \"votingERC.sol\":3373:3383  msg.sender */\n      caller\n        /* \"votingERC.sol\":3220:3395  Voter({... */\n      0xffffffffffffffffffffffffffffffffffffffff\n      and\n      dup2\n      mstore\n      pop\n        /* \"votingERC.sol\":3193:3205  voterDetails */\n      0x07\n        /* \"votingERC.sol\":3193:3218  voterDetails[nextVoterId] */\n      0x00\n        /* \"votingERC.sol\":3206:3217  nextVoterId */\n      sload(0x02)\n        /* \"votingERC.sol\":3193:3218  voterDetails[nextVoterId] */\n      dup2\n      mstore\n      0x20\n      add\n      swap1\n      dup2\n      mstore\n      0x20\n      add\n      0x00\n      keccak256\n        /* \"votingERC.sol\":3193:3395  voterDetails[nextVoterId] =Voter({... */\n      0x00\n      dup3\n      add\n      mload\n      dup2\n      0x00\n      add\n      swap1\n      dup2\n      tag_115\n      swap2\n      swap1\n      tag_116\n      jump\t// in\n    tag_115:\n      pop\n      0x20\n      dup3\n      add\n      mload\n      dup2\n      0x01\n      add\n      sstore\n      0x40\n      dup3\n      add\n      mload\n      dup2\n      0x02\n      add\n      sstore\n      0x60\n      dup3\n      add\n      mload\n      dup2\n      0x03\n      add\n      exp(0x0100, 0x00)\n      dup2\n      sload\n      dup2\n      0xff\n      mul\n      not\n      and\n      swap1\n      dup4\n      0x03\n      dup2\n      gt\n      iszero\n      tag_117\n      jumpi\n      tag_118\n      tag_114\n      jump\t// in\n    tag_118:\n    tag_117:\n      mul\n      or\n      swap1\n      sstore\n      pop\n      0x80\n      dup3\n      add\n      mload\n      dup2\n      0x04\n      add\n      sstore\n      0xa0\n      dup3\n      add\n      mload\n      dup2\n      0x05\n      add\n      exp(0x0100, 0x00)\n      dup2\n      sload\n      dup2\n      0xffffffffffffffffffffffffffffffffffffffff\n      mul\n      not\n      and\n      swap1\n      dup4\n      0xffffffffffffffffffffffffffffffffffffffff\n      and\n      mul\n      or\n      swap1\n      sstore\n      pop\n      swap1\n      pop\n      pop\n        /* \"votingERC.sol\":3406:3417  nextVoterId */\n      0x02\n      0x00\n        /* \"votingERC.sol\":3406:3419  nextVoterId++ */\n      dup2\n      sload\n      dup1\n      swap3\n      swap2\n      swap1\n      tag_119\n      swap1\n      tag_86\n      jump\t// in\n    tag_119:\n      swap2\n      swap1\n      pop\n      sstore\n      pop\n        /* \"votingERC.sol\":2984:3423  function registerVoter(... */\n      pop\n      pop\n      pop\n      pop\n      pop\n      jump\t// out\n        /* \"votingERC.sol\":1472:2139  function registerCandidate(... */\n    tag_33:\n        /* \"votingERC.sol\":1616:1620  _age */\n      dup2\n        /* \"votingERC.sol\":1423:1425  18 */\n      0x12\n        /* \"votingERC.sol\":1417:1421  _age */\n      dup2\n        /* \"votingERC.sol\":1417:1425  _age>=18 */\n      lt\n      iszero\n        /* \"votingERC.sol\":1409:1452  require(_age>=18,\"not eligible for voting\") */\n      tag_121\n      jumpi\n      mload(0x40)\n      0x08c379a000000000000000000000000000000000000000000000000000000000\n      dup2\n      mstore\n      0x04\n      add\n      tag_122\n      swap1\n      tag_105\n      jump\t// in\n    tag_122:\n      mload(0x40)\n      dup1\n      swap2\n      sub\n      swap1\n      revert\n    tag_121:\n        /* \"votingERC.sol\":1640:1676  isCandidateNotRegistered(msg.sender) */\n      tag_124\n        /* \"votingERC.sol\":1665:1675  msg.sender */\n      caller\n        /* \"votingERC.sol\":1640:1664  isCandidateNotRegistered */\n      tag_125\n        /* \"votingERC.sol\":1640:1676  isCandidateNotRegistered(msg.sender) */\n      jump\t// in\n    tag_124:\n        /* \"votingERC.sol\":1632:1706  require(isCandidateNotRegistered(msg.sender),\"You are already registered\") */\n      tag_126\n      jumpi\n      mload(0x40)\n      0x08c379a000000000000000000000000000000000000000000000000000000000\n      dup2\n      mstore\n      0x04\n      add\n      tag_127\n      swap1\n      tag_111\n      jump\t// in\n    tag_127:\n      mload(0x40)\n      dup1\n      swap2\n      sub\n      swap1\n      revert\n    tag_126:\n        /* \"votingERC.sol\":1736:1737  3 */\n      0x03\n        /* \"votingERC.sol\":1720:1735  nextCandidateId */\n      dup1\n      sload\n        /* \"votingERC.sol\":1720:1737  nextCandidateId<3 */\n      lt\n        /* \"votingERC.sol\":1712:1768  require(nextCandidateId<3,\"Candidate Registration Full\") */\n      tag_128\n      jumpi\n      mload(0x40)\n      0x08c379a000000000000000000000000000000000000000000000000000000000\n      dup2\n      mstore\n      0x04\n      add\n      tag_129\n      swap1\n      tag_130\n      jump\t// in\n    tag_129:\n      mload(0x40)\n      dup1\n      swap2\n      sub\n      swap1\n      revert\n    tag_128:\n        /* \"votingERC.sol\":1794:1812  electionCommission */\n      0x00\n      dup1\n      sload\n      swap1\n      0x0100\n      exp\n      swap1\n      div\n      0xffffffffffffffffffffffffffffffffffffffff\n      and\n        /* \"votingERC.sol\":1782:1812  msg.sender!=electionCommission */\n      0xffffffffffffffffffffffffffffffffffffffff\n      and\n        /* \"votingERC.sol\":1782:1792  msg.sender */\n      caller\n        /* \"votingERC.sol\":1782:1812  msg.sender!=electionCommission */\n      0xffffffffffffffffffffffffffffffffffffffff\n      and\n      sub\n        /* \"votingERC.sol\":1774:1858  require(msg.sender!=electionCommission,\"Election Commision not allowed to register\") */\n      tag_131\n      jumpi\n      mload(0x40)\n      0x08c379a000000000000000000000000000000000000000000000000000000000\n      dup2\n      mstore\n      0x04\n      add\n      tag_132\n      swap1\n      tag_133\n      jump\t// in\n    tag_132:\n      mload(0x40)\n      dup1\n      swap2\n      sub\n      swap1\n      revert\n    tag_131:\n        /* \"votingERC.sol\":1904:2111  Candidate(... */\n      mload(0x40)\n      dup1\n      0xe0\n      add\n      0x40\n      mstore\n      dup1\n        /* \"votingERC.sol\":1936:1941  _name */\n      dup9\n      dup9\n        /* \"votingERC.sol\":1904:2111  Candidate(... */\n      dup1\n      dup1\n      0x1f\n      add\n      0x20\n      dup1\n      swap2\n      div\n      mul\n      0x20\n      add\n      mload(0x40)\n      swap1\n      dup2\n      add\n      0x40\n      mstore\n      dup1\n      swap4\n      swap3\n      swap2\n      swap1\n      dup2\n      dup2\n      mstore\n      0x20\n      add\n      dup4\n      dup4\n      dup1\n      dup3\n      dup5\n      calldatacopy\n      0x00\n      dup2\n      dup5\n      add\n      mstore\n      not(0x1f)\n      0x1f\n      dup3\n      add\n      and\n      swap1\n      pop\n      dup1\n      dup4\n      add\n      swap3\n      pop\n      pop\n      pop\n      pop\n      pop\n      pop\n      pop\n      dup2\n      mstore\n      0x20\n      add\n        /* \"votingERC.sol\":1959:1965  _party */\n      dup7\n      dup7\n        /* \"votingERC.sol\":1904:2111  Candidate(... */\n      dup1\n      dup1\n      0x1f\n      add\n      0x20\n      dup1\n      swap2\n      div\n      mul\n      0x20\n      add\n      mload(0x40)\n      swap1\n      dup2\n      add\n      0x40\n      mstore\n      dup1\n      swap4\n      swap3\n      swap2\n      swap1\n      dup2\n      dup2\n      mstore\n      0x20\n      add\n      dup4\n      dup4\n      dup1\n      dup3\n      dup5\n      calldatacopy\n      0x00\n      dup2\n      dup5\n      add\n      mstore\n      not(0x1f)\n      0x1f\n      dup3\n      add\n      and\n      swap1\n      pop\n      dup1\n      dup4\n      add\n      swap3\n      pop\n      pop\n      pop\n      pop\n      pop\n      pop\n      pop\n      dup2\n      mstore\n      0x20\n      add\n        /* \"votingERC.sol\":2005:2009  _age */\n      dup5\n        /* \"votingERC.sol\":1904:2111  Candidate(... */\n      dup2\n      mstore\n      0x20\n      add\n        /* \"votingERC.sol\":1983:1990  _gender */\n      dup4\n        /* \"votingERC.sol\":1904:2111  Candidate(... */\n      0x03\n      dup2\n      gt\n      iszero\n      tag_134\n      jumpi\n      tag_135\n      tag_114\n      jump\t// in\n    tag_135:\n    tag_134:\n      dup2\n      mstore\n      0x20\n      add\n        /* \"votingERC.sol\":2032:2047  nextCandidateId */\n      sload(0x03)\n        /* \"votingERC.sol\":1904:2111  Candidate(... */\n      dup2\n      mstore\n      0x20\n      add\n        /* \"votingERC.sol\":2075:2085  msg.sender */\n      caller\n        /* \"votingERC.sol\":1904:2111  Candidate(... */\n      0xffffffffffffffffffffffffffffffffffffffff\n      and\n      dup2\n      mstore\n      0x20\n      add\n        /* \"votingERC.sol\":2102:2103  0 */\n      0x00\n        /* \"votingERC.sol\":1904:2111  Candidate(... */\n      dup2\n      mstore\n      pop\n        /* \"votingERC.sol\":1868:1884  candidateDetails */\n      0x08\n        /* \"votingERC.sol\":1868:1901  candidateDetails[nextCandidateId] */\n      0x00\n        /* \"votingERC.sol\":1885:1900  nextCandidateId */\n      sload(0x03)\n        /* \"votingERC.sol\":1868:1901  candidateDetails[nextCandidateId] */\n      dup2\n      mstore\n      0x20\n      add\n      swap1\n      dup2\n      mstore\n      0x20\n      add\n      0x00\n      keccak256\n        /* \"votingERC.sol\":1868:2111  candidateDetails[nextCandidateId] = Candidate(... */\n      0x00\n      dup3\n      add\n      mload\n      dup2\n      0x00\n      add\n      swap1\n      dup2\n      tag_136\n      swap2\n      swap1\n      tag_116\n      jump\t// in\n    tag_136:\n      pop\n      0x20\n      dup3\n      add\n      mload\n      dup2\n      0x01\n      add\n      swap1\n      dup2\n      tag_137\n      swap2\n      swap1\n      tag_116\n      jump\t// in\n    tag_137:\n      pop\n      0x40\n      dup3\n      add\n      mload\n      dup2\n      0x02\n      add\n      sstore\n      0x60\n      dup3\n      add\n      mload\n      dup2\n      0x03\n      add\n      exp(0x0100, 0x00)\n      dup2\n      sload\n      dup2\n      0xff\n      mul\n      not\n      and\n      swap1\n      dup4\n      0x03\n      dup2\n      gt\n      iszero\n      tag_138\n      jumpi\n      tag_139\n      tag_114\n      jump\t// in\n    tag_139:\n    tag_138:\n      mul\n      or\n      swap1\n      sstore\n      pop\n      0x80\n      dup3\n      add\n      mload\n      dup2\n      0x04\n      add\n      sstore\n      0xa0\n      dup3\n      add\n      mload\n      dup2\n      0x05\n      add\n      exp(0x0100, 0x00)\n      dup2\n      sload\n      dup2\n      0xffffffffffffffffffffffffffffffffffffffff\n      mul\n      not\n      and\n      swap1\n      dup4\n      0xffffffffffffffffffffffffffffffffffffffff\n      and\n      mul\n      or\n      swap1\n      sstore\n      pop\n      0xc0\n      dup3\n      add\n      mload\n      dup2\n      0x06\n      add\n      sstore\n      swap1\n      pop\n      pop\n        /* \"votingERC.sol\":2118:2133  nextCandidateId */\n      0x03\n      0x00\n        /* \"votingERC.sol\":2118:2135  nextCandidateId++ */\n      dup2\n      sload\n      dup1\n      swap3\n      swap2\n      swap1\n      tag_140\n      swap1\n      tag_86\n      jump\t// in\n    tag_140:\n      swap2\n      swap1\n      pop\n      sstore\n      pop\n        /* \"votingERC.sol\":1472:2139  function registerCandidate(... */\n      pop\n      pop\n      pop\n      pop\n      pop\n      pop\n      pop\n      jump\t// out\n        /* \"votingERC.sol\":866:888  IERC20 public gldToken */\n    tag_35:\n      0x09\n      0x00\n      swap1\n      sload\n      swap1\n      0x0100\n      exp\n      swap1\n      div\n      0xffffffffffffffffffffffffffffffffffffffff\n      and\n      dup2\n      jump\t// out\n        /* \"votingERC.sol\":5234:5316  function emergencyStopVoting() public onlyCommissioner() {... */\n    tag_39:\n        /* \"votingERC.sol\":1316:1334  electionCommission */\n      0x00\n      dup1\n      sload\n      swap1\n      0x0100\n      exp\n      swap1\n      div\n      0xffffffffffffffffffffffffffffffffffffffff\n      and\n        /* \"votingERC.sol\":1304:1334  msg.sender==electionCommission */\n      0xffffffffffffffffffffffffffffffffffffffff\n      and\n        /* \"votingERC.sol\":1304:1314  msg.sender */\n      caller\n        /* \"votingERC.sol\":1304:1334  msg.sender==electionCommission */\n      0xffffffffffffffffffffffffffffffffffffffff\n      and\n      eq\n        /* \"votingERC.sol\":1296:1353  require(msg.sender==electionCommission,\"Not authuorized\") */\n      tag_142\n      jumpi\n      mload(0x40)\n      0x08c379a000000000000000000000000000000000000000000000000000000000\n      dup2\n      mstore\n      0x04\n      add\n      tag_143\n      swap1\n      tag_96\n      jump\t// in\n    tag_143:\n      mload(0x40)\n      dup1\n      swap2\n      sub\n      swap1\n      revert\n    tag_142:\n        /* \"votingERC.sol\":5308:5312  true */\n      0x01\n        /* \"votingERC.sol\":5297:5307  stopVoting */\n      0x06\n      0x00\n        /* \"votingERC.sol\":5297:5312  stopVoting=true */\n      0x0100\n      exp\n      dup2\n      sload\n      dup2\n      0xff\n      mul\n      not\n      and\n      swap1\n      dup4\n      iszero\n      iszero\n      mul\n      or\n      swap1\n      sstore\n      pop\n        /* \"votingERC.sol\":5234:5316  function emergencyStopVoting() public onlyCommissioner() {... */\n      jump\t// out\n        /* \"votingERC.sol\":4332:4664  function setVotingPeriod(uint _startTimeDuration, uint _endTimeDuration) external onlyCommissioner() {... */\n    tag_42:\n        /* \"votingERC.sol\":1316:1334  electionCommission */\n      0x00\n      dup1\n      sload\n      swap1\n      0x0100\n      exp\n      swap1\n      div\n      0xffffffffffffffffffffffffffffffffffffffff\n      and\n        /* \"votingERC.sol\":1304:1334  msg.sender==electionCommission */\n      0xffffffffffffffffffffffffffffffffffffffff\n      and\n        /* \"votingERC.sol\":1304:1314  msg.sender */\n      caller\n        /* \"votingERC.sol\":1304:1334  msg.sender==electionCommission */\n      0xffffffffffffffffffffffffffffffffffffffff\n      and\n      eq\n        /* \"votingERC.sol\":1296:1353  require(msg.sender==electionCommission,\"Not authuorized\") */\n      tag_146\n      jumpi\n      mload(0x40)\n      0x08c379a000000000000000000000000000000000000000000000000000000000\n      dup2\n      mstore\n      0x04\n      add\n      tag_147\n      swap1\n      tag_96\n      jump\t// in\n    tag_147:\n      mload(0x40)\n      dup1\n      swap2\n      sub\n      swap1\n      revert\n    tag_146:\n        /* \"votingERC.sol\":4465:4469  3600 */\n      0x0e10\n        /* \"votingERC.sol\":4448:4464  _endTimeDuration */\n      dup2\n        /* \"votingERC.sol\":4448:4469  _endTimeDuration>3600 */\n      gt\n        /* \"votingERC.sol\":4440:4517  require(_endTimeDuration>3600,\"_endTimeDuration must be greater than 1 hour\") */\n      tag_149\n      jumpi\n      mload(0x40)\n      0x08c379a000000000000000000000000000000000000000000000000000000000\n      dup2\n      mstore\n      0x04\n      add\n      tag_150\n      swap1\n      tag_151\n      jump\t// in\n    tag_150:\n      mload(0x40)\n      dup1\n      swap2\n      sub\n      swap1\n      revert\n    tag_149:\n        /* \"votingERC.sol\":4545:4563  _startTimeDuration */\n      dup2\n        /* \"votingERC.sol\":4534:4544  1720799550 */\n      0x6691513e\n        /* \"votingERC.sol\":4534:4563  1720799550+_startTimeDuration */\n      tag_152\n      swap2\n      swap1\n      tag_153\n      jump\t// in\n    tag_152:\n        /* \"votingERC.sol\":4524:4533  startTime */\n      0x04\n        /* \"votingERC.sol\":4524:4563  startTime=1720799550+_startTimeDuration */\n      dup2\n      swap1\n      sstore\n      pop\n        /* \"votingERC.sol\":4644:4660  _endTimeDuration */\n      dup1\n        /* \"votingERC.sol\":4634:4643  startTime */\n      sload(0x04)\n        /* \"votingERC.sol\":4634:4660  startTime+_endTimeDuration */\n      tag_154\n      swap2\n      swap1\n      tag_153\n      jump\t// in\n    tag_154:\n        /* \"votingERC.sol\":4624:4631  endTime */\n      0x05\n        /* \"votingERC.sol\":4624:4660  endTime = startTime+_endTimeDuration */\n      dup2\n      swap1\n      sstore\n      pop\n        /* \"votingERC.sol\":4332:4664  function setVotingPeriod(uint _startTimeDuration, uint _endTimeDuration) external onlyCommissioner() {... */\n      pop\n      pop\n      jump\t// out\n        /* \"votingERC.sol\":601:634  address public electionCommission */\n    tag_44:\n      0x00\n      dup1\n      sload\n      swap1\n      0x0100\n      exp\n      swap1\n      div\n      0xffffffffffffffffffffffffffffffffffffffff\n      and\n      dup2\n      jump\t// out\n        /* \"votingERC.sol\":3429:3691  function getVoterList() public view returns (Voter[] memory) {... */\n    tag_48:\n        /* \"votingERC.sol\":3474:3488  Voter[] memory */\n      0x60\n        /* \"votingERC.sol\":3496:3510  uint lengthArr */\n      0x00\n        /* \"votingERC.sol\":3523:3524  1 */\n      0x01\n        /* \"votingERC.sol\":3511:3522  nextVoterId */\n      sload(0x02)\n        /* \"votingERC.sol\":3511:3524  nextVoterId-1 */\n      tag_156\n      swap2\n      swap1\n      tag_157\n      jump\t// in\n    tag_156:\n        /* \"votingERC.sol\":3496:3524  uint lengthArr=nextVoterId-1 */\n      swap1\n      pop\n        /* \"votingERC.sol\":3530:3554  Voter[] memory voterList */\n      0x00\n        /* \"votingERC.sol\":3569:3578  lengthArr */\n      dup2\n        /* \"votingERC.sol\":3557:3579  new Voter[](lengthArr) */\n      0xffffffffffffffff\n      dup2\n      gt\n      iszero\n      tag_158\n      jumpi\n      tag_159\n      tag_160\n      jump\t// in\n    tag_159:\n    tag_158:\n      mload(0x40)\n      swap1\n      dup1\n      dup3\n      mstore\n      dup1\n      0x20\n      mul\n      0x20\n      add\n      dup3\n      add\n      0x40\n      mstore\n      dup1\n      iszero\n      tag_161\n      jumpi\n      dup2\n      0x20\n      add\n    tag_162:\n      tag_163\n      tag_164\n      jump\t// in\n    tag_163:\n      dup2\n      mstore\n      0x20\n      add\n      swap1\n      0x01\n      swap1\n      sub\n      swap1\n      dup2\n      tag_162\n      jumpi\n      swap1\n      pop\n    tag_161:\n      pop\n        /* \"votingERC.sol\":3530:3579  Voter[] memory voterList = new Voter[](lengthArr) */\n      swap1\n      pop\n        /* \"votingERC.sol\":3589:3595  uint i */\n      0x00\n        /* \"votingERC.sol\":3585:3666  for(uint i=0;i<voterList.length;i++){... */\n    tag_165:\n        /* \"votingERC.sol\":3600:3609  voterList */\n      dup2\n        /* \"votingERC.sol\":3600:3616  voterList.length */\n      mload\n        /* \"votingERC.sol\":3598:3599  i */\n      dup2\n        /* \"votingERC.sol\":3598:3616  i<voterList.length */\n      lt\n        /* \"votingERC.sol\":3585:3666  for(uint i=0;i<voterList.length;i++){... */\n      iszero\n      tag_166\n      jumpi\n        /* \"votingERC.sol\":3642:3654  voterDetails */\n      0x07\n        /* \"votingERC.sol\":3642:3659  voterDetails[i+1] */\n      0x00\n        /* \"votingERC.sol\":3657:3658  1 */\n      0x01\n        /* \"votingERC.sol\":3655:3656  i */\n      dup4\n        /* \"votingERC.sol\":3655:3658  i+1 */\n      tag_168\n      swap2\n      swap1\n      tag_153\n      jump\t// in\n    tag_168:\n        /* \"votingERC.sol\":3642:3659  voterDetails[i+1] */\n      dup2\n      mstore\n      0x20\n      add\n      swap1\n      dup2\n      mstore\n      0x20\n      add\n      0x00\n      keccak256\n        /* \"votingERC.sol\":3629:3659  voterList[i]=voterDetails[i+1] */\n      mload(0x40)\n      dup1\n      0xc0\n      add\n      0x40\n      mstore\n      swap1\n      dup2\n      0x00\n      dup3\n      add\n      dup1\n      sload\n      tag_169\n      swap1\n      tag_170\n      jump\t// in\n    tag_169:\n      dup1\n      0x1f\n      add\n      0x20\n      dup1\n      swap2\n      div\n      mul\n      0x20\n      add\n      mload(0x40)\n      swap1\n      dup2\n      add\n      0x40\n      mstore\n      dup1\n      swap3\n      swap2\n      swap1\n      dup2\n      dup2\n      mstore\n      0x20\n      add\n      dup3\n      dup1\n      sload\n      tag_171\n      swap1\n      tag_170\n      jump\t// in\n    tag_171:\n      dup1\n      iszero\n      tag_172\n      jumpi\n      dup1\n      0x1f\n      lt\n      tag_173\n      jumpi\n      0x0100\n      dup1\n      dup4\n      sload\n      div\n      mul\n      dup4\n      mstore\n      swap2\n      0x20\n      add\n      swap2\n      jump(tag_172)\n    tag_173:\n      dup3\n      add\n      swap2\n      swap1\n      0x00\n      mstore\n      keccak256(0x00, 0x20)\n      swap1\n    tag_174:\n      dup2\n      sload\n      dup2\n      mstore\n      swap1\n      0x01\n      add\n      swap1\n      0x20\n      add\n      dup1\n      dup4\n      gt\n      tag_174\n      jumpi\n      dup3\n      swap1\n      sub\n      0x1f\n      and\n      dup3\n      add\n      swap2\n    tag_172:\n      pop\n      pop\n      pop\n      pop\n      pop\n      dup2\n      mstore\n      0x20\n      add\n      0x01\n      dup3\n      add\n      sload\n      dup2\n      mstore\n      0x20\n      add\n      0x02\n      dup3\n      add\n      sload\n      dup2\n      mstore\n      0x20\n      add\n      0x03\n      dup3\n      add\n      0x00\n      swap1\n      sload\n      swap1\n      0x0100\n      exp\n      swap1\n      div\n      0xff\n      and\n      0x03\n      dup2\n      gt\n      iszero\n      tag_175\n      jumpi\n      tag_176\n      tag_114\n      jump\t// in\n    tag_176:\n    tag_175:\n      0x03\n      dup2\n      gt\n      iszero\n      tag_177\n      jumpi\n      tag_178\n      tag_114\n      jump\t// in\n    tag_178:\n    tag_177:\n      dup2\n      mstore\n      0x20\n      add\n      0x04\n      dup3\n      add\n      sload\n      dup2\n      mstore\n      0x20\n      add\n      0x05\n      dup3\n      add\n      0x00\n      swap1\n      sload\n      swap1\n      0x0100\n      exp\n      swap1\n      div\n      0xffffffffffffffffffffffffffffffffffffffff\n      and\n      0xffffffffffffffffffffffffffffffffffffffff\n      and\n      0xffffffffffffffffffffffffffffffffffffffff\n      and\n      dup2\n      mstore\n      pop\n      pop\n        /* \"votingERC.sol\":3629:3638  voterList */\n      dup3\n        /* \"votingERC.sol\":3639:3640  i */\n      dup3\n        /* \"votingERC.sol\":3629:3641  voterList[i] */\n      dup2\n      mload\n      dup2\n      lt\n      tag_179\n      jumpi\n      tag_180\n      tag_181\n      jump\t// in\n    tag_180:\n    tag_179:\n      0x20\n      mul\n      0x20\n      add\n      add\n        /* \"votingERC.sol\":3629:3659  voterList[i]=voterDetails[i+1] */\n      dup2\n      swap1\n      mstore\n      pop\n        /* \"votingERC.sol\":3617:3620  i++ */\n      dup1\n      dup1\n      0x01\n      add\n      swap2\n      pop\n      pop\n        /* \"votingERC.sol\":3585:3666  for(uint i=0;i<voterList.length;i++){... */\n      jump(tag_165)\n    tag_166:\n      pop\n        /* \"votingERC.sol\":3678:3687  voterList */\n      dup1\n        /* \"votingERC.sol\":3671:3687  return voterList */\n      swap3\n      pop\n      pop\n      pop\n        /* \"votingERC.sol\":3429:3691  function getVoterList() public view returns (Voter[] memory) {... */\n      swap1\n      jump\t// out\n        /* \"votingERC.sol\":637:658  address public winner */\n    tag_52:\n      0x01\n      0x00\n      swap1\n      sload\n      swap1\n      0x0100\n      exp\n      swap1\n      div\n      0xffffffffffffffffffffffffffffffffffffffff\n      and\n      dup2\n      jump\t// out\n        /* \"votingERC.sol\":2395:2747  function getCandidateList() public view returns (Candidate[] memory) {... */\n    tag_55:\n        /* \"votingERC.sol\":2444:2462  Candidate[] memory */\n      0x60\n        /* \"votingERC.sol\":2470:2502  Candidate[] memory candidateList */\n      0x00\n        /* \"votingERC.sol\":2539:2540  1 */\n      0x01\n        /* \"votingERC.sol\":2521:2536  nextCandidateId */\n      sload(0x03)\n        /* \"votingERC.sol\":2521:2540  nextCandidateId - 1 */\n      tag_183\n      swap2\n      swap1\n      tag_157\n      jump\t// in\n    tag_183:\n        /* \"votingERC.sol\":2505:2541  new Candidate[](nextCandidateId - 1) */\n      0xffffffffffffffff\n      dup2\n      gt\n      iszero\n      tag_184\n      jumpi\n      tag_185\n      tag_160\n      jump\t// in\n    tag_185:\n    tag_184:\n      mload(0x40)\n      swap1\n      dup1\n      dup3\n      mstore\n      dup1\n      0x20\n      mul\n      0x20\n      add\n      dup3\n      add\n      0x40\n      mstore\n      dup1\n      iszero\n      tag_186\n      jumpi\n      dup2\n      0x20\n      add\n    tag_187:\n      tag_188\n      tag_189\n      jump\t// in\n    tag_188:\n      dup2\n      mstore\n      0x20\n      add\n      swap1\n      0x01\n      swap1\n      sub\n      swap1\n      dup2\n      tag_187\n      jumpi\n      swap1\n      pop\n    tag_186:\n      pop\n        /* \"votingERC.sol\":2470:2541  Candidate[] memory candidateList = new Candidate[](nextCandidateId - 1) */\n      swap1\n      pop\n        /* \"votingERC.sol\":2614:2620  uint i */\n      0x00\n        /* \"votingERC.sol\":2610:2717  for(uint i = 0; i < candidateList.length; i++){... */\n    tag_190:\n        /* \"votingERC.sol\":2630:2643  candidateList */\n      dup2\n        /* \"votingERC.sol\":2630:2650  candidateList.length */\n      mload\n        /* \"votingERC.sol\":2626:2627  i */\n      dup2\n        /* \"votingERC.sol\":2626:2650  i < candidateList.length */\n      lt\n        /* \"votingERC.sol\":2610:2717  for(uint i = 0; i < candidateList.length; i++){... */\n      iszero\n      tag_191\n      jumpi\n        /* \"votingERC.sol\":2686:2702  candidateDetails */\n      0x08\n        /* \"votingERC.sol\":2686:2709  candidateDetails[i + 1] */\n      0x00\n        /* \"votingERC.sol\":2707:2708  1 */\n      0x01\n        /* \"votingERC.sol\":2703:2704  i */\n      dup4\n        /* \"votingERC.sol\":2703:2708  i + 1 */\n      tag_193\n      swap2\n      swap1\n      tag_153\n      jump\t// in\n    tag_193:\n        /* \"votingERC.sol\":2686:2709  candidateDetails[i + 1] */\n      dup2\n      mstore\n      0x20\n      add\n      swap1\n      dup2\n      mstore\n      0x20\n      add\n      0x00\n      keccak256\n        /* \"votingERC.sol\":2667:2709  candidateList[i] = candidateDetails[i + 1] */\n      mload(0x40)\n      dup1\n      0xe0\n      add\n      0x40\n      mstore\n      swap1\n      dup2\n      0x00\n      dup3\n      add\n      dup1\n      sload\n      tag_194\n      swap1\n      tag_170\n      jump\t// in\n    tag_194:\n      dup1\n      0x1f\n      add\n      0x20\n      dup1\n      swap2\n      div\n      mul\n      0x20\n      add\n      mload(0x40)\n      swap1\n      dup2\n      add\n      0x40\n      mstore\n      dup1\n      swap3\n      swap2\n      swap1\n      dup2\n      dup2\n      mstore\n      0x20\n      add\n      dup3\n      dup1\n      sload\n      tag_195\n      swap1\n      tag_170\n      jump\t// in\n    tag_195:\n      dup1\n      iszero\n      tag_196\n      jumpi\n      dup1\n      0x1f\n      lt\n      tag_197\n      jumpi\n      0x0100\n      dup1\n      dup4\n      sload\n      div\n      mul\n      dup4\n      mstore\n      swap2\n      0x20\n      add\n      swap2\n      jump(tag_196)\n    tag_197:\n      dup3\n      add\n      swap2\n      swap1\n      0x00\n      mstore\n      keccak256(0x00, 0x20)\n      swap1\n    tag_198:\n      dup2\n      sload\n      dup2\n      mstore\n      swap1\n      0x01\n      add\n      swap1\n      0x20\n      add\n      dup1\n      dup4\n      gt\n      tag_198\n      jumpi\n      dup3\n      swap1\n      sub\n      0x1f\n      and\n      dup3\n      add\n      swap2\n    tag_196:\n      pop\n      pop\n      pop\n      pop\n      pop\n      dup2\n      mstore\n      0x20\n      add\n      0x01\n      dup3\n      add\n      dup1\n      sload\n      tag_199\n      swap1\n      tag_170\n      jump\t// in\n    tag_199:\n      dup1\n      0x1f\n      add\n      0x20\n      dup1\n      swap2\n      div\n      mul\n      0x20\n      add\n      mload(0x40)\n      swap1\n      dup2\n      add\n      0x40\n      mstore\n      dup1\n      swap3\n      swap2\n      swap1\n      dup2\n      dup2\n      mstore\n      0x20\n      add\n      dup3\n      dup1\n      sload\n      tag_200\n      swap1\n      tag_170\n      jump\t// in\n    tag_200:\n      dup1\n      iszero\n      tag_201\n      jumpi\n      dup1\n      0x1f\n      lt\n      tag_202\n      jumpi\n      0x0100\n      dup1\n      dup4\n      sload\n      div\n      mul\n      dup4\n      mstore\n      swap2\n      0x20\n      add\n      swap2\n      jump(tag_201)\n    tag_202:\n      dup3\n      add\n      swap2\n      swap1\n      0x00\n      mstore\n      keccak256(0x00, 0x20)\n      swap1\n    tag_203:\n      dup2\n      sload\n      dup2\n      mstore\n      swap1\n      0x01\n      add\n      swap1\n      0x20\n      add\n      dup1\n      dup4\n      gt\n      tag_203\n      jumpi\n      dup3\n      swap1\n      sub\n      0x1f\n      and\n      dup3\n      add\n      swap2\n    tag_201:\n      pop\n      pop\n      pop\n      pop\n      pop\n      dup2\n      mstore\n      0x20\n      add\n      0x02\n      dup3\n      add\n      sload\n      dup2\n      mstore\n      0x20\n      add\n      0x03\n      dup3\n      add\n      0x00\n      swap1\n      sload\n      swap1\n      0x0100\n      exp\n      swap1\n      div\n      0xff\n      and\n      0x03\n      dup2\n      gt\n      iszero\n      tag_204\n      jumpi\n      tag_205\n      tag_114\n      jump\t// in\n    tag_205:\n    tag_204:\n      0x03\n      dup2\n      gt\n      iszero\n      tag_206\n      jumpi\n      tag_207\n      tag_114\n      jump\t// in\n    tag_207:\n    tag_206:\n      dup2\n      mstore\n      0x20\n      add\n      0x04\n      dup3\n      add\n      sload\n      dup2\n      mstore\n      0x20\n      add\n      0x05\n      dup3\n      add\n      0x00\n      swap1\n      sload\n      swap1\n      0x0100\n      exp\n      swap1\n      div\n      0xffffffffffffffffffffffffffffffffffffffff\n      and\n      0xffffffffffffffffffffffffffffffffffffffff\n      and\n      0xffffffffffffffffffffffffffffffffffffffff\n      and\n      dup2\n      mstore\n      0x20\n      add\n      0x06\n      dup3\n      add\n      sload\n      dup2\n      mstore\n      pop\n      pop\n        /* \"votingERC.sol\":2667:2680  candidateList */\n      dup3\n        /* \"votingERC.sol\":2681:2682  i */\n      dup3\n        /* \"votingERC.sol\":2667:2683  candidateList[i] */\n      dup2\n      mload\n      dup2\n      lt\n      tag_208\n      jumpi\n      tag_209\n      tag_181\n      jump\t// in\n    tag_209:\n    tag_208:\n      0x20\n      mul\n      0x20\n      add\n      add\n        /* \"votingERC.sol\":2667:2709  candidateList[i] = candidateDetails[i + 1] */\n      dup2\n      swap1\n      mstore\n      pop\n        /* \"votingERC.sol\":2652:2655  i++ */\n      dup1\n      dup1\n      0x01\n      add\n      swap2\n      pop\n      pop\n        /* \"votingERC.sol\":2610:2717  for(uint i = 0; i < candidateList.length; i++){... */\n      jump(tag_190)\n    tag_191:\n      pop\n        /* \"votingERC.sol\":2730:2743  candidateList */\n      dup1\n        /* \"votingERC.sol\":2723:2743  return candidateList */\n      swap2\n      pop\n      pop\n        /* \"votingERC.sol\":2395:2747  function getCandidateList() public view returns (Candidate[] memory) {... */\n      swap1\n      jump\t// out\n        /* \"votingERC.sol\":2757:2980  function isVoterNotRegistered(address _person) private view returns (bool) {... */\n    tag_108:\n        /* \"votingERC.sol\":2826:2830  bool */\n      0x00\n        /* \"votingERC.sol\":2843:2849  uint i */\n      dup1\n        /* \"votingERC.sol\":2850:2851  1 */\n      0x01\n        /* \"votingERC.sol\":2843:2851  uint i=1 */\n      swap1\n      pop\n        /* \"votingERC.sol\":2839:2959  for(uint i=1;i<nextVoterId;i++){... */\n    tag_211:\n        /* \"votingERC.sol\":2854:2865  nextVoterId */\n      sload(0x02)\n        /* \"votingERC.sol\":2852:2853  i */\n      dup2\n        /* \"votingERC.sol\":2852:2865  i<nextVoterId */\n      lt\n        /* \"votingERC.sol\":2839:2959  for(uint i=1;i<nextVoterId;i++){... */\n      iszero\n      tag_212\n      jumpi\n        /* \"votingERC.sol\":2914:2921  _person */\n      dup3\n        /* \"votingERC.sol\":2884:2921  voterDetails[i].voterAddress==_person */\n      0xffffffffffffffffffffffffffffffffffffffff\n      and\n        /* \"votingERC.sol\":2884:2896  voterDetails */\n      0x07\n        /* \"votingERC.sol\":2884:2899  voterDetails[i] */\n      0x00\n        /* \"votingERC.sol\":2897:2898  i */\n      dup4\n        /* \"votingERC.sol\":2884:2899  voterDetails[i] */\n      dup2\n      mstore\n      0x20\n      add\n      swap1\n      dup2\n      mstore\n      0x20\n      add\n      0x00\n      keccak256\n        /* \"votingERC.sol\":2884:2912  voterDetails[i].voterAddress */\n      0x05\n      add\n      0x00\n      swap1\n      sload\n      swap1\n      0x0100\n      exp\n      swap1\n      div\n      0xffffffffffffffffffffffffffffffffffffffff\n      and\n        /* \"votingERC.sol\":2884:2921  voterDetails[i].voterAddress==_person */\n      0xffffffffffffffffffffffffffffffffffffffff\n      and\n      sub\n        /* \"votingERC.sol\":2881:2952  if(voterDetails[i].voterAddress==_person){... */\n      tag_214\n      jumpi\n        /* \"votingERC.sol\":2944:2949  false */\n      0x00\n        /* \"votingERC.sol\":2937:2949  return false */\n      swap2\n      pop\n      pop\n      jump(tag_210)\n        /* \"votingERC.sol\":2881:2952  if(voterDetails[i].voterAddress==_person){... */\n    tag_214:\n        /* \"votingERC.sol\":2866:2869  i++ */\n      dup1\n      dup1\n      0x01\n      add\n      swap2\n      pop\n      pop\n        /* \"votingERC.sol\":2839:2959  for(uint i=1;i<nextVoterId;i++){... */\n      jump(tag_211)\n    tag_212:\n      pop\n        /* \"votingERC.sol\":2972:2976  true */\n      0x01\n        /* \"votingERC.sol\":2965:2976  return true */\n      swap1\n      pop\n        /* \"votingERC.sol\":2757:2980  function isVoterNotRegistered(address _person) private view returns (bool) {... */\n    tag_210:\n      swap2\n      swap1\n      pop\n      jump\t// out\n        /* \"votingERC.sol\":2145:2389  function isCandidateNotRegistered(address _person) private view returns (bool) {... */\n    tag_125:\n        /* \"votingERC.sol\":2218:2222  bool */\n      0x00\n        /* \"votingERC.sol\":2235:2241  uint i */\n      dup1\n        /* \"votingERC.sol\":2242:2243  1 */\n      0x01\n        /* \"votingERC.sol\":2235:2243  uint i=1 */\n      swap1\n      pop\n        /* \"votingERC.sol\":2231:2368  for(uint i=1;i<nextCandidateId;i++){... */\n    tag_216:\n        /* \"votingERC.sol\":2246:2261  nextCandidateId */\n      sload(0x03)\n        /* \"votingERC.sol\":2244:2245  i */\n      dup2\n        /* \"votingERC.sol\":2244:2261  i<nextCandidateId */\n      lt\n        /* \"votingERC.sol\":2231:2368  for(uint i=1;i<nextCandidateId;i++){... */\n      iszero\n      tag_217\n      jumpi\n        /* \"votingERC.sol\":2317:2324  _person */\n      dup3\n        /* \"votingERC.sol\":2279:2324  candidateDetails[i].candidateAddress==_person */\n      0xffffffffffffffffffffffffffffffffffffffff\n      and\n        /* \"votingERC.sol\":2279:2295  candidateDetails */\n      0x08\n        /* \"votingERC.sol\":2279:2298  candidateDetails[i] */\n      0x00\n        /* \"votingERC.sol\":2296:2297  i */\n      dup4\n        /* \"votingERC.sol\":2279:2298  candidateDetails[i] */\n      dup2\n      mstore\n      0x20\n      add\n      swap1\n      dup2\n      mstore\n      0x20\n      add\n      0x00\n      keccak256\n        /* \"votingERC.sol\":2279:2315  candidateDetails[i].candidateAddress */\n      0x05\n      add\n      0x00\n      swap1\n      sload\n      swap1\n      0x0100\n      exp\n      swap1\n      div\n      0xffffffffffffffffffffffffffffffffffffffff\n      and\n        /* \"votingERC.sol\":2279:2324  candidateDetails[i].candidateAddress==_person */\n      0xffffffffffffffffffffffffffffffffffffffff\n      and\n      sub\n        /* \"votingERC.sol\":2276:2361  if(candidateDetails[i].candidateAddress==_person){... */\n      tag_219\n      jumpi\n        /* \"votingERC.sol\":2345:2350  false */\n      0x00\n        /* \"votingERC.sol\":2338:2350  return false */\n      swap2\n      pop\n      pop\n      jump(tag_215)\n        /* \"votingERC.sol\":2276:2361  if(candidateDetails[i].candidateAddress==_person){... */\n    tag_219:\n        /* \"votingERC.sol\":2262:2265  i++ */\n      dup1\n      dup1\n      0x01\n      add\n      swap2\n      pop\n      pop\n        /* \"votingERC.sol\":2231:2368  for(uint i=1;i<nextCandidateId;i++){... */\n      jump(tag_216)\n    tag_217:\n      pop\n        /* \"votingERC.sol\":2381:2385  true */\n      0x01\n        /* \"votingERC.sol\":2374:2385  return true */\n      swap1\n      pop\n        /* \"votingERC.sol\":2145:2389  function isCandidateNotRegistered(address _person) private view returns (bool) {... */\n    tag_215:\n      swap2\n      swap1\n      pop\n      jump\t// out\n    tag_164:\n      mload(0x40)\n      dup1\n      0xc0\n      add\n      0x40\n      mstore\n      dup1\n      0x60\n      dup2\n      mstore\n      0x20\n      add\n      0x00\n      dup2\n      mstore\n      0x20\n      add\n      0x00\n      dup2\n      mstore\n      0x20\n      add\n      0x00\n      0x03\n      dup2\n      gt\n      iszero\n      tag_220\n      jumpi\n      tag_221\n      tag_114\n      jump\t// in\n    tag_221:\n    tag_220:\n      dup2\n      mstore\n      0x20\n      add\n      0x00\n      dup2\n      mstore\n      0x20\n      add\n      and(0xffffffffffffffffffffffffffffffffffffffff, 0x00)\n      dup2\n      mstore\n      pop\n      swap1\n      jump\t// out\n    tag_189:\n      mload(0x40)\n      dup1\n      0xe0\n      add\n      0x40\n      mstore\n      dup1\n      0x60\n      dup2\n      mstore\n      0x20\n      add\n      0x60\n      dup2\n      mstore\n      0x20\n      add\n      0x00\n      dup2\n      mstore\n      0x20\n      add\n      0x00\n      0x03\n      dup2\n      gt\n      iszero\n      tag_222\n      jumpi\n      tag_223\n      tag_114\n      jump\t// in\n    tag_223:\n    tag_222:\n      dup2\n      mstore\n      0x20\n      add\n      0x00\n      dup2\n      mstore\n      0x20\n      add\n      and(0xffffffffffffffffffffffffffffffffffffffff, 0x00)\n      dup2\n      mstore\n      0x20\n      add\n      0x00\n      dup2\n      mstore\n      pop\n      swap1\n      jump\t// out\n        /* \"#utility.yul\":88:205   */\n    tag_225:\n        /* \"#utility.yul\":197:198   */\n      0x00\n        /* \"#utility.yul\":194:195   */\n      dup1\n        /* \"#utility.yul\":187:199   */\n      revert\n        /* \"#utility.yul\":211:328   */\n    tag_226:\n        /* \"#utility.yul\":320:321   */\n      0x00\n        /* \"#utility.yul\":317:318   */\n      dup1\n        /* \"#utility.yul\":310:322   */\n      revert\n        /* \"#utility.yul\":334:411   */\n    tag_227:\n        /* \"#utility.yul\":371:378   */\n      0x00\n        /* \"#utility.yul\":400:405   */\n      dup2\n        /* \"#utility.yul\":389:405   */\n      swap1\n      pop\n        /* \"#utility.yul\":334:411   */\n      swap2\n      swap1\n      pop\n      jump\t// out\n        /* \"#utility.yul\":417:539   */\n    tag_228:\n        /* \"#utility.yul\":490:514   */\n      tag_321\n        /* \"#utility.yul\":508:513   */\n      dup2\n        /* \"#utility.yul\":490:514   */\n      tag_227\n      jump\t// in\n    tag_321:\n        /* \"#utility.yul\":483:488   */\n      dup2\n        /* \"#utility.yul\":480:515   */\n      eq\n        /* \"#utility.yul\":470:533   */\n      tag_322\n      jumpi\n        /* \"#utility.yul\":529:530   */\n      0x00\n        /* \"#utility.yul\":526:527   */\n      dup1\n        /* \"#utility.yul\":519:531   */\n      revert\n        /* \"#utility.yul\":470:533   */\n    tag_322:\n        /* \"#utility.yul\":417:539   */\n      pop\n      jump\t// out\n        /* \"#utility.yul\":545:684   */\n    tag_229:\n        /* \"#utility.yul\":591:596   */\n      0x00\n        /* \"#utility.yul\":629:635   */\n      dup2\n        /* \"#utility.yul\":616:636   */\n      calldataload\n        /* \"#utility.yul\":607:636   */\n      swap1\n      pop\n        /* \"#utility.yul\":645:678   */\n      tag_324\n        /* \"#utility.yul\":672:677   */\n      dup2\n        /* \"#utility.yul\":645:678   */\n      tag_228\n      jump\t// in\n    tag_324:\n        /* \"#utility.yul\":545:684   */\n      swap3\n      swap2\n      pop\n      pop\n      jump\t// out\n        /* \"#utility.yul\":690:1164   */\n    tag_18:\n        /* \"#utility.yul\":758:764   */\n      0x00\n        /* \"#utility.yul\":766:772   */\n      dup1\n        /* \"#utility.yul\":815:817   */\n      0x40\n        /* \"#utility.yul\":803:812   */\n      dup4\n        /* \"#utility.yul\":794:801   */\n      dup6\n        /* \"#utility.yul\":790:813   */\n      sub\n        /* \"#utility.yul\":786:818   */\n      slt\n        /* \"#utility.yul\":783:902   */\n      iszero\n      tag_326\n      jumpi\n        /* \"#utility.yul\":821:900   */\n      tag_327\n      tag_225\n      jump\t// in\n    tag_327:\n        /* \"#utility.yul\":783:902   */\n    tag_326:\n        /* \"#utility.yul\":941:942   */\n      0x00\n        /* \"#utility.yul\":966:1019   */\n      tag_328\n        /* \"#utility.yul\":1011:1018   */\n      dup6\n        /* \"#utility.yul\":1002:1008   */\n      dup3\n        /* \"#utility.yul\":991:1000   */\n      dup7\n        /* \"#utility.yul\":987:1009   */\n      add\n        /* \"#utility.yul\":966:1019   */\n      tag_229\n      jump\t// in\n    tag_328:\n        /* \"#utility.yul\":956:1019   */\n      swap3\n      pop\n        /* \"#utility.yul\":912:1029   */\n      pop\n        /* \"#utility.yul\":1068:1070   */\n      0x20\n        /* \"#utility.yul\":1094:1147   */\n      tag_329\n        /* \"#utility.yul\":1139:1146   */\n      dup6\n        /* \"#utility.yul\":1130:1136   */\n      dup3\n        /* \"#utility.yul\":1119:1128   */\n      dup7\n        /* \"#utility.yul\":1115:1137   */\n      add\n        /* \"#utility.yul\":1094:1147   */\n      tag_229\n      jump\t// in\n    tag_329:\n        /* \"#utility.yul\":1084:1147   */\n      swap2\n      pop\n        /* \"#utility.yul\":1039:1157   */\n      pop\n        /* \"#utility.yul\":690:1164   */\n      swap3\n      pop\n      swap3\n      swap1\n      pop\n      jump\t// out\n        /* \"#utility.yul\":1170:1350   */\n    tag_114:\n        /* \"#utility.yul\":1218:1295   */\n      0x4e487b7100000000000000000000000000000000000000000000000000000000\n        /* \"#utility.yul\":1215:1216   */\n      0x00\n        /* \"#utility.yul\":1208:1296   */\n      mstore\n        /* \"#utility.yul\":1315:1319   */\n      0x21\n        /* \"#utility.yul\":1312:1313   */\n      0x04\n        /* \"#utility.yul\":1305:1320   */\n      mstore\n        /* \"#utility.yul\":1339:1343   */\n      0x24\n        /* \"#utility.yul\":1336:1337   */\n      0x00\n        /* \"#utility.yul\":1329:1344   */\n      revert\n        /* \"#utility.yul\":1356:1477   */\n    tag_230:\n        /* \"#utility.yul\":1445:1446   */\n      0x03\n        /* \"#utility.yul\":1438:1443   */\n      dup2\n        /* \"#utility.yul\":1435:1447   */\n      lt\n        /* \"#utility.yul\":1425:1471   */\n      tag_332\n      jumpi\n        /* \"#utility.yul\":1451:1469   */\n      tag_333\n      tag_114\n      jump\t// in\n    tag_333:\n        /* \"#utility.yul\":1425:1471   */\n    tag_332:\n        /* \"#utility.yul\":1356:1477   */\n      pop\n      jump\t// out\n        /* \"#utility.yul\":1483:1626   */\n    tag_231:\n        /* \"#utility.yul\":1536:1543   */\n      0x00\n        /* \"#utility.yul\":1565:1570   */\n      dup2\n        /* \"#utility.yul\":1554:1570   */\n      swap1\n      pop\n        /* \"#utility.yul\":1571:1620   */\n      tag_335\n        /* \"#utility.yul\":1614:1619   */\n      dup3\n        /* \"#utility.yul\":1571:1620   */\n      tag_230\n      jump\t// in\n    tag_335:\n        /* \"#utility.yul\":1483:1626   */\n      swap2\n      swap1\n      pop\n      jump\t// out\n        /* \"#utility.yul\":1632:1775   */\n    tag_232:\n        /* \"#utility.yul\":1696:1705   */\n      0x00\n        /* \"#utility.yul\":1729:1769   */\n      tag_337\n        /* \"#utility.yul\":1763:1768   */\n      dup3\n        /* \"#utility.yul\":1729:1769   */\n      tag_231\n      jump\t// in\n    tag_337:\n        /* \"#utility.yul\":1716:1769   */\n      swap1\n      pop\n        /* \"#utility.yul\":1632:1775   */\n      swap2\n      swap1\n      pop\n      jump\t// out\n        /* \"#utility.yul\":1781:1940   */\n    tag_233:\n        /* \"#utility.yul\":1882:1933   */\n      tag_339\n        /* \"#utility.yul\":1927:1932   */\n      dup2\n        /* \"#utility.yul\":1882:1933   */\n      tag_232\n      jump\t// in\n    tag_339:\n        /* \"#utility.yul\":1877:1880   */\n      dup3\n        /* \"#utility.yul\":1870:1934   */\n      mstore\n        /* \"#utility.yul\":1781:1940   */\n      pop\n      pop\n      jump\t// out\n        /* \"#utility.yul\":1946:2196   */\n    tag_23:\n        /* \"#utility.yul\":2053:2057   */\n      0x00\n        /* \"#utility.yul\":2091:2093   */\n      0x20\n        /* \"#utility.yul\":2080:2089   */\n      dup3\n        /* \"#utility.yul\":2076:2094   */\n      add\n        /* \"#utility.yul\":2068:2094   */\n      swap1\n      pop\n        /* \"#utility.yul\":2104:2189   */\n      tag_341\n        /* \"#utility.yul\":2186:2187   */\n      0x00\n        /* \"#utility.yul\":2175:2184   */\n      dup4\n        /* \"#utility.yul\":2171:2188   */\n      add\n        /* \"#utility.yul\":2162:2168   */\n      dup5\n        /* \"#utility.yul\":2104:2189   */\n      tag_233\n      jump\t// in\n    tag_341:\n        /* \"#utility.yul\":1946:2196   */\n      swap3\n      swap2\n      pop\n      pop\n      jump\t// out\n        /* \"#utility.yul\":2202:2319   */\n    tag_234:\n        /* \"#utility.yul\":2311:2312   */\n      0x00\n        /* \"#utility.yul\":2308:2309   */\n      dup1\n        /* \"#utility.yul\":2301:2313   */\n      revert\n        /* \"#utility.yul\":2325:2442   */\n    tag_235:\n        /* \"#utility.yul\":2434:2435   */\n      0x00\n        /* \"#utility.yul\":2431:2432   */\n      dup1\n        /* \"#utility.yul\":2424:2436   */\n      revert\n        /* \"#utility.yul\":2448:2565   */\n    tag_236:\n        /* \"#utility.yul\":2557:2558   */\n      0x00\n        /* \"#utility.yul\":2554:2555   */\n      dup1\n        /* \"#utility.yul\":2547:2559   */\n      revert\n        /* \"#utility.yul\":2585:3138   */\n    tag_237:\n        /* \"#utility.yul\":2643:2651   */\n      0x00\n        /* \"#utility.yul\":2653:2659   */\n      dup1\n        /* \"#utility.yul\":2703:2706   */\n      dup4\n        /* \"#utility.yul\":2696:2700   */\n      0x1f\n        /* \"#utility.yul\":2688:2694   */\n      dup5\n        /* \"#utility.yul\":2684:2701   */\n      add\n        /* \"#utility.yul\":2680:2707   */\n      slt\n        /* \"#utility.yul\":2670:2792   */\n      tag_346\n      jumpi\n        /* \"#utility.yul\":2711:2790   */\n      tag_347\n      tag_234\n      jump\t// in\n    tag_347:\n        /* \"#utility.yul\":2670:2792   */\n    tag_346:\n        /* \"#utility.yul\":2824:2830   */\n      dup3\n        /* \"#utility.yul\":2811:2831   */\n      calldataload\n        /* \"#utility.yul\":2801:2831   */\n      swap1\n      pop\n        /* \"#utility.yul\":2854:2872   */\n      0xffffffffffffffff\n        /* \"#utility.yul\":2846:2852   */\n      dup2\n        /* \"#utility.yul\":2843:2873   */\n      gt\n        /* \"#utility.yul\":2840:2957   */\n      iszero\n      tag_348\n      jumpi\n        /* \"#utility.yul\":2876:2955   */\n      tag_349\n      tag_235\n      jump\t// in\n    tag_349:\n        /* \"#utility.yul\":2840:2957   */\n    tag_348:\n        /* \"#utility.yul\":2990:2994   */\n      0x20\n        /* \"#utility.yul\":2982:2988   */\n      dup4\n        /* \"#utility.yul\":2978:2995   */\n      add\n        /* \"#utility.yul\":2966:2995   */\n      swap2\n      pop\n        /* \"#utility.yul\":3044:3047   */\n      dup4\n        /* \"#utility.yul\":3036:3040   */\n      0x01\n        /* \"#utility.yul\":3028:3034   */\n      dup3\n        /* \"#utility.yul\":3024:3041   */\n      mul\n        /* \"#utility.yul\":3014:3022   */\n      dup4\n        /* \"#utility.yul\":3010:3042   */\n      add\n        /* \"#utility.yul\":3007:3048   */\n      gt\n        /* \"#utility.yul\":3004:3132   */\n      iszero\n      tag_350\n      jumpi\n        /* \"#utility.yul\":3051:3130   */\n      tag_351\n      tag_236\n      jump\t// in\n    tag_351:\n        /* \"#utility.yul\":3004:3132   */\n    tag_350:\n        /* \"#utility.yul\":2585:3138   */\n      swap3\n      pop\n      swap3\n      swap1\n      pop\n      jump\t// out\n        /* \"#utility.yul\":3144:3253   */\n    tag_238:\n        /* \"#utility.yul\":3227:3228   */\n      0x04\n        /* \"#utility.yul\":3220:3225   */\n      dup2\n        /* \"#utility.yul\":3217:3229   */\n      lt\n        /* \"#utility.yul\":3207:3247   */\n      tag_353\n      jumpi\n        /* \"#utility.yul\":3243:3244   */\n      0x00\n        /* \"#utility.yul\":3240:3241   */\n      dup1\n        /* \"#utility.yul\":3233:3245   */\n      revert\n        /* \"#utility.yul\":3207:3247   */\n    tag_353:\n        /* \"#utility.yul\":3144:3253   */\n      pop\n      jump\t// out\n        /* \"#utility.yul\":3259:3418   */\n    tag_239:\n        /* \"#utility.yul\":3315:3320   */\n      0x00\n        /* \"#utility.yul\":3353:3359   */\n      dup2\n        /* \"#utility.yul\":3340:3360   */\n      calldataload\n        /* \"#utility.yul\":3331:3360   */\n      swap1\n      pop\n        /* \"#utility.yul\":3369:3412   */\n      tag_355\n        /* \"#utility.yul\":3406:3411   */\n      dup2\n        /* \"#utility.yul\":3369:3412   */\n      tag_238\n      jump\t// in\n    tag_355:\n        /* \"#utility.yul\":3259:3418   */\n      swap3\n      swap2\n      pop\n      pop\n      jump\t// out\n        /* \"#utility.yul\":3424:4263   */\n    tag_28:\n        /* \"#utility.yul\":3523:3529   */\n      0x00\n        /* \"#utility.yul\":3531:3537   */\n      dup1\n        /* \"#utility.yul\":3539:3545   */\n      0x00\n        /* \"#utility.yul\":3547:3553   */\n      dup1\n        /* \"#utility.yul\":3596:3598   */\n      0x60\n        /* \"#utility.yul\":3584:3593   */\n      dup6\n        /* \"#utility.yul\":3575:3582   */\n      dup8\n        /* \"#utility.yul\":3571:3594   */\n      sub\n        /* \"#utility.yul\":3567:3599   */\n      slt\n        /* \"#utility.yul\":3564:3683   */\n      iszero\n      tag_357\n      jumpi\n        /* \"#utility.yul\":3602:3681   */\n      tag_358\n      tag_225\n      jump\t// in\n    tag_358:\n        /* \"#utility.yul\":3564:3683   */\n    tag_357:\n        /* \"#utility.yul\":3750:3751   */\n      0x00\n        /* \"#utility.yul\":3739:3748   */\n      dup6\n        /* \"#utility.yul\":3735:3752   */\n      add\n        /* \"#utility.yul\":3722:3753   */\n      calldataload\n        /* \"#utility.yul\":3780:3798   */\n      0xffffffffffffffff\n        /* \"#utility.yul\":3772:3778   */\n      dup2\n        /* \"#utility.yul\":3769:3799   */\n      gt\n        /* \"#utility.yul\":3766:3883   */\n      iszero\n      tag_359\n      jumpi\n        /* \"#utility.yul\":3802:3881   */\n      tag_360\n      tag_226\n      jump\t// in\n    tag_360:\n        /* \"#utility.yul\":3766:3883   */\n    tag_359:\n        /* \"#utility.yul\":3915:3980   */\n      tag_361\n        /* \"#utility.yul\":3972:3979   */\n      dup8\n        /* \"#utility.yul\":3963:3969   */\n      dup3\n        /* \"#utility.yul\":3952:3961   */\n      dup9\n        /* \"#utility.yul\":3948:3970   */\n      add\n        /* \"#utility.yul\":3915:3980   */\n      tag_237\n      jump\t// in\n    tag_361:\n        /* \"#utility.yul\":3897:3980   */\n      swap5\n      pop\n      swap5\n      pop\n        /* \"#utility.yul\":3693:3990   */\n      pop\n        /* \"#utility.yul\":4029:4031   */\n      0x20\n        /* \"#utility.yul\":4055:4108   */\n      tag_362\n        /* \"#utility.yul\":4100:4107   */\n      dup8\n        /* \"#utility.yul\":4091:4097   */\n      dup3\n        /* \"#utility.yul\":4080:4089   */\n      dup9\n        /* \"#utility.yul\":4076:4098   */\n      add\n        /* \"#utility.yul\":4055:4108   */\n      tag_229\n      jump\t// in\n    tag_362:\n        /* \"#utility.yul\":4045:4108   */\n      swap3\n      pop\n        /* \"#utility.yul\":4000:4118   */\n      pop\n        /* \"#utility.yul\":4157:4159   */\n      0x40\n        /* \"#utility.yul\":4183:4246   */\n      tag_363\n        /* \"#utility.yul\":4238:4245   */\n      dup8\n        /* \"#utility.yul\":4229:4235   */\n      dup3\n        /* \"#utility.yul\":4218:4227   */\n      dup9\n        /* \"#utility.yul\":4214:4236   */\n      add\n        /* \"#utility.yul\":4183:4246   */\n      tag_239\n      jump\t// in\n    tag_363:\n        /* \"#utility.yul\":4173:4246   */\n      swap2\n      pop\n        /* \"#utility.yul\":4128:4256   */\n      pop\n        /* \"#utility.yul\":3424:4263   */\n      swap3\n      swap6\n      swap2\n      swap5\n      pop\n      swap3\n      pop\n      jump\t// out\n        /* \"#utility.yul\":4269:5454   */\n    tag_32:\n        /* \"#utility.yul\":4389:4395   */\n      0x00\n        /* \"#utility.yul\":4397:4403   */\n      dup1\n        /* \"#utility.yul\":4405:4411   */\n      0x00\n        /* \"#utility.yul\":4413:4419   */\n      dup1\n        /* \"#utility.yul\":4421:4427   */\n      0x00\n        /* \"#utility.yul\":4429:4435   */\n      dup1\n        /* \"#utility.yul\":4478:4481   */\n      0x80\n        /* \"#utility.yul\":4466:4475   */\n      dup8\n        /* \"#utility.yul\":4457:4464   */\n      dup10\n        /* \"#utility.yul\":4453:4476   */\n      sub\n        /* \"#utility.yul\":4449:4482   */\n      slt\n        /* \"#utility.yul\":4446:4566   */\n      iszero\n      tag_365\n      jumpi\n        /* \"#utility.yul\":4485:4564   */\n      tag_366\n      tag_225\n      jump\t// in\n    tag_366:\n        /* \"#utility.yul\":4446:4566   */\n    tag_365:\n        /* \"#utility.yul\":4633:4634   */\n      0x00\n        /* \"#utility.yul\":4622:4631   */\n      dup8\n        /* \"#utility.yul\":4618:4635   */\n      add\n        /* \"#utility.yul\":4605:4636   */\n      calldataload\n        /* \"#utility.yul\":4663:4681   */\n      0xffffffffffffffff\n        /* \"#utility.yul\":4655:4661   */\n      dup2\n        /* \"#utility.yul\":4652:4682   */\n      gt\n        /* \"#utility.yul\":4649:4766   */\n      iszero\n      tag_367\n      jumpi\n        /* \"#utility.yul\":4685:4764   */\n      tag_368\n      tag_226\n      jump\t// in\n    tag_368:\n        /* \"#utility.yul\":4649:4766   */\n    tag_367:\n        /* \"#utility.yul\":4798:4863   */\n      tag_369\n        /* \"#utility.yul\":4855:4862   */\n      dup10\n        /* \"#utility.yul\":4846:4852   */\n      dup3\n        /* \"#utility.yul\":4835:4844   */\n      dup11\n        /* \"#utility.yul\":4831:4853   */\n      add\n        /* \"#utility.yul\":4798:4863   */\n      tag_237\n      jump\t// in\n    tag_369:\n        /* \"#utility.yul\":4780:4863   */\n      swap7\n      pop\n      swap7\n      pop\n        /* \"#utility.yul\":4576:4873   */\n      pop\n        /* \"#utility.yul\":4940:4942   */\n      0x20\n        /* \"#utility.yul\":4929:4938   */\n      dup8\n        /* \"#utility.yul\":4925:4943   */\n      add\n        /* \"#utility.yul\":4912:4944   */\n      calldataload\n        /* \"#utility.yul\":4971:4989   */\n      0xffffffffffffffff\n        /* \"#utility.yul\":4963:4969   */\n      dup2\n        /* \"#utility.yul\":4960:4990   */\n      gt\n        /* \"#utility.yul\":4957:5074   */\n      iszero\n      tag_370\n      jumpi\n        /* \"#utility.yul\":4993:5072   */\n      tag_371\n      tag_226\n      jump\t// in\n    tag_371:\n        /* \"#utility.yul\":4957:5074   */\n    tag_370:\n        /* \"#utility.yul\":5106:5171   */\n      tag_372\n        /* \"#utility.yul\":5163:5170   */\n      dup10\n        /* \"#utility.yul\":5154:5160   */\n      dup3\n        /* \"#utility.yul\":5143:5152   */\n      dup11\n        /* \"#utility.yul\":5139:5161   */\n      add\n        /* \"#utility.yul\":5106:5171   */\n      tag_237\n      jump\t// in\n    tag_372:\n        /* \"#utility.yul\":5088:5171   */\n      swap5\n      pop\n      swap5\n      pop\n        /* \"#utility.yul\":4883:5181   */\n      pop\n        /* \"#utility.yul\":5220:5222   */\n      0x40\n        /* \"#utility.yul\":5246:5299   */\n      tag_373\n        /* \"#utility.yul\":5291:5298   */\n      dup10\n        /* \"#utility.yul\":5282:5288   */\n      dup3\n        /* \"#utility.yul\":5271:5280   */\n      dup11\n        /* \"#utility.yul\":5267:5289   */\n      add\n        /* \"#utility.yul\":5246:5299   */\n      tag_229\n      jump\t// in\n    tag_373:\n        /* \"#utility.yul\":5236:5299   */\n      swap3\n      pop\n        /* \"#utility.yul\":5191:5309   */\n      pop\n        /* \"#utility.yul\":5348:5350   */\n      0x60\n        /* \"#utility.yul\":5374:5437   */\n      tag_374\n        /* \"#utility.yul\":5429:5436   */\n      dup10\n        /* \"#utility.yul\":5420:5426   */\n      dup3\n        /* \"#utility.yul\":5409:5418   */\n      dup11\n        /* \"#utility.yul\":5405:5427   */\n      add\n        /* \"#utility.yul\":5374:5437   */\n      tag_239\n      jump\t// in\n    tag_374:\n        /* \"#utility.yul\":5364:5437   */\n      swap2\n      pop\n        /* \"#utility.yul\":5319:5447   */\n      pop\n        /* \"#utility.yul\":4269:5454   */\n      swap3\n      swap6\n      pop\n      swap3\n      swap6\n      pop\n      swap3\n      swap6\n      jump\t// out\n        /* \"#utility.yul\":5460:5586   */\n    tag_240:\n        /* \"#utility.yul\":5497:5504   */\n      0x00\n        /* \"#utility.yul\":5537:5579   */\n      0xffffffffffffffffffffffffffffffffffffffff\n        /* \"#utility.yul\":5530:5535   */\n      dup3\n        /* \"#utility.yul\":5526:5580   */\n      and\n        /* \"#utility.yul\":5515:5580   */\n      swap1\n      pop\n        /* \"#utility.yul\":5460:5586   */\n      swap2\n      swap1\n      pop\n      jump\t// out\n        /* \"#utility.yul\":5592:5652   */\n    tag_241:\n        /* \"#utility.yul\":5620:5623   */\n      0x00\n        /* \"#utility.yul\":5641:5646   */\n      dup2\n        /* \"#utility.yul\":5634:5646   */\n      swap1\n      pop\n        /* \"#utility.yul\":5592:5652   */\n      swap2\n      swap1\n      pop\n      jump\t// out\n        /* \"#utility.yul\":5658:5800   */\n    tag_242:\n        /* \"#utility.yul\":5708:5717   */\n      0x00\n        /* \"#utility.yul\":5741:5794   */\n      tag_378\n        /* \"#utility.yul\":5759:5793   */\n      tag_379\n        /* \"#utility.yul\":5768:5792   */\n      tag_380\n        /* \"#utility.yul\":5786:5791   */\n      dup5\n        /* \"#utility.yul\":5768:5792   */\n      tag_240\n      jump\t// in\n    tag_380:\n        /* \"#utility.yul\":5759:5793   */\n      tag_241\n      jump\t// in\n    tag_379:\n        /* \"#utility.yul\":5741:5794   */\n      tag_240\n      jump\t// in\n    tag_378:\n        /* \"#utility.yul\":5728:5794   */\n      swap1\n      pop\n        /* \"#utility.yul\":5658:5800   */\n      swap2\n      swap1\n      pop\n      jump\t// out\n        /* \"#utility.yul\":5806:5932   */\n    tag_243:\n        /* \"#utility.yul\":5856:5865   */\n      0x00\n        /* \"#utility.yul\":5889:5926   */\n      tag_382\n        /* \"#utility.yul\":5920:5925   */\n      dup3\n        /* \"#utility.yul\":5889:5926   */\n      tag_242\n      jump\t// in\n    tag_382:\n        /* \"#utility.yul\":5876:5926   */\n      swap1\n      pop\n        /* \"#utility.yul\":5806:5932   */\n      swap2\n      swap1\n      pop\n      jump\t// out\n        /* \"#utility.yul\":5938:6077   */\n    tag_244:\n        /* \"#utility.yul\":6001:6010   */\n      0x00\n        /* \"#utility.yul\":6034:6071   */\n      tag_384\n        /* \"#utility.yul\":6065:6070   */\n      dup3\n        /* \"#utility.yul\":6034:6071   */\n      tag_243\n      jump\t// in\n    tag_384:\n        /* \"#utility.yul\":6021:6071   */\n      swap1\n      pop\n        /* \"#utility.yul\":5938:6077   */\n      swap2\n      swap1\n      pop\n      jump\t// out\n        /* \"#utility.yul\":6083:6240   */\n    tag_245:\n        /* \"#utility.yul\":6183:6233   */\n      tag_386\n        /* \"#utility.yul\":6227:6232   */\n      dup2\n        /* \"#utility.yul\":6183:6233   */\n      tag_244\n      jump\t// in\n    tag_386:\n        /* \"#utility.yul\":6178:6181   */\n      dup3\n        /* \"#utility.yul\":6171:6234   */\n      mstore\n        /* \"#utility.yul\":6083:6240   */\n      pop\n      pop\n      jump\t// out\n        /* \"#utility.yul\":6246:6494   */\n    tag_37:\n        /* \"#utility.yul\":6352:6356   */\n      0x00\n        /* \"#utility.yul\":6390:6392   */\n      0x20\n        /* \"#utility.yul\":6379:6388   */\n      dup3\n        /* \"#utility.yul\":6375:6393   */\n      add\n        /* \"#utility.yul\":6367:6393   */\n      swap1\n      pop\n        /* \"#utility.yul\":6403:6487   */\n      tag_388\n        /* \"#utility.yul\":6484:6485   */\n      0x00\n        /* \"#utility.yul\":6473:6482   */\n      dup4\n        /* \"#utility.yul\":6469:6486   */\n      add\n        /* \"#utility.yul\":6460:6466   */\n      dup5\n        /* \"#utility.yul\":6403:6487   */\n      tag_245\n      jump\t// in\n    tag_388:\n        /* \"#utility.yul\":6246:6494   */\n      swap3\n      swap2\n      pop\n      pop\n      jump\t// out\n        /* \"#utility.yul\":6500:6596   */\n    tag_246:\n        /* \"#utility.yul\":6537:6544   */\n      0x00\n        /* \"#utility.yul\":6566:6590   */\n      tag_390\n        /* \"#utility.yul\":6584:6589   */\n      dup3\n        /* \"#utility.yul\":6566:6590   */\n      tag_240\n      jump\t// in\n    tag_390:\n        /* \"#utility.yul\":6555:6590   */\n      swap1\n      pop\n        /* \"#utility.yul\":6500:6596   */\n      swap2\n      swap1\n      pop\n      jump\t// out\n        /* \"#utility.yul\":6602:6720   */\n    tag_247:\n        /* \"#utility.yul\":6689:6713   */\n      tag_392\n        /* \"#utility.yul\":6707:6712   */\n      dup2\n        /* \"#utility.yul\":6689:6713   */\n      tag_246\n      jump\t// in\n    tag_392:\n        /* \"#utility.yul\":6684:6687   */\n      dup3\n        /* \"#utility.yul\":6677:6714   */\n      mstore\n        /* \"#utility.yul\":6602:6720   */\n      pop\n      pop\n      jump\t// out\n        /* \"#utility.yul\":6726:6948   */\n    tag_46:\n        /* \"#utility.yul\":6819:6823   */\n      0x00\n        /* \"#utility.yul\":6857:6859   */\n      0x20\n        /* \"#utility.yul\":6846:6855   */\n      dup3\n        /* \"#utility.yul\":6842:6860   */\n      add\n        /* \"#utility.yul\":6834:6860   */\n      swap1\n      pop\n        /* \"#utility.yul\":6870:6941   */\n      tag_394\n        /* \"#utility.yul\":6938:6939   */\n      0x00\n        /* \"#utility.yul\":6927:6936   */\n      dup4\n        /* \"#utility.yul\":6923:6940   */\n      add\n        /* \"#utility.yul\":6914:6920   */\n      dup5\n        /* \"#utility.yul\":6870:6941   */\n      tag_247\n      jump\t// in\n    tag_394:\n        /* \"#utility.yul\":6726:6948   */\n      swap3\n      swap2\n      pop\n      pop\n      jump\t// out\n        /* \"#utility.yul\":6954:7089   */\n    tag_248:\n        /* \"#utility.yul\":7042:7048   */\n      0x00\n        /* \"#utility.yul\":7076:7081   */\n      dup2\n        /* \"#utility.yul\":7070:7082   */\n      mload\n        /* \"#utility.yul\":7060:7082   */\n      swap1\n      pop\n        /* \"#utility.yul\":6954:7089   */\n      swap2\n      swap1\n      pop\n      jump\t// out\n        /* \"#utility.yul\":7095:7300   */\n    tag_249:\n        /* \"#utility.yul\":7215:7226   */\n      0x00\n        /* \"#utility.yul\":7249:7255   */\n      dup3\n        /* \"#utility.yul\":7244:7247   */\n      dup3\n        /* \"#utility.yul\":7237:7256   */\n      mstore\n        /* \"#utility.yul\":7289:7293   */\n      0x20\n        /* \"#utility.yul\":7284:7287   */\n      dup3\n        /* \"#utility.yul\":7280:7294   */\n      add\n        /* \"#utility.yul\":7265:7294   */\n      swap1\n      pop\n        /* \"#utility.yul\":7095:7300   */\n      swap3\n      swap2\n      pop\n      pop\n      jump\t// out\n        /* \"#utility.yul\":7306:7459   */\n    tag_250:\n        /* \"#utility.yul\":7394:7398   */\n      0x00\n        /* \"#utility.yul\":7417:7420   */\n      dup2\n        /* \"#utility.yul\":7409:7420   */\n      swap1\n      pop\n        /* \"#utility.yul\":7447:7451   */\n      0x20\n        /* \"#utility.yul\":7442:7445   */\n      dup3\n        /* \"#utility.yul\":7438:7452   */\n      add\n        /* \"#utility.yul\":7430:7452   */\n      swap1\n      pop\n        /* \"#utility.yul\":7306:7459   */\n      swap2\n      swap1\n      pop\n      jump\t// out\n        /* \"#utility.yul\":7465:7564   */\n    tag_251:\n        /* \"#utility.yul\":7517:7523   */\n      0x00\n        /* \"#utility.yul\":7551:7556   */\n      dup2\n        /* \"#utility.yul\":7545:7557   */\n      mload\n        /* \"#utility.yul\":7535:7557   */\n      swap1\n      pop\n        /* \"#utility.yul\":7465:7564   */\n      swap2\n      swap1\n      pop\n      jump\t// out\n        /* \"#utility.yul\":7570:7729   */\n    tag_252:\n        /* \"#utility.yul\":7644:7655   */\n      0x00\n        /* \"#utility.yul\":7678:7684   */\n      dup3\n        /* \"#utility.yul\":7673:7676   */\n      dup3\n        /* \"#utility.yul\":7666:7685   */\n      mstore\n        /* \"#utility.yul\":7718:7722   */\n      0x20\n        /* \"#utility.yul\":7713:7716   */\n      dup3\n        /* \"#utility.yul\":7709:7723   */\n      add\n        /* \"#utility.yul\":7694:7723   */\n      swap1\n      pop\n        /* \"#utility.yul\":7570:7729   */\n      swap3\n      swap2\n      pop\n      pop\n      jump\t// out\n        /* \"#utility.yul\":7735:7874   */\n    tag_253:\n        /* \"#utility.yul\":7824:7830   */\n      dup3\n        /* \"#utility.yul\":7819:7822   */\n      dup2\n        /* \"#utility.yul\":7814:7817   */\n      dup4\n        /* \"#utility.yul\":7808:7831   */\n      mcopy\n        /* \"#utility.yul\":7865:7866   */\n      0x00\n        /* \"#utility.yul\":7856:7862   */\n      dup4\n        /* \"#utility.yul\":7851:7854   */\n      dup4\n        /* \"#utility.yul\":7847:7863   */\n      add\n        /* \"#utility.yul\":7840:7867   */\n      mstore\n        /* \"#utility.yul\":7735:7874   */\n      pop\n      pop\n      pop\n      jump\t// out\n        /* \"#utility.yul\":7880:7982   */\n    tag_254:\n        /* \"#utility.yul\":7921:7927   */\n      0x00\n        /* \"#utility.yul\":7972:7974   */\n      0x1f\n        /* \"#utility.yul\":7968:7975   */\n      not\n        /* \"#utility.yul\":7963:7965   */\n      0x1f\n        /* \"#utility.yul\":7956:7961   */\n      dup4\n        /* \"#utility.yul\":7952:7966   */\n      add\n        /* \"#utility.yul\":7948:7976   */\n      and\n        /* \"#utility.yul\":7938:7976   */\n      swap1\n      pop\n        /* \"#utility.yul\":7880:7982   */\n      swap2\n      swap1\n      pop\n      jump\t// out\n        /* \"#utility.yul\":7988:8345   */\n    tag_255:\n        /* \"#utility.yul\":8066:8069   */\n      0x00\n        /* \"#utility.yul\":8094:8133   */\n      tag_403\n        /* \"#utility.yul\":8127:8132   */\n      dup3\n        /* \"#utility.yul\":8094:8133   */\n      tag_251\n      jump\t// in\n    tag_403:\n        /* \"#utility.yul\":8149:8210   */\n      tag_404\n        /* \"#utility.yul\":8203:8209   */\n      dup2\n        /* \"#utility.yul\":8198:8201   */\n      dup6\n        /* \"#utility.yul\":8149:8210   */\n      tag_252\n      jump\t// in\n    tag_404:\n        /* \"#utility.yul\":8142:8210   */\n      swap4\n      pop\n        /* \"#utility.yul\":8219:8284   */\n      tag_405\n        /* \"#utility.yul\":8277:8283   */\n      dup2\n        /* \"#utility.yul\":8272:8275   */\n      dup6\n        /* \"#utility.yul\":8265:8269   */\n      0x20\n        /* \"#utility.yul\":8258:8263   */\n      dup7\n        /* \"#utility.yul\":8254:8270   */\n      add\n        /* \"#utility.yul\":8219:8284   */\n      tag_253\n      jump\t// in\n    tag_405:\n        /* \"#utility.yul\":8309:8338   */\n      tag_406\n        /* \"#utility.yul\":8331:8337   */\n      dup2\n        /* \"#utility.yul\":8309:8338   */\n      tag_254\n      jump\t// in\n    tag_406:\n        /* \"#utility.yul\":8304:8307   */\n      dup5\n        /* \"#utility.yul\":8300:8339   */\n      add\n        /* \"#utility.yul\":8293:8339   */\n      swap2\n      pop\n        /* \"#utility.yul\":8070:8345   */\n      pop\n        /* \"#utility.yul\":7988:8345   */\n      swap3\n      swap2\n      pop\n      pop\n      jump\t// out\n        /* \"#utility.yul\":8351:8459   */\n    tag_256:\n        /* \"#utility.yul\":8428:8452   */\n      tag_408\n        /* \"#utility.yul\":8446:8451   */\n      dup2\n        /* \"#utility.yul\":8428:8452   */\n      tag_227\n      jump\t// in\n    tag_408:\n        /* \"#utility.yul\":8423:8426   */\n      dup3\n        /* \"#utility.yul\":8416:8453   */\n      mstore\n        /* \"#utility.yul\":8351:8459   */\n      pop\n      pop\n      jump\t// out\n        /* \"#utility.yul\":8465:8580   */\n    tag_257:\n        /* \"#utility.yul\":8548:8549   */\n      0x04\n        /* \"#utility.yul\":8541:8546   */\n      dup2\n        /* \"#utility.yul\":8538:8550   */\n      lt\n        /* \"#utility.yul\":8528:8574   */\n      tag_410\n      jumpi\n        /* \"#utility.yul\":8554:8572   */\n      tag_411\n      tag_114\n      jump\t// in\n    tag_411:\n        /* \"#utility.yul\":8528:8574   */\n    tag_410:\n        /* \"#utility.yul\":8465:8580   */\n      pop\n      jump\t// out\n        /* \"#utility.yul\":8586:8717   */\n    tag_258:\n        /* \"#utility.yul\":8633:8640   */\n      0x00\n        /* \"#utility.yul\":8662:8667   */\n      dup2\n        /* \"#utility.yul\":8651:8667   */\n      swap1\n      pop\n        /* \"#utility.yul\":8668:8711   */\n      tag_413\n        /* \"#utility.yul\":8705:8710   */\n      dup3\n        /* \"#utility.yul\":8668:8711   */\n      tag_257\n      jump\t// in\n    tag_413:\n        /* \"#utility.yul\":8586:8717   */\n      swap2\n      swap1\n      pop\n      jump\t// out\n        /* \"#utility.yul\":8723:8854   */\n    tag_259:\n        /* \"#utility.yul\":8781:8790   */\n      0x00\n        /* \"#utility.yul\":8814:8848   */\n      tag_415\n        /* \"#utility.yul\":8842:8847   */\n      dup3\n        /* \"#utility.yul\":8814:8848   */\n      tag_258\n      jump\t// in\n    tag_415:\n        /* \"#utility.yul\":8801:8848   */\n      swap1\n      pop\n        /* \"#utility.yul\":8723:8854   */\n      swap2\n      swap1\n      pop\n      jump\t// out\n        /* \"#utility.yul\":8860:8997   */\n    tag_260:\n        /* \"#utility.yul\":8945:8990   */\n      tag_417\n        /* \"#utility.yul\":8984:8989   */\n      dup2\n        /* \"#utility.yul\":8945:8990   */\n      tag_259\n      jump\t// in\n    tag_417:\n        /* \"#utility.yul\":8940:8943   */\n      dup3\n        /* \"#utility.yul\":8933:8991   */\n      mstore\n        /* \"#utility.yul\":8860:8997   */\n      pop\n      pop\n      jump\t// out\n        /* \"#utility.yul\":9003:9111   */\n    tag_261:\n        /* \"#utility.yul\":9080:9104   */\n      tag_419\n        /* \"#utility.yul\":9098:9103   */\n      dup2\n        /* \"#utility.yul\":9080:9104   */\n      tag_246\n      jump\t// in\n    tag_419:\n        /* \"#utility.yul\":9075:9078   */\n      dup3\n        /* \"#utility.yul\":9068:9105   */\n      mstore\n        /* \"#utility.yul\":9003:9111   */\n      pop\n      pop\n      jump\t// out\n        /* \"#utility.yul\":9163:10478   */\n    tag_262:\n        /* \"#utility.yul\":9264:9267   */\n      0x00\n        /* \"#utility.yul\":9300:9304   */\n      0xc0\n        /* \"#utility.yul\":9295:9298   */\n      dup4\n        /* \"#utility.yul\":9291:9305   */\n      add\n        /* \"#utility.yul\":9387:9391   */\n      0x00\n        /* \"#utility.yul\":9380:9385   */\n      dup4\n        /* \"#utility.yul\":9376:9392   */\n      add\n        /* \"#utility.yul\":9370:9393   */\n      mload\n        /* \"#utility.yul\":9440:9443   */\n      dup5\n        /* \"#utility.yul\":9434:9438   */\n      dup3\n        /* \"#utility.yul\":9430:9444   */\n      sub\n        /* \"#utility.yul\":9423:9427   */\n      0x00\n        /* \"#utility.yul\":9418:9421   */\n      dup7\n        /* \"#utility.yul\":9414:9428   */\n      add\n        /* \"#utility.yul\":9407:9445   */\n      mstore\n        /* \"#utility.yul\":9466:9539   */\n      tag_421\n        /* \"#utility.yul\":9534:9538   */\n      dup3\n        /* \"#utility.yul\":9520:9532   */\n      dup3\n        /* \"#utility.yul\":9466:9539   */\n      tag_255\n      jump\t// in\n    tag_421:\n        /* \"#utility.yul\":9458:9539   */\n      swap2\n      pop\n        /* \"#utility.yul\":9315:9550   */\n      pop\n        /* \"#utility.yul\":9631:9635   */\n      0x20\n        /* \"#utility.yul\":9624:9629   */\n      dup4\n        /* \"#utility.yul\":9620:9636   */\n      add\n        /* \"#utility.yul\":9614:9637   */\n      mload\n        /* \"#utility.yul\":9650:9713   */\n      tag_422\n        /* \"#utility.yul\":9707:9711   */\n      0x20\n        /* \"#utility.yul\":9702:9705   */\n      dup7\n        /* \"#utility.yul\":9698:9712   */\n      add\n        /* \"#utility.yul\":9684:9696   */\n      dup3\n        /* \"#utility.yul\":9650:9713   */\n      tag_256\n      jump\t// in\n    tag_422:\n        /* \"#utility.yul\":9560:9723   */\n      pop\n        /* \"#utility.yul\":9808:9812   */\n      0x40\n        /* \"#utility.yul\":9801:9806   */\n      dup4\n        /* \"#utility.yul\":9797:9813   */\n      add\n        /* \"#utility.yul\":9791:9814   */\n      mload\n        /* \"#utility.yul\":9827:9890   */\n      tag_423\n        /* \"#utility.yul\":9884:9888   */\n      0x40\n        /* \"#utility.yul\":9879:9882   */\n      dup7\n        /* \"#utility.yul\":9875:9889   */\n      add\n        /* \"#utility.yul\":9861:9873   */\n      dup3\n        /* \"#utility.yul\":9827:9890   */\n      tag_256\n      jump\t// in\n    tag_423:\n        /* \"#utility.yul\":9733:9900   */\n      pop\n        /* \"#utility.yul\":9984:9988   */\n      0x60\n        /* \"#utility.yul\":9977:9982   */\n      dup4\n        /* \"#utility.yul\":9973:9989   */\n      add\n        /* \"#utility.yul\":9967:9990   */\n      mload\n        /* \"#utility.yul\":10003:10074   */\n      tag_424\n        /* \"#utility.yul\":10068:10072   */\n      0x60\n        /* \"#utility.yul\":10063:10066   */\n      dup7\n        /* \"#utility.yul\":10059:10073   */\n      add\n        /* \"#utility.yul\":10045:10057   */\n      dup3\n        /* \"#utility.yul\":10003:10074   */\n      tag_260\n      jump\t// in\n    tag_424:\n        /* \"#utility.yul\":9910:10084   */\n      pop\n        /* \"#utility.yul\":10177:10181   */\n      0x80\n        /* \"#utility.yul\":10170:10175   */\n      dup4\n        /* \"#utility.yul\":10166:10182   */\n      add\n        /* \"#utility.yul\":10160:10183   */\n      mload\n        /* \"#utility.yul\":10196:10259   */\n      tag_425\n        /* \"#utility.yul\":10253:10257   */\n      0x80\n        /* \"#utility.yul\":10248:10251   */\n      dup7\n        /* \"#utility.yul\":10244:10258   */\n      add\n        /* \"#utility.yul\":10230:10242   */\n      dup3\n        /* \"#utility.yul\":10196:10259   */\n      tag_256\n      jump\t// in\n    tag_425:\n        /* \"#utility.yul\":10094:10269   */\n      pop\n        /* \"#utility.yul\":10359:10363   */\n      0xa0\n        /* \"#utility.yul\":10352:10357   */\n      dup4\n        /* \"#utility.yul\":10348:10364   */\n      add\n        /* \"#utility.yul\":10342:10365   */\n      mload\n        /* \"#utility.yul\":10378:10441   */\n      tag_426\n        /* \"#utility.yul\":10435:10439   */\n      0xa0\n        /* \"#utility.yul\":10430:10433   */\n      dup7\n        /* \"#utility.yul\":10426:10440   */\n      add\n        /* \"#utility.yul\":10412:10424   */\n      dup3\n        /* \"#utility.yul\":10378:10441   */\n      tag_261\n      jump\t// in\n    tag_426:\n        /* \"#utility.yul\":10279:10451   */\n      pop\n        /* \"#utility.yul\":10468:10472   */\n      dup1\n        /* \"#utility.yul\":10461:10472   */\n      swap2\n      pop\n        /* \"#utility.yul\":9269:10478   */\n      pop\n        /* \"#utility.yul\":9163:10478   */\n      swap3\n      swap2\n      pop\n      pop\n      jump\t// out\n        /* \"#utility.yul\":10484:10724   */\n    tag_263:\n        /* \"#utility.yul\":10595:10605   */\n      0x00\n        /* \"#utility.yul\":10630:10718   */\n      tag_428\n        /* \"#utility.yul\":10714:10717   */\n      dup4\n        /* \"#utility.yul\":10706:10712   */\n      dup4\n        /* \"#utility.yul\":10630:10718   */\n      tag_262\n      jump\t// in\n    tag_428:\n        /* \"#utility.yul\":10616:10718   */\n      swap1\n      pop\n        /* \"#utility.yul\":10484:10724   */\n      swap3\n      swap2\n      pop\n      pop\n      jump\t// out\n        /* \"#utility.yul\":10730:10864   */\n    tag_264:\n        /* \"#utility.yul\":10821:10825   */\n      0x00\n        /* \"#utility.yul\":10853:10857   */\n      0x20\n        /* \"#utility.yul\":10848:10851   */\n      dup3\n        /* \"#utility.yul\":10844:10858   */\n      add\n        /* \"#utility.yul\":10836:10858   */\n      swap1\n      pop\n        /* \"#utility.yul\":10730:10864   */\n      swap2\n      swap1\n      pop\n      jump\t// out\n        /* \"#utility.yul\":10920:11999   */\n    tag_265:\n        /* \"#utility.yul\":11081:11084   */\n      0x00\n        /* \"#utility.yul\":11110:11185   */\n      tag_431\n        /* \"#utility.yul\":11179:11184   */\n      dup3\n        /* \"#utility.yul\":11110:11185   */\n      tag_248\n      jump\t// in\n    tag_431:\n        /* \"#utility.yul\":11201:11308   */\n      tag_432\n        /* \"#utility.yul\":11301:11307   */\n      dup2\n        /* \"#utility.yul\":11296:11299   */\n      dup6\n        /* \"#utility.yul\":11201:11308   */\n      tag_249\n      jump\t// in\n    tag_432:\n        /* \"#utility.yul\":11194:11308   */\n      swap4\n      pop\n        /* \"#utility.yul\":11334:11337   */\n      dup4\n        /* \"#utility.yul\":11379:11383   */\n      0x20\n        /* \"#utility.yul\":11371:11377   */\n      dup3\n        /* \"#utility.yul\":11367:11384   */\n      mul\n        /* \"#utility.yul\":11362:11365   */\n      dup6\n        /* \"#utility.yul\":11358:11385   */\n      add\n        /* \"#utility.yul\":11409:11486   */\n      tag_433\n        /* \"#utility.yul\":11480:11485   */\n      dup6\n        /* \"#utility.yul\":11409:11486   */\n      tag_250\n      jump\t// in\n    tag_433:\n        /* \"#utility.yul\":11509:11516   */\n      dup1\n        /* \"#utility.yul\":11540:11541   */\n      0x00\n        /* \"#utility.yul\":11525:11954   */\n    tag_434:\n        /* \"#utility.yul\":11550:11556   */\n      dup6\n        /* \"#utility.yul\":11547:11548   */\n      dup2\n        /* \"#utility.yul\":11544:11557   */\n      lt\n        /* \"#utility.yul\":11525:11954   */\n      iszero\n      tag_436\n      jumpi\n        /* \"#utility.yul\":11621:11630   */\n      dup5\n        /* \"#utility.yul\":11615:11619   */\n      dup5\n        /* \"#utility.yul\":11611:11631   */\n      sub\n        /* \"#utility.yul\":11606:11609   */\n      dup10\n        /* \"#utility.yul\":11599:11632   */\n      mstore\n        /* \"#utility.yul\":11672:11678   */\n      dup2\n        /* \"#utility.yul\":11666:11679   */\n      mload\n        /* \"#utility.yul\":11700:11806   */\n      tag_437\n        /* \"#utility.yul\":11801:11805   */\n      dup6\n        /* \"#utility.yul\":11786:11799   */\n      dup3\n        /* \"#utility.yul\":11700:11806   */\n      tag_263\n      jump\t// in\n    tag_437:\n        /* \"#utility.yul\":11692:11806   */\n      swap5\n      pop\n        /* \"#utility.yul\":11829:11910   */\n      tag_438\n        /* \"#utility.yul\":11903:11909   */\n      dup4\n        /* \"#utility.yul\":11829:11910   */\n      tag_264\n      jump\t// in\n    tag_438:\n        /* \"#utility.yul\":11819:11910   */\n      swap3\n      pop\n        /* \"#utility.yul\":11939:11943   */\n      0x20\n        /* \"#utility.yul\":11934:11937   */\n      dup11\n        /* \"#utility.yul\":11930:11944   */\n      add\n        /* \"#utility.yul\":11923:11944   */\n      swap10\n      pop\n        /* \"#utility.yul\":11585:11954   */\n      pop\n        /* \"#utility.yul\":11572:11573   */\n      0x01\n        /* \"#utility.yul\":11569:11570   */\n      dup2\n        /* \"#utility.yul\":11565:11574   */\n      add\n        /* \"#utility.yul\":11560:11574   */\n      swap1\n      pop\n        /* \"#utility.yul\":11525:11954   */\n      jump(tag_434)\n    tag_436:\n        /* \"#utility.yul\":11529:11543   */\n      pop\n        /* \"#utility.yul\":11970:11974   */\n      dup3\n        /* \"#utility.yul\":11963:11974   */\n      swap8\n      pop\n        /* \"#utility.yul\":11990:11993   */\n      dup8\n        /* \"#utility.yul\":11983:11993   */\n      swap6\n      pop\n        /* \"#utility.yul\":11086:11999   */\n      pop\n      pop\n      pop\n      pop\n      pop\n        /* \"#utility.yul\":10920:11999   */\n      swap3\n      swap2\n      pop\n      pop\n      jump\t// out\n        /* \"#utility.yul\":12005:12462   */\n    tag_50:\n        /* \"#utility.yul\":12190:12194   */\n      0x00\n        /* \"#utility.yul\":12228:12230   */\n      0x20\n        /* \"#utility.yul\":12217:12226   */\n      dup3\n        /* \"#utility.yul\":12213:12231   */\n      add\n        /* \"#utility.yul\":12205:12231   */\n      swap1\n      pop\n        /* \"#utility.yul\":12277:12286   */\n      dup2\n        /* \"#utility.yul\":12271:12275   */\n      dup2\n        /* \"#utility.yul\":12267:12287   */\n      sub\n        /* \"#utility.yul\":12263:12264   */\n      0x00\n        /* \"#utility.yul\":12252:12261   */\n      dup4\n        /* \"#utility.yul\":12248:12265   */\n      add\n        /* \"#utility.yul\":12241:12288   */\n      mstore\n        /* \"#utility.yul\":12305:12455   */\n      tag_440\n        /* \"#utility.yul\":12450:12454   */\n      dup2\n        /* \"#utility.yul\":12441:12447   */\n      dup5\n        /* \"#utility.yul\":12305:12455   */\n      tag_265\n      jump\t// in\n    tag_440:\n        /* \"#utility.yul\":12297:12455   */\n      swap1\n      pop\n        /* \"#utility.yul\":12005:12462   */\n      swap3\n      swap2\n      pop\n      pop\n      jump\t// out\n        /* \"#utility.yul\":12468:12608   */\n    tag_266:\n        /* \"#utility.yul\":12561:12567   */\n      0x00\n        /* \"#utility.yul\":12595:12600   */\n      dup2\n        /* \"#utility.yul\":12589:12601   */\n      mload\n        /* \"#utility.yul\":12579:12601   */\n      swap1\n      pop\n        /* \"#utility.yul\":12468:12608   */\n      swap2\n      swap1\n      pop\n      jump\t// out\n        /* \"#utility.yul\":12614:12824   */\n    tag_267:\n        /* \"#utility.yul\":12739:12750   */\n      0x00\n        /* \"#utility.yul\":12773:12779   */\n      dup3\n        /* \"#utility.yul\":12768:12771   */\n      dup3\n        /* \"#utility.yul\":12761:12780   */\n      mstore\n        /* \"#utility.yul\":12813:12817   */\n      0x20\n        /* \"#utility.yul\":12808:12811   */\n      dup3\n        /* \"#utility.yul\":12804:12818   */\n      add\n        /* \"#utility.yul\":12789:12818   */\n      swap1\n      pop\n        /* \"#utility.yul\":12614:12824   */\n      swap3\n      swap2\n      pop\n      pop\n      jump\t// out\n        /* \"#utility.yul\":12830:12988   */\n    tag_268:\n        /* \"#utility.yul\":12923:12927   */\n      0x00\n        /* \"#utility.yul\":12946:12949   */\n      dup2\n        /* \"#utility.yul\":12938:12949   */\n      swap1\n      pop\n        /* \"#utility.yul\":12976:12980   */\n      0x20\n        /* \"#utility.yul\":12971:12974   */\n      dup3\n        /* \"#utility.yul\":12967:12981   */\n      add\n        /* \"#utility.yul\":12959:12981   */\n      swap1\n      pop\n        /* \"#utility.yul\":12830:12988   */\n      swap2\n      swap1\n      pop\n      jump\t// out\n        /* \"#utility.yul\":13048:14617   */\n    tag_269:\n        /* \"#utility.yul\":13159:13162   */\n      0x00\n        /* \"#utility.yul\":13195:13199   */\n      0xe0\n        /* \"#utility.yul\":13190:13193   */\n      dup4\n        /* \"#utility.yul\":13186:13200   */\n      add\n        /* \"#utility.yul\":13282:13286   */\n      0x00\n        /* \"#utility.yul\":13275:13280   */\n      dup4\n        /* \"#utility.yul\":13271:13287   */\n      add\n        /* \"#utility.yul\":13265:13288   */\n      mload\n        /* \"#utility.yul\":13335:13338   */\n      dup5\n        /* \"#utility.yul\":13329:13333   */\n      dup3\n        /* \"#utility.yul\":13325:13339   */\n      sub\n        /* \"#utility.yul\":13318:13322   */\n      0x00\n        /* \"#utility.yul\":13313:13316   */\n      dup7\n        /* \"#utility.yul\":13309:13323   */\n      add\n        /* \"#utility.yul\":13302:13340   */\n      mstore\n        /* \"#utility.yul\":13361:13434   */\n      tag_445\n        /* \"#utility.yul\":13429:13433   */\n      dup3\n        /* \"#utility.yul\":13415:13427   */\n      dup3\n        /* \"#utility.yul\":13361:13434   */\n      tag_255\n      jump\t// in\n    tag_445:\n        /* \"#utility.yul\":13353:13434   */\n      swap2\n      pop\n        /* \"#utility.yul\":13210:13445   */\n      pop\n        /* \"#utility.yul\":13528:13532   */\n      0x20\n        /* \"#utility.yul\":13521:13526   */\n      dup4\n        /* \"#utility.yul\":13517:13533   */\n      add\n        /* \"#utility.yul\":13511:13534   */\n      mload\n        /* \"#utility.yul\":13581:13584   */\n      dup5\n        /* \"#utility.yul\":13575:13579   */\n      dup3\n        /* \"#utility.yul\":13571:13585   */\n      sub\n        /* \"#utility.yul\":13564:13568   */\n      0x20\n        /* \"#utility.yul\":13559:13562   */\n      dup7\n        /* \"#utility.yul\":13555:13569   */\n      add\n        /* \"#utility.yul\":13548:13586   */\n      mstore\n        /* \"#utility.yul\":13607:13680   */\n      tag_446\n        /* \"#utility.yul\":13675:13679   */\n      dup3\n        /* \"#utility.yul\":13661:13673   */\n      dup3\n        /* \"#utility.yul\":13607:13680   */\n      tag_255\n      jump\t// in\n    tag_446:\n        /* \"#utility.yul\":13599:13680   */\n      swap2\n      pop\n        /* \"#utility.yul\":13455:13691   */\n      pop\n        /* \"#utility.yul\":13772:13776   */\n      0x40\n        /* \"#utility.yul\":13765:13770   */\n      dup4\n        /* \"#utility.yul\":13761:13777   */\n      add\n        /* \"#utility.yul\":13755:13778   */\n      mload\n        /* \"#utility.yul\":13791:13854   */\n      tag_447\n        /* \"#utility.yul\":13848:13852   */\n      0x40\n        /* \"#utility.yul\":13843:13846   */\n      dup7\n        /* \"#utility.yul\":13839:13853   */\n      add\n        /* \"#utility.yul\":13825:13837   */\n      dup3\n        /* \"#utility.yul\":13791:13854   */\n      tag_256\n      jump\t// in\n    tag_447:\n        /* \"#utility.yul\":13701:13864   */\n      pop\n        /* \"#utility.yul\":13948:13952   */\n      0x60\n        /* \"#utility.yul\":13941:13946   */\n      dup4\n        /* \"#utility.yul\":13937:13953   */\n      add\n        /* \"#utility.yul\":13931:13954   */\n      mload\n        /* \"#utility.yul\":13967:14038   */\n      tag_448\n        /* \"#utility.yul\":14032:14036   */\n      0x60\n        /* \"#utility.yul\":14027:14030   */\n      dup7\n        /* \"#utility.yul\":14023:14037   */\n      add\n        /* \"#utility.yul\":14009:14021   */\n      dup3\n        /* \"#utility.yul\":13967:14038   */\n      tag_260\n      jump\t// in\n    tag_448:\n        /* \"#utility.yul\":13874:14048   */\n      pop\n        /* \"#utility.yul\":14137:14141   */\n      0x80\n        /* \"#utility.yul\":14130:14135   */\n      dup4\n        /* \"#utility.yul\":14126:14142   */\n      add\n        /* \"#utility.yul\":14120:14143   */\n      mload\n        /* \"#utility.yul\":14156:14219   */\n      tag_449\n        /* \"#utility.yul\":14213:14217   */\n      0x80\n        /* \"#utility.yul\":14208:14211   */\n      dup7\n        /* \"#utility.yul\":14204:14218   */\n      add\n        /* \"#utility.yul\":14190:14202   */\n      dup3\n        /* \"#utility.yul\":14156:14219   */\n      tag_256\n      jump\t// in\n    tag_449:\n        /* \"#utility.yul\":14058:14229   */\n      pop\n        /* \"#utility.yul\":14323:14327   */\n      0xa0\n        /* \"#utility.yul\":14316:14321   */\n      dup4\n        /* \"#utility.yul\":14312:14328   */\n      add\n        /* \"#utility.yul\":14306:14329   */\n      mload\n        /* \"#utility.yul\":14342:14405   */\n      tag_450\n        /* \"#utility.yul\":14399:14403   */\n      0xa0\n        /* \"#utility.yul\":14394:14397   */\n      dup7\n        /* \"#utility.yul\":14390:14404   */\n      add\n        /* \"#utility.yul\":14376:14388   */\n      dup3\n        /* \"#utility.yul\":14342:14405   */\n      tag_261\n      jump\t// in\n    tag_450:\n        /* \"#utility.yul\":14239:14415   */\n      pop\n        /* \"#utility.yul\":14498:14502   */\n      0xc0\n        /* \"#utility.yul\":14491:14496   */\n      dup4\n        /* \"#utility.yul\":14487:14503   */\n      add\n        /* \"#utility.yul\":14481:14504   */\n      mload\n        /* \"#utility.yul\":14517:14580   */\n      tag_451\n        /* \"#utility.yul\":14574:14578   */\n      0xc0\n        /* \"#utility.yul\":14569:14572   */\n      dup7\n        /* \"#utility.yul\":14565:14579   */\n      add\n        /* \"#utility.yul\":14551:14563   */\n      dup3\n        /* \"#utility.yul\":14517:14580   */\n      tag_256\n      jump\t// in\n    tag_451:\n        /* \"#utility.yul\":14425:14590   */\n      pop\n        /* \"#utility.yul\":14607:14611   */\n      dup1\n        /* \"#utility.yul\":14600:14611   */\n      swap2\n      pop\n        /* \"#utility.yul\":13164:14617   */\n      pop\n        /* \"#utility.yul\":13048:14617   */\n      swap3\n      swap2\n      pop\n      pop\n      jump\t// out\n        /* \"#utility.yul\":14623:14883   */\n    tag_270:\n        /* \"#utility.yul\":14744:14754   */\n      0x00\n        /* \"#utility.yul\":14779:14877   */\n      tag_453\n        /* \"#utility.yul\":14873:14876   */\n      dup4\n        /* \"#utility.yul\":14865:14871   */\n      dup4\n        /* \"#utility.yul\":14779:14877   */\n      tag_269\n      jump\t// in\n    tag_453:\n        /* \"#utility.yul\":14765:14877   */\n      swap1\n      pop\n        /* \"#utility.yul\":14623:14883   */\n      swap3\n      swap2\n      pop\n      pop\n      jump\t// out\n        /* \"#utility.yul\":14889:15028   */\n    tag_271:\n        /* \"#utility.yul\":14985:14989   */\n      0x00\n        /* \"#utility.yul\":15017:15021   */\n      0x20\n        /* \"#utility.yul\":15012:15015   */\n      dup3\n        /* \"#utility.yul\":15008:15022   */\n      add\n        /* \"#utility.yul\":15000:15022   */\n      swap1\n      pop\n        /* \"#utility.yul\":14889:15028   */\n      swap2\n      swap1\n      pop\n      jump\t// out\n        /* \"#utility.yul\":15092:16211   */\n    tag_272:\n        /* \"#utility.yul\":15263:15266   */\n      0x00\n        /* \"#utility.yul\":15292:15372   */\n      tag_456\n        /* \"#utility.yul\":15366:15371   */\n      dup3\n        /* \"#utility.yul\":15292:15372   */\n      tag_266\n      jump\t// in\n    tag_456:\n        /* \"#utility.yul\":15388:15500   */\n      tag_457\n        /* \"#utility.yul\":15493:15499   */\n      dup2\n        /* \"#utility.yul\":15488:15491   */\n      dup6\n        /* \"#utility.yul\":15388:15500   */\n      tag_267\n      jump\t// in\n    tag_457:\n        /* \"#utility.yul\":15381:15500   */\n      swap4\n      pop\n        /* \"#utility.yul\":15526:15529   */\n      dup4\n        /* \"#utility.yul\":15571:15575   */\n      0x20\n        /* \"#utility.yul\":15563:15569   */\n      dup3\n        /* \"#utility.yul\":15559:15576   */\n      mul\n        /* \"#utility.yul\":15554:15557   */\n      dup6\n        /* \"#utility.yul\":15550:15577   */\n      add\n        /* \"#utility.yul\":15601:15683   */\n      tag_458\n        /* \"#utility.yul\":15677:15682   */\n      dup6\n        /* \"#utility.yul\":15601:15683   */\n      tag_268\n      jump\t// in\n    tag_458:\n        /* \"#utility.yul\":15706:15713   */\n      dup1\n        /* \"#utility.yul\":15737:15738   */\n      0x00\n        /* \"#utility.yul\":15722:16166   */\n    tag_459:\n        /* \"#utility.yul\":15747:15753   */\n      dup6\n        /* \"#utility.yul\":15744:15745   */\n      dup2\n        /* \"#utility.yul\":15741:15754   */\n      lt\n        /* \"#utility.yul\":15722:16166   */\n      iszero\n      tag_461\n      jumpi\n        /* \"#utility.yul\":15818:15827   */\n      dup5\n        /* \"#utility.yul\":15812:15816   */\n      dup5\n        /* \"#utility.yul\":15808:15828   */\n      sub\n        /* \"#utility.yul\":15803:15806   */\n      dup10\n        /* \"#utility.yul\":15796:15829   */\n      mstore\n        /* \"#utility.yul\":15869:15875   */\n      dup2\n        /* \"#utility.yul\":15863:15876   */\n      mload\n        /* \"#utility.yul\":15897:16013   */\n      tag_462\n        /* \"#utility.yul\":16008:16012   */\n      dup6\n        /* \"#utility.yul\":15993:16006   */\n      dup3\n        /* \"#utility.yul\":15897:16013   */\n      tag_270\n      jump\t// in\n    tag_462:\n        /* \"#utility.yul\":15889:16013   */\n      swap5\n      pop\n        /* \"#utility.yul\":16036:16122   */\n      tag_463\n        /* \"#utility.yul\":16115:16121   */\n      dup4\n        /* \"#utility.yul\":16036:16122   */\n      tag_271\n      jump\t// in\n    tag_463:\n        /* \"#utility.yul\":16026:16122   */\n      swap3\n      pop\n        /* \"#utility.yul\":16151:16155   */\n      0x20\n        /* \"#utility.yul\":16146:16149   */\n      dup11\n        /* \"#utility.yul\":16142:16156   */\n      add\n        /* \"#utility.yul\":16135:16156   */\n      swap10\n      pop\n        /* \"#utility.yul\":15782:16166   */\n      pop\n        /* \"#utility.yul\":15769:15770   */\n      0x01\n        /* \"#utility.yul\":15766:15767   */\n      dup2\n        /* \"#utility.yul\":15762:15771   */\n      add\n        /* \"#utility.yul\":15757:15771   */\n      swap1\n      pop\n        /* \"#utility.yul\":15722:16166   */\n      jump(tag_459)\n    tag_461:\n        /* \"#utility.yul\":15726:15740   */\n      pop\n        /* \"#utility.yul\":16182:16186   */\n      dup3\n        /* \"#utility.yul\":16175:16186   */\n      swap8\n      pop\n        /* \"#utility.yul\":16202:16205   */\n      dup8\n        /* \"#utility.yul\":16195:16205   */\n      swap6\n      pop\n        /* \"#utility.yul\":15268:16211   */\n      pop\n      pop\n      pop\n      pop\n      pop\n        /* \"#utility.yul\":15092:16211   */\n      swap3\n      swap2\n      pop\n      pop\n      jump\t// out\n        /* \"#utility.yul\":16217:16694   */\n    tag_57:\n        /* \"#utility.yul\":16412:16416   */\n      0x00\n        /* \"#utility.yul\":16450:16452   */\n      0x20\n        /* \"#utility.yul\":16439:16448   */\n      dup3\n        /* \"#utility.yul\":16435:16453   */\n      add\n        /* \"#utility.yul\":16427:16453   */\n      swap1\n      pop\n        /* \"#utility.yul\":16499:16508   */\n      dup2\n        /* \"#utility.yul\":16493:16497   */\n      dup2\n        /* \"#utility.yul\":16489:16509   */\n      sub\n        /* \"#utility.yul\":16485:16486   */\n      0x00\n        /* \"#utility.yul\":16474:16483   */\n      dup4\n        /* \"#utility.yul\":16470:16487   */\n      add\n        /* \"#utility.yul\":16463:16510   */\n      mstore\n        /* \"#utility.yul\":16527:16687   */\n      tag_465\n        /* \"#utility.yul\":16682:16686   */\n      dup2\n        /* \"#utility.yul\":16673:16679   */\n      dup5\n        /* \"#utility.yul\":16527:16687   */\n      tag_272\n      jump\t// in\n    tag_465:\n        /* \"#utility.yul\":16519:16687   */\n      swap1\n      pop\n        /* \"#utility.yul\":16217:16694   */\n      swap3\n      swap2\n      pop\n      pop\n      jump\t// out\n        /* \"#utility.yul\":16700:16869   */\n    tag_273:\n        /* \"#utility.yul\":16784:16795   */\n      0x00\n        /* \"#utility.yul\":16818:16824   */\n      dup3\n        /* \"#utility.yul\":16813:16816   */\n      dup3\n        /* \"#utility.yul\":16806:16825   */\n      mstore\n        /* \"#utility.yul\":16858:16862   */\n      0x20\n        /* \"#utility.yul\":16853:16856   */\n      dup3\n        /* \"#utility.yul\":16849:16863   */\n      add\n        /* \"#utility.yul\":16834:16863   */\n      swap1\n      pop\n        /* \"#utility.yul\":16700:16869   */\n      swap3\n      swap2\n      pop\n      pop\n      jump\t// out\n        /* \"#utility.yul\":16875:17044   */\n    tag_274:\n        /* \"#utility.yul\":17015:17036   */\n      0x566f74696e672074696d65206973206f76657200000000000000000000000000\n        /* \"#utility.yul\":17011:17012   */\n      0x00\n        /* \"#utility.yul\":17003:17009   */\n      dup3\n        /* \"#utility.yul\":16999:17013   */\n      add\n        /* \"#utility.yul\":16992:17037   */\n      mstore\n        /* \"#utility.yul\":16875:17044   */\n      pop\n      jump\t// out\n        /* \"#utility.yul\":17050:17416   */\n    tag_275:\n        /* \"#utility.yul\":17192:17195   */\n      0x00\n        /* \"#utility.yul\":17213:17280   */\n      tag_469\n        /* \"#utility.yul\":17277:17279   */\n      0x13\n        /* \"#utility.yul\":17272:17275   */\n      dup4\n        /* \"#utility.yul\":17213:17280   */\n      tag_273\n      jump\t// in\n    tag_469:\n        /* \"#utility.yul\":17206:17280   */\n      swap2\n      pop\n        /* \"#utility.yul\":17289:17382   */\n      tag_470\n        /* \"#utility.yul\":17378:17381   */\n      dup3\n        /* \"#utility.yul\":17289:17382   */\n      tag_274\n      jump\t// in\n    tag_470:\n        /* \"#utility.yul\":17407:17409   */\n      0x20\n        /* \"#utility.yul\":17402:17405   */\n      dup3\n        /* \"#utility.yul\":17398:17410   */\n      add\n        /* \"#utility.yul\":17391:17410   */\n      swap1\n      pop\n        /* \"#utility.yul\":17050:17416   */\n      swap2\n      swap1\n      pop\n      jump\t// out\n        /* \"#utility.yul\":17422:17841   */\n    tag_62:\n        /* \"#utility.yul\":17588:17592   */\n      0x00\n        /* \"#utility.yul\":17626:17628   */\n      0x20\n        /* \"#utility.yul\":17615:17624   */\n      dup3\n        /* \"#utility.yul\":17611:17629   */\n      add\n        /* \"#utility.yul\":17603:17629   */\n      swap1\n      pop\n        /* \"#utility.yul\":17675:17684   */\n      dup2\n        /* \"#utility.yul\":17669:17673   */\n      dup2\n        /* \"#utility.yul\":17665:17685   */\n      sub\n        /* \"#utility.yul\":17661:17662   */\n      0x00\n        /* \"#utility.yul\":17650:17659   */\n      dup4\n        /* \"#utility.yul\":17646:17663   */\n      add\n        /* \"#utility.yul\":17639:17686   */\n      mstore\n        /* \"#utility.yul\":17703:17834   */\n      tag_472\n        /* \"#utility.yul\":17829:17833   */\n      dup2\n        /* \"#utility.yul\":17703:17834   */\n      tag_275\n      jump\t// in\n    tag_472:\n        /* \"#utility.yul\":17695:17834   */\n      swap1\n      pop\n        /* \"#utility.yul\":17422:17841   */\n      swap2\n      swap1\n      pop\n      jump\t// out\n        /* \"#utility.yul\":17847:17990   */\n    tag_276:\n        /* \"#utility.yul\":17904:17909   */\n      0x00\n        /* \"#utility.yul\":17935:17941   */\n      dup2\n        /* \"#utility.yul\":17929:17942   */\n      mload\n        /* \"#utility.yul\":17920:17942   */\n      swap1\n      pop\n        /* \"#utility.yul\":17951:17984   */\n      tag_474\n        /* \"#utility.yul\":17978:17983   */\n      dup2\n        /* \"#utility.yul\":17951:17984   */\n      tag_228\n      jump\t// in\n    tag_474:\n        /* \"#utility.yul\":17847:17990   */\n      swap3\n      swap2\n      pop\n      pop\n      jump\t// out\n        /* \"#utility.yul\":17996:18347   */\n    tag_68:\n        /* \"#utility.yul\":18066:18072   */\n      0x00\n        /* \"#utility.yul\":18115:18117   */\n      0x20\n        /* \"#utility.yul\":18103:18112   */\n      dup3\n        /* \"#utility.yul\":18094:18101   */\n      dup5\n        /* \"#utility.yul\":18090:18113   */\n      sub\n        /* \"#utility.yul\":18086:18118   */\n      slt\n        /* \"#utility.yul\":18083:18202   */\n      iszero\n      tag_476\n      jumpi\n        /* \"#utility.yul\":18121:18200   */\n      tag_477\n      tag_225\n      jump\t// in\n    tag_477:\n        /* \"#utility.yul\":18083:18202   */\n    tag_476:\n        /* \"#utility.yul\":18241:18242   */\n      0x00\n        /* \"#utility.yul\":18266:18330   */\n      tag_478\n        /* \"#utility.yul\":18322:18329   */\n      dup5\n        /* \"#utility.yul\":18313:18319   */\n      dup3\n        /* \"#utility.yul\":18302:18311   */\n      dup6\n        /* \"#utility.yul\":18298:18320   */\n      add\n        /* \"#utility.yul\":18266:18330   */\n      tag_276\n      jump\t// in\n    tag_478:\n        /* \"#utility.yul\":18256:18330   */\n      swap2\n      pop\n        /* \"#utility.yul\":18212:18340   */\n      pop\n        /* \"#utility.yul\":17996:18347   */\n      swap3\n      swap2\n      pop\n      pop\n      jump\t// out\n        /* \"#utility.yul\":18353:18514   */\n    tag_277:\n        /* \"#utility.yul\":18493:18506   */\n      0x6e6f7420616c6c6f776564000000000000000000000000000000000000000000\n        /* \"#utility.yul\":18489:18490   */\n      0x00\n        /* \"#utility.yul\":18481:18487   */\n      dup3\n        /* \"#utility.yul\":18477:18491   */\n      add\n        /* \"#utility.yul\":18470:18507   */\n      mstore\n        /* \"#utility.yul\":18353:18514   */\n      pop\n      jump\t// out\n        /* \"#utility.yul\":18520:18886   */\n    tag_278:\n        /* \"#utility.yul\":18662:18665   */\n      0x00\n        /* \"#utility.yul\":18683:18750   */\n      tag_481\n        /* \"#utility.yul\":18747:18749   */\n      0x0b\n        /* \"#utility.yul\":18742:18745   */\n      dup4\n        /* \"#utility.yul\":18683:18750   */\n      tag_273\n      jump\t// in\n    tag_481:\n        /* \"#utility.yul\":18676:18750   */\n      swap2\n      pop\n        /* \"#utility.yul\":18759:18852   */\n      tag_482\n        /* \"#utility.yul\":18848:18851   */\n      dup3\n        /* \"#utility.yul\":18759:18852   */\n      tag_277\n      jump\t// in\n    tag_482:\n        /* \"#utility.yul\":18877:18879   */\n      0x20\n        /* \"#utility.yul\":18872:18875   */\n      dup3\n        /* \"#utility.yul\":18868:18880   */\n      add\n        /* \"#utility.yul\":18861:18880   */\n      swap1\n      pop\n        /* \"#utility.yul\":18520:18886   */\n      swap2\n      swap1\n      pop\n      jump\t// out\n        /* \"#utility.yul\":18892:19311   */\n    tag_71:\n        /* \"#utility.yul\":19058:19062   */\n      0x00\n        /* \"#utility.yul\":19096:19098   */\n      0x20\n        /* \"#utility.yul\":19085:19094   */\n      dup3\n        /* \"#utility.yul\":19081:19099   */\n      add\n        /* \"#utility.yul\":19073:19099   */\n      swap1\n      pop\n        /* \"#utility.yul\":19145:19154   */\n      dup2\n        /* \"#utility.yul\":19139:19143   */\n      dup2\n        /* \"#utility.yul\":19135:19155   */\n      sub\n        /* \"#utility.yul\":19131:19132   */\n      0x00\n        /* \"#utility.yul\":19120:19129   */\n      dup4\n        /* \"#utility.yul\":19116:19133   */\n      add\n        /* \"#utility.yul\":19109:19156   */\n      mstore\n        /* \"#utility.yul\":19173:19304   */\n      tag_484\n        /* \"#utility.yul\":19299:19303   */\n      dup2\n        /* \"#utility.yul\":19173:19304   */\n      tag_278\n      jump\t// in\n    tag_484:\n        /* \"#utility.yul\":19165:19304   */\n      swap1\n      pop\n        /* \"#utility.yul\":18892:19311   */\n      swap2\n      swap1\n      pop\n      jump\t// out\n        /* \"#utility.yul\":19317:19493   */\n    tag_279:\n        /* \"#utility.yul\":19457:19485   */\n      0x566f74696e6720686173206e6f74207374617274656420796574000000000000\n        /* \"#utility.yul\":19453:19454   */\n      0x00\n        /* \"#utility.yul\":19445:19451   */\n      dup3\n        /* \"#utility.yul\":19441:19455   */\n      add\n        /* \"#utility.yul\":19434:19486   */\n      mstore\n        /* \"#utility.yul\":19317:19493   */\n      pop\n      jump\t// out\n        /* \"#utility.yul\":19499:19865   */\n    tag_280:\n        /* \"#utility.yul\":19641:19644   */\n      0x00\n        /* \"#utility.yul\":19662:19729   */\n      tag_487\n        /* \"#utility.yul\":19726:19728   */\n      0x1a\n        /* \"#utility.yul\":19721:19724   */\n      dup4\n        /* \"#utility.yul\":19662:19729   */\n      tag_273\n      jump\t// in\n    tag_487:\n        /* \"#utility.yul\":19655:19729   */\n      swap2\n      pop\n        /* \"#utility.yul\":19738:19831   */\n      tag_488\n        /* \"#utility.yul\":19827:19830   */\n      dup3\n        /* \"#utility.yul\":19738:19831   */\n      tag_279\n      jump\t// in\n    tag_488:\n        /* \"#utility.yul\":19856:19858   */\n      0x20\n        /* \"#utility.yul\":19851:19854   */\n      dup3\n        /* \"#utility.yul\":19847:19859   */\n      add\n        /* \"#utility.yul\":19840:19859   */\n      swap1\n      pop\n        /* \"#utility.yul\":19499:19865   */\n      swap2\n      swap1\n      pop\n      jump\t// out\n        /* \"#utility.yul\":19871:20290   */\n    tag_74:\n        /* \"#utility.yul\":20037:20041   */\n      0x00\n        /* \"#utility.yul\":20075:20077   */\n      0x20\n        /* \"#utility.yul\":20064:20073   */\n      dup3\n        /* \"#utility.yul\":20060:20078   */\n      add\n        /* \"#utility.yul\":20052:20078   */\n      swap1\n      pop\n        /* \"#utility.yul\":20124:20133   */\n      dup2\n        /* \"#utility.yul\":20118:20122   */\n      dup2\n        /* \"#utility.yul\":20114:20134   */\n      sub\n        /* \"#utility.yul\":20110:20111   */\n      0x00\n        /* \"#utility.yul\":20099:20108   */\n      dup4\n        /* \"#utility.yul\":20095:20112   */\n      add\n        /* \"#utility.yul\":20088:20135   */\n      mstore\n        /* \"#utility.yul\":20152:20283   */\n      tag_490\n        /* \"#utility.yul\":20278:20282   */\n      dup2\n        /* \"#utility.yul\":20152:20283   */\n      tag_280\n      jump\t// in\n    tag_490:\n        /* \"#utility.yul\":20144:20283   */\n      swap1\n      pop\n        /* \"#utility.yul\":19871:20290   */\n      swap2\n      swap1\n      pop\n      jump\t// out\n        /* \"#utility.yul\":20296:20468   */\n    tag_281:\n        /* \"#utility.yul\":20436:20460   */\n      0x596f75206861766520616c726561647920766f74656400000000000000000000\n        /* \"#utility.yul\":20432:20433   */\n      0x00\n        /* \"#utility.yul\":20424:20430   */\n      dup3\n        /* \"#utility.yul\":20420:20434   */\n      add\n        /* \"#utility.yul\":20413:20461   */\n      mstore\n        /* \"#utility.yul\":20296:20468   */\n      pop\n      jump\t// out\n        /* \"#utility.yul\":20474:20840   */\n    tag_282:\n        /* \"#utility.yul\":20616:20619   */\n      0x00\n        /* \"#utility.yul\":20637:20704   */\n      tag_493\n        /* \"#utility.yul\":20701:20703   */\n      0x16\n        /* \"#utility.yul\":20696:20699   */\n      dup4\n        /* \"#utility.yul\":20637:20704   */\n      tag_273\n      jump\t// in\n    tag_493:\n        /* \"#utility.yul\":20630:20704   */\n      swap2\n      pop\n        /* \"#utility.yul\":20713:20806   */\n      tag_494\n        /* \"#utility.yul\":20802:20805   */\n      dup3\n        /* \"#utility.yul\":20713:20806   */\n      tag_281\n      jump\t// in\n    tag_494:\n        /* \"#utility.yul\":20831:20833   */\n      0x20\n        /* \"#utility.yul\":20826:20829   */\n      dup3\n        /* \"#utility.yul\":20822:20834   */\n      add\n        /* \"#utility.yul\":20815:20834   */\n      swap1\n      pop\n        /* \"#utility.yul\":20474:20840   */\n      swap2\n      swap1\n      pop\n      jump\t// out\n        /* \"#utility.yul\":20846:21265   */\n    tag_77:\n        /* \"#utility.yul\":21012:21016   */\n      0x00\n        /* \"#utility.yul\":21050:21052   */\n      0x20\n        /* \"#utility.yul\":21039:21048   */\n      dup3\n        /* \"#utility.yul\":21035:21053   */\n      add\n        /* \"#utility.yul\":21027:21053   */\n      swap1\n      pop\n        /* \"#utility.yul\":21099:21108   */\n      dup2\n        /* \"#utility.yul\":21093:21097   */\n      dup2\n        /* \"#utility.yul\":21089:21109   */\n      sub\n        /* \"#utility.yul\":21085:21086   */\n      0x00\n        /* \"#utility.yul\":21074:21083   */\n      dup4\n        /* \"#utility.yul\":21070:21087   */\n      add\n        /* \"#utility.yul\":21063:21110   */\n      mstore\n        /* \"#utility.yul\":21127:21258   */\n      tag_496\n        /* \"#utility.yul\":21253:21257   */\n      dup2\n        /* \"#utility.yul\":21127:21258   */\n      tag_282\n      jump\t// in\n    tag_496:\n        /* \"#utility.yul\":21119:21258   */\n      swap1\n      pop\n        /* \"#utility.yul\":20846:21265   */\n      swap2\n      swap1\n      pop\n      jump\t// out\n        /* \"#utility.yul\":21271:21444   */\n    tag_283:\n        /* \"#utility.yul\":21411:21436   */\n      0x596f7520617265206e6f7420617574686f7572697a6564000000000000000000\n        /* \"#utility.yul\":21407:21408   */\n      0x00\n        /* \"#utility.yul\":21399:21405   */\n      dup3\n        /* \"#utility.yul\":21395:21409   */\n      add\n        /* \"#utility.yul\":21388:21437   */\n      mstore\n        /* \"#utility.yul\":21271:21444   */\n      pop\n      jump\t// out\n        /* \"#utility.yul\":21450:21816   */\n    tag_284:\n        /* \"#utility.yul\":21592:21595   */\n      0x00\n        /* \"#utility.yul\":21613:21680   */\n      tag_499\n        /* \"#utility.yul\":21677:21679   */\n      0x17\n        /* \"#utility.yul\":21672:21675   */\n      dup4\n        /* \"#utility.yul\":21613:21680   */\n      tag_273\n      jump\t// in\n    tag_499:\n        /* \"#utility.yul\":21606:21680   */\n      swap2\n      pop\n        /* \"#utility.yul\":21689:21782   */\n      tag_500\n        /* \"#utility.yul\":21778:21781   */\n      dup3\n        /* \"#utility.yul\":21689:21782   */\n      tag_283\n      jump\t// in\n    tag_500:\n        /* \"#utility.yul\":21807:21809   */\n      0x20\n        /* \"#utility.yul\":21802:21805   */\n      dup3\n        /* \"#utility.yul\":21798:21810   */\n      add\n        /* \"#utility.yul\":21791:21810   */\n      swap1\n      pop\n        /* \"#utility.yul\":21450:21816   */\n      swap2\n      swap1\n      pop\n      jump\t// out\n        /* \"#utility.yul\":21822:22241   */\n    tag_80:\n        /* \"#utility.yul\":21988:21992   */\n      0x00\n        /* \"#utility.yul\":22026:22028   */\n      0x20\n        /* \"#utility.yul\":22015:22024   */\n      dup3\n        /* \"#utility.yul\":22011:22029   */\n      add\n        /* \"#utility.yul\":22003:22029   */\n      swap1\n      pop\n        /* \"#utility.yul\":22075:22084   */\n      dup2\n        /* \"#utility.yul\":22069:22073   */\n      dup2\n        /* \"#utility.yul\":22065:22085   */\n      sub\n        /* \"#utility.yul\":22061:22062   */\n      0x00\n        /* \"#utility.yul\":22050:22059   */\n      dup4\n        /* \"#utility.yul\":22046:22063   */\n      add\n        /* \"#utility.yul\":22039:22086   */\n      mstore\n        /* \"#utility.yul\":22103:22234   */\n      tag_502\n        /* \"#utility.yul\":22229:22233   */\n      dup2\n        /* \"#utility.yul\":22103:22234   */\n      tag_284\n      jump\t// in\n    tag_502:\n        /* \"#utility.yul\":22095:22234   */\n      swap1\n      pop\n        /* \"#utility.yul\":21822:22241   */\n      swap2\n      swap1\n      pop\n      jump\t// out\n        /* \"#utility.yul\":22247:22424   */\n    tag_285:\n        /* \"#utility.yul\":22387:22416   */\n      0x43616e646964617465204964206973206e6f7420636f72726563740000000000\n        /* \"#utility.yul\":22383:22384   */\n      0x00\n        /* \"#utility.yul\":22375:22381   */\n      dup3\n        /* \"#utility.yul\":22371:22385   */\n      add\n        /* \"#utility.yul\":22364:22417   */\n      mstore\n        /* \"#utility.yul\":22247:22424   */\n      pop\n      jump\t// out\n        /* \"#utility.yul\":22430:22796   */\n    tag_286:\n        /* \"#utility.yul\":22572:22575   */\n      0x00\n        /* \"#utility.yul\":22593:22660   */\n      tag_505\n        /* \"#utility.yul\":22657:22659   */\n      0x1b\n        /* \"#utility.yul\":22652:22655   */\n      dup4\n        /* \"#utility.yul\":22593:22660   */\n      tag_273\n      jump\t// in\n    tag_505:\n        /* \"#utility.yul\":22586:22660   */\n      swap2\n      pop\n        /* \"#utility.yul\":22669:22762   */\n      tag_506\n        /* \"#utility.yul\":22758:22761   */\n      dup3\n        /* \"#utility.yul\":22669:22762   */\n      tag_285\n      jump\t// in\n    tag_506:\n        /* \"#utility.yul\":22787:22789   */\n      0x20\n        /* \"#utility.yul\":22782:22785   */\n      dup3\n        /* \"#utility.yul\":22778:22790   */\n      add\n        /* \"#utility.yul\":22771:22790   */\n      swap1\n      pop\n        /* \"#utility.yul\":22430:22796   */\n      swap2\n      swap1\n      pop\n      jump\t// out\n        /* \"#utility.yul\":22802:23221   */\n    tag_84:\n        /* \"#utility.yul\":22968:22972   */\n      0x00\n        /* \"#utility.yul\":23006:23008   */\n      0x20\n        /* \"#utility.yul\":22995:23004   */\n      dup3\n        /* \"#utility.yul\":22991:23009   */\n      add\n        /* \"#utility.yul\":22983:23009   */\n      swap1\n      pop\n        /* \"#utility.yul\":23055:23064   */\n      dup2\n        /* \"#utility.yul\":23049:23053   */\n      dup2\n        /* \"#utility.yul\":23045:23065   */\n      sub\n        /* \"#utility.yul\":23041:23042   */\n      0x00\n        /* \"#utility.yul\":23030:23039   */\n      dup4\n        /* \"#utility.yul\":23026:23043   */\n      add\n        /* \"#utility.yul\":23019:23066   */\n      mstore\n        /* \"#utility.yul\":23083:23214   */\n      tag_508\n        /* \"#utility.yul\":23209:23213   */\n      dup2\n        /* \"#utility.yul\":23083:23214   */\n      tag_286\n      jump\t// in\n    tag_508:\n        /* \"#utility.yul\":23075:23214   */\n      swap1\n      pop\n        /* \"#utility.yul\":22802:23221   */\n      swap2\n      swap1\n      pop\n      jump\t// out\n        /* \"#utility.yul\":23227:23407   */\n    tag_287:\n        /* \"#utility.yul\":23275:23352   */\n      0x4e487b7100000000000000000000000000000000000000000000000000000000\n        /* \"#utility.yul\":23272:23273   */\n      0x00\n        /* \"#utility.yul\":23265:23353   */\n      mstore\n        /* \"#utility.yul\":23372:23376   */\n      0x11\n        /* \"#utility.yul\":23369:23370   */\n      0x04\n        /* \"#utility.yul\":23362:23377   */\n      mstore\n        /* \"#utility.yul\":23396:23400   */\n      0x24\n        /* \"#utility.yul\":23393:23394   */\n      0x00\n        /* \"#utility.yul\":23386:23401   */\n      revert\n        /* \"#utility.yul\":23413:23646   */\n    tag_86:\n        /* \"#utility.yul\":23452:23455   */\n      0x00\n        /* \"#utility.yul\":23475:23499   */\n      tag_511\n        /* \"#utility.yul\":23493:23498   */\n      dup3\n        /* \"#utility.yul\":23475:23499   */\n      tag_227\n      jump\t// in\n    tag_511:\n        /* \"#utility.yul\":23466:23499   */\n      swap2\n      pop\n        /* \"#utility.yul\":23521:23587   */\n      0xffffffffffffffffffffffffffffffffffffffffffffffffffffffffffffffff\n        /* \"#utility.yul\":23514:23519   */\n      dup3\n        /* \"#utility.yul\":23511:23588   */\n      sub\n        /* \"#utility.yul\":23508:23611   */\n      tag_512\n      jumpi\n        /* \"#utility.yul\":23591:23609   */\n      tag_513\n      tag_287\n      jump\t// in\n    tag_513:\n        /* \"#utility.yul\":23508:23611   */\n    tag_512:\n        /* \"#utility.yul\":23638:23639   */\n      0x01\n        /* \"#utility.yul\":23631:23636   */\n      dup3\n        /* \"#utility.yul\":23627:23640   */\n      add\n        /* \"#utility.yul\":23620:23640   */\n      swap1\n      pop\n        /* \"#utility.yul\":23413:23646   */\n      swap2\n      swap1\n      pop\n      jump\t// out\n        /* \"#utility.yul\":23652:23817   */\n    tag_288:\n        /* \"#utility.yul\":23792:23809   */\n      0x4e6f742061757468756f72697a65640000000000000000000000000000000000\n        /* \"#utility.yul\":23788:23789   */\n      0x00\n        /* \"#utility.yul\":23780:23786   */\n      dup3\n        /* \"#utility.yul\":23776:23790   */\n      add\n        /* \"#utility.yul\":23769:23810   */\n      mstore\n        /* \"#utility.yul\":23652:23817   */\n      pop\n      jump\t// out\n        /* \"#utility.yul\":23823:24189   */\n    tag_289:\n        /* \"#utility.yul\":23965:23968   */\n      0x00\n        /* \"#utility.yul\":23986:24053   */\n      tag_516\n        /* \"#utility.yul\":24050:24052   */\n      0x0f\n        /* \"#utility.yul\":24045:24048   */\n      dup4\n        /* \"#utility.yul\":23986:24053   */\n      tag_273\n      jump\t// in\n    tag_516:\n        /* \"#utility.yul\":23979:24053   */\n      swap2\n      pop\n        /* \"#utility.yul\":24062:24155   */\n      tag_517\n        /* \"#utility.yul\":24151:24154   */\n      dup3\n        /* \"#utility.yul\":24062:24155   */\n      tag_288\n      jump\t// in\n    tag_517:\n        /* \"#utility.yul\":24180:24182   */\n      0x20\n        /* \"#utility.yul\":24175:24178   */\n      dup3\n        /* \"#utility.yul\":24171:24183   */\n      add\n        /* \"#utility.yul\":24164:24183   */\n      swap1\n      pop\n        /* \"#utility.yul\":23823:24189   */\n      swap2\n      swap1\n      pop\n      jump\t// out\n        /* \"#utility.yul\":24195:24614   */\n    tag_96:\n        /* \"#utility.yul\":24361:24365   */\n      0x00\n        /* \"#utility.yul\":24399:24401   */\n      0x20\n        /* \"#utility.yul\":24388:24397   */\n      dup3\n        /* \"#utility.yul\":24384:24402   */\n      add\n        /* \"#utility.yul\":24376:24402   */\n      swap1\n      pop\n        /* \"#utility.yul\":24448:24457   */\n      dup2\n        /* \"#utility.yul\":24442:24446   */\n      dup2\n        /* \"#utility.yul\":24438:24458   */\n      sub\n        /* \"#utility.yul\":24434:24435   */\n      0x00\n        /* \"#utility.yul\":24423:24432   */\n      dup4\n        /* \"#utility.yul\":24419:24436   */\n      add\n        /* \"#utility.yul\":24412:24459   */\n      mstore\n        /* \"#utility.yul\":24476:24607   */\n      tag_519\n        /* \"#utility.yul\":24602:24606   */\n      dup2\n        /* \"#utility.yul\":24476:24607   */\n      tag_289\n      jump\t// in\n    tag_519:\n        /* \"#utility.yul\":24468:24607   */\n      swap1\n      pop\n        /* \"#utility.yul\":24195:24614   */\n      swap2\n      swap1\n      pop\n      jump\t// out\n        /* \"#utility.yul\":24620:24793   */\n    tag_290:\n        /* \"#utility.yul\":24760:24785   */\n      0x6e6f7420656c696769626c6520666f7220766f74696e67000000000000000000\n        /* \"#utility.yul\":24756:24757   */\n      0x00\n        /* \"#utility.yul\":24748:24754   */\n      dup3\n        /* \"#utility.yul\":24744:24758   */\n      add\n        /* \"#utility.yul\":24737:24786   */\n      mstore\n        /* \"#utility.yul\":24620:24793   */\n      pop\n      jump\t// out\n        /* \"#utility.yul\":24799:25165   */\n    tag_291:\n        /* \"#utility.yul\":24941:24944   */\n      0x00\n        /* \"#utility.yul\":24962:25029   */\n      tag_522\n        /* \"#utility.yul\":25026:25028   */\n      0x17\n        /* \"#utility.yul\":25021:25024   */\n      dup4\n        /* \"#utility.yul\":24962:25029   */\n      tag_273\n      jump\t// in\n    tag_522:\n        /* \"#utility.yul\":24955:25029   */\n      swap2\n      pop\n        /* \"#utility.yul\":25038:25131   */\n      tag_523\n        /* \"#utility.yul\":25127:25130   */\n      dup3\n        /* \"#utility.yul\":25038:25131   */\n      tag_290\n      jump\t// in\n    tag_523:\n        /* \"#utility.yul\":25156:25158   */\n      0x20\n        /* \"#utility.yul\":25151:25154   */\n      dup3\n        /* \"#utility.yul\":25147:25159   */\n      add\n        /* \"#utility.yul\":25140:25159   */\n      swap1\n      pop\n        /* \"#utility.yul\":24799:25165   */\n      swap2\n      swap1\n      pop\n      jump\t// out\n        /* \"#utility.yul\":25171:25590   */\n    tag_105:\n        /* \"#utility.yul\":25337:25341   */\n      0x00\n        /* \"#utility.yul\":25375:25377   */\n      0x20\n        /* \"#utility.yul\":25364:25373   */\n      dup3\n        /* \"#utility.yul\":25360:25378   */\n      add\n        /* \"#utility.yul\":25352:25378   */\n      swap1\n      pop\n        /* \"#utility.yul\":25424:25433   */\n      dup2\n        /* \"#utility.yul\":25418:25422   */\n      dup2\n        /* \"#utility.yul\":25414:25434   */\n      sub\n        /* \"#utility.yul\":25410:25411   */\n      0x00\n        /* \"#utility.yul\":25399:25408   */\n      dup4\n        /* \"#utility.yul\":25395:25412   */\n      add\n        /* \"#utility.yul\":25388:25435   */\n      mstore\n        /* \"#utility.yul\":25452:25583   */\n      tag_525\n        /* \"#utility.yul\":25578:25582   */\n      dup2\n        /* \"#utility.yul\":25452:25583   */\n      tag_291\n      jump\t// in\n    tag_525:\n        /* \"#utility.yul\":25444:25583   */\n      swap1\n      pop\n        /* \"#utility.yul\":25171:25590   */\n      swap2\n      swap1\n      pop\n      jump\t// out\n        /* \"#utility.yul\":25596:25772   */\n    tag_292:\n        /* \"#utility.yul\":25736:25764   */\n      0x596f752061726520616c72656164792072656769737465726564000000000000\n        /* \"#utility.yul\":25732:25733   */\n      0x00\n        /* \"#utility.yul\":25724:25730   */\n      dup3\n        /* \"#utility.yul\":25720:25734   */\n      add\n        /* \"#utility.yul\":25713:25765   */\n      mstore\n        /* \"#utility.yul\":25596:25772   */\n      pop\n      jump\t// out\n        /* \"#utility.yul\":25778:26144   */\n    tag_293:\n        /* \"#utility.yul\":25920:25923   */\n      0x00\n        /* \"#utility.yul\":25941:26008   */\n      tag_528\n        /* \"#utility.yul\":26005:26007   */\n      0x1a\n        /* \"#utility.yul\":26000:26003   */\n      dup4\n        /* \"#utility.yul\":25941:26008   */\n      tag_273\n      jump\t// in\n    tag_528:\n        /* \"#utility.yul\":25934:26008   */\n      swap2\n      pop\n        /* \"#utility.yul\":26017:26110   */\n      tag_529\n        /* \"#utility.yul\":26106:26109   */\n      dup3\n        /* \"#utility.yul\":26017:26110   */\n      tag_292\n      jump\t// in\n    tag_529:\n        /* \"#utility.yul\":26135:26137   */\n      0x20\n        /* \"#utility.yul\":26130:26133   */\n      dup3\n        /* \"#utility.yul\":26126:26138   */\n      add\n        /* \"#utility.yul\":26119:26138   */\n      swap1\n      pop\n        /* \"#utility.yul\":25778:26144   */\n      swap2\n      swap1\n      pop\n      jump\t// out\n        /* \"#utility.yul\":26150:26569   */\n    tag_111:\n        /* \"#utility.yul\":26316:26320   */\n      0x00\n        /* \"#utility.yul\":26354:26356   */\n      0x20\n        /* \"#utility.yul\":26343:26352   */\n      dup3\n        /* \"#utility.yul\":26339:26357   */\n      add\n        /* \"#utility.yul\":26331:26357   */\n      swap1\n      pop\n        /* \"#utility.yul\":26403:26412   */\n      dup2\n        /* \"#utility.yul\":26397:26401   */\n      dup2\n        /* \"#utility.yul\":26393:26413   */\n      sub\n        /* \"#utility.yul\":26389:26390   */\n      0x00\n        /* \"#utility.yul\":26378:26387   */\n      dup4\n        /* \"#utility.yul\":26374:26391   */\n      add\n        /* \"#utility.yul\":26367:26414   */\n      mstore\n        /* \"#utility.yul\":26431:26562   */\n      tag_531\n        /* \"#utility.yul\":26557:26561   */\n      dup2\n        /* \"#utility.yul\":26431:26562   */\n      tag_293\n      jump\t// in\n    tag_531:\n        /* \"#utility.yul\":26423:26562   */\n      swap1\n      pop\n        /* \"#utility.yul\":26150:26569   */\n      swap2\n      swap1\n      pop\n      jump\t// out\n        /* \"#utility.yul\":26575:26755   */\n    tag_160:\n        /* \"#utility.yul\":26623:26700   */\n      0x4e487b7100000000000000000000000000000000000000000000000000000000\n        /* \"#utility.yul\":26620:26621   */\n      0x00\n        /* \"#utility.yul\":26613:26701   */\n      mstore\n        /* \"#utility.yul\":26720:26724   */\n      0x41\n        /* \"#utility.yul\":26717:26718   */\n      0x04\n        /* \"#utility.yul\":26710:26725   */\n      mstore\n        /* \"#utility.yul\":26744:26748   */\n      0x24\n        /* \"#utility.yul\":26741:26742   */\n      0x00\n        /* \"#utility.yul\":26734:26749   */\n      revert\n        /* \"#utility.yul\":26761:26941   */\n    tag_294:\n        /* \"#utility.yul\":26809:26886   */\n      0x4e487b7100000000000000000000000000000000000000000000000000000000\n        /* \"#utility.yul\":26806:26807   */\n      0x00\n        /* \"#utility.yul\":26799:26887   */\n      mstore\n        /* \"#utility.yul\":26906:26910   */\n      0x22\n        /* \"#utility.yul\":26903:26904   */\n      0x04\n        /* \"#utility.yul\":26896:26911   */\n      mstore\n        /* \"#utility.yul\":26930:26934   */\n      0x24\n        /* \"#utility.yul\":26927:26928   */\n      0x00\n        /* \"#utility.yul\":26920:26935   */\n      revert\n        /* \"#utility.yul\":26947:27267   */\n    tag_170:\n        /* \"#utility.yul\":26991:26997   */\n      0x00\n        /* \"#utility.yul\":27028:27029   */\n      0x02\n        /* \"#utility.yul\":27022:27026   */\n      dup3\n        /* \"#utility.yul\":27018:27030   */\n      div\n        /* \"#utility.yul\":27008:27030   */\n      swap1\n      pop\n        /* \"#utility.yul\":27075:27076   */\n      0x01\n        /* \"#utility.yul\":27069:27073   */\n      dup3\n        /* \"#utility.yul\":27065:27077   */\n      and\n        /* \"#utility.yul\":27096:27114   */\n      dup1\n        /* \"#utility.yul\":27086:27167   */\n      tag_535\n      jumpi\n        /* \"#utility.yul\":27152:27156   */\n      0x7f\n        /* \"#utility.yul\":27144:27150   */\n      dup3\n        /* \"#utility.yul\":27140:27157   */\n      and\n        /* \"#utility.yul\":27130:27157   */\n      swap2\n      pop\n        /* \"#utility.yul\":27086:27167   */\n    tag_535:\n        /* \"#utility.yul\":27214:27216   */\n      0x20\n        /* \"#utility.yul\":27206:27212   */\n      dup3\n        /* \"#utility.yul\":27203:27217   */\n      lt\n        /* \"#utility.yul\":27183:27201   */\n      dup2\n        /* \"#utility.yul\":27180:27218   */\n      sub\n        /* \"#utility.yul\":27177:27261   */\n      tag_536\n      jumpi\n        /* \"#utility.yul\":27233:27251   */\n      tag_537\n      tag_294\n      jump\t// in\n    tag_537:\n        /* \"#utility.yul\":27177:27261   */\n    tag_536:\n        /* \"#utility.yul\":26998:27267   */\n      pop\n        /* \"#utility.yul\":26947:27267   */\n      swap2\n      swap1\n      pop\n      jump\t// out\n        /* \"#utility.yul\":27273:27414   */\n    tag_295:\n        /* \"#utility.yul\":27322:27326   */\n      0x00\n        /* \"#utility.yul\":27345:27348   */\n      dup2\n        /* \"#utility.yul\":27337:27348   */\n      swap1\n      pop\n        /* \"#utility.yul\":27368:27371   */\n      dup2\n        /* \"#utility.yul\":27365:27366   */\n      0x00\n        /* \"#utility.yul\":27358:27372   */\n      mstore\n        /* \"#utility.yul\":27402:27406   */\n      0x20\n        /* \"#utility.yul\":27399:27400   */\n      0x00\n        /* \"#utility.yul\":27389:27407   */\n      keccak256\n        /* \"#utility.yul\":27381:27407   */\n      swap1\n      pop\n        /* \"#utility.yul\":27273:27414   */\n      swap2\n      swap1\n      pop\n      jump\t// out\n        /* \"#utility.yul\":27420:27513   */\n    tag_296:\n        /* \"#utility.yul\":27457:27463   */\n      0x00\n        /* \"#utility.yul\":27504:27506   */\n      0x20\n        /* \"#utility.yul\":27499:27501   */\n      0x1f\n        /* \"#utility.yul\":27492:27497   */\n      dup4\n        /* \"#utility.yul\":27488:27502   */\n      add\n        /* \"#utility.yul\":27484:27507   */\n      div\n        /* \"#utility.yul\":27474:27507   */\n      swap1\n      pop\n        /* \"#utility.yul\":27420:27513   */\n      swap2\n      swap1\n      pop\n      jump\t// out\n        /* \"#utility.yul\":27519:27626   */\n    tag_297:\n        /* \"#utility.yul\":27563:27571   */\n      0x00\n        /* \"#utility.yul\":27613:27618   */\n      dup3\n        /* \"#utility.yul\":27607:27611   */\n      dup3\n        /* \"#utility.yul\":27603:27619   */\n      shl\n        /* \"#utility.yul\":27582:27619   */\n      swap1\n      pop\n        /* \"#utility.yul\":27519:27626   */\n      swap3\n      swap2\n      pop\n      pop\n      jump\t// out\n        /* \"#utility.yul\":27632:28025   */\n    tag_298:\n        /* \"#utility.yul\":27701:27707   */\n      0x00\n        /* \"#utility.yul\":27751:27752   */\n      0x08\n        /* \"#utility.yul\":27739:27749   */\n      dup4\n        /* \"#utility.yul\":27735:27753   */\n      mul\n        /* \"#utility.yul\":27774:27871   */\n      tag_542\n        /* \"#utility.yul\":27804:27870   */\n      0xffffffffffffffffffffffffffffffffffffffffffffffffffffffffffffffff\n        /* \"#utility.yul\":27793:27802   */\n      dup3\n        /* \"#utility.yul\":27774:27871   */\n      tag_297\n      jump\t// in\n    tag_542:\n        /* \"#utility.yul\":27892:27931   */\n      tag_543\n        /* \"#utility.yul\":27922:27930   */\n      dup7\n        /* \"#utility.yul\":27911:27920   */\n      dup4\n        /* \"#utility.yul\":27892:27931   */\n      tag_297\n      jump\t// in\n    tag_543:\n        /* \"#utility.yul\":27880:27931   */\n      swap6\n      pop\n        /* \"#utility.yul\":27964:27968   */\n      dup1\n        /* \"#utility.yul\":27960:27969   */\n      not\n        /* \"#utility.yul\":27953:27958   */\n      dup5\n        /* \"#utility.yul\":27949:27970   */\n      and\n        /* \"#utility.yul\":27940:27970   */\n      swap4\n      pop\n        /* \"#utility.yul\":28013:28017   */\n      dup1\n        /* \"#utility.yul\":28003:28011   */\n      dup7\n        /* \"#utility.yul\":27999:28018   */\n      and\n        /* \"#utility.yul\":27992:27997   */\n      dup5\n        /* \"#utility.yul\":27989:28019   */\n      or\n        /* \"#utility.yul\":27979:28019   */\n      swap3\n      pop\n        /* \"#utility.yul\":27708:28025   */\n      pop\n      pop\n        /* \"#utility.yul\":27632:28025   */\n      swap4\n      swap3\n      pop\n      pop\n      pop\n      jump\t// out\n        /* \"#utility.yul\":28031:28173   */\n    tag_299:\n        /* \"#utility.yul\":28081:28090   */\n      0x00\n        /* \"#utility.yul\":28114:28167   */\n      tag_545\n        /* \"#utility.yul\":28132:28166   */\n      tag_546\n        /* \"#utility.yul\":28141:28165   */\n      tag_547\n        /* \"#utility.yul\":28159:28164   */\n      dup5\n        /* \"#utility.yul\":28141:28165   */\n      tag_227\n      jump\t// in\n    tag_547:\n        /* \"#utility.yul\":28132:28166   */\n      tag_241\n      jump\t// in\n    tag_546:\n        /* \"#utility.yul\":28114:28167   */\n      tag_227\n      jump\t// in\n    tag_545:\n        /* \"#utility.yul\":28101:28167   */\n      swap1\n      pop\n        /* \"#utility.yul\":28031:28173   */\n      swap2\n      swap1\n      pop\n      jump\t// out\n        /* \"#utility.yul\":28179:28254   */\n    tag_300:\n        /* \"#utility.yul\":28222:28225   */\n      0x00\n        /* \"#utility.yul\":28243:28248   */\n      dup2\n        /* \"#utility.yul\":28236:28248   */\n      swap1\n      pop\n        /* \"#utility.yul\":28179:28254   */\n      swap2\n      swap1\n      pop\n      jump\t// out\n        /* \"#utility.yul\":28260:28529   */\n    tag_301:\n        /* \"#utility.yul\":28370:28409   */\n      tag_550\n        /* \"#utility.yul\":28401:28408   */\n      dup4\n        /* \"#utility.yul\":28370:28409   */\n      tag_299\n      jump\t// in\n    tag_550:\n        /* \"#utility.yul\":28431:28522   */\n      tag_551\n        /* \"#utility.yul\":28480:28521   */\n      tag_552\n        /* \"#utility.yul\":28504:28520   */\n      dup3\n        /* \"#utility.yul\":28480:28521   */\n      tag_300\n      jump\t// in\n    tag_552:\n        /* \"#utility.yul\":28472:28478   */\n      dup5\n        /* \"#utility.yul\":28465:28469   */\n      dup5\n        /* \"#utility.yul\":28459:28470   */\n      sload\n        /* \"#utility.yul\":28431:28522   */\n      tag_298\n      jump\t// in\n    tag_551:\n        /* \"#utility.yul\":28425:28429   */\n      dup3\n        /* \"#utility.yul\":28418:28523   */\n      sstore\n        /* \"#utility.yul\":28336:28529   */\n      pop\n        /* \"#utility.yul\":28260:28529   */\n      pop\n      pop\n      pop\n      jump\t// out\n        /* \"#utility.yul\":28535:28608   */\n    tag_302:\n        /* \"#utility.yul\":28580:28583   */\n      0x00\n        /* \"#utility.yul\":28535:28608   */\n      swap1\n      jump\t// out\n        /* \"#utility.yul\":28614:28803   */\n    tag_303:\n        /* \"#utility.yul\":28691:28723   */\n      tag_555\n      tag_302\n      jump\t// in\n    tag_555:\n        /* \"#utility.yul\":28732:28797   */\n      tag_556\n        /* \"#utility.yul\":28790:28796   */\n      dup2\n        /* \"#utility.yul\":28782:28788   */\n      dup5\n        /* \"#utility.yul\":28776:28780   */\n      dup5\n        /* \"#utility.yul\":28732:28797   */\n      tag_301\n      jump\t// in\n    tag_556:\n        /* \"#utility.yul\":28667:28803   */\n      pop\n        /* \"#utility.yul\":28614:28803   */\n      pop\n      pop\n      jump\t// out\n        /* \"#utility.yul\":28809:28995   */\n    tag_304:\n        /* \"#utility.yul\":28869:28989   */\n    tag_558:\n        /* \"#utility.yul\":28886:28889   */\n      dup2\n        /* \"#utility.yul\":28879:28884   */\n      dup2\n        /* \"#utility.yul\":28876:28890   */\n      lt\n        /* \"#utility.yul\":28869:28989   */\n      iszero\n      tag_560\n      jumpi\n        /* \"#utility.yul\":28940:28979   */\n      tag_561\n        /* \"#utility.yul\":28977:28978   */\n      0x00\n        /* \"#utility.yul\":28970:28975   */\n      dup3\n        /* \"#utility.yul\":28940:28979   */\n      tag_303\n      jump\t// in\n    tag_561:\n        /* \"#utility.yul\":28913:28914   */\n      0x01\n        /* \"#utility.yul\":28906:28911   */\n      dup2\n        /* \"#utility.yul\":28902:28915   */\n      add\n        /* \"#utility.yul\":28893:28915   */\n      swap1\n      pop\n        /* \"#utility.yul\":28869:28989   */\n      jump(tag_558)\n    tag_560:\n        /* \"#utility.yul\":28809:28995   */\n      pop\n      pop\n      jump\t// out\n        /* \"#utility.yul\":29001:29544   */\n    tag_305:\n        /* \"#utility.yul\":29102:29104   */\n      0x1f\n        /* \"#utility.yul\":29097:29100   */\n      dup3\n        /* \"#utility.yul\":29094:29105   */\n      gt\n        /* \"#utility.yul\":29091:29537   */\n      iszero\n      tag_563\n      jumpi\n        /* \"#utility.yul\":29136:29174   */\n      tag_564\n        /* \"#utility.yul\":29168:29173   */\n      dup2\n        /* \"#utility.yul\":29136:29174   */\n      tag_295\n      jump\t// in\n    tag_564:\n        /* \"#utility.yul\":29220:29249   */\n      tag_565\n        /* \"#utility.yul\":29238:29248   */\n      dup5\n        /* \"#utility.yul\":29220:29249   */\n      tag_296\n      jump\t// in\n    tag_565:\n        /* \"#utility.yul\":29210:29218   */\n      dup2\n        /* \"#utility.yul\":29206:29250   */\n      add\n        /* \"#utility.yul\":29403:29405   */\n      0x20\n        /* \"#utility.yul\":29391:29401   */\n      dup6\n        /* \"#utility.yul\":29388:29406   */\n      lt\n        /* \"#utility.yul\":29385:29434   */\n      iszero\n      tag_566\n      jumpi\n        /* \"#utility.yul\":29424:29432   */\n      dup2\n        /* \"#utility.yul\":29409:29432   */\n      swap1\n      pop\n        /* \"#utility.yul\":29385:29434   */\n    tag_566:\n        /* \"#utility.yul\":29447:29527   */\n      tag_567\n        /* \"#utility.yul\":29503:29525   */\n      tag_568\n        /* \"#utility.yul\":29521:29524   */\n      dup6\n        /* \"#utility.yul\":29503:29525   */\n      tag_296\n      jump\t// in\n    tag_568:\n        /* \"#utility.yul\":29493:29501   */\n      dup4\n        /* \"#utility.yul\":29489:29526   */\n      add\n        /* \"#utility.yul\":29476:29487   */\n      dup3\n        /* \"#utility.yul\":29447:29527   */\n      tag_304\n      jump\t// in\n    tag_567:\n        /* \"#utility.yul\":29106:29537   */\n      pop\n      pop\n        /* \"#utility.yul\":29091:29537   */\n    tag_563:\n        /* \"#utility.yul\":29001:29544   */\n      pop\n      pop\n      pop\n      jump\t// out\n        /* \"#utility.yul\":29550:29667   */\n    tag_306:\n        /* \"#utility.yul\":29604:29612   */\n      0x00\n        /* \"#utility.yul\":29654:29659   */\n      dup3\n        /* \"#utility.yul\":29648:29652   */\n      dup3\n        /* \"#utility.yul\":29644:29660   */\n      shr\n        /* \"#utility.yul\":29623:29660   */\n      swap1\n      pop\n        /* \"#utility.yul\":29550:29667   */\n      swap3\n      swap2\n      pop\n      pop\n      jump\t// out\n        /* \"#utility.yul\":29673:29842   */\n    tag_307:\n        /* \"#utility.yul\":29717:29723   */\n      0x00\n        /* \"#utility.yul\":29750:29801   */\n      tag_571\n        /* \"#utility.yul\":29798:29799   */\n      0x00\n        /* \"#utility.yul\":29794:29800   */\n      not\n        /* \"#utility.yul\":29786:29791   */\n      dup5\n        /* \"#utility.yul\":29783:29784   */\n      0x08\n        /* \"#utility.yul\":29779:29792   */\n      mul\n        /* \"#utility.yul\":29750:29801   */\n      tag_306\n      jump\t// in\n    tag_571:\n        /* \"#utility.yul\":29746:29802   */\n      not\n        /* \"#utility.yul\":29831:29835   */\n      dup1\n        /* \"#utility.yul\":29825:29829   */\n      dup4\n        /* \"#utility.yul\":29821:29836   */\n      and\n        /* \"#utility.yul\":29811:29836   */\n      swap2\n      pop\n        /* \"#utility.yul\":29724:29842   */\n      pop\n        /* \"#utility.yul\":29673:29842   */\n      swap3\n      swap2\n      pop\n      pop\n      jump\t// out\n        /* \"#utility.yul\":29847:30142   */\n    tag_308:\n        /* \"#utility.yul\":29923:29927   */\n      0x00\n        /* \"#utility.yul\":30069:30098   */\n      tag_573\n        /* \"#utility.yul\":30094:30097   */\n      dup4\n        /* \"#utility.yul\":30088:30092   */\n      dup4\n        /* \"#utility.yul\":30069:30098   */\n      tag_307\n      jump\t// in\n    tag_573:\n        /* \"#utility.yul\":30061:30098   */\n      swap2\n      pop\n        /* \"#utility.yul\":30131:30134   */\n      dup3\n        /* \"#utility.yul\":30128:30129   */\n      0x02\n        /* \"#utility.yul\":30124:30135   */\n      mul\n        /* \"#utility.yul\":30118:30122   */\n      dup3\n        /* \"#utility.yul\":30115:30136   */\n      or\n        /* \"#utility.yul\":30107:30136   */\n      swap1\n      pop\n        /* \"#utility.yul\":29847:30142   */\n      swap3\n      swap2\n      pop\n      pop\n      jump\t// out\n        /* \"#utility.yul\":30147:31542   */\n    tag_116:\n        /* \"#utility.yul\":30264:30301   */\n      tag_575\n        /* \"#utility.yul\":30297:30300   */\n      dup3\n        /* \"#utility.yul\":30264:30301   */\n      tag_251\n      jump\t// in\n    tag_575:\n        /* \"#utility.yul\":30366:30384   */\n      0xffffffffffffffff\n        /* \"#utility.yul\":30358:30364   */\n      dup2\n        /* \"#utility.yul\":30355:30385   */\n      gt\n        /* \"#utility.yul\":30352:30408   */\n      iszero\n      tag_576\n      jumpi\n        /* \"#utility.yul\":30388:30406   */\n      tag_577\n      tag_160\n      jump\t// in\n    tag_577:\n        /* \"#utility.yul\":30352:30408   */\n    tag_576:\n        /* \"#utility.yul\":30432:30470   */\n      tag_578\n        /* \"#utility.yul\":30464:30468   */\n      dup3\n        /* \"#utility.yul\":30458:30469   */\n      sload\n        /* \"#utility.yul\":30432:30470   */\n      tag_170\n      jump\t// in\n    tag_578:\n        /* \"#utility.yul\":30517:30584   */\n      tag_579\n        /* \"#utility.yul\":30577:30583   */\n      dup3\n        /* \"#utility.yul\":30569:30575   */\n      dup3\n        /* \"#utility.yul\":30563:30567   */\n      dup6\n        /* \"#utility.yul\":30517:30584   */\n      tag_305\n      jump\t// in\n    tag_579:\n        /* \"#utility.yul\":30611:30612   */\n      0x00\n        /* \"#utility.yul\":30635:30639   */\n      0x20\n        /* \"#utility.yul\":30622:30639   */\n      swap1\n      pop\n        /* \"#utility.yul\":30667:30669   */\n      0x1f\n        /* \"#utility.yul\":30659:30665   */\n      dup4\n        /* \"#utility.yul\":30656:30670   */\n      gt\n        /* \"#utility.yul\":30684:30685   */\n      0x01\n        /* \"#utility.yul\":30679:31297   */\n      dup2\n      eq\n      tag_581\n      jumpi\n        /* \"#utility.yul\":31341:31342   */\n      0x00\n        /* \"#utility.yul\":31358:31364   */\n      dup5\n        /* \"#utility.yul\":31355:31432   */\n      iszero\n      tag_582\n      jumpi\n        /* \"#utility.yul\":31407:31416   */\n      dup3\n        /* \"#utility.yul\":31402:31405   */\n      dup8\n        /* \"#utility.yul\":31398:31417   */\n      add\n        /* \"#utility.yul\":31392:31418   */\n      mload\n        /* \"#utility.yul\":31383:31418   */\n      swap1\n      pop\n        /* \"#utility.yul\":31355:31432   */\n    tag_582:\n        /* \"#utility.yul\":31458:31525   */\n      tag_583\n        /* \"#utility.yul\":31518:31524   */\n      dup6\n        /* \"#utility.yul\":31511:31516   */\n      dup3\n        /* \"#utility.yul\":31458:31525   */\n      tag_308\n      jump\t// in\n    tag_583:\n        /* \"#utility.yul\":31452:31456   */\n      dup7\n        /* \"#utility.yul\":31445:31526   */\n      sstore\n        /* \"#utility.yul\":31314:31536   */\n      pop\n        /* \"#utility.yul\":30649:31536   */\n      jump(tag_580)\n        /* \"#utility.yul\":30679:31297   */\n    tag_581:\n        /* \"#utility.yul\":30731:30735   */\n      0x1f\n        /* \"#utility.yul\":30727:30736   */\n      not\n        /* \"#utility.yul\":30719:30725   */\n      dup5\n        /* \"#utility.yul\":30715:30737   */\n      and\n        /* \"#utility.yul\":30765:30802   */\n      tag_584\n        /* \"#utility.yul\":30797:30801   */\n      dup7\n        /* \"#utility.yul\":30765:30802   */\n      tag_295\n      jump\t// in\n    tag_584:\n        /* \"#utility.yul\":30824:30825   */\n      0x00\n        /* \"#utility.yul\":30838:31046   */\n    tag_585:\n        /* \"#utility.yul\":30852:30859   */\n      dup3\n        /* \"#utility.yul\":30849:30850   */\n      dup2\n        /* \"#utility.yul\":30846:30860   */\n      lt\n        /* \"#utility.yul\":30838:31046   */\n      iszero\n      tag_587\n      jumpi\n        /* \"#utility.yul\":30931:30940   */\n      dup5\n        /* \"#utility.yul\":30926:30929   */\n      dup10\n        /* \"#utility.yul\":30922:30941   */\n      add\n        /* \"#utility.yul\":30916:30942   */\n      mload\n        /* \"#utility.yul\":30908:30914   */\n      dup3\n        /* \"#utility.yul\":30901:30943   */\n      sstore\n        /* \"#utility.yul\":30982:30983   */\n      0x01\n        /* \"#utility.yul\":30974:30980   */\n      dup3\n        /* \"#utility.yul\":30970:30984   */\n      add\n        /* \"#utility.yul\":30960:30984   */\n      swap2\n      pop\n        /* \"#utility.yul\":31029:31031   */\n      0x20\n        /* \"#utility.yul\":31018:31027   */\n      dup6\n        /* \"#utility.yul\":31014:31032   */\n      add\n        /* \"#utility.yul\":31001:31032   */\n      swap5\n      pop\n        /* \"#utility.yul\":30875:30879   */\n      0x20\n        /* \"#utility.yul\":30872:30873   */\n      dup2\n        /* \"#utility.yul\":30868:30880   */\n      add\n        /* \"#utility.yul\":30863:30880   */\n      swap1\n      pop\n        /* \"#utility.yul\":30838:31046   */\n      jump(tag_585)\n    tag_587:\n        /* \"#utility.yul\":31074:31080   */\n      dup7\n        /* \"#utility.yul\":31065:31072   */\n      dup4\n        /* \"#utility.yul\":31062:31081   */\n      lt\n        /* \"#utility.yul\":31059:31238   */\n      iszero\n      tag_588\n      jumpi\n        /* \"#utility.yul\":31132:31141   */\n      dup5\n        /* \"#utility.yul\":31127:31130   */\n      dup10\n        /* \"#utility.yul\":31123:31142   */\n      add\n        /* \"#utility.yul\":31117:31143   */\n      mload\n        /* \"#utility.yul\":31175:31223   */\n      tag_589\n        /* \"#utility.yul\":31217:31221   */\n      0x1f\n        /* \"#utility.yul\":31209:31215   */\n      dup10\n        /* \"#utility.yul\":31205:31222   */\n      and\n        /* \"#utility.yul\":31194:31203   */\n      dup3\n        /* \"#utility.yul\":31175:31223   */\n      tag_307\n      jump\t// in\n    tag_589:\n        /* \"#utility.yul\":31167:31173   */\n      dup4\n        /* \"#utility.yul\":31160:31224   */\n      sstore\n        /* \"#utility.yul\":31082:31238   */\n      pop\n        /* \"#utility.yul\":31059:31238   */\n    tag_588:\n        /* \"#utility.yul\":31284:31285   */\n      0x01\n        /* \"#utility.yul\":31280:31281   */\n      0x02\n        /* \"#utility.yul\":31272:31278   */\n      dup9\n        /* \"#utility.yul\":31268:31282   */\n      mul\n        /* \"#utility.yul\":31264:31286   */\n      add\n        /* \"#utility.yul\":31258:31262   */\n      dup9\n        /* \"#utility.yul\":31251:31287   */\n      sstore\n        /* \"#utility.yul\":30686:31297   */\n      pop\n      pop\n      pop\n        /* \"#utility.yul\":30649:31536   */\n    tag_580:\n      pop\n        /* \"#utility.yul\":30239:31542   */\n      pop\n      pop\n      pop\n        /* \"#utility.yul\":30147:31542   */\n      pop\n      pop\n      jump\t// out\n        /* \"#utility.yul\":31548:31725   */\n    tag_309:\n        /* \"#utility.yul\":31688:31717   */\n      0x43616e64696461746520526567697374726174696f6e2046756c6c0000000000\n        /* \"#utility.yul\":31684:31685   */\n      0x00\n        /* \"#utility.yul\":31676:31682   */\n      dup3\n        /* \"#utility.yul\":31672:31686   */\n      add\n        /* \"#utility.yul\":31665:31718   */\n      mstore\n        /* \"#utility.yul\":31548:31725   */\n      pop\n      jump\t// out\n        /* \"#utility.yul\":31731:32097   */\n    tag_310:\n        /* \"#utility.yul\":31873:31876   */\n      0x00\n        /* \"#utility.yul\":31894:31961   */\n      tag_592\n        /* \"#utility.yul\":31958:31960   */\n      0x1b\n        /* \"#utility.yul\":31953:31956   */\n      dup4\n        /* \"#utility.yul\":31894:31961   */\n      tag_273\n      jump\t// in\n    tag_592:\n        /* \"#utility.yul\":31887:31961   */\n      swap2\n      pop\n        /* \"#utility.yul\":31970:32063   */\n      tag_593\n        /* \"#utility.yul\":32059:32062   */\n      dup3\n        /* \"#utility.yul\":31970:32063   */\n      tag_309\n      jump\t// in\n    tag_593:\n        /* \"#utility.yul\":32088:32090   */\n      0x20\n        /* \"#utility.yul\":32083:32086   */\n      dup3\n        /* \"#utility.yul\":32079:32091   */\n      add\n        /* \"#utility.yul\":32072:32091   */\n      swap1\n      pop\n        /* \"#utility.yul\":31731:32097   */\n      swap2\n      swap1\n      pop\n      jump\t// out\n        /* \"#utility.yul\":32103:32522   */\n    tag_130:\n        /* \"#utility.yul\":32269:32273   */\n      0x00\n        /* \"#utility.yul\":32307:32309   */\n      0x20\n        /* \"#utility.yul\":32296:32305   */\n      dup3\n        /* \"#utility.yul\":32292:32310   */\n      add\n        /* \"#utility.yul\":32284:32310   */\n      swap1\n      pop\n        /* \"#utility.yul\":32356:32365   */\n      dup2\n        /* \"#utility.yul\":32350:32354   */\n      dup2\n        /* \"#utility.yul\":32346:32366   */\n      sub\n        /* \"#utility.yul\":32342:32343   */\n      0x00\n        /* \"#utility.yul\":32331:32340   */\n      dup4\n        /* \"#utility.yul\":32327:32344   */\n      add\n        /* \"#utility.yul\":32320:32367   */\n      mstore\n        /* \"#utility.yul\":32384:32515   */\n      tag_595\n        /* \"#utility.yul\":32510:32514   */\n      dup2\n        /* \"#utility.yul\":32384:32515   */\n      tag_310\n      jump\t// in\n    tag_595:\n        /* \"#utility.yul\":32376:32515   */\n      swap1\n      pop\n        /* \"#utility.yul\":32103:32522   */\n      swap2\n      swap1\n      pop\n      jump\t// out\n        /* \"#utility.yul\":32528:32757   */\n    tag_311:\n        /* \"#utility.yul\":32668:32702   */\n      0x456c656374696f6e20436f6d6d6973696f6e206e6f7420616c6c6f7765642074\n        /* \"#utility.yul\":32664:32665   */\n      0x00\n        /* \"#utility.yul\":32656:32662   */\n      dup3\n        /* \"#utility.yul\":32652:32666   */\n      add\n        /* \"#utility.yul\":32645:32703   */\n      mstore\n        /* \"#utility.yul\":32737:32749   */\n      0x6f20726567697374657200000000000000000000000000000000000000000000\n        /* \"#utility.yul\":32732:32734   */\n      0x20\n        /* \"#utility.yul\":32724:32730   */\n      dup3\n        /* \"#utility.yul\":32720:32735   */\n      add\n        /* \"#utility.yul\":32713:32750   */\n      mstore\n        /* \"#utility.yul\":32528:32757   */\n      pop\n      jump\t// out\n        /* \"#utility.yul\":32763:33129   */\n    tag_312:\n        /* \"#utility.yul\":32905:32908   */\n      0x00\n        /* \"#utility.yul\":32926:32993   */\n      tag_598\n        /* \"#utility.yul\":32990:32992   */\n      0x2a\n        /* \"#utility.yul\":32985:32988   */\n      dup4\n        /* \"#utility.yul\":32926:32993   */\n      tag_273\n      jump\t// in\n    tag_598:\n        /* \"#utility.yul\":32919:32993   */\n      swap2\n      pop\n        /* \"#utility.yul\":33002:33095   */\n      tag_599\n        /* \"#utility.yul\":33091:33094   */\n      dup3\n        /* \"#utility.yul\":33002:33095   */\n      tag_311\n      jump\t// in\n    tag_599:\n        /* \"#utility.yul\":33120:33122   */\n      0x40\n        /* \"#utility.yul\":33115:33118   */\n      dup3\n        /* \"#utility.yul\":33111:33123   */\n      add\n        /* \"#utility.yul\":33104:33123   */\n      swap1\n      pop\n        /* \"#utility.yul\":32763:33129   */\n      swap2\n      swap1\n      pop\n      jump\t// out\n        /* \"#utility.yul\":33135:33554   */\n    tag_133:\n        /* \"#utility.yul\":33301:33305   */\n      0x00\n        /* \"#utility.yul\":33339:33341   */\n      0x20\n        /* \"#utility.yul\":33328:33337   */\n      dup3\n        /* \"#utility.yul\":33324:33342   */\n      add\n        /* \"#utility.yul\":33316:33342   */\n      swap1\n      pop\n        /* \"#utility.yul\":33388:33397   */\n      dup2\n        /* \"#utility.yul\":33382:33386   */\n      dup2\n        /* \"#utility.yul\":33378:33398   */\n      sub\n        /* \"#utility.yul\":33374:33375   */\n      0x00\n        /* \"#utility.yul\":33363:33372   */\n      dup4\n        /* \"#utility.yul\":33359:33376   */\n      add\n        /* \"#utility.yul\":33352:33399   */\n      mstore\n        /* \"#utility.yul\":33416:33547   */\n      tag_601\n        /* \"#utility.yul\":33542:33546   */\n      dup2\n        /* \"#utility.yul\":33416:33547   */\n      tag_312\n      jump\t// in\n    tag_601:\n        /* \"#utility.yul\":33408:33547   */\n      swap1\n      pop\n        /* \"#utility.yul\":33135:33554   */\n      swap2\n      swap1\n      pop\n      jump\t// out\n        /* \"#utility.yul\":33560:33791   */\n    tag_313:\n        /* \"#utility.yul\":33700:33734   */\n      0x5f656e6454696d654475726174696f6e206d7573742062652067726561746572\n        /* \"#utility.yul\":33696:33697   */\n      0x00\n        /* \"#utility.yul\":33688:33694   */\n      dup3\n        /* \"#utility.yul\":33684:33698   */\n      add\n        /* \"#utility.yul\":33677:33735   */\n      mstore\n        /* \"#utility.yul\":33769:33783   */\n      0x207468616e203120686f75720000000000000000000000000000000000000000\n        /* \"#utility.yul\":33764:33766   */\n      0x20\n        /* \"#utility.yul\":33756:33762   */\n      dup3\n        /* \"#utility.yul\":33752:33767   */\n      add\n        /* \"#utility.yul\":33745:33784   */\n      mstore\n        /* \"#utility.yul\":33560:33791   */\n      pop\n      jump\t// out\n        /* \"#utility.yul\":33797:34163   */\n    tag_314:\n        /* \"#utility.yul\":33939:33942   */\n      0x00\n        /* \"#utility.yul\":33960:34027   */\n      tag_604\n        /* \"#utility.yul\":34024:34026   */\n      0x2c\n        /* \"#utility.yul\":34019:34022   */\n      dup4\n        /* \"#utility.yul\":33960:34027   */\n      tag_273\n      jump\t// in\n    tag_604:\n        /* \"#utility.yul\":33953:34027   */\n      swap2\n      pop\n        /* \"#utility.yul\":34036:34129   */\n      tag_605\n        /* \"#utility.yul\":34125:34128   */\n      dup3\n        /* \"#utility.yul\":34036:34129   */\n      tag_313\n      jump\t// in\n    tag_605:\n        /* \"#utility.yul\":34154:34156   */\n      0x40\n        /* \"#utility.yul\":34149:34152   */\n      dup3\n        /* \"#utility.yul\":34145:34157   */\n      add\n        /* \"#utility.yul\":34138:34157   */\n      swap1\n      pop\n        /* \"#utility.yul\":33797:34163   */\n      swap2\n      swap1\n      pop\n      jump\t// out\n        /* \"#utility.yul\":34169:34588   */\n    tag_151:\n        /* \"#utility.yul\":34335:34339   */\n      0x00\n        /* \"#utility.yul\":34373:34375   */\n      0x20\n        /* \"#utility.yul\":34362:34371   */\n      dup3\n        /* \"#utility.yul\":34358:34376   */\n      add\n        /* \"#utility.yul\":34350:34376   */\n      swap1\n      pop\n        /* \"#utility.yul\":34422:34431   */\n      dup2\n        /* \"#utility.yul\":34416:34420   */\n      dup2\n        /* \"#utility.yul\":34412:34432   */\n      sub\n        /* \"#utility.yul\":34408:34409   */\n      0x00\n        /* \"#utility.yul\":34397:34406   */\n      dup4\n        /* \"#utility.yul\":34393:34410   */\n      add\n        /* \"#utility.yul\":34386:34433   */\n      mstore\n        /* \"#utility.yul\":34450:34581   */\n      tag_607\n        /* \"#utility.yul\":34576:34580   */\n      dup2\n        /* \"#utility.yul\":34450:34581   */\n      tag_314\n      jump\t// in\n    tag_607:\n        /* \"#utility.yul\":34442:34581   */\n      swap1\n      pop\n        /* \"#utility.yul\":34169:34588   */\n      swap2\n      swap1\n      pop\n      jump\t// out\n        /* \"#utility.yul\":34594:34785   */\n    tag_153:\n        /* \"#utility.yul\":34634:34637   */\n      0x00\n        /* \"#utility.yul\":34653:34673   */\n      tag_609\n        /* \"#utility.yul\":34671:34672   */\n      dup3\n        /* \"#utility.yul\":34653:34673   */\n      tag_227\n      jump\t// in\n    tag_609:\n        /* \"#utility.yul\":34648:34673   */\n      swap2\n      pop\n        /* \"#utility.yul\":34687:34707   */\n      tag_610\n        /* \"#utility.yul\":34705:34706   */\n      dup4\n        /* \"#utility.yul\":34687:34707   */\n      tag_227\n      jump\t// in\n    tag_610:\n        /* \"#utility.yul\":34682:34707   */\n      swap3\n      pop\n        /* \"#utility.yul\":34730:34731   */\n      dup3\n        /* \"#utility.yul\":34727:34728   */\n      dup3\n        /* \"#utility.yul\":34723:34732   */\n      add\n        /* \"#utility.yul\":34716:34732   */\n      swap1\n      pop\n        /* \"#utility.yul\":34751:34754   */\n      dup1\n        /* \"#utility.yul\":34748:34749   */\n      dup3\n        /* \"#utility.yul\":34745:34755   */\n      gt\n        /* \"#utility.yul\":34742:34778   */\n      iszero\n      tag_611\n      jumpi\n        /* \"#utility.yul\":34758:34776   */\n      tag_612\n      tag_287\n      jump\t// in\n    tag_612:\n        /* \"#utility.yul\":34742:34778   */\n    tag_611:\n        /* \"#utility.yul\":34594:34785   */\n      swap3\n      swap2\n      pop\n      pop\n      jump\t// out\n        /* \"#utility.yul\":34791:34985   */\n    tag_157:\n        /* \"#utility.yul\":34831:34835   */\n      0x00\n        /* \"#utility.yul\":34851:34871   */\n      tag_614\n        /* \"#utility.yul\":34869:34870   */\n      dup3\n        /* \"#utility.yul\":34851:34871   */\n      tag_227\n      jump\t// in\n    tag_614:\n        /* \"#utility.yul\":34846:34871   */\n      swap2\n      pop\n        /* \"#utility.yul\":34885:34905   */\n      tag_615\n        /* \"#utility.yul\":34903:34904   */\n      dup4\n        /* \"#utility.yul\":34885:34905   */\n      tag_227\n      jump\t// in\n    tag_615:\n        /* \"#utility.yul\":34880:34905   */\n      swap3\n      pop\n        /* \"#utility.yul\":34929:34930   */\n      dup3\n        /* \"#utility.yul\":34926:34927   */\n      dup3\n        /* \"#utility.yul\":34922:34931   */\n      sub\n        /* \"#utility.yul\":34914:34931   */\n      swap1\n      pop\n        /* \"#utility.yul\":34953:34954   */\n      dup2\n        /* \"#utility.yul\":34947:34951   */\n      dup2\n        /* \"#utility.yul\":34944:34955   */\n      gt\n        /* \"#utility.yul\":34941:34978   */\n      iszero\n      tag_616\n      jumpi\n        /* \"#utility.yul\":34958:34976   */\n      tag_617\n      tag_287\n      jump\t// in\n    tag_617:\n        /* \"#utility.yul\":34941:34978   */\n    tag_616:\n        /* \"#utility.yul\":34791:34985   */\n      swap3\n      swap2\n      pop\n      pop\n      jump\t// out\n        /* \"#utility.yul\":34991:35171   */\n    tag_181:\n        /* \"#utility.yul\":35039:35116   */\n      0x4e487b7100000000000000000000000000000000000000000000000000000000\n        /* \"#utility.yul\":35036:35037   */\n      0x00\n        /* \"#utility.yul\":35029:35117   */\n      mstore\n        /* \"#utility.yul\":35136:35140   */\n      0x32\n        /* \"#utility.yul\":35133:35134   */\n      0x04\n        /* \"#utility.yul\":35126:35141   */\n      mstore\n        /* \"#utility.yul\":35160:35164   */\n      0x24\n        /* \"#utility.yul\":35157:35158   */\n      0x00\n        /* \"#utility.yul\":35150:35165   */\n      revert\n\n    auxdata: 0xa26469706673582212200658dd9ccb56784e2ca48e1654afe2276c8f5970aaba6dce66ac896d407fc93764736f6c634300081a0033\n}\n",
				"bytecode": {
					"linkReferences": {},
					"object": "608060405260016002556001600355348015610019575f80fd5b5060405161268b38038061268b833981810160405281019061003b919061011e565b8060095f6101000a81548173ffffffffffffffffffffffffffffffffffffffff021916908373ffffffffffffffffffffffffffffffffffffffff160217905550335f806101000a81548173ffffffffffffffffffffffffffffffffffffffff021916908373ffffffffffffffffffffffffffffffffffffffff16021790555050610149565b5f80fd5b5f73ffffffffffffffffffffffffffffffffffffffff82169050919050565b5f6100ed826100c4565b9050919050565b6100fd816100e3565b8114610107575f80fd5b50565b5f81519050610118816100f4565b92915050565b5f60208284031215610133576101326100c0565b5b5f6101408482850161010a565b91505092915050565b612535806101565f395ff3fe608060405234801561000f575f80fd5b50600436106100b2575f3560e01c80639fa4e4401161006f5780639fa4e44014610150578063a15a36c71461015a578063aab46b7f14610176578063b28d92ae14610194578063dfbf53ae146101b2578063fdbc4006146101d0576100b2565b80632c0a3f89146100b6578063581c281c146100d25780636ce2ccc0146100f057806381ba732f146100fa578063982c777d146101165780639939b8b214610132575b5f80fd5b6100d060048036038101906100cb91906114b2565b6101ee565b005b6100da6104fc565b6040516100e79190611563565b60405180910390f35b6100f8610546565b005b610114600480360381019061010f9190611600565b61069c565b005b610130600480360381019061012b9190611671565b61089e565b005b61013a610bd2565b604051610147919061178e565b60405180910390f35b610158610bf7565b005b610174600480360381019061016f91906114b2565b610ca0565b005b61017e610d9f565b60405161018b91906117c7565b60405180910390f35b61019c610dc2565b6040516101a991906119f5565b60405180910390f35b6101ba610fd0565b6040516101c791906117c7565b60405180910390f35b6101d8610ff5565b6040516101e59190611b70565b60405180910390f35b600554421115801561021157505f151560065f9054906101000a900460ff161515145b610250576040517f08c379a000000000000000000000000000000000000000000000000000000000815260040161024790611bea565b60405180910390fd5b5f60095f9054906101000a900473ffffffffffffffffffffffffffffffffffffffff1673ffffffffffffffffffffffffffffffffffffffff166370a08231336040518263ffffffff1660e01b81526004016102ab91906117c7565b602060405180830381865afa1580156102c6573d5f803e3d5ffd5b505050506040513d601f19601f820116820180604052508101906102ea9190611c1c565b1161032a576040517f08c379a000000000000000000000000000000000000000000000000000000000815260040161032190611c91565b60405180910390fd5b60045442101561036f576040517f08c379a000000000000000000000000000000000000000000000000000000000815260040161036690611cf9565b60405180910390fd5b5f60075f8481526020019081526020015f2060040154146103c5576040517f08c379a00000000000000000000000000000000000000000000000000000000081526004016103bc90611d61565b60405180910390fd5b3373ffffffffffffffffffffffffffffffffffffffff1660075f8481526020019081526020015f206005015f9054906101000a900473ffffffffffffffffffffffffffffffffffffffff1673ffffffffffffffffffffffffffffffffffffffff1614610466576040517f08c379a000000000000000000000000000000000000000000000000000000000815260040161045d90611dc9565b60405180910390fd5b600181101580156104775750600381105b6104b6576040517f08c379a00000000000000000000000000000000000000000000000000000000081526004016104ad90611e31565b60405180910390fd5b8060075f8481526020019081526020015f206004018190555060085f8281526020019081526020015f206006015f8154809291906104f390611e7c565b91905055505050565b5f806004540361050e575f9050610543565b4260055411801561053057505f151560065f9054906101000a900460ff161515145b1561053e5760019050610543565b600290505b90565b5f8054906101000a900473ffffffffffffffffffffffffffffffffffffffff1673ffffffffffffffffffffffffffffffffffffffff163373ffffffffffffffffffffffffffffffffffffffff16146105d3576040517f08c379a00000000000000000000000000000000000000000000000000000000081526004016105ca90611f0d565b60405180910390fd5b5f80600190505b600354811015610698578160085f8381526020019081526020015f2060060154111561068b5760085f8281526020019081526020015f2060060154915060085f8281526020019081526020015f206005015f9054906101000a900473ffffffffffffffffffffffffffffffffffffffff1660015f6101000a81548173ffffffffffffffffffffffffffffffffffffffff021916908373ffffffffffffffffffffffffffffffffffffffff1602179055505b80806001019150506105da565b5050565b8160128110156106e1576040517f08c379a00000000000000000000000000000000000000000000000000000000081526004016106d890611f75565b60405180910390fd5b6106ea3361128e565b610729576040517f08c379a000000000000000000000000000000000000000000000000000000000815260040161072090611fdd565b60405180910390fd5b6040518060c0016040528086868080601f0160208091040260200160405190810160405280939291908181526020018383808284375f81840152601f19601f820116905080830192505050505050508152602001848152602001600254815260200183600381111561079e5761079d6114f0565b5b81526020015f81526020013373ffffffffffffffffffffffffffffffffffffffff1681525060075f60025481526020019081526020015f205f820151815f0190816107e99190612219565b5060208201518160010155604082015181600201556060820151816003015f6101000a81548160ff02191690836003811115610828576108276114f0565b5b02179055506080820151816004015560a0820151816005015f6101000a81548173ffffffffffffffffffffffffffffffffffffffff021916908373ffffffffffffffffffffffffffffffffffffffff16021790555090505060025f81548092919061089290611e7c565b91905055505050505050565b8160128110156108e3576040517f08c379a00000000000000000000000000000000000000000000000000000000081526004016108da90611f75565b60405180910390fd5b6108ec33611326565b61092b576040517f08c379a000000000000000000000000000000000000000000000000000000000815260040161092290611fdd565b60405180910390fd5b600380541061096f576040517f08c379a000000000000000000000000000000000000000000000000000000000815260040161096690612332565b60405180910390fd5b5f8054906101000a900473ffffffffffffffffffffffffffffffffffffffff1673ffffffffffffffffffffffffffffffffffffffff163373ffffffffffffffffffffffffffffffffffffffff16036109fc576040517f08c379a00000000000000000000000000000000000000000000000000000000081526004016109f3906123c0565b60405180910390fd5b6040518060e0016040528088888080601f0160208091040260200160405190810160405280939291908181526020018383808284375f81840152601f19601f82011690508083019250505050505050815260200186868080601f0160208091040260200160405190810160405280939291908181526020018383808284375f81840152601f19601f820116905080830192505050505050508152602001848152602001836003811115610ab257610ab16114f0565b5b815260200160035481526020013373ffffffffffffffffffffffffffffffffffffffff1681526020015f81525060085f60035481526020019081526020015f205f820151815f019081610b059190612219565b506020820151816001019081610b1b9190612219565b50604082015181600201556060820151816003015f6101000a81548160ff02191690836003811115610b5057610b4f6114f0565b5b02179055506080820151816004015560a0820151816005015f6101000a81548173ffffffffffffffffffffffffffffffffffffffff021916908373ffffffffffffffffffffffffffffffffffffffff16021790555060c0820151816006015590505060035f815480929190610bc490611e7c565b919050555050505050505050565b60095f9054906101000a900473ffffffffffffffffffffffffffffffffffffffff1681565b5f8054906101000a900473ffffffffffffffffffffffffffffffffffffffff1673ffffffffffffffffffffffffffffffffffffffff163373ffffffffffffffffffffffffffffffffffffffff1614610c84576040517f08c379a0000000000000000000000000000000000000000000000000000000008152600401610c7b90611f0d565b60405180910390fd5b600160065f6101000a81548160ff021916908315150217905550565b5f8054906101000a900473ffffffffffffffffffffffffffffffffffffffff1673ffffffffffffffffffffffffffffffffffffffff163373ffffffffffffffffffffffffffffffffffffffff1614610d2d576040517f08c379a0000000000000000000000000000000000000000000000000000000008152600401610d2490611f0d565b60405180910390fd5b610e108111610d71576040517f08c379a0000000000000000000000000000000000000000000000000000000008152600401610d689061244e565b60405180910390fd5b81636691513e610d81919061246c565b60048190555080600454610d95919061246c565b6005819055505050565b5f8054906101000a900473ffffffffffffffffffffffffffffffffffffffff1681565b60605f6001600254610dd4919061249f565b90505f8167ffffffffffffffff811115610df157610df0611ffb565b5b604051908082528060200260200182016040528015610e2a57816020015b610e176113be565b815260200190600190039081610e0f5790505b5090505f5b8151811015610fc75760075f600183610e48919061246c565b81526020019081526020015f206040518060c00160405290815f82018054610e6f90612055565b80601f0160208091040260200160405190810160405280929190818152602001828054610e9b90612055565b8015610ee65780601f10610ebd57610100808354040283529160200191610ee6565b820191905f5260205f20905b815481529060010190602001808311610ec957829003601f168201915b505050505081526020016001820154815260200160028201548152602001600382015f9054906101000a900460ff166003811115610f2757610f266114f0565b5b6003811115610f3957610f386114f0565b5b815260200160048201548152602001600582015f9054906101000a900473ffffffffffffffffffffffffffffffffffffffff1673ffffffffffffffffffffffffffffffffffffffff1673ffffffffffffffffffffffffffffffffffffffff1681525050828281518110610faf57610fae6124d2565b5b60200260200101819052508080600101915050610e2f565b50809250505090565b60015f9054906101000a900473ffffffffffffffffffffffffffffffffffffffff1681565b60605f6001600354611007919061249f565b67ffffffffffffffff8111156110205761101f611ffb565b5b60405190808252806020026020018201604052801561105957816020015b611046611417565b81526020019060019003908161103e5790505b5090505f5b81518110156112865760085f600183611077919061246c565b81526020019081526020015f206040518060e00160405290815f8201805461109e90612055565b80601f01602080910402602001604051908101604052809291908181526020018280546110ca90612055565b80156111155780601f106110ec57610100808354040283529160200191611115565b820191905f5260205f20905b8154815290600101906020018083116110f857829003601f168201915b5050505050815260200160018201805461112e90612055565b80601f016020809104026020016040519081016040528092919081815260200182805461115a90612055565b80156111a55780601f1061117c576101008083540402835291602001916111a5565b820191905f5260205f20905b81548152906001019060200180831161118857829003601f168201915b5050505050815260200160028201548152602001600382015f9054906101000a900460ff1660038111156111dc576111db6114f0565b5b60038111156111ee576111ed6114f0565b5b815260200160048201548152602001600582015f9054906101000a900473ffffffffffffffffffffffffffffffffffffffff1673ffffffffffffffffffffffffffffffffffffffff1673ffffffffffffffffffffffffffffffffffffffff16815260200160068201548152505082828151811061126e5761126d6124d2565b5b6020026020010181905250808060010191505061105e565b508091505090565b5f80600190505b60025481101561131b578273ffffffffffffffffffffffffffffffffffffffff1660075f8381526020019081526020015f206005015f9054906101000a900473ffffffffffffffffffffffffffffffffffffffff1673ffffffffffffffffffffffffffffffffffffffff160361130e575f915050611321565b8080600101915050611295565b50600190505b919050565b5f80600190505b6003548110156113b3578273ffffffffffffffffffffffffffffffffffffffff1660085f8381526020019081526020015f206005015f9054906101000a900473ffffffffffffffffffffffffffffffffffffffff1673ffffffffffffffffffffffffffffffffffffffff16036113a6575f9150506113b9565b808060010191505061132d565b50600190505b919050565b6040518060c00160405280606081526020015f81526020015f81526020015f60038111156113ef576113ee6114f0565b5b81526020015f81526020015f73ffffffffffffffffffffffffffffffffffffffff1681525090565b6040518060e0016040528060608152602001606081526020015f81526020015f6003811115611449576114486114f0565b5b81526020015f81526020015f73ffffffffffffffffffffffffffffffffffffffff1681526020015f81525090565b5f80fd5b5f80fd5b5f819050919050565b6114918161147f565b811461149b575f80fd5b50565b5f813590506114ac81611488565b92915050565b5f80604083850312156114c8576114c7611477565b5b5f6114d58582860161149e565b92505060206114e68582860161149e565b9150509250929050565b7f4e487b71000000000000000000000000000000000000000000000000000000005f52602160045260245ffd5b6003811061152e5761152d6114f0565b5b50565b5f81905061153e8261151d565b919050565b5f61154d82611531565b9050919050565b61155d81611543565b82525050565b5f6020820190506115765f830184611554565b92915050565b5f80fd5b5f80fd5b5f80fd5b5f8083601f84011261159d5761159c61157c565b5b8235905067ffffffffffffffff8111156115ba576115b9611580565b5b6020830191508360018202830111156115d6576115d5611584565b5b9250929050565b600481106115e9575f80fd5b50565b5f813590506115fa816115dd565b92915050565b5f805f806060858703121561161857611617611477565b5b5f85013567ffffffffffffffff8111156116355761163461147b565b5b61164187828801611588565b945094505060206116548782880161149e565b9250506040611665878288016115ec565b91505092959194509250565b5f805f805f806080878903121561168b5761168a611477565b5b5f87013567ffffffffffffffff8111156116a8576116a761147b565b5b6116b489828a01611588565b9650965050602087013567ffffffffffffffff8111156116d7576116d661147b565b5b6116e389828a01611588565b945094505060406116f689828a0161149e565b925050606061170789828a016115ec565b9150509295509295509295565b5f73ffffffffffffffffffffffffffffffffffffffff82169050919050565b5f819050919050565b5f61175661175161174c84611714565b611733565b611714565b9050919050565b5f6117678261173c565b9050919050565b5f6117788261175d565b9050919050565b6117888161176e565b82525050565b5f6020820190506117a15f83018461177f565b92915050565b5f6117b182611714565b9050919050565b6117c1816117a7565b82525050565b5f6020820190506117da5f8301846117b8565b92915050565b5f81519050919050565b5f82825260208201905092915050565b5f819050602082019050919050565b5f81519050919050565b5f82825260208201905092915050565b8281835e5f83830152505050565b5f601f19601f8301169050919050565b5f61184b82611809565b6118558185611813565b9350611865818560208601611823565b61186e81611831565b840191505092915050565b6118828161147f565b82525050565b60048110611899576118986114f0565b5b50565b5f8190506118a982611888565b919050565b5f6118b88261189c565b9050919050565b6118c8816118ae565b82525050565b6118d7816117a7565b82525050565b5f60c083015f8301518482035f8601526118f78282611841565b915050602083015161190c6020860182611879565b50604083015161191f6040860182611879565b50606083015161193260608601826118bf565b5060808301516119456080860182611879565b5060a083015161195860a08601826118ce565b508091505092915050565b5f61196e83836118dd565b905092915050565b5f602082019050919050565b5f61198c826117e0565b61199681856117ea565b9350836020820285016119a8856117fa565b805f5b858110156119e357848403895281516119c48582611963565b94506119cf83611976565b925060208a019950506001810190506119ab565b50829750879550505050505092915050565b5f6020820190508181035f830152611a0d8184611982565b905092915050565b5f81519050919050565b5f82825260208201905092915050565b5f819050602082019050919050565b5f60e083015f8301518482035f860152611a588282611841565b91505060208301518482036020860152611a728282611841565b9150506040830151611a876040860182611879565b506060830151611a9a60608601826118bf565b506080830151611aad6080860182611879565b5060a0830151611ac060a08601826118ce565b5060c0830151611ad360c0860182611879565b508091505092915050565b5f611ae98383611a3e565b905092915050565b5f602082019050919050565b5f611b0782611a15565b611b118185611a1f565b935083602082028501611b2385611a2f565b805f5b85811015611b5e5784840389528151611b3f8582611ade565b9450611b4a83611af1565b925060208a01995050600181019050611b26565b50829750879550505050505092915050565b5f6020820190508181035f830152611b888184611afd565b905092915050565b5f82825260208201905092915050565b7f566f74696e672074696d65206973206f766572000000000000000000000000005f82015250565b5f611bd4601383611b90565b9150611bdf82611ba0565b602082019050919050565b5f6020820190508181035f830152611c0181611bc8565b9050919050565b5f81519050611c1681611488565b92915050565b5f60208284031215611c3157611c30611477565b5b5f611c3e84828501611c08565b91505092915050565b7f6e6f7420616c6c6f7765640000000000000000000000000000000000000000005f82015250565b5f611c7b600b83611b90565b9150611c8682611c47565b602082019050919050565b5f6020820190508181035f830152611ca881611c6f565b9050919050565b7f566f74696e6720686173206e6f742073746172746564207965740000000000005f82015250565b5f611ce3601a83611b90565b9150611cee82611caf565b602082019050919050565b5f6020820190508181035f830152611d1081611cd7565b9050919050565b7f596f75206861766520616c726561647920766f746564000000000000000000005f82015250565b5f611d4b601683611b90565b9150611d5682611d17565b602082019050919050565b5f6020820190508181035f830152611d7881611d3f565b9050919050565b7f596f7520617265206e6f7420617574686f7572697a65640000000000000000005f82015250565b5f611db3601783611b90565b9150611dbe82611d7f565b602082019050919050565b5f6020820190508181035f830152611de081611da7565b9050919050565b7f43616e646964617465204964206973206e6f7420636f727265637400000000005f82015250565b5f611e1b601b83611b90565b9150611e2682611de7565b602082019050919050565b5f6020820190508181035f830152611e4881611e0f565b9050919050565b7f4e487b71000000000000000000000000000000000000000000000000000000005f52601160045260245ffd5b5f611e868261147f565b91507fffffffffffffffffffffffffffffffffffffffffffffffffffffffffffffffff8203611eb857611eb7611e4f565b5b600182019050919050565b7f4e6f742061757468756f72697a656400000000000000000000000000000000005f82015250565b5f611ef7600f83611b90565b9150611f0282611ec3565b602082019050919050565b5f6020820190508181035f830152611f2481611eeb565b9050919050565b7f6e6f7420656c696769626c6520666f7220766f74696e670000000000000000005f82015250565b5f611f5f601783611b90565b9150611f6a82611f2b565b602082019050919050565b5f6020820190508181035f830152611f8c81611f53565b9050919050565b7f596f752061726520616c726561647920726567697374657265640000000000005f82015250565b5f611fc7601a83611b90565b9150611fd282611f93565b602082019050919050565b5f6020820190508181035f830152611ff481611fbb565b9050919050565b7f4e487b71000000000000000000000000000000000000000000000000000000005f52604160045260245ffd5b7f4e487b71000000000000000000000000000000000000000000000000000000005f52602260045260245ffd5b5f600282049050600182168061206c57607f821691505b60208210810361207f5761207e612028565b5b50919050565b5f819050815f5260205f209050919050565b5f6020601f8301049050919050565b5f82821b905092915050565b5f600883026120e17fffffffffffffffffffffffffffffffffffffffffffffffffffffffffffffffff826120a6565b6120eb86836120a6565b95508019841693508086168417925050509392505050565b5f61211d6121186121138461147f565b611733565b61147f565b9050919050565b5f819050919050565b61213683612103565b61214a61214282612124565b8484546120b2565b825550505050565b5f90565b61215e612152565b61216981848461212d565b505050565b5b8181101561218c576121815f82612156565b60018101905061216f565b5050565b601f8211156121d1576121a281612085565b6121ab84612097565b810160208510156121ba578190505b6121ce6121c685612097565b83018261216e565b50505b505050565b5f82821c905092915050565b5f6121f15f19846008026121d6565b1980831691505092915050565b5f61220983836121e2565b9150826002028217905092915050565b61222282611809565b67ffffffffffffffff81111561223b5761223a611ffb565b5b6122458254612055565b612250828285612190565b5f60209050601f831160018114612281575f841561226f578287015190505b61227985826121fe565b8655506122e0565b601f19841661228f86612085565b5f5b828110156122b657848901518255600182019150602085019450602081019050612291565b868310156122d357848901516122cf601f8916826121e2565b8355505b6001600288020188555050505b505050505050565b7f43616e64696461746520526567697374726174696f6e2046756c6c00000000005f82015250565b5f61231c601b83611b90565b9150612327826122e8565b602082019050919050565b5f6020820190508181035f83015261234981612310565b9050919050565b7f456c656374696f6e20436f6d6d6973696f6e206e6f7420616c6c6f77656420745f8201527f6f20726567697374657200000000000000000000000000000000000000000000602082015250565b5f6123aa602a83611b90565b91506123b582612350565b604082019050919050565b5f6020820190508181035f8301526123d78161239e565b9050919050565b7f5f656e6454696d654475726174696f6e206d75737420626520677265617465725f8201527f207468616e203120686f75720000000000000000000000000000000000000000602082015250565b5f612438602c83611b90565b9150612443826123de565b604082019050919050565b5f6020820190508181035f8301526124658161242c565b9050919050565b5f6124768261147f565b91506124818361147f565b925082820190508082111561249957612498611e4f565b5b92915050565b5f6124a98261147f565b91506124b48361147f565b92508282039050818111156124cc576124cb611e4f565b5b92915050565b7f4e487b71000000000000000000000000000000000000000000000000000000005f52603260045260245ffdfea26469706673582212200658dd9ccb56784e2ca48e1654afe2276c8f5970aaba6dce66ac896d407fc93764736f6c634300081a0033",
					"opcodes": "PUSH1 0x80 PUSH1 0x40 MSTORE PUSH1 0x1 PUSH1 0x2 SSTORE PUSH1 0x1 PUSH1 0x3 SSTORE CALLVALUE DUP1 ISZERO PUSH2 0x19 JUMPI PUSH0 DUP1 REVERT JUMPDEST POP PUSH1 0x40 MLOAD PUSH2 0x268B CODESIZE SUB DUP1 PUSH2 0x268B DUP4 CODECOPY DUP2 DUP2 ADD PUSH1 0x40 MSTORE DUP2 ADD SWAP1 PUSH2 0x3B SWAP2 SWAP1 PUSH2 0x11E JUMP JUMPDEST DUP1 PUSH1 0x9 PUSH0 PUSH2 0x100 EXP DUP2 SLOAD DUP2 PUSH20 0xFFFFFFFFFFFFFFFFFFFFFFFFFFFFFFFFFFFFFFFF MUL NOT AND SWAP1 DUP4 PUSH20 0xFFFFFFFFFFFFFFFFFFFFFFFFFFFFFFFFFFFFFFFF AND MUL OR SWAP1 SSTORE POP CALLER PUSH0 DUP1 PUSH2 0x100 EXP DUP2 SLOAD DUP2 PUSH20 0xFFFFFFFFFFFFFFFFFFFFFFFFFFFFFFFFFFFFFFFF MUL NOT AND SWAP1 DUP4 PUSH20 0xFFFFFFFFFFFFFFFFFFFFFFFFFFFFFFFFFFFFFFFF AND MUL OR SWAP1 SSTORE POP POP PUSH2 0x149 JUMP JUMPDEST PUSH0 DUP1 REVERT JUMPDEST PUSH0 PUSH20 0xFFFFFFFFFFFFFFFFFFFFFFFFFFFFFFFFFFFFFFFF DUP3 AND SWAP1 POP SWAP2 SWAP1 POP JUMP JUMPDEST PUSH0 PUSH2 0xED DUP3 PUSH2 0xC4 JUMP JUMPDEST SWAP1 POP SWAP2 SWAP1 POP JUMP JUMPDEST PUSH2 0xFD DUP2 PUSH2 0xE3 JUMP JUMPDEST DUP2 EQ PUSH2 0x107 JUMPI PUSH0 DUP1 REVERT JUMPDEST POP JUMP JUMPDEST PUSH0 DUP2 MLOAD SWAP1 POP PUSH2 0x118 DUP2 PUSH2 0xF4 JUMP JUMPDEST SWAP3 SWAP2 POP POP JUMP JUMPDEST PUSH0 PUSH1 0x20 DUP3 DUP5 SUB SLT ISZERO PUSH2 0x133 JUMPI PUSH2 0x132 PUSH2 0xC0 JUMP JUMPDEST JUMPDEST PUSH0 PUSH2 0x140 DUP5 DUP3 DUP6 ADD PUSH2 0x10A JUMP JUMPDEST SWAP2 POP POP SWAP3 SWAP2 POP POP JUMP JUMPDEST PUSH2 0x2535 DUP1 PUSH2 0x156 PUSH0 CODECOPY PUSH0 RETURN INVALID PUSH1 0x80 PUSH1 0x40 MSTORE CALLVALUE DUP1 ISZERO PUSH2 0xF JUMPI PUSH0 DUP1 REVERT JUMPDEST POP PUSH1 0x4 CALLDATASIZE LT PUSH2 0xB2 JUMPI PUSH0 CALLDATALOAD PUSH1 0xE0 SHR DUP1 PUSH4 0x9FA4E440 GT PUSH2 0x6F JUMPI DUP1 PUSH4 0x9FA4E440 EQ PUSH2 0x150 JUMPI DUP1 PUSH4 0xA15A36C7 EQ PUSH2 0x15A JUMPI DUP1 PUSH4 0xAAB46B7F EQ PUSH2 0x176 JUMPI DUP1 PUSH4 0xB28D92AE EQ PUSH2 0x194 JUMPI DUP1 PUSH4 0xDFBF53AE EQ PUSH2 0x1B2 JUMPI DUP1 PUSH4 0xFDBC4006 EQ PUSH2 0x1D0 JUMPI PUSH2 0xB2 JUMP JUMPDEST DUP1 PUSH4 0x2C0A3F89 EQ PUSH2 0xB6 JUMPI DUP1 PUSH4 0x581C281C EQ PUSH2 0xD2 JUMPI DUP1 PUSH4 0x6CE2CCC0 EQ PUSH2 0xF0 JUMPI DUP1 PUSH4 0x81BA732F EQ PUSH2 0xFA JUMPI DUP1 PUSH4 0x982C777D EQ PUSH2 0x116 JUMPI DUP1 PUSH4 0x9939B8B2 EQ PUSH2 0x132 JUMPI JUMPDEST PUSH0 DUP1 REVERT JUMPDEST PUSH2 0xD0 PUSH1 0x4 DUP1 CALLDATASIZE SUB DUP2 ADD SWAP1 PUSH2 0xCB SWAP2 SWAP1 PUSH2 0x14B2 JUMP JUMPDEST PUSH2 0x1EE JUMP JUMPDEST STOP JUMPDEST PUSH2 0xDA PUSH2 0x4FC JUMP JUMPDEST PUSH1 0x40 MLOAD PUSH2 0xE7 SWAP2 SWAP1 PUSH2 0x1563 JUMP JUMPDEST PUSH1 0x40 MLOAD DUP1 SWAP2 SUB SWAP1 RETURN JUMPDEST PUSH2 0xF8 PUSH2 0x546 JUMP JUMPDEST STOP JUMPDEST PUSH2 0x114 PUSH1 0x4 DUP1 CALLDATASIZE SUB DUP2 ADD SWAP1 PUSH2 0x10F SWAP2 SWAP1 PUSH2 0x1600 JUMP JUMPDEST PUSH2 0x69C JUMP JUMPDEST STOP JUMPDEST PUSH2 0x130 PUSH1 0x4 DUP1 CALLDATASIZE SUB DUP2 ADD SWAP1 PUSH2 0x12B SWAP2 SWAP1 PUSH2 0x1671 JUMP JUMPDEST PUSH2 0x89E JUMP JUMPDEST STOP JUMPDEST PUSH2 0x13A PUSH2 0xBD2 JUMP JUMPDEST PUSH1 0x40 MLOAD PUSH2 0x147 SWAP2 SWAP1 PUSH2 0x178E JUMP JUMPDEST PUSH1 0x40 MLOAD DUP1 SWAP2 SUB SWAP1 RETURN JUMPDEST PUSH2 0x158 PUSH2 0xBF7 JUMP JUMPDEST STOP JUMPDEST PUSH2 0x174 PUSH1 0x4 DUP1 CALLDATASIZE SUB DUP2 ADD SWAP1 PUSH2 0x16F SWAP2 SWAP1 PUSH2 0x14B2 JUMP JUMPDEST PUSH2 0xCA0 JUMP JUMPDEST STOP JUMPDEST PUSH2 0x17E PUSH2 0xD9F JUMP JUMPDEST PUSH1 0x40 MLOAD PUSH2 0x18B SWAP2 SWAP1 PUSH2 0x17C7 JUMP JUMPDEST PUSH1 0x40 MLOAD DUP1 SWAP2 SUB SWAP1 RETURN JUMPDEST PUSH2 0x19C PUSH2 0xDC2 JUMP JUMPDEST PUSH1 0x40 MLOAD PUSH2 0x1A9 SWAP2 SWAP1 PUSH2 0x19F5 JUMP JUMPDEST PUSH1 0x40 MLOAD DUP1 SWAP2 SUB SWAP1 RETURN JUMPDEST PUSH2 0x1BA PUSH2 0xFD0 JUMP JUMPDEST PUSH1 0x40 MLOAD PUSH2 0x1C7 SWAP2 SWAP1 PUSH2 0x17C7 JUMP JUMPDEST PUSH1 0x40 MLOAD DUP1 SWAP2 SUB SWAP1 RETURN JUMPDEST PUSH2 0x1D8 PUSH2 0xFF5 JUMP JUMPDEST PUSH1 0x40 MLOAD PUSH2 0x1E5 SWAP2 SWAP1 PUSH2 0x1B70 JUMP JUMPDEST PUSH1 0x40 MLOAD DUP1 SWAP2 SUB SWAP1 RETURN JUMPDEST PUSH1 0x5 SLOAD TIMESTAMP GT ISZERO DUP1 ISZERO PUSH2 0x211 JUMPI POP PUSH0 ISZERO ISZERO PUSH1 0x6 PUSH0 SWAP1 SLOAD SWAP1 PUSH2 0x100 EXP SWAP1 DIV PUSH1 0xFF AND ISZERO ISZERO EQ JUMPDEST PUSH2 0x250 JUMPI PUSH1 0x40 MLOAD PUSH32 0x8C379A000000000000000000000000000000000000000000000000000000000 DUP2 MSTORE PUSH1 0x4 ADD PUSH2 0x247 SWAP1 PUSH2 0x1BEA JUMP JUMPDEST PUSH1 0x40 MLOAD DUP1 SWAP2 SUB SWAP1 REVERT JUMPDEST PUSH0 PUSH1 0x9 PUSH0 SWAP1 SLOAD SWAP1 PUSH2 0x100 EXP SWAP1 DIV PUSH20 0xFFFFFFFFFFFFFFFFFFFFFFFFFFFFFFFFFFFFFFFF AND PUSH20 0xFFFFFFFFFFFFFFFFFFFFFFFFFFFFFFFFFFFFFFFF AND PUSH4 0x70A08231 CALLER PUSH1 0x40 MLOAD DUP3 PUSH4 0xFFFFFFFF AND PUSH1 0xE0 SHL DUP2 MSTORE PUSH1 0x4 ADD PUSH2 0x2AB SWAP2 SWAP1 PUSH2 0x17C7 JUMP JUMPDEST PUSH1 0x20 PUSH1 0x40 MLOAD DUP1 DUP4 SUB DUP2 DUP7 GAS STATICCALL ISZERO DUP1 ISZERO PUSH2 0x2C6 JUMPI RETURNDATASIZE PUSH0 DUP1 RETURNDATACOPY RETURNDATASIZE PUSH0 REVERT JUMPDEST POP POP POP POP PUSH1 0x40 MLOAD RETURNDATASIZE PUSH1 0x1F NOT PUSH1 0x1F DUP3 ADD AND DUP3 ADD DUP1 PUSH1 0x40 MSTORE POP DUP2 ADD SWAP1 PUSH2 0x2EA SWAP2 SWAP1 PUSH2 0x1C1C JUMP JUMPDEST GT PUSH2 0x32A JUMPI PUSH1 0x40 MLOAD PUSH32 0x8C379A000000000000000000000000000000000000000000000000000000000 DUP2 MSTORE PUSH1 0x4 ADD PUSH2 0x321 SWAP1 PUSH2 0x1C91 JUMP JUMPDEST PUSH1 0x40 MLOAD DUP1 SWAP2 SUB SWAP1 REVERT JUMPDEST PUSH1 0x4 SLOAD TIMESTAMP LT ISZERO PUSH2 0x36F JUMPI PUSH1 0x40 MLOAD PUSH32 0x8C379A000000000000000000000000000000000000000000000000000000000 DUP2 MSTORE PUSH1 0x4 ADD PUSH2 0x366 SWAP1 PUSH2 0x1CF9 JUMP JUMPDEST PUSH1 0x40 MLOAD DUP1 SWAP2 SUB SWAP1 REVERT JUMPDEST PUSH0 PUSH1 0x7 PUSH0 DUP5 DUP2 MSTORE PUSH1 0x20 ADD SWAP1 DUP2 MSTORE PUSH1 0x20 ADD PUSH0 KECCAK256 PUSH1 0x4 ADD SLOAD EQ PUSH2 0x3C5 JUMPI PUSH1 0x40 MLOAD PUSH32 0x8C379A000000000000000000000000000000000000000000000000000000000 DUP2 MSTORE PUSH1 0x4 ADD PUSH2 0x3BC SWAP1 PUSH2 0x1D61 JUMP JUMPDEST PUSH1 0x40 MLOAD DUP1 SWAP2 SUB SWAP1 REVERT JUMPDEST CALLER PUSH20 0xFFFFFFFFFFFFFFFFFFFFFFFFFFFFFFFFFFFFFFFF AND PUSH1 0x7 PUSH0 DUP5 DUP2 MSTORE PUSH1 0x20 ADD SWAP1 DUP2 MSTORE PUSH1 0x20 ADD PUSH0 KECCAK256 PUSH1 0x5 ADD PUSH0 SWAP1 SLOAD SWAP1 PUSH2 0x100 EXP SWAP1 DIV PUSH20 0xFFFFFFFFFFFFFFFFFFFFFFFFFFFFFFFFFFFFFFFF AND PUSH20 0xFFFFFFFFFFFFFFFFFFFFFFFFFFFFFFFFFFFFFFFF AND EQ PUSH2 0x466 JUMPI PUSH1 0x40 MLOAD PUSH32 0x8C379A000000000000000000000000000000000000000000000000000000000 DUP2 MSTORE PUSH1 0x4 ADD PUSH2 0x45D SWAP1 PUSH2 0x1DC9 JUMP JUMPDEST PUSH1 0x40 MLOAD DUP1 SWAP2 SUB SWAP1 REVERT JUMPDEST PUSH1 0x1 DUP2 LT ISZERO DUP1 ISZERO PUSH2 0x477 JUMPI POP PUSH1 0x3 DUP2 LT JUMPDEST PUSH2 0x4B6 JUMPI PUSH1 0x40 MLOAD PUSH32 0x8C379A000000000000000000000000000000000000000000000000000000000 DUP2 MSTORE PUSH1 0x4 ADD PUSH2 0x4AD SWAP1 PUSH2 0x1E31 JUMP JUMPDEST PUSH1 0x40 MLOAD DUP1 SWAP2 SUB SWAP1 REVERT JUMPDEST DUP1 PUSH1 0x7 PUSH0 DUP5 DUP2 MSTORE PUSH1 0x20 ADD SWAP1 DUP2 MSTORE PUSH1 0x20 ADD PUSH0 KECCAK256 PUSH1 0x4 ADD DUP2 SWAP1 SSTORE POP PUSH1 0x8 PUSH0 DUP3 DUP2 MSTORE PUSH1 0x20 ADD SWAP1 DUP2 MSTORE PUSH1 0x20 ADD PUSH0 KECCAK256 PUSH1 0x6 ADD PUSH0 DUP2 SLOAD DUP1 SWAP3 SWAP2 SWAP1 PUSH2 0x4F3 SWAP1 PUSH2 0x1E7C JUMP JUMPDEST SWAP2 SWAP1 POP SSTORE POP POP POP JUMP JUMPDEST PUSH0 DUP1 PUSH1 0x4 SLOAD SUB PUSH2 0x50E JUMPI PUSH0 SWAP1 POP PUSH2 0x543 JUMP JUMPDEST TIMESTAMP PUSH1 0x5 SLOAD GT DUP1 ISZERO PUSH2 0x530 JUMPI POP PUSH0 ISZERO ISZERO PUSH1 0x6 PUSH0 SWAP1 SLOAD SWAP1 PUSH2 0x100 EXP SWAP1 DIV PUSH1 0xFF AND ISZERO ISZERO EQ JUMPDEST ISZERO PUSH2 0x53E JUMPI PUSH1 0x1 SWAP1 POP PUSH2 0x543 JUMP JUMPDEST PUSH1 0x2 SWAP1 POP JUMPDEST SWAP1 JUMP JUMPDEST PUSH0 DUP1 SLOAD SWAP1 PUSH2 0x100 EXP SWAP1 DIV PUSH20 0xFFFFFFFFFFFFFFFFFFFFFFFFFFFFFFFFFFFFFFFF AND PUSH20 0xFFFFFFFFFFFFFFFFFFFFFFFFFFFFFFFFFFFFFFFF AND CALLER PUSH20 0xFFFFFFFFFFFFFFFFFFFFFFFFFFFFFFFFFFFFFFFF AND EQ PUSH2 0x5D3 JUMPI PUSH1 0x40 MLOAD PUSH32 0x8C379A000000000000000000000000000000000000000000000000000000000 DUP2 MSTORE PUSH1 0x4 ADD PUSH2 0x5CA SWAP1 PUSH2 0x1F0D JUMP JUMPDEST PUSH1 0x40 MLOAD DUP1 SWAP2 SUB SWAP1 REVERT JUMPDEST PUSH0 DUP1 PUSH1 0x1 SWAP1 POP JUMPDEST PUSH1 0x3 SLOAD DUP2 LT ISZERO PUSH2 0x698 JUMPI DUP2 PUSH1 0x8 PUSH0 DUP4 DUP2 MSTORE PUSH1 0x20 ADD SWAP1 DUP2 MSTORE PUSH1 0x20 ADD PUSH0 KECCAK256 PUSH1 0x6 ADD SLOAD GT ISZERO PUSH2 0x68B JUMPI PUSH1 0x8 PUSH0 DUP3 DUP2 MSTORE PUSH1 0x20 ADD SWAP1 DUP2 MSTORE PUSH1 0x20 ADD PUSH0 KECCAK256 PUSH1 0x6 ADD SLOAD SWAP2 POP PUSH1 0x8 PUSH0 DUP3 DUP2 MSTORE PUSH1 0x20 ADD SWAP1 DUP2 MSTORE PUSH1 0x20 ADD PUSH0 KECCAK256 PUSH1 0x5 ADD PUSH0 SWAP1 SLOAD SWAP1 PUSH2 0x100 EXP SWAP1 DIV PUSH20 0xFFFFFFFFFFFFFFFFFFFFFFFFFFFFFFFFFFFFFFFF AND PUSH1 0x1 PUSH0 PUSH2 0x100 EXP DUP2 SLOAD DUP2 PUSH20 0xFFFFFFFFFFFFFFFFFFFFFFFFFFFFFFFFFFFFFFFF MUL NOT AND SWAP1 DUP4 PUSH20 0xFFFFFFFFFFFFFFFFFFFFFFFFFFFFFFFFFFFFFFFF AND MUL OR SWAP1 SSTORE POP JUMPDEST DUP1 DUP1 PUSH1 0x1 ADD SWAP2 POP POP PUSH2 0x5DA JUMP JUMPDEST POP POP JUMP JUMPDEST DUP2 PUSH1 0x12 DUP2 LT ISZERO PUSH2 0x6E1 JUMPI PUSH1 0x40 MLOAD PUSH32 0x8C379A000000000000000000000000000000000000000000000000000000000 DUP2 MSTORE PUSH1 0x4 ADD PUSH2 0x6D8 SWAP1 PUSH2 0x1F75 JUMP JUMPDEST PUSH1 0x40 MLOAD DUP1 SWAP2 SUB SWAP1 REVERT JUMPDEST PUSH2 0x6EA CALLER PUSH2 0x128E JUMP JUMPDEST PUSH2 0x729 JUMPI PUSH1 0x40 MLOAD PUSH32 0x8C379A000000000000000000000000000000000000000000000000000000000 DUP2 MSTORE PUSH1 0x4 ADD PUSH2 0x720 SWAP1 PUSH2 0x1FDD JUMP JUMPDEST PUSH1 0x40 MLOAD DUP1 SWAP2 SUB SWAP1 REVERT JUMPDEST PUSH1 0x40 MLOAD DUP1 PUSH1 0xC0 ADD PUSH1 0x40 MSTORE DUP1 DUP7 DUP7 DUP1 DUP1 PUSH1 0x1F ADD PUSH1 0x20 DUP1 SWAP2 DIV MUL PUSH1 0x20 ADD PUSH1 0x40 MLOAD SWAP1 DUP2 ADD PUSH1 0x40 MSTORE DUP1 SWAP4 SWAP3 SWAP2 SWAP1 DUP2 DUP2 MSTORE PUSH1 0x20 ADD DUP4 DUP4 DUP1 DUP3 DUP5 CALLDATACOPY PUSH0 DUP2 DUP5 ADD MSTORE PUSH1 0x1F NOT PUSH1 0x1F DUP3 ADD AND SWAP1 POP DUP1 DUP4 ADD SWAP3 POP POP POP POP POP POP POP DUP2 MSTORE PUSH1 0x20 ADD DUP5 DUP2 MSTORE PUSH1 0x20 ADD PUSH1 0x2 SLOAD DUP2 MSTORE PUSH1 0x20 ADD DUP4 PUSH1 0x3 DUP2 GT ISZERO PUSH2 0x79E JUMPI PUSH2 0x79D PUSH2 0x14F0 JUMP JUMPDEST JUMPDEST DUP2 MSTORE PUSH1 0x20 ADD PUSH0 DUP2 MSTORE PUSH1 0x20 ADD CALLER PUSH20 0xFFFFFFFFFFFFFFFFFFFFFFFFFFFFFFFFFFFFFFFF AND DUP2 MSTORE POP PUSH1 0x7 PUSH0 PUSH1 0x2 SLOAD DUP2 MSTORE PUSH1 0x20 ADD SWAP1 DUP2 MSTORE PUSH1 0x20 ADD PUSH0 KECCAK256 PUSH0 DUP3 ADD MLOAD DUP2 PUSH0 ADD SWAP1 DUP2 PUSH2 0x7E9 SWAP2 SWAP1 PUSH2 0x2219 JUMP JUMPDEST POP PUSH1 0x20 DUP3 ADD MLOAD DUP2 PUSH1 0x1 ADD SSTORE PUSH1 0x40 DUP3 ADD MLOAD DUP2 PUSH1 0x2 ADD SSTORE PUSH1 0x60 DUP3 ADD MLOAD DUP2 PUSH1 0x3 ADD PUSH0 PUSH2 0x100 EXP DUP2 SLOAD DUP2 PUSH1 0xFF MUL NOT AND SWAP1 DUP4 PUSH1 0x3 DUP2 GT ISZERO PUSH2 0x828 JUMPI PUSH2 0x827 PUSH2 0x14F0 JUMP JUMPDEST JUMPDEST MUL OR SWAP1 SSTORE POP PUSH1 0x80 DUP3 ADD MLOAD DUP2 PUSH1 0x4 ADD SSTORE PUSH1 0xA0 DUP3 ADD MLOAD DUP2 PUSH1 0x5 ADD PUSH0 PUSH2 0x100 EXP DUP2 SLOAD DUP2 PUSH20 0xFFFFFFFFFFFFFFFFFFFFFFFFFFFFFFFFFFFFFFFF MUL NOT AND SWAP1 DUP4 PUSH20 0xFFFFFFFFFFFFFFFFFFFFFFFFFFFFFFFFFFFFFFFF AND MUL OR SWAP1 SSTORE POP SWAP1 POP POP PUSH1 0x2 PUSH0 DUP2 SLOAD DUP1 SWAP3 SWAP2 SWAP1 PUSH2 0x892 SWAP1 PUSH2 0x1E7C JUMP JUMPDEST SWAP2 SWAP1 POP SSTORE POP POP POP POP POP POP JUMP JUMPDEST DUP2 PUSH1 0x12 DUP2 LT ISZERO PUSH2 0x8E3 JUMPI PUSH1 0x40 MLOAD PUSH32 0x8C379A000000000000000000000000000000000000000000000000000000000 DUP2 MSTORE PUSH1 0x4 ADD PUSH2 0x8DA SWAP1 PUSH2 0x1F75 JUMP JUMPDEST PUSH1 0x40 MLOAD DUP1 SWAP2 SUB SWAP1 REVERT JUMPDEST PUSH2 0x8EC CALLER PUSH2 0x1326 JUMP JUMPDEST PUSH2 0x92B JUMPI PUSH1 0x40 MLOAD PUSH32 0x8C379A000000000000000000000000000000000000000000000000000000000 DUP2 MSTORE PUSH1 0x4 ADD PUSH2 0x922 SWAP1 PUSH2 0x1FDD JUMP JUMPDEST PUSH1 0x40 MLOAD DUP1 SWAP2 SUB SWAP1 REVERT JUMPDEST PUSH1 0x3 DUP1 SLOAD LT PUSH2 0x96F JUMPI PUSH1 0x40 MLOAD PUSH32 0x8C379A000000000000000000000000000000000000000000000000000000000 DUP2 MSTORE PUSH1 0x4 ADD PUSH2 0x966 SWAP1 PUSH2 0x2332 JUMP JUMPDEST PUSH1 0x40 MLOAD DUP1 SWAP2 SUB SWAP1 REVERT JUMPDEST PUSH0 DUP1 SLOAD SWAP1 PUSH2 0x100 EXP SWAP1 DIV PUSH20 0xFFFFFFFFFFFFFFFFFFFFFFFFFFFFFFFFFFFFFFFF AND PUSH20 0xFFFFFFFFFFFFFFFFFFFFFFFFFFFFFFFFFFFFFFFF AND CALLER PUSH20 0xFFFFFFFFFFFFFFFFFFFFFFFFFFFFFFFFFFFFFFFF AND SUB PUSH2 0x9FC JUMPI PUSH1 0x40 MLOAD PUSH32 0x8C379A000000000000000000000000000000000000000000000000000000000 DUP2 MSTORE PUSH1 0x4 ADD PUSH2 0x9F3 SWAP1 PUSH2 0x23C0 JUMP JUMPDEST PUSH1 0x40 MLOAD DUP1 SWAP2 SUB SWAP1 REVERT JUMPDEST PUSH1 0x40 MLOAD DUP1 PUSH1 0xE0 ADD PUSH1 0x40 MSTORE DUP1 DUP9 DUP9 DUP1 DUP1 PUSH1 0x1F ADD PUSH1 0x20 DUP1 SWAP2 DIV MUL PUSH1 0x20 ADD PUSH1 0x40 MLOAD SWAP1 DUP2 ADD PUSH1 0x40 MSTORE DUP1 SWAP4 SWAP3 SWAP2 SWAP1 DUP2 DUP2 MSTORE PUSH1 0x20 ADD DUP4 DUP4 DUP1 DUP3 DUP5 CALLDATACOPY PUSH0 DUP2 DUP5 ADD MSTORE PUSH1 0x1F NOT PUSH1 0x1F DUP3 ADD AND SWAP1 POP DUP1 DUP4 ADD SWAP3 POP POP POP POP POP POP POP DUP2 MSTORE PUSH1 0x20 ADD DUP7 DUP7 DUP1 DUP1 PUSH1 0x1F ADD PUSH1 0x20 DUP1 SWAP2 DIV MUL PUSH1 0x20 ADD PUSH1 0x40 MLOAD SWAP1 DUP2 ADD PUSH1 0x40 MSTORE DUP1 SWAP4 SWAP3 SWAP2 SWAP1 DUP2 DUP2 MSTORE PUSH1 0x20 ADD DUP4 DUP4 DUP1 DUP3 DUP5 CALLDATACOPY PUSH0 DUP2 DUP5 ADD MSTORE PUSH1 0x1F NOT PUSH1 0x1F DUP3 ADD AND SWAP1 POP DUP1 DUP4 ADD SWAP3 POP POP POP POP POP POP POP DUP2 MSTORE PUSH1 0x20 ADD DUP5 DUP2 MSTORE PUSH1 0x20 ADD DUP4 PUSH1 0x3 DUP2 GT ISZERO PUSH2 0xAB2 JUMPI PUSH2 0xAB1 PUSH2 0x14F0 JUMP JUMPDEST JUMPDEST DUP2 MSTORE PUSH1 0x20 ADD PUSH1 0x3 SLOAD DUP2 MSTORE PUSH1 0x20 ADD CALLER PUSH20 0xFFFFFFFFFFFFFFFFFFFFFFFFFFFFFFFFFFFFFFFF AND DUP2 MSTORE PUSH1 0x20 ADD PUSH0 DUP2 MSTORE POP PUSH1 0x8 PUSH0 PUSH1 0x3 SLOAD DUP2 MSTORE PUSH1 0x20 ADD SWAP1 DUP2 MSTORE PUSH1 0x20 ADD PUSH0 KECCAK256 PUSH0 DUP3 ADD MLOAD DUP2 PUSH0 ADD SWAP1 DUP2 PUSH2 0xB05 SWAP2 SWAP1 PUSH2 0x2219 JUMP JUMPDEST POP PUSH1 0x20 DUP3 ADD MLOAD DUP2 PUSH1 0x1 ADD SWAP1 DUP2 PUSH2 0xB1B SWAP2 SWAP1 PUSH2 0x2219 JUMP JUMPDEST POP PUSH1 0x40 DUP3 ADD MLOAD DUP2 PUSH1 0x2 ADD SSTORE PUSH1 0x60 DUP3 ADD MLOAD DUP2 PUSH1 0x3 ADD PUSH0 PUSH2 0x100 EXP DUP2 SLOAD DUP2 PUSH1 0xFF MUL NOT AND SWAP1 DUP4 PUSH1 0x3 DUP2 GT ISZERO PUSH2 0xB50 JUMPI PUSH2 0xB4F PUSH2 0x14F0 JUMP JUMPDEST JUMPDEST MUL OR SWAP1 SSTORE POP PUSH1 0x80 DUP3 ADD MLOAD DUP2 PUSH1 0x4 ADD SSTORE PUSH1 0xA0 DUP3 ADD MLOAD DUP2 PUSH1 0x5 ADD PUSH0 PUSH2 0x100 EXP DUP2 SLOAD DUP2 PUSH20 0xFFFFFFFFFFFFFFFFFFFFFFFFFFFFFFFFFFFFFFFF MUL NOT AND SWAP1 DUP4 PUSH20 0xFFFFFFFFFFFFFFFFFFFFFFFFFFFFFFFFFFFFFFFF AND MUL OR SWAP1 SSTORE POP PUSH1 0xC0 DUP3 ADD MLOAD DUP2 PUSH1 0x6 ADD SSTORE SWAP1 POP POP PUSH1 0x3 PUSH0 DUP2 SLOAD DUP1 SWAP3 SWAP2 SWAP1 PUSH2 0xBC4 SWAP1 PUSH2 0x1E7C JUMP JUMPDEST SWAP2 SWAP1 POP SSTORE POP POP POP POP POP POP POP POP JUMP JUMPDEST PUSH1 0x9 PUSH0 SWAP1 SLOAD SWAP1 PUSH2 0x100 EXP SWAP1 DIV PUSH20 0xFFFFFFFFFFFFFFFFFFFFFFFFFFFFFFFFFFFFFFFF AND DUP2 JUMP JUMPDEST PUSH0 DUP1 SLOAD SWAP1 PUSH2 0x100 EXP SWAP1 DIV PUSH20 0xFFFFFFFFFFFFFFFFFFFFFFFFFFFFFFFFFFFFFFFF AND PUSH20 0xFFFFFFFFFFFFFFFFFFFFFFFFFFFFFFFFFFFFFFFF AND CALLER PUSH20 0xFFFFFFFFFFFFFFFFFFFFFFFFFFFFFFFFFFFFFFFF AND EQ PUSH2 0xC84 JUMPI PUSH1 0x40 MLOAD PUSH32 0x8C379A000000000000000000000000000000000000000000000000000000000 DUP2 MSTORE PUSH1 0x4 ADD PUSH2 0xC7B SWAP1 PUSH2 0x1F0D JUMP JUMPDEST PUSH1 0x40 MLOAD DUP1 SWAP2 SUB SWAP1 REVERT JUMPDEST PUSH1 0x1 PUSH1 0x6 PUSH0 PUSH2 0x100 EXP DUP2 SLOAD DUP2 PUSH1 0xFF MUL NOT AND SWAP1 DUP4 ISZERO ISZERO MUL OR SWAP1 SSTORE POP JUMP JUMPDEST PUSH0 DUP1 SLOAD SWAP1 PUSH2 0x100 EXP SWAP1 DIV PUSH20 0xFFFFFFFFFFFFFFFFFFFFFFFFFFFFFFFFFFFFFFFF AND PUSH20 0xFFFFFFFFFFFFFFFFFFFFFFFFFFFFFFFFFFFFFFFF AND CALLER PUSH20 0xFFFFFFFFFFFFFFFFFFFFFFFFFFFFFFFFFFFFFFFF AND EQ PUSH2 0xD2D JUMPI PUSH1 0x40 MLOAD PUSH32 0x8C379A000000000000000000000000000000000000000000000000000000000 DUP2 MSTORE PUSH1 0x4 ADD PUSH2 0xD24 SWAP1 PUSH2 0x1F0D JUMP JUMPDEST PUSH1 0x40 MLOAD DUP1 SWAP2 SUB SWAP1 REVERT JUMPDEST PUSH2 0xE10 DUP2 GT PUSH2 0xD71 JUMPI PUSH1 0x40 MLOAD PUSH32 0x8C379A000000000000000000000000000000000000000000000000000000000 DUP2 MSTORE PUSH1 0x4 ADD PUSH2 0xD68 SWAP1 PUSH2 0x244E JUMP JUMPDEST PUSH1 0x40 MLOAD DUP1 SWAP2 SUB SWAP1 REVERT JUMPDEST DUP2 PUSH4 0x6691513E PUSH2 0xD81 SWAP2 SWAP1 PUSH2 0x246C JUMP JUMPDEST PUSH1 0x4 DUP2 SWAP1 SSTORE POP DUP1 PUSH1 0x4 SLOAD PUSH2 0xD95 SWAP2 SWAP1 PUSH2 0x246C JUMP JUMPDEST PUSH1 0x5 DUP2 SWAP1 SSTORE POP POP POP JUMP JUMPDEST PUSH0 DUP1 SLOAD SWAP1 PUSH2 0x100 EXP SWAP1 DIV PUSH20 0xFFFFFFFFFFFFFFFFFFFFFFFFFFFFFFFFFFFFFFFF AND DUP2 JUMP JUMPDEST PUSH1 0x60 PUSH0 PUSH1 0x1 PUSH1 0x2 SLOAD PUSH2 0xDD4 SWAP2 SWAP1 PUSH2 0x249F JUMP JUMPDEST SWAP1 POP PUSH0 DUP2 PUSH8 0xFFFFFFFFFFFFFFFF DUP2 GT ISZERO PUSH2 0xDF1 JUMPI PUSH2 0xDF0 PUSH2 0x1FFB JUMP JUMPDEST JUMPDEST PUSH1 0x40 MLOAD SWAP1 DUP1 DUP3 MSTORE DUP1 PUSH1 0x20 MUL PUSH1 0x20 ADD DUP3 ADD PUSH1 0x40 MSTORE DUP1 ISZERO PUSH2 0xE2A JUMPI DUP2 PUSH1 0x20 ADD JUMPDEST PUSH2 0xE17 PUSH2 0x13BE JUMP JUMPDEST DUP2 MSTORE PUSH1 0x20 ADD SWAP1 PUSH1 0x1 SWAP1 SUB SWAP1 DUP2 PUSH2 0xE0F JUMPI SWAP1 POP JUMPDEST POP SWAP1 POP PUSH0 JUMPDEST DUP2 MLOAD DUP2 LT ISZERO PUSH2 0xFC7 JUMPI PUSH1 0x7 PUSH0 PUSH1 0x1 DUP4 PUSH2 0xE48 SWAP2 SWAP1 PUSH2 0x246C JUMP JUMPDEST DUP2 MSTORE PUSH1 0x20 ADD SWAP1 DUP2 MSTORE PUSH1 0x20 ADD PUSH0 KECCAK256 PUSH1 0x40 MLOAD DUP1 PUSH1 0xC0 ADD PUSH1 0x40 MSTORE SWAP1 DUP2 PUSH0 DUP3 ADD DUP1 SLOAD PUSH2 0xE6F SWAP1 PUSH2 0x2055 JUMP JUMPDEST DUP1 PUSH1 0x1F ADD PUSH1 0x20 DUP1 SWAP2 DIV MUL PUSH1 0x20 ADD PUSH1 0x40 MLOAD SWAP1 DUP2 ADD PUSH1 0x40 MSTORE DUP1 SWAP3 SWAP2 SWAP1 DUP2 DUP2 MSTORE PUSH1 0x20 ADD DUP3 DUP1 SLOAD PUSH2 0xE9B SWAP1 PUSH2 0x2055 JUMP JUMPDEST DUP1 ISZERO PUSH2 0xEE6 JUMPI DUP1 PUSH1 0x1F LT PUSH2 0xEBD JUMPI PUSH2 0x100 DUP1 DUP4 SLOAD DIV MUL DUP4 MSTORE SWAP2 PUSH1 0x20 ADD SWAP2 PUSH2 0xEE6 JUMP JUMPDEST DUP3 ADD SWAP2 SWAP1 PUSH0 MSTORE PUSH1 0x20 PUSH0 KECCAK256 SWAP1 JUMPDEST DUP2 SLOAD DUP2 MSTORE SWAP1 PUSH1 0x1 ADD SWAP1 PUSH1 0x20 ADD DUP1 DUP4 GT PUSH2 0xEC9 JUMPI DUP3 SWAP1 SUB PUSH1 0x1F AND DUP3 ADD SWAP2 JUMPDEST POP POP POP POP POP DUP2 MSTORE PUSH1 0x20 ADD PUSH1 0x1 DUP3 ADD SLOAD DUP2 MSTORE PUSH1 0x20 ADD PUSH1 0x2 DUP3 ADD SLOAD DUP2 MSTORE PUSH1 0x20 ADD PUSH1 0x3 DUP3 ADD PUSH0 SWAP1 SLOAD SWAP1 PUSH2 0x100 EXP SWAP1 DIV PUSH1 0xFF AND PUSH1 0x3 DUP2 GT ISZERO PUSH2 0xF27 JUMPI PUSH2 0xF26 PUSH2 0x14F0 JUMP JUMPDEST JUMPDEST PUSH1 0x3 DUP2 GT ISZERO PUSH2 0xF39 JUMPI PUSH2 0xF38 PUSH2 0x14F0 JUMP JUMPDEST JUMPDEST DUP2 MSTORE PUSH1 0x20 ADD PUSH1 0x4 DUP3 ADD SLOAD DUP2 MSTORE PUSH1 0x20 ADD PUSH1 0x5 DUP3 ADD PUSH0 SWAP1 SLOAD SWAP1 PUSH2 0x100 EXP SWAP1 DIV PUSH20 0xFFFFFFFFFFFFFFFFFFFFFFFFFFFFFFFFFFFFFFFF AND PUSH20 0xFFFFFFFFFFFFFFFFFFFFFFFFFFFFFFFFFFFFFFFF AND PUSH20 0xFFFFFFFFFFFFFFFFFFFFFFFFFFFFFFFFFFFFFFFF AND DUP2 MSTORE POP POP DUP3 DUP3 DUP2 MLOAD DUP2 LT PUSH2 0xFAF JUMPI PUSH2 0xFAE PUSH2 0x24D2 JUMP JUMPDEST JUMPDEST PUSH1 0x20 MUL PUSH1 0x20 ADD ADD DUP2 SWAP1 MSTORE POP DUP1 DUP1 PUSH1 0x1 ADD SWAP2 POP POP PUSH2 0xE2F JUMP JUMPDEST POP DUP1 SWAP3 POP POP POP SWAP1 JUMP JUMPDEST PUSH1 0x1 PUSH0 SWAP1 SLOAD SWAP1 PUSH2 0x100 EXP SWAP1 DIV PUSH20 0xFFFFFFFFFFFFFFFFFFFFFFFFFFFFFFFFFFFFFFFF AND DUP2 JUMP JUMPDEST PUSH1 0x60 PUSH0 PUSH1 0x1 PUSH1 0x3 SLOAD PUSH2 0x1007 SWAP2 SWAP1 PUSH2 0x249F JUMP JUMPDEST PUSH8 0xFFFFFFFFFFFFFFFF DUP2 GT ISZERO PUSH2 0x1020 JUMPI PUSH2 0x101F PUSH2 0x1FFB JUMP JUMPDEST JUMPDEST PUSH1 0x40 MLOAD SWAP1 DUP1 DUP3 MSTORE DUP1 PUSH1 0x20 MUL PUSH1 0x20 ADD DUP3 ADD PUSH1 0x40 MSTORE DUP1 ISZERO PUSH2 0x1059 JUMPI DUP2 PUSH1 0x20 ADD JUMPDEST PUSH2 0x1046 PUSH2 0x1417 JUMP JUMPDEST DUP2 MSTORE PUSH1 0x20 ADD SWAP1 PUSH1 0x1 SWAP1 SUB SWAP1 DUP2 PUSH2 0x103E JUMPI SWAP1 POP JUMPDEST POP SWAP1 POP PUSH0 JUMPDEST DUP2 MLOAD DUP2 LT ISZERO PUSH2 0x1286 JUMPI PUSH1 0x8 PUSH0 PUSH1 0x1 DUP4 PUSH2 0x1077 SWAP2 SWAP1 PUSH2 0x246C JUMP JUMPDEST DUP2 MSTORE PUSH1 0x20 ADD SWAP1 DUP2 MSTORE PUSH1 0x20 ADD PUSH0 KECCAK256 PUSH1 0x40 MLOAD DUP1 PUSH1 0xE0 ADD PUSH1 0x40 MSTORE SWAP1 DUP2 PUSH0 DUP3 ADD DUP1 SLOAD PUSH2 0x109E SWAP1 PUSH2 0x2055 JUMP JUMPDEST DUP1 PUSH1 0x1F ADD PUSH1 0x20 DUP1 SWAP2 DIV MUL PUSH1 0x20 ADD PUSH1 0x40 MLOAD SWAP1 DUP2 ADD PUSH1 0x40 MSTORE DUP1 SWAP3 SWAP2 SWAP1 DUP2 DUP2 MSTORE PUSH1 0x20 ADD DUP3 DUP1 SLOAD PUSH2 0x10CA SWAP1 PUSH2 0x2055 JUMP JUMPDEST DUP1 ISZERO PUSH2 0x1115 JUMPI DUP1 PUSH1 0x1F LT PUSH2 0x10EC JUMPI PUSH2 0x100 DUP1 DUP4 SLOAD DIV MUL DUP4 MSTORE SWAP2 PUSH1 0x20 ADD SWAP2 PUSH2 0x1115 JUMP JUMPDEST DUP3 ADD SWAP2 SWAP1 PUSH0 MSTORE PUSH1 0x20 PUSH0 KECCAK256 SWAP1 JUMPDEST DUP2 SLOAD DUP2 MSTORE SWAP1 PUSH1 0x1 ADD SWAP1 PUSH1 0x20 ADD DUP1 DUP4 GT PUSH2 0x10F8 JUMPI DUP3 SWAP1 SUB PUSH1 0x1F AND DUP3 ADD SWAP2 JUMPDEST POP POP POP POP POP DUP2 MSTORE PUSH1 0x20 ADD PUSH1 0x1 DUP3 ADD DUP1 SLOAD PUSH2 0x112E SWAP1 PUSH2 0x2055 JUMP JUMPDEST DUP1 PUSH1 0x1F ADD PUSH1 0x20 DUP1 SWAP2 DIV MUL PUSH1 0x20 ADD PUSH1 0x40 MLOAD SWAP1 DUP2 ADD PUSH1 0x40 MSTORE DUP1 SWAP3 SWAP2 SWAP1 DUP2 DUP2 MSTORE PUSH1 0x20 ADD DUP3 DUP1 SLOAD PUSH2 0x115A SWAP1 PUSH2 0x2055 JUMP JUMPDEST DUP1 ISZERO PUSH2 0x11A5 JUMPI DUP1 PUSH1 0x1F LT PUSH2 0x117C JUMPI PUSH2 0x100 DUP1 DUP4 SLOAD DIV MUL DUP4 MSTORE SWAP2 PUSH1 0x20 ADD SWAP2 PUSH2 0x11A5 JUMP JUMPDEST DUP3 ADD SWAP2 SWAP1 PUSH0 MSTORE PUSH1 0x20 PUSH0 KECCAK256 SWAP1 JUMPDEST DUP2 SLOAD DUP2 MSTORE SWAP1 PUSH1 0x1 ADD SWAP1 PUSH1 0x20 ADD DUP1 DUP4 GT PUSH2 0x1188 JUMPI DUP3 SWAP1 SUB PUSH1 0x1F AND DUP3 ADD SWAP2 JUMPDEST POP POP POP POP POP DUP2 MSTORE PUSH1 0x20 ADD PUSH1 0x2 DUP3 ADD SLOAD DUP2 MSTORE PUSH1 0x20 ADD PUSH1 0x3 DUP3 ADD PUSH0 SWAP1 SLOAD SWAP1 PUSH2 0x100 EXP SWAP1 DIV PUSH1 0xFF AND PUSH1 0x3 DUP2 GT ISZERO PUSH2 0x11DC JUMPI PUSH2 0x11DB PUSH2 0x14F0 JUMP JUMPDEST JUMPDEST PUSH1 0x3 DUP2 GT ISZERO PUSH2 0x11EE JUMPI PUSH2 0x11ED PUSH2 0x14F0 JUMP JUMPDEST JUMPDEST DUP2 MSTORE PUSH1 0x20 ADD PUSH1 0x4 DUP3 ADD SLOAD DUP2 MSTORE PUSH1 0x20 ADD PUSH1 0x5 DUP3 ADD PUSH0 SWAP1 SLOAD SWAP1 PUSH2 0x100 EXP SWAP1 DIV PUSH20 0xFFFFFFFFFFFFFFFFFFFFFFFFFFFFFFFFFFFFFFFF AND PUSH20 0xFFFFFFFFFFFFFFFFFFFFFFFFFFFFFFFFFFFFFFFF AND PUSH20 0xFFFFFFFFFFFFFFFFFFFFFFFFFFFFFFFFFFFFFFFF AND DUP2 MSTORE PUSH1 0x20 ADD PUSH1 0x6 DUP3 ADD SLOAD DUP2 MSTORE POP POP DUP3 DUP3 DUP2 MLOAD DUP2 LT PUSH2 0x126E JUMPI PUSH2 0x126D PUSH2 0x24D2 JUMP JUMPDEST JUMPDEST PUSH1 0x20 MUL PUSH1 0x20 ADD ADD DUP2 SWAP1 MSTORE POP DUP1 DUP1 PUSH1 0x1 ADD SWAP2 POP POP PUSH2 0x105E JUMP JUMPDEST POP DUP1 SWAP2 POP POP SWAP1 JUMP JUMPDEST PUSH0 DUP1 PUSH1 0x1 SWAP1 POP JUMPDEST PUSH1 0x2 SLOAD DUP2 LT ISZERO PUSH2 0x131B JUMPI DUP3 PUSH20 0xFFFFFFFFFFFFFFFFFFFFFFFFFFFFFFFFFFFFFFFF AND PUSH1 0x7 PUSH0 DUP4 DUP2 MSTORE PUSH1 0x20 ADD SWAP1 DUP2 MSTORE PUSH1 0x20 ADD PUSH0 KECCAK256 PUSH1 0x5 ADD PUSH0 SWAP1 SLOAD SWAP1 PUSH2 0x100 EXP SWAP1 DIV PUSH20 0xFFFFFFFFFFFFFFFFFFFFFFFFFFFFFFFFFFFFFFFF AND PUSH20 0xFFFFFFFFFFFFFFFFFFFFFFFFFFFFFFFFFFFFFFFF AND SUB PUSH2 0x130E JUMPI PUSH0 SWAP2 POP POP PUSH2 0x1321 JUMP JUMPDEST DUP1 DUP1 PUSH1 0x1 ADD SWAP2 POP POP PUSH2 0x1295 JUMP JUMPDEST POP PUSH1 0x1 SWAP1 POP JUMPDEST SWAP2 SWAP1 POP JUMP JUMPDEST PUSH0 DUP1 PUSH1 0x1 SWAP1 POP JUMPDEST PUSH1 0x3 SLOAD DUP2 LT ISZERO PUSH2 0x13B3 JUMPI DUP3 PUSH20 0xFFFFFFFFFFFFFFFFFFFFFFFFFFFFFFFFFFFFFFFF AND PUSH1 0x8 PUSH0 DUP4 DUP2 MSTORE PUSH1 0x20 ADD SWAP1 DUP2 MSTORE PUSH1 0x20 ADD PUSH0 KECCAK256 PUSH1 0x5 ADD PUSH0 SWAP1 SLOAD SWAP1 PUSH2 0x100 EXP SWAP1 DIV PUSH20 0xFFFFFFFFFFFFFFFFFFFFFFFFFFFFFFFFFFFFFFFF AND PUSH20 0xFFFFFFFFFFFFFFFFFFFFFFFFFFFFFFFFFFFFFFFF AND SUB PUSH2 0x13A6 JUMPI PUSH0 SWAP2 POP POP PUSH2 0x13B9 JUMP JUMPDEST DUP1 DUP1 PUSH1 0x1 ADD SWAP2 POP POP PUSH2 0x132D JUMP JUMPDEST POP PUSH1 0x1 SWAP1 POP JUMPDEST SWAP2 SWAP1 POP JUMP JUMPDEST PUSH1 0x40 MLOAD DUP1 PUSH1 0xC0 ADD PUSH1 0x40 MSTORE DUP1 PUSH1 0x60 DUP2 MSTORE PUSH1 0x20 ADD PUSH0 DUP2 MSTORE PUSH1 0x20 ADD PUSH0 DUP2 MSTORE PUSH1 0x20 ADD PUSH0 PUSH1 0x3 DUP2 GT ISZERO PUSH2 0x13EF JUMPI PUSH2 0x13EE PUSH2 0x14F0 JUMP JUMPDEST JUMPDEST DUP2 MSTORE PUSH1 0x20 ADD PUSH0 DUP2 MSTORE PUSH1 0x20 ADD PUSH0 PUSH20 0xFFFFFFFFFFFFFFFFFFFFFFFFFFFFFFFFFFFFFFFF AND DUP2 MSTORE POP SWAP1 JUMP JUMPDEST PUSH1 0x40 MLOAD DUP1 PUSH1 0xE0 ADD PUSH1 0x40 MSTORE DUP1 PUSH1 0x60 DUP2 MSTORE PUSH1 0x20 ADD PUSH1 0x60 DUP2 MSTORE PUSH1 0x20 ADD PUSH0 DUP2 MSTORE PUSH1 0x20 ADD PUSH0 PUSH1 0x3 DUP2 GT ISZERO PUSH2 0x1449 JUMPI PUSH2 0x1448 PUSH2 0x14F0 JUMP JUMPDEST JUMPDEST DUP2 MSTORE PUSH1 0x20 ADD PUSH0 DUP2 MSTORE PUSH1 0x20 ADD PUSH0 PUSH20 0xFFFFFFFFFFFFFFFFFFFFFFFFFFFFFFFFFFFFFFFF AND DUP2 MSTORE PUSH1 0x20 ADD PUSH0 DUP2 MSTORE POP SWAP1 JUMP JUMPDEST PUSH0 DUP1 REVERT JUMPDEST PUSH0 DUP1 REVERT JUMPDEST PUSH0 DUP2 SWAP1 POP SWAP2 SWAP1 POP JUMP JUMPDEST PUSH2 0x1491 DUP2 PUSH2 0x147F JUMP JUMPDEST DUP2 EQ PUSH2 0x149B JUMPI PUSH0 DUP1 REVERT JUMPDEST POP JUMP JUMPDEST PUSH0 DUP2 CALLDATALOAD SWAP1 POP PUSH2 0x14AC DUP2 PUSH2 0x1488 JUMP JUMPDEST SWAP3 SWAP2 POP POP JUMP JUMPDEST PUSH0 DUP1 PUSH1 0x40 DUP4 DUP6 SUB SLT ISZERO PUSH2 0x14C8 JUMPI PUSH2 0x14C7 PUSH2 0x1477 JUMP JUMPDEST JUMPDEST PUSH0 PUSH2 0x14D5 DUP6 DUP3 DUP7 ADD PUSH2 0x149E JUMP JUMPDEST SWAP3 POP POP PUSH1 0x20 PUSH2 0x14E6 DUP6 DUP3 DUP7 ADD PUSH2 0x149E JUMP JUMPDEST SWAP2 POP POP SWAP3 POP SWAP3 SWAP1 POP JUMP JUMPDEST PUSH32 0x4E487B7100000000000000000000000000000000000000000000000000000000 PUSH0 MSTORE PUSH1 0x21 PUSH1 0x4 MSTORE PUSH1 0x24 PUSH0 REVERT JUMPDEST PUSH1 0x3 DUP2 LT PUSH2 0x152E JUMPI PUSH2 0x152D PUSH2 0x14F0 JUMP JUMPDEST JUMPDEST POP JUMP JUMPDEST PUSH0 DUP2 SWAP1 POP PUSH2 0x153E DUP3 PUSH2 0x151D JUMP JUMPDEST SWAP2 SWAP1 POP JUMP JUMPDEST PUSH0 PUSH2 0x154D DUP3 PUSH2 0x1531 JUMP JUMPDEST SWAP1 POP SWAP2 SWAP1 POP JUMP JUMPDEST PUSH2 0x155D DUP2 PUSH2 0x1543 JUMP JUMPDEST DUP3 MSTORE POP POP JUMP JUMPDEST PUSH0 PUSH1 0x20 DUP3 ADD SWAP1 POP PUSH2 0x1576 PUSH0 DUP4 ADD DUP5 PUSH2 0x1554 JUMP JUMPDEST SWAP3 SWAP2 POP POP JUMP JUMPDEST PUSH0 DUP1 REVERT JUMPDEST PUSH0 DUP1 REVERT JUMPDEST PUSH0 DUP1 REVERT JUMPDEST PUSH0 DUP1 DUP4 PUSH1 0x1F DUP5 ADD SLT PUSH2 0x159D JUMPI PUSH2 0x159C PUSH2 0x157C JUMP JUMPDEST JUMPDEST DUP3 CALLDATALOAD SWAP1 POP PUSH8 0xFFFFFFFFFFFFFFFF DUP2 GT ISZERO PUSH2 0x15BA JUMPI PUSH2 0x15B9 PUSH2 0x1580 JUMP JUMPDEST JUMPDEST PUSH1 0x20 DUP4 ADD SWAP2 POP DUP4 PUSH1 0x1 DUP3 MUL DUP4 ADD GT ISZERO PUSH2 0x15D6 JUMPI PUSH2 0x15D5 PUSH2 0x1584 JUMP JUMPDEST JUMPDEST SWAP3 POP SWAP3 SWAP1 POP JUMP JUMPDEST PUSH1 0x4 DUP2 LT PUSH2 0x15E9 JUMPI PUSH0 DUP1 REVERT JUMPDEST POP JUMP JUMPDEST PUSH0 DUP2 CALLDATALOAD SWAP1 POP PUSH2 0x15FA DUP2 PUSH2 0x15DD JUMP JUMPDEST SWAP3 SWAP2 POP POP JUMP JUMPDEST PUSH0 DUP1 PUSH0 DUP1 PUSH1 0x60 DUP6 DUP8 SUB SLT ISZERO PUSH2 0x1618 JUMPI PUSH2 0x1617 PUSH2 0x1477 JUMP JUMPDEST JUMPDEST PUSH0 DUP6 ADD CALLDATALOAD PUSH8 0xFFFFFFFFFFFFFFFF DUP2 GT ISZERO PUSH2 0x1635 JUMPI PUSH2 0x1634 PUSH2 0x147B JUMP JUMPDEST JUMPDEST PUSH2 0x1641 DUP8 DUP3 DUP9 ADD PUSH2 0x1588 JUMP JUMPDEST SWAP5 POP SWAP5 POP POP PUSH1 0x20 PUSH2 0x1654 DUP8 DUP3 DUP9 ADD PUSH2 0x149E JUMP JUMPDEST SWAP3 POP POP PUSH1 0x40 PUSH2 0x1665 DUP8 DUP3 DUP9 ADD PUSH2 0x15EC JUMP JUMPDEST SWAP2 POP POP SWAP3 SWAP6 SWAP2 SWAP5 POP SWAP3 POP JUMP JUMPDEST PUSH0 DUP1 PUSH0 DUP1 PUSH0 DUP1 PUSH1 0x80 DUP8 DUP10 SUB SLT ISZERO PUSH2 0x168B JUMPI PUSH2 0x168A PUSH2 0x1477 JUMP JUMPDEST JUMPDEST PUSH0 DUP8 ADD CALLDATALOAD PUSH8 0xFFFFFFFFFFFFFFFF DUP2 GT ISZERO PUSH2 0x16A8 JUMPI PUSH2 0x16A7 PUSH2 0x147B JUMP JUMPDEST JUMPDEST PUSH2 0x16B4 DUP10 DUP3 DUP11 ADD PUSH2 0x1588 JUMP JUMPDEST SWAP7 POP SWAP7 POP POP PUSH1 0x20 DUP8 ADD CALLDATALOAD PUSH8 0xFFFFFFFFFFFFFFFF DUP2 GT ISZERO PUSH2 0x16D7 JUMPI PUSH2 0x16D6 PUSH2 0x147B JUMP JUMPDEST JUMPDEST PUSH2 0x16E3 DUP10 DUP3 DUP11 ADD PUSH2 0x1588 JUMP JUMPDEST SWAP5 POP SWAP5 POP POP PUSH1 0x40 PUSH2 0x16F6 DUP10 DUP3 DUP11 ADD PUSH2 0x149E JUMP JUMPDEST SWAP3 POP POP PUSH1 0x60 PUSH2 0x1707 DUP10 DUP3 DUP11 ADD PUSH2 0x15EC JUMP JUMPDEST SWAP2 POP POP SWAP3 SWAP6 POP SWAP3 SWAP6 POP SWAP3 SWAP6 JUMP JUMPDEST PUSH0 PUSH20 0xFFFFFFFFFFFFFFFFFFFFFFFFFFFFFFFFFFFFFFFF DUP3 AND SWAP1 POP SWAP2 SWAP1 POP JUMP JUMPDEST PUSH0 DUP2 SWAP1 POP SWAP2 SWAP1 POP JUMP JUMPDEST PUSH0 PUSH2 0x1756 PUSH2 0x1751 PUSH2 0x174C DUP5 PUSH2 0x1714 JUMP JUMPDEST PUSH2 0x1733 JUMP JUMPDEST PUSH2 0x1714 JUMP JUMPDEST SWAP1 POP SWAP2 SWAP1 POP JUMP JUMPDEST PUSH0 PUSH2 0x1767 DUP3 PUSH2 0x173C JUMP JUMPDEST SWAP1 POP SWAP2 SWAP1 POP JUMP JUMPDEST PUSH0 PUSH2 0x1778 DUP3 PUSH2 0x175D JUMP JUMPDEST SWAP1 POP SWAP2 SWAP1 POP JUMP JUMPDEST PUSH2 0x1788 DUP2 PUSH2 0x176E JUMP JUMPDEST DUP3 MSTORE POP POP JUMP JUMPDEST PUSH0 PUSH1 0x20 DUP3 ADD SWAP1 POP PUSH2 0x17A1 PUSH0 DUP4 ADD DUP5 PUSH2 0x177F JUMP JUMPDEST SWAP3 SWAP2 POP POP JUMP JUMPDEST PUSH0 PUSH2 0x17B1 DUP3 PUSH2 0x1714 JUMP JUMPDEST SWAP1 POP SWAP2 SWAP1 POP JUMP JUMPDEST PUSH2 0x17C1 DUP2 PUSH2 0x17A7 JUMP JUMPDEST DUP3 MSTORE POP POP JUMP JUMPDEST PUSH0 PUSH1 0x20 DUP3 ADD SWAP1 POP PUSH2 0x17DA PUSH0 DUP4 ADD DUP5 PUSH2 0x17B8 JUMP JUMPDEST SWAP3 SWAP2 POP POP JUMP JUMPDEST PUSH0 DUP2 MLOAD SWAP1 POP SWAP2 SWAP1 POP JUMP JUMPDEST PUSH0 DUP3 DUP3 MSTORE PUSH1 0x20 DUP3 ADD SWAP1 POP SWAP3 SWAP2 POP POP JUMP JUMPDEST PUSH0 DUP2 SWAP1 POP PUSH1 0x20 DUP3 ADD SWAP1 POP SWAP2 SWAP1 POP JUMP JUMPDEST PUSH0 DUP2 MLOAD SWAP1 POP SWAP2 SWAP1 POP JUMP JUMPDEST PUSH0 DUP3 DUP3 MSTORE PUSH1 0x20 DUP3 ADD SWAP1 POP SWAP3 SWAP2 POP POP JUMP JUMPDEST DUP3 DUP2 DUP4 MCOPY PUSH0 DUP4 DUP4 ADD MSTORE POP POP POP JUMP JUMPDEST PUSH0 PUSH1 0x1F NOT PUSH1 0x1F DUP4 ADD AND SWAP1 POP SWAP2 SWAP1 POP JUMP JUMPDEST PUSH0 PUSH2 0x184B DUP3 PUSH2 0x1809 JUMP JUMPDEST PUSH2 0x1855 DUP2 DUP6 PUSH2 0x1813 JUMP JUMPDEST SWAP4 POP PUSH2 0x1865 DUP2 DUP6 PUSH1 0x20 DUP7 ADD PUSH2 0x1823 JUMP JUMPDEST PUSH2 0x186E DUP2 PUSH2 0x1831 JUMP JUMPDEST DUP5 ADD SWAP2 POP POP SWAP3 SWAP2 POP POP JUMP JUMPDEST PUSH2 0x1882 DUP2 PUSH2 0x147F JUMP JUMPDEST DUP3 MSTORE POP POP JUMP JUMPDEST PUSH1 0x4 DUP2 LT PUSH2 0x1899 JUMPI PUSH2 0x1898 PUSH2 0x14F0 JUMP JUMPDEST JUMPDEST POP JUMP JUMPDEST PUSH0 DUP2 SWAP1 POP PUSH2 0x18A9 DUP3 PUSH2 0x1888 JUMP JUMPDEST SWAP2 SWAP1 POP JUMP JUMPDEST PUSH0 PUSH2 0x18B8 DUP3 PUSH2 0x189C JUMP JUMPDEST SWAP1 POP SWAP2 SWAP1 POP JUMP JUMPDEST PUSH2 0x18C8 DUP2 PUSH2 0x18AE JUMP JUMPDEST DUP3 MSTORE POP POP JUMP JUMPDEST PUSH2 0x18D7 DUP2 PUSH2 0x17A7 JUMP JUMPDEST DUP3 MSTORE POP POP JUMP JUMPDEST PUSH0 PUSH1 0xC0 DUP4 ADD PUSH0 DUP4 ADD MLOAD DUP5 DUP3 SUB PUSH0 DUP7 ADD MSTORE PUSH2 0x18F7 DUP3 DUP3 PUSH2 0x1841 JUMP JUMPDEST SWAP2 POP POP PUSH1 0x20 DUP4 ADD MLOAD PUSH2 0x190C PUSH1 0x20 DUP7 ADD DUP3 PUSH2 0x1879 JUMP JUMPDEST POP PUSH1 0x40 DUP4 ADD MLOAD PUSH2 0x191F PUSH1 0x40 DUP7 ADD DUP3 PUSH2 0x1879 JUMP JUMPDEST POP PUSH1 0x60 DUP4 ADD MLOAD PUSH2 0x1932 PUSH1 0x60 DUP7 ADD DUP3 PUSH2 0x18BF JUMP JUMPDEST POP PUSH1 0x80 DUP4 ADD MLOAD PUSH2 0x1945 PUSH1 0x80 DUP7 ADD DUP3 PUSH2 0x1879 JUMP JUMPDEST POP PUSH1 0xA0 DUP4 ADD MLOAD PUSH2 0x1958 PUSH1 0xA0 DUP7 ADD DUP3 PUSH2 0x18CE JUMP JUMPDEST POP DUP1 SWAP2 POP POP SWAP3 SWAP2 POP POP JUMP JUMPDEST PUSH0 PUSH2 0x196E DUP4 DUP4 PUSH2 0x18DD JUMP JUMPDEST SWAP1 POP SWAP3 SWAP2 POP POP JUMP JUMPDEST PUSH0 PUSH1 0x20 DUP3 ADD SWAP1 POP SWAP2 SWAP1 POP JUMP JUMPDEST PUSH0 PUSH2 0x198C DUP3 PUSH2 0x17E0 JUMP JUMPDEST PUSH2 0x1996 DUP2 DUP6 PUSH2 0x17EA JUMP JUMPDEST SWAP4 POP DUP4 PUSH1 0x20 DUP3 MUL DUP6 ADD PUSH2 0x19A8 DUP6 PUSH2 0x17FA JUMP JUMPDEST DUP1 PUSH0 JUMPDEST DUP6 DUP2 LT ISZERO PUSH2 0x19E3 JUMPI DUP5 DUP5 SUB DUP10 MSTORE DUP2 MLOAD PUSH2 0x19C4 DUP6 DUP3 PUSH2 0x1963 JUMP JUMPDEST SWAP5 POP PUSH2 0x19CF DUP4 PUSH2 0x1976 JUMP JUMPDEST SWAP3 POP PUSH1 0x20 DUP11 ADD SWAP10 POP POP PUSH1 0x1 DUP2 ADD SWAP1 POP PUSH2 0x19AB JUMP JUMPDEST POP DUP3 SWAP8 POP DUP8 SWAP6 POP POP POP POP POP POP SWAP3 SWAP2 POP POP JUMP JUMPDEST PUSH0 PUSH1 0x20 DUP3 ADD SWAP1 POP DUP2 DUP2 SUB PUSH0 DUP4 ADD MSTORE PUSH2 0x1A0D DUP2 DUP5 PUSH2 0x1982 JUMP JUMPDEST SWAP1 POP SWAP3 SWAP2 POP POP JUMP JUMPDEST PUSH0 DUP2 MLOAD SWAP1 POP SWAP2 SWAP1 POP JUMP JUMPDEST PUSH0 DUP3 DUP3 MSTORE PUSH1 0x20 DUP3 ADD SWAP1 POP SWAP3 SWAP2 POP POP JUMP JUMPDEST PUSH0 DUP2 SWAP1 POP PUSH1 0x20 DUP3 ADD SWAP1 POP SWAP2 SWAP1 POP JUMP JUMPDEST PUSH0 PUSH1 0xE0 DUP4 ADD PUSH0 DUP4 ADD MLOAD DUP5 DUP3 SUB PUSH0 DUP7 ADD MSTORE PUSH2 0x1A58 DUP3 DUP3 PUSH2 0x1841 JUMP JUMPDEST SWAP2 POP POP PUSH1 0x20 DUP4 ADD MLOAD DUP5 DUP3 SUB PUSH1 0x20 DUP7 ADD MSTORE PUSH2 0x1A72 DUP3 DUP3 PUSH2 0x1841 JUMP JUMPDEST SWAP2 POP POP PUSH1 0x40 DUP4 ADD MLOAD PUSH2 0x1A87 PUSH1 0x40 DUP7 ADD DUP3 PUSH2 0x1879 JUMP JUMPDEST POP PUSH1 0x60 DUP4 ADD MLOAD PUSH2 0x1A9A PUSH1 0x60 DUP7 ADD DUP3 PUSH2 0x18BF JUMP JUMPDEST POP PUSH1 0x80 DUP4 ADD MLOAD PUSH2 0x1AAD PUSH1 0x80 DUP7 ADD DUP3 PUSH2 0x1879 JUMP JUMPDEST POP PUSH1 0xA0 DUP4 ADD MLOAD PUSH2 0x1AC0 PUSH1 0xA0 DUP7 ADD DUP3 PUSH2 0x18CE JUMP JUMPDEST POP PUSH1 0xC0 DUP4 ADD MLOAD PUSH2 0x1AD3 PUSH1 0xC0 DUP7 ADD DUP3 PUSH2 0x1879 JUMP JUMPDEST POP DUP1 SWAP2 POP POP SWAP3 SWAP2 POP POP JUMP JUMPDEST PUSH0 PUSH2 0x1AE9 DUP4 DUP4 PUSH2 0x1A3E JUMP JUMPDEST SWAP1 POP SWAP3 SWAP2 POP POP JUMP JUMPDEST PUSH0 PUSH1 0x20 DUP3 ADD SWAP1 POP SWAP2 SWAP1 POP JUMP JUMPDEST PUSH0 PUSH2 0x1B07 DUP3 PUSH2 0x1A15 JUMP JUMPDEST PUSH2 0x1B11 DUP2 DUP6 PUSH2 0x1A1F JUMP JUMPDEST SWAP4 POP DUP4 PUSH1 0x20 DUP3 MUL DUP6 ADD PUSH2 0x1B23 DUP6 PUSH2 0x1A2F JUMP JUMPDEST DUP1 PUSH0 JUMPDEST DUP6 DUP2 LT ISZERO PUSH2 0x1B5E JUMPI DUP5 DUP5 SUB DUP10 MSTORE DUP2 MLOAD PUSH2 0x1B3F DUP6 DUP3 PUSH2 0x1ADE JUMP JUMPDEST SWAP5 POP PUSH2 0x1B4A DUP4 PUSH2 0x1AF1 JUMP JUMPDEST SWAP3 POP PUSH1 0x20 DUP11 ADD SWAP10 POP POP PUSH1 0x1 DUP2 ADD SWAP1 POP PUSH2 0x1B26 JUMP JUMPDEST POP DUP3 SWAP8 POP DUP8 SWAP6 POP POP POP POP POP POP SWAP3 SWAP2 POP POP JUMP JUMPDEST PUSH0 PUSH1 0x20 DUP3 ADD SWAP1 POP DUP2 DUP2 SUB PUSH0 DUP4 ADD MSTORE PUSH2 0x1B88 DUP2 DUP5 PUSH2 0x1AFD JUMP JUMPDEST SWAP1 POP SWAP3 SWAP2 POP POP JUMP JUMPDEST PUSH0 DUP3 DUP3 MSTORE PUSH1 0x20 DUP3 ADD SWAP1 POP SWAP3 SWAP2 POP POP JUMP JUMPDEST PUSH32 0x566F74696E672074696D65206973206F76657200000000000000000000000000 PUSH0 DUP3 ADD MSTORE POP JUMP JUMPDEST PUSH0 PUSH2 0x1BD4 PUSH1 0x13 DUP4 PUSH2 0x1B90 JUMP JUMPDEST SWAP2 POP PUSH2 0x1BDF DUP3 PUSH2 0x1BA0 JUMP JUMPDEST PUSH1 0x20 DUP3 ADD SWAP1 POP SWAP2 SWAP1 POP JUMP JUMPDEST PUSH0 PUSH1 0x20 DUP3 ADD SWAP1 POP DUP2 DUP2 SUB PUSH0 DUP4 ADD MSTORE PUSH2 0x1C01 DUP2 PUSH2 0x1BC8 JUMP JUMPDEST SWAP1 POP SWAP2 SWAP1 POP JUMP JUMPDEST PUSH0 DUP2 MLOAD SWAP1 POP PUSH2 0x1C16 DUP2 PUSH2 0x1488 JUMP JUMPDEST SWAP3 SWAP2 POP POP JUMP JUMPDEST PUSH0 PUSH1 0x20 DUP3 DUP5 SUB SLT ISZERO PUSH2 0x1C31 JUMPI PUSH2 0x1C30 PUSH2 0x1477 JUMP JUMPDEST JUMPDEST PUSH0 PUSH2 0x1C3E DUP5 DUP3 DUP6 ADD PUSH2 0x1C08 JUMP JUMPDEST SWAP2 POP POP SWAP3 SWAP2 POP POP JUMP JUMPDEST PUSH32 0x6E6F7420616C6C6F776564000000000000000000000000000000000000000000 PUSH0 DUP3 ADD MSTORE POP JUMP JUMPDEST PUSH0 PUSH2 0x1C7B PUSH1 0xB DUP4 PUSH2 0x1B90 JUMP JUMPDEST SWAP2 POP PUSH2 0x1C86 DUP3 PUSH2 0x1C47 JUMP JUMPDEST PUSH1 0x20 DUP3 ADD SWAP1 POP SWAP2 SWAP1 POP JUMP JUMPDEST PUSH0 PUSH1 0x20 DUP3 ADD SWAP1 POP DUP2 DUP2 SUB PUSH0 DUP4 ADD MSTORE PUSH2 0x1CA8 DUP2 PUSH2 0x1C6F JUMP JUMPDEST SWAP1 POP SWAP2 SWAP1 POP JUMP JUMPDEST PUSH32 0x566F74696E6720686173206E6F74207374617274656420796574000000000000 PUSH0 DUP3 ADD MSTORE POP JUMP JUMPDEST PUSH0 PUSH2 0x1CE3 PUSH1 0x1A DUP4 PUSH2 0x1B90 JUMP JUMPDEST SWAP2 POP PUSH2 0x1CEE DUP3 PUSH2 0x1CAF JUMP JUMPDEST PUSH1 0x20 DUP3 ADD SWAP1 POP SWAP2 SWAP1 POP JUMP JUMPDEST PUSH0 PUSH1 0x20 DUP3 ADD SWAP1 POP DUP2 DUP2 SUB PUSH0 DUP4 ADD MSTORE PUSH2 0x1D10 DUP2 PUSH2 0x1CD7 JUMP JUMPDEST SWAP1 POP SWAP2 SWAP1 POP JUMP JUMPDEST PUSH32 0x596F75206861766520616C726561647920766F74656400000000000000000000 PUSH0 DUP3 ADD MSTORE POP JUMP JUMPDEST PUSH0 PUSH2 0x1D4B PUSH1 0x16 DUP4 PUSH2 0x1B90 JUMP JUMPDEST SWAP2 POP PUSH2 0x1D56 DUP3 PUSH2 0x1D17 JUMP JUMPDEST PUSH1 0x20 DUP3 ADD SWAP1 POP SWAP2 SWAP1 POP JUMP JUMPDEST PUSH0 PUSH1 0x20 DUP3 ADD SWAP1 POP DUP2 DUP2 SUB PUSH0 DUP4 ADD MSTORE PUSH2 0x1D78 DUP2 PUSH2 0x1D3F JUMP JUMPDEST SWAP1 POP SWAP2 SWAP1 POP JUMP JUMPDEST PUSH32 0x596F7520617265206E6F7420617574686F7572697A6564000000000000000000 PUSH0 DUP3 ADD MSTORE POP JUMP JUMPDEST PUSH0 PUSH2 0x1DB3 PUSH1 0x17 DUP4 PUSH2 0x1B90 JUMP JUMPDEST SWAP2 POP PUSH2 0x1DBE DUP3 PUSH2 0x1D7F JUMP JUMPDEST PUSH1 0x20 DUP3 ADD SWAP1 POP SWAP2 SWAP1 POP JUMP JUMPDEST PUSH0 PUSH1 0x20 DUP3 ADD SWAP1 POP DUP2 DUP2 SUB PUSH0 DUP4 ADD MSTORE PUSH2 0x1DE0 DUP2 PUSH2 0x1DA7 JUMP JUMPDEST SWAP1 POP SWAP2 SWAP1 POP JUMP JUMPDEST PUSH32 0x43616E646964617465204964206973206E6F7420636F72726563740000000000 PUSH0 DUP3 ADD MSTORE POP JUMP JUMPDEST PUSH0 PUSH2 0x1E1B PUSH1 0x1B DUP4 PUSH2 0x1B90 JUMP JUMPDEST SWAP2 POP PUSH2 0x1E26 DUP3 PUSH2 0x1DE7 JUMP JUMPDEST PUSH1 0x20 DUP3 ADD SWAP1 POP SWAP2 SWAP1 POP JUMP JUMPDEST PUSH0 PUSH1 0x20 DUP3 ADD SWAP1 POP DUP2 DUP2 SUB PUSH0 DUP4 ADD MSTORE PUSH2 0x1E48 DUP2 PUSH2 0x1E0F JUMP JUMPDEST SWAP1 POP SWAP2 SWAP1 POP JUMP JUMPDEST PUSH32 0x4E487B7100000000000000000000000000000000000000000000000000000000 PUSH0 MSTORE PUSH1 0x11 PUSH1 0x4 MSTORE PUSH1 0x24 PUSH0 REVERT JUMPDEST PUSH0 PUSH2 0x1E86 DUP3 PUSH2 0x147F JUMP JUMPDEST SWAP2 POP PUSH32 0xFFFFFFFFFFFFFFFFFFFFFFFFFFFFFFFFFFFFFFFFFFFFFFFFFFFFFFFFFFFFFFFF DUP3 SUB PUSH2 0x1EB8 JUMPI PUSH2 0x1EB7 PUSH2 0x1E4F JUMP JUMPDEST JUMPDEST PUSH1 0x1 DUP3 ADD SWAP1 POP SWAP2 SWAP1 POP JUMP JUMPDEST PUSH32 0x4E6F742061757468756F72697A65640000000000000000000000000000000000 PUSH0 DUP3 ADD MSTORE POP JUMP JUMPDEST PUSH0 PUSH2 0x1EF7 PUSH1 0xF DUP4 PUSH2 0x1B90 JUMP JUMPDEST SWAP2 POP PUSH2 0x1F02 DUP3 PUSH2 0x1EC3 JUMP JUMPDEST PUSH1 0x20 DUP3 ADD SWAP1 POP SWAP2 SWAP1 POP JUMP JUMPDEST PUSH0 PUSH1 0x20 DUP3 ADD SWAP1 POP DUP2 DUP2 SUB PUSH0 DUP4 ADD MSTORE PUSH2 0x1F24 DUP2 PUSH2 0x1EEB JUMP JUMPDEST SWAP1 POP SWAP2 SWAP1 POP JUMP JUMPDEST PUSH32 0x6E6F7420656C696769626C6520666F7220766F74696E67000000000000000000 PUSH0 DUP3 ADD MSTORE POP JUMP JUMPDEST PUSH0 PUSH2 0x1F5F PUSH1 0x17 DUP4 PUSH2 0x1B90 JUMP JUMPDEST SWAP2 POP PUSH2 0x1F6A DUP3 PUSH2 0x1F2B JUMP JUMPDEST PUSH1 0x20 DUP3 ADD SWAP1 POP SWAP2 SWAP1 POP JUMP JUMPDEST PUSH0 PUSH1 0x20 DUP3 ADD SWAP1 POP DUP2 DUP2 SUB PUSH0 DUP4 ADD MSTORE PUSH2 0x1F8C DUP2 PUSH2 0x1F53 JUMP JUMPDEST SWAP1 POP SWAP2 SWAP1 POP JUMP JUMPDEST PUSH32 0x596F752061726520616C72656164792072656769737465726564000000000000 PUSH0 DUP3 ADD MSTORE POP JUMP JUMPDEST PUSH0 PUSH2 0x1FC7 PUSH1 0x1A DUP4 PUSH2 0x1B90 JUMP JUMPDEST SWAP2 POP PUSH2 0x1FD2 DUP3 PUSH2 0x1F93 JUMP JUMPDEST PUSH1 0x20 DUP3 ADD SWAP1 POP SWAP2 SWAP1 POP JUMP JUMPDEST PUSH0 PUSH1 0x20 DUP3 ADD SWAP1 POP DUP2 DUP2 SUB PUSH0 DUP4 ADD MSTORE PUSH2 0x1FF4 DUP2 PUSH2 0x1FBB JUMP JUMPDEST SWAP1 POP SWAP2 SWAP1 POP JUMP JUMPDEST PUSH32 0x4E487B7100000000000000000000000000000000000000000000000000000000 PUSH0 MSTORE PUSH1 0x41 PUSH1 0x4 MSTORE PUSH1 0x24 PUSH0 REVERT JUMPDEST PUSH32 0x4E487B7100000000000000000000000000000000000000000000000000000000 PUSH0 MSTORE PUSH1 0x22 PUSH1 0x4 MSTORE PUSH1 0x24 PUSH0 REVERT JUMPDEST PUSH0 PUSH1 0x2 DUP3 DIV SWAP1 POP PUSH1 0x1 DUP3 AND DUP1 PUSH2 0x206C JUMPI PUSH1 0x7F DUP3 AND SWAP2 POP JUMPDEST PUSH1 0x20 DUP3 LT DUP2 SUB PUSH2 0x207F JUMPI PUSH2 0x207E PUSH2 0x2028 JUMP JUMPDEST JUMPDEST POP SWAP2 SWAP1 POP JUMP JUMPDEST PUSH0 DUP2 SWAP1 POP DUP2 PUSH0 MSTORE PUSH1 0x20 PUSH0 KECCAK256 SWAP1 POP SWAP2 SWAP1 POP JUMP JUMPDEST PUSH0 PUSH1 0x20 PUSH1 0x1F DUP4 ADD DIV SWAP1 POP SWAP2 SWAP1 POP JUMP JUMPDEST PUSH0 DUP3 DUP3 SHL SWAP1 POP SWAP3 SWAP2 POP POP JUMP JUMPDEST PUSH0 PUSH1 0x8 DUP4 MUL PUSH2 0x20E1 PUSH32 0xFFFFFFFFFFFFFFFFFFFFFFFFFFFFFFFFFFFFFFFFFFFFFFFFFFFFFFFFFFFFFFFF DUP3 PUSH2 0x20A6 JUMP JUMPDEST PUSH2 0x20EB DUP7 DUP4 PUSH2 0x20A6 JUMP JUMPDEST SWAP6 POP DUP1 NOT DUP5 AND SWAP4 POP DUP1 DUP7 AND DUP5 OR SWAP3 POP POP POP SWAP4 SWAP3 POP POP POP JUMP JUMPDEST PUSH0 PUSH2 0x211D PUSH2 0x2118 PUSH2 0x2113 DUP5 PUSH2 0x147F JUMP JUMPDEST PUSH2 0x1733 JUMP JUMPDEST PUSH2 0x147F JUMP JUMPDEST SWAP1 POP SWAP2 SWAP1 POP JUMP JUMPDEST PUSH0 DUP2 SWAP1 POP SWAP2 SWAP1 POP JUMP JUMPDEST PUSH2 0x2136 DUP4 PUSH2 0x2103 JUMP JUMPDEST PUSH2 0x214A PUSH2 0x2142 DUP3 PUSH2 0x2124 JUMP JUMPDEST DUP5 DUP5 SLOAD PUSH2 0x20B2 JUMP JUMPDEST DUP3 SSTORE POP POP POP POP JUMP JUMPDEST PUSH0 SWAP1 JUMP JUMPDEST PUSH2 0x215E PUSH2 0x2152 JUMP JUMPDEST PUSH2 0x2169 DUP2 DUP5 DUP5 PUSH2 0x212D JUMP JUMPDEST POP POP POP JUMP JUMPDEST JUMPDEST DUP2 DUP2 LT ISZERO PUSH2 0x218C JUMPI PUSH2 0x2181 PUSH0 DUP3 PUSH2 0x2156 JUMP JUMPDEST PUSH1 0x1 DUP2 ADD SWAP1 POP PUSH2 0x216F JUMP JUMPDEST POP POP JUMP JUMPDEST PUSH1 0x1F DUP3 GT ISZERO PUSH2 0x21D1 JUMPI PUSH2 0x21A2 DUP2 PUSH2 0x2085 JUMP JUMPDEST PUSH2 0x21AB DUP5 PUSH2 0x2097 JUMP JUMPDEST DUP2 ADD PUSH1 0x20 DUP6 LT ISZERO PUSH2 0x21BA JUMPI DUP2 SWAP1 POP JUMPDEST PUSH2 0x21CE PUSH2 0x21C6 DUP6 PUSH2 0x2097 JUMP JUMPDEST DUP4 ADD DUP3 PUSH2 0x216E JUMP JUMPDEST POP POP JUMPDEST POP POP POP JUMP JUMPDEST PUSH0 DUP3 DUP3 SHR SWAP1 POP SWAP3 SWAP2 POP POP JUMP JUMPDEST PUSH0 PUSH2 0x21F1 PUSH0 NOT DUP5 PUSH1 0x8 MUL PUSH2 0x21D6 JUMP JUMPDEST NOT DUP1 DUP4 AND SWAP2 POP POP SWAP3 SWAP2 POP POP JUMP JUMPDEST PUSH0 PUSH2 0x2209 DUP4 DUP4 PUSH2 0x21E2 JUMP JUMPDEST SWAP2 POP DUP3 PUSH1 0x2 MUL DUP3 OR SWAP1 POP SWAP3 SWAP2 POP POP JUMP JUMPDEST PUSH2 0x2222 DUP3 PUSH2 0x1809 JUMP JUMPDEST PUSH8 0xFFFFFFFFFFFFFFFF DUP2 GT ISZERO PUSH2 0x223B JUMPI PUSH2 0x223A PUSH2 0x1FFB JUMP JUMPDEST JUMPDEST PUSH2 0x2245 DUP3 SLOAD PUSH2 0x2055 JUMP JUMPDEST PUSH2 0x2250 DUP3 DUP3 DUP6 PUSH2 0x2190 JUMP JUMPDEST PUSH0 PUSH1 0x20 SWAP1 POP PUSH1 0x1F DUP4 GT PUSH1 0x1 DUP2 EQ PUSH2 0x2281 JUMPI PUSH0 DUP5 ISZERO PUSH2 0x226F JUMPI DUP3 DUP8 ADD MLOAD SWAP1 POP JUMPDEST PUSH2 0x2279 DUP6 DUP3 PUSH2 0x21FE JUMP JUMPDEST DUP7 SSTORE POP PUSH2 0x22E0 JUMP JUMPDEST PUSH1 0x1F NOT DUP5 AND PUSH2 0x228F DUP7 PUSH2 0x2085 JUMP JUMPDEST PUSH0 JUMPDEST DUP3 DUP2 LT ISZERO PUSH2 0x22B6 JUMPI DUP5 DUP10 ADD MLOAD DUP3 SSTORE PUSH1 0x1 DUP3 ADD SWAP2 POP PUSH1 0x20 DUP6 ADD SWAP5 POP PUSH1 0x20 DUP2 ADD SWAP1 POP PUSH2 0x2291 JUMP JUMPDEST DUP7 DUP4 LT ISZERO PUSH2 0x22D3 JUMPI DUP5 DUP10 ADD MLOAD PUSH2 0x22CF PUSH1 0x1F DUP10 AND DUP3 PUSH2 0x21E2 JUMP JUMPDEST DUP4 SSTORE POP JUMPDEST PUSH1 0x1 PUSH1 0x2 DUP9 MUL ADD DUP9 SSTORE POP POP POP JUMPDEST POP POP POP POP POP POP JUMP JUMPDEST PUSH32 0x43616E64696461746520526567697374726174696F6E2046756C6C0000000000 PUSH0 DUP3 ADD MSTORE POP JUMP JUMPDEST PUSH0 PUSH2 0x231C PUSH1 0x1B DUP4 PUSH2 0x1B90 JUMP JUMPDEST SWAP2 POP PUSH2 0x2327 DUP3 PUSH2 0x22E8 JUMP JUMPDEST PUSH1 0x20 DUP3 ADD SWAP1 POP SWAP2 SWAP1 POP JUMP JUMPDEST PUSH0 PUSH1 0x20 DUP3 ADD SWAP1 POP DUP2 DUP2 SUB PUSH0 DUP4 ADD MSTORE PUSH2 0x2349 DUP2 PUSH2 0x2310 JUMP JUMPDEST SWAP1 POP SWAP2 SWAP1 POP JUMP JUMPDEST PUSH32 0x456C656374696F6E20436F6D6D6973696F6E206E6F7420616C6C6F7765642074 PUSH0 DUP3 ADD MSTORE PUSH32 0x6F20726567697374657200000000000000000000000000000000000000000000 PUSH1 0x20 DUP3 ADD MSTORE POP JUMP JUMPDEST PUSH0 PUSH2 0x23AA PUSH1 0x2A DUP4 PUSH2 0x1B90 JUMP JUMPDEST SWAP2 POP PUSH2 0x23B5 DUP3 PUSH2 0x2350 JUMP JUMPDEST PUSH1 0x40 DUP3 ADD SWAP1 POP SWAP2 SWAP1 POP JUMP JUMPDEST PUSH0 PUSH1 0x20 DUP3 ADD SWAP1 POP DUP2 DUP2 SUB PUSH0 DUP4 ADD MSTORE PUSH2 0x23D7 DUP2 PUSH2 0x239E JUMP JUMPDEST SWAP1 POP SWAP2 SWAP1 POP JUMP JUMPDEST PUSH32 0x5F656E6454696D654475726174696F6E206D7573742062652067726561746572 PUSH0 DUP3 ADD MSTORE PUSH32 0x207468616E203120686F75720000000000000000000000000000000000000000 PUSH1 0x20 DUP3 ADD MSTORE POP JUMP JUMPDEST PUSH0 PUSH2 0x2438 PUSH1 0x2C DUP4 PUSH2 0x1B90 JUMP JUMPDEST SWAP2 POP PUSH2 0x2443 DUP3 PUSH2 0x23DE JUMP JUMPDEST PUSH1 0x40 DUP3 ADD SWAP1 POP SWAP2 SWAP1 POP JUMP JUMPDEST PUSH0 PUSH1 0x20 DUP3 ADD SWAP1 POP DUP2 DUP2 SUB PUSH0 DUP4 ADD MSTORE PUSH2 0x2465 DUP2 PUSH2 0x242C JUMP JUMPDEST SWAP1 POP SWAP2 SWAP1 POP JUMP JUMPDEST PUSH0 PUSH2 0x2476 DUP3 PUSH2 0x147F JUMP JUMPDEST SWAP2 POP PUSH2 0x2481 DUP4 PUSH2 0x147F JUMP JUMPDEST SWAP3 POP DUP3 DUP3 ADD SWAP1 POP DUP1 DUP3 GT ISZERO PUSH2 0x2499 JUMPI PUSH2 0x2498 PUSH2 0x1E4F JUMP JUMPDEST JUMPDEST SWAP3 SWAP2 POP POP JUMP JUMPDEST PUSH0 PUSH2 0x24A9 DUP3 PUSH2 0x147F JUMP JUMPDEST SWAP2 POP PUSH2 0x24B4 DUP4 PUSH2 0x147F JUMP JUMPDEST SWAP3 POP DUP3 DUP3 SUB SWAP1 POP DUP2 DUP2 GT ISZERO PUSH2 0x24CC JUMPI PUSH2 0x24CB PUSH2 0x1E4F JUMP JUMPDEST JUMPDEST SWAP3 SWAP2 POP POP JUMP JUMPDEST PUSH32 0x4E487B7100000000000000000000000000000000000000000000000000000000 PUSH0 MSTORE PUSH1 0x32 PUSH1 0x4 MSTORE PUSH1 0x24 PUSH0 REVERT INVALID LOG2 PUSH5 0x6970667358 0x22 SLT KECCAK256 MOD PC 0xDD SWAP13 0xCB JUMP PUSH25 0x4E2CA48E1654AFE2276C8F5970AABA6DCE66AC896D407FC937 PUSH5 0x736F6C6343 STOP ADDMOD BYTE STOP CALLER "
				},
				"gasEstimates": {
					"creation": {
						"codeDepositCost": "1905000",
						"executionCost": "infinite",
						"totalCost": "infinite"
					},
					"external": {
						"announceVotingResult()": "infinite",
						"castVote(uint256,uint256)": "infinite",
						"electionCommission()": "2549",
						"emergencyStopVoting()": "26575",
						"getCandidateList()": "infinite",
						"getVoterList()": "infinite",
						"getVotingStatus()": "6885",
						"gldToken()": "infinite",
						"registerCandidate(string,string,uint256,uint8)": "infinite",
						"registerVoter(string,uint256,uint8)": "infinite",
						"setVotingPeriod(uint256,uint256)": "infinite",
						"winner()": "2596"
					},
					"internal": {
						"isCandidateNotRegistered(address)": "infinite",
						"isVoterNotRegistered(address)": "infinite"
					}
				},
				"methodIdentifiers": {
					"announceVotingResult()": "6ce2ccc0",
					"castVote(uint256,uint256)": "2c0a3f89",
					"electionCommission()": "aab46b7f",
					"emergencyStopVoting()": "9fa4e440",
					"getCandidateList()": "fdbc4006",
					"getVoterList()": "b28d92ae",
					"getVotingStatus()": "581c281c",
					"gldToken()": "9939b8b2",
					"registerCandidate(string,string,uint256,uint8)": "982c777d",
					"registerVoter(string,uint256,uint8)": "81ba732f",
					"setVotingPeriod(uint256,uint256)": "a15a36c7",
					"winner()": "dfbf53ae"
				}
			},
			"storageLayout": {
				"storage": [
					{
						"astId": 112,
						"contract": "votingERC.sol:Vote",
						"label": "electionCommission",
						"offset": 0,
						"slot": "0",
						"type": "t_address"
					},
					{
						"astId": 114,
						"contract": "votingERC.sol:Vote",
						"label": "winner",
						"offset": 0,
						"slot": "1",
						"type": "t_address"
					},
					{
						"astId": 117,
						"contract": "votingERC.sol:Vote",
						"label": "nextVoterId",
						"offset": 0,
						"slot": "2",
						"type": "t_uint256"
					},
					{
						"astId": 120,
						"contract": "votingERC.sol:Vote",
						"label": "nextCandidateId",
						"offset": 0,
						"slot": "3",
						"type": "t_uint256"
					},
					{
						"astId": 122,
						"contract": "votingERC.sol:Vote",
						"label": "startTime",
						"offset": 0,
						"slot": "4",
						"type": "t_uint256"
					},
					{
						"astId": 124,
						"contract": "votingERC.sol:Vote",
						"label": "endTime",
						"offset": 0,
						"slot": "5",
						"type": "t_uint256"
					},
					{
						"astId": 126,
						"contract": "votingERC.sol:Vote",
						"label": "stopVoting",
						"offset": 0,
						"slot": "6",
						"type": "t_bool"
					},
					{
						"astId": 131,
						"contract": "votingERC.sol:Vote",
						"label": "voterDetails",
						"offset": 0,
						"slot": "7",
						"type": "t_mapping(t_uint256,t_struct(Voter)94_storage)"
					},
					{
						"astId": 136,
						"contract": "votingERC.sol:Vote",
						"label": "candidateDetails",
						"offset": 0,
						"slot": "8",
						"type": "t_mapping(t_uint256,t_struct(Candidate)110_storage)"
					},
					{
						"astId": 139,
						"contract": "votingERC.sol:Vote",
						"label": "gldToken",
						"offset": 0,
						"slot": "9",
						"type": "t_contract(IERC20)77"
					}
				],
				"types": {
					"t_address": {
						"encoding": "inplace",
						"label": "address",
						"numberOfBytes": "20"
					},
					"t_bool": {
						"encoding": "inplace",
						"label": "bool",
						"numberOfBytes": "1"
					},
					"t_contract(IERC20)77": {
						"encoding": "inplace",
						"label": "contract IERC20",
						"numberOfBytes": "20"
					},
					"t_enum(Gender)148": {
						"encoding": "inplace",
						"label": "enum Vote.Gender",
						"numberOfBytes": "1"
					},
					"t_mapping(t_uint256,t_struct(Candidate)110_storage)": {
						"encoding": "mapping",
						"key": "t_uint256",
						"label": "mapping(uint256 => struct Vote.Candidate)",
						"numberOfBytes": "32",
						"value": "t_struct(Candidate)110_storage"
					},
					"t_mapping(t_uint256,t_struct(Voter)94_storage)": {
						"encoding": "mapping",
						"key": "t_uint256",
						"label": "mapping(uint256 => struct Vote.Voter)",
						"numberOfBytes": "32",
						"value": "t_struct(Voter)94_storage"
					},
					"t_string_storage": {
						"encoding": "bytes",
						"label": "string",
						"numberOfBytes": "32"
					},
					"t_struct(Candidate)110_storage": {
						"encoding": "inplace",
						"label": "struct Vote.Candidate",
						"members": [
							{
								"astId": 96,
								"contract": "votingERC.sol:Vote",
								"label": "name",
								"offset": 0,
								"slot": "0",
								"type": "t_string_storage"
							},
							{
								"astId": 98,
								"contract": "votingERC.sol:Vote",
								"label": "party",
								"offset": 0,
								"slot": "1",
								"type": "t_string_storage"
							},
							{
								"astId": 100,
								"contract": "votingERC.sol:Vote",
								"label": "age",
								"offset": 0,
								"slot": "2",
								"type": "t_uint256"
							},
							{
								"astId": 103,
								"contract": "votingERC.sol:Vote",
								"label": "gender",
								"offset": 0,
								"slot": "3",
								"type": "t_enum(Gender)148"
							},
							{
								"astId": 105,
								"contract": "votingERC.sol:Vote",
								"label": "candidateId",
								"offset": 0,
								"slot": "4",
								"type": "t_uint256"
							},
							{
								"astId": 107,
								"contract": "votingERC.sol:Vote",
								"label": "candidateAddress",
								"offset": 0,
								"slot": "5",
								"type": "t_address"
							},
							{
								"astId": 109,
								"contract": "votingERC.sol:Vote",
								"label": "votes",
								"offset": 0,
								"slot": "6",
								"type": "t_uint256"
							}
						],
						"numberOfBytes": "224"
					},
					"t_struct(Voter)94_storage": {
						"encoding": "inplace",
						"label": "struct Vote.Voter",
						"members": [
							{
								"astId": 82,
								"contract": "votingERC.sol:Vote",
								"label": "name",
								"offset": 0,
								"slot": "0",
								"type": "t_string_storage"
							},
							{
								"astId": 84,
								"contract": "votingERC.sol:Vote",
								"label": "age",
								"offset": 0,
								"slot": "1",
								"type": "t_uint256"
							},
							{
								"astId": 86,
								"contract": "votingERC.sol:Vote",
								"label": "voterId",
								"offset": 0,
								"slot": "2",
								"type": "t_uint256"
							},
							{
								"astId": 89,
								"contract": "votingERC.sol:Vote",
								"label": "gender",
								"offset": 0,
								"slot": "3",
								"type": "t_enum(Gender)148"
							},
							{
								"astId": 91,
								"contract": "votingERC.sol:Vote",
								"label": "voteCandidateId",
								"offset": 0,
								"slot": "4",
								"type": "t_uint256"
							},
							{
								"astId": 93,
								"contract": "votingERC.sol:Vote",
								"label": "voterAddress",
								"offset": 0,
								"slot": "5",
								"type": "t_address"
							}
						],
						"numberOfBytes": "192"
					},
					"t_uint256": {
						"encoding": "inplace",
						"label": "uint256",
						"numberOfBytes": "32"
					}
				}
			},
			"userdoc": {
				"kind": "user",
				"methods": {},
				"version": 1
			}
		}
	}
}