{
	"slots.sol": {
		"Demo": {
			"abi": [
				{
					"inputs": [
						{
							"internalType": "address",
							"name": "",
							"type": "address"
						}
					],
					"name": "banana",
					"outputs": [
						{
							"internalType": "uint256",
							"name": "",
							"type": "uint256"
						}
					],
					"stateMutability": "view",
					"type": "function"
				},
				{
					"inputs": [],
					"name": "data",
					"outputs": [
						{
							"internalType": "bytes16",
							"name": "",
							"type": "bytes16"
						}
					],
					"stateMutability": "view",
					"type": "function"
				},
				{
					"inputs": [],
					"name": "getSlots",
					"outputs": [
						{
							"internalType": "uint256",
							"name": "num1Slot",
							"type": "uint256"
						},
						{
							"internalType": "uint256",
							"name": "userSlot",
							"type": "uint256"
						},
						{
							"internalType": "uint256",
							"name": "num2Slot",
							"type": "uint256"
						},
						{
							"internalType": "uint256",
							"name": "valuelSlot",
							"type": "uint256"
						},
						{
							"internalType": "uint256",
							"name": "value2Slot",
							"type": "uint256"
						},
						{
							"internalType": "uint256",
							"name": "value3Slot",
							"type": "uint256"
						},
						{
							"internalType": "uint256",
							"name": "dataSlot",
							"type": "uint256"
						},
						{
							"internalType": "uint256",
							"name": "bananaSlot",
							"type": "uint256"
						}
					],
					"stateMutability": "pure",
					"type": "function"
				},
				{
					"inputs": [],
					"name": "num1",
					"outputs": [
						{
							"internalType": "uint256",
							"name": "",
							"type": "uint256"
						}
					],
					"stateMutability": "view",
					"type": "function"
				},
				{
					"inputs": [],
					"name": "num2",
					"outputs": [
						{
							"internalType": "uint8",
							"name": "",
							"type": "uint8"
						}
					],
					"stateMutability": "view",
					"type": "function"
				},
				{
					"inputs": [],
					"name": "user",
					"outputs": [
						{
							"internalType": "address",
							"name": "",
							"type": "address"
						}
					],
					"stateMutability": "view",
					"type": "function"
				},
				{
					"inputs": [],
					"name": "value2",
					"outputs": [
						{
							"internalType": "bool",
							"name": "",
							"type": "bool"
						}
					],
					"stateMutability": "view",
					"type": "function"
				},
				{
					"inputs": [],
					"name": "value3",
					"outputs": [
						{
							"internalType": "bool",
							"name": "",
							"type": "bool"
						}
					],
					"stateMutability": "view",
					"type": "function"
				},
				{
					"inputs": [],
					"name": "valuel",
					"outputs": [
						{
							"internalType": "bool",
							"name": "",
							"type": "bool"
						}
					],
					"stateMutability": "view",
					"type": "function"
				}
			],
			"devdoc": {
				"kind": "dev",
				"methods": {},
				"version": 1
			},
			"evm": {
				"assembly": "    /* \"slots.sol\":63:966  contract Demo {... */\n  mstore(0x40, 0x80)\n  callvalue\n  dup1\n  iszero\n  tag_1\n  jumpi\n  0x00\n  dup1\n  revert\ntag_1:\n  pop\n  dataSize(sub_0)\n  dup1\n  dataOffset(sub_0)\n  0x00\n  codecopy\n  0x00\n  return\nstop\n\nsub_0: assembly {\n        /* \"slots.sol\":63:966  contract Demo {... */\n      mstore(0x40, 0x80)\n      callvalue\n      dup1\n      iszero\n      tag_1\n      jumpi\n      0x00\n      dup1\n      revert\n    tag_1:\n      pop\n      jumpi(tag_2, lt(calldatasize, 0x04))\n      shr(0xe0, calldataload(0x00))\n      dup1\n      0x4f8632ba\n      gt\n      tag_12\n      jumpi\n      dup1\n      0x4f8632ba\n      eq\n      tag_7\n      jumpi\n      dup1\n      0x5d33a27f\n      eq\n      tag_8\n      jumpi\n      dup1\n      0x73d4a13a\n      eq\n      tag_9\n      jumpi\n      dup1\n      0xaef52a2c\n      eq\n      tag_10\n      jumpi\n      dup1\n      0xfab2c469\n      eq\n      tag_11\n      jumpi\n      jump(tag_2)\n    tag_12:\n      dup1\n      0x0bf95b15\n      eq\n      tag_3\n      jumpi\n      dup1\n      0x15d4266c\n      eq\n      tag_4\n      jumpi\n      dup1\n      0x39f69c77\n      eq\n      tag_5\n      jumpi\n      dup1\n      0x3b9eac4b\n      eq\n      tag_6\n      jumpi\n    tag_2:\n      0x00\n      dup1\n      revert\n        /* \"slots.sol\":183:201  bool public valuel */\n    tag_3:\n      tag_13\n      tag_14\n      jump\t// in\n    tag_13:\n      mload(0x40)\n      tag_15\n      swap2\n      swap1\n      tag_16\n      jump\t// in\n    tag_15:\n      mload(0x40)\n      dup1\n      swap2\n      sub\n      swap1\n      return\n        /* \"slots.sol\":151:168  uint8 public num2 */\n    tag_4:\n      tag_17\n      tag_18\n      jump\t// in\n    tag_17:\n      mload(0x40)\n      tag_19\n      swap2\n      swap1\n      tag_20\n      jump\t// in\n    tag_19:\n      mload(0x40)\n      dup1\n      swap2\n      sub\n      swap1\n      return\n        /* \"slots.sol\":312:351  mapping (address => uint) public banana */\n    tag_5:\n      tag_21\n      0x04\n      dup1\n      calldatasize\n      sub\n      dup2\n      add\n      swap1\n      tag_22\n      swap2\n      swap1\n      tag_23\n      jump\t// in\n    tag_22:\n      tag_24\n      jump\t// in\n    tag_21:\n      mload(0x40)\n      tag_25\n      swap2\n      swap1\n      tag_26\n      jump\t// in\n    tag_25:\n      mload(0x40)\n      dup1\n      swap2\n      sub\n      swap1\n      return\n        /* \"slots.sol\":84:103  uint256 public num1 */\n    tag_6:\n      tag_27\n      tag_28\n      jump\t// in\n    tag_27:\n      mload(0x40)\n      tag_29\n      swap2\n      swap1\n      tag_26\n      jump\t// in\n    tag_29:\n      mload(0x40)\n      dup1\n      swap2\n      sub\n      swap1\n      return\n        /* \"slots.sol\":118:137  address public user */\n    tag_7:\n      tag_30\n      tag_31\n      jump\t// in\n    tag_30:\n      mload(0x40)\n      tag_32\n      swap2\n      swap1\n      tag_33\n      jump\t// in\n    tag_32:\n      mload(0x40)\n      dup1\n      swap2\n      sub\n      swap1\n      return\n        /* \"slots.sol\":215:233  bool public value2 */\n    tag_8:\n      tag_34\n      tag_35\n      jump\t// in\n    tag_34:\n      mload(0x40)\n      tag_36\n      swap2\n      swap1\n      tag_16\n      jump\t// in\n    tag_36:\n      mload(0x40)\n      dup1\n      swap2\n      sub\n      swap1\n      return\n        /* \"slots.sol\":279:298  bytes16 public data */\n    tag_9:\n      tag_37\n      tag_38\n      jump\t// in\n    tag_37:\n      mload(0x40)\n      tag_39\n      swap2\n      swap1\n      tag_40\n      jump\t// in\n    tag_39:\n      mload(0x40)\n      dup1\n      swap2\n      sub\n      swap1\n      return\n        /* \"slots.sol\":247:265  bool public value3 */\n    tag_10:\n      tag_41\n      tag_42\n      jump\t// in\n    tag_41:\n      mload(0x40)\n      tag_43\n      swap2\n      swap1\n      tag_16\n      jump\t// in\n    tag_43:\n      mload(0x40)\n      dup1\n      swap2\n      sub\n      swap1\n      return\n        /* \"slots.sol\":369:963  function getSlots() public pure returns (... */\n    tag_11:\n      tag_44\n      tag_45\n      jump\t// in\n    tag_44:\n      mload(0x40)\n      tag_46\n      swap9\n      swap8\n      swap7\n      swap6\n      swap5\n      swap4\n      swap3\n      swap2\n      swap1\n      tag_47\n      jump\t// in\n    tag_46:\n      mload(0x40)\n      dup1\n      swap2\n      sub\n      swap1\n      return\n        /* \"slots.sol\":183:201  bool public valuel */\n    tag_14:\n      0x01\n      0x15\n      swap1\n      sload\n      swap1\n      0x0100\n      exp\n      swap1\n      div\n      0xff\n      and\n      dup2\n      jump\t// out\n        /* \"slots.sol\":151:168  uint8 public num2 */\n    tag_18:\n      0x01\n      0x14\n      swap1\n      sload\n      swap1\n      0x0100\n      exp\n      swap1\n      div\n      0xff\n      and\n      dup2\n      jump\t// out\n        /* \"slots.sol\":312:351  mapping (address => uint) public banana */\n    tag_24:\n      mstore(0x20, 0x03)\n      dup1\n      0x00\n      mstore\n      keccak256(0x00, 0x40)\n      0x00\n      swap2\n      pop\n      swap1\n      pop\n      sload\n      dup2\n      jump\t// out\n        /* \"slots.sol\":84:103  uint256 public num1 */\n    tag_28:\n      sload(0x00)\n      dup2\n      jump\t// out\n        /* \"slots.sol\":118:137  address public user */\n    tag_31:\n      0x01\n      0x00\n      swap1\n      sload\n      swap1\n      0x0100\n      exp\n      swap1\n      div\n      0xffffffffffffffffffffffffffffffffffffffff\n      and\n      dup2\n      jump\t// out\n        /* \"slots.sol\":215:233  bool public value2 */\n    tag_35:\n      0x01\n      0x16\n      swap1\n      sload\n      swap1\n      0x0100\n      exp\n      swap1\n      div\n      0xff\n      and\n      dup2\n      jump\t// out\n        /* \"slots.sol\":279:298  bytes16 public data */\n    tag_38:\n      0x02\n      0x00\n      swap1\n      sload\n      swap1\n      0x0100\n      exp\n      swap1\n      div\n      0x80\n      shl\n      dup2\n      jump\t// out\n        /* \"slots.sol\":247:265  bool public value3 */\n    tag_42:\n      0x01\n      0x17\n      swap1\n      sload\n      swap1\n      0x0100\n      exp\n      swap1\n      div\n      0xff\n      and\n      dup2\n      jump\t// out\n        /* \"slots.sol\":369:963  function getSlots() public pure returns (... */\n    tag_45:\n        /* \"slots.sol\":418:434  uint256 num1Slot */\n      0x00\n        /* \"slots.sol\":443:459  uint256 userSlot */\n      dup1\n        /* \"slots.sol\":468:484  uint256 num2Slot */\n      0x00\n        /* \"slots.sol\":493:511  uint256 valuelSlot */\n      dup1\n        /* \"slots.sol\":520:538  uint256 value2Slot */\n      0x00\n        /* \"slots.sol\":547:565  uint256 value3Slot */\n      dup1\n        /* \"slots.sol\":574:590  uint256 dataSlot */\n      0x00\n        /* \"slots.sol\":599:617  uint256 bananaSlot */\n      dup1\n        /* \"slots.sol\":675:684  num1.slot */\n      0x00\n        /* \"slots.sol\":663:684  num1Slot := num1.slot */\n      swap8\n      pop\n        /* \"slots.sol\":710:719  user.slot */\n      0x01\n        /* \"slots.sol\":698:719  userSlot := user.slot */\n      swap7\n      pop\n        /* \"slots.sol\":745:754  num2.slot */\n      0x01\n        /* \"slots.sol\":733:754  num2Slot := num2.slot */\n      swap6\n      pop\n        /* \"slots.sol\":782:793  valuel.slot */\n      0x01\n        /* \"slots.sol\":768:793  valuelSlot := valuel.slot */\n      swap5\n      pop\n        /* \"slots.sol\":821:832  value2.slot */\n      0x01\n        /* \"slots.sol\":807:832  value2Slot := value2.slot */\n      swap4\n      pop\n        /* \"slots.sol\":860:871  value3.slot */\n      0x01\n        /* \"slots.sol\":846:871  value3Slot := value3.slot */\n      swap3\n      pop\n        /* \"slots.sol\":897:906  data.slot */\n      0x02\n        /* \"slots.sol\":885:906  dataSlot := data.slot */\n      swap2\n      pop\n        /* \"slots.sol\":934:945  banana.slot */\n      0x03\n        /* \"slots.sol\":920:945  bananaSlot := banana.slot */\n      swap1\n      pop\n        /* \"slots.sol\":369:963  function getSlots() public pure returns (... */\n      swap1\n      swap2\n      swap3\n      swap4\n      swap5\n      swap6\n      swap7\n      swap8\n      jump\t// out\n        /* \"#utility.yul\":7:97   */\n    tag_49:\n        /* \"#utility.yul\":41:48   */\n      0x00\n        /* \"#utility.yul\":84:89   */\n      dup2\n        /* \"#utility.yul\":77:90   */\n      iszero\n        /* \"#utility.yul\":70:91   */\n      iszero\n        /* \"#utility.yul\":59:91   */\n      swap1\n      pop\n        /* \"#utility.yul\":7:97   */\n      swap2\n      swap1\n      pop\n      jump\t// out\n        /* \"#utility.yul\":103:212   */\n    tag_50:\n        /* \"#utility.yul\":184:205   */\n      tag_68\n        /* \"#utility.yul\":199:204   */\n      dup2\n        /* \"#utility.yul\":184:205   */\n      tag_49\n      jump\t// in\n    tag_68:\n        /* \"#utility.yul\":179:182   */\n      dup3\n        /* \"#utility.yul\":172:206   */\n      mstore\n        /* \"#utility.yul\":103:212   */\n      pop\n      pop\n      jump\t// out\n        /* \"#utility.yul\":218:428   */\n    tag_16:\n        /* \"#utility.yul\":305:309   */\n      0x00\n        /* \"#utility.yul\":343:345   */\n      0x20\n        /* \"#utility.yul\":332:341   */\n      dup3\n        /* \"#utility.yul\":328:346   */\n      add\n        /* \"#utility.yul\":320:346   */\n      swap1\n      pop\n        /* \"#utility.yul\":356:421   */\n      tag_70\n        /* \"#utility.yul\":418:419   */\n      0x00\n        /* \"#utility.yul\":407:416   */\n      dup4\n        /* \"#utility.yul\":403:420   */\n      add\n        /* \"#utility.yul\":394:400   */\n      dup5\n        /* \"#utility.yul\":356:421   */\n      tag_50\n      jump\t// in\n    tag_70:\n        /* \"#utility.yul\":218:428   */\n      swap3\n      swap2\n      pop\n      pop\n      jump\t// out\n        /* \"#utility.yul\":434:520   */\n    tag_51:\n        /* \"#utility.yul\":469:476   */\n      0x00\n        /* \"#utility.yul\":509:513   */\n      0xff\n        /* \"#utility.yul\":502:507   */\n      dup3\n        /* \"#utility.yul\":498:514   */\n      and\n        /* \"#utility.yul\":487:514   */\n      swap1\n      pop\n        /* \"#utility.yul\":434:520   */\n      swap2\n      swap1\n      pop\n      jump\t// out\n        /* \"#utility.yul\":526:638   */\n    tag_52:\n        /* \"#utility.yul\":609:631   */\n      tag_73\n        /* \"#utility.yul\":625:630   */\n      dup2\n        /* \"#utility.yul\":609:631   */\n      tag_51\n      jump\t// in\n    tag_73:\n        /* \"#utility.yul\":604:607   */\n      dup3\n        /* \"#utility.yul\":597:632   */\n      mstore\n        /* \"#utility.yul\":526:638   */\n      pop\n      pop\n      jump\t// out\n        /* \"#utility.yul\":644:858   */\n    tag_20:\n        /* \"#utility.yul\":733:737   */\n      0x00\n        /* \"#utility.yul\":771:773   */\n      0x20\n        /* \"#utility.yul\":760:769   */\n      dup3\n        /* \"#utility.yul\":756:774   */\n      add\n        /* \"#utility.yul\":748:774   */\n      swap1\n      pop\n        /* \"#utility.yul\":784:851   */\n      tag_75\n        /* \"#utility.yul\":848:849   */\n      0x00\n        /* \"#utility.yul\":837:846   */\n      dup4\n        /* \"#utility.yul\":833:850   */\n      add\n        /* \"#utility.yul\":824:830   */\n      dup5\n        /* \"#utility.yul\":784:851   */\n      tag_52\n      jump\t// in\n    tag_75:\n        /* \"#utility.yul\":644:858   */\n      swap3\n      swap2\n      pop\n      pop\n      jump\t// out\n        /* \"#utility.yul\":945:1062   */\n    tag_54:\n        /* \"#utility.yul\":1054:1055   */\n      0x00\n        /* \"#utility.yul\":1051:1052   */\n      dup1\n        /* \"#utility.yul\":1044:1056   */\n      revert\n        /* \"#utility.yul\":1191:1317   */\n    tag_56:\n        /* \"#utility.yul\":1228:1235   */\n      0x00\n        /* \"#utility.yul\":1268:1310   */\n      0xffffffffffffffffffffffffffffffffffffffff\n        /* \"#utility.yul\":1261:1266   */\n      dup3\n        /* \"#utility.yul\":1257:1311   */\n      and\n        /* \"#utility.yul\":1246:1311   */\n      swap1\n      pop\n        /* \"#utility.yul\":1191:1317   */\n      swap2\n      swap1\n      pop\n      jump\t// out\n        /* \"#utility.yul\":1323:1419   */\n    tag_57:\n        /* \"#utility.yul\":1360:1367   */\n      0x00\n        /* \"#utility.yul\":1389:1413   */\n      tag_81\n        /* \"#utility.yul\":1407:1412   */\n      dup3\n        /* \"#utility.yul\":1389:1413   */\n      tag_56\n      jump\t// in\n    tag_81:\n        /* \"#utility.yul\":1378:1413   */\n      swap1\n      pop\n        /* \"#utility.yul\":1323:1419   */\n      swap2\n      swap1\n      pop\n      jump\t// out\n        /* \"#utility.yul\":1425:1547   */\n    tag_58:\n        /* \"#utility.yul\":1498:1522   */\n      tag_83\n        /* \"#utility.yul\":1516:1521   */\n      dup2\n        /* \"#utility.yul\":1498:1522   */\n      tag_57\n      jump\t// in\n    tag_83:\n        /* \"#utility.yul\":1491:1496   */\n      dup2\n        /* \"#utility.yul\":1488:1523   */\n      eq\n        /* \"#utility.yul\":1478:1541   */\n      tag_84\n      jumpi\n        /* \"#utility.yul\":1537:1538   */\n      0x00\n        /* \"#utility.yul\":1534:1535   */\n      dup1\n        /* \"#utility.yul\":1527:1539   */\n      revert\n        /* \"#utility.yul\":1478:1541   */\n    tag_84:\n        /* \"#utility.yul\":1425:1547   */\n      pop\n      jump\t// out\n        /* \"#utility.yul\":1553:1692   */\n    tag_59:\n        /* \"#utility.yul\":1599:1604   */\n      0x00\n        /* \"#utility.yul\":1637:1643   */\n      dup2\n        /* \"#utility.yul\":1624:1644   */\n      calldataload\n        /* \"#utility.yul\":1615:1644   */\n      swap1\n      pop\n        /* \"#utility.yul\":1653:1686   */\n      tag_86\n        /* \"#utility.yul\":1680:1685   */\n      dup2\n        /* \"#utility.yul\":1653:1686   */\n      tag_58\n      jump\t// in\n    tag_86:\n        /* \"#utility.yul\":1553:1692   */\n      swap3\n      swap2\n      pop\n      pop\n      jump\t// out\n        /* \"#utility.yul\":1698:2027   */\n    tag_23:\n        /* \"#utility.yul\":1757:1763   */\n      0x00\n        /* \"#utility.yul\":1806:1808   */\n      0x20\n        /* \"#utility.yul\":1794:1803   */\n      dup3\n        /* \"#utility.yul\":1785:1792   */\n      dup5\n        /* \"#utility.yul\":1781:1804   */\n      sub\n        /* \"#utility.yul\":1777:1809   */\n      slt\n        /* \"#utility.yul\":1774:1893   */\n      iszero\n      tag_88\n      jumpi\n        /* \"#utility.yul\":1812:1891   */\n      tag_89\n      tag_54\n      jump\t// in\n    tag_89:\n        /* \"#utility.yul\":1774:1893   */\n    tag_88:\n        /* \"#utility.yul\":1932:1933   */\n      0x00\n        /* \"#utility.yul\":1957:2010   */\n      tag_90\n        /* \"#utility.yul\":2002:2009   */\n      dup5\n        /* \"#utility.yul\":1993:1999   */\n      dup3\n        /* \"#utility.yul\":1982:1991   */\n      dup6\n        /* \"#utility.yul\":1978:2000   */\n      add\n        /* \"#utility.yul\":1957:2010   */\n      tag_59\n      jump\t// in\n    tag_90:\n        /* \"#utility.yul\":1947:2010   */\n      swap2\n      pop\n        /* \"#utility.yul\":1903:2020   */\n      pop\n        /* \"#utility.yul\":1698:2027   */\n      swap3\n      swap2\n      pop\n      pop\n      jump\t// out\n        /* \"#utility.yul\":2033:2110   */\n    tag_60:\n        /* \"#utility.yul\":2070:2077   */\n      0x00\n        /* \"#utility.yul\":2099:2104   */\n      dup2\n        /* \"#utility.yul\":2088:2104   */\n      swap1\n      pop\n        /* \"#utility.yul\":2033:2110   */\n      swap2\n      swap1\n      pop\n      jump\t// out\n        /* \"#utility.yul\":2116:2234   */\n    tag_61:\n        /* \"#utility.yul\":2203:2227   */\n      tag_93\n        /* \"#utility.yul\":2221:2226   */\n      dup2\n        /* \"#utility.yul\":2203:2227   */\n      tag_60\n      jump\t// in\n    tag_93:\n        /* \"#utility.yul\":2198:2201   */\n      dup3\n        /* \"#utility.yul\":2191:2228   */\n      mstore\n        /* \"#utility.yul\":2116:2234   */\n      pop\n      pop\n      jump\t// out\n        /* \"#utility.yul\":2240:2462   */\n    tag_26:\n        /* \"#utility.yul\":2333:2337   */\n      0x00\n        /* \"#utility.yul\":2371:2373   */\n      0x20\n        /* \"#utility.yul\":2360:2369   */\n      dup3\n        /* \"#utility.yul\":2356:2374   */\n      add\n        /* \"#utility.yul\":2348:2374   */\n      swap1\n      pop\n        /* \"#utility.yul\":2384:2455   */\n      tag_95\n        /* \"#utility.yul\":2452:2453   */\n      0x00\n        /* \"#utility.yul\":2441:2450   */\n      dup4\n        /* \"#utility.yul\":2437:2454   */\n      add\n        /* \"#utility.yul\":2428:2434   */\n      dup5\n        /* \"#utility.yul\":2384:2455   */\n      tag_61\n      jump\t// in\n    tag_95:\n        /* \"#utility.yul\":2240:2462   */\n      swap3\n      swap2\n      pop\n      pop\n      jump\t// out\n        /* \"#utility.yul\":2468:2586   */\n    tag_62:\n        /* \"#utility.yul\":2555:2579   */\n      tag_97\n        /* \"#utility.yul\":2573:2578   */\n      dup2\n        /* \"#utility.yul\":2555:2579   */\n      tag_57\n      jump\t// in\n    tag_97:\n        /* \"#utility.yul\":2550:2553   */\n      dup3\n        /* \"#utility.yul\":2543:2580   */\n      mstore\n        /* \"#utility.yul\":2468:2586   */\n      pop\n      pop\n      jump\t// out\n        /* \"#utility.yul\":2592:2814   */\n    tag_33:\n        /* \"#utility.yul\":2685:2689   */\n      0x00\n        /* \"#utility.yul\":2723:2725   */\n      0x20\n        /* \"#utility.yul\":2712:2721   */\n      dup3\n        /* \"#utility.yul\":2708:2726   */\n      add\n        /* \"#utility.yul\":2700:2726   */\n      swap1\n      pop\n        /* \"#utility.yul\":2736:2807   */\n      tag_99\n        /* \"#utility.yul\":2804:2805   */\n      0x00\n        /* \"#utility.yul\":2793:2802   */\n      dup4\n        /* \"#utility.yul\":2789:2806   */\n      add\n        /* \"#utility.yul\":2780:2786   */\n      dup5\n        /* \"#utility.yul\":2736:2807   */\n      tag_62\n      jump\t// in\n    tag_99:\n        /* \"#utility.yul\":2592:2814   */\n      swap3\n      swap2\n      pop\n      pop\n      jump\t// out\n        /* \"#utility.yul\":2820:2970   */\n    tag_63:\n        /* \"#utility.yul\":2857:2864   */\n      0x00\n        /* \"#utility.yul\":2897:2963   */\n      0xffffffffffffffffffffffffffffffff00000000000000000000000000000000\n        /* \"#utility.yul\":2890:2895   */\n      dup3\n        /* \"#utility.yul\":2886:2964   */\n      and\n        /* \"#utility.yul\":2875:2964   */\n      swap1\n      pop\n        /* \"#utility.yul\":2820:2970   */\n      swap2\n      swap1\n      pop\n      jump\t// out\n        /* \"#utility.yul\":2976:3094   */\n    tag_64:\n        /* \"#utility.yul\":3063:3087   */\n      tag_102\n        /* \"#utility.yul\":3081:3086   */\n      dup2\n        /* \"#utility.yul\":3063:3087   */\n      tag_63\n      jump\t// in\n    tag_102:\n        /* \"#utility.yul\":3058:3061   */\n      dup3\n        /* \"#utility.yul\":3051:3088   */\n      mstore\n        /* \"#utility.yul\":2976:3094   */\n      pop\n      pop\n      jump\t// out\n        /* \"#utility.yul\":3100:3322   */\n    tag_40:\n        /* \"#utility.yul\":3193:3197   */\n      0x00\n        /* \"#utility.yul\":3231:3233   */\n      0x20\n        /* \"#utility.yul\":3220:3229   */\n      dup3\n        /* \"#utility.yul\":3216:3234   */\n      add\n        /* \"#utility.yul\":3208:3234   */\n      swap1\n      pop\n        /* \"#utility.yul\":3244:3315   */\n      tag_104\n        /* \"#utility.yul\":3312:3313   */\n      0x00\n        /* \"#utility.yul\":3301:3310   */\n      dup4\n        /* \"#utility.yul\":3297:3314   */\n      add\n        /* \"#utility.yul\":3288:3294   */\n      dup5\n        /* \"#utility.yul\":3244:3315   */\n      tag_64\n      jump\t// in\n    tag_104:\n        /* \"#utility.yul\":3100:3322   */\n      swap3\n      swap2\n      pop\n      pop\n      jump\t// out\n        /* \"#utility.yul\":3328:4325   */\n    tag_47:\n        /* \"#utility.yul\":3617:3621   */\n      0x00\n        /* \"#utility.yul\":3655:3658   */\n      0x0100\n        /* \"#utility.yul\":3644:3653   */\n      dup3\n        /* \"#utility.yul\":3640:3659   */\n      add\n        /* \"#utility.yul\":3632:3659   */\n      swap1\n      pop\n        /* \"#utility.yul\":3669:3740   */\n      tag_106\n        /* \"#utility.yul\":3737:3738   */\n      0x00\n        /* \"#utility.yul\":3726:3735   */\n      dup4\n        /* \"#utility.yul\":3722:3739   */\n      add\n        /* \"#utility.yul\":3713:3719   */\n      dup12\n        /* \"#utility.yul\":3669:3740   */\n      tag_61\n      jump\t// in\n    tag_106:\n        /* \"#utility.yul\":3750:3822   */\n      tag_107\n        /* \"#utility.yul\":3818:3820   */\n      0x20\n        /* \"#utility.yul\":3807:3816   */\n      dup4\n        /* \"#utility.yul\":3803:3821   */\n      add\n        /* \"#utility.yul\":3794:3800   */\n      dup11\n        /* \"#utility.yul\":3750:3822   */\n      tag_61\n      jump\t// in\n    tag_107:\n        /* \"#utility.yul\":3832:3904   */\n      tag_108\n        /* \"#utility.yul\":3900:3902   */\n      0x40\n        /* \"#utility.yul\":3889:3898   */\n      dup4\n        /* \"#utility.yul\":3885:3903   */\n      add\n        /* \"#utility.yul\":3876:3882   */\n      dup10\n        /* \"#utility.yul\":3832:3904   */\n      tag_61\n      jump\t// in\n    tag_108:\n        /* \"#utility.yul\":3914:3986   */\n      tag_109\n        /* \"#utility.yul\":3982:3984   */\n      0x60\n        /* \"#utility.yul\":3971:3980   */\n      dup4\n        /* \"#utility.yul\":3967:3985   */\n      add\n        /* \"#utility.yul\":3958:3964   */\n      dup9\n        /* \"#utility.yul\":3914:3986   */\n      tag_61\n      jump\t// in\n    tag_109:\n        /* \"#utility.yul\":3996:4069   */\n      tag_110\n        /* \"#utility.yul\":4064:4067   */\n      0x80\n        /* \"#utility.yul\":4053:4062   */\n      dup4\n        /* \"#utility.yul\":4049:4068   */\n      add\n        /* \"#utility.yul\":4040:4046   */\n      dup8\n        /* \"#utility.yul\":3996:4069   */\n      tag_61\n      jump\t// in\n    tag_110:\n        /* \"#utility.yul\":4079:4152   */\n      tag_111\n        /* \"#utility.yul\":4147:4150   */\n      0xa0\n        /* \"#utility.yul\":4136:4145   */\n      dup4\n        /* \"#utility.yul\":4132:4151   */\n      add\n        /* \"#utility.yul\":4123:4129   */\n      dup7\n        /* \"#utility.yul\":4079:4152   */\n      tag_61\n      jump\t// in\n    tag_111:\n        /* \"#utility.yul\":4162:4235   */\n      tag_112\n        /* \"#utility.yul\":4230:4233   */\n      0xc0\n        /* \"#utility.yul\":4219:4228   */\n      dup4\n        /* \"#utility.yul\":4215:4234   */\n      add\n        /* \"#utility.yul\":4206:4212   */\n      dup6\n        /* \"#utility.yul\":4162:4235   */\n      tag_61\n      jump\t// in\n    tag_112:\n        /* \"#utility.yul\":4245:4318   */\n      tag_113\n        /* \"#utility.yul\":4313:4316   */\n      0xe0\n        /* \"#utility.yul\":4302:4311   */\n      dup4\n        /* \"#utility.yul\":4298:4317   */\n      add\n        /* \"#utility.yul\":4289:4295   */\n      dup5\n        /* \"#utility.yul\":4245:4318   */\n      tag_61\n      jump\t// in\n    tag_113:\n        /* \"#utility.yul\":3328:4325   */\n      swap10\n      swap9\n      pop\n      pop\n      pop\n      pop\n      pop\n      pop\n      pop\n      pop\n      pop\n      jump\t// out\n\n    auxdata: 0xa26469706673582212200ef4f59e9751f0e36b4fd7b40413be9f6e25a80bf79f1fbeb898436d7d149cfc64736f6c634300081a0033\n}\n",
				"bytecode": {
					"linkReferences": {},
					"object": "6080604052348015600e575f80fd5b506104d88061001c5f395ff3fe608060405234801561000f575f80fd5b5060043610610091575f3560e01c80634f8632ba116100645780634f8632ba1461011f5780635d33a27f1461013d57806373d4a13a1461015b578063aef52a2c14610179578063fab2c4691461019757610091565b80630bf95b151461009557806315d4266c146100b357806339f69c77146100d15780633b9eac4b14610101575b5f80fd5b61009d6101bc565b6040516100aa91906102a4565b60405180910390f35b6100bb6101cf565b6040516100c891906102d8565b60405180910390f35b6100eb60048036038101906100e6919061034f565b6101e2565b6040516100f89190610392565b60405180910390f35b6101096101f7565b6040516101169190610392565b60405180910390f35b6101276101fc565b60405161013491906103ba565b60405180910390f35b610145610221565b60405161015291906102a4565b60405180910390f35b610163610234565b604051610170919061040d565b60405180910390f35b610181610246565b60405161018e91906102a4565b60405180910390f35b61019f610259565b6040516101b3989796959493929190610426565b60405180910390f35b600160159054906101000a900460ff1681565b600160149054906101000a900460ff1681565b6003602052805f5260405f205f915090505481565b5f5481565b60015f9054906101000a900473ffffffffffffffffffffffffffffffffffffffff1681565b600160169054906101000a900460ff1681565b60025f9054906101000a900460801b81565b600160179054906101000a900460ff1681565b5f805f805f805f805f9750600196506001955060019450600193506001925060029150600390509091929394959697565b5f8115159050919050565b61029e8161028a565b82525050565b5f6020820190506102b75f830184610295565b92915050565b5f60ff82169050919050565b6102d2816102bd565b82525050565b5f6020820190506102eb5f8301846102c9565b92915050565b5f80fd5b5f73ffffffffffffffffffffffffffffffffffffffff82169050919050565b5f61031e826102f5565b9050919050565b61032e81610314565b8114610338575f80fd5b50565b5f8135905061034981610325565b92915050565b5f60208284031215610364576103636102f1565b5b5f6103718482850161033b565b91505092915050565b5f819050919050565b61038c8161037a565b82525050565b5f6020820190506103a55f830184610383565b92915050565b6103b481610314565b82525050565b5f6020820190506103cd5f8301846103ab565b92915050565b5f7fffffffffffffffffffffffffffffffff0000000000000000000000000000000082169050919050565b610407816103d3565b82525050565b5f6020820190506104205f8301846103fe565b92915050565b5f6101008201905061043a5f83018b610383565b610447602083018a610383565b6104546040830189610383565b6104616060830188610383565b61046e6080830187610383565b61047b60a0830186610383565b61048860c0830185610383565b61049560e0830184610383565b999850505050505050505056fea26469706673582212200ef4f59e9751f0e36b4fd7b40413be9f6e25a80bf79f1fbeb898436d7d149cfc64736f6c634300081a0033",
					"opcodes": "PUSH1 0x80 PUSH1 0x40 MSTORE CALLVALUE DUP1 ISZERO PUSH1 0xE JUMPI PUSH0 DUP1 REVERT JUMPDEST POP PUSH2 0x4D8 DUP1 PUSH2 0x1C PUSH0 CODECOPY PUSH0 RETURN INVALID PUSH1 0x80 PUSH1 0x40 MSTORE CALLVALUE DUP1 ISZERO PUSH2 0xF JUMPI PUSH0 DUP1 REVERT JUMPDEST POP PUSH1 0x4 CALLDATASIZE LT PUSH2 0x91 JUMPI PUSH0 CALLDATALOAD PUSH1 0xE0 SHR DUP1 PUSH4 0x4F8632BA GT PUSH2 0x64 JUMPI DUP1 PUSH4 0x4F8632BA EQ PUSH2 0x11F JUMPI DUP1 PUSH4 0x5D33A27F EQ PUSH2 0x13D JUMPI DUP1 PUSH4 0x73D4A13A EQ PUSH2 0x15B JUMPI DUP1 PUSH4 0xAEF52A2C EQ PUSH2 0x179 JUMPI DUP1 PUSH4 0xFAB2C469 EQ PUSH2 0x197 JUMPI PUSH2 0x91 JUMP JUMPDEST DUP1 PUSH4 0xBF95B15 EQ PUSH2 0x95 JUMPI DUP1 PUSH4 0x15D4266C EQ PUSH2 0xB3 JUMPI DUP1 PUSH4 0x39F69C77 EQ PUSH2 0xD1 JUMPI DUP1 PUSH4 0x3B9EAC4B EQ PUSH2 0x101 JUMPI JUMPDEST PUSH0 DUP1 REVERT JUMPDEST PUSH2 0x9D PUSH2 0x1BC JUMP JUMPDEST PUSH1 0x40 MLOAD PUSH2 0xAA SWAP2 SWAP1 PUSH2 0x2A4 JUMP JUMPDEST PUSH1 0x40 MLOAD DUP1 SWAP2 SUB SWAP1 RETURN JUMPDEST PUSH2 0xBB PUSH2 0x1CF JUMP JUMPDEST PUSH1 0x40 MLOAD PUSH2 0xC8 SWAP2 SWAP1 PUSH2 0x2D8 JUMP JUMPDEST PUSH1 0x40 MLOAD DUP1 SWAP2 SUB SWAP1 RETURN JUMPDEST PUSH2 0xEB PUSH1 0x4 DUP1 CALLDATASIZE SUB DUP2 ADD SWAP1 PUSH2 0xE6 SWAP2 SWAP1 PUSH2 0x34F JUMP JUMPDEST PUSH2 0x1E2 JUMP JUMPDEST PUSH1 0x40 MLOAD PUSH2 0xF8 SWAP2 SWAP1 PUSH2 0x392 JUMP JUMPDEST PUSH1 0x40 MLOAD DUP1 SWAP2 SUB SWAP1 RETURN JUMPDEST PUSH2 0x109 PUSH2 0x1F7 JUMP JUMPDEST PUSH1 0x40 MLOAD PUSH2 0x116 SWAP2 SWAP1 PUSH2 0x392 JUMP JUMPDEST PUSH1 0x40 MLOAD DUP1 SWAP2 SUB SWAP1 RETURN JUMPDEST PUSH2 0x127 PUSH2 0x1FC JUMP JUMPDEST PUSH1 0x40 MLOAD PUSH2 0x134 SWAP2 SWAP1 PUSH2 0x3BA JUMP JUMPDEST PUSH1 0x40 MLOAD DUP1 SWAP2 SUB SWAP1 RETURN JUMPDEST PUSH2 0x145 PUSH2 0x221 JUMP JUMPDEST PUSH1 0x40 MLOAD PUSH2 0x152 SWAP2 SWAP1 PUSH2 0x2A4 JUMP JUMPDEST PUSH1 0x40 MLOAD DUP1 SWAP2 SUB SWAP1 RETURN JUMPDEST PUSH2 0x163 PUSH2 0x234 JUMP JUMPDEST PUSH1 0x40 MLOAD PUSH2 0x170 SWAP2 SWAP1 PUSH2 0x40D JUMP JUMPDEST PUSH1 0x40 MLOAD DUP1 SWAP2 SUB SWAP1 RETURN JUMPDEST PUSH2 0x181 PUSH2 0x246 JUMP JUMPDEST PUSH1 0x40 MLOAD PUSH2 0x18E SWAP2 SWAP1 PUSH2 0x2A4 JUMP JUMPDEST PUSH1 0x40 MLOAD DUP1 SWAP2 SUB SWAP1 RETURN JUMPDEST PUSH2 0x19F PUSH2 0x259 JUMP JUMPDEST PUSH1 0x40 MLOAD PUSH2 0x1B3 SWAP9 SWAP8 SWAP7 SWAP6 SWAP5 SWAP4 SWAP3 SWAP2 SWAP1 PUSH2 0x426 JUMP JUMPDEST PUSH1 0x40 MLOAD DUP1 SWAP2 SUB SWAP1 RETURN JUMPDEST PUSH1 0x1 PUSH1 0x15 SWAP1 SLOAD SWAP1 PUSH2 0x100 EXP SWAP1 DIV PUSH1 0xFF AND DUP2 JUMP JUMPDEST PUSH1 0x1 PUSH1 0x14 SWAP1 SLOAD SWAP1 PUSH2 0x100 EXP SWAP1 DIV PUSH1 0xFF AND DUP2 JUMP JUMPDEST PUSH1 0x3 PUSH1 0x20 MSTORE DUP1 PUSH0 MSTORE PUSH1 0x40 PUSH0 KECCAK256 PUSH0 SWAP2 POP SWAP1 POP SLOAD DUP2 JUMP JUMPDEST PUSH0 SLOAD DUP2 JUMP JUMPDEST PUSH1 0x1 PUSH0 SWAP1 SLOAD SWAP1 PUSH2 0x100 EXP SWAP1 DIV PUSH20 0xFFFFFFFFFFFFFFFFFFFFFFFFFFFFFFFFFFFFFFFF AND DUP2 JUMP JUMPDEST PUSH1 0x1 PUSH1 0x16 SWAP1 SLOAD SWAP1 PUSH2 0x100 EXP SWAP1 DIV PUSH1 0xFF AND DUP2 JUMP JUMPDEST PUSH1 0x2 PUSH0 SWAP1 SLOAD SWAP1 PUSH2 0x100 EXP SWAP1 DIV PUSH1 0x80 SHL DUP2 JUMP JUMPDEST PUSH1 0x1 PUSH1 0x17 SWAP1 SLOAD SWAP1 PUSH2 0x100 EXP SWAP1 DIV PUSH1 0xFF AND DUP2 JUMP JUMPDEST PUSH0 DUP1 PUSH0 DUP1 PUSH0 DUP1 PUSH0 DUP1 PUSH0 SWAP8 POP PUSH1 0x1 SWAP7 POP PUSH1 0x1 SWAP6 POP PUSH1 0x1 SWAP5 POP PUSH1 0x1 SWAP4 POP PUSH1 0x1 SWAP3 POP PUSH1 0x2 SWAP2 POP PUSH1 0x3 SWAP1 POP SWAP1 SWAP2 SWAP3 SWAP4 SWAP5 SWAP6 SWAP7 SWAP8 JUMP JUMPDEST PUSH0 DUP2 ISZERO ISZERO SWAP1 POP SWAP2 SWAP1 POP JUMP JUMPDEST PUSH2 0x29E DUP2 PUSH2 0x28A JUMP JUMPDEST DUP3 MSTORE POP POP JUMP JUMPDEST PUSH0 PUSH1 0x20 DUP3 ADD SWAP1 POP PUSH2 0x2B7 PUSH0 DUP4 ADD DUP5 PUSH2 0x295 JUMP JUMPDEST SWAP3 SWAP2 POP POP JUMP JUMPDEST PUSH0 PUSH1 0xFF DUP3 AND SWAP1 POP SWAP2 SWAP1 POP JUMP JUMPDEST PUSH2 0x2D2 DUP2 PUSH2 0x2BD JUMP JUMPDEST DUP3 MSTORE POP POP JUMP JUMPDEST PUSH0 PUSH1 0x20 DUP3 ADD SWAP1 POP PUSH2 0x2EB PUSH0 DUP4 ADD DUP5 PUSH2 0x2C9 JUMP JUMPDEST SWAP3 SWAP2 POP POP JUMP JUMPDEST PUSH0 DUP1 REVERT JUMPDEST PUSH0 PUSH20 0xFFFFFFFFFFFFFFFFFFFFFFFFFFFFFFFFFFFFFFFF DUP3 AND SWAP1 POP SWAP2 SWAP1 POP JUMP JUMPDEST PUSH0 PUSH2 0x31E DUP3 PUSH2 0x2F5 JUMP JUMPDEST SWAP1 POP SWAP2 SWAP1 POP JUMP JUMPDEST PUSH2 0x32E DUP2 PUSH2 0x314 JUMP JUMPDEST DUP2 EQ PUSH2 0x338 JUMPI PUSH0 DUP1 REVERT JUMPDEST POP JUMP JUMPDEST PUSH0 DUP2 CALLDATALOAD SWAP1 POP PUSH2 0x349 DUP2 PUSH2 0x325 JUMP JUMPDEST SWAP3 SWAP2 POP POP JUMP JUMPDEST PUSH0 PUSH1 0x20 DUP3 DUP5 SUB SLT ISZERO PUSH2 0x364 JUMPI PUSH2 0x363 PUSH2 0x2F1 JUMP JUMPDEST JUMPDEST PUSH0 PUSH2 0x371 DUP5 DUP3 DUP6 ADD PUSH2 0x33B JUMP JUMPDEST SWAP2 POP POP SWAP3 SWAP2 POP POP JUMP JUMPDEST PUSH0 DUP2 SWAP1 POP SWAP2 SWAP1 POP JUMP JUMPDEST PUSH2 0x38C DUP2 PUSH2 0x37A JUMP JUMPDEST DUP3 MSTORE POP POP JUMP JUMPDEST PUSH0 PUSH1 0x20 DUP3 ADD SWAP1 POP PUSH2 0x3A5 PUSH0 DUP4 ADD DUP5 PUSH2 0x383 JUMP JUMPDEST SWAP3 SWAP2 POP POP JUMP JUMPDEST PUSH2 0x3B4 DUP2 PUSH2 0x314 JUMP JUMPDEST DUP3 MSTORE POP POP JUMP JUMPDEST PUSH0 PUSH1 0x20 DUP3 ADD SWAP1 POP PUSH2 0x3CD PUSH0 DUP4 ADD DUP5 PUSH2 0x3AB JUMP JUMPDEST SWAP3 SWAP2 POP POP JUMP JUMPDEST PUSH0 PUSH32 0xFFFFFFFFFFFFFFFFFFFFFFFFFFFFFFFF00000000000000000000000000000000 DUP3 AND SWAP1 POP SWAP2 SWAP1 POP JUMP JUMPDEST PUSH2 0x407 DUP2 PUSH2 0x3D3 JUMP JUMPDEST DUP3 MSTORE POP POP JUMP JUMPDEST PUSH0 PUSH1 0x20 DUP3 ADD SWAP1 POP PUSH2 0x420 PUSH0 DUP4 ADD DUP5 PUSH2 0x3FE JUMP JUMPDEST SWAP3 SWAP2 POP POP JUMP JUMPDEST PUSH0 PUSH2 0x100 DUP3 ADD SWAP1 POP PUSH2 0x43A PUSH0 DUP4 ADD DUP12 PUSH2 0x383 JUMP JUMPDEST PUSH2 0x447 PUSH1 0x20 DUP4 ADD DUP11 PUSH2 0x383 JUMP JUMPDEST PUSH2 0x454 PUSH1 0x40 DUP4 ADD DUP10 PUSH2 0x383 JUMP JUMPDEST PUSH2 0x461 PUSH1 0x60 DUP4 ADD DUP9 PUSH2 0x383 JUMP JUMPDEST PUSH2 0x46E PUSH1 0x80 DUP4 ADD DUP8 PUSH2 0x383 JUMP JUMPDEST PUSH2 0x47B PUSH1 0xA0 DUP4 ADD DUP7 PUSH2 0x383 JUMP JUMPDEST PUSH2 0x488 PUSH1 0xC0 DUP4 ADD DUP6 PUSH2 0x383 JUMP JUMPDEST PUSH2 0x495 PUSH1 0xE0 DUP4 ADD DUP5 PUSH2 0x383 JUMP JUMPDEST SWAP10 SWAP9 POP POP POP POP POP POP POP POP POP JUMP INVALID LOG2 PUSH5 0x6970667358 0x22 SLT KECCAK256 0xE DELEGATECALL CREATE2 SWAP15 SWAP8 MLOAD CREATE 0xE3 PUSH12 0x4FD7B40413BE9F6E25A80BF7 SWAP16 0x1F 0xBE 0xB8 SWAP9 NUMBER PUSH14 0x7D149CFC64736F6C634300081A00 CALLER "
				},
				"gasEstimates": {
					"creation": {
						"codeDepositCost": "248000",
						"executionCost": "285",
						"totalCost": "248285"
					},
					"external": {
						"banana(address)": "2847",
						"data()": "2510",
						"getSlots()": "infinite",
						"num1()": "2491",
						"num2()": "2540",
						"user()": "2508",
						"value2()": "2539",
						"value3()": "2583",
						"valuel()": "2518"
					}
				},
				"methodIdentifiers": {
					"banana(address)": "39f69c77",
					"data()": "73d4a13a",
					"getSlots()": "fab2c469",
					"num1()": "3b9eac4b",
					"num2()": "15d4266c",
					"user()": "4f8632ba",
					"value2()": "5d33a27f",
					"value3()": "aef52a2c",
					"valuel()": "0bf95b15"
				}
			},
			"storageLayout": {
				"storage": [
					{
						"astId": 3,
						"contract": "slots.sol:Demo",
						"label": "num1",
						"offset": 0,
						"slot": "0",
						"type": "t_uint256"
					},
					{
						"astId": 5,
						"contract": "slots.sol:Demo",
						"label": "user",
						"offset": 0,
						"slot": "1",
						"type": "t_address"
					},
					{
						"astId": 7,
						"contract": "slots.sol:Demo",
						"label": "num2",
						"offset": 20,
						"slot": "1",
						"type": "t_uint8"
					},
					{
						"astId": 9,
						"contract": "slots.sol:Demo",
						"label": "valuel",
						"offset": 21,
						"slot": "1",
						"type": "t_bool"
					},
					{
						"astId": 11,
						"contract": "slots.sol:Demo",
						"label": "value2",
						"offset": 22,
						"slot": "1",
						"type": "t_bool"
					},
					{
						"astId": 13,
						"contract": "slots.sol:Demo",
						"label": "value3",
						"offset": 23,
						"slot": "1",
						"type": "t_bool"
					},
					{
						"astId": 15,
						"contract": "slots.sol:Demo",
						"label": "data",
						"offset": 0,
						"slot": "2",
						"type": "t_bytes16"
					},
					{
						"astId": 19,
						"contract": "slots.sol:Demo",
						"label": "banana",
						"offset": 0,
						"slot": "3",
						"type": "t_mapping(t_address,t_uint256)"
					}
				],
				"types": {
					"t_address": {
						"encoding": "inplace",
						"label": "address",
						"numberOfBytes": "20"
					},
					"t_bool": {
						"encoding": "inplace",
						"label": "bool",
						"numberOfBytes": "1"
					},
					"t_bytes16": {
						"encoding": "inplace",
						"label": "bytes16",
						"numberOfBytes": "16"
					},
					"t_mapping(t_address,t_uint256)": {
						"encoding": "mapping",
						"key": "t_address",
						"label": "mapping(address => uint256)",
						"numberOfBytes": "32",
						"value": "t_uint256"
					},
					"t_uint256": {
						"encoding": "inplace",
						"label": "uint256",
						"numberOfBytes": "32"
					},
					"t_uint8": {
						"encoding": "inplace",
						"label": "uint8",
						"numberOfBytes": "1"
					}
				}
			},
			"userdoc": {
				"kind": "user",
				"methods": {},
				"version": 1
			}
		}
	}
}