{
	"money.sol": {
		"MoneyManager": {
			"abi": [
				{
					"inputs": [],
					"name": "depositEther",
					"outputs": [],
					"stateMutability": "payable",
					"type": "function"
				},
				{
					"inputs": [
						{
							"internalType": "address",
							"name": "",
							"type": "address"
						}
					],
					"name": "userAmount",
					"outputs": [
						{
							"internalType": "uint256",
							"name": "",
							"type": "uint256"
						}
					],
					"stateMutability": "view",
					"type": "function"
				},
				{
					"inputs": [
						{
							"internalType": "uint256",
							"name": "_amount",
							"type": "uint256"
						}
					],
					"name": "withdrawEther",
					"outputs": [],
					"stateMutability": "payable",
					"type": "function"
				}
			],
			"devdoc": {
				"kind": "dev",
				"methods": {},
				"version": 1
			},
			"evm": {
				"assembly": "    /* \"money.sol\":61:669  contract MoneyManager {... */\n  mstore(0x40, 0x80)\n  callvalue\n  dup1\n  iszero\n  tag_1\n  jumpi\n  0x00\n  dup1\n  revert\ntag_1:\n  pop\n  dataSize(sub_0)\n  dup1\n  dataOffset(sub_0)\n  0x00\n  codecopy\n  0x00\n  return\nstop\n\nsub_0: assembly {\n        /* \"money.sol\":61:669  contract MoneyManager {... */\n      mstore(0x40, 0x80)\n      jumpi(tag_1, lt(calldatasize, 0x04))\n      shr(0xe0, calldataload(0x00))\n      dup1\n      0x3bed33ce\n      eq\n      tag_2\n      jumpi\n      dup1\n      0x98ea5fca\n      eq\n      tag_3\n      jumpi\n      dup1\n      0xe1ad418e\n      eq\n      tag_4\n      jumpi\n    tag_1:\n      0x00\n      dup1\n      revert\n        /* \"money.sol\":418:660  function withdrawEther(uint256 _amount) public payable {... */\n    tag_2:\n      tag_5\n      0x04\n      dup1\n      calldatasize\n      sub\n      dup2\n      add\n      swap1\n      tag_6\n      swap2\n      swap1\n      tag_7\n      jump\t// in\n    tag_6:\n      tag_8\n      jump\t// in\n    tag_5:\n      stop\n        /* \"money.sol\":178:410  function depositEther( ) public payable {... */\n    tag_3:\n      tag_9\n      tag_10\n      jump\t// in\n    tag_9:\n      stop\n        /* \"money.sol\":124:169  mapping (address=> uint256) public userAmount */\n    tag_4:\n      callvalue\n      dup1\n      iszero\n      tag_11\n      jumpi\n      0x00\n      dup1\n      revert\n    tag_11:\n      pop\n      tag_12\n      0x04\n      dup1\n      calldatasize\n      sub\n      dup2\n      add\n      swap1\n      tag_13\n      swap2\n      swap1\n      tag_14\n      jump\t// in\n    tag_13:\n      tag_15\n      jump\t// in\n    tag_12:\n      mload(0x40)\n      tag_16\n      swap2\n      swap1\n      tag_17\n      jump\t// in\n    tag_16:\n      mload(0x40)\n      dup1\n      swap2\n      sub\n      swap1\n      return\n        /* \"money.sol\":418:660  function withdrawEther(uint256 _amount) public payable {... */\n    tag_8:\n        /* \"money.sol\":518:525  _amount */\n      dup1\n        /* \"money.sol\":492:502  userAmount */\n      0x01\n        /* \"money.sol\":492:514  userAmount[msg.sender] */\n      0x00\n        /* \"money.sol\":503:513  msg.sender */\n      caller\n        /* \"money.sol\":492:514  userAmount[msg.sender] */\n      0xffffffffffffffffffffffffffffffffffffffff\n      and\n      0xffffffffffffffffffffffffffffffffffffffff\n      and\n      dup2\n      mstore\n      0x20\n      add\n      swap1\n      dup2\n      mstore\n      0x20\n      add\n      0x00\n      keccak256\n      sload\n        /* \"money.sol\":492:525  userAmount[msg.sender] >= _amount */\n      lt\n      iszero\n        /* \"money.sol\":484:559  require(userAmount[msg.sender] >= _amount, \"not enough amount to withdraw\") */\n      tag_19\n      jumpi\n      mload(0x40)\n      0x08c379a000000000000000000000000000000000000000000000000000000000\n      dup2\n      mstore\n      0x04\n      add\n      tag_20\n      swap1\n      tag_21\n      jump\t// in\n    tag_20:\n      mload(0x40)\n      dup1\n      swap2\n      sub\n      swap1\n      revert\n    tag_19:\n        /* \"money.sol\":578:588  msg.sender */\n      caller\n        /* \"money.sol\":570:598  payable(msg.sender).transfer */\n      0xffffffffffffffffffffffffffffffffffffffff\n      and\n        /* \"money.sol\":570:607  payable(msg.sender).transfer(_amount) */\n      0x08fc\n        /* \"money.sol\":599:606  _amount */\n      dup3\n        /* \"money.sol\":570:607  payable(msg.sender).transfer(_amount) */\n      swap1\n      dup2\n      iszero\n      mul\n      swap1\n      mload(0x40)\n      0x00\n      mload(0x40)\n      dup1\n      dup4\n      sub\n      dup2\n      dup6\n      dup9\n      dup9\n      call\n      swap4\n      pop\n      pop\n      pop\n      pop\n      iszero\n      dup1\n      iszero\n      tag_23\n      jumpi\n      returndatasize\n      0x00\n      dup1\n      returndatacopy\n      revert(0x00, returndatasize)\n    tag_23:\n      pop\n        /* \"money.sol\":644:651  _amount */\n      dup1\n        /* \"money.sol\":618:628  userAmount */\n      0x01\n        /* \"money.sol\":618:640  userAmount[msg.sender] */\n      0x00\n        /* \"money.sol\":629:639  msg.sender */\n      caller\n        /* \"money.sol\":618:640  userAmount[msg.sender] */\n      0xffffffffffffffffffffffffffffffffffffffff\n      and\n      0xffffffffffffffffffffffffffffffffffffffff\n      and\n      dup2\n      mstore\n      0x20\n      add\n      swap1\n      dup2\n      mstore\n      0x20\n      add\n      0x00\n      keccak256\n      0x00\n        /* \"money.sol\":618:651  userAmount[msg.sender] += _amount */\n      dup3\n      dup3\n      sload\n      tag_24\n      swap2\n      swap1\n      tag_25\n      jump\t// in\n    tag_24:\n      swap3\n      pop\n      pop\n      dup2\n      swap1\n      sstore\n      pop\n        /* \"money.sol\":418:660  function withdrawEther(uint256 _amount) public payable {... */\n      pop\n      jump\t// out\n        /* \"money.sol\":178:410  function depositEther( ) public payable {... */\n    tag_10:\n        /* \"money.sol\":244:253  msg.value */\n      callvalue\n        /* \"money.sol\":229:240  totalAmount */\n      0x00\n      dup1\n        /* \"money.sol\":229:253  totalAmount += msg.value */\n      dup3\n      dup3\n      sload\n      tag_27\n      swap2\n      swap1\n      tag_25\n      jump\t// in\n    tag_27:\n      swap3\n      pop\n      pop\n      dup2\n      swap1\n      sstore\n      pop\n        /* \"money.sol\":332:341  msg.value */\n      callvalue\n        /* \"money.sol\":306:316  userAmount */\n      0x01\n        /* \"money.sol\":306:328  userAmount[msg.sender] */\n      0x00\n        /* \"money.sol\":317:327  msg.sender */\n      caller\n        /* \"money.sol\":306:328  userAmount[msg.sender] */\n      0xffffffffffffffffffffffffffffffffffffffff\n      and\n      0xffffffffffffffffffffffffffffffffffffffff\n      and\n      dup2\n      mstore\n      0x20\n      add\n      swap1\n      dup2\n      mstore\n      0x20\n      add\n      0x00\n      keccak256\n      0x00\n        /* \"money.sol\":306:341  userAmount[msg.sender] += msg.value */\n      dup3\n      dup3\n      sload\n      tag_28\n      swap2\n      swap1\n      tag_25\n      jump\t// in\n    tag_28:\n      swap3\n      pop\n      pop\n      dup2\n      swap1\n      sstore\n      pop\n        /* \"money.sol\":178:410  function depositEther( ) public payable {... */\n      jump\t// out\n        /* \"money.sol\":124:169  mapping (address=> uint256) public userAmount */\n    tag_15:\n      mstore(0x20, 0x01)\n      dup1\n      0x00\n      mstore\n      keccak256(0x00, 0x40)\n      0x00\n      swap2\n      pop\n      swap1\n      pop\n      sload\n      dup2\n      jump\t// out\n        /* \"#utility.yul\":88:205   */\n    tag_30:\n        /* \"#utility.yul\":197:198   */\n      0x00\n        /* \"#utility.yul\":194:195   */\n      dup1\n        /* \"#utility.yul\":187:199   */\n      revert\n        /* \"#utility.yul\":334:411   */\n    tag_32:\n        /* \"#utility.yul\":371:378   */\n      0x00\n        /* \"#utility.yul\":400:405   */\n      dup2\n        /* \"#utility.yul\":389:405   */\n      swap1\n      pop\n        /* \"#utility.yul\":334:411   */\n      swap2\n      swap1\n      pop\n      jump\t// out\n        /* \"#utility.yul\":417:539   */\n    tag_33:\n        /* \"#utility.yul\":490:514   */\n      tag_50\n        /* \"#utility.yul\":508:513   */\n      dup2\n        /* \"#utility.yul\":490:514   */\n      tag_32\n      jump\t// in\n    tag_50:\n        /* \"#utility.yul\":483:488   */\n      dup2\n        /* \"#utility.yul\":480:515   */\n      eq\n        /* \"#utility.yul\":470:533   */\n      tag_51\n      jumpi\n        /* \"#utility.yul\":529:530   */\n      0x00\n        /* \"#utility.yul\":526:527   */\n      dup1\n        /* \"#utility.yul\":519:531   */\n      revert\n        /* \"#utility.yul\":470:533   */\n    tag_51:\n        /* \"#utility.yul\":417:539   */\n      pop\n      jump\t// out\n        /* \"#utility.yul\":545:684   */\n    tag_34:\n        /* \"#utility.yul\":591:596   */\n      0x00\n        /* \"#utility.yul\":629:635   */\n      dup2\n        /* \"#utility.yul\":616:636   */\n      calldataload\n        /* \"#utility.yul\":607:636   */\n      swap1\n      pop\n        /* \"#utility.yul\":645:678   */\n      tag_53\n        /* \"#utility.yul\":672:677   */\n      dup2\n        /* \"#utility.yul\":645:678   */\n      tag_33\n      jump\t// in\n    tag_53:\n        /* \"#utility.yul\":545:684   */\n      swap3\n      swap2\n      pop\n      pop\n      jump\t// out\n        /* \"#utility.yul\":690:1019   */\n    tag_7:\n        /* \"#utility.yul\":749:755   */\n      0x00\n        /* \"#utility.yul\":798:800   */\n      0x20\n        /* \"#utility.yul\":786:795   */\n      dup3\n        /* \"#utility.yul\":777:784   */\n      dup5\n        /* \"#utility.yul\":773:796   */\n      sub\n        /* \"#utility.yul\":769:801   */\n      slt\n        /* \"#utility.yul\":766:885   */\n      iszero\n      tag_55\n      jumpi\n        /* \"#utility.yul\":804:883   */\n      tag_56\n      tag_30\n      jump\t// in\n    tag_56:\n        /* \"#utility.yul\":766:885   */\n    tag_55:\n        /* \"#utility.yul\":924:925   */\n      0x00\n        /* \"#utility.yul\":949:1002   */\n      tag_57\n        /* \"#utility.yul\":994:1001   */\n      dup5\n        /* \"#utility.yul\":985:991   */\n      dup3\n        /* \"#utility.yul\":974:983   */\n      dup6\n        /* \"#utility.yul\":970:992   */\n      add\n        /* \"#utility.yul\":949:1002   */\n      tag_34\n      jump\t// in\n    tag_57:\n        /* \"#utility.yul\":939:1002   */\n      swap2\n      pop\n        /* \"#utility.yul\":895:1012   */\n      pop\n        /* \"#utility.yul\":690:1019   */\n      swap3\n      swap2\n      pop\n      pop\n      jump\t// out\n        /* \"#utility.yul\":1025:1151   */\n    tag_35:\n        /* \"#utility.yul\":1062:1069   */\n      0x00\n        /* \"#utility.yul\":1102:1144   */\n      0xffffffffffffffffffffffffffffffffffffffff\n        /* \"#utility.yul\":1095:1100   */\n      dup3\n        /* \"#utility.yul\":1091:1145   */\n      and\n        /* \"#utility.yul\":1080:1145   */\n      swap1\n      pop\n        /* \"#utility.yul\":1025:1151   */\n      swap2\n      swap1\n      pop\n      jump\t// out\n        /* \"#utility.yul\":1157:1253   */\n    tag_36:\n        /* \"#utility.yul\":1194:1201   */\n      0x00\n        /* \"#utility.yul\":1223:1247   */\n      tag_60\n        /* \"#utility.yul\":1241:1246   */\n      dup3\n        /* \"#utility.yul\":1223:1247   */\n      tag_35\n      jump\t// in\n    tag_60:\n        /* \"#utility.yul\":1212:1247   */\n      swap1\n      pop\n        /* \"#utility.yul\":1157:1253   */\n      swap2\n      swap1\n      pop\n      jump\t// out\n        /* \"#utility.yul\":1259:1381   */\n    tag_37:\n        /* \"#utility.yul\":1332:1356   */\n      tag_62\n        /* \"#utility.yul\":1350:1355   */\n      dup2\n        /* \"#utility.yul\":1332:1356   */\n      tag_36\n      jump\t// in\n    tag_62:\n        /* \"#utility.yul\":1325:1330   */\n      dup2\n        /* \"#utility.yul\":1322:1357   */\n      eq\n        /* \"#utility.yul\":1312:1375   */\n      tag_63\n      jumpi\n        /* \"#utility.yul\":1371:1372   */\n      0x00\n        /* \"#utility.yul\":1368:1369   */\n      dup1\n        /* \"#utility.yul\":1361:1373   */\n      revert\n        /* \"#utility.yul\":1312:1375   */\n    tag_63:\n        /* \"#utility.yul\":1259:1381   */\n      pop\n      jump\t// out\n        /* \"#utility.yul\":1387:1526   */\n    tag_38:\n        /* \"#utility.yul\":1433:1438   */\n      0x00\n        /* \"#utility.yul\":1471:1477   */\n      dup2\n        /* \"#utility.yul\":1458:1478   */\n      calldataload\n        /* \"#utility.yul\":1449:1478   */\n      swap1\n      pop\n        /* \"#utility.yul\":1487:1520   */\n      tag_65\n        /* \"#utility.yul\":1514:1519   */\n      dup2\n        /* \"#utility.yul\":1487:1520   */\n      tag_37\n      jump\t// in\n    tag_65:\n        /* \"#utility.yul\":1387:1526   */\n      swap3\n      swap2\n      pop\n      pop\n      jump\t// out\n        /* \"#utility.yul\":1532:1861   */\n    tag_14:\n        /* \"#utility.yul\":1591:1597   */\n      0x00\n        /* \"#utility.yul\":1640:1642   */\n      0x20\n        /* \"#utility.yul\":1628:1637   */\n      dup3\n        /* \"#utility.yul\":1619:1626   */\n      dup5\n        /* \"#utility.yul\":1615:1638   */\n      sub\n        /* \"#utility.yul\":1611:1643   */\n      slt\n        /* \"#utility.yul\":1608:1727   */\n      iszero\n      tag_67\n      jumpi\n        /* \"#utility.yul\":1646:1725   */\n      tag_68\n      tag_30\n      jump\t// in\n    tag_68:\n        /* \"#utility.yul\":1608:1727   */\n    tag_67:\n        /* \"#utility.yul\":1766:1767   */\n      0x00\n        /* \"#utility.yul\":1791:1844   */\n      tag_69\n        /* \"#utility.yul\":1836:1843   */\n      dup5\n        /* \"#utility.yul\":1827:1833   */\n      dup3\n        /* \"#utility.yul\":1816:1825   */\n      dup6\n        /* \"#utility.yul\":1812:1834   */\n      add\n        /* \"#utility.yul\":1791:1844   */\n      tag_38\n      jump\t// in\n    tag_69:\n        /* \"#utility.yul\":1781:1844   */\n      swap2\n      pop\n        /* \"#utility.yul\":1737:1854   */\n      pop\n        /* \"#utility.yul\":1532:1861   */\n      swap3\n      swap2\n      pop\n      pop\n      jump\t// out\n        /* \"#utility.yul\":1867:1985   */\n    tag_39:\n        /* \"#utility.yul\":1954:1978   */\n      tag_71\n        /* \"#utility.yul\":1972:1977   */\n      dup2\n        /* \"#utility.yul\":1954:1978   */\n      tag_32\n      jump\t// in\n    tag_71:\n        /* \"#utility.yul\":1949:1952   */\n      dup3\n        /* \"#utility.yul\":1942:1979   */\n      mstore\n        /* \"#utility.yul\":1867:1985   */\n      pop\n      pop\n      jump\t// out\n        /* \"#utility.yul\":1991:2213   */\n    tag_17:\n        /* \"#utility.yul\":2084:2088   */\n      0x00\n        /* \"#utility.yul\":2122:2124   */\n      0x20\n        /* \"#utility.yul\":2111:2120   */\n      dup3\n        /* \"#utility.yul\":2107:2125   */\n      add\n        /* \"#utility.yul\":2099:2125   */\n      swap1\n      pop\n        /* \"#utility.yul\":2135:2206   */\n      tag_73\n        /* \"#utility.yul\":2203:2204   */\n      0x00\n        /* \"#utility.yul\":2192:2201   */\n      dup4\n        /* \"#utility.yul\":2188:2205   */\n      add\n        /* \"#utility.yul\":2179:2185   */\n      dup5\n        /* \"#utility.yul\":2135:2206   */\n      tag_39\n      jump\t// in\n    tag_73:\n        /* \"#utility.yul\":1991:2213   */\n      swap3\n      swap2\n      pop\n      pop\n      jump\t// out\n        /* \"#utility.yul\":2219:2388   */\n    tag_40:\n        /* \"#utility.yul\":2303:2314   */\n      0x00\n        /* \"#utility.yul\":2337:2343   */\n      dup3\n        /* \"#utility.yul\":2332:2335   */\n      dup3\n        /* \"#utility.yul\":2325:2344   */\n      mstore\n        /* \"#utility.yul\":2377:2381   */\n      0x20\n        /* \"#utility.yul\":2372:2375   */\n      dup3\n        /* \"#utility.yul\":2368:2382   */\n      add\n        /* \"#utility.yul\":2353:2382   */\n      swap1\n      pop\n        /* \"#utility.yul\":2219:2388   */\n      swap3\n      swap2\n      pop\n      pop\n      jump\t// out\n        /* \"#utility.yul\":2394:2573   */\n    tag_41:\n        /* \"#utility.yul\":2534:2565   */\n      0x6e6f7420656e6f75676820616d6f756e7420746f207769746864726177000000\n        /* \"#utility.yul\":2530:2531   */\n      0x00\n        /* \"#utility.yul\":2522:2528   */\n      dup3\n        /* \"#utility.yul\":2518:2532   */\n      add\n        /* \"#utility.yul\":2511:2566   */\n      mstore\n        /* \"#utility.yul\":2394:2573   */\n      pop\n      jump\t// out\n        /* \"#utility.yul\":2579:2945   */\n    tag_42:\n        /* \"#utility.yul\":2721:2724   */\n      0x00\n        /* \"#utility.yul\":2742:2809   */\n      tag_77\n        /* \"#utility.yul\":2806:2808   */\n      0x1d\n        /* \"#utility.yul\":2801:2804   */\n      dup4\n        /* \"#utility.yul\":2742:2809   */\n      tag_40\n      jump\t// in\n    tag_77:\n        /* \"#utility.yul\":2735:2809   */\n      swap2\n      pop\n        /* \"#utility.yul\":2818:2911   */\n      tag_78\n        /* \"#utility.yul\":2907:2910   */\n      dup3\n        /* \"#utility.yul\":2818:2911   */\n      tag_41\n      jump\t// in\n    tag_78:\n        /* \"#utility.yul\":2936:2938   */\n      0x20\n        /* \"#utility.yul\":2931:2934   */\n      dup3\n        /* \"#utility.yul\":2927:2939   */\n      add\n        /* \"#utility.yul\":2920:2939   */\n      swap1\n      pop\n        /* \"#utility.yul\":2579:2945   */\n      swap2\n      swap1\n      pop\n      jump\t// out\n        /* \"#utility.yul\":2951:3370   */\n    tag_21:\n        /* \"#utility.yul\":3117:3121   */\n      0x00\n        /* \"#utility.yul\":3155:3157   */\n      0x20\n        /* \"#utility.yul\":3144:3153   */\n      dup3\n        /* \"#utility.yul\":3140:3158   */\n      add\n        /* \"#utility.yul\":3132:3158   */\n      swap1\n      pop\n        /* \"#utility.yul\":3204:3213   */\n      dup2\n        /* \"#utility.yul\":3198:3202   */\n      dup2\n        /* \"#utility.yul\":3194:3214   */\n      sub\n        /* \"#utility.yul\":3190:3191   */\n      0x00\n        /* \"#utility.yul\":3179:3188   */\n      dup4\n        /* \"#utility.yul\":3175:3192   */\n      add\n        /* \"#utility.yul\":3168:3215   */\n      mstore\n        /* \"#utility.yul\":3232:3363   */\n      tag_80\n        /* \"#utility.yul\":3358:3362   */\n      dup2\n        /* \"#utility.yul\":3232:3363   */\n      tag_42\n      jump\t// in\n    tag_80:\n        /* \"#utility.yul\":3224:3363   */\n      swap1\n      pop\n        /* \"#utility.yul\":2951:3370   */\n      swap2\n      swap1\n      pop\n      jump\t// out\n        /* \"#utility.yul\":3376:3556   */\n    tag_43:\n        /* \"#utility.yul\":3424:3501   */\n      0x4e487b7100000000000000000000000000000000000000000000000000000000\n        /* \"#utility.yul\":3421:3422   */\n      0x00\n        /* \"#utility.yul\":3414:3502   */\n      mstore\n        /* \"#utility.yul\":3521:3525   */\n      0x11\n        /* \"#utility.yul\":3518:3519   */\n      0x04\n        /* \"#utility.yul\":3511:3526   */\n      mstore\n        /* \"#utility.yul\":3545:3549   */\n      0x24\n        /* \"#utility.yul\":3542:3543   */\n      0x00\n        /* \"#utility.yul\":3535:3550   */\n      revert\n        /* \"#utility.yul\":3562:3753   */\n    tag_25:\n        /* \"#utility.yul\":3602:3605   */\n      0x00\n        /* \"#utility.yul\":3621:3641   */\n      tag_83\n        /* \"#utility.yul\":3639:3640   */\n      dup3\n        /* \"#utility.yul\":3621:3641   */\n      tag_32\n      jump\t// in\n    tag_83:\n        /* \"#utility.yul\":3616:3641   */\n      swap2\n      pop\n        /* \"#utility.yul\":3655:3675   */\n      tag_84\n        /* \"#utility.yul\":3673:3674   */\n      dup4\n        /* \"#utility.yul\":3655:3675   */\n      tag_32\n      jump\t// in\n    tag_84:\n        /* \"#utility.yul\":3650:3675   */\n      swap3\n      pop\n        /* \"#utility.yul\":3698:3699   */\n      dup3\n        /* \"#utility.yul\":3695:3696   */\n      dup3\n        /* \"#utility.yul\":3691:3700   */\n      add\n        /* \"#utility.yul\":3684:3700   */\n      swap1\n      pop\n        /* \"#utility.yul\":3719:3722   */\n      dup1\n        /* \"#utility.yul\":3716:3717   */\n      dup3\n        /* \"#utility.yul\":3713:3723   */\n      gt\n        /* \"#utility.yul\":3710:3746   */\n      iszero\n      tag_85\n      jumpi\n        /* \"#utility.yul\":3726:3744   */\n      tag_86\n      tag_43\n      jump\t// in\n    tag_86:\n        /* \"#utility.yul\":3710:3746   */\n    tag_85:\n        /* \"#utility.yul\":3562:3753   */\n      swap3\n      swap2\n      pop\n      pop\n      jump\t// out\n\n    auxdata: 0xa26469706673582212205b49136ca2b3494cc79be4e33bd431f779835f3a67a7cccf1a565f9bbdad5a6464736f6c634300081a0033\n}\n",
				"bytecode": {
					"linkReferences": {},
					"object": "6080604052348015600e575f80fd5b506104518061001c5f395ff3fe608060405260043610610033575f3560e01c80633bed33ce1461003757806398ea5fca14610053578063e1ad418e1461005d575b5f80fd5b610051600480360381019061004c919061026b565b610099565b005b61005b6101b3565b005b348015610068575f80fd5b50610083600480360381019061007e91906102f0565b61021f565b604051610090919061032a565b60405180910390f35b8060015f3373ffffffffffffffffffffffffffffffffffffffff1673ffffffffffffffffffffffffffffffffffffffff1681526020019081526020015f20541015610119576040517f08c379a00000000000000000000000000000000000000000000000000000000081526004016101109061039d565b60405180910390fd5b3373ffffffffffffffffffffffffffffffffffffffff166108fc8290811502906040515f60405180830381858888f1935050505015801561015c573d5f803e3d5ffd5b508060015f3373ffffffffffffffffffffffffffffffffffffffff1673ffffffffffffffffffffffffffffffffffffffff1681526020019081526020015f205f8282546101a991906103e8565b9250508190555050565b345f808282546101c391906103e8565b925050819055503460015f3373ffffffffffffffffffffffffffffffffffffffff1673ffffffffffffffffffffffffffffffffffffffff1681526020019081526020015f205f82825461021691906103e8565b92505081905550565b6001602052805f5260405f205f915090505481565b5f80fd5b5f819050919050565b61024a81610238565b8114610254575f80fd5b50565b5f8135905061026581610241565b92915050565b5f602082840312156102805761027f610234565b5b5f61028d84828501610257565b91505092915050565b5f73ffffffffffffffffffffffffffffffffffffffff82169050919050565b5f6102bf82610296565b9050919050565b6102cf816102b5565b81146102d9575f80fd5b50565b5f813590506102ea816102c6565b92915050565b5f6020828403121561030557610304610234565b5b5f610312848285016102dc565b91505092915050565b61032481610238565b82525050565b5f60208201905061033d5f83018461031b565b92915050565b5f82825260208201905092915050565b7f6e6f7420656e6f75676820616d6f756e7420746f2077697468647261770000005f82015250565b5f610387601d83610343565b915061039282610353565b602082019050919050565b5f6020820190508181035f8301526103b48161037b565b9050919050565b7f4e487b71000000000000000000000000000000000000000000000000000000005f52601160045260245ffd5b5f6103f282610238565b91506103fd83610238565b9250828201905080821115610415576104146103bb565b5b9291505056fea26469706673582212205b49136ca2b3494cc79be4e33bd431f779835f3a67a7cccf1a565f9bbdad5a6464736f6c634300081a0033",
					"opcodes": "PUSH1 0x80 PUSH1 0x40 MSTORE CALLVALUE DUP1 ISZERO PUSH1 0xE JUMPI PUSH0 DUP1 REVERT JUMPDEST POP PUSH2 0x451 DUP1 PUSH2 0x1C PUSH0 CODECOPY PUSH0 RETURN INVALID PUSH1 0x80 PUSH1 0x40 MSTORE PUSH1 0x4 CALLDATASIZE LT PUSH2 0x33 JUMPI PUSH0 CALLDATALOAD PUSH1 0xE0 SHR DUP1 PUSH4 0x3BED33CE EQ PUSH2 0x37 JUMPI DUP1 PUSH4 0x98EA5FCA EQ PUSH2 0x53 JUMPI DUP1 PUSH4 0xE1AD418E EQ PUSH2 0x5D JUMPI JUMPDEST PUSH0 DUP1 REVERT JUMPDEST PUSH2 0x51 PUSH1 0x4 DUP1 CALLDATASIZE SUB DUP2 ADD SWAP1 PUSH2 0x4C SWAP2 SWAP1 PUSH2 0x26B JUMP JUMPDEST PUSH2 0x99 JUMP JUMPDEST STOP JUMPDEST PUSH2 0x5B PUSH2 0x1B3 JUMP JUMPDEST STOP JUMPDEST CALLVALUE DUP1 ISZERO PUSH2 0x68 JUMPI PUSH0 DUP1 REVERT JUMPDEST POP PUSH2 0x83 PUSH1 0x4 DUP1 CALLDATASIZE SUB DUP2 ADD SWAP1 PUSH2 0x7E SWAP2 SWAP1 PUSH2 0x2F0 JUMP JUMPDEST PUSH2 0x21F JUMP JUMPDEST PUSH1 0x40 MLOAD PUSH2 0x90 SWAP2 SWAP1 PUSH2 0x32A JUMP JUMPDEST PUSH1 0x40 MLOAD DUP1 SWAP2 SUB SWAP1 RETURN JUMPDEST DUP1 PUSH1 0x1 PUSH0 CALLER PUSH20 0xFFFFFFFFFFFFFFFFFFFFFFFFFFFFFFFFFFFFFFFF AND PUSH20 0xFFFFFFFFFFFFFFFFFFFFFFFFFFFFFFFFFFFFFFFF AND DUP2 MSTORE PUSH1 0x20 ADD SWAP1 DUP2 MSTORE PUSH1 0x20 ADD PUSH0 KECCAK256 SLOAD LT ISZERO PUSH2 0x119 JUMPI PUSH1 0x40 MLOAD PUSH32 0x8C379A000000000000000000000000000000000000000000000000000000000 DUP2 MSTORE PUSH1 0x4 ADD PUSH2 0x110 SWAP1 PUSH2 0x39D JUMP JUMPDEST PUSH1 0x40 MLOAD DUP1 SWAP2 SUB SWAP1 REVERT JUMPDEST CALLER PUSH20 0xFFFFFFFFFFFFFFFFFFFFFFFFFFFFFFFFFFFFFFFF AND PUSH2 0x8FC DUP3 SWAP1 DUP2 ISZERO MUL SWAP1 PUSH1 0x40 MLOAD PUSH0 PUSH1 0x40 MLOAD DUP1 DUP4 SUB DUP2 DUP6 DUP9 DUP9 CALL SWAP4 POP POP POP POP ISZERO DUP1 ISZERO PUSH2 0x15C JUMPI RETURNDATASIZE PUSH0 DUP1 RETURNDATACOPY RETURNDATASIZE PUSH0 REVERT JUMPDEST POP DUP1 PUSH1 0x1 PUSH0 CALLER PUSH20 0xFFFFFFFFFFFFFFFFFFFFFFFFFFFFFFFFFFFFFFFF AND PUSH20 0xFFFFFFFFFFFFFFFFFFFFFFFFFFFFFFFFFFFFFFFF AND DUP2 MSTORE PUSH1 0x20 ADD SWAP1 DUP2 MSTORE PUSH1 0x20 ADD PUSH0 KECCAK256 PUSH0 DUP3 DUP3 SLOAD PUSH2 0x1A9 SWAP2 SWAP1 PUSH2 0x3E8 JUMP JUMPDEST SWAP3 POP POP DUP2 SWAP1 SSTORE POP POP JUMP JUMPDEST CALLVALUE PUSH0 DUP1 DUP3 DUP3 SLOAD PUSH2 0x1C3 SWAP2 SWAP1 PUSH2 0x3E8 JUMP JUMPDEST SWAP3 POP POP DUP2 SWAP1 SSTORE POP CALLVALUE PUSH1 0x1 PUSH0 CALLER PUSH20 0xFFFFFFFFFFFFFFFFFFFFFFFFFFFFFFFFFFFFFFFF AND PUSH20 0xFFFFFFFFFFFFFFFFFFFFFFFFFFFFFFFFFFFFFFFF AND DUP2 MSTORE PUSH1 0x20 ADD SWAP1 DUP2 MSTORE PUSH1 0x20 ADD PUSH0 KECCAK256 PUSH0 DUP3 DUP3 SLOAD PUSH2 0x216 SWAP2 SWAP1 PUSH2 0x3E8 JUMP JUMPDEST SWAP3 POP POP DUP2 SWAP1 SSTORE POP JUMP JUMPDEST PUSH1 0x1 PUSH1 0x20 MSTORE DUP1 PUSH0 MSTORE PUSH1 0x40 PUSH0 KECCAK256 PUSH0 SWAP2 POP SWAP1 POP SLOAD DUP2 JUMP JUMPDEST PUSH0 DUP1 REVERT JUMPDEST PUSH0 DUP2 SWAP1 POP SWAP2 SWAP1 POP JUMP JUMPDEST PUSH2 0x24A DUP2 PUSH2 0x238 JUMP JUMPDEST DUP2 EQ PUSH2 0x254 JUMPI PUSH0 DUP1 REVERT JUMPDEST POP JUMP JUMPDEST PUSH0 DUP2 CALLDATALOAD SWAP1 POP PUSH2 0x265 DUP2 PUSH2 0x241 JUMP JUMPDEST SWAP3 SWAP2 POP POP JUMP JUMPDEST PUSH0 PUSH1 0x20 DUP3 DUP5 SUB SLT ISZERO PUSH2 0x280 JUMPI PUSH2 0x27F PUSH2 0x234 JUMP JUMPDEST JUMPDEST PUSH0 PUSH2 0x28D DUP5 DUP3 DUP6 ADD PUSH2 0x257 JUMP JUMPDEST SWAP2 POP POP SWAP3 SWAP2 POP POP JUMP JUMPDEST PUSH0 PUSH20 0xFFFFFFFFFFFFFFFFFFFFFFFFFFFFFFFFFFFFFFFF DUP3 AND SWAP1 POP SWAP2 SWAP1 POP JUMP JUMPDEST PUSH0 PUSH2 0x2BF DUP3 PUSH2 0x296 JUMP JUMPDEST SWAP1 POP SWAP2 SWAP1 POP JUMP JUMPDEST PUSH2 0x2CF DUP2 PUSH2 0x2B5 JUMP JUMPDEST DUP2 EQ PUSH2 0x2D9 JUMPI PUSH0 DUP1 REVERT JUMPDEST POP JUMP JUMPDEST PUSH0 DUP2 CALLDATALOAD SWAP1 POP PUSH2 0x2EA DUP2 PUSH2 0x2C6 JUMP JUMPDEST SWAP3 SWAP2 POP POP JUMP JUMPDEST PUSH0 PUSH1 0x20 DUP3 DUP5 SUB SLT ISZERO PUSH2 0x305 JUMPI PUSH2 0x304 PUSH2 0x234 JUMP JUMPDEST JUMPDEST PUSH0 PUSH2 0x312 DUP5 DUP3 DUP6 ADD PUSH2 0x2DC JUMP JUMPDEST SWAP2 POP POP SWAP3 SWAP2 POP POP JUMP JUMPDEST PUSH2 0x324 DUP2 PUSH2 0x238 JUMP JUMPDEST DUP3 MSTORE POP POP JUMP JUMPDEST PUSH0 PUSH1 0x20 DUP3 ADD SWAP1 POP PUSH2 0x33D PUSH0 DUP4 ADD DUP5 PUSH2 0x31B JUMP JUMPDEST SWAP3 SWAP2 POP POP JUMP JUMPDEST PUSH0 DUP3 DUP3 MSTORE PUSH1 0x20 DUP3 ADD SWAP1 POP SWAP3 SWAP2 POP POP JUMP JUMPDEST PUSH32 0x6E6F7420656E6F75676820616D6F756E7420746F207769746864726177000000 PUSH0 DUP3 ADD MSTORE POP JUMP JUMPDEST PUSH0 PUSH2 0x387 PUSH1 0x1D DUP4 PUSH2 0x343 JUMP JUMPDEST SWAP2 POP PUSH2 0x392 DUP3 PUSH2 0x353 JUMP JUMPDEST PUSH1 0x20 DUP3 ADD SWAP1 POP SWAP2 SWAP1 POP JUMP JUMPDEST PUSH0 PUSH1 0x20 DUP3 ADD SWAP1 POP DUP2 DUP2 SUB PUSH0 DUP4 ADD MSTORE PUSH2 0x3B4 DUP2 PUSH2 0x37B JUMP JUMPDEST SWAP1 POP SWAP2 SWAP1 POP JUMP JUMPDEST PUSH32 0x4E487B7100000000000000000000000000000000000000000000000000000000 PUSH0 MSTORE PUSH1 0x11 PUSH1 0x4 MSTORE PUSH1 0x24 PUSH0 REVERT JUMPDEST PUSH0 PUSH2 0x3F2 DUP3 PUSH2 0x238 JUMP JUMPDEST SWAP2 POP PUSH2 0x3FD DUP4 PUSH2 0x238 JUMP JUMPDEST SWAP3 POP DUP3 DUP3 ADD SWAP1 POP DUP1 DUP3 GT ISZERO PUSH2 0x415 JUMPI PUSH2 0x414 PUSH2 0x3BB JUMP JUMPDEST JUMPDEST SWAP3 SWAP2 POP POP JUMP INVALID LOG2 PUSH5 0x6970667358 0x22 SLT KECCAK256 JUMPDEST BLOBHASH SGT PUSH13 0xA2B3494CC79BE4E33BD431F779 DUP4 PUSH0 GASPRICE PUSH8 0xA7CCCF1A565F9BBD 0xAD GAS PUSH5 0x64736F6C63 NUMBER STOP ADDMOD BYTE STOP CALLER "
				},
				"gasEstimates": {
					"creation": {
						"codeDepositCost": "221000",
						"executionCost": "261",
						"totalCost": "221261"
					},
					"external": {
						"depositEther()": "infinite",
						"userAmount(address)": "2824",
						"withdrawEther(uint256)": "infinite"
					}
				},
				"methodIdentifiers": {
					"depositEther()": "98ea5fca",
					"userAmount(address)": "e1ad418e",
					"withdrawEther(uint256)": "3bed33ce"
				}
			},
			"storageLayout": {
				"storage": [
					{
						"astId": 3,
						"contract": "money.sol:MoneyManager",
						"label": "totalAmount",
						"offset": 0,
						"slot": "0",
						"type": "t_uint256"
					},
					{
						"astId": 7,
						"contract": "money.sol:MoneyManager",
						"label": "userAmount",
						"offset": 0,
						"slot": "1",
						"type": "t_mapping(t_address,t_uint256)"
					}
				],
				"types": {
					"t_address": {
						"encoding": "inplace",
						"label": "address",
						"numberOfBytes": "20"
					},
					"t_mapping(t_address,t_uint256)": {
						"encoding": "mapping",
						"key": "t_address",
						"label": "mapping(address => uint256)",
						"numberOfBytes": "32",
						"value": "t_uint256"
					},
					"t_uint256": {
						"encoding": "inplace",
						"label": "uint256",
						"numberOfBytes": "32"
					}
				}
			},
			"userdoc": {
				"kind": "user",
				"methods": {},
				"version": 1
			}
		}
	}
}