{
	"voting.sol": {
		"Vote": {
			"abi": [
				{
					"inputs": [],
					"stateMutability": "nonpayable",
					"type": "constructor"
				},
				{
					"inputs": [],
					"name": "announceVotingResult",
					"outputs": [],
					"stateMutability": "nonpayable",
					"type": "function"
				},
				{
					"inputs": [
						{
							"internalType": "uint256",
							"name": "_voterId",
							"type": "uint256"
						},
						{
							"internalType": "uint256",
							"name": "_candidateId",
							"type": "uint256"
						}
					],
					"name": "castVote",
					"outputs": [],
					"stateMutability": "nonpayable",
					"type": "function"
				},
				{
					"inputs": [],
					"name": "emergencyStopVoting",
					"outputs": [],
					"stateMutability": "nonpayable",
					"type": "function"
				},
				{
					"inputs": [],
					"name": "getCandidateList",
					"outputs": [
						{
							"components": [
								{
									"internalType": "string",
									"name": "name",
									"type": "string"
								},
								{
									"internalType": "string",
									"name": "party",
									"type": "string"
								},
								{
									"internalType": "uint256",
									"name": "age",
									"type": "uint256"
								},
								{
									"internalType": "enum Vote.Gender",
									"name": "gender",
									"type": "uint8"
								},
								{
									"internalType": "uint256",
									"name": "candidateId",
									"type": "uint256"
								},
								{
									"internalType": "address",
									"name": "candidateAddress",
									"type": "address"
								},
								{
									"internalType": "uint256",
									"name": "votes",
									"type": "uint256"
								}
							],
							"internalType": "struct Vote.Candidate[]",
							"name": "",
							"type": "tuple[]"
						}
					],
					"stateMutability": "view",
					"type": "function"
				},
				{
					"inputs": [],
					"name": "getVoterList",
					"outputs": [
						{
							"components": [
								{
									"internalType": "string",
									"name": "name",
									"type": "string"
								},
								{
									"internalType": "uint256",
									"name": "age",
									"type": "uint256"
								},
								{
									"internalType": "uint256",
									"name": "voterId",
									"type": "uint256"
								},
								{
									"internalType": "enum Vote.Gender",
									"name": "gender",
									"type": "uint8"
								},
								{
									"internalType": "uint256",
									"name": "voteCandidateId",
									"type": "uint256"
								},
								{
									"internalType": "address",
									"name": "voterAddress",
									"type": "address"
								}
							],
							"internalType": "struct Vote.Voter[]",
							"name": "",
							"type": "tuple[]"
						}
					],
					"stateMutability": "view",
					"type": "function"
				},
				{
					"inputs": [],
					"name": "getVotingStatus",
					"outputs": [
						{
							"internalType": "enum Vote.VotingStatus",
							"name": "",
							"type": "uint8"
						}
					],
					"stateMutability": "view",
					"type": "function"
				},
				{
					"inputs": [
						{
							"internalType": "string",
							"name": "_name",
							"type": "string"
						},
						{
							"internalType": "string",
							"name": "_party",
							"type": "string"
						},
						{
							"internalType": "uint256",
							"name": "_age",
							"type": "uint256"
						},
						{
							"internalType": "enum Vote.Gender",
							"name": "_gender",
							"type": "uint8"
						}
					],
					"name": "registerCandidate",
					"outputs": [],
					"stateMutability": "nonpayable",
					"type": "function"
				},
				{
					"inputs": [
						{
							"internalType": "string",
							"name": "_name",
							"type": "string"
						},
						{
							"internalType": "uint256",
							"name": "_age",
							"type": "uint256"
						},
						{
							"internalType": "enum Vote.Gender",
							"name": "_gender",
							"type": "uint8"
						}
					],
					"name": "registerVoter",
					"outputs": [],
					"stateMutability": "nonpayable",
					"type": "function"
				},
				{
					"inputs": [
						{
							"internalType": "uint256",
							"name": "_startTime",
							"type": "uint256"
						},
						{
							"internalType": "uint256",
							"name": "_endTime",
							"type": "uint256"
						}
					],
					"name": "setVotingPeriod",
					"outputs": [],
					"stateMutability": "nonpayable",
					"type": "function"
				},
				{
					"inputs": [],
					"name": "winner",
					"outputs": [
						{
							"internalType": "address",
							"name": "",
							"type": "address"
						}
					],
					"stateMutability": "view",
					"type": "function"
				}
			],
			"devdoc": {
				"kind": "dev",
				"methods": {},
				"version": 1
			},
			"evm": {
				"assembly": "    /* \"voting.sol\":61:5375  contract Vote {... */\n  mstore(0x40, 0x80)\n    /* \"voting.sol\":553:554  1 */\n  0x01\n    /* \"voting.sol\":534:554  uint nextVoterId = 1 */\n  0x02\n  sstore\n    /* \"voting.sol\":584:585  1 */\n  0x01\n    /* \"voting.sol\":561:585  uint nextCandidateId = 1 */\n  0x03\n  sstore\n    /* \"voting.sol\":866:930  constructor() {... */\n  callvalue\n  dup1\n  iszero\n  tag_1\n  jumpi\n  0x00\n  dup1\n  revert\ntag_1:\n  pop\n    /* \"voting.sol\":912:922  msg.sender */\n  caller\n    /* \"voting.sol\":891:909  electionCommission */\n  0x00\n  dup1\n    /* \"voting.sol\":891:922  electionCommission = msg.sender */\n  0x0100\n  exp\n  dup2\n  sload\n  dup2\n  0xffffffffffffffffffffffffffffffffffffffff\n  mul\n  not\n  and\n  swap1\n  dup4\n  0xffffffffffffffffffffffffffffffffffffffff\n  and\n  mul\n  or\n  swap1\n  sstore\n  pop\n    /* \"voting.sol\":61:5375  contract Vote {... */\n  dataSize(sub_0)\n  dup1\n  dataOffset(sub_0)\n  0x00\n  codecopy\n  0x00\n  return\nstop\n\nsub_0: assembly {\n        /* \"voting.sol\":61:5375  contract Vote {... */\n      mstore(0x40, 0x80)\n      callvalue\n      dup1\n      iszero\n      tag_1\n      jumpi\n      0x00\n      dup1\n      revert\n    tag_1:\n      pop\n      jumpi(tag_2, lt(calldatasize, 0x04))\n      shr(0xe0, calldataload(0x00))\n      dup1\n      0x9fa4e440\n      gt\n      tag_13\n      jumpi\n      dup1\n      0x9fa4e440\n      eq\n      tag_8\n      jumpi\n      dup1\n      0xa15a36c7\n      eq\n      tag_9\n      jumpi\n      dup1\n      0xb28d92ae\n      eq\n      tag_10\n      jumpi\n      dup1\n      0xdfbf53ae\n      eq\n      tag_11\n      jumpi\n      dup1\n      0xfdbc4006\n      eq\n      tag_12\n      jumpi\n      jump(tag_2)\n    tag_13:\n      dup1\n      0x2c0a3f89\n      eq\n      tag_3\n      jumpi\n      dup1\n      0x581c281c\n      eq\n      tag_4\n      jumpi\n      dup1\n      0x6ce2ccc0\n      eq\n      tag_5\n      jumpi\n      dup1\n      0x81ba732f\n      eq\n      tag_6\n      jumpi\n      dup1\n      0x982c777d\n      eq\n      tag_7\n      jumpi\n    tag_2:\n      0x00\n      dup1\n      revert\n        /* \"voting.sol\":3785:4306  function castVote(uint _voterId, uint _candidateId) external {... */\n    tag_3:\n      tag_14\n      0x04\n      dup1\n      calldatasize\n      sub\n      dup2\n      add\n      swap1\n      tag_15\n      swap2\n      swap1\n      tag_16\n      jump\t// in\n    tag_15:\n      tag_17\n      jump\t// in\n    tag_14:\n      stop\n        /* \"voting.sol\":4511:4897  function getVotingStatus() public view returns (VotingStatus) {... */\n    tag_4:\n      tag_18\n      tag_19\n      jump\t// in\n    tag_18:\n      mload(0x40)\n      tag_20\n      swap2\n      swap1\n      tag_21\n      jump\t// in\n    tag_20:\n      mload(0x40)\n      dup1\n      swap2\n      sub\n      swap1\n      return\n        /* \"voting.sol\":4907:5270  function announceVotingResult() external onlyCommissioner() {... */\n    tag_5:\n      tag_22\n      tag_23\n      jump\t// in\n    tag_22:\n      stop\n        /* \"voting.sol\":3006:3503  function registerVoter(... */\n    tag_6:\n      tag_24\n      0x04\n      dup1\n      calldatasize\n      sub\n      dup2\n      add\n      swap1\n      tag_25\n      swap2\n      swap1\n      tag_26\n      jump\t// in\n    tag_25:\n      tag_27\n      jump\t// in\n    tag_24:\n      stop\n        /* \"voting.sol\":1339:2075  function registerCandidate(... */\n    tag_7:\n      tag_28\n      0x04\n      dup1\n      calldatasize\n      sub\n      dup2\n      add\n      swap1\n      tag_29\n      swap2\n      swap1\n      tag_30\n      jump\t// in\n    tag_29:\n      tag_31\n      jump\t// in\n    tag_28:\n      stop\n        /* \"voting.sol\":5280:5372  function emergencyStopVoting() public onlyCommissioner() {... */\n    tag_8:\n      tag_32\n      tag_33\n      jump\t// in\n    tag_32:\n      stop\n        /* \"voting.sol\":4316:4501  function setVotingPeriod(uint _startTime, uint _endTime) external onlyCommissioner() {... */\n    tag_9:\n      tag_34\n      0x04\n      dup1\n      calldatasize\n      sub\n      dup2\n      add\n      swap1\n      tag_35\n      swap2\n      swap1\n      tag_16\n      jump\t// in\n    tag_35:\n      tag_36\n      jump\t// in\n    tag_34:\n      stop\n        /* \"voting.sol\":3513:3775  function getVoterList() public view returns (Voter[] memory) {... */\n    tag_10:\n      tag_37\n      tag_38\n      jump\t// in\n    tag_37:\n      mload(0x40)\n      tag_39\n      swap2\n      swap1\n      tag_40\n      jump\t// in\n    tag_39:\n      mload(0x40)\n      dup1\n      swap2\n      sub\n      swap1\n      return\n        /* \"voting.sol\":506:527  address public winner */\n    tag_11:\n      tag_41\n      tag_42\n      jump\t// in\n    tag_41:\n      mload(0x40)\n      tag_43\n      swap2\n      swap1\n      tag_44\n      jump\t// in\n    tag_43:\n      mload(0x40)\n      dup1\n      swap2\n      sub\n      swap1\n      return\n        /* \"voting.sol\":2398:2715  function getCandidateList() public view returns (Candidate[] memory) {... */\n    tag_12:\n      tag_45\n      tag_46\n      jump\t// in\n    tag_45:\n      mload(0x40)\n      tag_47\n      swap2\n      swap1\n      tag_48\n      jump\t// in\n    tag_47:\n      mload(0x40)\n      dup1\n      swap2\n      sub\n      swap1\n      return\n        /* \"voting.sol\":3785:4306  function castVote(uint _voterId, uint _candidateId) external {... */\n    tag_17:\n        /* \"voting.sol\":3882:3891  startTime */\n      sload(0x04)\n        /* \"voting.sol\":3863:3878  block.timestamp */\n      timestamp\n        /* \"voting.sol\":3863:3891  block.timestamp >= startTime */\n      lt\n      iszero\n        /* \"voting.sol\":3863:3921  block.timestamp >= startTime || block.timestamp <= endTime */\n      dup1\n      tag_50\n      jumpi\n      pop\n        /* \"voting.sol\":3914:3921  endTime */\n      sload(0x05)\n        /* \"voting.sol\":3895:3910  block.timestamp */\n      timestamp\n        /* \"voting.sol\":3895:3921  block.timestamp <= endTime */\n      gt\n      iszero\n        /* \"voting.sol\":3863:3921  block.timestamp >= startTime || block.timestamp <= endTime */\n    tag_50:\n        /* \"voting.sol\":3855:3947  require(block.timestamp >= startTime || block.timestamp <= endTime,\"Voting time is invalid\") */\n      tag_51\n      jumpi\n      mload(0x40)\n      0x08c379a000000000000000000000000000000000000000000000000000000000\n      dup2\n      mstore\n      0x04\n      add\n      tag_52\n      swap1\n      tag_53\n      jump\t// in\n    tag_52:\n      mload(0x40)\n      dup1\n      swap2\n      sub\n      swap1\n      revert\n    tag_51:\n        /* \"voting.sol\":4008:4009  0 */\n      0x00\n        /* \"voting.sol\":3966:3978  voterDetails */\n      0x07\n        /* \"voting.sol\":3966:3988  voterDetails[_voterId] */\n      0x00\n        /* \"voting.sol\":3979:3987  _voterId */\n      dup5\n        /* \"voting.sol\":3966:3988  voterDetails[_voterId] */\n      dup2\n      mstore\n      0x20\n      add\n      swap1\n      dup2\n      mstore\n      0x20\n      add\n      0x00\n      keccak256\n        /* \"voting.sol\":3966:4004  voterDetails[_voterId].voteCandidateId */\n      0x04\n      add\n      sload\n        /* \"voting.sol\":3966:4009  voterDetails[_voterId].voteCandidateId == 0 */\n      eq\n        /* \"voting.sol\":3958:4033  require(voterDetails[_voterId].voteCandidateId == 0,\"You've already voted\") */\n      tag_54\n      jumpi\n      mload(0x40)\n      0x08c379a000000000000000000000000000000000000000000000000000000000\n      dup2\n      mstore\n      0x04\n      add\n      tag_55\n      swap1\n      tag_56\n      jump\t// in\n    tag_55:\n      mload(0x40)\n      dup1\n      swap2\n      sub\n      swap1\n      revert\n    tag_54:\n        /* \"voting.sol\":4089:4099  msg.sender */\n      caller\n        /* \"voting.sol\":4050:4099  voterDetails[_voterId].voterAddress == msg.sender */\n      0xffffffffffffffffffffffffffffffffffffffff\n      and\n        /* \"voting.sol\":4050:4062  voterDetails */\n      0x07\n        /* \"voting.sol\":4050:4072  voterDetails[_voterId] */\n      0x00\n        /* \"voting.sol\":4063:4071  _voterId */\n      dup5\n        /* \"voting.sol\":4050:4072  voterDetails[_voterId] */\n      dup2\n      mstore\n      0x20\n      add\n      swap1\n      dup2\n      mstore\n      0x20\n      add\n      0x00\n      keccak256\n        /* \"voting.sol\":4050:4085  voterDetails[_voterId].voterAddress */\n      0x05\n      add\n      0x00\n      swap1\n      sload\n      swap1\n      0x0100\n      exp\n      swap1\n      div\n      0xffffffffffffffffffffffffffffffffffffffff\n      and\n        /* \"voting.sol\":4050:4099  voterDetails[_voterId].voterAddress == msg.sender */\n      0xffffffffffffffffffffffffffffffffffffffff\n      and\n      eq\n        /* \"voting.sol\":4042:4127  require(voterDetails[_voterId].voterAddress == msg.sender,\"Your Address is invalid\" ) */\n      tag_57\n      jumpi\n      mload(0x40)\n      0x08c379a000000000000000000000000000000000000000000000000000000000\n      dup2\n      mstore\n      0x04\n      add\n      tag_58\n      swap1\n      tag_59\n      jump\t// in\n    tag_58:\n      mload(0x40)\n      dup1\n      swap2\n      sub\n      swap1\n      revert\n    tag_57:\n        /* \"voting.sol\":4163:4164  1 */\n      0x01\n        /* \"voting.sol\":4147:4159  _candidateId */\n      dup2\n        /* \"voting.sol\":4147:4164  _candidateId >= 1 */\n      lt\n      iszero\n        /* \"voting.sol\":4147:4184  _candidateId >= 1 && _candidateId < 3 */\n      dup1\n      iszero\n      tag_60\n      jumpi\n      pop\n        /* \"voting.sol\":4183:4184  3 */\n      0x03\n        /* \"voting.sol\":4168:4180  _candidateId */\n      dup2\n        /* \"voting.sol\":4168:4184  _candidateId < 3 */\n      lt\n        /* \"voting.sol\":4147:4184  _candidateId >= 1 && _candidateId < 3 */\n    tag_60:\n        /* \"voting.sol\":4139:4185  require(_candidateId >= 1 && _candidateId < 3) */\n      tag_61\n      jumpi\n      0x00\n      dup1\n      revert\n    tag_61:\n        /* \"voting.sol\":4239:4251  _candidateId */\n      dup1\n        /* \"voting.sol\":4198:4210  voterDetails */\n      0x07\n        /* \"voting.sol\":4198:4220  voterDetails[_voterId] */\n      0x00\n        /* \"voting.sol\":4211:4219  _voterId */\n      dup5\n        /* \"voting.sol\":4198:4220  voterDetails[_voterId] */\n      dup2\n      mstore\n      0x20\n      add\n      swap1\n      dup2\n      mstore\n      0x20\n      add\n      0x00\n      keccak256\n        /* \"voting.sol\":4198:4236  voterDetails[_voterId].voteCandidateId */\n      0x04\n      add\n        /* \"voting.sol\":4198:4251  voterDetails[_voterId].voteCandidateId = _candidateId */\n      dup2\n      swap1\n      sstore\n      pop\n        /* \"voting.sol\":4260:4276  candidateDetails */\n      0x08\n        /* \"voting.sol\":4260:4290  candidateDetails[_candidateId] */\n      0x00\n        /* \"voting.sol\":4277:4289  _candidateId */\n      dup3\n        /* \"voting.sol\":4260:4290  candidateDetails[_candidateId] */\n      dup2\n      mstore\n      0x20\n      add\n      swap1\n      dup2\n      mstore\n      0x20\n      add\n      0x00\n      keccak256\n        /* \"voting.sol\":4260:4296  candidateDetails[_candidateId].votes */\n      0x06\n      add\n      0x00\n        /* \"voting.sol\":4260:4298  candidateDetails[_candidateId].votes++ */\n      dup2\n      sload\n      dup1\n      swap3\n      swap2\n      swap1\n      tag_62\n      swap1\n      tag_63\n      jump\t// in\n    tag_62:\n      swap2\n      swap1\n      pop\n      sstore\n      pop\n        /* \"voting.sol\":3785:4306  function castVote(uint _voterId, uint _candidateId) external {... */\n      pop\n      pop\n      jump\t// out\n        /* \"voting.sol\":4511:4897  function getVotingStatus() public view returns (VotingStatus) {... */\n    tag_19:\n        /* \"voting.sol\":4559:4571  VotingStatus */\n      0x00\n        /* \"voting.sol\":4604:4605  0 */\n      dup1\n        /* \"voting.sol\":4591:4600  startTime */\n      sload(0x04)\n        /* \"voting.sol\":4591:4605  startTime == 0 */\n      sub\n        /* \"voting.sol\":4588:4890  if(startTime == 0 ) {... */\n      tag_65\n      jumpi\n        /* \"voting.sol\":4634:4657  VotingStatus.NotStarted */\n      0x00\n        /* \"voting.sol\":4627:4657  return VotingStatus.NotStarted */\n      swap1\n      pop\n      jump(tag_64)\n        /* \"voting.sol\":4588:4890  if(startTime == 0 ) {... */\n    tag_65:\n        /* \"voting.sol\":4706:4721  block.timestamp */\n      timestamp\n        /* \"voting.sol\":4696:4703  endTime */\n      sload(0x05)\n        /* \"voting.sol\":4696:4721  endTime > block.timestamp */\n      gt\n        /* \"voting.sol\":4696:4744  endTime > block.timestamp && stopVoting == false */\n      dup1\n      iszero\n      tag_67\n      jumpi\n      pop\n        /* \"voting.sol\":4739:4744  false */\n      0x00\n        /* \"voting.sol\":4725:4744  stopVoting == false */\n      iszero\n      iszero\n        /* \"voting.sol\":4725:4735  stopVoting */\n      0x06\n      0x00\n      swap1\n      sload\n      swap1\n      0x0100\n      exp\n      swap1\n      div\n      0xff\n      and\n        /* \"voting.sol\":4725:4744  stopVoting == false */\n      iszero\n      iszero\n      eq\n        /* \"voting.sol\":4696:4744  endTime > block.timestamp && stopVoting == false */\n    tag_67:\n        /* \"voting.sol\":4692:4890  if (endTime > block.timestamp && stopVoting == false) {... */\n      iszero\n      tag_68\n      jumpi\n        /* \"voting.sol\":4772:4795  VotingStatus.InProgress */\n      0x01\n        /* \"voting.sol\":4765:4795  return VotingStatus.InProgress */\n      swap1\n      pop\n      jump(tag_64)\n        /* \"voting.sol\":4692:4890  if (endTime > block.timestamp && stopVoting == false) {... */\n    tag_68:\n        /* \"voting.sol\":4856:4874  VotingStatus.Ended */\n      0x02\n        /* \"voting.sol\":4849:4874  return VotingStatus.Ended */\n      swap1\n      pop\n        /* \"voting.sol\":4511:4897  function getVotingStatus() public view returns (VotingStatus) {... */\n    tag_64:\n      swap1\n      jump\t// out\n        /* \"voting.sol\":4907:5270  function announceVotingResult() external onlyCommissioner() {... */\n    tag_23:\n        /* \"voting.sol\":1148:1158  msg.sender */\n      caller\n        /* \"voting.sol\":1126:1158  electionCommission == msg.sender */\n      0xffffffffffffffffffffffffffffffffffffffff\n      and\n        /* \"voting.sol\":1126:1144  electionCommission */\n      0x00\n      dup1\n      sload\n      swap1\n      0x0100\n      exp\n      swap1\n      div\n      0xffffffffffffffffffffffffffffffffffffffff\n      and\n        /* \"voting.sol\":1126:1158  electionCommission == msg.sender */\n      0xffffffffffffffffffffffffffffffffffffffff\n      and\n      eq\n        /* \"voting.sol\":1118:1192  require(electionCommission == msg.sender,\"You're not Election Commission\") */\n      tag_71\n      jumpi\n      mload(0x40)\n      0x08c379a000000000000000000000000000000000000000000000000000000000\n      dup2\n      mstore\n      0x04\n      add\n      tag_72\n      swap1\n      tag_73\n      jump\t// in\n    tag_72:\n      mload(0x40)\n      dup1\n      swap2\n      sub\n      swap1\n      revert\n    tag_71:\n        /* \"voting.sol\":4982:4990  uint max */\n      0x00\n        /* \"voting.sol\":5014:5020  uint i */\n      dup1\n        /* \"voting.sol\":5023:5024  1 */\n      0x01\n        /* \"voting.sol\":5014:5024  uint i = 1 */\n      swap1\n      pop\n        /* \"voting.sol\":5009:5263  for (uint i = 1; i < nextCandidateId;i++) {... */\n    tag_75:\n        /* \"voting.sol\":5030:5045  nextCandidateId */\n      sload(0x03)\n        /* \"voting.sol\":5026:5027  i */\n      dup2\n        /* \"voting.sol\":5026:5045  i < nextCandidateId */\n      lt\n        /* \"voting.sol\":5009:5263  for (uint i = 1; i < nextCandidateId;i++) {... */\n      iszero\n      tag_76\n      jumpi\n        /* \"voting.sol\":5101:5104  max */\n      dup2\n        /* \"voting.sol\":5073:5089  candidateDetails */\n      0x08\n        /* \"voting.sol\":5073:5092  candidateDetails[i] */\n      0x00\n        /* \"voting.sol\":5090:5091  i */\n      dup4\n        /* \"voting.sol\":5073:5092  candidateDetails[i] */\n      dup2\n      mstore\n      0x20\n      add\n      swap1\n      dup2\n      mstore\n      0x20\n      add\n      0x00\n      keccak256\n        /* \"voting.sol\":5073:5098  candidateDetails[i].votes */\n      0x06\n      add\n      sload\n        /* \"voting.sol\":5073:5104  candidateDetails[i].votes > max */\n      gt\n        /* \"voting.sol\":5070:5248  if(candidateDetails[i].votes > max) {... */\n      iszero\n      tag_78\n      jumpi\n        /* \"voting.sol\":5135:5151  candidateDetails */\n      0x08\n        /* \"voting.sol\":5135:5154  candidateDetails[i] */\n      0x00\n        /* \"voting.sol\":5152:5153  i */\n      dup3\n        /* \"voting.sol\":5135:5154  candidateDetails[i] */\n      dup2\n      mstore\n      0x20\n      add\n      swap1\n      dup2\n      mstore\n      0x20\n      add\n      0x00\n      keccak256\n        /* \"voting.sol\":5135:5160  candidateDetails[i].votes */\n      0x06\n      add\n      sload\n        /* \"voting.sol\":5129:5160  max = candidateDetails[i].votes */\n      swap2\n      pop\n        /* \"voting.sol\":5192:5208  candidateDetails */\n      0x08\n        /* \"voting.sol\":5192:5211  candidateDetails[i] */\n      0x00\n        /* \"voting.sol\":5209:5210  i */\n      dup3\n        /* \"voting.sol\":5192:5211  candidateDetails[i] */\n      dup2\n      mstore\n      0x20\n      add\n      swap1\n      dup2\n      mstore\n      0x20\n      add\n      0x00\n      keccak256\n        /* \"voting.sol\":5192:5228  candidateDetails[i].candidateAddress */\n      0x05\n      add\n      0x00\n      swap1\n      sload\n      swap1\n      0x0100\n      exp\n      swap1\n      div\n      0xffffffffffffffffffffffffffffffffffffffff\n      and\n        /* \"voting.sol\":5183:5189  winner */\n      0x01\n      0x00\n        /* \"voting.sol\":5183:5228  winner = candidateDetails[i].candidateAddress */\n      0x0100\n      exp\n      dup2\n      sload\n      dup2\n      0xffffffffffffffffffffffffffffffffffffffff\n      mul\n      not\n      and\n      swap1\n      dup4\n      0xffffffffffffffffffffffffffffffffffffffff\n      and\n      mul\n      or\n      swap1\n      sstore\n      pop\n        /* \"voting.sol\":5070:5248  if(candidateDetails[i].votes > max) {... */\n    tag_78:\n        /* \"voting.sol\":5046:5049  i++ */\n      dup1\n      dup1\n      0x01\n      add\n      swap2\n      pop\n      pop\n        /* \"voting.sol\":5009:5263  for (uint i = 1; i < nextCandidateId;i++) {... */\n      jump(tag_75)\n    tag_76:\n      pop\n        /* \"voting.sol\":4967:5270  {... */\n      pop\n        /* \"voting.sol\":4907:5270  function announceVotingResult() external onlyCommissioner() {... */\n      jump\t// out\n        /* \"voting.sol\":3006:3503  function registerVoter(... */\n    tag_27:\n        /* \"voting.sol\":3134:3138  _age */\n      dup2\n        /* \"voting.sol\":1278:1280  18 */\n      0x12\n        /* \"voting.sol\":1270:1274  _age */\n      dup2\n        /* \"voting.sol\":1270:1280  _age >= 18 */\n      lt\n      iszero\n        /* \"voting.sol\":1262:1305  require(_age >= 18,\"Your Age Is Not Valid\") */\n      tag_80\n      jumpi\n      mload(0x40)\n      0x08c379a000000000000000000000000000000000000000000000000000000000\n      dup2\n      mstore\n      0x04\n      add\n      tag_81\n      swap1\n      tag_82\n      jump\t// in\n    tag_81:\n      mload(0x40)\n      dup1\n      swap2\n      sub\n      swap1\n      revert\n    tag_80:\n        /* \"voting.sol\":3158:3190  isVoterNotRegistered(msg.sender) */\n      tag_84\n        /* \"voting.sol\":3179:3189  msg.sender */\n      caller\n        /* \"voting.sol\":3158:3178  isVoterNotRegistered */\n      tag_85\n        /* \"voting.sol\":3158:3190  isVoterNotRegistered(msg.sender) */\n      jump\t// in\n    tag_84:\n        /* \"voting.sol\":3150:3219  require(isVoterNotRegistered(msg.sender),\"You're Already Registered\") */\n      tag_86\n      jumpi\n      mload(0x40)\n      0x08c379a000000000000000000000000000000000000000000000000000000000\n      dup2\n      mstore\n      0x04\n      add\n      tag_87\n      swap1\n      tag_88\n      jump\t// in\n    tag_87:\n      mload(0x40)\n      dup1\n      swap2\n      sub\n      swap1\n      revert\n    tag_86:\n        /* \"voting.sol\":3270:3465  Voter ({... */\n      mload(0x40)\n      dup1\n      0xc0\n      add\n      0x40\n      mstore\n      dup1\n        /* \"voting.sol\":3298:3303  _name */\n      dup7\n      dup7\n        /* \"voting.sol\":3270:3465  Voter ({... */\n      dup1\n      dup1\n      0x1f\n      add\n      0x20\n      dup1\n      swap2\n      div\n      mul\n      0x20\n      add\n      mload(0x40)\n      swap1\n      dup2\n      add\n      0x40\n      mstore\n      dup1\n      swap4\n      swap3\n      swap2\n      swap1\n      dup2\n      dup2\n      mstore\n      0x20\n      add\n      dup4\n      dup4\n      dup1\n      dup3\n      dup5\n      calldatacopy\n      0x00\n      dup2\n      dup5\n      add\n      mstore\n      not(0x1f)\n      0x1f\n      dup3\n      add\n      and\n      swap1\n      pop\n      dup1\n      dup4\n      add\n      swap3\n      pop\n      pop\n      pop\n      pop\n      pop\n      pop\n      pop\n      dup2\n      mstore\n      0x20\n      add\n        /* \"voting.sol\":3321:3325  _age */\n      dup5\n        /* \"voting.sol\":3270:3465  Voter ({... */\n      dup2\n      mstore\n      0x20\n      add\n        /* \"voting.sol\":3347:3358  nextVoterId */\n      sload(0x02)\n        /* \"voting.sol\":3270:3465  Voter ({... */\n      dup2\n      mstore\n      0x20\n      add\n        /* \"voting.sol\":3379:3386  _gender */\n      dup4\n        /* \"voting.sol\":3270:3465  Voter ({... */\n      0x03\n      dup2\n      gt\n      iszero\n      tag_89\n      jumpi\n      tag_90\n      tag_91\n      jump\t// in\n    tag_90:\n    tag_89:\n      dup2\n      mstore\n      0x20\n      add\n        /* \"voting.sol\":3415:3416  0 */\n      0x00\n        /* \"voting.sol\":3270:3465  Voter ({... */\n      dup2\n      mstore\n      0x20\n      add\n        /* \"voting.sol\":3443:3453  msg.sender */\n      caller\n        /* \"voting.sol\":3270:3465  Voter ({... */\n      0xffffffffffffffffffffffffffffffffffffffff\n      and\n      dup2\n      mstore\n      pop\n        /* \"voting.sol\":3242:3254  voterDetails */\n      0x07\n        /* \"voting.sol\":3242:3267  voterDetails[nextVoterId] */\n      0x00\n        /* \"voting.sol\":3255:3266  nextVoterId */\n      sload(0x02)\n        /* \"voting.sol\":3242:3267  voterDetails[nextVoterId] */\n      dup2\n      mstore\n      0x20\n      add\n      swap1\n      dup2\n      mstore\n      0x20\n      add\n      0x00\n      keccak256\n        /* \"voting.sol\":3242:3465  voterDetails[nextVoterId] = Voter ({... */\n      0x00\n      dup3\n      add\n      mload\n      dup2\n      0x00\n      add\n      swap1\n      dup2\n      tag_92\n      swap2\n      swap1\n      tag_93\n      jump\t// in\n    tag_92:\n      pop\n      0x20\n      dup3\n      add\n      mload\n      dup2\n      0x01\n      add\n      sstore\n      0x40\n      dup3\n      add\n      mload\n      dup2\n      0x02\n      add\n      sstore\n      0x60\n      dup3\n      add\n      mload\n      dup2\n      0x03\n      add\n      exp(0x0100, 0x00)\n      dup2\n      sload\n      dup2\n      0xff\n      mul\n      not\n      and\n      swap1\n      dup4\n      0x03\n      dup2\n      gt\n      iszero\n      tag_94\n      jumpi\n      tag_95\n      tag_91\n      jump\t// in\n    tag_95:\n    tag_94:\n      mul\n      or\n      swap1\n      sstore\n      pop\n      0x80\n      dup3\n      add\n      mload\n      dup2\n      0x04\n      add\n      sstore\n      0xa0\n      dup3\n      add\n      mload\n      dup2\n      0x05\n      add\n      exp(0x0100, 0x00)\n      dup2\n      sload\n      dup2\n      0xffffffffffffffffffffffffffffffffffffffff\n      mul\n      not\n      and\n      swap1\n      dup4\n      0xffffffffffffffffffffffffffffffffffffffff\n      and\n      mul\n      or\n      swap1\n      sstore\n      pop\n      swap1\n      pop\n      pop\n        /* \"voting.sol\":3480:3491  nextVoterId */\n      0x02\n      0x00\n        /* \"voting.sol\":3480:3493  nextVoterId++ */\n      dup2\n      sload\n      dup1\n      swap3\n      swap2\n      swap1\n      tag_96\n      swap1\n      tag_63\n      jump\t// in\n    tag_96:\n      swap2\n      swap1\n      pop\n      sstore\n      pop\n        /* \"voting.sol\":3006:3503  function registerVoter(... */\n      pop\n      pop\n      pop\n      pop\n      pop\n      jump\t// out\n        /* \"voting.sol\":1339:2075  function registerCandidate(... */\n    tag_31:\n        /* \"voting.sol\":1503:1507  _age */\n      dup2\n        /* \"voting.sol\":1278:1280  18 */\n      0x12\n        /* \"voting.sol\":1270:1274  _age */\n      dup2\n        /* \"voting.sol\":1270:1280  _age >= 18 */\n      lt\n      iszero\n        /* \"voting.sol\":1262:1305  require(_age >= 18,\"Your Age Is Not Valid\") */\n      tag_98\n      jumpi\n      mload(0x40)\n      0x08c379a000000000000000000000000000000000000000000000000000000000\n      dup2\n      mstore\n      0x04\n      add\n      tag_99\n      swap1\n      tag_82\n      jump\t// in\n    tag_99:\n      mload(0x40)\n      dup1\n      swap2\n      sub\n      swap1\n      revert\n    tag_98:\n        /* \"voting.sol\":1528:1564  isCandidateNotRegistered(msg.sender) */\n      tag_101\n        /* \"voting.sol\":1553:1563  msg.sender */\n      caller\n        /* \"voting.sol\":1528:1552  isCandidateNotRegistered */\n      tag_102\n        /* \"voting.sol\":1528:1564  isCandidateNotRegistered(msg.sender) */\n      jump\t// in\n    tag_101:\n        /* \"voting.sol\":1520:1593  require(isCandidateNotRegistered(msg.sender),\"You're already Registered\") */\n      tag_103\n      jumpi\n      mload(0x40)\n      0x08c379a000000000000000000000000000000000000000000000000000000000\n      dup2\n      mstore\n      0x04\n      add\n      tag_104\n      swap1\n      tag_105\n      jump\t// in\n    tag_104:\n      mload(0x40)\n      dup1\n      swap2\n      sub\n      swap1\n      revert\n    tag_103:\n        /* \"voting.sol\":1626:1644  electionCommission */\n      0x00\n      dup1\n      sload\n      swap1\n      0x0100\n      exp\n      swap1\n      div\n      0xffffffffffffffffffffffffffffffffffffffff\n      and\n        /* \"voting.sol\":1612:1644  msg.sender != electionCommission */\n      0xffffffffffffffffffffffffffffffffffffffff\n      and\n        /* \"voting.sol\":1612:1622  msg.sender */\n      caller\n        /* \"voting.sol\":1612:1644  msg.sender != electionCommission */\n      0xffffffffffffffffffffffffffffffffffffffff\n      and\n      sub\n        /* \"voting.sol\":1604:1678  require(msg.sender != electionCommission,\"You're Not Allowed To Register\") */\n      tag_106\n      jumpi\n      mload(0x40)\n      0x08c379a000000000000000000000000000000000000000000000000000000000\n      dup2\n      mstore\n      0x04\n      add\n      tag_107\n      swap1\n      tag_108\n      jump\t// in\n    tag_107:\n      mload(0x40)\n      dup1\n      swap2\n      sub\n      swap1\n      revert\n    tag_106:\n        /* \"voting.sol\":1714:1715  3 */\n      0x03\n        /* \"voting.sol\":1697:1712  nextCandidateId */\n      dup1\n      sload\n        /* \"voting.sol\":1697:1715  nextCandidateId <3 */\n      lt\n        /* \"voting.sol\":1689:1747  require(nextCandidateId <3,\"Maximum Candidate Registered\") */\n      tag_109\n      jumpi\n      mload(0x40)\n      0x08c379a000000000000000000000000000000000000000000000000000000000\n      dup2\n      mstore\n      0x04\n      add\n      tag_110\n      swap1\n      tag_111\n      jump\t// in\n    tag_110:\n      mload(0x40)\n      dup1\n      swap2\n      sub\n      swap1\n      revert\n    tag_109:\n        /* \"voting.sol\":1803:2031  Candidate ( {... */\n      mload(0x40)\n      dup1\n      0xe0\n      add\n      0x40\n      mstore\n      dup1\n        /* \"voting.sol\":1833:1838  _name */\n      dup9\n      dup9\n        /* \"voting.sol\":1803:2031  Candidate ( {... */\n      dup1\n      dup1\n      0x1f\n      add\n      0x20\n      dup1\n      swap2\n      div\n      mul\n      0x20\n      add\n      mload(0x40)\n      swap1\n      dup2\n      add\n      0x40\n      mstore\n      dup1\n      swap4\n      swap3\n      swap2\n      swap1\n      dup2\n      dup2\n      mstore\n      0x20\n      add\n      dup4\n      dup4\n      dup1\n      dup3\n      dup5\n      calldatacopy\n      0x00\n      dup2\n      dup5\n      add\n      mstore\n      not(0x1f)\n      0x1f\n      dup3\n      add\n      and\n      swap1\n      pop\n      dup1\n      dup4\n      add\n      swap3\n      pop\n      pop\n      pop\n      pop\n      pop\n      pop\n      pop\n      dup2\n      mstore\n      0x20\n      add\n        /* \"voting.sol\":1857:1863  _party */\n      dup7\n      dup7\n        /* \"voting.sol\":1803:2031  Candidate ( {... */\n      dup1\n      dup1\n      0x1f\n      add\n      0x20\n      dup1\n      swap2\n      div\n      mul\n      0x20\n      add\n      mload(0x40)\n      swap1\n      dup2\n      add\n      0x40\n      mstore\n      dup1\n      swap4\n      swap3\n      swap2\n      swap1\n      dup2\n      dup2\n      mstore\n      0x20\n      add\n      dup4\n      dup4\n      dup1\n      dup3\n      dup5\n      calldatacopy\n      0x00\n      dup2\n      dup5\n      add\n      mstore\n      not(0x1f)\n      0x1f\n      dup3\n      add\n      and\n      swap1\n      pop\n      dup1\n      dup4\n      add\n      swap3\n      pop\n      pop\n      pop\n      pop\n      pop\n      pop\n      pop\n      dup2\n      mstore\n      0x20\n      add\n        /* \"voting.sol\":1880:1884  _age */\n      dup5\n        /* \"voting.sol\":1803:2031  Candidate ( {... */\n      dup2\n      mstore\n      0x20\n      add\n        /* \"voting.sol\":1904:1911  _gender */\n      dup4\n        /* \"voting.sol\":1803:2031  Candidate ( {... */\n      0x03\n      dup2\n      gt\n      iszero\n      tag_112\n      jumpi\n      tag_113\n      tag_91\n      jump\t// in\n    tag_113:\n    tag_112:\n      dup2\n      mstore\n      0x20\n      add\n        /* \"voting.sol\":1976:1991  nextCandidateId */\n      sload(0x03)\n        /* \"voting.sol\":1803:2031  Candidate ( {... */\n      dup2\n      mstore\n      0x20\n      add\n        /* \"voting.sol\":1941:1951  msg.sender */\n      caller\n        /* \"voting.sol\":1803:2031  Candidate ( {... */\n      0xffffffffffffffffffffffffffffffffffffffff\n      and\n      dup2\n      mstore\n      0x20\n      add\n        /* \"voting.sol\":2008:2009  0 */\n      0x00\n        /* \"voting.sol\":1803:2031  Candidate ( {... */\n      dup2\n      mstore\n      pop\n        /* \"voting.sol\":1767:1783  candidateDetails */\n      0x08\n        /* \"voting.sol\":1767:1800  candidateDetails[nextCandidateId] */\n      0x00\n        /* \"voting.sol\":1784:1799  nextCandidateId */\n      sload(0x03)\n        /* \"voting.sol\":1767:1800  candidateDetails[nextCandidateId] */\n      dup2\n      mstore\n      0x20\n      add\n      swap1\n      dup2\n      mstore\n      0x20\n      add\n      0x00\n      keccak256\n        /* \"voting.sol\":1767:2031  candidateDetails[nextCandidateId] = Candidate ( {... */\n      0x00\n      dup3\n      add\n      mload\n      dup2\n      0x00\n      add\n      swap1\n      dup2\n      tag_114\n      swap2\n      swap1\n      tag_93\n      jump\t// in\n    tag_114:\n      pop\n      0x20\n      dup3\n      add\n      mload\n      dup2\n      0x01\n      add\n      swap1\n      dup2\n      tag_115\n      swap2\n      swap1\n      tag_93\n      jump\t// in\n    tag_115:\n      pop\n      0x40\n      dup3\n      add\n      mload\n      dup2\n      0x02\n      add\n      sstore\n      0x60\n      dup3\n      add\n      mload\n      dup2\n      0x03\n      add\n      exp(0x0100, 0x00)\n      dup2\n      sload\n      dup2\n      0xff\n      mul\n      not\n      and\n      swap1\n      dup4\n      0x03\n      dup2\n      gt\n      iszero\n      tag_116\n      jumpi\n      tag_117\n      tag_91\n      jump\t// in\n    tag_117:\n    tag_116:\n      mul\n      or\n      swap1\n      sstore\n      pop\n      0x80\n      dup3\n      add\n      mload\n      dup2\n      0x04\n      add\n      sstore\n      0xa0\n      dup3\n      add\n      mload\n      dup2\n      0x05\n      add\n      exp(0x0100, 0x00)\n      dup2\n      sload\n      dup2\n      0xffffffffffffffffffffffffffffffffffffffff\n      mul\n      not\n      and\n      swap1\n      dup4\n      0xffffffffffffffffffffffffffffffffffffffff\n      and\n      mul\n      or\n      swap1\n      sstore\n      pop\n      0xc0\n      dup3\n      add\n      mload\n      dup2\n      0x06\n      add\n      sstore\n      swap1\n      pop\n      pop\n        /* \"voting.sol\":2041:2056  nextCandidateId */\n      0x03\n      0x00\n        /* \"voting.sol\":2041:2058  nextCandidateId++ */\n      dup2\n      sload\n      dup1\n      swap3\n      swap2\n      swap1\n      tag_118\n      swap1\n      tag_63\n      jump\t// in\n    tag_118:\n      swap2\n      swap1\n      pop\n      sstore\n      pop\n        /* \"voting.sol\":1339:2075  function registerCandidate(... */\n      pop\n      pop\n      pop\n      pop\n      pop\n      pop\n      pop\n      jump\t// out\n        /* \"voting.sol\":5280:5372  function emergencyStopVoting() public onlyCommissioner() {... */\n    tag_33:\n        /* \"voting.sol\":1148:1158  msg.sender */\n      caller\n        /* \"voting.sol\":1126:1158  electionCommission == msg.sender */\n      0xffffffffffffffffffffffffffffffffffffffff\n      and\n        /* \"voting.sol\":1126:1144  electionCommission */\n      0x00\n      dup1\n      sload\n      swap1\n      0x0100\n      exp\n      swap1\n      div\n      0xffffffffffffffffffffffffffffffffffffffff\n      and\n        /* \"voting.sol\":1126:1158  electionCommission == msg.sender */\n      0xffffffffffffffffffffffffffffffffffffffff\n      and\n      eq\n        /* \"voting.sol\":1118:1192  require(electionCommission == msg.sender,\"You're not Election Commission\") */\n      tag_120\n      jumpi\n      mload(0x40)\n      0x08c379a000000000000000000000000000000000000000000000000000000000\n      dup2\n      mstore\n      0x04\n      add\n      tag_121\n      swap1\n      tag_73\n      jump\t// in\n    tag_121:\n      mload(0x40)\n      dup1\n      swap2\n      sub\n      swap1\n      revert\n    tag_120:\n        /* \"voting.sol\":5360:5364  true */\n      0x01\n        /* \"voting.sol\":5347:5357  stopVoting */\n      0x06\n      0x00\n        /* \"voting.sol\":5347:5364  stopVoting = true */\n      0x0100\n      exp\n      dup2\n      sload\n      dup2\n      0xff\n      mul\n      not\n      and\n      swap1\n      dup4\n      iszero\n      iszero\n      mul\n      or\n      swap1\n      sstore\n      pop\n        /* \"voting.sol\":5280:5372  function emergencyStopVoting() public onlyCommissioner() {... */\n      jump\t// out\n        /* \"voting.sol\":4316:4501  function setVotingPeriod(uint _startTime, uint _endTime) external onlyCommissioner() {... */\n    tag_36:\n        /* \"voting.sol\":1148:1158  msg.sender */\n      caller\n        /* \"voting.sol\":1126:1158  electionCommission == msg.sender */\n      0xffffffffffffffffffffffffffffffffffffffff\n      and\n        /* \"voting.sol\":1126:1144  electionCommission */\n      0x00\n      dup1\n      sload\n      swap1\n      0x0100\n      exp\n      swap1\n      div\n      0xffffffffffffffffffffffffffffffffffffffff\n      and\n        /* \"voting.sol\":1126:1158  electionCommission == msg.sender */\n      0xffffffffffffffffffffffffffffffffffffffff\n      and\n      eq\n        /* \"voting.sol\":1118:1192  require(electionCommission == msg.sender,\"You're not Election Commission\") */\n      tag_124\n      jumpi\n      mload(0x40)\n      0x08c379a000000000000000000000000000000000000000000000000000000000\n      dup2\n      mstore\n      0x04\n      add\n      tag_125\n      swap1\n      tag_73\n      jump\t// in\n    tag_125:\n      mload(0x40)\n      dup1\n      swap2\n      sub\n      swap1\n      revert\n    tag_124:\n        /* \"voting.sol\":4442:4452  _startTime */\n      dup2\n        /* \"voting.sol\":4424:4439  block.timestamp */\n      timestamp\n        /* \"voting.sol\":4424:4452  block.timestamp + _startTime */\n      tag_127\n      swap2\n      swap1\n      tag_128\n      jump\t// in\n    tag_127:\n        /* \"voting.sol\":4412:4421  startTime */\n      0x04\n        /* \"voting.sol\":4412:4452  startTime = block.timestamp + _startTime */\n      dup2\n      swap1\n      sstore\n      pop\n        /* \"voting.sol\":4485:4493  _endTime */\n      dup1\n        /* \"voting.sol\":4473:4482  startTime */\n      sload(0x04)\n        /* \"voting.sol\":4473:4493  startTime + _endTime */\n      tag_129\n      swap2\n      swap1\n      tag_128\n      jump\t// in\n    tag_129:\n        /* \"voting.sol\":4463:4470  endTime */\n      0x05\n        /* \"voting.sol\":4463:4493  endTime = startTime + _endTime */\n      dup2\n      swap1\n      sstore\n      pop\n        /* \"voting.sol\":4316:4501  function setVotingPeriod(uint _startTime, uint _endTime) external onlyCommissioner() {... */\n      pop\n      pop\n      jump\t// out\n        /* \"voting.sol\":3513:3775  function getVoterList() public view returns (Voter[] memory) {... */\n    tag_38:\n        /* \"voting.sol\":3558:3572  Voter[] memory */\n      0x60\n        /* \"voting.sol\":3585:3610  Voter [] memory voterList */\n      0x00\n        /* \"voting.sol\":3639:3640  1 */\n      0x01\n        /* \"voting.sol\":3627:3638  nextVoterId */\n      sload(0x02)\n        /* \"voting.sol\":3627:3640  nextVoterId-1 */\n      tag_131\n      swap2\n      swap1\n      tag_132\n      jump\t// in\n    tag_131:\n        /* \"voting.sol\":3613:3641  new Voter [] (nextVoterId-1) */\n      0xffffffffffffffff\n      dup2\n      gt\n      iszero\n      tag_133\n      jumpi\n      tag_134\n      tag_135\n      jump\t// in\n    tag_134:\n    tag_133:\n      mload(0x40)\n      swap1\n      dup1\n      dup3\n      mstore\n      dup1\n      0x20\n      mul\n      0x20\n      add\n      dup3\n      add\n      0x40\n      mstore\n      dup1\n      iszero\n      tag_136\n      jumpi\n      dup2\n      0x20\n      add\n    tag_137:\n      tag_138\n      tag_139\n      jump\t// in\n    tag_138:\n      dup2\n      mstore\n      0x20\n      add\n      swap1\n      0x01\n      swap1\n      sub\n      swap1\n      dup2\n      tag_137\n      jumpi\n      swap1\n      pop\n    tag_136:\n      pop\n        /* \"voting.sol\":3585:3641  Voter [] memory voterList = new Voter [] (nextVoterId-1) */\n      swap1\n      pop\n        /* \"voting.sol\":3656:3662  uint i */\n      0x00\n        /* \"voting.sol\":3652:3744  for(uint i = 0;i < voterList.length;i++) {... */\n    tag_140:\n        /* \"voting.sol\":3671:3680  voterList */\n      dup2\n        /* \"voting.sol\":3671:3687  voterList.length */\n      mload\n        /* \"voting.sol\":3667:3668  i */\n      dup2\n        /* \"voting.sol\":3667:3687  i < voterList.length */\n      lt\n        /* \"voting.sol\":3652:3744  for(uint i = 0;i < voterList.length;i++) {... */\n      iszero\n      tag_141\n      jumpi\n        /* \"voting.sol\":3719:3731  voterDetails */\n      0x07\n        /* \"voting.sol\":3719:3736  voterDetails[i+1] */\n      0x00\n        /* \"voting.sol\":3734:3735  1 */\n      0x01\n        /* \"voting.sol\":3732:3733  i */\n      dup4\n        /* \"voting.sol\":3732:3735  i+1 */\n      tag_143\n      swap2\n      swap1\n      tag_128\n      jump\t// in\n    tag_143:\n        /* \"voting.sol\":3719:3736  voterDetails[i+1] */\n      dup2\n      mstore\n      0x20\n      add\n      swap1\n      dup2\n      mstore\n      0x20\n      add\n      0x00\n      keccak256\n        /* \"voting.sol\":3704:3736  voterList[i] = voterDetails[i+1] */\n      mload(0x40)\n      dup1\n      0xc0\n      add\n      0x40\n      mstore\n      swap1\n      dup2\n      0x00\n      dup3\n      add\n      dup1\n      sload\n      tag_144\n      swap1\n      tag_145\n      jump\t// in\n    tag_144:\n      dup1\n      0x1f\n      add\n      0x20\n      dup1\n      swap2\n      div\n      mul\n      0x20\n      add\n      mload(0x40)\n      swap1\n      dup2\n      add\n      0x40\n      mstore\n      dup1\n      swap3\n      swap2\n      swap1\n      dup2\n      dup2\n      mstore\n      0x20\n      add\n      dup3\n      dup1\n      sload\n      tag_146\n      swap1\n      tag_145\n      jump\t// in\n    tag_146:\n      dup1\n      iszero\n      tag_147\n      jumpi\n      dup1\n      0x1f\n      lt\n      tag_148\n      jumpi\n      0x0100\n      dup1\n      dup4\n      sload\n      div\n      mul\n      dup4\n      mstore\n      swap2\n      0x20\n      add\n      swap2\n      jump(tag_147)\n    tag_148:\n      dup3\n      add\n      swap2\n      swap1\n      0x00\n      mstore\n      keccak256(0x00, 0x20)\n      swap1\n    tag_149:\n      dup2\n      sload\n      dup2\n      mstore\n      swap1\n      0x01\n      add\n      swap1\n      0x20\n      add\n      dup1\n      dup4\n      gt\n      tag_149\n      jumpi\n      dup3\n      swap1\n      sub\n      0x1f\n      and\n      dup3\n      add\n      swap2\n    tag_147:\n      pop\n      pop\n      pop\n      pop\n      pop\n      dup2\n      mstore\n      0x20\n      add\n      0x01\n      dup3\n      add\n      sload\n      dup2\n      mstore\n      0x20\n      add\n      0x02\n      dup3\n      add\n      sload\n      dup2\n      mstore\n      0x20\n      add\n      0x03\n      dup3\n      add\n      0x00\n      swap1\n      sload\n      swap1\n      0x0100\n      exp\n      swap1\n      div\n      0xff\n      and\n      0x03\n      dup2\n      gt\n      iszero\n      tag_150\n      jumpi\n      tag_151\n      tag_91\n      jump\t// in\n    tag_151:\n    tag_150:\n      0x03\n      dup2\n      gt\n      iszero\n      tag_152\n      jumpi\n      tag_153\n      tag_91\n      jump\t// in\n    tag_153:\n    tag_152:\n      dup2\n      mstore\n      0x20\n      add\n      0x04\n      dup3\n      add\n      sload\n      dup2\n      mstore\n      0x20\n      add\n      0x05\n      dup3\n      add\n      0x00\n      swap1\n      sload\n      swap1\n      0x0100\n      exp\n      swap1\n      div\n      0xffffffffffffffffffffffffffffffffffffffff\n      and\n      0xffffffffffffffffffffffffffffffffffffffff\n      and\n      0xffffffffffffffffffffffffffffffffffffffff\n      and\n      dup2\n      mstore\n      pop\n      pop\n        /* \"voting.sol\":3704:3713  voterList */\n      dup3\n        /* \"voting.sol\":3714:3715  i */\n      dup3\n        /* \"voting.sol\":3704:3716  voterList[i] */\n      dup2\n      mload\n      dup2\n      lt\n      tag_154\n      jumpi\n      tag_155\n      tag_156\n      jump\t// in\n    tag_155:\n    tag_154:\n      0x20\n      mul\n      0x20\n      add\n      add\n        /* \"voting.sol\":3704:3736  voterList[i] = voterDetails[i+1] */\n      dup2\n      swap1\n      mstore\n      pop\n        /* \"voting.sol\":3688:3691  i++ */\n      dup1\n      dup1\n      0x01\n      add\n      swap2\n      pop\n      pop\n        /* \"voting.sol\":3652:3744  for(uint i = 0;i < voterList.length;i++) {... */\n      jump(tag_140)\n    tag_141:\n      pop\n        /* \"voting.sol\":3758:3767  voterList */\n      dup1\n        /* \"voting.sol\":3751:3767  return voterList */\n      swap2\n      pop\n      pop\n        /* \"voting.sol\":3513:3775  function getVoterList() public view returns (Voter[] memory) {... */\n      swap1\n      jump\t// out\n        /* \"voting.sol\":506:527  address public winner */\n    tag_42:\n      0x01\n      0x00\n      swap1\n      sload\n      swap1\n      0x0100\n      exp\n      swap1\n      div\n      0xffffffffffffffffffffffffffffffffffffffff\n      and\n      dup2\n      jump\t// out\n        /* \"voting.sol\":2398:2715  function getCandidateList() public view returns (Candidate[] memory) {... */\n    tag_46:\n        /* \"voting.sol\":2447:2465  Candidate[] memory */\n      0x60\n        /* \"voting.sol\":2477:2510  Candidate [] memory candidateList */\n      0x00\n        /* \"voting.sol\":2548:2549  1 */\n      0x01\n        /* \"voting.sol\":2531:2546  nextCandidateId */\n      sload(0x03)\n        /* \"voting.sol\":2531:2549  nextCandidateId -1 */\n      tag_158\n      swap2\n      swap1\n      tag_132\n      jump\t// in\n    tag_158:\n        /* \"voting.sol\":2513:2550  new Candidate [] (nextCandidateId -1) */\n      0xffffffffffffffff\n      dup2\n      gt\n      iszero\n      tag_159\n      jumpi\n      tag_160\n      tag_135\n      jump\t// in\n    tag_160:\n    tag_159:\n      mload(0x40)\n      swap1\n      dup1\n      dup3\n      mstore\n      dup1\n      0x20\n      mul\n      0x20\n      add\n      dup3\n      add\n      0x40\n      mstore\n      dup1\n      iszero\n      tag_161\n      jumpi\n      dup2\n      0x20\n      add\n    tag_162:\n      tag_163\n      tag_164\n      jump\t// in\n    tag_163:\n      dup2\n      mstore\n      0x20\n      add\n      swap1\n      0x01\n      swap1\n      sub\n      swap1\n      dup2\n      tag_162\n      jumpi\n      swap1\n      pop\n    tag_161:\n      pop\n        /* \"voting.sol\":2477:2550  Candidate [] memory candidateList = new Candidate [] (nextCandidateId -1) */\n      swap1\n      pop\n        /* \"voting.sol\":2566:2572  uint i */\n      0x00\n        /* \"voting.sol\":2562:2676  for(uint i = 0; i < candidateList.length;i++) {... */\n    tag_165:\n        /* \"voting.sol\":2582:2595  candidateList */\n      dup2\n        /* \"voting.sol\":2582:2602  candidateList.length */\n      mload\n        /* \"voting.sol\":2578:2579  i */\n      dup2\n        /* \"voting.sol\":2578:2602  i < candidateList.length */\n      lt\n        /* \"voting.sol\":2562:2676  for(uint i = 0; i < candidateList.length;i++) {... */\n      iszero\n      tag_166\n      jumpi\n        /* \"voting.sol\":2642:2658  candidateDetails */\n      0x08\n        /* \"voting.sol\":2642:2663  candidateDetails[i+1] */\n      0x00\n        /* \"voting.sol\":2661:2662  1 */\n      0x01\n        /* \"voting.sol\":2659:2660  i */\n      dup4\n        /* \"voting.sol\":2659:2662  i+1 */\n      tag_168\n      swap2\n      swap1\n      tag_128\n      jump\t// in\n    tag_168:\n        /* \"voting.sol\":2642:2663  candidateDetails[i+1] */\n      dup2\n      mstore\n      0x20\n      add\n      swap1\n      dup2\n      mstore\n      0x20\n      add\n      0x00\n      keccak256\n        /* \"voting.sol\":2623:2663  candidateList[i] = candidateDetails[i+1] */\n      mload(0x40)\n      dup1\n      0xe0\n      add\n      0x40\n      mstore\n      swap1\n      dup2\n      0x00\n      dup3\n      add\n      dup1\n      sload\n      tag_169\n      swap1\n      tag_145\n      jump\t// in\n    tag_169:\n      dup1\n      0x1f\n      add\n      0x20\n      dup1\n      swap2\n      div\n      mul\n      0x20\n      add\n      mload(0x40)\n      swap1\n      dup2\n      add\n      0x40\n      mstore\n      dup1\n      swap3\n      swap2\n      swap1\n      dup2\n      dup2\n      mstore\n      0x20\n      add\n      dup3\n      dup1\n      sload\n      tag_170\n      swap1\n      tag_145\n      jump\t// in\n    tag_170:\n      dup1\n      iszero\n      tag_171\n      jumpi\n      dup1\n      0x1f\n      lt\n      tag_172\n      jumpi\n      0x0100\n      dup1\n      dup4\n      sload\n      div\n      mul\n      dup4\n      mstore\n      swap2\n      0x20\n      add\n      swap2\n      jump(tag_171)\n    tag_172:\n      dup3\n      add\n      swap2\n      swap1\n      0x00\n      mstore\n      keccak256(0x00, 0x20)\n      swap1\n    tag_173:\n      dup2\n      sload\n      dup2\n      mstore\n      swap1\n      0x01\n      add\n      swap1\n      0x20\n      add\n      dup1\n      dup4\n      gt\n      tag_173\n      jumpi\n      dup3\n      swap1\n      sub\n      0x1f\n      and\n      dup3\n      add\n      swap2\n    tag_171:\n      pop\n      pop\n      pop\n      pop\n      pop\n      dup2\n      mstore\n      0x20\n      add\n      0x01\n      dup3\n      add\n      dup1\n      sload\n      tag_174\n      swap1\n      tag_145\n      jump\t// in\n    tag_174:\n      dup1\n      0x1f\n      add\n      0x20\n      dup1\n      swap2\n      div\n      mul\n      0x20\n      add\n      mload(0x40)\n      swap1\n      dup2\n      add\n      0x40\n      mstore\n      dup1\n      swap3\n      swap2\n      swap1\n      dup2\n      dup2\n      mstore\n      0x20\n      add\n      dup3\n      dup1\n      sload\n      tag_175\n      swap1\n      tag_145\n      jump\t// in\n    tag_175:\n      dup1\n      iszero\n      tag_176\n      jumpi\n      dup1\n      0x1f\n      lt\n      tag_177\n      jumpi\n      0x0100\n      dup1\n      dup4\n      sload\n      div\n      mul\n      dup4\n      mstore\n      swap2\n      0x20\n      add\n      swap2\n      jump(tag_176)\n    tag_177:\n      dup3\n      add\n      swap2\n      swap1\n      0x00\n      mstore\n      keccak256(0x00, 0x20)\n      swap1\n    tag_178:\n      dup2\n      sload\n      dup2\n      mstore\n      swap1\n      0x01\n      add\n      swap1\n      0x20\n      add\n      dup1\n      dup4\n      gt\n      tag_178\n      jumpi\n      dup3\n      swap1\n      sub\n      0x1f\n      and\n      dup3\n      add\n      swap2\n    tag_176:\n      pop\n      pop\n      pop\n      pop\n      pop\n      dup2\n      mstore\n      0x20\n      add\n      0x02\n      dup3\n      add\n      sload\n      dup2\n      mstore\n      0x20\n      add\n      0x03\n      dup3\n      add\n      0x00\n      swap1\n      sload\n      swap1\n      0x0100\n      exp\n      swap1\n      div\n      0xff\n      and\n      0x03\n      dup2\n      gt\n      iszero\n      tag_179\n      jumpi\n      tag_180\n      tag_91\n      jump\t// in\n    tag_180:\n    tag_179:\n      0x03\n      dup2\n      gt\n      iszero\n      tag_181\n      jumpi\n      tag_182\n      tag_91\n      jump\t// in\n    tag_182:\n    tag_181:\n      dup2\n      mstore\n      0x20\n      add\n      0x04\n      dup3\n      add\n      sload\n      dup2\n      mstore\n      0x20\n      add\n      0x05\n      dup3\n      add\n      0x00\n      swap1\n      sload\n      swap1\n      0x0100\n      exp\n      swap1\n      div\n      0xffffffffffffffffffffffffffffffffffffffff\n      and\n      0xffffffffffffffffffffffffffffffffffffffff\n      and\n      0xffffffffffffffffffffffffffffffffffffffff\n      and\n      dup2\n      mstore\n      0x20\n      add\n      0x06\n      dup3\n      add\n      sload\n      dup2\n      mstore\n      pop\n      pop\n        /* \"voting.sol\":2623:2636  candidateList */\n      dup3\n        /* \"voting.sol\":2637:2638  i */\n      dup3\n        /* \"voting.sol\":2623:2639  candidateList[i] */\n      dup2\n      mload\n      dup2\n      lt\n      tag_183\n      jumpi\n      tag_184\n      tag_156\n      jump\t// in\n    tag_184:\n    tag_183:\n      0x20\n      mul\n      0x20\n      add\n      add\n        /* \"voting.sol\":2623:2663  candidateList[i] = candidateDetails[i+1] */\n      dup2\n      swap1\n      mstore\n      pop\n        /* \"voting.sol\":2603:2606  i++ */\n      dup1\n      dup1\n      0x01\n      add\n      swap2\n      pop\n      pop\n        /* \"voting.sol\":2562:2676  for(uint i = 0; i < candidateList.length;i++) {... */\n      jump(tag_165)\n    tag_166:\n      pop\n        /* \"voting.sol\":2694:2707  candidateList */\n      dup1\n        /* \"voting.sol\":2687:2707  return candidateList */\n      swap2\n      pop\n      pop\n        /* \"voting.sol\":2398:2715  function getCandidateList() public view returns (Candidate[] memory) {... */\n      swap1\n      jump\t// out\n        /* \"voting.sol\":2725:2996  function isVoterNotRegistered(address _person) internal view returns (bool) {... */\n    tag_85:\n        /* \"voting.sol\":2795:2799  bool */\n      0x00\n        /* \"voting.sol\":2817:2823  uint i */\n      dup1\n        /* \"voting.sol\":2826:2827  0 */\n      0x00\n        /* \"voting.sol\":2817:2827  uint i = 0 */\n      swap1\n      pop\n        /* \"voting.sol\":2812:2967  for (uint i = 0; i < nextVoterId;i++) {... */\n    tag_186:\n        /* \"voting.sol\":2833:2844  nextVoterId */\n      sload(0x02)\n        /* \"voting.sol\":2829:2830  i */\n      dup2\n        /* \"voting.sol\":2829:2844  i < nextVoterId */\n      lt\n        /* \"voting.sol\":2812:2967  for (uint i = 0; i < nextVoterId;i++) {... */\n      iszero\n      tag_187\n      jumpi\n        /* \"voting.sol\":2900:2907  _person */\n      dup3\n        /* \"voting.sol\":2868:2907  voterDetails[i].voterAddress == _person */\n      0xffffffffffffffffffffffffffffffffffffffff\n      and\n        /* \"voting.sol\":2868:2880  voterDetails */\n      0x07\n        /* \"voting.sol\":2868:2883  voterDetails[i] */\n      0x00\n        /* \"voting.sol\":2881:2882  i */\n      dup4\n        /* \"voting.sol\":2868:2883  voterDetails[i] */\n      dup2\n      mstore\n      0x20\n      add\n      swap1\n      dup2\n      mstore\n      0x20\n      add\n      0x00\n      keccak256\n        /* \"voting.sol\":2868:2896  voterDetails[i].voterAddress */\n      0x05\n      add\n      0x00\n      swap1\n      sload\n      swap1\n      0x0100\n      exp\n      swap1\n      div\n      0xffffffffffffffffffffffffffffffffffffffff\n      and\n        /* \"voting.sol\":2868:2907  voterDetails[i].voterAddress == _person */\n      0xffffffffffffffffffffffffffffffffffffffff\n      and\n      sub\n        /* \"voting.sol\":2865:2956  if(voterDetails[i].voterAddress == _person) {... */\n      tag_189\n      jumpi\n        /* \"voting.sol\":2935:2940  false */\n      0x00\n        /* \"voting.sol\":2928:2940  return false */\n      swap2\n      pop\n      pop\n      jump(tag_185)\n        /* \"voting.sol\":2865:2956  if(voterDetails[i].voterAddress == _person) {... */\n    tag_189:\n        /* \"voting.sol\":2845:2848  i++ */\n      dup1\n      dup1\n      0x01\n      add\n      swap2\n      pop\n      pop\n        /* \"voting.sol\":2812:2967  for (uint i = 0; i < nextVoterId;i++) {... */\n      jump(tag_186)\n    tag_187:\n      pop\n        /* \"voting.sol\":2984:2988  true */\n      0x01\n        /* \"voting.sol\":2977:2988  return true */\n      swap1\n      pop\n        /* \"voting.sol\":2725:2996  function isVoterNotRegistered(address _person) internal view returns (bool) {... */\n    tag_185:\n      swap2\n      swap1\n      pop\n      jump\t// out\n        /* \"voting.sol\":2085:2388  function isCandidateNotRegistered(address _person) internal view returns (bool) {... */\n    tag_102:\n        /* \"voting.sol\":2159:2163  bool */\n      0x00\n        /* \"voting.sol\":2181:2187  uint i */\n      dup1\n        /* \"voting.sol\":2190:2191  1 */\n      0x01\n        /* \"voting.sol\":2181:2191  uint i = 1 */\n      swap1\n      pop\n        /* \"voting.sol\":2176:2345  for (uint i = 1; i < nextCandidateId;i ++) {... */\n    tag_191:\n        /* \"voting.sol\":2197:2212  nextCandidateId */\n      sload(0x03)\n        /* \"voting.sol\":2193:2194  i */\n      dup2\n        /* \"voting.sol\":2193:2212  i < nextCandidateId */\n      lt\n        /* \"voting.sol\":2176:2345  for (uint i = 1; i < nextCandidateId;i ++) {... */\n      iszero\n      tag_192\n      jumpi\n        /* \"voting.sol\":2278:2285  _person */\n      dup3\n        /* \"voting.sol\":2238:2285  candidateDetails[i].candidateAddress == _person */\n      0xffffffffffffffffffffffffffffffffffffffff\n      and\n        /* \"voting.sol\":2238:2254  candidateDetails */\n      0x08\n        /* \"voting.sol\":2238:2257  candidateDetails[i] */\n      0x00\n        /* \"voting.sol\":2255:2256  i */\n      dup4\n        /* \"voting.sol\":2238:2257  candidateDetails[i] */\n      dup2\n      mstore\n      0x20\n      add\n      swap1\n      dup2\n      mstore\n      0x20\n      add\n      0x00\n      keccak256\n        /* \"voting.sol\":2238:2274  candidateDetails[i].candidateAddress */\n      0x05\n      add\n      0x00\n      swap1\n      sload\n      swap1\n      0x0100\n      exp\n      swap1\n      div\n      0xffffffffffffffffffffffffffffffffffffffff\n      and\n        /* \"voting.sol\":2238:2285  candidateDetails[i].candidateAddress == _person */\n      0xffffffffffffffffffffffffffffffffffffffff\n      and\n      sub\n        /* \"voting.sol\":2234:2334  if (candidateDetails[i].candidateAddress == _person) {... */\n      tag_194\n      jumpi\n        /* \"voting.sol\":2313:2318  false */\n      0x00\n        /* \"voting.sol\":2306:2318  return false */\n      swap2\n      pop\n      pop\n      jump(tag_190)\n        /* \"voting.sol\":2234:2334  if (candidateDetails[i].candidateAddress == _person) {... */\n    tag_194:\n        /* \"voting.sol\":2213:2217  i ++ */\n      dup1\n      dup1\n      0x01\n      add\n      swap2\n      pop\n      pop\n        /* \"voting.sol\":2176:2345  for (uint i = 1; i < nextCandidateId;i ++) {... */\n      jump(tag_191)\n    tag_192:\n      pop\n        /* \"voting.sol\":2363:2367  true */\n      0x01\n        /* \"voting.sol\":2356:2367  return true */\n      swap1\n      pop\n        /* \"voting.sol\":2085:2388  function isCandidateNotRegistered(address _person) internal view returns (bool) {... */\n    tag_190:\n      swap2\n      swap1\n      pop\n      jump\t// out\n    tag_139:\n      mload(0x40)\n      dup1\n      0xc0\n      add\n      0x40\n      mstore\n      dup1\n      0x60\n      dup2\n      mstore\n      0x20\n      add\n      0x00\n      dup2\n      mstore\n      0x20\n      add\n      0x00\n      dup2\n      mstore\n      0x20\n      add\n      0x00\n      0x03\n      dup2\n      gt\n      iszero\n      tag_195\n      jumpi\n      tag_196\n      tag_91\n      jump\t// in\n    tag_196:\n    tag_195:\n      dup2\n      mstore\n      0x20\n      add\n      0x00\n      dup2\n      mstore\n      0x20\n      add\n      and(0xffffffffffffffffffffffffffffffffffffffff, 0x00)\n      dup2\n      mstore\n      pop\n      swap1\n      jump\t// out\n    tag_164:\n      mload(0x40)\n      dup1\n      0xe0\n      add\n      0x40\n      mstore\n      dup1\n      0x60\n      dup2\n      mstore\n      0x20\n      add\n      0x60\n      dup2\n      mstore\n      0x20\n      add\n      0x00\n      dup2\n      mstore\n      0x20\n      add\n      0x00\n      0x03\n      dup2\n      gt\n      iszero\n      tag_197\n      jumpi\n      tag_198\n      tag_91\n      jump\t// in\n    tag_198:\n    tag_197:\n      dup2\n      mstore\n      0x20\n      add\n      0x00\n      dup2\n      mstore\n      0x20\n      add\n      and(0xffffffffffffffffffffffffffffffffffffffff, 0x00)\n      dup2\n      mstore\n      0x20\n      add\n      0x00\n      dup2\n      mstore\n      pop\n      swap1\n      jump\t// out\n        /* \"#utility.yul\":88:205   */\n    tag_200:\n        /* \"#utility.yul\":197:198   */\n      0x00\n        /* \"#utility.yul\":194:195   */\n      dup1\n        /* \"#utility.yul\":187:199   */\n      revert\n        /* \"#utility.yul\":211:328   */\n    tag_201:\n        /* \"#utility.yul\":320:321   */\n      0x00\n        /* \"#utility.yul\":317:318   */\n      dup1\n        /* \"#utility.yul\":310:322   */\n      revert\n        /* \"#utility.yul\":334:411   */\n    tag_202:\n        /* \"#utility.yul\":371:378   */\n      0x00\n        /* \"#utility.yul\":400:405   */\n      dup2\n        /* \"#utility.yul\":389:405   */\n      swap1\n      pop\n        /* \"#utility.yul\":334:411   */\n      swap2\n      swap1\n      pop\n      jump\t// out\n        /* \"#utility.yul\":417:539   */\n    tag_203:\n        /* \"#utility.yul\":490:514   */\n      tag_285\n        /* \"#utility.yul\":508:513   */\n      dup2\n        /* \"#utility.yul\":490:514   */\n      tag_202\n      jump\t// in\n    tag_285:\n        /* \"#utility.yul\":483:488   */\n      dup2\n        /* \"#utility.yul\":480:515   */\n      eq\n        /* \"#utility.yul\":470:533   */\n      tag_286\n      jumpi\n        /* \"#utility.yul\":529:530   */\n      0x00\n        /* \"#utility.yul\":526:527   */\n      dup1\n        /* \"#utility.yul\":519:531   */\n      revert\n        /* \"#utility.yul\":470:533   */\n    tag_286:\n        /* \"#utility.yul\":417:539   */\n      pop\n      jump\t// out\n        /* \"#utility.yul\":545:684   */\n    tag_204:\n        /* \"#utility.yul\":591:596   */\n      0x00\n        /* \"#utility.yul\":629:635   */\n      dup2\n        /* \"#utility.yul\":616:636   */\n      calldataload\n        /* \"#utility.yul\":607:636   */\n      swap1\n      pop\n        /* \"#utility.yul\":645:678   */\n      tag_288\n        /* \"#utility.yul\":672:677   */\n      dup2\n        /* \"#utility.yul\":645:678   */\n      tag_203\n      jump\t// in\n    tag_288:\n        /* \"#utility.yul\":545:684   */\n      swap3\n      swap2\n      pop\n      pop\n      jump\t// out\n        /* \"#utility.yul\":690:1164   */\n    tag_16:\n        /* \"#utility.yul\":758:764   */\n      0x00\n        /* \"#utility.yul\":766:772   */\n      dup1\n        /* \"#utility.yul\":815:817   */\n      0x40\n        /* \"#utility.yul\":803:812   */\n      dup4\n        /* \"#utility.yul\":794:801   */\n      dup6\n        /* \"#utility.yul\":790:813   */\n      sub\n        /* \"#utility.yul\":786:818   */\n      slt\n        /* \"#utility.yul\":783:902   */\n      iszero\n      tag_290\n      jumpi\n        /* \"#utility.yul\":821:900   */\n      tag_291\n      tag_200\n      jump\t// in\n    tag_291:\n        /* \"#utility.yul\":783:902   */\n    tag_290:\n        /* \"#utility.yul\":941:942   */\n      0x00\n        /* \"#utility.yul\":966:1019   */\n      tag_292\n        /* \"#utility.yul\":1011:1018   */\n      dup6\n        /* \"#utility.yul\":1002:1008   */\n      dup3\n        /* \"#utility.yul\":991:1000   */\n      dup7\n        /* \"#utility.yul\":987:1009   */\n      add\n        /* \"#utility.yul\":966:1019   */\n      tag_204\n      jump\t// in\n    tag_292:\n        /* \"#utility.yul\":956:1019   */\n      swap3\n      pop\n        /* \"#utility.yul\":912:1029   */\n      pop\n        /* \"#utility.yul\":1068:1070   */\n      0x20\n        /* \"#utility.yul\":1094:1147   */\n      tag_293\n        /* \"#utility.yul\":1139:1146   */\n      dup6\n        /* \"#utility.yul\":1130:1136   */\n      dup3\n        /* \"#utility.yul\":1119:1128   */\n      dup7\n        /* \"#utility.yul\":1115:1137   */\n      add\n        /* \"#utility.yul\":1094:1147   */\n      tag_204\n      jump\t// in\n    tag_293:\n        /* \"#utility.yul\":1084:1147   */\n      swap2\n      pop\n        /* \"#utility.yul\":1039:1157   */\n      pop\n        /* \"#utility.yul\":690:1164   */\n      swap3\n      pop\n      swap3\n      swap1\n      pop\n      jump\t// out\n        /* \"#utility.yul\":1170:1350   */\n    tag_91:\n        /* \"#utility.yul\":1218:1295   */\n      0x4e487b7100000000000000000000000000000000000000000000000000000000\n        /* \"#utility.yul\":1215:1216   */\n      0x00\n        /* \"#utility.yul\":1208:1296   */\n      mstore\n        /* \"#utility.yul\":1315:1319   */\n      0x21\n        /* \"#utility.yul\":1312:1313   */\n      0x04\n        /* \"#utility.yul\":1305:1320   */\n      mstore\n        /* \"#utility.yul\":1339:1343   */\n      0x24\n        /* \"#utility.yul\":1336:1337   */\n      0x00\n        /* \"#utility.yul\":1329:1344   */\n      revert\n        /* \"#utility.yul\":1356:1476   */\n    tag_205:\n        /* \"#utility.yul\":1444:1445   */\n      0x03\n        /* \"#utility.yul\":1437:1442   */\n      dup2\n        /* \"#utility.yul\":1434:1446   */\n      lt\n        /* \"#utility.yul\":1424:1470   */\n      tag_296\n      jumpi\n        /* \"#utility.yul\":1450:1468   */\n      tag_297\n      tag_91\n      jump\t// in\n    tag_297:\n        /* \"#utility.yul\":1424:1470   */\n    tag_296:\n        /* \"#utility.yul\":1356:1476   */\n      pop\n      jump\t// out\n        /* \"#utility.yul\":1482:1623   */\n    tag_206:\n        /* \"#utility.yul\":1534:1541   */\n      0x00\n        /* \"#utility.yul\":1563:1568   */\n      dup2\n        /* \"#utility.yul\":1552:1568   */\n      swap1\n      pop\n        /* \"#utility.yul\":1569:1617   */\n      tag_299\n        /* \"#utility.yul\":1611:1616   */\n      dup3\n        /* \"#utility.yul\":1569:1617   */\n      tag_205\n      jump\t// in\n    tag_299:\n        /* \"#utility.yul\":1482:1623   */\n      swap2\n      swap1\n      pop\n      jump\t// out\n        /* \"#utility.yul\":1629:1770   */\n    tag_207:\n        /* \"#utility.yul\":1692:1701   */\n      0x00\n        /* \"#utility.yul\":1725:1764   */\n      tag_301\n        /* \"#utility.yul\":1758:1763   */\n      dup3\n        /* \"#utility.yul\":1725:1764   */\n      tag_206\n      jump\t// in\n    tag_301:\n        /* \"#utility.yul\":1712:1764   */\n      swap1\n      pop\n        /* \"#utility.yul\":1629:1770   */\n      swap2\n      swap1\n      pop\n      jump\t// out\n        /* \"#utility.yul\":1776:1933   */\n    tag_208:\n        /* \"#utility.yul\":1876:1926   */\n      tag_303\n        /* \"#utility.yul\":1920:1925   */\n      dup2\n        /* \"#utility.yul\":1876:1926   */\n      tag_207\n      jump\t// in\n    tag_303:\n        /* \"#utility.yul\":1871:1874   */\n      dup3\n        /* \"#utility.yul\":1864:1927   */\n      mstore\n        /* \"#utility.yul\":1776:1933   */\n      pop\n      pop\n      jump\t// out\n        /* \"#utility.yul\":1939:2187   */\n    tag_21:\n        /* \"#utility.yul\":2045:2049   */\n      0x00\n        /* \"#utility.yul\":2083:2085   */\n      0x20\n        /* \"#utility.yul\":2072:2081   */\n      dup3\n        /* \"#utility.yul\":2068:2086   */\n      add\n        /* \"#utility.yul\":2060:2086   */\n      swap1\n      pop\n        /* \"#utility.yul\":2096:2180   */\n      tag_305\n        /* \"#utility.yul\":2177:2178   */\n      0x00\n        /* \"#utility.yul\":2166:2175   */\n      dup4\n        /* \"#utility.yul\":2162:2179   */\n      add\n        /* \"#utility.yul\":2153:2159   */\n      dup5\n        /* \"#utility.yul\":2096:2180   */\n      tag_208\n      jump\t// in\n    tag_305:\n        /* \"#utility.yul\":1939:2187   */\n      swap3\n      swap2\n      pop\n      pop\n      jump\t// out\n        /* \"#utility.yul\":2193:2310   */\n    tag_209:\n        /* \"#utility.yul\":2302:2303   */\n      0x00\n        /* \"#utility.yul\":2299:2300   */\n      dup1\n        /* \"#utility.yul\":2292:2304   */\n      revert\n        /* \"#utility.yul\":2316:2433   */\n    tag_210:\n        /* \"#utility.yul\":2425:2426   */\n      0x00\n        /* \"#utility.yul\":2422:2423   */\n      dup1\n        /* \"#utility.yul\":2415:2427   */\n      revert\n        /* \"#utility.yul\":2439:2556   */\n    tag_211:\n        /* \"#utility.yul\":2548:2549   */\n      0x00\n        /* \"#utility.yul\":2545:2546   */\n      dup1\n        /* \"#utility.yul\":2538:2550   */\n      revert\n        /* \"#utility.yul\":2576:3129   */\n    tag_212:\n        /* \"#utility.yul\":2634:2642   */\n      0x00\n        /* \"#utility.yul\":2644:2650   */\n      dup1\n        /* \"#utility.yul\":2694:2697   */\n      dup4\n        /* \"#utility.yul\":2687:2691   */\n      0x1f\n        /* \"#utility.yul\":2679:2685   */\n      dup5\n        /* \"#utility.yul\":2675:2692   */\n      add\n        /* \"#utility.yul\":2671:2698   */\n      slt\n        /* \"#utility.yul\":2661:2783   */\n      tag_310\n      jumpi\n        /* \"#utility.yul\":2702:2781   */\n      tag_311\n      tag_209\n      jump\t// in\n    tag_311:\n        /* \"#utility.yul\":2661:2783   */\n    tag_310:\n        /* \"#utility.yul\":2815:2821   */\n      dup3\n        /* \"#utility.yul\":2802:2822   */\n      calldataload\n        /* \"#utility.yul\":2792:2822   */\n      swap1\n      pop\n        /* \"#utility.yul\":2845:2863   */\n      0xffffffffffffffff\n        /* \"#utility.yul\":2837:2843   */\n      dup2\n        /* \"#utility.yul\":2834:2864   */\n      gt\n        /* \"#utility.yul\":2831:2948   */\n      iszero\n      tag_312\n      jumpi\n        /* \"#utility.yul\":2867:2946   */\n      tag_313\n      tag_210\n      jump\t// in\n    tag_313:\n        /* \"#utility.yul\":2831:2948   */\n    tag_312:\n        /* \"#utility.yul\":2981:2985   */\n      0x20\n        /* \"#utility.yul\":2973:2979   */\n      dup4\n        /* \"#utility.yul\":2969:2986   */\n      add\n        /* \"#utility.yul\":2957:2986   */\n      swap2\n      pop\n        /* \"#utility.yul\":3035:3038   */\n      dup4\n        /* \"#utility.yul\":3027:3031   */\n      0x01\n        /* \"#utility.yul\":3019:3025   */\n      dup3\n        /* \"#utility.yul\":3015:3032   */\n      mul\n        /* \"#utility.yul\":3005:3013   */\n      dup4\n        /* \"#utility.yul\":3001:3033   */\n      add\n        /* \"#utility.yul\":2998:3039   */\n      gt\n        /* \"#utility.yul\":2995:3123   */\n      iszero\n      tag_314\n      jumpi\n        /* \"#utility.yul\":3042:3121   */\n      tag_315\n      tag_211\n      jump\t// in\n    tag_315:\n        /* \"#utility.yul\":2995:3123   */\n    tag_314:\n        /* \"#utility.yul\":2576:3129   */\n      swap3\n      pop\n      swap3\n      swap1\n      pop\n      jump\t// out\n        /* \"#utility.yul\":3135:3243   */\n    tag_213:\n        /* \"#utility.yul\":3217:3218   */\n      0x04\n        /* \"#utility.yul\":3210:3215   */\n      dup2\n        /* \"#utility.yul\":3207:3219   */\n      lt\n        /* \"#utility.yul\":3197:3237   */\n      tag_317\n      jumpi\n        /* \"#utility.yul\":3233:3234   */\n      0x00\n        /* \"#utility.yul\":3230:3231   */\n      dup1\n        /* \"#utility.yul\":3223:3235   */\n      revert\n        /* \"#utility.yul\":3197:3237   */\n    tag_317:\n        /* \"#utility.yul\":3135:3243   */\n      pop\n      jump\t// out\n        /* \"#utility.yul\":3249:3406   */\n    tag_214:\n        /* \"#utility.yul\":3304:3309   */\n      0x00\n        /* \"#utility.yul\":3342:3348   */\n      dup2\n        /* \"#utility.yul\":3329:3349   */\n      calldataload\n        /* \"#utility.yul\":3320:3349   */\n      swap1\n      pop\n        /* \"#utility.yul\":3358:3400   */\n      tag_319\n        /* \"#utility.yul\":3394:3399   */\n      dup2\n        /* \"#utility.yul\":3358:3400   */\n      tag_213\n      jump\t// in\n    tag_319:\n        /* \"#utility.yul\":3249:3406   */\n      swap3\n      swap2\n      pop\n      pop\n      jump\t// out\n        /* \"#utility.yul\":3412:4249   */\n    tag_26:\n        /* \"#utility.yul\":3510:3516   */\n      0x00\n        /* \"#utility.yul\":3518:3524   */\n      dup1\n        /* \"#utility.yul\":3526:3532   */\n      0x00\n        /* \"#utility.yul\":3534:3540   */\n      dup1\n        /* \"#utility.yul\":3583:3585   */\n      0x60\n        /* \"#utility.yul\":3571:3580   */\n      dup6\n        /* \"#utility.yul\":3562:3569   */\n      dup8\n        /* \"#utility.yul\":3558:3581   */\n      sub\n        /* \"#utility.yul\":3554:3586   */\n      slt\n        /* \"#utility.yul\":3551:3670   */\n      iszero\n      tag_321\n      jumpi\n        /* \"#utility.yul\":3589:3668   */\n      tag_322\n      tag_200\n      jump\t// in\n    tag_322:\n        /* \"#utility.yul\":3551:3670   */\n    tag_321:\n        /* \"#utility.yul\":3737:3738   */\n      0x00\n        /* \"#utility.yul\":3726:3735   */\n      dup6\n        /* \"#utility.yul\":3722:3739   */\n      add\n        /* \"#utility.yul\":3709:3740   */\n      calldataload\n        /* \"#utility.yul\":3767:3785   */\n      0xffffffffffffffff\n        /* \"#utility.yul\":3759:3765   */\n      dup2\n        /* \"#utility.yul\":3756:3786   */\n      gt\n        /* \"#utility.yul\":3753:3870   */\n      iszero\n      tag_323\n      jumpi\n        /* \"#utility.yul\":3789:3868   */\n      tag_324\n      tag_201\n      jump\t// in\n    tag_324:\n        /* \"#utility.yul\":3753:3870   */\n    tag_323:\n        /* \"#utility.yul\":3902:3967   */\n      tag_325\n        /* \"#utility.yul\":3959:3966   */\n      dup8\n        /* \"#utility.yul\":3950:3956   */\n      dup3\n        /* \"#utility.yul\":3939:3948   */\n      dup9\n        /* \"#utility.yul\":3935:3957   */\n      add\n        /* \"#utility.yul\":3902:3967   */\n      tag_212\n      jump\t// in\n    tag_325:\n        /* \"#utility.yul\":3884:3967   */\n      swap5\n      pop\n      swap5\n      pop\n        /* \"#utility.yul\":3680:3977   */\n      pop\n        /* \"#utility.yul\":4016:4018   */\n      0x20\n        /* \"#utility.yul\":4042:4095   */\n      tag_326\n        /* \"#utility.yul\":4087:4094   */\n      dup8\n        /* \"#utility.yul\":4078:4084   */\n      dup3\n        /* \"#utility.yul\":4067:4076   */\n      dup9\n        /* \"#utility.yul\":4063:4085   */\n      add\n        /* \"#utility.yul\":4042:4095   */\n      tag_204\n      jump\t// in\n    tag_326:\n        /* \"#utility.yul\":4032:4095   */\n      swap3\n      pop\n        /* \"#utility.yul\":3987:4105   */\n      pop\n        /* \"#utility.yul\":4144:4146   */\n      0x40\n        /* \"#utility.yul\":4170:4232   */\n      tag_327\n        /* \"#utility.yul\":4224:4231   */\n      dup8\n        /* \"#utility.yul\":4215:4221   */\n      dup3\n        /* \"#utility.yul\":4204:4213   */\n      dup9\n        /* \"#utility.yul\":4200:4222   */\n      add\n        /* \"#utility.yul\":4170:4232   */\n      tag_214\n      jump\t// in\n    tag_327:\n        /* \"#utility.yul\":4160:4232   */\n      swap2\n      pop\n        /* \"#utility.yul\":4115:4242   */\n      pop\n        /* \"#utility.yul\":3412:4249   */\n      swap3\n      swap6\n      swap2\n      swap5\n      pop\n      swap3\n      pop\n      jump\t// out\n        /* \"#utility.yul\":4255:5438   */\n    tag_30:\n        /* \"#utility.yul\":4374:4380   */\n      0x00\n        /* \"#utility.yul\":4382:4388   */\n      dup1\n        /* \"#utility.yul\":4390:4396   */\n      0x00\n        /* \"#utility.yul\":4398:4404   */\n      dup1\n        /* \"#utility.yul\":4406:4412   */\n      0x00\n        /* \"#utility.yul\":4414:4420   */\n      dup1\n        /* \"#utility.yul\":4463:4466   */\n      0x80\n        /* \"#utility.yul\":4451:4460   */\n      dup8\n        /* \"#utility.yul\":4442:4449   */\n      dup10\n        /* \"#utility.yul\":4438:4461   */\n      sub\n        /* \"#utility.yul\":4434:4467   */\n      slt\n        /* \"#utility.yul\":4431:4551   */\n      iszero\n      tag_329\n      jumpi\n        /* \"#utility.yul\":4470:4549   */\n      tag_330\n      tag_200\n      jump\t// in\n    tag_330:\n        /* \"#utility.yul\":4431:4551   */\n    tag_329:\n        /* \"#utility.yul\":4618:4619   */\n      0x00\n        /* \"#utility.yul\":4607:4616   */\n      dup8\n        /* \"#utility.yul\":4603:4620   */\n      add\n        /* \"#utility.yul\":4590:4621   */\n      calldataload\n        /* \"#utility.yul\":4648:4666   */\n      0xffffffffffffffff\n        /* \"#utility.yul\":4640:4646   */\n      dup2\n        /* \"#utility.yul\":4637:4667   */\n      gt\n        /* \"#utility.yul\":4634:4751   */\n      iszero\n      tag_331\n      jumpi\n        /* \"#utility.yul\":4670:4749   */\n      tag_332\n      tag_201\n      jump\t// in\n    tag_332:\n        /* \"#utility.yul\":4634:4751   */\n    tag_331:\n        /* \"#utility.yul\":4783:4848   */\n      tag_333\n        /* \"#utility.yul\":4840:4847   */\n      dup10\n        /* \"#utility.yul\":4831:4837   */\n      dup3\n        /* \"#utility.yul\":4820:4829   */\n      dup11\n        /* \"#utility.yul\":4816:4838   */\n      add\n        /* \"#utility.yul\":4783:4848   */\n      tag_212\n      jump\t// in\n    tag_333:\n        /* \"#utility.yul\":4765:4848   */\n      swap7\n      pop\n      swap7\n      pop\n        /* \"#utility.yul\":4561:4858   */\n      pop\n        /* \"#utility.yul\":4925:4927   */\n      0x20\n        /* \"#utility.yul\":4914:4923   */\n      dup8\n        /* \"#utility.yul\":4910:4928   */\n      add\n        /* \"#utility.yul\":4897:4929   */\n      calldataload\n        /* \"#utility.yul\":4956:4974   */\n      0xffffffffffffffff\n        /* \"#utility.yul\":4948:4954   */\n      dup2\n        /* \"#utility.yul\":4945:4975   */\n      gt\n        /* \"#utility.yul\":4942:5059   */\n      iszero\n      tag_334\n      jumpi\n        /* \"#utility.yul\":4978:5057   */\n      tag_335\n      tag_201\n      jump\t// in\n    tag_335:\n        /* \"#utility.yul\":4942:5059   */\n    tag_334:\n        /* \"#utility.yul\":5091:5156   */\n      tag_336\n        /* \"#utility.yul\":5148:5155   */\n      dup10\n        /* \"#utility.yul\":5139:5145   */\n      dup3\n        /* \"#utility.yul\":5128:5137   */\n      dup11\n        /* \"#utility.yul\":5124:5146   */\n      add\n        /* \"#utility.yul\":5091:5156   */\n      tag_212\n      jump\t// in\n    tag_336:\n        /* \"#utility.yul\":5073:5156   */\n      swap5\n      pop\n      swap5\n      pop\n        /* \"#utility.yul\":4868:5166   */\n      pop\n        /* \"#utility.yul\":5205:5207   */\n      0x40\n        /* \"#utility.yul\":5231:5284   */\n      tag_337\n        /* \"#utility.yul\":5276:5283   */\n      dup10\n        /* \"#utility.yul\":5267:5273   */\n      dup3\n        /* \"#utility.yul\":5256:5265   */\n      dup11\n        /* \"#utility.yul\":5252:5274   */\n      add\n        /* \"#utility.yul\":5231:5284   */\n      tag_204\n      jump\t// in\n    tag_337:\n        /* \"#utility.yul\":5221:5284   */\n      swap3\n      pop\n        /* \"#utility.yul\":5176:5294   */\n      pop\n        /* \"#utility.yul\":5333:5335   */\n      0x60\n        /* \"#utility.yul\":5359:5421   */\n      tag_338\n        /* \"#utility.yul\":5413:5420   */\n      dup10\n        /* \"#utility.yul\":5404:5410   */\n      dup3\n        /* \"#utility.yul\":5393:5402   */\n      dup11\n        /* \"#utility.yul\":5389:5411   */\n      add\n        /* \"#utility.yul\":5359:5421   */\n      tag_214\n      jump\t// in\n    tag_338:\n        /* \"#utility.yul\":5349:5421   */\n      swap2\n      pop\n        /* \"#utility.yul\":5304:5431   */\n      pop\n        /* \"#utility.yul\":4255:5438   */\n      swap3\n      swap6\n      pop\n      swap3\n      swap6\n      pop\n      swap3\n      swap6\n      jump\t// out\n        /* \"#utility.yul\":5444:5579   */\n    tag_215:\n        /* \"#utility.yul\":5532:5538   */\n      0x00\n        /* \"#utility.yul\":5566:5571   */\n      dup2\n        /* \"#utility.yul\":5560:5572   */\n      mload\n        /* \"#utility.yul\":5550:5572   */\n      swap1\n      pop\n        /* \"#utility.yul\":5444:5579   */\n      swap2\n      swap1\n      pop\n      jump\t// out\n        /* \"#utility.yul\":5585:5790   */\n    tag_216:\n        /* \"#utility.yul\":5705:5716   */\n      0x00\n        /* \"#utility.yul\":5739:5745   */\n      dup3\n        /* \"#utility.yul\":5734:5737   */\n      dup3\n        /* \"#utility.yul\":5727:5746   */\n      mstore\n        /* \"#utility.yul\":5779:5783   */\n      0x20\n        /* \"#utility.yul\":5774:5777   */\n      dup3\n        /* \"#utility.yul\":5770:5784   */\n      add\n        /* \"#utility.yul\":5755:5784   */\n      swap1\n      pop\n        /* \"#utility.yul\":5585:5790   */\n      swap3\n      swap2\n      pop\n      pop\n      jump\t// out\n        /* \"#utility.yul\":5796:5949   */\n    tag_217:\n        /* \"#utility.yul\":5884:5888   */\n      0x00\n        /* \"#utility.yul\":5907:5910   */\n      dup2\n        /* \"#utility.yul\":5899:5910   */\n      swap1\n      pop\n        /* \"#utility.yul\":5937:5941   */\n      0x20\n        /* \"#utility.yul\":5932:5935   */\n      dup3\n        /* \"#utility.yul\":5928:5942   */\n      add\n        /* \"#utility.yul\":5920:5942   */\n      swap1\n      pop\n        /* \"#utility.yul\":5796:5949   */\n      swap2\n      swap1\n      pop\n      jump\t// out\n        /* \"#utility.yul\":5955:6054   */\n    tag_218:\n        /* \"#utility.yul\":6007:6013   */\n      0x00\n        /* \"#utility.yul\":6041:6046   */\n      dup2\n        /* \"#utility.yul\":6035:6047   */\n      mload\n        /* \"#utility.yul\":6025:6047   */\n      swap1\n      pop\n        /* \"#utility.yul\":5955:6054   */\n      swap2\n      swap1\n      pop\n      jump\t// out\n        /* \"#utility.yul\":6060:6219   */\n    tag_219:\n        /* \"#utility.yul\":6134:6145   */\n      0x00\n        /* \"#utility.yul\":6168:6174   */\n      dup3\n        /* \"#utility.yul\":6163:6166   */\n      dup3\n        /* \"#utility.yul\":6156:6175   */\n      mstore\n        /* \"#utility.yul\":6208:6212   */\n      0x20\n        /* \"#utility.yul\":6203:6206   */\n      dup3\n        /* \"#utility.yul\":6199:6213   */\n      add\n        /* \"#utility.yul\":6184:6213   */\n      swap1\n      pop\n        /* \"#utility.yul\":6060:6219   */\n      swap3\n      swap2\n      pop\n      pop\n      jump\t// out\n        /* \"#utility.yul\":6225:6364   */\n    tag_220:\n        /* \"#utility.yul\":6314:6320   */\n      dup3\n        /* \"#utility.yul\":6309:6312   */\n      dup2\n        /* \"#utility.yul\":6304:6307   */\n      dup4\n        /* \"#utility.yul\":6298:6321   */\n      mcopy\n        /* \"#utility.yul\":6355:6356   */\n      0x00\n        /* \"#utility.yul\":6346:6352   */\n      dup4\n        /* \"#utility.yul\":6341:6344   */\n      dup4\n        /* \"#utility.yul\":6337:6353   */\n      add\n        /* \"#utility.yul\":6330:6357   */\n      mstore\n        /* \"#utility.yul\":6225:6364   */\n      pop\n      pop\n      pop\n      jump\t// out\n        /* \"#utility.yul\":6370:6472   */\n    tag_221:\n        /* \"#utility.yul\":6411:6417   */\n      0x00\n        /* \"#utility.yul\":6462:6464   */\n      0x1f\n        /* \"#utility.yul\":6458:6465   */\n      not\n        /* \"#utility.yul\":6453:6455   */\n      0x1f\n        /* \"#utility.yul\":6446:6451   */\n      dup4\n        /* \"#utility.yul\":6442:6456   */\n      add\n        /* \"#utility.yul\":6438:6466   */\n      and\n        /* \"#utility.yul\":6428:6466   */\n      swap1\n      pop\n        /* \"#utility.yul\":6370:6472   */\n      swap2\n      swap1\n      pop\n      jump\t// out\n        /* \"#utility.yul\":6478:6835   */\n    tag_222:\n        /* \"#utility.yul\":6556:6559   */\n      0x00\n        /* \"#utility.yul\":6584:6623   */\n      tag_347\n        /* \"#utility.yul\":6617:6622   */\n      dup3\n        /* \"#utility.yul\":6584:6623   */\n      tag_218\n      jump\t// in\n    tag_347:\n        /* \"#utility.yul\":6639:6700   */\n      tag_348\n        /* \"#utility.yul\":6693:6699   */\n      dup2\n        /* \"#utility.yul\":6688:6691   */\n      dup6\n        /* \"#utility.yul\":6639:6700   */\n      tag_219\n      jump\t// in\n    tag_348:\n        /* \"#utility.yul\":6632:6700   */\n      swap4\n      pop\n        /* \"#utility.yul\":6709:6774   */\n      tag_349\n        /* \"#utility.yul\":6767:6773   */\n      dup2\n        /* \"#utility.yul\":6762:6765   */\n      dup6\n        /* \"#utility.yul\":6755:6759   */\n      0x20\n        /* \"#utility.yul\":6748:6753   */\n      dup7\n        /* \"#utility.yul\":6744:6760   */\n      add\n        /* \"#utility.yul\":6709:6774   */\n      tag_220\n      jump\t// in\n    tag_349:\n        /* \"#utility.yul\":6799:6828   */\n      tag_350\n        /* \"#utility.yul\":6821:6827   */\n      dup2\n        /* \"#utility.yul\":6799:6828   */\n      tag_221\n      jump\t// in\n    tag_350:\n        /* \"#utility.yul\":6794:6797   */\n      dup5\n        /* \"#utility.yul\":6790:6829   */\n      add\n        /* \"#utility.yul\":6783:6829   */\n      swap2\n      pop\n        /* \"#utility.yul\":6560:6835   */\n      pop\n        /* \"#utility.yul\":6478:6835   */\n      swap3\n      swap2\n      pop\n      pop\n      jump\t// out\n        /* \"#utility.yul\":6841:6949   */\n    tag_223:\n        /* \"#utility.yul\":6918:6942   */\n      tag_352\n        /* \"#utility.yul\":6936:6941   */\n      dup2\n        /* \"#utility.yul\":6918:6942   */\n      tag_202\n      jump\t// in\n    tag_352:\n        /* \"#utility.yul\":6913:6916   */\n      dup3\n        /* \"#utility.yul\":6906:6943   */\n      mstore\n        /* \"#utility.yul\":6841:6949   */\n      pop\n      pop\n      jump\t// out\n        /* \"#utility.yul\":6955:7069   */\n    tag_224:\n        /* \"#utility.yul\":7037:7038   */\n      0x04\n        /* \"#utility.yul\":7030:7035   */\n      dup2\n        /* \"#utility.yul\":7027:7039   */\n      lt\n        /* \"#utility.yul\":7017:7063   */\n      tag_354\n      jumpi\n        /* \"#utility.yul\":7043:7061   */\n      tag_355\n      tag_91\n      jump\t// in\n    tag_355:\n        /* \"#utility.yul\":7017:7063   */\n    tag_354:\n        /* \"#utility.yul\":6955:7069   */\n      pop\n      jump\t// out\n        /* \"#utility.yul\":7075:7204   */\n    tag_225:\n        /* \"#utility.yul\":7121:7128   */\n      0x00\n        /* \"#utility.yul\":7150:7155   */\n      dup2\n        /* \"#utility.yul\":7139:7155   */\n      swap1\n      pop\n        /* \"#utility.yul\":7156:7198   */\n      tag_357\n        /* \"#utility.yul\":7192:7197   */\n      dup3\n        /* \"#utility.yul\":7156:7198   */\n      tag_224\n      jump\t// in\n    tag_357:\n        /* \"#utility.yul\":7075:7204   */\n      swap2\n      swap1\n      pop\n      jump\t// out\n        /* \"#utility.yul\":7210:7339   */\n    tag_226:\n        /* \"#utility.yul\":7267:7276   */\n      0x00\n        /* \"#utility.yul\":7300:7333   */\n      tag_359\n        /* \"#utility.yul\":7327:7332   */\n      dup3\n        /* \"#utility.yul\":7300:7333   */\n      tag_225\n      jump\t// in\n    tag_359:\n        /* \"#utility.yul\":7287:7333   */\n      swap1\n      pop\n        /* \"#utility.yul\":7210:7339   */\n      swap2\n      swap1\n      pop\n      jump\t// out\n        /* \"#utility.yul\":7345:7480   */\n    tag_227:\n        /* \"#utility.yul\":7429:7473   */\n      tag_361\n        /* \"#utility.yul\":7467:7472   */\n      dup2\n        /* \"#utility.yul\":7429:7473   */\n      tag_226\n      jump\t// in\n    tag_361:\n        /* \"#utility.yul\":7424:7427   */\n      dup3\n        /* \"#utility.yul\":7417:7474   */\n      mstore\n        /* \"#utility.yul\":7345:7480   */\n      pop\n      pop\n      jump\t// out\n        /* \"#utility.yul\":7486:7612   */\n    tag_228:\n        /* \"#utility.yul\":7523:7530   */\n      0x00\n        /* \"#utility.yul\":7563:7605   */\n      0xffffffffffffffffffffffffffffffffffffffff\n        /* \"#utility.yul\":7556:7561   */\n      dup3\n        /* \"#utility.yul\":7552:7606   */\n      and\n        /* \"#utility.yul\":7541:7606   */\n      swap1\n      pop\n        /* \"#utility.yul\":7486:7612   */\n      swap2\n      swap1\n      pop\n      jump\t// out\n        /* \"#utility.yul\":7618:7714   */\n    tag_229:\n        /* \"#utility.yul\":7655:7662   */\n      0x00\n        /* \"#utility.yul\":7684:7708   */\n      tag_364\n        /* \"#utility.yul\":7702:7707   */\n      dup3\n        /* \"#utility.yul\":7684:7708   */\n      tag_228\n      jump\t// in\n    tag_364:\n        /* \"#utility.yul\":7673:7708   */\n      swap1\n      pop\n        /* \"#utility.yul\":7618:7714   */\n      swap2\n      swap1\n      pop\n      jump\t// out\n        /* \"#utility.yul\":7720:7828   */\n    tag_230:\n        /* \"#utility.yul\":7797:7821   */\n      tag_366\n        /* \"#utility.yul\":7815:7820   */\n      dup2\n        /* \"#utility.yul\":7797:7821   */\n      tag_229\n      jump\t// in\n    tag_366:\n        /* \"#utility.yul\":7792:7795   */\n      dup3\n        /* \"#utility.yul\":7785:7822   */\n      mstore\n        /* \"#utility.yul\":7720:7828   */\n      pop\n      pop\n      jump\t// out\n        /* \"#utility.yul\":7880:9194   */\n    tag_231:\n        /* \"#utility.yul\":7981:7984   */\n      0x00\n        /* \"#utility.yul\":8017:8021   */\n      0xc0\n        /* \"#utility.yul\":8012:8015   */\n      dup4\n        /* \"#utility.yul\":8008:8022   */\n      add\n        /* \"#utility.yul\":8104:8108   */\n      0x00\n        /* \"#utility.yul\":8097:8102   */\n      dup4\n        /* \"#utility.yul\":8093:8109   */\n      add\n        /* \"#utility.yul\":8087:8110   */\n      mload\n        /* \"#utility.yul\":8157:8160   */\n      dup5\n        /* \"#utility.yul\":8151:8155   */\n      dup3\n        /* \"#utility.yul\":8147:8161   */\n      sub\n        /* \"#utility.yul\":8140:8144   */\n      0x00\n        /* \"#utility.yul\":8135:8138   */\n      dup7\n        /* \"#utility.yul\":8131:8145   */\n      add\n        /* \"#utility.yul\":8124:8162   */\n      mstore\n        /* \"#utility.yul\":8183:8256   */\n      tag_368\n        /* \"#utility.yul\":8251:8255   */\n      dup3\n        /* \"#utility.yul\":8237:8249   */\n      dup3\n        /* \"#utility.yul\":8183:8256   */\n      tag_222\n      jump\t// in\n    tag_368:\n        /* \"#utility.yul\":8175:8256   */\n      swap2\n      pop\n        /* \"#utility.yul\":8032:8267   */\n      pop\n        /* \"#utility.yul\":8348:8352   */\n      0x20\n        /* \"#utility.yul\":8341:8346   */\n      dup4\n        /* \"#utility.yul\":8337:8353   */\n      add\n        /* \"#utility.yul\":8331:8354   */\n      mload\n        /* \"#utility.yul\":8367:8430   */\n      tag_369\n        /* \"#utility.yul\":8424:8428   */\n      0x20\n        /* \"#utility.yul\":8419:8422   */\n      dup7\n        /* \"#utility.yul\":8415:8429   */\n      add\n        /* \"#utility.yul\":8401:8413   */\n      dup3\n        /* \"#utility.yul\":8367:8430   */\n      tag_223\n      jump\t// in\n    tag_369:\n        /* \"#utility.yul\":8277:8440   */\n      pop\n        /* \"#utility.yul\":8525:8529   */\n      0x40\n        /* \"#utility.yul\":8518:8523   */\n      dup4\n        /* \"#utility.yul\":8514:8530   */\n      add\n        /* \"#utility.yul\":8508:8531   */\n      mload\n        /* \"#utility.yul\":8544:8607   */\n      tag_370\n        /* \"#utility.yul\":8601:8605   */\n      0x40\n        /* \"#utility.yul\":8596:8599   */\n      dup7\n        /* \"#utility.yul\":8592:8606   */\n      add\n        /* \"#utility.yul\":8578:8590   */\n      dup3\n        /* \"#utility.yul\":8544:8607   */\n      tag_223\n      jump\t// in\n    tag_370:\n        /* \"#utility.yul\":8450:8617   */\n      pop\n        /* \"#utility.yul\":8701:8705   */\n      0x60\n        /* \"#utility.yul\":8694:8699   */\n      dup4\n        /* \"#utility.yul\":8690:8706   */\n      add\n        /* \"#utility.yul\":8684:8707   */\n      mload\n        /* \"#utility.yul\":8720:8790   */\n      tag_371\n        /* \"#utility.yul\":8784:8788   */\n      0x60\n        /* \"#utility.yul\":8779:8782   */\n      dup7\n        /* \"#utility.yul\":8775:8789   */\n      add\n        /* \"#utility.yul\":8761:8773   */\n      dup3\n        /* \"#utility.yul\":8720:8790   */\n      tag_227\n      jump\t// in\n    tag_371:\n        /* \"#utility.yul\":8627:8800   */\n      pop\n        /* \"#utility.yul\":8893:8897   */\n      0x80\n        /* \"#utility.yul\":8886:8891   */\n      dup4\n        /* \"#utility.yul\":8882:8898   */\n      add\n        /* \"#utility.yul\":8876:8899   */\n      mload\n        /* \"#utility.yul\":8912:8975   */\n      tag_372\n        /* \"#utility.yul\":8969:8973   */\n      0x80\n        /* \"#utility.yul\":8964:8967   */\n      dup7\n        /* \"#utility.yul\":8960:8974   */\n      add\n        /* \"#utility.yul\":8946:8958   */\n      dup3\n        /* \"#utility.yul\":8912:8975   */\n      tag_223\n      jump\t// in\n    tag_372:\n        /* \"#utility.yul\":8810:8985   */\n      pop\n        /* \"#utility.yul\":9075:9079   */\n      0xa0\n        /* \"#utility.yul\":9068:9073   */\n      dup4\n        /* \"#utility.yul\":9064:9080   */\n      add\n        /* \"#utility.yul\":9058:9081   */\n      mload\n        /* \"#utility.yul\":9094:9157   */\n      tag_373\n        /* \"#utility.yul\":9151:9155   */\n      0xa0\n        /* \"#utility.yul\":9146:9149   */\n      dup7\n        /* \"#utility.yul\":9142:9156   */\n      add\n        /* \"#utility.yul\":9128:9140   */\n      dup3\n        /* \"#utility.yul\":9094:9157   */\n      tag_230\n      jump\t// in\n    tag_373:\n        /* \"#utility.yul\":8995:9167   */\n      pop\n        /* \"#utility.yul\":9184:9188   */\n      dup1\n        /* \"#utility.yul\":9177:9188   */\n      swap2\n      pop\n        /* \"#utility.yul\":7986:9194   */\n      pop\n        /* \"#utility.yul\":7880:9194   */\n      swap3\n      swap2\n      pop\n      pop\n      jump\t// out\n        /* \"#utility.yul\":9200:9440   */\n    tag_232:\n        /* \"#utility.yul\":9311:9321   */\n      0x00\n        /* \"#utility.yul\":9346:9434   */\n      tag_375\n        /* \"#utility.yul\":9430:9433   */\n      dup4\n        /* \"#utility.yul\":9422:9428   */\n      dup4\n        /* \"#utility.yul\":9346:9434   */\n      tag_231\n      jump\t// in\n    tag_375:\n        /* \"#utility.yul\":9332:9434   */\n      swap1\n      pop\n        /* \"#utility.yul\":9200:9440   */\n      swap3\n      swap2\n      pop\n      pop\n      jump\t// out\n        /* \"#utility.yul\":9446:9580   */\n    tag_233:\n        /* \"#utility.yul\":9537:9541   */\n      0x00\n        /* \"#utility.yul\":9569:9573   */\n      0x20\n        /* \"#utility.yul\":9564:9567   */\n      dup3\n        /* \"#utility.yul\":9560:9574   */\n      add\n        /* \"#utility.yul\":9552:9574   */\n      swap1\n      pop\n        /* \"#utility.yul\":9446:9580   */\n      swap2\n      swap1\n      pop\n      jump\t// out\n        /* \"#utility.yul\":9636:10715   */\n    tag_234:\n        /* \"#utility.yul\":9797:9800   */\n      0x00\n        /* \"#utility.yul\":9826:9901   */\n      tag_378\n        /* \"#utility.yul\":9895:9900   */\n      dup3\n        /* \"#utility.yul\":9826:9901   */\n      tag_215\n      jump\t// in\n    tag_378:\n        /* \"#utility.yul\":9917:10024   */\n      tag_379\n        /* \"#utility.yul\":10017:10023   */\n      dup2\n        /* \"#utility.yul\":10012:10015   */\n      dup6\n        /* \"#utility.yul\":9917:10024   */\n      tag_216\n      jump\t// in\n    tag_379:\n        /* \"#utility.yul\":9910:10024   */\n      swap4\n      pop\n        /* \"#utility.yul\":10050:10053   */\n      dup4\n        /* \"#utility.yul\":10095:10099   */\n      0x20\n        /* \"#utility.yul\":10087:10093   */\n      dup3\n        /* \"#utility.yul\":10083:10100   */\n      mul\n        /* \"#utility.yul\":10078:10081   */\n      dup6\n        /* \"#utility.yul\":10074:10101   */\n      add\n        /* \"#utility.yul\":10125:10202   */\n      tag_380\n        /* \"#utility.yul\":10196:10201   */\n      dup6\n        /* \"#utility.yul\":10125:10202   */\n      tag_217\n      jump\t// in\n    tag_380:\n        /* \"#utility.yul\":10225:10232   */\n      dup1\n        /* \"#utility.yul\":10256:10257   */\n      0x00\n        /* \"#utility.yul\":10241:10670   */\n    tag_381:\n        /* \"#utility.yul\":10266:10272   */\n      dup6\n        /* \"#utility.yul\":10263:10264   */\n      dup2\n        /* \"#utility.yul\":10260:10273   */\n      lt\n        /* \"#utility.yul\":10241:10670   */\n      iszero\n      tag_383\n      jumpi\n        /* \"#utility.yul\":10337:10346   */\n      dup5\n        /* \"#utility.yul\":10331:10335   */\n      dup5\n        /* \"#utility.yul\":10327:10347   */\n      sub\n        /* \"#utility.yul\":10322:10325   */\n      dup10\n        /* \"#utility.yul\":10315:10348   */\n      mstore\n        /* \"#utility.yul\":10388:10394   */\n      dup2\n        /* \"#utility.yul\":10382:10395   */\n      mload\n        /* \"#utility.yul\":10416:10522   */\n      tag_384\n        /* \"#utility.yul\":10517:10521   */\n      dup6\n        /* \"#utility.yul\":10502:10515   */\n      dup3\n        /* \"#utility.yul\":10416:10522   */\n      tag_232\n      jump\t// in\n    tag_384:\n        /* \"#utility.yul\":10408:10522   */\n      swap5\n      pop\n        /* \"#utility.yul\":10545:10626   */\n      tag_385\n        /* \"#utility.yul\":10619:10625   */\n      dup4\n        /* \"#utility.yul\":10545:10626   */\n      tag_233\n      jump\t// in\n    tag_385:\n        /* \"#utility.yul\":10535:10626   */\n      swap3\n      pop\n        /* \"#utility.yul\":10655:10659   */\n      0x20\n        /* \"#utility.yul\":10650:10653   */\n      dup11\n        /* \"#utility.yul\":10646:10660   */\n      add\n        /* \"#utility.yul\":10639:10660   */\n      swap10\n      pop\n        /* \"#utility.yul\":10301:10670   */\n      pop\n        /* \"#utility.yul\":10288:10289   */\n      0x01\n        /* \"#utility.yul\":10285:10286   */\n      dup2\n        /* \"#utility.yul\":10281:10290   */\n      add\n        /* \"#utility.yul\":10276:10290   */\n      swap1\n      pop\n        /* \"#utility.yul\":10241:10670   */\n      jump(tag_381)\n    tag_383:\n        /* \"#utility.yul\":10245:10259   */\n      pop\n        /* \"#utility.yul\":10686:10690   */\n      dup3\n        /* \"#utility.yul\":10679:10690   */\n      swap8\n      pop\n        /* \"#utility.yul\":10706:10709   */\n      dup8\n        /* \"#utility.yul\":10699:10709   */\n      swap6\n      pop\n        /* \"#utility.yul\":9802:10715   */\n      pop\n      pop\n      pop\n      pop\n      pop\n        /* \"#utility.yul\":9636:10715   */\n      swap3\n      swap2\n      pop\n      pop\n      jump\t// out\n        /* \"#utility.yul\":10721:11178   */\n    tag_40:\n        /* \"#utility.yul\":10906:10910   */\n      0x00\n        /* \"#utility.yul\":10944:10946   */\n      0x20\n        /* \"#utility.yul\":10933:10942   */\n      dup3\n        /* \"#utility.yul\":10929:10947   */\n      add\n        /* \"#utility.yul\":10921:10947   */\n      swap1\n      pop\n        /* \"#utility.yul\":10993:11002   */\n      dup2\n        /* \"#utility.yul\":10987:10991   */\n      dup2\n        /* \"#utility.yul\":10983:11003   */\n      sub\n        /* \"#utility.yul\":10979:10980   */\n      0x00\n        /* \"#utility.yul\":10968:10977   */\n      dup4\n        /* \"#utility.yul\":10964:10981   */\n      add\n        /* \"#utility.yul\":10957:11004   */\n      mstore\n        /* \"#utility.yul\":11021:11171   */\n      tag_387\n        /* \"#utility.yul\":11166:11170   */\n      dup2\n        /* \"#utility.yul\":11157:11163   */\n      dup5\n        /* \"#utility.yul\":11021:11171   */\n      tag_234\n      jump\t// in\n    tag_387:\n        /* \"#utility.yul\":11013:11171   */\n      swap1\n      pop\n        /* \"#utility.yul\":10721:11178   */\n      swap3\n      swap2\n      pop\n      pop\n      jump\t// out\n        /* \"#utility.yul\":11184:11302   */\n    tag_235:\n        /* \"#utility.yul\":11271:11295   */\n      tag_389\n        /* \"#utility.yul\":11289:11294   */\n      dup2\n        /* \"#utility.yul\":11271:11295   */\n      tag_229\n      jump\t// in\n    tag_389:\n        /* \"#utility.yul\":11266:11269   */\n      dup3\n        /* \"#utility.yul\":11259:11296   */\n      mstore\n        /* \"#utility.yul\":11184:11302   */\n      pop\n      pop\n      jump\t// out\n        /* \"#utility.yul\":11308:11530   */\n    tag_44:\n        /* \"#utility.yul\":11401:11405   */\n      0x00\n        /* \"#utility.yul\":11439:11441   */\n      0x20\n        /* \"#utility.yul\":11428:11437   */\n      dup3\n        /* \"#utility.yul\":11424:11442   */\n      add\n        /* \"#utility.yul\":11416:11442   */\n      swap1\n      pop\n        /* \"#utility.yul\":11452:11523   */\n      tag_391\n        /* \"#utility.yul\":11520:11521   */\n      0x00\n        /* \"#utility.yul\":11509:11518   */\n      dup4\n        /* \"#utility.yul\":11505:11522   */\n      add\n        /* \"#utility.yul\":11496:11502   */\n      dup5\n        /* \"#utility.yul\":11452:11523   */\n      tag_235\n      jump\t// in\n    tag_391:\n        /* \"#utility.yul\":11308:11530   */\n      swap3\n      swap2\n      pop\n      pop\n      jump\t// out\n        /* \"#utility.yul\":11536:11675   */\n    tag_236:\n        /* \"#utility.yul\":11628:11634   */\n      0x00\n        /* \"#utility.yul\":11662:11667   */\n      dup2\n        /* \"#utility.yul\":11656:11668   */\n      mload\n        /* \"#utility.yul\":11646:11668   */\n      swap1\n      pop\n        /* \"#utility.yul\":11536:11675   */\n      swap2\n      swap1\n      pop\n      jump\t// out\n        /* \"#utility.yul\":11681:11890   */\n    tag_237:\n        /* \"#utility.yul\":11805:11816   */\n      0x00\n        /* \"#utility.yul\":11839:11845   */\n      dup3\n        /* \"#utility.yul\":11834:11837   */\n      dup3\n        /* \"#utility.yul\":11827:11846   */\n      mstore\n        /* \"#utility.yul\":11879:11883   */\n      0x20\n        /* \"#utility.yul\":11874:11877   */\n      dup3\n        /* \"#utility.yul\":11870:11884   */\n      add\n        /* \"#utility.yul\":11855:11884   */\n      swap1\n      pop\n        /* \"#utility.yul\":11681:11890   */\n      swap3\n      swap2\n      pop\n      pop\n      jump\t// out\n        /* \"#utility.yul\":11896:12053   */\n    tag_238:\n        /* \"#utility.yul\":11988:11992   */\n      0x00\n        /* \"#utility.yul\":12011:12014   */\n      dup2\n        /* \"#utility.yul\":12003:12014   */\n      swap1\n      pop\n        /* \"#utility.yul\":12041:12045   */\n      0x20\n        /* \"#utility.yul\":12036:12039   */\n      dup3\n        /* \"#utility.yul\":12032:12046   */\n      add\n        /* \"#utility.yul\":12024:12046   */\n      swap1\n      pop\n        /* \"#utility.yul\":11896:12053   */\n      swap2\n      swap1\n      pop\n      jump\t// out\n        /* \"#utility.yul\":12113:13679   */\n    tag_239:\n        /* \"#utility.yul\":12222:12225   */\n      0x00\n        /* \"#utility.yul\":12258:12262   */\n      0xe0\n        /* \"#utility.yul\":12253:12256   */\n      dup4\n        /* \"#utility.yul\":12249:12263   */\n      add\n        /* \"#utility.yul\":12345:12349   */\n      0x00\n        /* \"#utility.yul\":12338:12343   */\n      dup4\n        /* \"#utility.yul\":12334:12350   */\n      add\n        /* \"#utility.yul\":12328:12351   */\n      mload\n        /* \"#utility.yul\":12398:12401   */\n      dup5\n        /* \"#utility.yul\":12392:12396   */\n      dup3\n        /* \"#utility.yul\":12388:12402   */\n      sub\n        /* \"#utility.yul\":12381:12385   */\n      0x00\n        /* \"#utility.yul\":12376:12379   */\n      dup7\n        /* \"#utility.yul\":12372:12386   */\n      add\n        /* \"#utility.yul\":12365:12403   */\n      mstore\n        /* \"#utility.yul\":12424:12497   */\n      tag_396\n        /* \"#utility.yul\":12492:12496   */\n      dup3\n        /* \"#utility.yul\":12478:12490   */\n      dup3\n        /* \"#utility.yul\":12424:12497   */\n      tag_222\n      jump\t// in\n    tag_396:\n        /* \"#utility.yul\":12416:12497   */\n      swap2\n      pop\n        /* \"#utility.yul\":12273:12508   */\n      pop\n        /* \"#utility.yul\":12591:12595   */\n      0x20\n        /* \"#utility.yul\":12584:12589   */\n      dup4\n        /* \"#utility.yul\":12580:12596   */\n      add\n        /* \"#utility.yul\":12574:12597   */\n      mload\n        /* \"#utility.yul\":12644:12647   */\n      dup5\n        /* \"#utility.yul\":12638:12642   */\n      dup3\n        /* \"#utility.yul\":12634:12648   */\n      sub\n        /* \"#utility.yul\":12627:12631   */\n      0x20\n        /* \"#utility.yul\":12622:12625   */\n      dup7\n        /* \"#utility.yul\":12618:12632   */\n      add\n        /* \"#utility.yul\":12611:12649   */\n      mstore\n        /* \"#utility.yul\":12670:12743   */\n      tag_397\n        /* \"#utility.yul\":12738:12742   */\n      dup3\n        /* \"#utility.yul\":12724:12736   */\n      dup3\n        /* \"#utility.yul\":12670:12743   */\n      tag_222\n      jump\t// in\n    tag_397:\n        /* \"#utility.yul\":12662:12743   */\n      swap2\n      pop\n        /* \"#utility.yul\":12518:12754   */\n      pop\n        /* \"#utility.yul\":12835:12839   */\n      0x40\n        /* \"#utility.yul\":12828:12833   */\n      dup4\n        /* \"#utility.yul\":12824:12840   */\n      add\n        /* \"#utility.yul\":12818:12841   */\n      mload\n        /* \"#utility.yul\":12854:12917   */\n      tag_398\n        /* \"#utility.yul\":12911:12915   */\n      0x40\n        /* \"#utility.yul\":12906:12909   */\n      dup7\n        /* \"#utility.yul\":12902:12916   */\n      add\n        /* \"#utility.yul\":12888:12900   */\n      dup3\n        /* \"#utility.yul\":12854:12917   */\n      tag_223\n      jump\t// in\n    tag_398:\n        /* \"#utility.yul\":12764:12927   */\n      pop\n        /* \"#utility.yul\":13011:13015   */\n      0x60\n        /* \"#utility.yul\":13004:13009   */\n      dup4\n        /* \"#utility.yul\":13000:13016   */\n      add\n        /* \"#utility.yul\":12994:13017   */\n      mload\n        /* \"#utility.yul\":13030:13100   */\n      tag_399\n        /* \"#utility.yul\":13094:13098   */\n      0x60\n        /* \"#utility.yul\":13089:13092   */\n      dup7\n        /* \"#utility.yul\":13085:13099   */\n      add\n        /* \"#utility.yul\":13071:13083   */\n      dup3\n        /* \"#utility.yul\":13030:13100   */\n      tag_227\n      jump\t// in\n    tag_399:\n        /* \"#utility.yul\":12937:13110   */\n      pop\n        /* \"#utility.yul\":13199:13203   */\n      0x80\n        /* \"#utility.yul\":13192:13197   */\n      dup4\n        /* \"#utility.yul\":13188:13204   */\n      add\n        /* \"#utility.yul\":13182:13205   */\n      mload\n        /* \"#utility.yul\":13218:13281   */\n      tag_400\n        /* \"#utility.yul\":13275:13279   */\n      0x80\n        /* \"#utility.yul\":13270:13273   */\n      dup7\n        /* \"#utility.yul\":13266:13280   */\n      add\n        /* \"#utility.yul\":13252:13264   */\n      dup3\n        /* \"#utility.yul\":13218:13281   */\n      tag_223\n      jump\t// in\n    tag_400:\n        /* \"#utility.yul\":13120:13291   */\n      pop\n        /* \"#utility.yul\":13385:13389   */\n      0xa0\n        /* \"#utility.yul\":13378:13383   */\n      dup4\n        /* \"#utility.yul\":13374:13390   */\n      add\n        /* \"#utility.yul\":13368:13391   */\n      mload\n        /* \"#utility.yul\":13404:13467   */\n      tag_401\n        /* \"#utility.yul\":13461:13465   */\n      0xa0\n        /* \"#utility.yul\":13456:13459   */\n      dup7\n        /* \"#utility.yul\":13452:13466   */\n      add\n        /* \"#utility.yul\":13438:13450   */\n      dup3\n        /* \"#utility.yul\":13404:13467   */\n      tag_230\n      jump\t// in\n    tag_401:\n        /* \"#utility.yul\":13301:13477   */\n      pop\n        /* \"#utility.yul\":13560:13564   */\n      0xc0\n        /* \"#utility.yul\":13553:13558   */\n      dup4\n        /* \"#utility.yul\":13549:13565   */\n      add\n        /* \"#utility.yul\":13543:13566   */\n      mload\n        /* \"#utility.yul\":13579:13642   */\n      tag_402\n        /* \"#utility.yul\":13636:13640   */\n      0xc0\n        /* \"#utility.yul\":13631:13634   */\n      dup7\n        /* \"#utility.yul\":13627:13641   */\n      add\n        /* \"#utility.yul\":13613:13625   */\n      dup3\n        /* \"#utility.yul\":13579:13642   */\n      tag_223\n      jump\t// in\n    tag_402:\n        /* \"#utility.yul\":13487:13652   */\n      pop\n        /* \"#utility.yul\":13669:13673   */\n      dup1\n        /* \"#utility.yul\":13662:13673   */\n      swap2\n      pop\n        /* \"#utility.yul\":12227:13679   */\n      pop\n        /* \"#utility.yul\":12113:13679   */\n      swap3\n      swap2\n      pop\n      pop\n      jump\t// out\n        /* \"#utility.yul\":13685:13941   */\n    tag_240:\n        /* \"#utility.yul\":13804:13814   */\n      0x00\n        /* \"#utility.yul\":13839:13935   */\n      tag_404\n        /* \"#utility.yul\":13931:13934   */\n      dup4\n        /* \"#utility.yul\":13923:13929   */\n      dup4\n        /* \"#utility.yul\":13839:13935   */\n      tag_239\n      jump\t// in\n    tag_404:\n        /* \"#utility.yul\":13825:13935   */\n      swap1\n      pop\n        /* \"#utility.yul\":13685:13941   */\n      swap3\n      swap2\n      pop\n      pop\n      jump\t// out\n        /* \"#utility.yul\":13947:14085   */\n    tag_241:\n        /* \"#utility.yul\":14042:14046   */\n      0x00\n        /* \"#utility.yul\":14074:14078   */\n      0x20\n        /* \"#utility.yul\":14069:14072   */\n      dup3\n        /* \"#utility.yul\":14065:14079   */\n      add\n        /* \"#utility.yul\":14057:14079   */\n      swap1\n      pop\n        /* \"#utility.yul\":13947:14085   */\n      swap2\n      swap1\n      pop\n      jump\t// out\n        /* \"#utility.yul\":14149:15260   */\n    tag_242:\n        /* \"#utility.yul\":14318:14321   */\n      0x00\n        /* \"#utility.yul\":14347:14426   */\n      tag_407\n        /* \"#utility.yul\":14420:14425   */\n      dup3\n        /* \"#utility.yul\":14347:14426   */\n      tag_236\n      jump\t// in\n    tag_407:\n        /* \"#utility.yul\":14442:14553   */\n      tag_408\n        /* \"#utility.yul\":14546:14552   */\n      dup2\n        /* \"#utility.yul\":14541:14544   */\n      dup6\n        /* \"#utility.yul\":14442:14553   */\n      tag_237\n      jump\t// in\n    tag_408:\n        /* \"#utility.yul\":14435:14553   */\n      swap4\n      pop\n        /* \"#utility.yul\":14579:14582   */\n      dup4\n        /* \"#utility.yul\":14624:14628   */\n      0x20\n        /* \"#utility.yul\":14616:14622   */\n      dup3\n        /* \"#utility.yul\":14612:14629   */\n      mul\n        /* \"#utility.yul\":14607:14610   */\n      dup6\n        /* \"#utility.yul\":14603:14630   */\n      add\n        /* \"#utility.yul\":14654:14735   */\n      tag_409\n        /* \"#utility.yul\":14729:14734   */\n      dup6\n        /* \"#utility.yul\":14654:14735   */\n      tag_238\n      jump\t// in\n    tag_409:\n        /* \"#utility.yul\":14758:14765   */\n      dup1\n        /* \"#utility.yul\":14789:14790   */\n      0x00\n        /* \"#utility.yul\":14774:15215   */\n    tag_410:\n        /* \"#utility.yul\":14799:14805   */\n      dup6\n        /* \"#utility.yul\":14796:14797   */\n      dup2\n        /* \"#utility.yul\":14793:14806   */\n      lt\n        /* \"#utility.yul\":14774:15215   */\n      iszero\n      tag_412\n      jumpi\n        /* \"#utility.yul\":14870:14879   */\n      dup5\n        /* \"#utility.yul\":14864:14868   */\n      dup5\n        /* \"#utility.yul\":14860:14880   */\n      sub\n        /* \"#utility.yul\":14855:14858   */\n      dup10\n        /* \"#utility.yul\":14848:14881   */\n      mstore\n        /* \"#utility.yul\":14921:14927   */\n      dup2\n        /* \"#utility.yul\":14915:14928   */\n      mload\n        /* \"#utility.yul\":14949:15063   */\n      tag_413\n        /* \"#utility.yul\":15058:15062   */\n      dup6\n        /* \"#utility.yul\":15043:15056   */\n      dup3\n        /* \"#utility.yul\":14949:15063   */\n      tag_240\n      jump\t// in\n    tag_413:\n        /* \"#utility.yul\":14941:15063   */\n      swap5\n      pop\n        /* \"#utility.yul\":15086:15171   */\n      tag_414\n        /* \"#utility.yul\":15164:15170   */\n      dup4\n        /* \"#utility.yul\":15086:15171   */\n      tag_241\n      jump\t// in\n    tag_414:\n        /* \"#utility.yul\":15076:15171   */\n      swap3\n      pop\n        /* \"#utility.yul\":15200:15204   */\n      0x20\n        /* \"#utility.yul\":15195:15198   */\n      dup11\n        /* \"#utility.yul\":15191:15205   */\n      add\n        /* \"#utility.yul\":15184:15205   */\n      swap10\n      pop\n        /* \"#utility.yul\":14834:15215   */\n      pop\n        /* \"#utility.yul\":14821:14822   */\n      0x01\n        /* \"#utility.yul\":14818:14819   */\n      dup2\n        /* \"#utility.yul\":14814:14823   */\n      add\n        /* \"#utility.yul\":14809:14823   */\n      swap1\n      pop\n        /* \"#utility.yul\":14774:15215   */\n      jump(tag_410)\n    tag_412:\n        /* \"#utility.yul\":14778:14792   */\n      pop\n        /* \"#utility.yul\":15231:15235   */\n      dup3\n        /* \"#utility.yul\":15224:15235   */\n      swap8\n      pop\n        /* \"#utility.yul\":15251:15254   */\n      dup8\n        /* \"#utility.yul\":15244:15254   */\n      swap6\n      pop\n        /* \"#utility.yul\":14323:15260   */\n      pop\n      pop\n      pop\n      pop\n      pop\n        /* \"#utility.yul\":14149:15260   */\n      swap3\n      swap2\n      pop\n      pop\n      jump\t// out\n        /* \"#utility.yul\":15266:15739   */\n    tag_48:\n        /* \"#utility.yul\":15459:15463   */\n      0x00\n        /* \"#utility.yul\":15497:15499   */\n      0x20\n        /* \"#utility.yul\":15486:15495   */\n      dup3\n        /* \"#utility.yul\":15482:15500   */\n      add\n        /* \"#utility.yul\":15474:15500   */\n      swap1\n      pop\n        /* \"#utility.yul\":15546:15555   */\n      dup2\n        /* \"#utility.yul\":15540:15544   */\n      dup2\n        /* \"#utility.yul\":15536:15556   */\n      sub\n        /* \"#utility.yul\":15532:15533   */\n      0x00\n        /* \"#utility.yul\":15521:15530   */\n      dup4\n        /* \"#utility.yul\":15517:15534   */\n      add\n        /* \"#utility.yul\":15510:15557   */\n      mstore\n        /* \"#utility.yul\":15574:15732   */\n      tag_416\n        /* \"#utility.yul\":15727:15731   */\n      dup2\n        /* \"#utility.yul\":15718:15724   */\n      dup5\n        /* \"#utility.yul\":15574:15732   */\n      tag_242\n      jump\t// in\n    tag_416:\n        /* \"#utility.yul\":15566:15732   */\n      swap1\n      pop\n        /* \"#utility.yul\":15266:15739   */\n      swap3\n      swap2\n      pop\n      pop\n      jump\t// out\n        /* \"#utility.yul\":15745:15914   */\n    tag_243:\n        /* \"#utility.yul\":15829:15840   */\n      0x00\n        /* \"#utility.yul\":15863:15869   */\n      dup3\n        /* \"#utility.yul\":15858:15861   */\n      dup3\n        /* \"#utility.yul\":15851:15870   */\n      mstore\n        /* \"#utility.yul\":15903:15907   */\n      0x20\n        /* \"#utility.yul\":15898:15901   */\n      dup3\n        /* \"#utility.yul\":15894:15908   */\n      add\n        /* \"#utility.yul\":15879:15908   */\n      swap1\n      pop\n        /* \"#utility.yul\":15745:15914   */\n      swap3\n      swap2\n      pop\n      pop\n      jump\t// out\n        /* \"#utility.yul\":15920:16092   */\n    tag_244:\n        /* \"#utility.yul\":16060:16084   */\n      0x566f74696e672074696d6520697320696e76616c696400000000000000000000\n        /* \"#utility.yul\":16056:16057   */\n      0x00\n        /* \"#utility.yul\":16048:16054   */\n      dup3\n        /* \"#utility.yul\":16044:16058   */\n      add\n        /* \"#utility.yul\":16037:16085   */\n      mstore\n        /* \"#utility.yul\":15920:16092   */\n      pop\n      jump\t// out\n        /* \"#utility.yul\":16098:16464   */\n    tag_245:\n        /* \"#utility.yul\":16240:16243   */\n      0x00\n        /* \"#utility.yul\":16261:16328   */\n      tag_420\n        /* \"#utility.yul\":16325:16327   */\n      0x16\n        /* \"#utility.yul\":16320:16323   */\n      dup4\n        /* \"#utility.yul\":16261:16328   */\n      tag_243\n      jump\t// in\n    tag_420:\n        /* \"#utility.yul\":16254:16328   */\n      swap2\n      pop\n        /* \"#utility.yul\":16337:16430   */\n      tag_421\n        /* \"#utility.yul\":16426:16429   */\n      dup3\n        /* \"#utility.yul\":16337:16430   */\n      tag_244\n      jump\t// in\n    tag_421:\n        /* \"#utility.yul\":16455:16457   */\n      0x20\n        /* \"#utility.yul\":16450:16453   */\n      dup3\n        /* \"#utility.yul\":16446:16458   */\n      add\n        /* \"#utility.yul\":16439:16458   */\n      swap1\n      pop\n        /* \"#utility.yul\":16098:16464   */\n      swap2\n      swap1\n      pop\n      jump\t// out\n        /* \"#utility.yul\":16470:16889   */\n    tag_53:\n        /* \"#utility.yul\":16636:16640   */\n      0x00\n        /* \"#utility.yul\":16674:16676   */\n      0x20\n        /* \"#utility.yul\":16663:16672   */\n      dup3\n        /* \"#utility.yul\":16659:16677   */\n      add\n        /* \"#utility.yul\":16651:16677   */\n      swap1\n      pop\n        /* \"#utility.yul\":16723:16732   */\n      dup2\n        /* \"#utility.yul\":16717:16721   */\n      dup2\n        /* \"#utility.yul\":16713:16733   */\n      sub\n        /* \"#utility.yul\":16709:16710   */\n      0x00\n        /* \"#utility.yul\":16698:16707   */\n      dup4\n        /* \"#utility.yul\":16694:16711   */\n      add\n        /* \"#utility.yul\":16687:16734   */\n      mstore\n        /* \"#utility.yul\":16751:16882   */\n      tag_423\n        /* \"#utility.yul\":16877:16881   */\n      dup2\n        /* \"#utility.yul\":16751:16882   */\n      tag_245\n      jump\t// in\n    tag_423:\n        /* \"#utility.yul\":16743:16882   */\n      swap1\n      pop\n        /* \"#utility.yul\":16470:16889   */\n      swap2\n      swap1\n      pop\n      jump\t// out\n        /* \"#utility.yul\":16895:17065   */\n    tag_246:\n        /* \"#utility.yul\":17035:17057   */\n      0x596f7527766520616c726561647920766f746564000000000000000000000000\n        /* \"#utility.yul\":17031:17032   */\n      0x00\n        /* \"#utility.yul\":17023:17029   */\n      dup3\n        /* \"#utility.yul\":17019:17033   */\n      add\n        /* \"#utility.yul\":17012:17058   */\n      mstore\n        /* \"#utility.yul\":16895:17065   */\n      pop\n      jump\t// out\n        /* \"#utility.yul\":17071:17437   */\n    tag_247:\n        /* \"#utility.yul\":17213:17216   */\n      0x00\n        /* \"#utility.yul\":17234:17301   */\n      tag_426\n        /* \"#utility.yul\":17298:17300   */\n      0x14\n        /* \"#utility.yul\":17293:17296   */\n      dup4\n        /* \"#utility.yul\":17234:17301   */\n      tag_243\n      jump\t// in\n    tag_426:\n        /* \"#utility.yul\":17227:17301   */\n      swap2\n      pop\n        /* \"#utility.yul\":17310:17403   */\n      tag_427\n        /* \"#utility.yul\":17399:17402   */\n      dup3\n        /* \"#utility.yul\":17310:17403   */\n      tag_246\n      jump\t// in\n    tag_427:\n        /* \"#utility.yul\":17428:17430   */\n      0x20\n        /* \"#utility.yul\":17423:17426   */\n      dup3\n        /* \"#utility.yul\":17419:17431   */\n      add\n        /* \"#utility.yul\":17412:17431   */\n      swap1\n      pop\n        /* \"#utility.yul\":17071:17437   */\n      swap2\n      swap1\n      pop\n      jump\t// out\n        /* \"#utility.yul\":17443:17862   */\n    tag_56:\n        /* \"#utility.yul\":17609:17613   */\n      0x00\n        /* \"#utility.yul\":17647:17649   */\n      0x20\n        /* \"#utility.yul\":17636:17645   */\n      dup3\n        /* \"#utility.yul\":17632:17650   */\n      add\n        /* \"#utility.yul\":17624:17650   */\n      swap1\n      pop\n        /* \"#utility.yul\":17696:17705   */\n      dup2\n        /* \"#utility.yul\":17690:17694   */\n      dup2\n        /* \"#utility.yul\":17686:17706   */\n      sub\n        /* \"#utility.yul\":17682:17683   */\n      0x00\n        /* \"#utility.yul\":17671:17680   */\n      dup4\n        /* \"#utility.yul\":17667:17684   */\n      add\n        /* \"#utility.yul\":17660:17707   */\n      mstore\n        /* \"#utility.yul\":17724:17855   */\n      tag_429\n        /* \"#utility.yul\":17850:17854   */\n      dup2\n        /* \"#utility.yul\":17724:17855   */\n      tag_247\n      jump\t// in\n    tag_429:\n        /* \"#utility.yul\":17716:17855   */\n      swap1\n      pop\n        /* \"#utility.yul\":17443:17862   */\n      swap2\n      swap1\n      pop\n      jump\t// out\n        /* \"#utility.yul\":17868:18041   */\n    tag_248:\n        /* \"#utility.yul\":18008:18033   */\n      0x596f7572204164647265737320697320696e76616c6964000000000000000000\n        /* \"#utility.yul\":18004:18005   */\n      0x00\n        /* \"#utility.yul\":17996:18002   */\n      dup3\n        /* \"#utility.yul\":17992:18006   */\n      add\n        /* \"#utility.yul\":17985:18034   */\n      mstore\n        /* \"#utility.yul\":17868:18041   */\n      pop\n      jump\t// out\n        /* \"#utility.yul\":18047:18413   */\n    tag_249:\n        /* \"#utility.yul\":18189:18192   */\n      0x00\n        /* \"#utility.yul\":18210:18277   */\n      tag_432\n        /* \"#utility.yul\":18274:18276   */\n      0x17\n        /* \"#utility.yul\":18269:18272   */\n      dup4\n        /* \"#utility.yul\":18210:18277   */\n      tag_243\n      jump\t// in\n    tag_432:\n        /* \"#utility.yul\":18203:18277   */\n      swap2\n      pop\n        /* \"#utility.yul\":18286:18379   */\n      tag_433\n        /* \"#utility.yul\":18375:18378   */\n      dup3\n        /* \"#utility.yul\":18286:18379   */\n      tag_248\n      jump\t// in\n    tag_433:\n        /* \"#utility.yul\":18404:18406   */\n      0x20\n        /* \"#utility.yul\":18399:18402   */\n      dup3\n        /* \"#utility.yul\":18395:18407   */\n      add\n        /* \"#utility.yul\":18388:18407   */\n      swap1\n      pop\n        /* \"#utility.yul\":18047:18413   */\n      swap2\n      swap1\n      pop\n      jump\t// out\n        /* \"#utility.yul\":18419:18838   */\n    tag_59:\n        /* \"#utility.yul\":18585:18589   */\n      0x00\n        /* \"#utility.yul\":18623:18625   */\n      0x20\n        /* \"#utility.yul\":18612:18621   */\n      dup3\n        /* \"#utility.yul\":18608:18626   */\n      add\n        /* \"#utility.yul\":18600:18626   */\n      swap1\n      pop\n        /* \"#utility.yul\":18672:18681   */\n      dup2\n        /* \"#utility.yul\":18666:18670   */\n      dup2\n        /* \"#utility.yul\":18662:18682   */\n      sub\n        /* \"#utility.yul\":18658:18659   */\n      0x00\n        /* \"#utility.yul\":18647:18656   */\n      dup4\n        /* \"#utility.yul\":18643:18660   */\n      add\n        /* \"#utility.yul\":18636:18683   */\n      mstore\n        /* \"#utility.yul\":18700:18831   */\n      tag_435\n        /* \"#utility.yul\":18826:18830   */\n      dup2\n        /* \"#utility.yul\":18700:18831   */\n      tag_249\n      jump\t// in\n    tag_435:\n        /* \"#utility.yul\":18692:18831   */\n      swap1\n      pop\n        /* \"#utility.yul\":18419:18838   */\n      swap2\n      swap1\n      pop\n      jump\t// out\n        /* \"#utility.yul\":18844:19024   */\n    tag_250:\n        /* \"#utility.yul\":18892:18969   */\n      0x4e487b7100000000000000000000000000000000000000000000000000000000\n        /* \"#utility.yul\":18889:18890   */\n      0x00\n        /* \"#utility.yul\":18882:18970   */\n      mstore\n        /* \"#utility.yul\":18989:18993   */\n      0x11\n        /* \"#utility.yul\":18986:18987   */\n      0x04\n        /* \"#utility.yul\":18979:18994   */\n      mstore\n        /* \"#utility.yul\":19013:19017   */\n      0x24\n        /* \"#utility.yul\":19010:19011   */\n      0x00\n        /* \"#utility.yul\":19003:19018   */\n      revert\n        /* \"#utility.yul\":19030:19263   */\n    tag_63:\n        /* \"#utility.yul\":19069:19072   */\n      0x00\n        /* \"#utility.yul\":19092:19116   */\n      tag_438\n        /* \"#utility.yul\":19110:19115   */\n      dup3\n        /* \"#utility.yul\":19092:19116   */\n      tag_202\n      jump\t// in\n    tag_438:\n        /* \"#utility.yul\":19083:19116   */\n      swap2\n      pop\n        /* \"#utility.yul\":19138:19204   */\n      0xffffffffffffffffffffffffffffffffffffffffffffffffffffffffffffffff\n        /* \"#utility.yul\":19131:19136   */\n      dup3\n        /* \"#utility.yul\":19128:19205   */\n      sub\n        /* \"#utility.yul\":19125:19228   */\n      tag_439\n      jumpi\n        /* \"#utility.yul\":19208:19226   */\n      tag_440\n      tag_250\n      jump\t// in\n    tag_440:\n        /* \"#utility.yul\":19125:19228   */\n    tag_439:\n        /* \"#utility.yul\":19255:19256   */\n      0x01\n        /* \"#utility.yul\":19248:19253   */\n      dup3\n        /* \"#utility.yul\":19244:19257   */\n      add\n        /* \"#utility.yul\":19237:19257   */\n      swap1\n      pop\n        /* \"#utility.yul\":19030:19263   */\n      swap2\n      swap1\n      pop\n      jump\t// out\n        /* \"#utility.yul\":19269:19449   */\n    tag_251:\n        /* \"#utility.yul\":19409:19441   */\n      0x596f75277265206e6f7420456c656374696f6e20436f6d6d697373696f6e0000\n        /* \"#utility.yul\":19405:19406   */\n      0x00\n        /* \"#utility.yul\":19397:19403   */\n      dup3\n        /* \"#utility.yul\":19393:19407   */\n      add\n        /* \"#utility.yul\":19386:19442   */\n      mstore\n        /* \"#utility.yul\":19269:19449   */\n      pop\n      jump\t// out\n        /* \"#utility.yul\":19455:19821   */\n    tag_252:\n        /* \"#utility.yul\":19597:19600   */\n      0x00\n        /* \"#utility.yul\":19618:19685   */\n      tag_443\n        /* \"#utility.yul\":19682:19684   */\n      0x1e\n        /* \"#utility.yul\":19677:19680   */\n      dup4\n        /* \"#utility.yul\":19618:19685   */\n      tag_243\n      jump\t// in\n    tag_443:\n        /* \"#utility.yul\":19611:19685   */\n      swap2\n      pop\n        /* \"#utility.yul\":19694:19787   */\n      tag_444\n        /* \"#utility.yul\":19783:19786   */\n      dup3\n        /* \"#utility.yul\":19694:19787   */\n      tag_251\n      jump\t// in\n    tag_444:\n        /* \"#utility.yul\":19812:19814   */\n      0x20\n        /* \"#utility.yul\":19807:19810   */\n      dup3\n        /* \"#utility.yul\":19803:19815   */\n      add\n        /* \"#utility.yul\":19796:19815   */\n      swap1\n      pop\n        /* \"#utility.yul\":19455:19821   */\n      swap2\n      swap1\n      pop\n      jump\t// out\n        /* \"#utility.yul\":19827:20246   */\n    tag_73:\n        /* \"#utility.yul\":19993:19997   */\n      0x00\n        /* \"#utility.yul\":20031:20033   */\n      0x20\n        /* \"#utility.yul\":20020:20029   */\n      dup3\n        /* \"#utility.yul\":20016:20034   */\n      add\n        /* \"#utility.yul\":20008:20034   */\n      swap1\n      pop\n        /* \"#utility.yul\":20080:20089   */\n      dup2\n        /* \"#utility.yul\":20074:20078   */\n      dup2\n        /* \"#utility.yul\":20070:20090   */\n      sub\n        /* \"#utility.yul\":20066:20067   */\n      0x00\n        /* \"#utility.yul\":20055:20064   */\n      dup4\n        /* \"#utility.yul\":20051:20068   */\n      add\n        /* \"#utility.yul\":20044:20091   */\n      mstore\n        /* \"#utility.yul\":20108:20239   */\n      tag_446\n        /* \"#utility.yul\":20234:20238   */\n      dup2\n        /* \"#utility.yul\":20108:20239   */\n      tag_252\n      jump\t// in\n    tag_446:\n        /* \"#utility.yul\":20100:20239   */\n      swap1\n      pop\n        /* \"#utility.yul\":19827:20246   */\n      swap2\n      swap1\n      pop\n      jump\t// out\n        /* \"#utility.yul\":20252:20423   */\n    tag_253:\n        /* \"#utility.yul\":20392:20415   */\n      0x596f757220416765204973204e6f742056616c69640000000000000000000000\n        /* \"#utility.yul\":20388:20389   */\n      0x00\n        /* \"#utility.yul\":20380:20386   */\n      dup3\n        /* \"#utility.yul\":20376:20390   */\n      add\n        /* \"#utility.yul\":20369:20416   */\n      mstore\n        /* \"#utility.yul\":20252:20423   */\n      pop\n      jump\t// out\n        /* \"#utility.yul\":20429:20795   */\n    tag_254:\n        /* \"#utility.yul\":20571:20574   */\n      0x00\n        /* \"#utility.yul\":20592:20659   */\n      tag_449\n        /* \"#utility.yul\":20656:20658   */\n      0x15\n        /* \"#utility.yul\":20651:20654   */\n      dup4\n        /* \"#utility.yul\":20592:20659   */\n      tag_243\n      jump\t// in\n    tag_449:\n        /* \"#utility.yul\":20585:20659   */\n      swap2\n      pop\n        /* \"#utility.yul\":20668:20761   */\n      tag_450\n        /* \"#utility.yul\":20757:20760   */\n      dup3\n        /* \"#utility.yul\":20668:20761   */\n      tag_253\n      jump\t// in\n    tag_450:\n        /* \"#utility.yul\":20786:20788   */\n      0x20\n        /* \"#utility.yul\":20781:20784   */\n      dup3\n        /* \"#utility.yul\":20777:20789   */\n      add\n        /* \"#utility.yul\":20770:20789   */\n      swap1\n      pop\n        /* \"#utility.yul\":20429:20795   */\n      swap2\n      swap1\n      pop\n      jump\t// out\n        /* \"#utility.yul\":20801:21220   */\n    tag_82:\n        /* \"#utility.yul\":20967:20971   */\n      0x00\n        /* \"#utility.yul\":21005:21007   */\n      0x20\n        /* \"#utility.yul\":20994:21003   */\n      dup3\n        /* \"#utility.yul\":20990:21008   */\n      add\n        /* \"#utility.yul\":20982:21008   */\n      swap1\n      pop\n        /* \"#utility.yul\":21054:21063   */\n      dup2\n        /* \"#utility.yul\":21048:21052   */\n      dup2\n        /* \"#utility.yul\":21044:21064   */\n      sub\n        /* \"#utility.yul\":21040:21041   */\n      0x00\n        /* \"#utility.yul\":21029:21038   */\n      dup4\n        /* \"#utility.yul\":21025:21042   */\n      add\n        /* \"#utility.yul\":21018:21065   */\n      mstore\n        /* \"#utility.yul\":21082:21213   */\n      tag_452\n        /* \"#utility.yul\":21208:21212   */\n      dup2\n        /* \"#utility.yul\":21082:21213   */\n      tag_254\n      jump\t// in\n    tag_452:\n        /* \"#utility.yul\":21074:21213   */\n      swap1\n      pop\n        /* \"#utility.yul\":20801:21220   */\n      swap2\n      swap1\n      pop\n      jump\t// out\n        /* \"#utility.yul\":21226:21401   */\n    tag_255:\n        /* \"#utility.yul\":21366:21393   */\n      0x596f7527726520416c7265616479205265676973746572656400000000000000\n        /* \"#utility.yul\":21362:21363   */\n      0x00\n        /* \"#utility.yul\":21354:21360   */\n      dup3\n        /* \"#utility.yul\":21350:21364   */\n      add\n        /* \"#utility.yul\":21343:21394   */\n      mstore\n        /* \"#utility.yul\":21226:21401   */\n      pop\n      jump\t// out\n        /* \"#utility.yul\":21407:21773   */\n    tag_256:\n        /* \"#utility.yul\":21549:21552   */\n      0x00\n        /* \"#utility.yul\":21570:21637   */\n      tag_455\n        /* \"#utility.yul\":21634:21636   */\n      0x19\n        /* \"#utility.yul\":21629:21632   */\n      dup4\n        /* \"#utility.yul\":21570:21637   */\n      tag_243\n      jump\t// in\n    tag_455:\n        /* \"#utility.yul\":21563:21637   */\n      swap2\n      pop\n        /* \"#utility.yul\":21646:21739   */\n      tag_456\n        /* \"#utility.yul\":21735:21738   */\n      dup3\n        /* \"#utility.yul\":21646:21739   */\n      tag_255\n      jump\t// in\n    tag_456:\n        /* \"#utility.yul\":21764:21766   */\n      0x20\n        /* \"#utility.yul\":21759:21762   */\n      dup3\n        /* \"#utility.yul\":21755:21767   */\n      add\n        /* \"#utility.yul\":21748:21767   */\n      swap1\n      pop\n        /* \"#utility.yul\":21407:21773   */\n      swap2\n      swap1\n      pop\n      jump\t// out\n        /* \"#utility.yul\":21779:22198   */\n    tag_88:\n        /* \"#utility.yul\":21945:21949   */\n      0x00\n        /* \"#utility.yul\":21983:21985   */\n      0x20\n        /* \"#utility.yul\":21972:21981   */\n      dup3\n        /* \"#utility.yul\":21968:21986   */\n      add\n        /* \"#utility.yul\":21960:21986   */\n      swap1\n      pop\n        /* \"#utility.yul\":22032:22041   */\n      dup2\n        /* \"#utility.yul\":22026:22030   */\n      dup2\n        /* \"#utility.yul\":22022:22042   */\n      sub\n        /* \"#utility.yul\":22018:22019   */\n      0x00\n        /* \"#utility.yul\":22007:22016   */\n      dup4\n        /* \"#utility.yul\":22003:22020   */\n      add\n        /* \"#utility.yul\":21996:22043   */\n      mstore\n        /* \"#utility.yul\":22060:22191   */\n      tag_458\n        /* \"#utility.yul\":22186:22190   */\n      dup2\n        /* \"#utility.yul\":22060:22191   */\n      tag_256\n      jump\t// in\n    tag_458:\n        /* \"#utility.yul\":22052:22191   */\n      swap1\n      pop\n        /* \"#utility.yul\":21779:22198   */\n      swap2\n      swap1\n      pop\n      jump\t// out\n        /* \"#utility.yul\":22204:22384   */\n    tag_135:\n        /* \"#utility.yul\":22252:22329   */\n      0x4e487b7100000000000000000000000000000000000000000000000000000000\n        /* \"#utility.yul\":22249:22250   */\n      0x00\n        /* \"#utility.yul\":22242:22330   */\n      mstore\n        /* \"#utility.yul\":22349:22353   */\n      0x41\n        /* \"#utility.yul\":22346:22347   */\n      0x04\n        /* \"#utility.yul\":22339:22354   */\n      mstore\n        /* \"#utility.yul\":22373:22377   */\n      0x24\n        /* \"#utility.yul\":22370:22371   */\n      0x00\n        /* \"#utility.yul\":22363:22378   */\n      revert\n        /* \"#utility.yul\":22390:22570   */\n    tag_257:\n        /* \"#utility.yul\":22438:22515   */\n      0x4e487b7100000000000000000000000000000000000000000000000000000000\n        /* \"#utility.yul\":22435:22436   */\n      0x00\n        /* \"#utility.yul\":22428:22516   */\n      mstore\n        /* \"#utility.yul\":22535:22539   */\n      0x22\n        /* \"#utility.yul\":22532:22533   */\n      0x04\n        /* \"#utility.yul\":22525:22540   */\n      mstore\n        /* \"#utility.yul\":22559:22563   */\n      0x24\n        /* \"#utility.yul\":22556:22557   */\n      0x00\n        /* \"#utility.yul\":22549:22564   */\n      revert\n        /* \"#utility.yul\":22576:22896   */\n    tag_145:\n        /* \"#utility.yul\":22620:22626   */\n      0x00\n        /* \"#utility.yul\":22657:22658   */\n      0x02\n        /* \"#utility.yul\":22651:22655   */\n      dup3\n        /* \"#utility.yul\":22647:22659   */\n      div\n        /* \"#utility.yul\":22637:22659   */\n      swap1\n      pop\n        /* \"#utility.yul\":22704:22705   */\n      0x01\n        /* \"#utility.yul\":22698:22702   */\n      dup3\n        /* \"#utility.yul\":22694:22706   */\n      and\n        /* \"#utility.yul\":22725:22743   */\n      dup1\n        /* \"#utility.yul\":22715:22796   */\n      tag_462\n      jumpi\n        /* \"#utility.yul\":22781:22785   */\n      0x7f\n        /* \"#utility.yul\":22773:22779   */\n      dup3\n        /* \"#utility.yul\":22769:22786   */\n      and\n        /* \"#utility.yul\":22759:22786   */\n      swap2\n      pop\n        /* \"#utility.yul\":22715:22796   */\n    tag_462:\n        /* \"#utility.yul\":22843:22845   */\n      0x20\n        /* \"#utility.yul\":22835:22841   */\n      dup3\n        /* \"#utility.yul\":22832:22846   */\n      lt\n        /* \"#utility.yul\":22812:22830   */\n      dup2\n        /* \"#utility.yul\":22809:22847   */\n      sub\n        /* \"#utility.yul\":22806:22890   */\n      tag_463\n      jumpi\n        /* \"#utility.yul\":22862:22880   */\n      tag_464\n      tag_257\n      jump\t// in\n    tag_464:\n        /* \"#utility.yul\":22806:22890   */\n    tag_463:\n        /* \"#utility.yul\":22627:22896   */\n      pop\n        /* \"#utility.yul\":22576:22896   */\n      swap2\n      swap1\n      pop\n      jump\t// out\n        /* \"#utility.yul\":22902:23043   */\n    tag_258:\n        /* \"#utility.yul\":22951:22955   */\n      0x00\n        /* \"#utility.yul\":22974:22977   */\n      dup2\n        /* \"#utility.yul\":22966:22977   */\n      swap1\n      pop\n        /* \"#utility.yul\":22997:23000   */\n      dup2\n        /* \"#utility.yul\":22994:22995   */\n      0x00\n        /* \"#utility.yul\":22987:23001   */\n      mstore\n        /* \"#utility.yul\":23031:23035   */\n      0x20\n        /* \"#utility.yul\":23028:23029   */\n      0x00\n        /* \"#utility.yul\":23018:23036   */\n      keccak256\n        /* \"#utility.yul\":23010:23036   */\n      swap1\n      pop\n        /* \"#utility.yul\":22902:23043   */\n      swap2\n      swap1\n      pop\n      jump\t// out\n        /* \"#utility.yul\":23049:23142   */\n    tag_259:\n        /* \"#utility.yul\":23086:23092   */\n      0x00\n        /* \"#utility.yul\":23133:23135   */\n      0x20\n        /* \"#utility.yul\":23128:23130   */\n      0x1f\n        /* \"#utility.yul\":23121:23126   */\n      dup4\n        /* \"#utility.yul\":23117:23131   */\n      add\n        /* \"#utility.yul\":23113:23136   */\n      div\n        /* \"#utility.yul\":23103:23136   */\n      swap1\n      pop\n        /* \"#utility.yul\":23049:23142   */\n      swap2\n      swap1\n      pop\n      jump\t// out\n        /* \"#utility.yul\":23148:23255   */\n    tag_260:\n        /* \"#utility.yul\":23192:23200   */\n      0x00\n        /* \"#utility.yul\":23242:23247   */\n      dup3\n        /* \"#utility.yul\":23236:23240   */\n      dup3\n        /* \"#utility.yul\":23232:23248   */\n      shl\n        /* \"#utility.yul\":23211:23248   */\n      swap1\n      pop\n        /* \"#utility.yul\":23148:23255   */\n      swap3\n      swap2\n      pop\n      pop\n      jump\t// out\n        /* \"#utility.yul\":23261:23654   */\n    tag_261:\n        /* \"#utility.yul\":23330:23336   */\n      0x00\n        /* \"#utility.yul\":23380:23381   */\n      0x08\n        /* \"#utility.yul\":23368:23378   */\n      dup4\n        /* \"#utility.yul\":23364:23382   */\n      mul\n        /* \"#utility.yul\":23403:23500   */\n      tag_469\n        /* \"#utility.yul\":23433:23499   */\n      0xffffffffffffffffffffffffffffffffffffffffffffffffffffffffffffffff\n        /* \"#utility.yul\":23422:23431   */\n      dup3\n        /* \"#utility.yul\":23403:23500   */\n      tag_260\n      jump\t// in\n    tag_469:\n        /* \"#utility.yul\":23521:23560   */\n      tag_470\n        /* \"#utility.yul\":23551:23559   */\n      dup7\n        /* \"#utility.yul\":23540:23549   */\n      dup4\n        /* \"#utility.yul\":23521:23560   */\n      tag_260\n      jump\t// in\n    tag_470:\n        /* \"#utility.yul\":23509:23560   */\n      swap6\n      pop\n        /* \"#utility.yul\":23593:23597   */\n      dup1\n        /* \"#utility.yul\":23589:23598   */\n      not\n        /* \"#utility.yul\":23582:23587   */\n      dup5\n        /* \"#utility.yul\":23578:23599   */\n      and\n        /* \"#utility.yul\":23569:23599   */\n      swap4\n      pop\n        /* \"#utility.yul\":23642:23646   */\n      dup1\n        /* \"#utility.yul\":23632:23640   */\n      dup7\n        /* \"#utility.yul\":23628:23647   */\n      and\n        /* \"#utility.yul\":23621:23626   */\n      dup5\n        /* \"#utility.yul\":23618:23648   */\n      or\n        /* \"#utility.yul\":23608:23648   */\n      swap3\n      pop\n        /* \"#utility.yul\":23337:23654   */\n      pop\n      pop\n        /* \"#utility.yul\":23261:23654   */\n      swap4\n      swap3\n      pop\n      pop\n      pop\n      jump\t// out\n        /* \"#utility.yul\":23660:23720   */\n    tag_262:\n        /* \"#utility.yul\":23688:23691   */\n      0x00\n        /* \"#utility.yul\":23709:23714   */\n      dup2\n        /* \"#utility.yul\":23702:23714   */\n      swap1\n      pop\n        /* \"#utility.yul\":23660:23720   */\n      swap2\n      swap1\n      pop\n      jump\t// out\n        /* \"#utility.yul\":23726:23868   */\n    tag_263:\n        /* \"#utility.yul\":23776:23785   */\n      0x00\n        /* \"#utility.yul\":23809:23862   */\n      tag_473\n        /* \"#utility.yul\":23827:23861   */\n      tag_474\n        /* \"#utility.yul\":23836:23860   */\n      tag_475\n        /* \"#utility.yul\":23854:23859   */\n      dup5\n        /* \"#utility.yul\":23836:23860   */\n      tag_202\n      jump\t// in\n    tag_475:\n        /* \"#utility.yul\":23827:23861   */\n      tag_262\n      jump\t// in\n    tag_474:\n        /* \"#utility.yul\":23809:23862   */\n      tag_202\n      jump\t// in\n    tag_473:\n        /* \"#utility.yul\":23796:23862   */\n      swap1\n      pop\n        /* \"#utility.yul\":23726:23868   */\n      swap2\n      swap1\n      pop\n      jump\t// out\n        /* \"#utility.yul\":23874:23949   */\n    tag_264:\n        /* \"#utility.yul\":23917:23920   */\n      0x00\n        /* \"#utility.yul\":23938:23943   */\n      dup2\n        /* \"#utility.yul\":23931:23943   */\n      swap1\n      pop\n        /* \"#utility.yul\":23874:23949   */\n      swap2\n      swap1\n      pop\n      jump\t// out\n        /* \"#utility.yul\":23955:24224   */\n    tag_265:\n        /* \"#utility.yul\":24065:24104   */\n      tag_478\n        /* \"#utility.yul\":24096:24103   */\n      dup4\n        /* \"#utility.yul\":24065:24104   */\n      tag_263\n      jump\t// in\n    tag_478:\n        /* \"#utility.yul\":24126:24217   */\n      tag_479\n        /* \"#utility.yul\":24175:24216   */\n      tag_480\n        /* \"#utility.yul\":24199:24215   */\n      dup3\n        /* \"#utility.yul\":24175:24216   */\n      tag_264\n      jump\t// in\n    tag_480:\n        /* \"#utility.yul\":24167:24173   */\n      dup5\n        /* \"#utility.yul\":24160:24164   */\n      dup5\n        /* \"#utility.yul\":24154:24165   */\n      sload\n        /* \"#utility.yul\":24126:24217   */\n      tag_261\n      jump\t// in\n    tag_479:\n        /* \"#utility.yul\":24120:24124   */\n      dup3\n        /* \"#utility.yul\":24113:24218   */\n      sstore\n        /* \"#utility.yul\":24031:24224   */\n      pop\n        /* \"#utility.yul\":23955:24224   */\n      pop\n      pop\n      pop\n      jump\t// out\n        /* \"#utility.yul\":24230:24303   */\n    tag_266:\n        /* \"#utility.yul\":24275:24278   */\n      0x00\n        /* \"#utility.yul\":24230:24303   */\n      swap1\n      jump\t// out\n        /* \"#utility.yul\":24309:24498   */\n    tag_267:\n        /* \"#utility.yul\":24386:24418   */\n      tag_483\n      tag_266\n      jump\t// in\n    tag_483:\n        /* \"#utility.yul\":24427:24492   */\n      tag_484\n        /* \"#utility.yul\":24485:24491   */\n      dup2\n        /* \"#utility.yul\":24477:24483   */\n      dup5\n        /* \"#utility.yul\":24471:24475   */\n      dup5\n        /* \"#utility.yul\":24427:24492   */\n      tag_265\n      jump\t// in\n    tag_484:\n        /* \"#utility.yul\":24362:24498   */\n      pop\n        /* \"#utility.yul\":24309:24498   */\n      pop\n      pop\n      jump\t// out\n        /* \"#utility.yul\":24504:24690   */\n    tag_268:\n        /* \"#utility.yul\":24564:24684   */\n    tag_486:\n        /* \"#utility.yul\":24581:24584   */\n      dup2\n        /* \"#utility.yul\":24574:24579   */\n      dup2\n        /* \"#utility.yul\":24571:24585   */\n      lt\n        /* \"#utility.yul\":24564:24684   */\n      iszero\n      tag_488\n      jumpi\n        /* \"#utility.yul\":24635:24674   */\n      tag_489\n        /* \"#utility.yul\":24672:24673   */\n      0x00\n        /* \"#utility.yul\":24665:24670   */\n      dup3\n        /* \"#utility.yul\":24635:24674   */\n      tag_267\n      jump\t// in\n    tag_489:\n        /* \"#utility.yul\":24608:24609   */\n      0x01\n        /* \"#utility.yul\":24601:24606   */\n      dup2\n        /* \"#utility.yul\":24597:24610   */\n      add\n        /* \"#utility.yul\":24588:24610   */\n      swap1\n      pop\n        /* \"#utility.yul\":24564:24684   */\n      jump(tag_486)\n    tag_488:\n        /* \"#utility.yul\":24504:24690   */\n      pop\n      pop\n      jump\t// out\n        /* \"#utility.yul\":24696:25239   */\n    tag_269:\n        /* \"#utility.yul\":24797:24799   */\n      0x1f\n        /* \"#utility.yul\":24792:24795   */\n      dup3\n        /* \"#utility.yul\":24789:24800   */\n      gt\n        /* \"#utility.yul\":24786:25232   */\n      iszero\n      tag_491\n      jumpi\n        /* \"#utility.yul\":24831:24869   */\n      tag_492\n        /* \"#utility.yul\":24863:24868   */\n      dup2\n        /* \"#utility.yul\":24831:24869   */\n      tag_258\n      jump\t// in\n    tag_492:\n        /* \"#utility.yul\":24915:24944   */\n      tag_493\n        /* \"#utility.yul\":24933:24943   */\n      dup5\n        /* \"#utility.yul\":24915:24944   */\n      tag_259\n      jump\t// in\n    tag_493:\n        /* \"#utility.yul\":24905:24913   */\n      dup2\n        /* \"#utility.yul\":24901:24945   */\n      add\n        /* \"#utility.yul\":25098:25100   */\n      0x20\n        /* \"#utility.yul\":25086:25096   */\n      dup6\n        /* \"#utility.yul\":25083:25101   */\n      lt\n        /* \"#utility.yul\":25080:25129   */\n      iszero\n      tag_494\n      jumpi\n        /* \"#utility.yul\":25119:25127   */\n      dup2\n        /* \"#utility.yul\":25104:25127   */\n      swap1\n      pop\n        /* \"#utility.yul\":25080:25129   */\n    tag_494:\n        /* \"#utility.yul\":25142:25222   */\n      tag_495\n        /* \"#utility.yul\":25198:25220   */\n      tag_496\n        /* \"#utility.yul\":25216:25219   */\n      dup6\n        /* \"#utility.yul\":25198:25220   */\n      tag_259\n      jump\t// in\n    tag_496:\n        /* \"#utility.yul\":25188:25196   */\n      dup4\n        /* \"#utility.yul\":25184:25221   */\n      add\n        /* \"#utility.yul\":25171:25182   */\n      dup3\n        /* \"#utility.yul\":25142:25222   */\n      tag_268\n      jump\t// in\n    tag_495:\n        /* \"#utility.yul\":24801:25232   */\n      pop\n      pop\n        /* \"#utility.yul\":24786:25232   */\n    tag_491:\n        /* \"#utility.yul\":24696:25239   */\n      pop\n      pop\n      pop\n      jump\t// out\n        /* \"#utility.yul\":25245:25362   */\n    tag_270:\n        /* \"#utility.yul\":25299:25307   */\n      0x00\n        /* \"#utility.yul\":25349:25354   */\n      dup3\n        /* \"#utility.yul\":25343:25347   */\n      dup3\n        /* \"#utility.yul\":25339:25355   */\n      shr\n        /* \"#utility.yul\":25318:25355   */\n      swap1\n      pop\n        /* \"#utility.yul\":25245:25362   */\n      swap3\n      swap2\n      pop\n      pop\n      jump\t// out\n        /* \"#utility.yul\":25368:25537   */\n    tag_271:\n        /* \"#utility.yul\":25412:25418   */\n      0x00\n        /* \"#utility.yul\":25445:25496   */\n      tag_499\n        /* \"#utility.yul\":25493:25494   */\n      0x00\n        /* \"#utility.yul\":25489:25495   */\n      not\n        /* \"#utility.yul\":25481:25486   */\n      dup5\n        /* \"#utility.yul\":25478:25479   */\n      0x08\n        /* \"#utility.yul\":25474:25487   */\n      mul\n        /* \"#utility.yul\":25445:25496   */\n      tag_270\n      jump\t// in\n    tag_499:\n        /* \"#utility.yul\":25441:25497   */\n      not\n        /* \"#utility.yul\":25526:25530   */\n      dup1\n        /* \"#utility.yul\":25520:25524   */\n      dup4\n        /* \"#utility.yul\":25516:25531   */\n      and\n        /* \"#utility.yul\":25506:25531   */\n      swap2\n      pop\n        /* \"#utility.yul\":25419:25537   */\n      pop\n        /* \"#utility.yul\":25368:25537   */\n      swap3\n      swap2\n      pop\n      pop\n      jump\t// out\n        /* \"#utility.yul\":25542:25837   */\n    tag_272:\n        /* \"#utility.yul\":25618:25622   */\n      0x00\n        /* \"#utility.yul\":25764:25793   */\n      tag_501\n        /* \"#utility.yul\":25789:25792   */\n      dup4\n        /* \"#utility.yul\":25783:25787   */\n      dup4\n        /* \"#utility.yul\":25764:25793   */\n      tag_271\n      jump\t// in\n    tag_501:\n        /* \"#utility.yul\":25756:25793   */\n      swap2\n      pop\n        /* \"#utility.yul\":25826:25829   */\n      dup3\n        /* \"#utility.yul\":25823:25824   */\n      0x02\n        /* \"#utility.yul\":25819:25830   */\n      mul\n        /* \"#utility.yul\":25813:25817   */\n      dup3\n        /* \"#utility.yul\":25810:25831   */\n      or\n        /* \"#utility.yul\":25802:25831   */\n      swap1\n      pop\n        /* \"#utility.yul\":25542:25837   */\n      swap3\n      swap2\n      pop\n      pop\n      jump\t// out\n        /* \"#utility.yul\":25842:27237   */\n    tag_93:\n        /* \"#utility.yul\":25959:25996   */\n      tag_503\n        /* \"#utility.yul\":25992:25995   */\n      dup3\n        /* \"#utility.yul\":25959:25996   */\n      tag_218\n      jump\t// in\n    tag_503:\n        /* \"#utility.yul\":26061:26079   */\n      0xffffffffffffffff\n        /* \"#utility.yul\":26053:26059   */\n      dup2\n        /* \"#utility.yul\":26050:26080   */\n      gt\n        /* \"#utility.yul\":26047:26103   */\n      iszero\n      tag_504\n      jumpi\n        /* \"#utility.yul\":26083:26101   */\n      tag_505\n      tag_135\n      jump\t// in\n    tag_505:\n        /* \"#utility.yul\":26047:26103   */\n    tag_504:\n        /* \"#utility.yul\":26127:26165   */\n      tag_506\n        /* \"#utility.yul\":26159:26163   */\n      dup3\n        /* \"#utility.yul\":26153:26164   */\n      sload\n        /* \"#utility.yul\":26127:26165   */\n      tag_145\n      jump\t// in\n    tag_506:\n        /* \"#utility.yul\":26212:26279   */\n      tag_507\n        /* \"#utility.yul\":26272:26278   */\n      dup3\n        /* \"#utility.yul\":26264:26270   */\n      dup3\n        /* \"#utility.yul\":26258:26262   */\n      dup6\n        /* \"#utility.yul\":26212:26279   */\n      tag_269\n      jump\t// in\n    tag_507:\n        /* \"#utility.yul\":26306:26307   */\n      0x00\n        /* \"#utility.yul\":26330:26334   */\n      0x20\n        /* \"#utility.yul\":26317:26334   */\n      swap1\n      pop\n        /* \"#utility.yul\":26362:26364   */\n      0x1f\n        /* \"#utility.yul\":26354:26360   */\n      dup4\n        /* \"#utility.yul\":26351:26365   */\n      gt\n        /* \"#utility.yul\":26379:26380   */\n      0x01\n        /* \"#utility.yul\":26374:26992   */\n      dup2\n      eq\n      tag_509\n      jumpi\n        /* \"#utility.yul\":27036:27037   */\n      0x00\n        /* \"#utility.yul\":27053:27059   */\n      dup5\n        /* \"#utility.yul\":27050:27127   */\n      iszero\n      tag_510\n      jumpi\n        /* \"#utility.yul\":27102:27111   */\n      dup3\n        /* \"#utility.yul\":27097:27100   */\n      dup8\n        /* \"#utility.yul\":27093:27112   */\n      add\n        /* \"#utility.yul\":27087:27113   */\n      mload\n        /* \"#utility.yul\":27078:27113   */\n      swap1\n      pop\n        /* \"#utility.yul\":27050:27127   */\n    tag_510:\n        /* \"#utility.yul\":27153:27220   */\n      tag_511\n        /* \"#utility.yul\":27213:27219   */\n      dup6\n        /* \"#utility.yul\":27206:27211   */\n      dup3\n        /* \"#utility.yul\":27153:27220   */\n      tag_272\n      jump\t// in\n    tag_511:\n        /* \"#utility.yul\":27147:27151   */\n      dup7\n        /* \"#utility.yul\":27140:27221   */\n      sstore\n        /* \"#utility.yul\":27009:27231   */\n      pop\n        /* \"#utility.yul\":26344:27231   */\n      jump(tag_508)\n        /* \"#utility.yul\":26374:26992   */\n    tag_509:\n        /* \"#utility.yul\":26426:26430   */\n      0x1f\n        /* \"#utility.yul\":26422:26431   */\n      not\n        /* \"#utility.yul\":26414:26420   */\n      dup5\n        /* \"#utility.yul\":26410:26432   */\n      and\n        /* \"#utility.yul\":26460:26497   */\n      tag_512\n        /* \"#utility.yul\":26492:26496   */\n      dup7\n        /* \"#utility.yul\":26460:26497   */\n      tag_258\n      jump\t// in\n    tag_512:\n        /* \"#utility.yul\":26519:26520   */\n      0x00\n        /* \"#utility.yul\":26533:26741   */\n    tag_513:\n        /* \"#utility.yul\":26547:26554   */\n      dup3\n        /* \"#utility.yul\":26544:26545   */\n      dup2\n        /* \"#utility.yul\":26541:26555   */\n      lt\n        /* \"#utility.yul\":26533:26741   */\n      iszero\n      tag_515\n      jumpi\n        /* \"#utility.yul\":26626:26635   */\n      dup5\n        /* \"#utility.yul\":26621:26624   */\n      dup10\n        /* \"#utility.yul\":26617:26636   */\n      add\n        /* \"#utility.yul\":26611:26637   */\n      mload\n        /* \"#utility.yul\":26603:26609   */\n      dup3\n        /* \"#utility.yul\":26596:26638   */\n      sstore\n        /* \"#utility.yul\":26677:26678   */\n      0x01\n        /* \"#utility.yul\":26669:26675   */\n      dup3\n        /* \"#utility.yul\":26665:26679   */\n      add\n        /* \"#utility.yul\":26655:26679   */\n      swap2\n      pop\n        /* \"#utility.yul\":26724:26726   */\n      0x20\n        /* \"#utility.yul\":26713:26722   */\n      dup6\n        /* \"#utility.yul\":26709:26727   */\n      add\n        /* \"#utility.yul\":26696:26727   */\n      swap5\n      pop\n        /* \"#utility.yul\":26570:26574   */\n      0x20\n        /* \"#utility.yul\":26567:26568   */\n      dup2\n        /* \"#utility.yul\":26563:26575   */\n      add\n        /* \"#utility.yul\":26558:26575   */\n      swap1\n      pop\n        /* \"#utility.yul\":26533:26741   */\n      jump(tag_513)\n    tag_515:\n        /* \"#utility.yul\":26769:26775   */\n      dup7\n        /* \"#utility.yul\":26760:26767   */\n      dup4\n        /* \"#utility.yul\":26757:26776   */\n      lt\n        /* \"#utility.yul\":26754:26933   */\n      iszero\n      tag_516\n      jumpi\n        /* \"#utility.yul\":26827:26836   */\n      dup5\n        /* \"#utility.yul\":26822:26825   */\n      dup10\n        /* \"#utility.yul\":26818:26837   */\n      add\n        /* \"#utility.yul\":26812:26838   */\n      mload\n        /* \"#utility.yul\":26870:26918   */\n      tag_517\n        /* \"#utility.yul\":26912:26916   */\n      0x1f\n        /* \"#utility.yul\":26904:26910   */\n      dup10\n        /* \"#utility.yul\":26900:26917   */\n      and\n        /* \"#utility.yul\":26889:26898   */\n      dup3\n        /* \"#utility.yul\":26870:26918   */\n      tag_271\n      jump\t// in\n    tag_517:\n        /* \"#utility.yul\":26862:26868   */\n      dup4\n        /* \"#utility.yul\":26855:26919   */\n      sstore\n        /* \"#utility.yul\":26777:26933   */\n      pop\n        /* \"#utility.yul\":26754:26933   */\n    tag_516:\n        /* \"#utility.yul\":26979:26980   */\n      0x01\n        /* \"#utility.yul\":26975:26976   */\n      0x02\n        /* \"#utility.yul\":26967:26973   */\n      dup9\n        /* \"#utility.yul\":26963:26977   */\n      mul\n        /* \"#utility.yul\":26959:26981   */\n      add\n        /* \"#utility.yul\":26953:26957   */\n      dup9\n        /* \"#utility.yul\":26946:26982   */\n      sstore\n        /* \"#utility.yul\":26381:26992   */\n      pop\n      pop\n      pop\n        /* \"#utility.yul\":26344:27231   */\n    tag_508:\n      pop\n        /* \"#utility.yul\":25934:27237   */\n      pop\n      pop\n      pop\n        /* \"#utility.yul\":25842:27237   */\n      pop\n      pop\n      jump\t// out\n        /* \"#utility.yul\":27243:27418   */\n    tag_273:\n        /* \"#utility.yul\":27383:27410   */\n      0x596f7527726520616c7265616479205265676973746572656400000000000000\n        /* \"#utility.yul\":27379:27380   */\n      0x00\n        /* \"#utility.yul\":27371:27377   */\n      dup3\n        /* \"#utility.yul\":27367:27381   */\n      add\n        /* \"#utility.yul\":27360:27411   */\n      mstore\n        /* \"#utility.yul\":27243:27418   */\n      pop\n      jump\t// out\n        /* \"#utility.yul\":27424:27790   */\n    tag_274:\n        /* \"#utility.yul\":27566:27569   */\n      0x00\n        /* \"#utility.yul\":27587:27654   */\n      tag_520\n        /* \"#utility.yul\":27651:27653   */\n      0x19\n        /* \"#utility.yul\":27646:27649   */\n      dup4\n        /* \"#utility.yul\":27587:27654   */\n      tag_243\n      jump\t// in\n    tag_520:\n        /* \"#utility.yul\":27580:27654   */\n      swap2\n      pop\n        /* \"#utility.yul\":27663:27756   */\n      tag_521\n        /* \"#utility.yul\":27752:27755   */\n      dup3\n        /* \"#utility.yul\":27663:27756   */\n      tag_273\n      jump\t// in\n    tag_521:\n        /* \"#utility.yul\":27781:27783   */\n      0x20\n        /* \"#utility.yul\":27776:27779   */\n      dup3\n        /* \"#utility.yul\":27772:27784   */\n      add\n        /* \"#utility.yul\":27765:27784   */\n      swap1\n      pop\n        /* \"#utility.yul\":27424:27790   */\n      swap2\n      swap1\n      pop\n      jump\t// out\n        /* \"#utility.yul\":27796:28215   */\n    tag_105:\n        /* \"#utility.yul\":27962:27966   */\n      0x00\n        /* \"#utility.yul\":28000:28002   */\n      0x20\n        /* \"#utility.yul\":27989:27998   */\n      dup3\n        /* \"#utility.yul\":27985:28003   */\n      add\n        /* \"#utility.yul\":27977:28003   */\n      swap1\n      pop\n        /* \"#utility.yul\":28049:28058   */\n      dup2\n        /* \"#utility.yul\":28043:28047   */\n      dup2\n        /* \"#utility.yul\":28039:28059   */\n      sub\n        /* \"#utility.yul\":28035:28036   */\n      0x00\n        /* \"#utility.yul\":28024:28033   */\n      dup4\n        /* \"#utility.yul\":28020:28037   */\n      add\n        /* \"#utility.yul\":28013:28060   */\n      mstore\n        /* \"#utility.yul\":28077:28208   */\n      tag_523\n        /* \"#utility.yul\":28203:28207   */\n      dup2\n        /* \"#utility.yul\":28077:28208   */\n      tag_274\n      jump\t// in\n    tag_523:\n        /* \"#utility.yul\":28069:28208   */\n      swap1\n      pop\n        /* \"#utility.yul\":27796:28215   */\n      swap2\n      swap1\n      pop\n      jump\t// out\n        /* \"#utility.yul\":28221:28401   */\n    tag_275:\n        /* \"#utility.yul\":28361:28393   */\n      0x596f75277265204e6f7420416c6c6f77656420546f2052656769737465720000\n        /* \"#utility.yul\":28357:28358   */\n      0x00\n        /* \"#utility.yul\":28349:28355   */\n      dup3\n        /* \"#utility.yul\":28345:28359   */\n      add\n        /* \"#utility.yul\":28338:28394   */\n      mstore\n        /* \"#utility.yul\":28221:28401   */\n      pop\n      jump\t// out\n        /* \"#utility.yul\":28407:28773   */\n    tag_276:\n        /* \"#utility.yul\":28549:28552   */\n      0x00\n        /* \"#utility.yul\":28570:28637   */\n      tag_526\n        /* \"#utility.yul\":28634:28636   */\n      0x1e\n        /* \"#utility.yul\":28629:28632   */\n      dup4\n        /* \"#utility.yul\":28570:28637   */\n      tag_243\n      jump\t// in\n    tag_526:\n        /* \"#utility.yul\":28563:28637   */\n      swap2\n      pop\n        /* \"#utility.yul\":28646:28739   */\n      tag_527\n        /* \"#utility.yul\":28735:28738   */\n      dup3\n        /* \"#utility.yul\":28646:28739   */\n      tag_275\n      jump\t// in\n    tag_527:\n        /* \"#utility.yul\":28764:28766   */\n      0x20\n        /* \"#utility.yul\":28759:28762   */\n      dup3\n        /* \"#utility.yul\":28755:28767   */\n      add\n        /* \"#utility.yul\":28748:28767   */\n      swap1\n      pop\n        /* \"#utility.yul\":28407:28773   */\n      swap2\n      swap1\n      pop\n      jump\t// out\n        /* \"#utility.yul\":28779:29198   */\n    tag_108:\n        /* \"#utility.yul\":28945:28949   */\n      0x00\n        /* \"#utility.yul\":28983:28985   */\n      0x20\n        /* \"#utility.yul\":28972:28981   */\n      dup3\n        /* \"#utility.yul\":28968:28986   */\n      add\n        /* \"#utility.yul\":28960:28986   */\n      swap1\n      pop\n        /* \"#utility.yul\":29032:29041   */\n      dup2\n        /* \"#utility.yul\":29026:29030   */\n      dup2\n        /* \"#utility.yul\":29022:29042   */\n      sub\n        /* \"#utility.yul\":29018:29019   */\n      0x00\n        /* \"#utility.yul\":29007:29016   */\n      dup4\n        /* \"#utility.yul\":29003:29020   */\n      add\n        /* \"#utility.yul\":28996:29043   */\n      mstore\n        /* \"#utility.yul\":29060:29191   */\n      tag_529\n        /* \"#utility.yul\":29186:29190   */\n      dup2\n        /* \"#utility.yul\":29060:29191   */\n      tag_276\n      jump\t// in\n    tag_529:\n        /* \"#utility.yul\":29052:29191   */\n      swap1\n      pop\n        /* \"#utility.yul\":28779:29198   */\n      swap2\n      swap1\n      pop\n      jump\t// out\n        /* \"#utility.yul\":29204:29382   */\n    tag_277:\n        /* \"#utility.yul\":29344:29374   */\n      0x4d6178696d756d2043616e646964617465205265676973746572656400000000\n        /* \"#utility.yul\":29340:29341   */\n      0x00\n        /* \"#utility.yul\":29332:29338   */\n      dup3\n        /* \"#utility.yul\":29328:29342   */\n      add\n        /* \"#utility.yul\":29321:29375   */\n      mstore\n        /* \"#utility.yul\":29204:29382   */\n      pop\n      jump\t// out\n        /* \"#utility.yul\":29388:29754   */\n    tag_278:\n        /* \"#utility.yul\":29530:29533   */\n      0x00\n        /* \"#utility.yul\":29551:29618   */\n      tag_532\n        /* \"#utility.yul\":29615:29617   */\n      0x1c\n        /* \"#utility.yul\":29610:29613   */\n      dup4\n        /* \"#utility.yul\":29551:29618   */\n      tag_243\n      jump\t// in\n    tag_532:\n        /* \"#utility.yul\":29544:29618   */\n      swap2\n      pop\n        /* \"#utility.yul\":29627:29720   */\n      tag_533\n        /* \"#utility.yul\":29716:29719   */\n      dup3\n        /* \"#utility.yul\":29627:29720   */\n      tag_277\n      jump\t// in\n    tag_533:\n        /* \"#utility.yul\":29745:29747   */\n      0x20\n        /* \"#utility.yul\":29740:29743   */\n      dup3\n        /* \"#utility.yul\":29736:29748   */\n      add\n        /* \"#utility.yul\":29729:29748   */\n      swap1\n      pop\n        /* \"#utility.yul\":29388:29754   */\n      swap2\n      swap1\n      pop\n      jump\t// out\n        /* \"#utility.yul\":29760:30179   */\n    tag_111:\n        /* \"#utility.yul\":29926:29930   */\n      0x00\n        /* \"#utility.yul\":29964:29966   */\n      0x20\n        /* \"#utility.yul\":29953:29962   */\n      dup3\n        /* \"#utility.yul\":29949:29967   */\n      add\n        /* \"#utility.yul\":29941:29967   */\n      swap1\n      pop\n        /* \"#utility.yul\":30013:30022   */\n      dup2\n        /* \"#utility.yul\":30007:30011   */\n      dup2\n        /* \"#utility.yul\":30003:30023   */\n      sub\n        /* \"#utility.yul\":29999:30000   */\n      0x00\n        /* \"#utility.yul\":29988:29997   */\n      dup4\n        /* \"#utility.yul\":29984:30001   */\n      add\n        /* \"#utility.yul\":29977:30024   */\n      mstore\n        /* \"#utility.yul\":30041:30172   */\n      tag_535\n        /* \"#utility.yul\":30167:30171   */\n      dup2\n        /* \"#utility.yul\":30041:30172   */\n      tag_278\n      jump\t// in\n    tag_535:\n        /* \"#utility.yul\":30033:30172   */\n      swap1\n      pop\n        /* \"#utility.yul\":29760:30179   */\n      swap2\n      swap1\n      pop\n      jump\t// out\n        /* \"#utility.yul\":30185:30376   */\n    tag_128:\n        /* \"#utility.yul\":30225:30228   */\n      0x00\n        /* \"#utility.yul\":30244:30264   */\n      tag_537\n        /* \"#utility.yul\":30262:30263   */\n      dup3\n        /* \"#utility.yul\":30244:30264   */\n      tag_202\n      jump\t// in\n    tag_537:\n        /* \"#utility.yul\":30239:30264   */\n      swap2\n      pop\n        /* \"#utility.yul\":30278:30298   */\n      tag_538\n        /* \"#utility.yul\":30296:30297   */\n      dup4\n        /* \"#utility.yul\":30278:30298   */\n      tag_202\n      jump\t// in\n    tag_538:\n        /* \"#utility.yul\":30273:30298   */\n      swap3\n      pop\n        /* \"#utility.yul\":30321:30322   */\n      dup3\n        /* \"#utility.yul\":30318:30319   */\n      dup3\n        /* \"#utility.yul\":30314:30323   */\n      add\n        /* \"#utility.yul\":30307:30323   */\n      swap1\n      pop\n        /* \"#utility.yul\":30342:30345   */\n      dup1\n        /* \"#utility.yul\":30339:30340   */\n      dup3\n        /* \"#utility.yul\":30336:30346   */\n      gt\n        /* \"#utility.yul\":30333:30369   */\n      iszero\n      tag_539\n      jumpi\n        /* \"#utility.yul\":30349:30367   */\n      tag_540\n      tag_250\n      jump\t// in\n    tag_540:\n        /* \"#utility.yul\":30333:30369   */\n    tag_539:\n        /* \"#utility.yul\":30185:30376   */\n      swap3\n      swap2\n      pop\n      pop\n      jump\t// out\n        /* \"#utility.yul\":30382:30576   */\n    tag_132:\n        /* \"#utility.yul\":30422:30426   */\n      0x00\n        /* \"#utility.yul\":30442:30462   */\n      tag_542\n        /* \"#utility.yul\":30460:30461   */\n      dup3\n        /* \"#utility.yul\":30442:30462   */\n      tag_202\n      jump\t// in\n    tag_542:\n        /* \"#utility.yul\":30437:30462   */\n      swap2\n      pop\n        /* \"#utility.yul\":30476:30496   */\n      tag_543\n        /* \"#utility.yul\":30494:30495   */\n      dup4\n        /* \"#utility.yul\":30476:30496   */\n      tag_202\n      jump\t// in\n    tag_543:\n        /* \"#utility.yul\":30471:30496   */\n      swap3\n      pop\n        /* \"#utility.yul\":30520:30521   */\n      dup3\n        /* \"#utility.yul\":30517:30518   */\n      dup3\n        /* \"#utility.yul\":30513:30522   */\n      sub\n        /* \"#utility.yul\":30505:30522   */\n      swap1\n      pop\n        /* \"#utility.yul\":30544:30545   */\n      dup2\n        /* \"#utility.yul\":30538:30542   */\n      dup2\n        /* \"#utility.yul\":30535:30546   */\n      gt\n        /* \"#utility.yul\":30532:30569   */\n      iszero\n      tag_544\n      jumpi\n        /* \"#utility.yul\":30549:30567   */\n      tag_545\n      tag_250\n      jump\t// in\n    tag_545:\n        /* \"#utility.yul\":30532:30569   */\n    tag_544:\n        /* \"#utility.yul\":30382:30576   */\n      swap3\n      swap2\n      pop\n      pop\n      jump\t// out\n        /* \"#utility.yul\":30582:30762   */\n    tag_156:\n        /* \"#utility.yul\":30630:30707   */\n      0x4e487b7100000000000000000000000000000000000000000000000000000000\n        /* \"#utility.yul\":30627:30628   */\n      0x00\n        /* \"#utility.yul\":30620:30708   */\n      mstore\n        /* \"#utility.yul\":30727:30731   */\n      0x32\n        /* \"#utility.yul\":30724:30725   */\n      0x04\n        /* \"#utility.yul\":30717:30732   */\n      mstore\n        /* \"#utility.yul\":30751:30755   */\n      0x24\n        /* \"#utility.yul\":30748:30749   */\n      0x00\n        /* \"#utility.yul\":30741:30756   */\n      revert\n\n    auxdata: 0xa26469706673582212209f2fdd35a5cc408df31044e5a3be3c92be1cc8348606ac4be18488bebb18946b64736f6c634300081a0033\n}\n",
				"bytecode": {
					"linkReferences": {},
					"object": "6080604052600160025560016003553480156018575f80fd5b50335f806101000a81548173ffffffffffffffffffffffffffffffffffffffff021916908373ffffffffffffffffffffffffffffffffffffffff1602179055506120b9806100655f395ff3fe608060405234801561000f575f80fd5b506004361061009c575f3560e01c80639fa4e440116100645780639fa4e4401461011c578063a15a36c714610126578063b28d92ae14610142578063dfbf53ae14610160578063fdbc40061461017e5761009c565b80632c0a3f89146100a0578063581c281c146100bc5780636ce2ccc0146100da57806381ba732f146100e4578063982c777d14610100575b5f80fd5b6100ba60048036038101906100b59190611264565b61019c565b005b6100c4610344565b6040516100d19190611315565b60405180910390f35b6100e261038e565b005b6100fe60048036038101906100f991906113b2565b6104e4565b005b61011a60048036038101906101159190611423565b6106e6565b005b610124610a1a565b005b610140600480360381019061013b9190611264565b610ac3565b005b61014a610b7a565b604051610157919061170b565b60405180910390f35b610168610d83565b604051610175919061173a565b60405180910390f35b610186610da8565b60405161019391906118ae565b60405180910390f35b600454421015806101af57506005544211155b6101ee576040517f08c379a00000000000000000000000000000000000000000000000000000000081526004016101e590611928565b60405180910390fd5b5f60075f8481526020019081526020015f206004015414610244576040517f08c379a000000000000000000000000000000000000000000000000000000000815260040161023b90611990565b60405180910390fd5b3373ffffffffffffffffffffffffffffffffffffffff1660075f8481526020019081526020015f206005015f9054906101000a900473ffffffffffffffffffffffffffffffffffffffff1673ffffffffffffffffffffffffffffffffffffffff16146102e5576040517f08c379a00000000000000000000000000000000000000000000000000000000081526004016102dc906119f8565b60405180910390fd5b600181101580156102f65750600381105b6102fe575f80fd5b8060075f8481526020019081526020015f206004018190555060085f8281526020019081526020015f206006015f81548092919061033b90611a43565b91905055505050565b5f8060045403610356575f905061038b565b4260055411801561037857505f151560065f9054906101000a900460ff161515145b15610386576001905061038b565b600290505b90565b3373ffffffffffffffffffffffffffffffffffffffff165f8054906101000a900473ffffffffffffffffffffffffffffffffffffffff1673ffffffffffffffffffffffffffffffffffffffff161461041b576040517f08c379a000000000000000000000000000000000000000000000000000000000815260040161041290611ad4565b60405180910390fd5b5f80600190505b6003548110156104e0578160085f8381526020019081526020015f206006015411156104d35760085f8281526020019081526020015f2060060154915060085f8281526020019081526020015f206005015f9054906101000a900473ffffffffffffffffffffffffffffffffffffffff1660015f6101000a81548173ffffffffffffffffffffffffffffffffffffffff021916908373ffffffffffffffffffffffffffffffffffffffff1602179055505b8080600101915050610422565b5050565b816012811015610529576040517f08c379a000000000000000000000000000000000000000000000000000000000815260040161052090611b3c565b60405180910390fd5b61053233611041565b610571576040517f08c379a000000000000000000000000000000000000000000000000000000000815260040161056890611ba4565b60405180910390fd5b6040518060c0016040528086868080601f0160208091040260200160405190810160405280939291908181526020018383808284375f81840152601f19601f82011690508083019250505050505050815260200184815260200160025481526020018360038111156105e6576105e56112a2565b5b81526020015f81526020013373ffffffffffffffffffffffffffffffffffffffff1681525060075f60025481526020019081526020015f205f820151815f0190816106319190611de9565b5060208201518160010155604082015181600201556060820151816003015f6101000a81548160ff021916908360038111156106705761066f6112a2565b5b02179055506080820151816004015560a0820151816005015f6101000a81548173ffffffffffffffffffffffffffffffffffffffff021916908373ffffffffffffffffffffffffffffffffffffffff16021790555090505060025f8154809291906106da90611a43565b91905055505050505050565b81601281101561072b576040517f08c379a000000000000000000000000000000000000000000000000000000000815260040161072290611b3c565b60405180910390fd5b610734336110d8565b610773576040517f08c379a000000000000000000000000000000000000000000000000000000000815260040161076a90611f02565b60405180910390fd5b5f8054906101000a900473ffffffffffffffffffffffffffffffffffffffff1673ffffffffffffffffffffffffffffffffffffffff163373ffffffffffffffffffffffffffffffffffffffff1603610800576040517f08c379a00000000000000000000000000000000000000000000000000000000081526004016107f790611f6a565b60405180910390fd5b6003805410610844576040517f08c379a000000000000000000000000000000000000000000000000000000000815260040161083b90611fd2565b60405180910390fd5b6040518060e0016040528088888080601f0160208091040260200160405190810160405280939291908181526020018383808284375f81840152601f19601f82011690508083019250505050505050815260200186868080601f0160208091040260200160405190810160405280939291908181526020018383808284375f81840152601f19601f8201169050808301925050505050505081526020018481526020018360038111156108fa576108f96112a2565b5b815260200160035481526020013373ffffffffffffffffffffffffffffffffffffffff1681526020015f81525060085f60035481526020019081526020015f205f820151815f01908161094d9190611de9565b5060208201518160010190816109639190611de9565b50604082015181600201556060820151816003015f6101000a81548160ff02191690836003811115610998576109976112a2565b5b02179055506080820151816004015560a0820151816005015f6101000a81548173ffffffffffffffffffffffffffffffffffffffff021916908373ffffffffffffffffffffffffffffffffffffffff16021790555060c0820151816006015590505060035f815480929190610a0c90611a43565b919050555050505050505050565b3373ffffffffffffffffffffffffffffffffffffffff165f8054906101000a900473ffffffffffffffffffffffffffffffffffffffff1673ffffffffffffffffffffffffffffffffffffffff1614610aa7576040517f08c379a0000000000000000000000000000000000000000000000000000000008152600401610a9e90611ad4565b60405180910390fd5b600160065f6101000a81548160ff021916908315150217905550565b3373ffffffffffffffffffffffffffffffffffffffff165f8054906101000a900473ffffffffffffffffffffffffffffffffffffffff1673ffffffffffffffffffffffffffffffffffffffff1614610b50576040517f08c379a0000000000000000000000000000000000000000000000000000000008152600401610b4790611ad4565b60405180910390fd5b8142610b5c9190611ff0565b60048190555080600454610b709190611ff0565b6005819055505050565b60605f6001600254610b8c9190612023565b67ffffffffffffffff811115610ba557610ba4611bc2565b5b604051908082528060200260200182016040528015610bde57816020015b610bcb611170565b815260200190600190039081610bc35790505b5090505f5b8151811015610d7b5760075f600183610bfc9190611ff0565b81526020019081526020015f206040518060c00160405290815f82018054610c2390611c1c565b80601f0160208091040260200160405190810160405280929190818152602001828054610c4f90611c1c565b8015610c9a5780601f10610c7157610100808354040283529160200191610c9a565b820191905f5260205f20905b815481529060010190602001808311610c7d57829003601f168201915b505050505081526020016001820154815260200160028201548152602001600382015f9054906101000a900460ff166003811115610cdb57610cda6112a2565b5b6003811115610ced57610cec6112a2565b5b815260200160048201548152602001600582015f9054906101000a900473ffffffffffffffffffffffffffffffffffffffff1673ffffffffffffffffffffffffffffffffffffffff1673ffffffffffffffffffffffffffffffffffffffff1681525050828281518110610d6357610d62612056565b5b60200260200101819052508080600101915050610be3565b508091505090565b60015f9054906101000a900473ffffffffffffffffffffffffffffffffffffffff1681565b60605f6001600354610dba9190612023565b67ffffffffffffffff811115610dd357610dd2611bc2565b5b604051908082528060200260200182016040528015610e0c57816020015b610df96111c9565b815260200190600190039081610df15790505b5090505f5b81518110156110395760085f600183610e2a9190611ff0565b81526020019081526020015f206040518060e00160405290815f82018054610e5190611c1c565b80601f0160208091040260200160405190810160405280929190818152602001828054610e7d90611c1c565b8015610ec85780601f10610e9f57610100808354040283529160200191610ec8565b820191905f5260205f20905b815481529060010190602001808311610eab57829003601f168201915b50505050508152602001600182018054610ee190611c1c565b80601f0160208091040260200160405190810160405280929190818152602001828054610f0d90611c1c565b8015610f585780601f10610f2f57610100808354040283529160200191610f58565b820191905f5260205f20905b815481529060010190602001808311610f3b57829003601f168201915b5050505050815260200160028201548152602001600382015f9054906101000a900460ff166003811115610f8f57610f8e6112a2565b5b6003811115610fa157610fa06112a2565b5b815260200160048201548152602001600582015f9054906101000a900473ffffffffffffffffffffffffffffffffffffffff1673ffffffffffffffffffffffffffffffffffffffff1673ffffffffffffffffffffffffffffffffffffffff16815260200160068201548152505082828151811061102157611020612056565b5b60200260200101819052508080600101915050610e11565b508091505090565b5f805f90505b6002548110156110cd578273ffffffffffffffffffffffffffffffffffffffff1660075f8381526020019081526020015f206005015f9054906101000a900473ffffffffffffffffffffffffffffffffffffffff1673ffffffffffffffffffffffffffffffffffffffff16036110c0575f9150506110d3565b8080600101915050611047565b50600190505b919050565b5f80600190505b600354811015611165578273ffffffffffffffffffffffffffffffffffffffff1660085f8381526020019081526020015f206005015f9054906101000a900473ffffffffffffffffffffffffffffffffffffffff1673ffffffffffffffffffffffffffffffffffffffff1603611158575f91505061116b565b80806001019150506110df565b50600190505b919050565b6040518060c00160405280606081526020015f81526020015f81526020015f60038111156111a1576111a06112a2565b5b81526020015f81526020015f73ffffffffffffffffffffffffffffffffffffffff1681525090565b6040518060e0016040528060608152602001606081526020015f81526020015f60038111156111fb576111fa6112a2565b5b81526020015f81526020015f73ffffffffffffffffffffffffffffffffffffffff1681526020015f81525090565b5f80fd5b5f80fd5b5f819050919050565b61124381611231565b811461124d575f80fd5b50565b5f8135905061125e8161123a565b92915050565b5f806040838503121561127a57611279611229565b5b5f61128785828601611250565b925050602061129885828601611250565b9150509250929050565b7f4e487b71000000000000000000000000000000000000000000000000000000005f52602160045260245ffd5b600381106112e0576112df6112a2565b5b50565b5f8190506112f0826112cf565b919050565b5f6112ff826112e3565b9050919050565b61130f816112f5565b82525050565b5f6020820190506113285f830184611306565b92915050565b5f80fd5b5f80fd5b5f80fd5b5f8083601f84011261134f5761134e61132e565b5b8235905067ffffffffffffffff81111561136c5761136b611332565b5b60208301915083600182028301111561138857611387611336565b5b9250929050565b6004811061139b575f80fd5b50565b5f813590506113ac8161138f565b92915050565b5f805f80606085870312156113ca576113c9611229565b5b5f85013567ffffffffffffffff8111156113e7576113e661122d565b5b6113f38782880161133a565b9450945050602061140687828801611250565b92505060406114178782880161139e565b91505092959194509250565b5f805f805f806080878903121561143d5761143c611229565b5b5f87013567ffffffffffffffff81111561145a5761145961122d565b5b61146689828a0161133a565b9650965050602087013567ffffffffffffffff8111156114895761148861122d565b5b61149589828a0161133a565b945094505060406114a889828a01611250565b92505060606114b989828a0161139e565b9150509295509295509295565b5f81519050919050565b5f82825260208201905092915050565b5f819050602082019050919050565b5f81519050919050565b5f82825260208201905092915050565b8281835e5f83830152505050565b5f601f19601f8301169050919050565b5f611531826114ef565b61153b81856114f9565b935061154b818560208601611509565b61155481611517565b840191505092915050565b61156881611231565b82525050565b6004811061157f5761157e6112a2565b5b50565b5f81905061158f8261156e565b919050565b5f61159e82611582565b9050919050565b6115ae81611594565b82525050565b5f73ffffffffffffffffffffffffffffffffffffffff82169050919050565b5f6115dd826115b4565b9050919050565b6115ed816115d3565b82525050565b5f60c083015f8301518482035f86015261160d8282611527565b9150506020830151611622602086018261155f565b506040830151611635604086018261155f565b50606083015161164860608601826115a5565b50608083015161165b608086018261155f565b5060a083015161166e60a08601826115e4565b508091505092915050565b5f61168483836115f3565b905092915050565b5f602082019050919050565b5f6116a2826114c6565b6116ac81856114d0565b9350836020820285016116be856114e0565b805f5b858110156116f957848403895281516116da8582611679565b94506116e58361168c565b925060208a019950506001810190506116c1565b50829750879550505050505092915050565b5f6020820190508181035f8301526117238184611698565b905092915050565b611734816115d3565b82525050565b5f60208201905061174d5f83018461172b565b92915050565b5f81519050919050565b5f82825260208201905092915050565b5f819050602082019050919050565b5f60e083015f8301518482035f8601526117968282611527565b915050602083015184820360208601526117b08282611527565b91505060408301516117c5604086018261155f565b5060608301516117d860608601826115a5565b5060808301516117eb608086018261155f565b5060a08301516117fe60a08601826115e4565b5060c083015161181160c086018261155f565b508091505092915050565b5f611827838361177c565b905092915050565b5f602082019050919050565b5f61184582611753565b61184f818561175d565b9350836020820285016118618561176d565b805f5b8581101561189c578484038952815161187d858261181c565b94506118888361182f565b925060208a01995050600181019050611864565b50829750879550505050505092915050565b5f6020820190508181035f8301526118c6818461183b565b905092915050565b5f82825260208201905092915050565b7f566f74696e672074696d6520697320696e76616c6964000000000000000000005f82015250565b5f6119126016836118ce565b915061191d826118de565b602082019050919050565b5f6020820190508181035f83015261193f81611906565b9050919050565b7f596f7527766520616c726561647920766f7465640000000000000000000000005f82015250565b5f61197a6014836118ce565b915061198582611946565b602082019050919050565b5f6020820190508181035f8301526119a78161196e565b9050919050565b7f596f7572204164647265737320697320696e76616c69640000000000000000005f82015250565b5f6119e26017836118ce565b91506119ed826119ae565b602082019050919050565b5f6020820190508181035f830152611a0f816119d6565b9050919050565b7f4e487b71000000000000000000000000000000000000000000000000000000005f52601160045260245ffd5b5f611a4d82611231565b91507fffffffffffffffffffffffffffffffffffffffffffffffffffffffffffffffff8203611a7f57611a7e611a16565b5b600182019050919050565b7f596f75277265206e6f7420456c656374696f6e20436f6d6d697373696f6e00005f82015250565b5f611abe601e836118ce565b9150611ac982611a8a565b602082019050919050565b5f6020820190508181035f830152611aeb81611ab2565b9050919050565b7f596f757220416765204973204e6f742056616c696400000000000000000000005f82015250565b5f611b266015836118ce565b9150611b3182611af2565b602082019050919050565b5f6020820190508181035f830152611b5381611b1a565b9050919050565b7f596f7527726520416c72656164792052656769737465726564000000000000005f82015250565b5f611b8e6019836118ce565b9150611b9982611b5a565b602082019050919050565b5f6020820190508181035f830152611bbb81611b82565b9050919050565b7f4e487b71000000000000000000000000000000000000000000000000000000005f52604160045260245ffd5b7f4e487b71000000000000000000000000000000000000000000000000000000005f52602260045260245ffd5b5f6002820490506001821680611c3357607f821691505b602082108103611c4657611c45611bef565b5b50919050565b5f819050815f5260205f209050919050565b5f6020601f8301049050919050565b5f82821b905092915050565b5f60088302611ca87fffffffffffffffffffffffffffffffffffffffffffffffffffffffffffffffff82611c6d565b611cb28683611c6d565b95508019841693508086168417925050509392505050565b5f819050919050565b5f611ced611ce8611ce384611231565b611cca565b611231565b9050919050565b5f819050919050565b611d0683611cd3565b611d1a611d1282611cf4565b848454611c79565b825550505050565b5f90565b611d2e611d22565b611d39818484611cfd565b505050565b5b81811015611d5c57611d515f82611d26565b600181019050611d3f565b5050565b601f821115611da157611d7281611c4c565b611d7b84611c5e565b81016020851015611d8a578190505b611d9e611d9685611c5e565b830182611d3e565b50505b505050565b5f82821c905092915050565b5f611dc15f1984600802611da6565b1980831691505092915050565b5f611dd98383611db2565b9150826002028217905092915050565b611df2826114ef565b67ffffffffffffffff811115611e0b57611e0a611bc2565b5b611e158254611c1c565b611e20828285611d60565b5f60209050601f831160018114611e51575f8415611e3f578287015190505b611e498582611dce565b865550611eb0565b601f198416611e5f86611c4c565b5f5b82811015611e8657848901518255600182019150602085019450602081019050611e61565b86831015611ea35784890151611e9f601f891682611db2565b8355505b6001600288020188555050505b505050505050565b7f596f7527726520616c72656164792052656769737465726564000000000000005f82015250565b5f611eec6019836118ce565b9150611ef782611eb8565b602082019050919050565b5f6020820190508181035f830152611f1981611ee0565b9050919050565b7f596f75277265204e6f7420416c6c6f77656420546f20526567697374657200005f82015250565b5f611f54601e836118ce565b9150611f5f82611f20565b602082019050919050565b5f6020820190508181035f830152611f8181611f48565b9050919050565b7f4d6178696d756d2043616e6469646174652052656769737465726564000000005f82015250565b5f611fbc601c836118ce565b9150611fc782611f88565b602082019050919050565b5f6020820190508181035f830152611fe981611fb0565b9050919050565b5f611ffa82611231565b915061200583611231565b925082820190508082111561201d5761201c611a16565b5b92915050565b5f61202d82611231565b915061203883611231565b92508282039050818111156120505761204f611a16565b5b92915050565b7f4e487b71000000000000000000000000000000000000000000000000000000005f52603260045260245ffdfea26469706673582212209f2fdd35a5cc408df31044e5a3be3c92be1cc8348606ac4be18488bebb18946b64736f6c634300081a0033",
					"opcodes": "PUSH1 0x80 PUSH1 0x40 MSTORE PUSH1 0x1 PUSH1 0x2 SSTORE PUSH1 0x1 PUSH1 0x3 SSTORE CALLVALUE DUP1 ISZERO PUSH1 0x18 JUMPI PUSH0 DUP1 REVERT JUMPDEST POP CALLER PUSH0 DUP1 PUSH2 0x100 EXP DUP2 SLOAD DUP2 PUSH20 0xFFFFFFFFFFFFFFFFFFFFFFFFFFFFFFFFFFFFFFFF MUL NOT AND SWAP1 DUP4 PUSH20 0xFFFFFFFFFFFFFFFFFFFFFFFFFFFFFFFFFFFFFFFF AND MUL OR SWAP1 SSTORE POP PUSH2 0x20B9 DUP1 PUSH2 0x65 PUSH0 CODECOPY PUSH0 RETURN INVALID PUSH1 0x80 PUSH1 0x40 MSTORE CALLVALUE DUP1 ISZERO PUSH2 0xF JUMPI PUSH0 DUP1 REVERT JUMPDEST POP PUSH1 0x4 CALLDATASIZE LT PUSH2 0x9C JUMPI PUSH0 CALLDATALOAD PUSH1 0xE0 SHR DUP1 PUSH4 0x9FA4E440 GT PUSH2 0x64 JUMPI DUP1 PUSH4 0x9FA4E440 EQ PUSH2 0x11C JUMPI DUP1 PUSH4 0xA15A36C7 EQ PUSH2 0x126 JUMPI DUP1 PUSH4 0xB28D92AE EQ PUSH2 0x142 JUMPI DUP1 PUSH4 0xDFBF53AE EQ PUSH2 0x160 JUMPI DUP1 PUSH4 0xFDBC4006 EQ PUSH2 0x17E JUMPI PUSH2 0x9C JUMP JUMPDEST DUP1 PUSH4 0x2C0A3F89 EQ PUSH2 0xA0 JUMPI DUP1 PUSH4 0x581C281C EQ PUSH2 0xBC JUMPI DUP1 PUSH4 0x6CE2CCC0 EQ PUSH2 0xDA JUMPI DUP1 PUSH4 0x81BA732F EQ PUSH2 0xE4 JUMPI DUP1 PUSH4 0x982C777D EQ PUSH2 0x100 JUMPI JUMPDEST PUSH0 DUP1 REVERT JUMPDEST PUSH2 0xBA PUSH1 0x4 DUP1 CALLDATASIZE SUB DUP2 ADD SWAP1 PUSH2 0xB5 SWAP2 SWAP1 PUSH2 0x1264 JUMP JUMPDEST PUSH2 0x19C JUMP JUMPDEST STOP JUMPDEST PUSH2 0xC4 PUSH2 0x344 JUMP JUMPDEST PUSH1 0x40 MLOAD PUSH2 0xD1 SWAP2 SWAP1 PUSH2 0x1315 JUMP JUMPDEST PUSH1 0x40 MLOAD DUP1 SWAP2 SUB SWAP1 RETURN JUMPDEST PUSH2 0xE2 PUSH2 0x38E JUMP JUMPDEST STOP JUMPDEST PUSH2 0xFE PUSH1 0x4 DUP1 CALLDATASIZE SUB DUP2 ADD SWAP1 PUSH2 0xF9 SWAP2 SWAP1 PUSH2 0x13B2 JUMP JUMPDEST PUSH2 0x4E4 JUMP JUMPDEST STOP JUMPDEST PUSH2 0x11A PUSH1 0x4 DUP1 CALLDATASIZE SUB DUP2 ADD SWAP1 PUSH2 0x115 SWAP2 SWAP1 PUSH2 0x1423 JUMP JUMPDEST PUSH2 0x6E6 JUMP JUMPDEST STOP JUMPDEST PUSH2 0x124 PUSH2 0xA1A JUMP JUMPDEST STOP JUMPDEST PUSH2 0x140 PUSH1 0x4 DUP1 CALLDATASIZE SUB DUP2 ADD SWAP1 PUSH2 0x13B SWAP2 SWAP1 PUSH2 0x1264 JUMP JUMPDEST PUSH2 0xAC3 JUMP JUMPDEST STOP JUMPDEST PUSH2 0x14A PUSH2 0xB7A JUMP JUMPDEST PUSH1 0x40 MLOAD PUSH2 0x157 SWAP2 SWAP1 PUSH2 0x170B JUMP JUMPDEST PUSH1 0x40 MLOAD DUP1 SWAP2 SUB SWAP1 RETURN JUMPDEST PUSH2 0x168 PUSH2 0xD83 JUMP JUMPDEST PUSH1 0x40 MLOAD PUSH2 0x175 SWAP2 SWAP1 PUSH2 0x173A JUMP JUMPDEST PUSH1 0x40 MLOAD DUP1 SWAP2 SUB SWAP1 RETURN JUMPDEST PUSH2 0x186 PUSH2 0xDA8 JUMP JUMPDEST PUSH1 0x40 MLOAD PUSH2 0x193 SWAP2 SWAP1 PUSH2 0x18AE JUMP JUMPDEST PUSH1 0x40 MLOAD DUP1 SWAP2 SUB SWAP1 RETURN JUMPDEST PUSH1 0x4 SLOAD TIMESTAMP LT ISZERO DUP1 PUSH2 0x1AF JUMPI POP PUSH1 0x5 SLOAD TIMESTAMP GT ISZERO JUMPDEST PUSH2 0x1EE JUMPI PUSH1 0x40 MLOAD PUSH32 0x8C379A000000000000000000000000000000000000000000000000000000000 DUP2 MSTORE PUSH1 0x4 ADD PUSH2 0x1E5 SWAP1 PUSH2 0x1928 JUMP JUMPDEST PUSH1 0x40 MLOAD DUP1 SWAP2 SUB SWAP1 REVERT JUMPDEST PUSH0 PUSH1 0x7 PUSH0 DUP5 DUP2 MSTORE PUSH1 0x20 ADD SWAP1 DUP2 MSTORE PUSH1 0x20 ADD PUSH0 KECCAK256 PUSH1 0x4 ADD SLOAD EQ PUSH2 0x244 JUMPI PUSH1 0x40 MLOAD PUSH32 0x8C379A000000000000000000000000000000000000000000000000000000000 DUP2 MSTORE PUSH1 0x4 ADD PUSH2 0x23B SWAP1 PUSH2 0x1990 JUMP JUMPDEST PUSH1 0x40 MLOAD DUP1 SWAP2 SUB SWAP1 REVERT JUMPDEST CALLER PUSH20 0xFFFFFFFFFFFFFFFFFFFFFFFFFFFFFFFFFFFFFFFF AND PUSH1 0x7 PUSH0 DUP5 DUP2 MSTORE PUSH1 0x20 ADD SWAP1 DUP2 MSTORE PUSH1 0x20 ADD PUSH0 KECCAK256 PUSH1 0x5 ADD PUSH0 SWAP1 SLOAD SWAP1 PUSH2 0x100 EXP SWAP1 DIV PUSH20 0xFFFFFFFFFFFFFFFFFFFFFFFFFFFFFFFFFFFFFFFF AND PUSH20 0xFFFFFFFFFFFFFFFFFFFFFFFFFFFFFFFFFFFFFFFF AND EQ PUSH2 0x2E5 JUMPI PUSH1 0x40 MLOAD PUSH32 0x8C379A000000000000000000000000000000000000000000000000000000000 DUP2 MSTORE PUSH1 0x4 ADD PUSH2 0x2DC SWAP1 PUSH2 0x19F8 JUMP JUMPDEST PUSH1 0x40 MLOAD DUP1 SWAP2 SUB SWAP1 REVERT JUMPDEST PUSH1 0x1 DUP2 LT ISZERO DUP1 ISZERO PUSH2 0x2F6 JUMPI POP PUSH1 0x3 DUP2 LT JUMPDEST PUSH2 0x2FE JUMPI PUSH0 DUP1 REVERT JUMPDEST DUP1 PUSH1 0x7 PUSH0 DUP5 DUP2 MSTORE PUSH1 0x20 ADD SWAP1 DUP2 MSTORE PUSH1 0x20 ADD PUSH0 KECCAK256 PUSH1 0x4 ADD DUP2 SWAP1 SSTORE POP PUSH1 0x8 PUSH0 DUP3 DUP2 MSTORE PUSH1 0x20 ADD SWAP1 DUP2 MSTORE PUSH1 0x20 ADD PUSH0 KECCAK256 PUSH1 0x6 ADD PUSH0 DUP2 SLOAD DUP1 SWAP3 SWAP2 SWAP1 PUSH2 0x33B SWAP1 PUSH2 0x1A43 JUMP JUMPDEST SWAP2 SWAP1 POP SSTORE POP POP POP JUMP JUMPDEST PUSH0 DUP1 PUSH1 0x4 SLOAD SUB PUSH2 0x356 JUMPI PUSH0 SWAP1 POP PUSH2 0x38B JUMP JUMPDEST TIMESTAMP PUSH1 0x5 SLOAD GT DUP1 ISZERO PUSH2 0x378 JUMPI POP PUSH0 ISZERO ISZERO PUSH1 0x6 PUSH0 SWAP1 SLOAD SWAP1 PUSH2 0x100 EXP SWAP1 DIV PUSH1 0xFF AND ISZERO ISZERO EQ JUMPDEST ISZERO PUSH2 0x386 JUMPI PUSH1 0x1 SWAP1 POP PUSH2 0x38B JUMP JUMPDEST PUSH1 0x2 SWAP1 POP JUMPDEST SWAP1 JUMP JUMPDEST CALLER PUSH20 0xFFFFFFFFFFFFFFFFFFFFFFFFFFFFFFFFFFFFFFFF AND PUSH0 DUP1 SLOAD SWAP1 PUSH2 0x100 EXP SWAP1 DIV PUSH20 0xFFFFFFFFFFFFFFFFFFFFFFFFFFFFFFFFFFFFFFFF AND PUSH20 0xFFFFFFFFFFFFFFFFFFFFFFFFFFFFFFFFFFFFFFFF AND EQ PUSH2 0x41B JUMPI PUSH1 0x40 MLOAD PUSH32 0x8C379A000000000000000000000000000000000000000000000000000000000 DUP2 MSTORE PUSH1 0x4 ADD PUSH2 0x412 SWAP1 PUSH2 0x1AD4 JUMP JUMPDEST PUSH1 0x40 MLOAD DUP1 SWAP2 SUB SWAP1 REVERT JUMPDEST PUSH0 DUP1 PUSH1 0x1 SWAP1 POP JUMPDEST PUSH1 0x3 SLOAD DUP2 LT ISZERO PUSH2 0x4E0 JUMPI DUP2 PUSH1 0x8 PUSH0 DUP4 DUP2 MSTORE PUSH1 0x20 ADD SWAP1 DUP2 MSTORE PUSH1 0x20 ADD PUSH0 KECCAK256 PUSH1 0x6 ADD SLOAD GT ISZERO PUSH2 0x4D3 JUMPI PUSH1 0x8 PUSH0 DUP3 DUP2 MSTORE PUSH1 0x20 ADD SWAP1 DUP2 MSTORE PUSH1 0x20 ADD PUSH0 KECCAK256 PUSH1 0x6 ADD SLOAD SWAP2 POP PUSH1 0x8 PUSH0 DUP3 DUP2 MSTORE PUSH1 0x20 ADD SWAP1 DUP2 MSTORE PUSH1 0x20 ADD PUSH0 KECCAK256 PUSH1 0x5 ADD PUSH0 SWAP1 SLOAD SWAP1 PUSH2 0x100 EXP SWAP1 DIV PUSH20 0xFFFFFFFFFFFFFFFFFFFFFFFFFFFFFFFFFFFFFFFF AND PUSH1 0x1 PUSH0 PUSH2 0x100 EXP DUP2 SLOAD DUP2 PUSH20 0xFFFFFFFFFFFFFFFFFFFFFFFFFFFFFFFFFFFFFFFF MUL NOT AND SWAP1 DUP4 PUSH20 0xFFFFFFFFFFFFFFFFFFFFFFFFFFFFFFFFFFFFFFFF AND MUL OR SWAP1 SSTORE POP JUMPDEST DUP1 DUP1 PUSH1 0x1 ADD SWAP2 POP POP PUSH2 0x422 JUMP JUMPDEST POP POP JUMP JUMPDEST DUP2 PUSH1 0x12 DUP2 LT ISZERO PUSH2 0x529 JUMPI PUSH1 0x40 MLOAD PUSH32 0x8C379A000000000000000000000000000000000000000000000000000000000 DUP2 MSTORE PUSH1 0x4 ADD PUSH2 0x520 SWAP1 PUSH2 0x1B3C JUMP JUMPDEST PUSH1 0x40 MLOAD DUP1 SWAP2 SUB SWAP1 REVERT JUMPDEST PUSH2 0x532 CALLER PUSH2 0x1041 JUMP JUMPDEST PUSH2 0x571 JUMPI PUSH1 0x40 MLOAD PUSH32 0x8C379A000000000000000000000000000000000000000000000000000000000 DUP2 MSTORE PUSH1 0x4 ADD PUSH2 0x568 SWAP1 PUSH2 0x1BA4 JUMP JUMPDEST PUSH1 0x40 MLOAD DUP1 SWAP2 SUB SWAP1 REVERT JUMPDEST PUSH1 0x40 MLOAD DUP1 PUSH1 0xC0 ADD PUSH1 0x40 MSTORE DUP1 DUP7 DUP7 DUP1 DUP1 PUSH1 0x1F ADD PUSH1 0x20 DUP1 SWAP2 DIV MUL PUSH1 0x20 ADD PUSH1 0x40 MLOAD SWAP1 DUP2 ADD PUSH1 0x40 MSTORE DUP1 SWAP4 SWAP3 SWAP2 SWAP1 DUP2 DUP2 MSTORE PUSH1 0x20 ADD DUP4 DUP4 DUP1 DUP3 DUP5 CALLDATACOPY PUSH0 DUP2 DUP5 ADD MSTORE PUSH1 0x1F NOT PUSH1 0x1F DUP3 ADD AND SWAP1 POP DUP1 DUP4 ADD SWAP3 POP POP POP POP POP POP POP DUP2 MSTORE PUSH1 0x20 ADD DUP5 DUP2 MSTORE PUSH1 0x20 ADD PUSH1 0x2 SLOAD DUP2 MSTORE PUSH1 0x20 ADD DUP4 PUSH1 0x3 DUP2 GT ISZERO PUSH2 0x5E6 JUMPI PUSH2 0x5E5 PUSH2 0x12A2 JUMP JUMPDEST JUMPDEST DUP2 MSTORE PUSH1 0x20 ADD PUSH0 DUP2 MSTORE PUSH1 0x20 ADD CALLER PUSH20 0xFFFFFFFFFFFFFFFFFFFFFFFFFFFFFFFFFFFFFFFF AND DUP2 MSTORE POP PUSH1 0x7 PUSH0 PUSH1 0x2 SLOAD DUP2 MSTORE PUSH1 0x20 ADD SWAP1 DUP2 MSTORE PUSH1 0x20 ADD PUSH0 KECCAK256 PUSH0 DUP3 ADD MLOAD DUP2 PUSH0 ADD SWAP1 DUP2 PUSH2 0x631 SWAP2 SWAP1 PUSH2 0x1DE9 JUMP JUMPDEST POP PUSH1 0x20 DUP3 ADD MLOAD DUP2 PUSH1 0x1 ADD SSTORE PUSH1 0x40 DUP3 ADD MLOAD DUP2 PUSH1 0x2 ADD SSTORE PUSH1 0x60 DUP3 ADD MLOAD DUP2 PUSH1 0x3 ADD PUSH0 PUSH2 0x100 EXP DUP2 SLOAD DUP2 PUSH1 0xFF MUL NOT AND SWAP1 DUP4 PUSH1 0x3 DUP2 GT ISZERO PUSH2 0x670 JUMPI PUSH2 0x66F PUSH2 0x12A2 JUMP JUMPDEST JUMPDEST MUL OR SWAP1 SSTORE POP PUSH1 0x80 DUP3 ADD MLOAD DUP2 PUSH1 0x4 ADD SSTORE PUSH1 0xA0 DUP3 ADD MLOAD DUP2 PUSH1 0x5 ADD PUSH0 PUSH2 0x100 EXP DUP2 SLOAD DUP2 PUSH20 0xFFFFFFFFFFFFFFFFFFFFFFFFFFFFFFFFFFFFFFFF MUL NOT AND SWAP1 DUP4 PUSH20 0xFFFFFFFFFFFFFFFFFFFFFFFFFFFFFFFFFFFFFFFF AND MUL OR SWAP1 SSTORE POP SWAP1 POP POP PUSH1 0x2 PUSH0 DUP2 SLOAD DUP1 SWAP3 SWAP2 SWAP1 PUSH2 0x6DA SWAP1 PUSH2 0x1A43 JUMP JUMPDEST SWAP2 SWAP1 POP SSTORE POP POP POP POP POP POP JUMP JUMPDEST DUP2 PUSH1 0x12 DUP2 LT ISZERO PUSH2 0x72B JUMPI PUSH1 0x40 MLOAD PUSH32 0x8C379A000000000000000000000000000000000000000000000000000000000 DUP2 MSTORE PUSH1 0x4 ADD PUSH2 0x722 SWAP1 PUSH2 0x1B3C JUMP JUMPDEST PUSH1 0x40 MLOAD DUP1 SWAP2 SUB SWAP1 REVERT JUMPDEST PUSH2 0x734 CALLER PUSH2 0x10D8 JUMP JUMPDEST PUSH2 0x773 JUMPI PUSH1 0x40 MLOAD PUSH32 0x8C379A000000000000000000000000000000000000000000000000000000000 DUP2 MSTORE PUSH1 0x4 ADD PUSH2 0x76A SWAP1 PUSH2 0x1F02 JUMP JUMPDEST PUSH1 0x40 MLOAD DUP1 SWAP2 SUB SWAP1 REVERT JUMPDEST PUSH0 DUP1 SLOAD SWAP1 PUSH2 0x100 EXP SWAP1 DIV PUSH20 0xFFFFFFFFFFFFFFFFFFFFFFFFFFFFFFFFFFFFFFFF AND PUSH20 0xFFFFFFFFFFFFFFFFFFFFFFFFFFFFFFFFFFFFFFFF AND CALLER PUSH20 0xFFFFFFFFFFFFFFFFFFFFFFFFFFFFFFFFFFFFFFFF AND SUB PUSH2 0x800 JUMPI PUSH1 0x40 MLOAD PUSH32 0x8C379A000000000000000000000000000000000000000000000000000000000 DUP2 MSTORE PUSH1 0x4 ADD PUSH2 0x7F7 SWAP1 PUSH2 0x1F6A JUMP JUMPDEST PUSH1 0x40 MLOAD DUP1 SWAP2 SUB SWAP1 REVERT JUMPDEST PUSH1 0x3 DUP1 SLOAD LT PUSH2 0x844 JUMPI PUSH1 0x40 MLOAD PUSH32 0x8C379A000000000000000000000000000000000000000000000000000000000 DUP2 MSTORE PUSH1 0x4 ADD PUSH2 0x83B SWAP1 PUSH2 0x1FD2 JUMP JUMPDEST PUSH1 0x40 MLOAD DUP1 SWAP2 SUB SWAP1 REVERT JUMPDEST PUSH1 0x40 MLOAD DUP1 PUSH1 0xE0 ADD PUSH1 0x40 MSTORE DUP1 DUP9 DUP9 DUP1 DUP1 PUSH1 0x1F ADD PUSH1 0x20 DUP1 SWAP2 DIV MUL PUSH1 0x20 ADD PUSH1 0x40 MLOAD SWAP1 DUP2 ADD PUSH1 0x40 MSTORE DUP1 SWAP4 SWAP3 SWAP2 SWAP1 DUP2 DUP2 MSTORE PUSH1 0x20 ADD DUP4 DUP4 DUP1 DUP3 DUP5 CALLDATACOPY PUSH0 DUP2 DUP5 ADD MSTORE PUSH1 0x1F NOT PUSH1 0x1F DUP3 ADD AND SWAP1 POP DUP1 DUP4 ADD SWAP3 POP POP POP POP POP POP POP DUP2 MSTORE PUSH1 0x20 ADD DUP7 DUP7 DUP1 DUP1 PUSH1 0x1F ADD PUSH1 0x20 DUP1 SWAP2 DIV MUL PUSH1 0x20 ADD PUSH1 0x40 MLOAD SWAP1 DUP2 ADD PUSH1 0x40 MSTORE DUP1 SWAP4 SWAP3 SWAP2 SWAP1 DUP2 DUP2 MSTORE PUSH1 0x20 ADD DUP4 DUP4 DUP1 DUP3 DUP5 CALLDATACOPY PUSH0 DUP2 DUP5 ADD MSTORE PUSH1 0x1F NOT PUSH1 0x1F DUP3 ADD AND SWAP1 POP DUP1 DUP4 ADD SWAP3 POP POP POP POP POP POP POP DUP2 MSTORE PUSH1 0x20 ADD DUP5 DUP2 MSTORE PUSH1 0x20 ADD DUP4 PUSH1 0x3 DUP2 GT ISZERO PUSH2 0x8FA JUMPI PUSH2 0x8F9 PUSH2 0x12A2 JUMP JUMPDEST JUMPDEST DUP2 MSTORE PUSH1 0x20 ADD PUSH1 0x3 SLOAD DUP2 MSTORE PUSH1 0x20 ADD CALLER PUSH20 0xFFFFFFFFFFFFFFFFFFFFFFFFFFFFFFFFFFFFFFFF AND DUP2 MSTORE PUSH1 0x20 ADD PUSH0 DUP2 MSTORE POP PUSH1 0x8 PUSH0 PUSH1 0x3 SLOAD DUP2 MSTORE PUSH1 0x20 ADD SWAP1 DUP2 MSTORE PUSH1 0x20 ADD PUSH0 KECCAK256 PUSH0 DUP3 ADD MLOAD DUP2 PUSH0 ADD SWAP1 DUP2 PUSH2 0x94D SWAP2 SWAP1 PUSH2 0x1DE9 JUMP JUMPDEST POP PUSH1 0x20 DUP3 ADD MLOAD DUP2 PUSH1 0x1 ADD SWAP1 DUP2 PUSH2 0x963 SWAP2 SWAP1 PUSH2 0x1DE9 JUMP JUMPDEST POP PUSH1 0x40 DUP3 ADD MLOAD DUP2 PUSH1 0x2 ADD SSTORE PUSH1 0x60 DUP3 ADD MLOAD DUP2 PUSH1 0x3 ADD PUSH0 PUSH2 0x100 EXP DUP2 SLOAD DUP2 PUSH1 0xFF MUL NOT AND SWAP1 DUP4 PUSH1 0x3 DUP2 GT ISZERO PUSH2 0x998 JUMPI PUSH2 0x997 PUSH2 0x12A2 JUMP JUMPDEST JUMPDEST MUL OR SWAP1 SSTORE POP PUSH1 0x80 DUP3 ADD MLOAD DUP2 PUSH1 0x4 ADD SSTORE PUSH1 0xA0 DUP3 ADD MLOAD DUP2 PUSH1 0x5 ADD PUSH0 PUSH2 0x100 EXP DUP2 SLOAD DUP2 PUSH20 0xFFFFFFFFFFFFFFFFFFFFFFFFFFFFFFFFFFFFFFFF MUL NOT AND SWAP1 DUP4 PUSH20 0xFFFFFFFFFFFFFFFFFFFFFFFFFFFFFFFFFFFFFFFF AND MUL OR SWAP1 SSTORE POP PUSH1 0xC0 DUP3 ADD MLOAD DUP2 PUSH1 0x6 ADD SSTORE SWAP1 POP POP PUSH1 0x3 PUSH0 DUP2 SLOAD DUP1 SWAP3 SWAP2 SWAP1 PUSH2 0xA0C SWAP1 PUSH2 0x1A43 JUMP JUMPDEST SWAP2 SWAP1 POP SSTORE POP POP POP POP POP POP POP POP JUMP JUMPDEST CALLER PUSH20 0xFFFFFFFFFFFFFFFFFFFFFFFFFFFFFFFFFFFFFFFF AND PUSH0 DUP1 SLOAD SWAP1 PUSH2 0x100 EXP SWAP1 DIV PUSH20 0xFFFFFFFFFFFFFFFFFFFFFFFFFFFFFFFFFFFFFFFF AND PUSH20 0xFFFFFFFFFFFFFFFFFFFFFFFFFFFFFFFFFFFFFFFF AND EQ PUSH2 0xAA7 JUMPI PUSH1 0x40 MLOAD PUSH32 0x8C379A000000000000000000000000000000000000000000000000000000000 DUP2 MSTORE PUSH1 0x4 ADD PUSH2 0xA9E SWAP1 PUSH2 0x1AD4 JUMP JUMPDEST PUSH1 0x40 MLOAD DUP1 SWAP2 SUB SWAP1 REVERT JUMPDEST PUSH1 0x1 PUSH1 0x6 PUSH0 PUSH2 0x100 EXP DUP2 SLOAD DUP2 PUSH1 0xFF MUL NOT AND SWAP1 DUP4 ISZERO ISZERO MUL OR SWAP1 SSTORE POP JUMP JUMPDEST CALLER PUSH20 0xFFFFFFFFFFFFFFFFFFFFFFFFFFFFFFFFFFFFFFFF AND PUSH0 DUP1 SLOAD SWAP1 PUSH2 0x100 EXP SWAP1 DIV PUSH20 0xFFFFFFFFFFFFFFFFFFFFFFFFFFFFFFFFFFFFFFFF AND PUSH20 0xFFFFFFFFFFFFFFFFFFFFFFFFFFFFFFFFFFFFFFFF AND EQ PUSH2 0xB50 JUMPI PUSH1 0x40 MLOAD PUSH32 0x8C379A000000000000000000000000000000000000000000000000000000000 DUP2 MSTORE PUSH1 0x4 ADD PUSH2 0xB47 SWAP1 PUSH2 0x1AD4 JUMP JUMPDEST PUSH1 0x40 MLOAD DUP1 SWAP2 SUB SWAP1 REVERT JUMPDEST DUP2 TIMESTAMP PUSH2 0xB5C SWAP2 SWAP1 PUSH2 0x1FF0 JUMP JUMPDEST PUSH1 0x4 DUP2 SWAP1 SSTORE POP DUP1 PUSH1 0x4 SLOAD PUSH2 0xB70 SWAP2 SWAP1 PUSH2 0x1FF0 JUMP JUMPDEST PUSH1 0x5 DUP2 SWAP1 SSTORE POP POP POP JUMP JUMPDEST PUSH1 0x60 PUSH0 PUSH1 0x1 PUSH1 0x2 SLOAD PUSH2 0xB8C SWAP2 SWAP1 PUSH2 0x2023 JUMP JUMPDEST PUSH8 0xFFFFFFFFFFFFFFFF DUP2 GT ISZERO PUSH2 0xBA5 JUMPI PUSH2 0xBA4 PUSH2 0x1BC2 JUMP JUMPDEST JUMPDEST PUSH1 0x40 MLOAD SWAP1 DUP1 DUP3 MSTORE DUP1 PUSH1 0x20 MUL PUSH1 0x20 ADD DUP3 ADD PUSH1 0x40 MSTORE DUP1 ISZERO PUSH2 0xBDE JUMPI DUP2 PUSH1 0x20 ADD JUMPDEST PUSH2 0xBCB PUSH2 0x1170 JUMP JUMPDEST DUP2 MSTORE PUSH1 0x20 ADD SWAP1 PUSH1 0x1 SWAP1 SUB SWAP1 DUP2 PUSH2 0xBC3 JUMPI SWAP1 POP JUMPDEST POP SWAP1 POP PUSH0 JUMPDEST DUP2 MLOAD DUP2 LT ISZERO PUSH2 0xD7B JUMPI PUSH1 0x7 PUSH0 PUSH1 0x1 DUP4 PUSH2 0xBFC SWAP2 SWAP1 PUSH2 0x1FF0 JUMP JUMPDEST DUP2 MSTORE PUSH1 0x20 ADD SWAP1 DUP2 MSTORE PUSH1 0x20 ADD PUSH0 KECCAK256 PUSH1 0x40 MLOAD DUP1 PUSH1 0xC0 ADD PUSH1 0x40 MSTORE SWAP1 DUP2 PUSH0 DUP3 ADD DUP1 SLOAD PUSH2 0xC23 SWAP1 PUSH2 0x1C1C JUMP JUMPDEST DUP1 PUSH1 0x1F ADD PUSH1 0x20 DUP1 SWAP2 DIV MUL PUSH1 0x20 ADD PUSH1 0x40 MLOAD SWAP1 DUP2 ADD PUSH1 0x40 MSTORE DUP1 SWAP3 SWAP2 SWAP1 DUP2 DUP2 MSTORE PUSH1 0x20 ADD DUP3 DUP1 SLOAD PUSH2 0xC4F SWAP1 PUSH2 0x1C1C JUMP JUMPDEST DUP1 ISZERO PUSH2 0xC9A JUMPI DUP1 PUSH1 0x1F LT PUSH2 0xC71 JUMPI PUSH2 0x100 DUP1 DUP4 SLOAD DIV MUL DUP4 MSTORE SWAP2 PUSH1 0x20 ADD SWAP2 PUSH2 0xC9A JUMP JUMPDEST DUP3 ADD SWAP2 SWAP1 PUSH0 MSTORE PUSH1 0x20 PUSH0 KECCAK256 SWAP1 JUMPDEST DUP2 SLOAD DUP2 MSTORE SWAP1 PUSH1 0x1 ADD SWAP1 PUSH1 0x20 ADD DUP1 DUP4 GT PUSH2 0xC7D JUMPI DUP3 SWAP1 SUB PUSH1 0x1F AND DUP3 ADD SWAP2 JUMPDEST POP POP POP POP POP DUP2 MSTORE PUSH1 0x20 ADD PUSH1 0x1 DUP3 ADD SLOAD DUP2 MSTORE PUSH1 0x20 ADD PUSH1 0x2 DUP3 ADD SLOAD DUP2 MSTORE PUSH1 0x20 ADD PUSH1 0x3 DUP3 ADD PUSH0 SWAP1 SLOAD SWAP1 PUSH2 0x100 EXP SWAP1 DIV PUSH1 0xFF AND PUSH1 0x3 DUP2 GT ISZERO PUSH2 0xCDB JUMPI PUSH2 0xCDA PUSH2 0x12A2 JUMP JUMPDEST JUMPDEST PUSH1 0x3 DUP2 GT ISZERO PUSH2 0xCED JUMPI PUSH2 0xCEC PUSH2 0x12A2 JUMP JUMPDEST JUMPDEST DUP2 MSTORE PUSH1 0x20 ADD PUSH1 0x4 DUP3 ADD SLOAD DUP2 MSTORE PUSH1 0x20 ADD PUSH1 0x5 DUP3 ADD PUSH0 SWAP1 SLOAD SWAP1 PUSH2 0x100 EXP SWAP1 DIV PUSH20 0xFFFFFFFFFFFFFFFFFFFFFFFFFFFFFFFFFFFFFFFF AND PUSH20 0xFFFFFFFFFFFFFFFFFFFFFFFFFFFFFFFFFFFFFFFF AND PUSH20 0xFFFFFFFFFFFFFFFFFFFFFFFFFFFFFFFFFFFFFFFF AND DUP2 MSTORE POP POP DUP3 DUP3 DUP2 MLOAD DUP2 LT PUSH2 0xD63 JUMPI PUSH2 0xD62 PUSH2 0x2056 JUMP JUMPDEST JUMPDEST PUSH1 0x20 MUL PUSH1 0x20 ADD ADD DUP2 SWAP1 MSTORE POP DUP1 DUP1 PUSH1 0x1 ADD SWAP2 POP POP PUSH2 0xBE3 JUMP JUMPDEST POP DUP1 SWAP2 POP POP SWAP1 JUMP JUMPDEST PUSH1 0x1 PUSH0 SWAP1 SLOAD SWAP1 PUSH2 0x100 EXP SWAP1 DIV PUSH20 0xFFFFFFFFFFFFFFFFFFFFFFFFFFFFFFFFFFFFFFFF AND DUP2 JUMP JUMPDEST PUSH1 0x60 PUSH0 PUSH1 0x1 PUSH1 0x3 SLOAD PUSH2 0xDBA SWAP2 SWAP1 PUSH2 0x2023 JUMP JUMPDEST PUSH8 0xFFFFFFFFFFFFFFFF DUP2 GT ISZERO PUSH2 0xDD3 JUMPI PUSH2 0xDD2 PUSH2 0x1BC2 JUMP JUMPDEST JUMPDEST PUSH1 0x40 MLOAD SWAP1 DUP1 DUP3 MSTORE DUP1 PUSH1 0x20 MUL PUSH1 0x20 ADD DUP3 ADD PUSH1 0x40 MSTORE DUP1 ISZERO PUSH2 0xE0C JUMPI DUP2 PUSH1 0x20 ADD JUMPDEST PUSH2 0xDF9 PUSH2 0x11C9 JUMP JUMPDEST DUP2 MSTORE PUSH1 0x20 ADD SWAP1 PUSH1 0x1 SWAP1 SUB SWAP1 DUP2 PUSH2 0xDF1 JUMPI SWAP1 POP JUMPDEST POP SWAP1 POP PUSH0 JUMPDEST DUP2 MLOAD DUP2 LT ISZERO PUSH2 0x1039 JUMPI PUSH1 0x8 PUSH0 PUSH1 0x1 DUP4 PUSH2 0xE2A SWAP2 SWAP1 PUSH2 0x1FF0 JUMP JUMPDEST DUP2 MSTORE PUSH1 0x20 ADD SWAP1 DUP2 MSTORE PUSH1 0x20 ADD PUSH0 KECCAK256 PUSH1 0x40 MLOAD DUP1 PUSH1 0xE0 ADD PUSH1 0x40 MSTORE SWAP1 DUP2 PUSH0 DUP3 ADD DUP1 SLOAD PUSH2 0xE51 SWAP1 PUSH2 0x1C1C JUMP JUMPDEST DUP1 PUSH1 0x1F ADD PUSH1 0x20 DUP1 SWAP2 DIV MUL PUSH1 0x20 ADD PUSH1 0x40 MLOAD SWAP1 DUP2 ADD PUSH1 0x40 MSTORE DUP1 SWAP3 SWAP2 SWAP1 DUP2 DUP2 MSTORE PUSH1 0x20 ADD DUP3 DUP1 SLOAD PUSH2 0xE7D SWAP1 PUSH2 0x1C1C JUMP JUMPDEST DUP1 ISZERO PUSH2 0xEC8 JUMPI DUP1 PUSH1 0x1F LT PUSH2 0xE9F JUMPI PUSH2 0x100 DUP1 DUP4 SLOAD DIV MUL DUP4 MSTORE SWAP2 PUSH1 0x20 ADD SWAP2 PUSH2 0xEC8 JUMP JUMPDEST DUP3 ADD SWAP2 SWAP1 PUSH0 MSTORE PUSH1 0x20 PUSH0 KECCAK256 SWAP1 JUMPDEST DUP2 SLOAD DUP2 MSTORE SWAP1 PUSH1 0x1 ADD SWAP1 PUSH1 0x20 ADD DUP1 DUP4 GT PUSH2 0xEAB JUMPI DUP3 SWAP1 SUB PUSH1 0x1F AND DUP3 ADD SWAP2 JUMPDEST POP POP POP POP POP DUP2 MSTORE PUSH1 0x20 ADD PUSH1 0x1 DUP3 ADD DUP1 SLOAD PUSH2 0xEE1 SWAP1 PUSH2 0x1C1C JUMP JUMPDEST DUP1 PUSH1 0x1F ADD PUSH1 0x20 DUP1 SWAP2 DIV MUL PUSH1 0x20 ADD PUSH1 0x40 MLOAD SWAP1 DUP2 ADD PUSH1 0x40 MSTORE DUP1 SWAP3 SWAP2 SWAP1 DUP2 DUP2 MSTORE PUSH1 0x20 ADD DUP3 DUP1 SLOAD PUSH2 0xF0D SWAP1 PUSH2 0x1C1C JUMP JUMPDEST DUP1 ISZERO PUSH2 0xF58 JUMPI DUP1 PUSH1 0x1F LT PUSH2 0xF2F JUMPI PUSH2 0x100 DUP1 DUP4 SLOAD DIV MUL DUP4 MSTORE SWAP2 PUSH1 0x20 ADD SWAP2 PUSH2 0xF58 JUMP JUMPDEST DUP3 ADD SWAP2 SWAP1 PUSH0 MSTORE PUSH1 0x20 PUSH0 KECCAK256 SWAP1 JUMPDEST DUP2 SLOAD DUP2 MSTORE SWAP1 PUSH1 0x1 ADD SWAP1 PUSH1 0x20 ADD DUP1 DUP4 GT PUSH2 0xF3B JUMPI DUP3 SWAP1 SUB PUSH1 0x1F AND DUP3 ADD SWAP2 JUMPDEST POP POP POP POP POP DUP2 MSTORE PUSH1 0x20 ADD PUSH1 0x2 DUP3 ADD SLOAD DUP2 MSTORE PUSH1 0x20 ADD PUSH1 0x3 DUP3 ADD PUSH0 SWAP1 SLOAD SWAP1 PUSH2 0x100 EXP SWAP1 DIV PUSH1 0xFF AND PUSH1 0x3 DUP2 GT ISZERO PUSH2 0xF8F JUMPI PUSH2 0xF8E PUSH2 0x12A2 JUMP JUMPDEST JUMPDEST PUSH1 0x3 DUP2 GT ISZERO PUSH2 0xFA1 JUMPI PUSH2 0xFA0 PUSH2 0x12A2 JUMP JUMPDEST JUMPDEST DUP2 MSTORE PUSH1 0x20 ADD PUSH1 0x4 DUP3 ADD SLOAD DUP2 MSTORE PUSH1 0x20 ADD PUSH1 0x5 DUP3 ADD PUSH0 SWAP1 SLOAD SWAP1 PUSH2 0x100 EXP SWAP1 DIV PUSH20 0xFFFFFFFFFFFFFFFFFFFFFFFFFFFFFFFFFFFFFFFF AND PUSH20 0xFFFFFFFFFFFFFFFFFFFFFFFFFFFFFFFFFFFFFFFF AND PUSH20 0xFFFFFFFFFFFFFFFFFFFFFFFFFFFFFFFFFFFFFFFF AND DUP2 MSTORE PUSH1 0x20 ADD PUSH1 0x6 DUP3 ADD SLOAD DUP2 MSTORE POP POP DUP3 DUP3 DUP2 MLOAD DUP2 LT PUSH2 0x1021 JUMPI PUSH2 0x1020 PUSH2 0x2056 JUMP JUMPDEST JUMPDEST PUSH1 0x20 MUL PUSH1 0x20 ADD ADD DUP2 SWAP1 MSTORE POP DUP1 DUP1 PUSH1 0x1 ADD SWAP2 POP POP PUSH2 0xE11 JUMP JUMPDEST POP DUP1 SWAP2 POP POP SWAP1 JUMP JUMPDEST PUSH0 DUP1 PUSH0 SWAP1 POP JUMPDEST PUSH1 0x2 SLOAD DUP2 LT ISZERO PUSH2 0x10CD JUMPI DUP3 PUSH20 0xFFFFFFFFFFFFFFFFFFFFFFFFFFFFFFFFFFFFFFFF AND PUSH1 0x7 PUSH0 DUP4 DUP2 MSTORE PUSH1 0x20 ADD SWAP1 DUP2 MSTORE PUSH1 0x20 ADD PUSH0 KECCAK256 PUSH1 0x5 ADD PUSH0 SWAP1 SLOAD SWAP1 PUSH2 0x100 EXP SWAP1 DIV PUSH20 0xFFFFFFFFFFFFFFFFFFFFFFFFFFFFFFFFFFFFFFFF AND PUSH20 0xFFFFFFFFFFFFFFFFFFFFFFFFFFFFFFFFFFFFFFFF AND SUB PUSH2 0x10C0 JUMPI PUSH0 SWAP2 POP POP PUSH2 0x10D3 JUMP JUMPDEST DUP1 DUP1 PUSH1 0x1 ADD SWAP2 POP POP PUSH2 0x1047 JUMP JUMPDEST POP PUSH1 0x1 SWAP1 POP JUMPDEST SWAP2 SWAP1 POP JUMP JUMPDEST PUSH0 DUP1 PUSH1 0x1 SWAP1 POP JUMPDEST PUSH1 0x3 SLOAD DUP2 LT ISZERO PUSH2 0x1165 JUMPI DUP3 PUSH20 0xFFFFFFFFFFFFFFFFFFFFFFFFFFFFFFFFFFFFFFFF AND PUSH1 0x8 PUSH0 DUP4 DUP2 MSTORE PUSH1 0x20 ADD SWAP1 DUP2 MSTORE PUSH1 0x20 ADD PUSH0 KECCAK256 PUSH1 0x5 ADD PUSH0 SWAP1 SLOAD SWAP1 PUSH2 0x100 EXP SWAP1 DIV PUSH20 0xFFFFFFFFFFFFFFFFFFFFFFFFFFFFFFFFFFFFFFFF AND PUSH20 0xFFFFFFFFFFFFFFFFFFFFFFFFFFFFFFFFFFFFFFFF AND SUB PUSH2 0x1158 JUMPI PUSH0 SWAP2 POP POP PUSH2 0x116B JUMP JUMPDEST DUP1 DUP1 PUSH1 0x1 ADD SWAP2 POP POP PUSH2 0x10DF JUMP JUMPDEST POP PUSH1 0x1 SWAP1 POP JUMPDEST SWAP2 SWAP1 POP JUMP JUMPDEST PUSH1 0x40 MLOAD DUP1 PUSH1 0xC0 ADD PUSH1 0x40 MSTORE DUP1 PUSH1 0x60 DUP2 MSTORE PUSH1 0x20 ADD PUSH0 DUP2 MSTORE PUSH1 0x20 ADD PUSH0 DUP2 MSTORE PUSH1 0x20 ADD PUSH0 PUSH1 0x3 DUP2 GT ISZERO PUSH2 0x11A1 JUMPI PUSH2 0x11A0 PUSH2 0x12A2 JUMP JUMPDEST JUMPDEST DUP2 MSTORE PUSH1 0x20 ADD PUSH0 DUP2 MSTORE PUSH1 0x20 ADD PUSH0 PUSH20 0xFFFFFFFFFFFFFFFFFFFFFFFFFFFFFFFFFFFFFFFF AND DUP2 MSTORE POP SWAP1 JUMP JUMPDEST PUSH1 0x40 MLOAD DUP1 PUSH1 0xE0 ADD PUSH1 0x40 MSTORE DUP1 PUSH1 0x60 DUP2 MSTORE PUSH1 0x20 ADD PUSH1 0x60 DUP2 MSTORE PUSH1 0x20 ADD PUSH0 DUP2 MSTORE PUSH1 0x20 ADD PUSH0 PUSH1 0x3 DUP2 GT ISZERO PUSH2 0x11FB JUMPI PUSH2 0x11FA PUSH2 0x12A2 JUMP JUMPDEST JUMPDEST DUP2 MSTORE PUSH1 0x20 ADD PUSH0 DUP2 MSTORE PUSH1 0x20 ADD PUSH0 PUSH20 0xFFFFFFFFFFFFFFFFFFFFFFFFFFFFFFFFFFFFFFFF AND DUP2 MSTORE PUSH1 0x20 ADD PUSH0 DUP2 MSTORE POP SWAP1 JUMP JUMPDEST PUSH0 DUP1 REVERT JUMPDEST PUSH0 DUP1 REVERT JUMPDEST PUSH0 DUP2 SWAP1 POP SWAP2 SWAP1 POP JUMP JUMPDEST PUSH2 0x1243 DUP2 PUSH2 0x1231 JUMP JUMPDEST DUP2 EQ PUSH2 0x124D JUMPI PUSH0 DUP1 REVERT JUMPDEST POP JUMP JUMPDEST PUSH0 DUP2 CALLDATALOAD SWAP1 POP PUSH2 0x125E DUP2 PUSH2 0x123A JUMP JUMPDEST SWAP3 SWAP2 POP POP JUMP JUMPDEST PUSH0 DUP1 PUSH1 0x40 DUP4 DUP6 SUB SLT ISZERO PUSH2 0x127A JUMPI PUSH2 0x1279 PUSH2 0x1229 JUMP JUMPDEST JUMPDEST PUSH0 PUSH2 0x1287 DUP6 DUP3 DUP7 ADD PUSH2 0x1250 JUMP JUMPDEST SWAP3 POP POP PUSH1 0x20 PUSH2 0x1298 DUP6 DUP3 DUP7 ADD PUSH2 0x1250 JUMP JUMPDEST SWAP2 POP POP SWAP3 POP SWAP3 SWAP1 POP JUMP JUMPDEST PUSH32 0x4E487B7100000000000000000000000000000000000000000000000000000000 PUSH0 MSTORE PUSH1 0x21 PUSH1 0x4 MSTORE PUSH1 0x24 PUSH0 REVERT JUMPDEST PUSH1 0x3 DUP2 LT PUSH2 0x12E0 JUMPI PUSH2 0x12DF PUSH2 0x12A2 JUMP JUMPDEST JUMPDEST POP JUMP JUMPDEST PUSH0 DUP2 SWAP1 POP PUSH2 0x12F0 DUP3 PUSH2 0x12CF JUMP JUMPDEST SWAP2 SWAP1 POP JUMP JUMPDEST PUSH0 PUSH2 0x12FF DUP3 PUSH2 0x12E3 JUMP JUMPDEST SWAP1 POP SWAP2 SWAP1 POP JUMP JUMPDEST PUSH2 0x130F DUP2 PUSH2 0x12F5 JUMP JUMPDEST DUP3 MSTORE POP POP JUMP JUMPDEST PUSH0 PUSH1 0x20 DUP3 ADD SWAP1 POP PUSH2 0x1328 PUSH0 DUP4 ADD DUP5 PUSH2 0x1306 JUMP JUMPDEST SWAP3 SWAP2 POP POP JUMP JUMPDEST PUSH0 DUP1 REVERT JUMPDEST PUSH0 DUP1 REVERT JUMPDEST PUSH0 DUP1 REVERT JUMPDEST PUSH0 DUP1 DUP4 PUSH1 0x1F DUP5 ADD SLT PUSH2 0x134F JUMPI PUSH2 0x134E PUSH2 0x132E JUMP JUMPDEST JUMPDEST DUP3 CALLDATALOAD SWAP1 POP PUSH8 0xFFFFFFFFFFFFFFFF DUP2 GT ISZERO PUSH2 0x136C JUMPI PUSH2 0x136B PUSH2 0x1332 JUMP JUMPDEST JUMPDEST PUSH1 0x20 DUP4 ADD SWAP2 POP DUP4 PUSH1 0x1 DUP3 MUL DUP4 ADD GT ISZERO PUSH2 0x1388 JUMPI PUSH2 0x1387 PUSH2 0x1336 JUMP JUMPDEST JUMPDEST SWAP3 POP SWAP3 SWAP1 POP JUMP JUMPDEST PUSH1 0x4 DUP2 LT PUSH2 0x139B JUMPI PUSH0 DUP1 REVERT JUMPDEST POP JUMP JUMPDEST PUSH0 DUP2 CALLDATALOAD SWAP1 POP PUSH2 0x13AC DUP2 PUSH2 0x138F JUMP JUMPDEST SWAP3 SWAP2 POP POP JUMP JUMPDEST PUSH0 DUP1 PUSH0 DUP1 PUSH1 0x60 DUP6 DUP8 SUB SLT ISZERO PUSH2 0x13CA JUMPI PUSH2 0x13C9 PUSH2 0x1229 JUMP JUMPDEST JUMPDEST PUSH0 DUP6 ADD CALLDATALOAD PUSH8 0xFFFFFFFFFFFFFFFF DUP2 GT ISZERO PUSH2 0x13E7 JUMPI PUSH2 0x13E6 PUSH2 0x122D JUMP JUMPDEST JUMPDEST PUSH2 0x13F3 DUP8 DUP3 DUP9 ADD PUSH2 0x133A JUMP JUMPDEST SWAP5 POP SWAP5 POP POP PUSH1 0x20 PUSH2 0x1406 DUP8 DUP3 DUP9 ADD PUSH2 0x1250 JUMP JUMPDEST SWAP3 POP POP PUSH1 0x40 PUSH2 0x1417 DUP8 DUP3 DUP9 ADD PUSH2 0x139E JUMP JUMPDEST SWAP2 POP POP SWAP3 SWAP6 SWAP2 SWAP5 POP SWAP3 POP JUMP JUMPDEST PUSH0 DUP1 PUSH0 DUP1 PUSH0 DUP1 PUSH1 0x80 DUP8 DUP10 SUB SLT ISZERO PUSH2 0x143D JUMPI PUSH2 0x143C PUSH2 0x1229 JUMP JUMPDEST JUMPDEST PUSH0 DUP8 ADD CALLDATALOAD PUSH8 0xFFFFFFFFFFFFFFFF DUP2 GT ISZERO PUSH2 0x145A JUMPI PUSH2 0x1459 PUSH2 0x122D JUMP JUMPDEST JUMPDEST PUSH2 0x1466 DUP10 DUP3 DUP11 ADD PUSH2 0x133A JUMP JUMPDEST SWAP7 POP SWAP7 POP POP PUSH1 0x20 DUP8 ADD CALLDATALOAD PUSH8 0xFFFFFFFFFFFFFFFF DUP2 GT ISZERO PUSH2 0x1489 JUMPI PUSH2 0x1488 PUSH2 0x122D JUMP JUMPDEST JUMPDEST PUSH2 0x1495 DUP10 DUP3 DUP11 ADD PUSH2 0x133A JUMP JUMPDEST SWAP5 POP SWAP5 POP POP PUSH1 0x40 PUSH2 0x14A8 DUP10 DUP3 DUP11 ADD PUSH2 0x1250 JUMP JUMPDEST SWAP3 POP POP PUSH1 0x60 PUSH2 0x14B9 DUP10 DUP3 DUP11 ADD PUSH2 0x139E JUMP JUMPDEST SWAP2 POP POP SWAP3 SWAP6 POP SWAP3 SWAP6 POP SWAP3 SWAP6 JUMP JUMPDEST PUSH0 DUP2 MLOAD SWAP1 POP SWAP2 SWAP1 POP JUMP JUMPDEST PUSH0 DUP3 DUP3 MSTORE PUSH1 0x20 DUP3 ADD SWAP1 POP SWAP3 SWAP2 POP POP JUMP JUMPDEST PUSH0 DUP2 SWAP1 POP PUSH1 0x20 DUP3 ADD SWAP1 POP SWAP2 SWAP1 POP JUMP JUMPDEST PUSH0 DUP2 MLOAD SWAP1 POP SWAP2 SWAP1 POP JUMP JUMPDEST PUSH0 DUP3 DUP3 MSTORE PUSH1 0x20 DUP3 ADD SWAP1 POP SWAP3 SWAP2 POP POP JUMP JUMPDEST DUP3 DUP2 DUP4 MCOPY PUSH0 DUP4 DUP4 ADD MSTORE POP POP POP JUMP JUMPDEST PUSH0 PUSH1 0x1F NOT PUSH1 0x1F DUP4 ADD AND SWAP1 POP SWAP2 SWAP1 POP JUMP JUMPDEST PUSH0 PUSH2 0x1531 DUP3 PUSH2 0x14EF JUMP JUMPDEST PUSH2 0x153B DUP2 DUP6 PUSH2 0x14F9 JUMP JUMPDEST SWAP4 POP PUSH2 0x154B DUP2 DUP6 PUSH1 0x20 DUP7 ADD PUSH2 0x1509 JUMP JUMPDEST PUSH2 0x1554 DUP2 PUSH2 0x1517 JUMP JUMPDEST DUP5 ADD SWAP2 POP POP SWAP3 SWAP2 POP POP JUMP JUMPDEST PUSH2 0x1568 DUP2 PUSH2 0x1231 JUMP JUMPDEST DUP3 MSTORE POP POP JUMP JUMPDEST PUSH1 0x4 DUP2 LT PUSH2 0x157F JUMPI PUSH2 0x157E PUSH2 0x12A2 JUMP JUMPDEST JUMPDEST POP JUMP JUMPDEST PUSH0 DUP2 SWAP1 POP PUSH2 0x158F DUP3 PUSH2 0x156E JUMP JUMPDEST SWAP2 SWAP1 POP JUMP JUMPDEST PUSH0 PUSH2 0x159E DUP3 PUSH2 0x1582 JUMP JUMPDEST SWAP1 POP SWAP2 SWAP1 POP JUMP JUMPDEST PUSH2 0x15AE DUP2 PUSH2 0x1594 JUMP JUMPDEST DUP3 MSTORE POP POP JUMP JUMPDEST PUSH0 PUSH20 0xFFFFFFFFFFFFFFFFFFFFFFFFFFFFFFFFFFFFFFFF DUP3 AND SWAP1 POP SWAP2 SWAP1 POP JUMP JUMPDEST PUSH0 PUSH2 0x15DD DUP3 PUSH2 0x15B4 JUMP JUMPDEST SWAP1 POP SWAP2 SWAP1 POP JUMP JUMPDEST PUSH2 0x15ED DUP2 PUSH2 0x15D3 JUMP JUMPDEST DUP3 MSTORE POP POP JUMP JUMPDEST PUSH0 PUSH1 0xC0 DUP4 ADD PUSH0 DUP4 ADD MLOAD DUP5 DUP3 SUB PUSH0 DUP7 ADD MSTORE PUSH2 0x160D DUP3 DUP3 PUSH2 0x1527 JUMP JUMPDEST SWAP2 POP POP PUSH1 0x20 DUP4 ADD MLOAD PUSH2 0x1622 PUSH1 0x20 DUP7 ADD DUP3 PUSH2 0x155F JUMP JUMPDEST POP PUSH1 0x40 DUP4 ADD MLOAD PUSH2 0x1635 PUSH1 0x40 DUP7 ADD DUP3 PUSH2 0x155F JUMP JUMPDEST POP PUSH1 0x60 DUP4 ADD MLOAD PUSH2 0x1648 PUSH1 0x60 DUP7 ADD DUP3 PUSH2 0x15A5 JUMP JUMPDEST POP PUSH1 0x80 DUP4 ADD MLOAD PUSH2 0x165B PUSH1 0x80 DUP7 ADD DUP3 PUSH2 0x155F JUMP JUMPDEST POP PUSH1 0xA0 DUP4 ADD MLOAD PUSH2 0x166E PUSH1 0xA0 DUP7 ADD DUP3 PUSH2 0x15E4 JUMP JUMPDEST POP DUP1 SWAP2 POP POP SWAP3 SWAP2 POP POP JUMP JUMPDEST PUSH0 PUSH2 0x1684 DUP4 DUP4 PUSH2 0x15F3 JUMP JUMPDEST SWAP1 POP SWAP3 SWAP2 POP POP JUMP JUMPDEST PUSH0 PUSH1 0x20 DUP3 ADD SWAP1 POP SWAP2 SWAP1 POP JUMP JUMPDEST PUSH0 PUSH2 0x16A2 DUP3 PUSH2 0x14C6 JUMP JUMPDEST PUSH2 0x16AC DUP2 DUP6 PUSH2 0x14D0 JUMP JUMPDEST SWAP4 POP DUP4 PUSH1 0x20 DUP3 MUL DUP6 ADD PUSH2 0x16BE DUP6 PUSH2 0x14E0 JUMP JUMPDEST DUP1 PUSH0 JUMPDEST DUP6 DUP2 LT ISZERO PUSH2 0x16F9 JUMPI DUP5 DUP5 SUB DUP10 MSTORE DUP2 MLOAD PUSH2 0x16DA DUP6 DUP3 PUSH2 0x1679 JUMP JUMPDEST SWAP5 POP PUSH2 0x16E5 DUP4 PUSH2 0x168C JUMP JUMPDEST SWAP3 POP PUSH1 0x20 DUP11 ADD SWAP10 POP POP PUSH1 0x1 DUP2 ADD SWAP1 POP PUSH2 0x16C1 JUMP JUMPDEST POP DUP3 SWAP8 POP DUP8 SWAP6 POP POP POP POP POP POP SWAP3 SWAP2 POP POP JUMP JUMPDEST PUSH0 PUSH1 0x20 DUP3 ADD SWAP1 POP DUP2 DUP2 SUB PUSH0 DUP4 ADD MSTORE PUSH2 0x1723 DUP2 DUP5 PUSH2 0x1698 JUMP JUMPDEST SWAP1 POP SWAP3 SWAP2 POP POP JUMP JUMPDEST PUSH2 0x1734 DUP2 PUSH2 0x15D3 JUMP JUMPDEST DUP3 MSTORE POP POP JUMP JUMPDEST PUSH0 PUSH1 0x20 DUP3 ADD SWAP1 POP PUSH2 0x174D PUSH0 DUP4 ADD DUP5 PUSH2 0x172B JUMP JUMPDEST SWAP3 SWAP2 POP POP JUMP JUMPDEST PUSH0 DUP2 MLOAD SWAP1 POP SWAP2 SWAP1 POP JUMP JUMPDEST PUSH0 DUP3 DUP3 MSTORE PUSH1 0x20 DUP3 ADD SWAP1 POP SWAP3 SWAP2 POP POP JUMP JUMPDEST PUSH0 DUP2 SWAP1 POP PUSH1 0x20 DUP3 ADD SWAP1 POP SWAP2 SWAP1 POP JUMP JUMPDEST PUSH0 PUSH1 0xE0 DUP4 ADD PUSH0 DUP4 ADD MLOAD DUP5 DUP3 SUB PUSH0 DUP7 ADD MSTORE PUSH2 0x1796 DUP3 DUP3 PUSH2 0x1527 JUMP JUMPDEST SWAP2 POP POP PUSH1 0x20 DUP4 ADD MLOAD DUP5 DUP3 SUB PUSH1 0x20 DUP7 ADD MSTORE PUSH2 0x17B0 DUP3 DUP3 PUSH2 0x1527 JUMP JUMPDEST SWAP2 POP POP PUSH1 0x40 DUP4 ADD MLOAD PUSH2 0x17C5 PUSH1 0x40 DUP7 ADD DUP3 PUSH2 0x155F JUMP JUMPDEST POP PUSH1 0x60 DUP4 ADD MLOAD PUSH2 0x17D8 PUSH1 0x60 DUP7 ADD DUP3 PUSH2 0x15A5 JUMP JUMPDEST POP PUSH1 0x80 DUP4 ADD MLOAD PUSH2 0x17EB PUSH1 0x80 DUP7 ADD DUP3 PUSH2 0x155F JUMP JUMPDEST POP PUSH1 0xA0 DUP4 ADD MLOAD PUSH2 0x17FE PUSH1 0xA0 DUP7 ADD DUP3 PUSH2 0x15E4 JUMP JUMPDEST POP PUSH1 0xC0 DUP4 ADD MLOAD PUSH2 0x1811 PUSH1 0xC0 DUP7 ADD DUP3 PUSH2 0x155F JUMP JUMPDEST POP DUP1 SWAP2 POP POP SWAP3 SWAP2 POP POP JUMP JUMPDEST PUSH0 PUSH2 0x1827 DUP4 DUP4 PUSH2 0x177C JUMP JUMPDEST SWAP1 POP SWAP3 SWAP2 POP POP JUMP JUMPDEST PUSH0 PUSH1 0x20 DUP3 ADD SWAP1 POP SWAP2 SWAP1 POP JUMP JUMPDEST PUSH0 PUSH2 0x1845 DUP3 PUSH2 0x1753 JUMP JUMPDEST PUSH2 0x184F DUP2 DUP6 PUSH2 0x175D JUMP JUMPDEST SWAP4 POP DUP4 PUSH1 0x20 DUP3 MUL DUP6 ADD PUSH2 0x1861 DUP6 PUSH2 0x176D JUMP JUMPDEST DUP1 PUSH0 JUMPDEST DUP6 DUP2 LT ISZERO PUSH2 0x189C JUMPI DUP5 DUP5 SUB DUP10 MSTORE DUP2 MLOAD PUSH2 0x187D DUP6 DUP3 PUSH2 0x181C JUMP JUMPDEST SWAP5 POP PUSH2 0x1888 DUP4 PUSH2 0x182F JUMP JUMPDEST SWAP3 POP PUSH1 0x20 DUP11 ADD SWAP10 POP POP PUSH1 0x1 DUP2 ADD SWAP1 POP PUSH2 0x1864 JUMP JUMPDEST POP DUP3 SWAP8 POP DUP8 SWAP6 POP POP POP POP POP POP SWAP3 SWAP2 POP POP JUMP JUMPDEST PUSH0 PUSH1 0x20 DUP3 ADD SWAP1 POP DUP2 DUP2 SUB PUSH0 DUP4 ADD MSTORE PUSH2 0x18C6 DUP2 DUP5 PUSH2 0x183B JUMP JUMPDEST SWAP1 POP SWAP3 SWAP2 POP POP JUMP JUMPDEST PUSH0 DUP3 DUP3 MSTORE PUSH1 0x20 DUP3 ADD SWAP1 POP SWAP3 SWAP2 POP POP JUMP JUMPDEST PUSH32 0x566F74696E672074696D6520697320696E76616C696400000000000000000000 PUSH0 DUP3 ADD MSTORE POP JUMP JUMPDEST PUSH0 PUSH2 0x1912 PUSH1 0x16 DUP4 PUSH2 0x18CE JUMP JUMPDEST SWAP2 POP PUSH2 0x191D DUP3 PUSH2 0x18DE JUMP JUMPDEST PUSH1 0x20 DUP3 ADD SWAP1 POP SWAP2 SWAP1 POP JUMP JUMPDEST PUSH0 PUSH1 0x20 DUP3 ADD SWAP1 POP DUP2 DUP2 SUB PUSH0 DUP4 ADD MSTORE PUSH2 0x193F DUP2 PUSH2 0x1906 JUMP JUMPDEST SWAP1 POP SWAP2 SWAP1 POP JUMP JUMPDEST PUSH32 0x596F7527766520616C726561647920766F746564000000000000000000000000 PUSH0 DUP3 ADD MSTORE POP JUMP JUMPDEST PUSH0 PUSH2 0x197A PUSH1 0x14 DUP4 PUSH2 0x18CE JUMP JUMPDEST SWAP2 POP PUSH2 0x1985 DUP3 PUSH2 0x1946 JUMP JUMPDEST PUSH1 0x20 DUP3 ADD SWAP1 POP SWAP2 SWAP1 POP JUMP JUMPDEST PUSH0 PUSH1 0x20 DUP3 ADD SWAP1 POP DUP2 DUP2 SUB PUSH0 DUP4 ADD MSTORE PUSH2 0x19A7 DUP2 PUSH2 0x196E JUMP JUMPDEST SWAP1 POP SWAP2 SWAP1 POP JUMP JUMPDEST PUSH32 0x596F7572204164647265737320697320696E76616C6964000000000000000000 PUSH0 DUP3 ADD MSTORE POP JUMP JUMPDEST PUSH0 PUSH2 0x19E2 PUSH1 0x17 DUP4 PUSH2 0x18CE JUMP JUMPDEST SWAP2 POP PUSH2 0x19ED DUP3 PUSH2 0x19AE JUMP JUMPDEST PUSH1 0x20 DUP3 ADD SWAP1 POP SWAP2 SWAP1 POP JUMP JUMPDEST PUSH0 PUSH1 0x20 DUP3 ADD SWAP1 POP DUP2 DUP2 SUB PUSH0 DUP4 ADD MSTORE PUSH2 0x1A0F DUP2 PUSH2 0x19D6 JUMP JUMPDEST SWAP1 POP SWAP2 SWAP1 POP JUMP JUMPDEST PUSH32 0x4E487B7100000000000000000000000000000000000000000000000000000000 PUSH0 MSTORE PUSH1 0x11 PUSH1 0x4 MSTORE PUSH1 0x24 PUSH0 REVERT JUMPDEST PUSH0 PUSH2 0x1A4D DUP3 PUSH2 0x1231 JUMP JUMPDEST SWAP2 POP PUSH32 0xFFFFFFFFFFFFFFFFFFFFFFFFFFFFFFFFFFFFFFFFFFFFFFFFFFFFFFFFFFFFFFFF DUP3 SUB PUSH2 0x1A7F JUMPI PUSH2 0x1A7E PUSH2 0x1A16 JUMP JUMPDEST JUMPDEST PUSH1 0x1 DUP3 ADD SWAP1 POP SWAP2 SWAP1 POP JUMP JUMPDEST PUSH32 0x596F75277265206E6F7420456C656374696F6E20436F6D6D697373696F6E0000 PUSH0 DUP3 ADD MSTORE POP JUMP JUMPDEST PUSH0 PUSH2 0x1ABE PUSH1 0x1E DUP4 PUSH2 0x18CE JUMP JUMPDEST SWAP2 POP PUSH2 0x1AC9 DUP3 PUSH2 0x1A8A JUMP JUMPDEST PUSH1 0x20 DUP3 ADD SWAP1 POP SWAP2 SWAP1 POP JUMP JUMPDEST PUSH0 PUSH1 0x20 DUP3 ADD SWAP1 POP DUP2 DUP2 SUB PUSH0 DUP4 ADD MSTORE PUSH2 0x1AEB DUP2 PUSH2 0x1AB2 JUMP JUMPDEST SWAP1 POP SWAP2 SWAP1 POP JUMP JUMPDEST PUSH32 0x596F757220416765204973204E6F742056616C69640000000000000000000000 PUSH0 DUP3 ADD MSTORE POP JUMP JUMPDEST PUSH0 PUSH2 0x1B26 PUSH1 0x15 DUP4 PUSH2 0x18CE JUMP JUMPDEST SWAP2 POP PUSH2 0x1B31 DUP3 PUSH2 0x1AF2 JUMP JUMPDEST PUSH1 0x20 DUP3 ADD SWAP1 POP SWAP2 SWAP1 POP JUMP JUMPDEST PUSH0 PUSH1 0x20 DUP3 ADD SWAP1 POP DUP2 DUP2 SUB PUSH0 DUP4 ADD MSTORE PUSH2 0x1B53 DUP2 PUSH2 0x1B1A JUMP JUMPDEST SWAP1 POP SWAP2 SWAP1 POP JUMP JUMPDEST PUSH32 0x596F7527726520416C7265616479205265676973746572656400000000000000 PUSH0 DUP3 ADD MSTORE POP JUMP JUMPDEST PUSH0 PUSH2 0x1B8E PUSH1 0x19 DUP4 PUSH2 0x18CE JUMP JUMPDEST SWAP2 POP PUSH2 0x1B99 DUP3 PUSH2 0x1B5A JUMP JUMPDEST PUSH1 0x20 DUP3 ADD SWAP1 POP SWAP2 SWAP1 POP JUMP JUMPDEST PUSH0 PUSH1 0x20 DUP3 ADD SWAP1 POP DUP2 DUP2 SUB PUSH0 DUP4 ADD MSTORE PUSH2 0x1BBB DUP2 PUSH2 0x1B82 JUMP JUMPDEST SWAP1 POP SWAP2 SWAP1 POP JUMP JUMPDEST PUSH32 0x4E487B7100000000000000000000000000000000000000000000000000000000 PUSH0 MSTORE PUSH1 0x41 PUSH1 0x4 MSTORE PUSH1 0x24 PUSH0 REVERT JUMPDEST PUSH32 0x4E487B7100000000000000000000000000000000000000000000000000000000 PUSH0 MSTORE PUSH1 0x22 PUSH1 0x4 MSTORE PUSH1 0x24 PUSH0 REVERT JUMPDEST PUSH0 PUSH1 0x2 DUP3 DIV SWAP1 POP PUSH1 0x1 DUP3 AND DUP1 PUSH2 0x1C33 JUMPI PUSH1 0x7F DUP3 AND SWAP2 POP JUMPDEST PUSH1 0x20 DUP3 LT DUP2 SUB PUSH2 0x1C46 JUMPI PUSH2 0x1C45 PUSH2 0x1BEF JUMP JUMPDEST JUMPDEST POP SWAP2 SWAP1 POP JUMP JUMPDEST PUSH0 DUP2 SWAP1 POP DUP2 PUSH0 MSTORE PUSH1 0x20 PUSH0 KECCAK256 SWAP1 POP SWAP2 SWAP1 POP JUMP JUMPDEST PUSH0 PUSH1 0x20 PUSH1 0x1F DUP4 ADD DIV SWAP1 POP SWAP2 SWAP1 POP JUMP JUMPDEST PUSH0 DUP3 DUP3 SHL SWAP1 POP SWAP3 SWAP2 POP POP JUMP JUMPDEST PUSH0 PUSH1 0x8 DUP4 MUL PUSH2 0x1CA8 PUSH32 0xFFFFFFFFFFFFFFFFFFFFFFFFFFFFFFFFFFFFFFFFFFFFFFFFFFFFFFFFFFFFFFFF DUP3 PUSH2 0x1C6D JUMP JUMPDEST PUSH2 0x1CB2 DUP7 DUP4 PUSH2 0x1C6D JUMP JUMPDEST SWAP6 POP DUP1 NOT DUP5 AND SWAP4 POP DUP1 DUP7 AND DUP5 OR SWAP3 POP POP POP SWAP4 SWAP3 POP POP POP JUMP JUMPDEST PUSH0 DUP2 SWAP1 POP SWAP2 SWAP1 POP JUMP JUMPDEST PUSH0 PUSH2 0x1CED PUSH2 0x1CE8 PUSH2 0x1CE3 DUP5 PUSH2 0x1231 JUMP JUMPDEST PUSH2 0x1CCA JUMP JUMPDEST PUSH2 0x1231 JUMP JUMPDEST SWAP1 POP SWAP2 SWAP1 POP JUMP JUMPDEST PUSH0 DUP2 SWAP1 POP SWAP2 SWAP1 POP JUMP JUMPDEST PUSH2 0x1D06 DUP4 PUSH2 0x1CD3 JUMP JUMPDEST PUSH2 0x1D1A PUSH2 0x1D12 DUP3 PUSH2 0x1CF4 JUMP JUMPDEST DUP5 DUP5 SLOAD PUSH2 0x1C79 JUMP JUMPDEST DUP3 SSTORE POP POP POP POP JUMP JUMPDEST PUSH0 SWAP1 JUMP JUMPDEST PUSH2 0x1D2E PUSH2 0x1D22 JUMP JUMPDEST PUSH2 0x1D39 DUP2 DUP5 DUP5 PUSH2 0x1CFD JUMP JUMPDEST POP POP POP JUMP JUMPDEST JUMPDEST DUP2 DUP2 LT ISZERO PUSH2 0x1D5C JUMPI PUSH2 0x1D51 PUSH0 DUP3 PUSH2 0x1D26 JUMP JUMPDEST PUSH1 0x1 DUP2 ADD SWAP1 POP PUSH2 0x1D3F JUMP JUMPDEST POP POP JUMP JUMPDEST PUSH1 0x1F DUP3 GT ISZERO PUSH2 0x1DA1 JUMPI PUSH2 0x1D72 DUP2 PUSH2 0x1C4C JUMP JUMPDEST PUSH2 0x1D7B DUP5 PUSH2 0x1C5E JUMP JUMPDEST DUP2 ADD PUSH1 0x20 DUP6 LT ISZERO PUSH2 0x1D8A JUMPI DUP2 SWAP1 POP JUMPDEST PUSH2 0x1D9E PUSH2 0x1D96 DUP6 PUSH2 0x1C5E JUMP JUMPDEST DUP4 ADD DUP3 PUSH2 0x1D3E JUMP JUMPDEST POP POP JUMPDEST POP POP POP JUMP JUMPDEST PUSH0 DUP3 DUP3 SHR SWAP1 POP SWAP3 SWAP2 POP POP JUMP JUMPDEST PUSH0 PUSH2 0x1DC1 PUSH0 NOT DUP5 PUSH1 0x8 MUL PUSH2 0x1DA6 JUMP JUMPDEST NOT DUP1 DUP4 AND SWAP2 POP POP SWAP3 SWAP2 POP POP JUMP JUMPDEST PUSH0 PUSH2 0x1DD9 DUP4 DUP4 PUSH2 0x1DB2 JUMP JUMPDEST SWAP2 POP DUP3 PUSH1 0x2 MUL DUP3 OR SWAP1 POP SWAP3 SWAP2 POP POP JUMP JUMPDEST PUSH2 0x1DF2 DUP3 PUSH2 0x14EF JUMP JUMPDEST PUSH8 0xFFFFFFFFFFFFFFFF DUP2 GT ISZERO PUSH2 0x1E0B JUMPI PUSH2 0x1E0A PUSH2 0x1BC2 JUMP JUMPDEST JUMPDEST PUSH2 0x1E15 DUP3 SLOAD PUSH2 0x1C1C JUMP JUMPDEST PUSH2 0x1E20 DUP3 DUP3 DUP6 PUSH2 0x1D60 JUMP JUMPDEST PUSH0 PUSH1 0x20 SWAP1 POP PUSH1 0x1F DUP4 GT PUSH1 0x1 DUP2 EQ PUSH2 0x1E51 JUMPI PUSH0 DUP5 ISZERO PUSH2 0x1E3F JUMPI DUP3 DUP8 ADD MLOAD SWAP1 POP JUMPDEST PUSH2 0x1E49 DUP6 DUP3 PUSH2 0x1DCE JUMP JUMPDEST DUP7 SSTORE POP PUSH2 0x1EB0 JUMP JUMPDEST PUSH1 0x1F NOT DUP5 AND PUSH2 0x1E5F DUP7 PUSH2 0x1C4C JUMP JUMPDEST PUSH0 JUMPDEST DUP3 DUP2 LT ISZERO PUSH2 0x1E86 JUMPI DUP5 DUP10 ADD MLOAD DUP3 SSTORE PUSH1 0x1 DUP3 ADD SWAP2 POP PUSH1 0x20 DUP6 ADD SWAP5 POP PUSH1 0x20 DUP2 ADD SWAP1 POP PUSH2 0x1E61 JUMP JUMPDEST DUP7 DUP4 LT ISZERO PUSH2 0x1EA3 JUMPI DUP5 DUP10 ADD MLOAD PUSH2 0x1E9F PUSH1 0x1F DUP10 AND DUP3 PUSH2 0x1DB2 JUMP JUMPDEST DUP4 SSTORE POP JUMPDEST PUSH1 0x1 PUSH1 0x2 DUP9 MUL ADD DUP9 SSTORE POP POP POP JUMPDEST POP POP POP POP POP POP JUMP JUMPDEST PUSH32 0x596F7527726520616C7265616479205265676973746572656400000000000000 PUSH0 DUP3 ADD MSTORE POP JUMP JUMPDEST PUSH0 PUSH2 0x1EEC PUSH1 0x19 DUP4 PUSH2 0x18CE JUMP JUMPDEST SWAP2 POP PUSH2 0x1EF7 DUP3 PUSH2 0x1EB8 JUMP JUMPDEST PUSH1 0x20 DUP3 ADD SWAP1 POP SWAP2 SWAP1 POP JUMP JUMPDEST PUSH0 PUSH1 0x20 DUP3 ADD SWAP1 POP DUP2 DUP2 SUB PUSH0 DUP4 ADD MSTORE PUSH2 0x1F19 DUP2 PUSH2 0x1EE0 JUMP JUMPDEST SWAP1 POP SWAP2 SWAP1 POP JUMP JUMPDEST PUSH32 0x596F75277265204E6F7420416C6C6F77656420546F2052656769737465720000 PUSH0 DUP3 ADD MSTORE POP JUMP JUMPDEST PUSH0 PUSH2 0x1F54 PUSH1 0x1E DUP4 PUSH2 0x18CE JUMP JUMPDEST SWAP2 POP PUSH2 0x1F5F DUP3 PUSH2 0x1F20 JUMP JUMPDEST PUSH1 0x20 DUP3 ADD SWAP1 POP SWAP2 SWAP1 POP JUMP JUMPDEST PUSH0 PUSH1 0x20 DUP3 ADD SWAP1 POP DUP2 DUP2 SUB PUSH0 DUP4 ADD MSTORE PUSH2 0x1F81 DUP2 PUSH2 0x1F48 JUMP JUMPDEST SWAP1 POP SWAP2 SWAP1 POP JUMP JUMPDEST PUSH32 0x4D6178696D756D2043616E646964617465205265676973746572656400000000 PUSH0 DUP3 ADD MSTORE POP JUMP JUMPDEST PUSH0 PUSH2 0x1FBC PUSH1 0x1C DUP4 PUSH2 0x18CE JUMP JUMPDEST SWAP2 POP PUSH2 0x1FC7 DUP3 PUSH2 0x1F88 JUMP JUMPDEST PUSH1 0x20 DUP3 ADD SWAP1 POP SWAP2 SWAP1 POP JUMP JUMPDEST PUSH0 PUSH1 0x20 DUP3 ADD SWAP1 POP DUP2 DUP2 SUB PUSH0 DUP4 ADD MSTORE PUSH2 0x1FE9 DUP2 PUSH2 0x1FB0 JUMP JUMPDEST SWAP1 POP SWAP2 SWAP1 POP JUMP JUMPDEST PUSH0 PUSH2 0x1FFA DUP3 PUSH2 0x1231 JUMP JUMPDEST SWAP2 POP PUSH2 0x2005 DUP4 PUSH2 0x1231 JUMP JUMPDEST SWAP3 POP DUP3 DUP3 ADD SWAP1 POP DUP1 DUP3 GT ISZERO PUSH2 0x201D JUMPI PUSH2 0x201C PUSH2 0x1A16 JUMP JUMPDEST JUMPDEST SWAP3 SWAP2 POP POP JUMP JUMPDEST PUSH0 PUSH2 0x202D DUP3 PUSH2 0x1231 JUMP JUMPDEST SWAP2 POP PUSH2 0x2038 DUP4 PUSH2 0x1231 JUMP JUMPDEST SWAP3 POP DUP3 DUP3 SUB SWAP1 POP DUP2 DUP2 GT ISZERO PUSH2 0x2050 JUMPI PUSH2 0x204F PUSH2 0x1A16 JUMP JUMPDEST JUMPDEST SWAP3 SWAP2 POP POP JUMP JUMPDEST PUSH32 0x4E487B7100000000000000000000000000000000000000000000000000000000 PUSH0 MSTORE PUSH1 0x32 PUSH1 0x4 MSTORE PUSH1 0x24 PUSH0 REVERT INVALID LOG2 PUSH5 0x6970667358 0x22 SLT KECCAK256 SWAP16 0x2F 0xDD CALLDATALOAD 0xA5 0xCC BLOCKHASH DUP14 RETURN LT PREVRANDAO 0xE5 LOG3 0xBE EXTCODECOPY SWAP3 0xBE SHR 0xC8 CALLVALUE DUP7 MOD 0xAC 0x4B 0xE1 DUP5 DUP9 0xBE 0xBB XOR SWAP5 PUSH12 0x64736F6C634300081A003300 "
				},
				"gasEstimates": {
					"creation": {
						"codeDepositCost": "1675400",
						"executionCost": "70232",
						"totalCost": "1745632"
					},
					"external": {
						"announceVotingResult()": "infinite",
						"castVote(uint256,uint256)": "infinite",
						"emergencyStopVoting()": "26575",
						"getCandidateList()": "infinite",
						"getVoterList()": "infinite",
						"getVotingStatus()": "6885",
						"registerCandidate(string,string,uint256,uint8)": "infinite",
						"registerVoter(string,uint256,uint8)": "infinite",
						"setVotingPeriod(uint256,uint256)": "infinite",
						"winner()": "2574"
					},
					"internal": {
						"isCandidateNotRegistered(address)": "infinite",
						"isVoterNotRegistered(address)": "infinite"
					}
				},
				"methodIdentifiers": {
					"announceVotingResult()": "6ce2ccc0",
					"castVote(uint256,uint256)": "2c0a3f89",
					"emergencyStopVoting()": "9fa4e440",
					"getCandidateList()": "fdbc4006",
					"getVoterList()": "b28d92ae",
					"getVotingStatus()": "581c281c",
					"registerCandidate(string,string,uint256,uint8)": "982c777d",
					"registerVoter(string,uint256,uint8)": "81ba732f",
					"setVotingPeriod(uint256,uint256)": "a15a36c7",
					"winner()": "dfbf53ae"
				}
			},
			"storageLayout": {
				"storage": [
					{
						"astId": 33,
						"contract": "voting.sol:Vote",
						"label": "electionCommission",
						"offset": 0,
						"slot": "0",
						"type": "t_address"
					},
					{
						"astId": 35,
						"contract": "voting.sol:Vote",
						"label": "winner",
						"offset": 0,
						"slot": "1",
						"type": "t_address"
					},
					{
						"astId": 38,
						"contract": "voting.sol:Vote",
						"label": "nextVoterId",
						"offset": 0,
						"slot": "2",
						"type": "t_uint256"
					},
					{
						"astId": 41,
						"contract": "voting.sol:Vote",
						"label": "nextCandidateId",
						"offset": 0,
						"slot": "3",
						"type": "t_uint256"
					},
					{
						"astId": 43,
						"contract": "voting.sol:Vote",
						"label": "startTime",
						"offset": 0,
						"slot": "4",
						"type": "t_uint256"
					},
					{
						"astId": 45,
						"contract": "voting.sol:Vote",
						"label": "endTime",
						"offset": 0,
						"slot": "5",
						"type": "t_uint256"
					},
					{
						"astId": 47,
						"contract": "voting.sol:Vote",
						"label": "stopVoting",
						"offset": 0,
						"slot": "6",
						"type": "t_bool"
					},
					{
						"astId": 52,
						"contract": "voting.sol:Vote",
						"label": "voterDetails",
						"offset": 0,
						"slot": "7",
						"type": "t_mapping(t_uint256,t_struct(Voter)15_storage)"
					},
					{
						"astId": 57,
						"contract": "voting.sol:Vote",
						"label": "candidateDetails",
						"offset": 0,
						"slot": "8",
						"type": "t_mapping(t_uint256,t_struct(Candidate)31_storage)"
					}
				],
				"types": {
					"t_address": {
						"encoding": "inplace",
						"label": "address",
						"numberOfBytes": "20"
					},
					"t_bool": {
						"encoding": "inplace",
						"label": "bool",
						"numberOfBytes": "1"
					},
					"t_enum(Gender)66": {
						"encoding": "inplace",
						"label": "enum Vote.Gender",
						"numberOfBytes": "1"
					},
					"t_mapping(t_uint256,t_struct(Candidate)31_storage)": {
						"encoding": "mapping",
						"key": "t_uint256",
						"label": "mapping(uint256 => struct Vote.Candidate)",
						"numberOfBytes": "32",
						"value": "t_struct(Candidate)31_storage"
					},
					"t_mapping(t_uint256,t_struct(Voter)15_storage)": {
						"encoding": "mapping",
						"key": "t_uint256",
						"label": "mapping(uint256 => struct Vote.Voter)",
						"numberOfBytes": "32",
						"value": "t_struct(Voter)15_storage"
					},
					"t_string_storage": {
						"encoding": "bytes",
						"label": "string",
						"numberOfBytes": "32"
					},
					"t_struct(Candidate)31_storage": {
						"encoding": "inplace",
						"label": "struct Vote.Candidate",
						"members": [
							{
								"astId": 17,
								"contract": "voting.sol:Vote",
								"label": "name",
								"offset": 0,
								"slot": "0",
								"type": "t_string_storage"
							},
							{
								"astId": 19,
								"contract": "voting.sol:Vote",
								"label": "party",
								"offset": 0,
								"slot": "1",
								"type": "t_string_storage"
							},
							{
								"astId": 21,
								"contract": "voting.sol:Vote",
								"label": "age",
								"offset": 0,
								"slot": "2",
								"type": "t_uint256"
							},
							{
								"astId": 24,
								"contract": "voting.sol:Vote",
								"label": "gender",
								"offset": 0,
								"slot": "3",
								"type": "t_enum(Gender)66"
							},
							{
								"astId": 26,
								"contract": "voting.sol:Vote",
								"label": "candidateId",
								"offset": 0,
								"slot": "4",
								"type": "t_uint256"
							},
							{
								"astId": 28,
								"contract": "voting.sol:Vote",
								"label": "candidateAddress",
								"offset": 0,
								"slot": "5",
								"type": "t_address"
							},
							{
								"astId": 30,
								"contract": "voting.sol:Vote",
								"label": "votes",
								"offset": 0,
								"slot": "6",
								"type": "t_uint256"
							}
						],
						"numberOfBytes": "224"
					},
					"t_struct(Voter)15_storage": {
						"encoding": "inplace",
						"label": "struct Vote.Voter",
						"members": [
							{
								"astId": 3,
								"contract": "voting.sol:Vote",
								"label": "name",
								"offset": 0,
								"slot": "0",
								"type": "t_string_storage"
							},
							{
								"astId": 5,
								"contract": "voting.sol:Vote",
								"label": "age",
								"offset": 0,
								"slot": "1",
								"type": "t_uint256"
							},
							{
								"astId": 7,
								"contract": "voting.sol:Vote",
								"label": "voterId",
								"offset": 0,
								"slot": "2",
								"type": "t_uint256"
							},
							{
								"astId": 10,
								"contract": "voting.sol:Vote",
								"label": "gender",
								"offset": 0,
								"slot": "3",
								"type": "t_enum(Gender)66"
							},
							{
								"astId": 12,
								"contract": "voting.sol:Vote",
								"label": "voteCandidateId",
								"offset": 0,
								"slot": "4",
								"type": "t_uint256"
							},
							{
								"astId": 14,
								"contract": "voting.sol:Vote",
								"label": "voterAddress",
								"offset": 0,
								"slot": "5",
								"type": "t_address"
							}
						],
						"numberOfBytes": "192"
					},
					"t_uint256": {
						"encoding": "inplace",
						"label": "uint256",
						"numberOfBytes": "32"
					}
				}
			},
			"userdoc": {
				"kind": "user",
				"methods": {},
				"version": 1
			}
		}
	}
}