{
	"Will Contract/willContract.sol": {
		"WillContract": {
			"abi": [
				{
					"inputs": [
						{
							"internalType": "address",
							"name": "_child",
							"type": "address"
						}
					],
					"stateMutability": "nonpayable",
					"type": "constructor"
				},
				{
					"inputs": [],
					"name": "child",
					"outputs": [
						{
							"internalType": "address",
							"name": "",
							"type": "address"
						}
					],
					"stateMutability": "view",
					"type": "function"
				},
				{
					"inputs": [],
					"name": "depositEther",
					"outputs": [],
					"stateMutability": "payable",
					"type": "function"
				},
				{
					"inputs": [],
					"name": "lastcall",
					"outputs": [
						{
							"internalType": "uint256",
							"name": "",
							"type": "uint256"
						}
					],
					"stateMutability": "view",
					"type": "function"
				},
				{
					"inputs": [],
					"name": "parent",
					"outputs": [
						{
							"internalType": "address",
							"name": "",
							"type": "address"
						}
					],
					"stateMutability": "view",
					"type": "function"
				},
				{
					"inputs": [],
					"name": "pingByOwner",
					"outputs": [
						{
							"internalType": "uint256",
							"name": "",
							"type": "uint256"
						}
					],
					"stateMutability": "nonpayable",
					"type": "function"
				},
				{
					"inputs": [],
					"name": "totalAmount",
					"outputs": [
						{
							"internalType": "uint256",
							"name": "",
							"type": "uint256"
						}
					],
					"stateMutability": "view",
					"type": "function"
				},
				{
					"inputs": [],
					"name": "withdrawEther",
					"outputs": [],
					"stateMutability": "payable",
					"type": "function"
				}
			],
			"devdoc": {
				"kind": "dev",
				"methods": {},
				"version": 1
			},
			"evm": {
				"assembly": "    /* \"Will Contract/willContract.sol\":61:931  contract WillContract {... */\n  mstore(0x40, 0x80)\n    /* \"Will Contract/willContract.sol\":202:354  constructor(address _child) {... */\n  callvalue\n  dup1\n  iszero\n  tag_1\n  jumpi\n  0x00\n  dup1\n  revert\ntag_1:\n  pop\n  mload(0x40)\n  sub(codesize, bytecodeSize)\n  dup1\n  bytecodeSize\n  dup4\n  codecopy\n  dup2\n  dup2\n  add\n  0x40\n  mstore\n  dup2\n  add\n  swap1\n  tag_2\n  swap2\n  swap1\n  tag_3\n  jump\t// in\ntag_2:\n    /* \"Will Contract/willContract.sol\":259:274  block.timestamp */\n  timestamp\n    /* \"Will Contract/willContract.sol\":241:256  deployTimeStamp */\n  0x02\n    /* \"Will Contract/willContract.sol\":241:274  deployTimeStamp = block.timestamp */\n  dup2\n  swap1\n  sstore\n  pop\n    /* \"Will Contract/willContract.sol\":309:319  msg.sender */\n  caller\n    /* \"Will Contract/willContract.sol\":300:306  parent */\n  0x00\n  dup1\n    /* \"Will Contract/willContract.sol\":300:319  parent = msg.sender */\n  0x0100\n  exp\n  dup2\n  sload\n  dup2\n  0xffffffffffffffffffffffffffffffffffffffff\n  mul\n  not\n  and\n  swap1\n  dup4\n  0xffffffffffffffffffffffffffffffffffffffff\n  and\n  mul\n  or\n  swap1\n  sstore\n  pop\n    /* \"Will Contract/willContract.sol\":338:344  _child */\n  dup1\n    /* \"Will Contract/willContract.sol\":330:335  child */\n  0x01\n  0x00\n    /* \"Will Contract/willContract.sol\":330:344  child = _child */\n  0x0100\n  exp\n  dup2\n  sload\n  dup2\n  0xffffffffffffffffffffffffffffffffffffffff\n  mul\n  not\n  and\n  swap1\n  dup4\n  0xffffffffffffffffffffffffffffffffffffffff\n  and\n  mul\n  or\n  swap1\n  sstore\n  pop\n    /* \"Will Contract/willContract.sol\":202:354  constructor(address _child) {... */\n  pop\n    /* \"Will Contract/willContract.sol\":61:931  contract WillContract {... */\n  jump(tag_6)\n    /* \"#utility.yul\":88:205   */\ntag_8:\n    /* \"#utility.yul\":197:198   */\n  0x00\n    /* \"#utility.yul\":194:195   */\n  dup1\n    /* \"#utility.yul\":187:199   */\n  revert\n    /* \"#utility.yul\":334:460   */\ntag_10:\n    /* \"#utility.yul\":371:378   */\n  0x00\n    /* \"#utility.yul\":411:453   */\n  0xffffffffffffffffffffffffffffffffffffffff\n    /* \"#utility.yul\":404:409   */\n  dup3\n    /* \"#utility.yul\":400:454   */\n  and\n    /* \"#utility.yul\":389:454   */\n  swap1\n  pop\n    /* \"#utility.yul\":334:460   */\n  swap2\n  swap1\n  pop\n  jump\t// out\n    /* \"#utility.yul\":466:562   */\ntag_11:\n    /* \"#utility.yul\":503:510   */\n  0x00\n    /* \"#utility.yul\":532:556   */\n  tag_20\n    /* \"#utility.yul\":550:555   */\n  dup3\n    /* \"#utility.yul\":532:556   */\n  tag_10\n  jump\t// in\ntag_20:\n    /* \"#utility.yul\":521:556   */\n  swap1\n  pop\n    /* \"#utility.yul\":466:562   */\n  swap2\n  swap1\n  pop\n  jump\t// out\n    /* \"#utility.yul\":568:690   */\ntag_12:\n    /* \"#utility.yul\":641:665   */\n  tag_22\n    /* \"#utility.yul\":659:664   */\n  dup2\n    /* \"#utility.yul\":641:665   */\n  tag_11\n  jump\t// in\ntag_22:\n    /* \"#utility.yul\":634:639   */\n  dup2\n    /* \"#utility.yul\":631:666   */\n  eq\n    /* \"#utility.yul\":621:684   */\n  tag_23\n  jumpi\n    /* \"#utility.yul\":680:681   */\n  0x00\n    /* \"#utility.yul\":677:678   */\n  dup1\n    /* \"#utility.yul\":670:682   */\n  revert\n    /* \"#utility.yul\":621:684   */\ntag_23:\n    /* \"#utility.yul\":568:690   */\n  pop\n  jump\t// out\n    /* \"#utility.yul\":696:839   */\ntag_13:\n    /* \"#utility.yul\":753:758   */\n  0x00\n    /* \"#utility.yul\":784:790   */\n  dup2\n    /* \"#utility.yul\":778:791   */\n  mload\n    /* \"#utility.yul\":769:791   */\n  swap1\n  pop\n    /* \"#utility.yul\":800:833   */\n  tag_25\n    /* \"#utility.yul\":827:832   */\n  dup2\n    /* \"#utility.yul\":800:833   */\n  tag_12\n  jump\t// in\ntag_25:\n    /* \"#utility.yul\":696:839   */\n  swap3\n  swap2\n  pop\n  pop\n  jump\t// out\n    /* \"#utility.yul\":845:1196   */\ntag_3:\n    /* \"#utility.yul\":915:921   */\n  0x00\n    /* \"#utility.yul\":964:966   */\n  0x20\n    /* \"#utility.yul\":952:961   */\n  dup3\n    /* \"#utility.yul\":943:950   */\n  dup5\n    /* \"#utility.yul\":939:962   */\n  sub\n    /* \"#utility.yul\":935:967   */\n  slt\n    /* \"#utility.yul\":932:1051   */\n  iszero\n  tag_27\n  jumpi\n    /* \"#utility.yul\":970:1049   */\n  tag_28\n  tag_8\n  jump\t// in\ntag_28:\n    /* \"#utility.yul\":932:1051   */\ntag_27:\n    /* \"#utility.yul\":1090:1091   */\n  0x00\n    /* \"#utility.yul\":1115:1179   */\n  tag_29\n    /* \"#utility.yul\":1171:1178   */\n  dup5\n    /* \"#utility.yul\":1162:1168   */\n  dup3\n    /* \"#utility.yul\":1151:1160   */\n  dup6\n    /* \"#utility.yul\":1147:1169   */\n  add\n    /* \"#utility.yul\":1115:1179   */\n  tag_13\n  jump\t// in\ntag_29:\n    /* \"#utility.yul\":1105:1179   */\n  swap2\n  pop\n    /* \"#utility.yul\":1061:1189   */\n  pop\n    /* \"#utility.yul\":845:1196   */\n  swap3\n  swap2\n  pop\n  pop\n  jump\t// out\n    /* \"Will Contract/willContract.sol\":61:931  contract WillContract {... */\ntag_6:\n  dataSize(sub_0)\n  dup1\n  dataOffset(sub_0)\n  0x00\n  codecopy\n  0x00\n  return\nstop\n\nsub_0: assembly {\n        /* \"Will Contract/willContract.sol\":61:931  contract WillContract {... */\n      mstore(0x40, 0x80)\n      jumpi(tag_1, lt(calldatasize, 0x04))\n      shr(0xe0, calldataload(0x00))\n      dup1\n      0x7362377b\n      gt\n      tag_9\n      jumpi\n      dup1\n      0x7362377b\n      eq\n      tag_5\n      jumpi\n      dup1\n      0x98ea5fca\n      eq\n      tag_6\n      jumpi\n      dup1\n      0xb718e316\n      eq\n      tag_7\n      jumpi\n      dup1\n      0xe7e4cc63\n      eq\n      tag_8\n      jumpi\n      jump(tag_1)\n    tag_9:\n      dup1\n      0x1a39d8ef\n      eq\n      tag_2\n      jumpi\n      dup1\n      0x237b5e96\n      eq\n      tag_3\n      jumpi\n      dup1\n      0x60f96a8f\n      eq\n      tag_4\n      jumpi\n    tag_1:\n      0x00\n      dup1\n      revert\n        /* \"Will Contract/willContract.sol\":172:195  uint public totalAmount */\n    tag_2:\n      callvalue\n      dup1\n      iszero\n      tag_10\n      jumpi\n      0x00\n      dup1\n      revert\n    tag_10:\n      pop\n      tag_11\n      tag_12\n      jump\t// in\n    tag_11:\n      mload(0x40)\n      tag_13\n      swap2\n      swap1\n      tag_14\n      jump\t// in\n    tag_13:\n      mload(0x40)\n      dup1\n      swap2\n      sub\n      swap1\n      return\n        /* \"Will Contract/willContract.sol\":118:138  address public child */\n    tag_3:\n      callvalue\n      dup1\n      iszero\n      tag_15\n      jumpi\n      0x00\n      dup1\n      revert\n    tag_15:\n      pop\n      tag_16\n      tag_17\n      jump\t// in\n    tag_16:\n      mload(0x40)\n      tag_18\n      swap2\n      swap1\n      tag_19\n      jump\t// in\n    tag_18:\n      mload(0x40)\n      dup1\n      swap2\n      sub\n      swap1\n      return\n        /* \"Will Contract/willContract.sol\":90:111  address public parent */\n    tag_4:\n      callvalue\n      dup1\n      iszero\n      tag_20\n      jumpi\n      0x00\n      dup1\n      revert\n    tag_20:\n      pop\n      tag_21\n      tag_22\n      jump\t// in\n    tag_21:\n      mload(0x40)\n      tag_23\n      swap2\n      swap1\n      tag_19\n      jump\t// in\n    tag_23:\n      mload(0x40)\n      dup1\n      swap2\n      sub\n      swap1\n      return\n        /* \"Will Contract/willContract.sol\":514:768  function withdrawEther() public payable  {... */\n    tag_5:\n      tag_24\n      tag_25\n      jump\t// in\n    tag_24:\n      stop\n        /* \"Will Contract/willContract.sol\":360:506  function depositEther( ) public payable {... */\n    tag_6:\n      tag_26\n      tag_27\n      jump\t// in\n    tag_26:\n      stop\n        /* \"Will Contract/willContract.sol\":804:926  function pingByOwner() public returns(uint256) {... */\n    tag_7:\n      callvalue\n      dup1\n      iszero\n      tag_28\n      jumpi\n      0x00\n      dup1\n      revert\n    tag_28:\n      pop\n      tag_29\n      tag_30\n      jump\t// in\n    tag_29:\n      mload(0x40)\n      tag_31\n      swap2\n      swap1\n      tag_14\n      jump\t// in\n    tag_31:\n      mload(0x40)\n      dup1\n      swap2\n      sub\n      swap1\n      return\n        /* \"Will Contract/willContract.sol\":777:797  uint public lastcall */\n    tag_8:\n      callvalue\n      dup1\n      iszero\n      tag_32\n      jumpi\n      0x00\n      dup1\n      revert\n    tag_32:\n      pop\n      tag_33\n      tag_34\n      jump\t// in\n    tag_33:\n      mload(0x40)\n      tag_35\n      swap2\n      swap1\n      tag_14\n      jump\t// in\n    tag_35:\n      mload(0x40)\n      dup1\n      swap2\n      sub\n      swap1\n      return\n        /* \"Will Contract/willContract.sol\":172:195  uint public totalAmount */\n    tag_12:\n      sload(0x03)\n      dup2\n      jump\t// out\n        /* \"Will Contract/willContract.sol\":118:138  address public child */\n    tag_17:\n      0x01\n      0x00\n      swap1\n      sload\n      swap1\n      0x0100\n      exp\n      swap1\n      div\n      0xffffffffffffffffffffffffffffffffffffffff\n      and\n      dup2\n      jump\t// out\n        /* \"Will Contract/willContract.sol\":90:111  address public parent */\n    tag_22:\n      0x00\n      dup1\n      sload\n      swap1\n      0x0100\n      exp\n      swap1\n      div\n      0xffffffffffffffffffffffffffffffffffffffff\n      and\n      dup2\n      jump\t// out\n        /* \"Will Contract/willContract.sol\":514:768  function withdrawEther() public payable  {... */\n    tag_25:\n        /* \"Will Contract/willContract.sol\":588:593  child */\n      0x01\n      0x00\n      swap1\n      sload\n      swap1\n      0x0100\n      exp\n      swap1\n      div\n      0xffffffffffffffffffffffffffffffffffffffff\n      and\n        /* \"Will Contract/willContract.sol\":574:593  msg.sender == child */\n      0xffffffffffffffffffffffffffffffffffffffff\n      and\n        /* \"Will Contract/willContract.sol\":574:584  msg.sender */\n      caller\n        /* \"Will Contract/willContract.sol\":574:593  msg.sender == child */\n      0xffffffffffffffffffffffffffffffffffffffff\n      and\n      eq\n        /* \"Will Contract/willContract.sol\":566:613  require(msg.sender == child,\"You're not child\") */\n      tag_37\n      jumpi\n      mload(0x40)\n      0x08c379a000000000000000000000000000000000000000000000000000000000\n      dup2\n      mstore\n      0x04\n      add\n      tag_38\n      swap1\n      tag_39\n      jump\t// in\n    tag_38:\n      mload(0x40)\n      dup1\n      swap2\n      sub\n      swap1\n      revert\n    tag_37:\n        /* \"Will Contract/willContract.sol\":652:654  60 */\n      0x3c\n        /* \"Will Contract/willContract.sol\":643:651  lastcall */\n      sload(0x04)\n        /* \"Will Contract/willContract.sol\":643:654  lastcall+60 */\n      tag_40\n      swap2\n      swap1\n      tag_41\n      jump\t// in\n    tag_40:\n        /* \"Will Contract/willContract.sol\":632:640  lastcall */\n      sload(0x04)\n        /* \"Will Contract/willContract.sol\":632:654  lastcall<= lastcall+60 */\n      gt\n      iszero\n        /* \"Will Contract/willContract.sol\":624:682  require(lastcall<= lastcall+60,\"Time of ping is in limit\") */\n      tag_42\n      jumpi\n      mload(0x40)\n      0x08c379a000000000000000000000000000000000000000000000000000000000\n      dup2\n      mstore\n      0x04\n      add\n      tag_43\n      swap1\n      tag_44\n      jump\t// in\n    tag_43:\n      mload(0x40)\n      dup1\n      swap2\n      sub\n      swap1\n      revert\n    tag_42:\n        /* \"Will Contract/willContract.sol\":701:711  msg.sender */\n      caller\n        /* \"Will Contract/willContract.sol\":693:721  payable(msg.sender).transfer */\n      0xffffffffffffffffffffffffffffffffffffffff\n      and\n        /* \"Will Contract/willContract.sol\":693:734  payable(msg.sender).transfer(totalAmount) */\n      0x08fc\n        /* \"Will Contract/willContract.sol\":722:733  totalAmount */\n      sload(0x03)\n        /* \"Will Contract/willContract.sol\":693:734  payable(msg.sender).transfer(totalAmount) */\n      swap1\n      dup2\n      iszero\n      mul\n      swap1\n      mload(0x40)\n      0x00\n      mload(0x40)\n      dup1\n      dup4\n      sub\n      dup2\n      dup6\n      dup9\n      dup9\n      call\n      swap4\n      pop\n      pop\n      pop\n      pop\n      iszero\n      dup1\n      iszero\n      tag_46\n      jumpi\n      returndatasize\n      0x00\n      dup1\n      returndatacopy\n      revert(0x00, returndatasize)\n    tag_46:\n      pop\n        /* \"Will Contract/willContract.sol\":759:760  0 */\n      0x00\n        /* \"Will Contract/willContract.sol\":745:756  totalAmount */\n      0x03\n        /* \"Will Contract/willContract.sol\":745:760  totalAmount = 0 */\n      dup2\n      swap1\n      sstore\n      pop\n        /* \"Will Contract/willContract.sol\":514:768  function withdrawEther() public payable  {... */\n      jump\t// out\n        /* \"Will Contract/willContract.sol\":360:506  function depositEther( ) public payable {... */\n    tag_27:\n        /* \"Will Contract/willContract.sol\":433:439  parent */\n      0x00\n      dup1\n      sload\n      swap1\n      0x0100\n      exp\n      swap1\n      div\n      0xffffffffffffffffffffffffffffffffffffffff\n      and\n        /* \"Will Contract/willContract.sol\":419:439  msg.sender == parent */\n      0xffffffffffffffffffffffffffffffffffffffff\n      and\n        /* \"Will Contract/willContract.sol\":419:429  msg.sender */\n      caller\n        /* \"Will Contract/willContract.sol\":419:439  msg.sender == parent */\n      0xffffffffffffffffffffffffffffffffffffffff\n      and\n      eq\n        /* \"Will Contract/willContract.sol\":411:463  require(msg.sender == parent,\"You can't send money\") */\n      tag_48\n      jumpi\n      mload(0x40)\n      0x08c379a000000000000000000000000000000000000000000000000000000000\n      dup2\n      mstore\n      0x04\n      add\n      tag_49\n      swap1\n      tag_50\n      jump\t// in\n    tag_49:\n      mload(0x40)\n      dup1\n      swap2\n      sub\n      swap1\n      revert\n    tag_48:\n        /* \"Will Contract/willContract.sol\":489:498  msg.value */\n      callvalue\n        /* \"Will Contract/willContract.sol\":474:485  totalAmount */\n      0x03\n      0x00\n        /* \"Will Contract/willContract.sol\":474:498  totalAmount += msg.value */\n      dup3\n      dup3\n      sload\n      tag_51\n      swap2\n      swap1\n      tag_41\n      jump\t// in\n    tag_51:\n      swap3\n      pop\n      pop\n      dup2\n      swap1\n      sstore\n      pop\n        /* \"Will Contract/willContract.sol\":360:506  function depositEther( ) public payable {... */\n      jump\t// out\n        /* \"Will Contract/willContract.sol\":804:926  function pingByOwner() public returns(uint256) {... */\n    tag_30:\n        /* \"Will Contract/willContract.sol\":842:849  uint256 */\n      0x00\n        /* \"Will Contract/willContract.sol\":873:888  block.timestamp */\n      timestamp\n        /* \"Will Contract/willContract.sol\":862:870  lastcall */\n      0x04\n        /* \"Will Contract/willContract.sol\":862:888  lastcall = block.timestamp */\n      dup2\n      swap1\n      sstore\n      pop\n        /* \"Will Contract/willContract.sol\":906:914  lastcall */\n      sload(0x04)\n        /* \"Will Contract/willContract.sol\":899:914  return lastcall */\n      swap1\n      pop\n        /* \"Will Contract/willContract.sol\":804:926  function pingByOwner() public returns(uint256) {... */\n      swap1\n      jump\t// out\n        /* \"Will Contract/willContract.sol\":777:797  uint public lastcall */\n    tag_34:\n      sload(0x04)\n      dup2\n      jump\t// out\n        /* \"#utility.yul\":7:84   */\n    tag_53:\n        /* \"#utility.yul\":44:51   */\n      0x00\n        /* \"#utility.yul\":73:78   */\n      dup2\n        /* \"#utility.yul\":62:78   */\n      swap1\n      pop\n        /* \"#utility.yul\":7:84   */\n      swap2\n      swap1\n      pop\n      jump\t// out\n        /* \"#utility.yul\":90:208   */\n    tag_54:\n        /* \"#utility.yul\":177:201   */\n      tag_69\n        /* \"#utility.yul\":195:200   */\n      dup2\n        /* \"#utility.yul\":177:201   */\n      tag_53\n      jump\t// in\n    tag_69:\n        /* \"#utility.yul\":172:175   */\n      dup3\n        /* \"#utility.yul\":165:202   */\n      mstore\n        /* \"#utility.yul\":90:208   */\n      pop\n      pop\n      jump\t// out\n        /* \"#utility.yul\":214:436   */\n    tag_14:\n        /* \"#utility.yul\":307:311   */\n      0x00\n        /* \"#utility.yul\":345:347   */\n      0x20\n        /* \"#utility.yul\":334:343   */\n      dup3\n        /* \"#utility.yul\":330:348   */\n      add\n        /* \"#utility.yul\":322:348   */\n      swap1\n      pop\n        /* \"#utility.yul\":358:429   */\n      tag_71\n        /* \"#utility.yul\":426:427   */\n      0x00\n        /* \"#utility.yul\":415:424   */\n      dup4\n        /* \"#utility.yul\":411:428   */\n      add\n        /* \"#utility.yul\":402:408   */\n      dup5\n        /* \"#utility.yul\":358:429   */\n      tag_54\n      jump\t// in\n    tag_71:\n        /* \"#utility.yul\":214:436   */\n      swap3\n      swap2\n      pop\n      pop\n      jump\t// out\n        /* \"#utility.yul\":442:568   */\n    tag_55:\n        /* \"#utility.yul\":479:486   */\n      0x00\n        /* \"#utility.yul\":519:561   */\n      0xffffffffffffffffffffffffffffffffffffffff\n        /* \"#utility.yul\":512:517   */\n      dup3\n        /* \"#utility.yul\":508:562   */\n      and\n        /* \"#utility.yul\":497:562   */\n      swap1\n      pop\n        /* \"#utility.yul\":442:568   */\n      swap2\n      swap1\n      pop\n      jump\t// out\n        /* \"#utility.yul\":574:670   */\n    tag_56:\n        /* \"#utility.yul\":611:618   */\n      0x00\n        /* \"#utility.yul\":640:664   */\n      tag_74\n        /* \"#utility.yul\":658:663   */\n      dup3\n        /* \"#utility.yul\":640:664   */\n      tag_55\n      jump\t// in\n    tag_74:\n        /* \"#utility.yul\":629:664   */\n      swap1\n      pop\n        /* \"#utility.yul\":574:670   */\n      swap2\n      swap1\n      pop\n      jump\t// out\n        /* \"#utility.yul\":676:794   */\n    tag_57:\n        /* \"#utility.yul\":763:787   */\n      tag_76\n        /* \"#utility.yul\":781:786   */\n      dup2\n        /* \"#utility.yul\":763:787   */\n      tag_56\n      jump\t// in\n    tag_76:\n        /* \"#utility.yul\":758:761   */\n      dup3\n        /* \"#utility.yul\":751:788   */\n      mstore\n        /* \"#utility.yul\":676:794   */\n      pop\n      pop\n      jump\t// out\n        /* \"#utility.yul\":800:1022   */\n    tag_19:\n        /* \"#utility.yul\":893:897   */\n      0x00\n        /* \"#utility.yul\":931:933   */\n      0x20\n        /* \"#utility.yul\":920:929   */\n      dup3\n        /* \"#utility.yul\":916:934   */\n      add\n        /* \"#utility.yul\":908:934   */\n      swap1\n      pop\n        /* \"#utility.yul\":944:1015   */\n      tag_78\n        /* \"#utility.yul\":1012:1013   */\n      0x00\n        /* \"#utility.yul\":1001:1010   */\n      dup4\n        /* \"#utility.yul\":997:1014   */\n      add\n        /* \"#utility.yul\":988:994   */\n      dup5\n        /* \"#utility.yul\":944:1015   */\n      tag_57\n      jump\t// in\n    tag_78:\n        /* \"#utility.yul\":800:1022   */\n      swap3\n      swap2\n      pop\n      pop\n      jump\t// out\n        /* \"#utility.yul\":1028:1197   */\n    tag_58:\n        /* \"#utility.yul\":1112:1123   */\n      0x00\n        /* \"#utility.yul\":1146:1152   */\n      dup3\n        /* \"#utility.yul\":1141:1144   */\n      dup3\n        /* \"#utility.yul\":1134:1153   */\n      mstore\n        /* \"#utility.yul\":1186:1190   */\n      0x20\n        /* \"#utility.yul\":1181:1184   */\n      dup3\n        /* \"#utility.yul\":1177:1191   */\n      add\n        /* \"#utility.yul\":1162:1191   */\n      swap1\n      pop\n        /* \"#utility.yul\":1028:1197   */\n      swap3\n      swap2\n      pop\n      pop\n      jump\t// out\n        /* \"#utility.yul\":1203:1369   */\n    tag_59:\n        /* \"#utility.yul\":1343:1361   */\n      0x596f75277265206e6f74206368696c6400000000000000000000000000000000\n        /* \"#utility.yul\":1339:1340   */\n      0x00\n        /* \"#utility.yul\":1331:1337   */\n      dup3\n        /* \"#utility.yul\":1327:1341   */\n      add\n        /* \"#utility.yul\":1320:1362   */\n      mstore\n        /* \"#utility.yul\":1203:1369   */\n      pop\n      jump\t// out\n        /* \"#utility.yul\":1375:1741   */\n    tag_60:\n        /* \"#utility.yul\":1517:1520   */\n      0x00\n        /* \"#utility.yul\":1538:1605   */\n      tag_82\n        /* \"#utility.yul\":1602:1604   */\n      0x10\n        /* \"#utility.yul\":1597:1600   */\n      dup4\n        /* \"#utility.yul\":1538:1605   */\n      tag_58\n      jump\t// in\n    tag_82:\n        /* \"#utility.yul\":1531:1605   */\n      swap2\n      pop\n        /* \"#utility.yul\":1614:1707   */\n      tag_83\n        /* \"#utility.yul\":1703:1706   */\n      dup3\n        /* \"#utility.yul\":1614:1707   */\n      tag_59\n      jump\t// in\n    tag_83:\n        /* \"#utility.yul\":1732:1734   */\n      0x20\n        /* \"#utility.yul\":1727:1730   */\n      dup3\n        /* \"#utility.yul\":1723:1735   */\n      add\n        /* \"#utility.yul\":1716:1735   */\n      swap1\n      pop\n        /* \"#utility.yul\":1375:1741   */\n      swap2\n      swap1\n      pop\n      jump\t// out\n        /* \"#utility.yul\":1747:2166   */\n    tag_39:\n        /* \"#utility.yul\":1913:1917   */\n      0x00\n        /* \"#utility.yul\":1951:1953   */\n      0x20\n        /* \"#utility.yul\":1940:1949   */\n      dup3\n        /* \"#utility.yul\":1936:1954   */\n      add\n        /* \"#utility.yul\":1928:1954   */\n      swap1\n      pop\n        /* \"#utility.yul\":2000:2009   */\n      dup2\n        /* \"#utility.yul\":1994:1998   */\n      dup2\n        /* \"#utility.yul\":1990:2010   */\n      sub\n        /* \"#utility.yul\":1986:1987   */\n      0x00\n        /* \"#utility.yul\":1975:1984   */\n      dup4\n        /* \"#utility.yul\":1971:1988   */\n      add\n        /* \"#utility.yul\":1964:2011   */\n      mstore\n        /* \"#utility.yul\":2028:2159   */\n      tag_85\n        /* \"#utility.yul\":2154:2158   */\n      dup2\n        /* \"#utility.yul\":2028:2159   */\n      tag_60\n      jump\t// in\n    tag_85:\n        /* \"#utility.yul\":2020:2159   */\n      swap1\n      pop\n        /* \"#utility.yul\":1747:2166   */\n      swap2\n      swap1\n      pop\n      jump\t// out\n        /* \"#utility.yul\":2172:2352   */\n    tag_61:\n        /* \"#utility.yul\":2220:2297   */\n      0x4e487b7100000000000000000000000000000000000000000000000000000000\n        /* \"#utility.yul\":2217:2218   */\n      0x00\n        /* \"#utility.yul\":2210:2298   */\n      mstore\n        /* \"#utility.yul\":2317:2321   */\n      0x11\n        /* \"#utility.yul\":2314:2315   */\n      0x04\n        /* \"#utility.yul\":2307:2322   */\n      mstore\n        /* \"#utility.yul\":2341:2345   */\n      0x24\n        /* \"#utility.yul\":2338:2339   */\n      0x00\n        /* \"#utility.yul\":2331:2346   */\n      revert\n        /* \"#utility.yul\":2358:2549   */\n    tag_41:\n        /* \"#utility.yul\":2398:2401   */\n      0x00\n        /* \"#utility.yul\":2417:2437   */\n      tag_88\n        /* \"#utility.yul\":2435:2436   */\n      dup3\n        /* \"#utility.yul\":2417:2437   */\n      tag_53\n      jump\t// in\n    tag_88:\n        /* \"#utility.yul\":2412:2437   */\n      swap2\n      pop\n        /* \"#utility.yul\":2451:2471   */\n      tag_89\n        /* \"#utility.yul\":2469:2470   */\n      dup4\n        /* \"#utility.yul\":2451:2471   */\n      tag_53\n      jump\t// in\n    tag_89:\n        /* \"#utility.yul\":2446:2471   */\n      swap3\n      pop\n        /* \"#utility.yul\":2494:2495   */\n      dup3\n        /* \"#utility.yul\":2491:2492   */\n      dup3\n        /* \"#utility.yul\":2487:2496   */\n      add\n        /* \"#utility.yul\":2480:2496   */\n      swap1\n      pop\n        /* \"#utility.yul\":2515:2518   */\n      dup1\n        /* \"#utility.yul\":2512:2513   */\n      dup3\n        /* \"#utility.yul\":2509:2519   */\n      gt\n        /* \"#utility.yul\":2506:2542   */\n      iszero\n      tag_90\n      jumpi\n        /* \"#utility.yul\":2522:2540   */\n      tag_91\n      tag_61\n      jump\t// in\n    tag_91:\n        /* \"#utility.yul\":2506:2542   */\n    tag_90:\n        /* \"#utility.yul\":2358:2549   */\n      swap3\n      swap2\n      pop\n      pop\n      jump\t// out\n        /* \"#utility.yul\":2555:2729   */\n    tag_62:\n        /* \"#utility.yul\":2695:2721   */\n      0x54696d65206f662070696e6720697320696e206c696d69740000000000000000\n        /* \"#utility.yul\":2691:2692   */\n      0x00\n        /* \"#utility.yul\":2683:2689   */\n      dup3\n        /* \"#utility.yul\":2679:2693   */\n      add\n        /* \"#utility.yul\":2672:2722   */\n      mstore\n        /* \"#utility.yul\":2555:2729   */\n      pop\n      jump\t// out\n        /* \"#utility.yul\":2735:3101   */\n    tag_63:\n        /* \"#utility.yul\":2877:2880   */\n      0x00\n        /* \"#utility.yul\":2898:2965   */\n      tag_94\n        /* \"#utility.yul\":2962:2964   */\n      0x18\n        /* \"#utility.yul\":2957:2960   */\n      dup4\n        /* \"#utility.yul\":2898:2965   */\n      tag_58\n      jump\t// in\n    tag_94:\n        /* \"#utility.yul\":2891:2965   */\n      swap2\n      pop\n        /* \"#utility.yul\":2974:3067   */\n      tag_95\n        /* \"#utility.yul\":3063:3066   */\n      dup3\n        /* \"#utility.yul\":2974:3067   */\n      tag_62\n      jump\t// in\n    tag_95:\n        /* \"#utility.yul\":3092:3094   */\n      0x20\n        /* \"#utility.yul\":3087:3090   */\n      dup3\n        /* \"#utility.yul\":3083:3095   */\n      add\n        /* \"#utility.yul\":3076:3095   */\n      swap1\n      pop\n        /* \"#utility.yul\":2735:3101   */\n      swap2\n      swap1\n      pop\n      jump\t// out\n        /* \"#utility.yul\":3107:3526   */\n    tag_44:\n        /* \"#utility.yul\":3273:3277   */\n      0x00\n        /* \"#utility.yul\":3311:3313   */\n      0x20\n        /* \"#utility.yul\":3300:3309   */\n      dup3\n        /* \"#utility.yul\":3296:3314   */\n      add\n        /* \"#utility.yul\":3288:3314   */\n      swap1\n      pop\n        /* \"#utility.yul\":3360:3369   */\n      dup2\n        /* \"#utility.yul\":3354:3358   */\n      dup2\n        /* \"#utility.yul\":3350:3370   */\n      sub\n        /* \"#utility.yul\":3346:3347   */\n      0x00\n        /* \"#utility.yul\":3335:3344   */\n      dup4\n        /* \"#utility.yul\":3331:3348   */\n      add\n        /* \"#utility.yul\":3324:3371   */\n      mstore\n        /* \"#utility.yul\":3388:3519   */\n      tag_97\n        /* \"#utility.yul\":3514:3518   */\n      dup2\n        /* \"#utility.yul\":3388:3519   */\n      tag_63\n      jump\t// in\n    tag_97:\n        /* \"#utility.yul\":3380:3519   */\n      swap1\n      pop\n        /* \"#utility.yul\":3107:3526   */\n      swap2\n      swap1\n      pop\n      jump\t// out\n        /* \"#utility.yul\":3532:3702   */\n    tag_64:\n        /* \"#utility.yul\":3672:3694   */\n      0x596f752063616e27742073656e64206d6f6e6579000000000000000000000000\n        /* \"#utility.yul\":3668:3669   */\n      0x00\n        /* \"#utility.yul\":3660:3666   */\n      dup3\n        /* \"#utility.yul\":3656:3670   */\n      add\n        /* \"#utility.yul\":3649:3695   */\n      mstore\n        /* \"#utility.yul\":3532:3702   */\n      pop\n      jump\t// out\n        /* \"#utility.yul\":3708:4074   */\n    tag_65:\n        /* \"#utility.yul\":3850:3853   */\n      0x00\n        /* \"#utility.yul\":3871:3938   */\n      tag_100\n        /* \"#utility.yul\":3935:3937   */\n      0x14\n        /* \"#utility.yul\":3930:3933   */\n      dup4\n        /* \"#utility.yul\":3871:3938   */\n      tag_58\n      jump\t// in\n    tag_100:\n        /* \"#utility.yul\":3864:3938   */\n      swap2\n      pop\n        /* \"#utility.yul\":3947:4040   */\n      tag_101\n        /* \"#utility.yul\":4036:4039   */\n      dup3\n        /* \"#utility.yul\":3947:4040   */\n      tag_64\n      jump\t// in\n    tag_101:\n        /* \"#utility.yul\":4065:4067   */\n      0x20\n        /* \"#utility.yul\":4060:4063   */\n      dup3\n        /* \"#utility.yul\":4056:4068   */\n      add\n        /* \"#utility.yul\":4049:4068   */\n      swap1\n      pop\n        /* \"#utility.yul\":3708:4074   */\n      swap2\n      swap1\n      pop\n      jump\t// out\n        /* \"#utility.yul\":4080:4499   */\n    tag_50:\n        /* \"#utility.yul\":4246:4250   */\n      0x00\n        /* \"#utility.yul\":4284:4286   */\n      0x20\n        /* \"#utility.yul\":4273:4282   */\n      dup3\n        /* \"#utility.yul\":4269:4287   */\n      add\n        /* \"#utility.yul\":4261:4287   */\n      swap1\n      pop\n        /* \"#utility.yul\":4333:4342   */\n      dup2\n        /* \"#utility.yul\":4327:4331   */\n      dup2\n        /* \"#utility.yul\":4323:4343   */\n      sub\n        /* \"#utility.yul\":4319:4320   */\n      0x00\n        /* \"#utility.yul\":4308:4317   */\n      dup4\n        /* \"#utility.yul\":4304:4321   */\n      add\n        /* \"#utility.yul\":4297:4344   */\n      mstore\n        /* \"#utility.yul\":4361:4492   */\n      tag_103\n        /* \"#utility.yul\":4487:4491   */\n      dup2\n        /* \"#utility.yul\":4361:4492   */\n      tag_65\n      jump\t// in\n    tag_103:\n        /* \"#utility.yul\":4353:4492   */\n      swap1\n      pop\n        /* \"#utility.yul\":4080:4499   */\n      swap2\n      swap1\n      pop\n      jump\t// out\n\n    auxdata: 0xa2646970667358221220c6a467f5ae0c419fe12afa4483edc84d4fad1891f0daa37899b4908ae74ce67d64736f6c634300081a0033\n}\n",
				"bytecode": {
					"linkReferences": {},
					"object": "608060405234801561000f575f80fd5b5060405161074f38038061074f8339818101604052810190610031919061011b565b42600281905550335f806101000a81548173ffffffffffffffffffffffffffffffffffffffff021916908373ffffffffffffffffffffffffffffffffffffffff1602179055508060015f6101000a81548173ffffffffffffffffffffffffffffffffffffffff021916908373ffffffffffffffffffffffffffffffffffffffff16021790555050610146565b5f80fd5b5f73ffffffffffffffffffffffffffffffffffffffff82169050919050565b5f6100ea826100c1565b9050919050565b6100fa816100e0565b8114610104575f80fd5b50565b5f81519050610115816100f1565b92915050565b5f602082840312156101305761012f6100bd565b5b5f61013d84828501610107565b91505092915050565b6105fc806101535f395ff3fe60806040526004361061006f575f3560e01c80637362377b1161004d5780637362377b146100f157806398ea5fca146100fb578063b718e31614610105578063e7e4cc631461012f5761006f565b80631a39d8ef14610073578063237b5e961461009d57806360f96a8f146100c7575b5f80fd5b34801561007e575f80fd5b50610087610159565b60405161009491906103ad565b60405180910390f35b3480156100a8575f80fd5b506100b161015f565b6040516100be9190610405565b60405180910390f35b3480156100d2575f80fd5b506100db610184565b6040516100e89190610405565b60405180910390f35b6100f96101a7565b005b6101036102d8565b005b348015610110575f80fd5b5061011961037f565b60405161012691906103ad565b60405180910390f35b34801561013a575f80fd5b5061014361038f565b60405161015091906103ad565b60405180910390f35b60035481565b60015f9054906101000a900473ffffffffffffffffffffffffffffffffffffffff1681565b5f8054906101000a900473ffffffffffffffffffffffffffffffffffffffff1681565b60015f9054906101000a900473ffffffffffffffffffffffffffffffffffffffff1673ffffffffffffffffffffffffffffffffffffffff163373ffffffffffffffffffffffffffffffffffffffff1614610236576040517f08c379a000000000000000000000000000000000000000000000000000000000815260040161022d90610478565b60405180910390fd5b603c60045461024591906104c3565b6004541115610289576040517f08c379a000000000000000000000000000000000000000000000000000000000815260040161028090610540565b60405180910390fd5b3373ffffffffffffffffffffffffffffffffffffffff166108fc60035490811502906040515f60405180830381858888f193505050501580156102ce573d5f803e3d5ffd5b505f600381905550565b5f8054906101000a900473ffffffffffffffffffffffffffffffffffffffff1673ffffffffffffffffffffffffffffffffffffffff163373ffffffffffffffffffffffffffffffffffffffff1614610365576040517f08c379a000000000000000000000000000000000000000000000000000000000815260040161035c906105a8565b60405180910390fd5b3460035f82825461037691906104c3565b92505081905550565b5f42600481905550600454905090565b60045481565b5f819050919050565b6103a781610395565b82525050565b5f6020820190506103c05f83018461039e565b92915050565b5f73ffffffffffffffffffffffffffffffffffffffff82169050919050565b5f6103ef826103c6565b9050919050565b6103ff816103e5565b82525050565b5f6020820190506104185f8301846103f6565b92915050565b5f82825260208201905092915050565b7f596f75277265206e6f74206368696c64000000000000000000000000000000005f82015250565b5f61046260108361041e565b915061046d8261042e565b602082019050919050565b5f6020820190508181035f83015261048f81610456565b9050919050565b7f4e487b71000000000000000000000000000000000000000000000000000000005f52601160045260245ffd5b5f6104cd82610395565b91506104d883610395565b92508282019050808211156104f0576104ef610496565b5b92915050565b7f54696d65206f662070696e6720697320696e206c696d697400000000000000005f82015250565b5f61052a60188361041e565b9150610535826104f6565b602082019050919050565b5f6020820190508181035f8301526105578161051e565b9050919050565b7f596f752063616e27742073656e64206d6f6e65790000000000000000000000005f82015250565b5f61059260148361041e565b915061059d8261055e565b602082019050919050565b5f6020820190508181035f8301526105bf81610586565b905091905056fea2646970667358221220c6a467f5ae0c419fe12afa4483edc84d4fad1891f0daa37899b4908ae74ce67d64736f6c634300081a0033",
					"opcodes": "PUSH1 0x80 PUSH1 0x40 MSTORE CALLVALUE DUP1 ISZERO PUSH2 0xF JUMPI PUSH0 DUP1 REVERT JUMPDEST POP PUSH1 0x40 MLOAD PUSH2 0x74F CODESIZE SUB DUP1 PUSH2 0x74F DUP4 CODECOPY DUP2 DUP2 ADD PUSH1 0x40 MSTORE DUP2 ADD SWAP1 PUSH2 0x31 SWAP2 SWAP1 PUSH2 0x11B JUMP JUMPDEST TIMESTAMP PUSH1 0x2 DUP2 SWAP1 SSTORE POP CALLER PUSH0 DUP1 PUSH2 0x100 EXP DUP2 SLOAD DUP2 PUSH20 0xFFFFFFFFFFFFFFFFFFFFFFFFFFFFFFFFFFFFFFFF MUL NOT AND SWAP1 DUP4 PUSH20 0xFFFFFFFFFFFFFFFFFFFFFFFFFFFFFFFFFFFFFFFF AND MUL OR SWAP1 SSTORE POP DUP1 PUSH1 0x1 PUSH0 PUSH2 0x100 EXP DUP2 SLOAD DUP2 PUSH20 0xFFFFFFFFFFFFFFFFFFFFFFFFFFFFFFFFFFFFFFFF MUL NOT AND SWAP1 DUP4 PUSH20 0xFFFFFFFFFFFFFFFFFFFFFFFFFFFFFFFFFFFFFFFF AND MUL OR SWAP1 SSTORE POP POP PUSH2 0x146 JUMP JUMPDEST PUSH0 DUP1 REVERT JUMPDEST PUSH0 PUSH20 0xFFFFFFFFFFFFFFFFFFFFFFFFFFFFFFFFFFFFFFFF DUP3 AND SWAP1 POP SWAP2 SWAP1 POP JUMP JUMPDEST PUSH0 PUSH2 0xEA DUP3 PUSH2 0xC1 JUMP JUMPDEST SWAP1 POP SWAP2 SWAP1 POP JUMP JUMPDEST PUSH2 0xFA DUP2 PUSH2 0xE0 JUMP JUMPDEST DUP2 EQ PUSH2 0x104 JUMPI PUSH0 DUP1 REVERT JUMPDEST POP JUMP JUMPDEST PUSH0 DUP2 MLOAD SWAP1 POP PUSH2 0x115 DUP2 PUSH2 0xF1 JUMP JUMPDEST SWAP3 SWAP2 POP POP JUMP JUMPDEST PUSH0 PUSH1 0x20 DUP3 DUP5 SUB SLT ISZERO PUSH2 0x130 JUMPI PUSH2 0x12F PUSH2 0xBD JUMP JUMPDEST JUMPDEST PUSH0 PUSH2 0x13D DUP5 DUP3 DUP6 ADD PUSH2 0x107 JUMP JUMPDEST SWAP2 POP POP SWAP3 SWAP2 POP POP JUMP JUMPDEST PUSH2 0x5FC DUP1 PUSH2 0x153 PUSH0 CODECOPY PUSH0 RETURN INVALID PUSH1 0x80 PUSH1 0x40 MSTORE PUSH1 0x4 CALLDATASIZE LT PUSH2 0x6F JUMPI PUSH0 CALLDATALOAD PUSH1 0xE0 SHR DUP1 PUSH4 0x7362377B GT PUSH2 0x4D JUMPI DUP1 PUSH4 0x7362377B EQ PUSH2 0xF1 JUMPI DUP1 PUSH4 0x98EA5FCA EQ PUSH2 0xFB JUMPI DUP1 PUSH4 0xB718E316 EQ PUSH2 0x105 JUMPI DUP1 PUSH4 0xE7E4CC63 EQ PUSH2 0x12F JUMPI PUSH2 0x6F JUMP JUMPDEST DUP1 PUSH4 0x1A39D8EF EQ PUSH2 0x73 JUMPI DUP1 PUSH4 0x237B5E96 EQ PUSH2 0x9D JUMPI DUP1 PUSH4 0x60F96A8F EQ PUSH2 0xC7 JUMPI JUMPDEST PUSH0 DUP1 REVERT JUMPDEST CALLVALUE DUP1 ISZERO PUSH2 0x7E JUMPI PUSH0 DUP1 REVERT JUMPDEST POP PUSH2 0x87 PUSH2 0x159 JUMP JUMPDEST PUSH1 0x40 MLOAD PUSH2 0x94 SWAP2 SWAP1 PUSH2 0x3AD JUMP JUMPDEST PUSH1 0x40 MLOAD DUP1 SWAP2 SUB SWAP1 RETURN JUMPDEST CALLVALUE DUP1 ISZERO PUSH2 0xA8 JUMPI PUSH0 DUP1 REVERT JUMPDEST POP PUSH2 0xB1 PUSH2 0x15F JUMP JUMPDEST PUSH1 0x40 MLOAD PUSH2 0xBE SWAP2 SWAP1 PUSH2 0x405 JUMP JUMPDEST PUSH1 0x40 MLOAD DUP1 SWAP2 SUB SWAP1 RETURN JUMPDEST CALLVALUE DUP1 ISZERO PUSH2 0xD2 JUMPI PUSH0 DUP1 REVERT JUMPDEST POP PUSH2 0xDB PUSH2 0x184 JUMP JUMPDEST PUSH1 0x40 MLOAD PUSH2 0xE8 SWAP2 SWAP1 PUSH2 0x405 JUMP JUMPDEST PUSH1 0x40 MLOAD DUP1 SWAP2 SUB SWAP1 RETURN JUMPDEST PUSH2 0xF9 PUSH2 0x1A7 JUMP JUMPDEST STOP JUMPDEST PUSH2 0x103 PUSH2 0x2D8 JUMP JUMPDEST STOP JUMPDEST CALLVALUE DUP1 ISZERO PUSH2 0x110 JUMPI PUSH0 DUP1 REVERT JUMPDEST POP PUSH2 0x119 PUSH2 0x37F JUMP JUMPDEST PUSH1 0x40 MLOAD PUSH2 0x126 SWAP2 SWAP1 PUSH2 0x3AD JUMP JUMPDEST PUSH1 0x40 MLOAD DUP1 SWAP2 SUB SWAP1 RETURN JUMPDEST CALLVALUE DUP1 ISZERO PUSH2 0x13A JUMPI PUSH0 DUP1 REVERT JUMPDEST POP PUSH2 0x143 PUSH2 0x38F JUMP JUMPDEST PUSH1 0x40 MLOAD PUSH2 0x150 SWAP2 SWAP1 PUSH2 0x3AD JUMP JUMPDEST PUSH1 0x40 MLOAD DUP1 SWAP2 SUB SWAP1 RETURN JUMPDEST PUSH1 0x3 SLOAD DUP2 JUMP JUMPDEST PUSH1 0x1 PUSH0 SWAP1 SLOAD SWAP1 PUSH2 0x100 EXP SWAP1 DIV PUSH20 0xFFFFFFFFFFFFFFFFFFFFFFFFFFFFFFFFFFFFFFFF AND DUP2 JUMP JUMPDEST PUSH0 DUP1 SLOAD SWAP1 PUSH2 0x100 EXP SWAP1 DIV PUSH20 0xFFFFFFFFFFFFFFFFFFFFFFFFFFFFFFFFFFFFFFFF AND DUP2 JUMP JUMPDEST PUSH1 0x1 PUSH0 SWAP1 SLOAD SWAP1 PUSH2 0x100 EXP SWAP1 DIV PUSH20 0xFFFFFFFFFFFFFFFFFFFFFFFFFFFFFFFFFFFFFFFF AND PUSH20 0xFFFFFFFFFFFFFFFFFFFFFFFFFFFFFFFFFFFFFFFF AND CALLER PUSH20 0xFFFFFFFFFFFFFFFFFFFFFFFFFFFFFFFFFFFFFFFF AND EQ PUSH2 0x236 JUMPI PUSH1 0x40 MLOAD PUSH32 0x8C379A000000000000000000000000000000000000000000000000000000000 DUP2 MSTORE PUSH1 0x4 ADD PUSH2 0x22D SWAP1 PUSH2 0x478 JUMP JUMPDEST PUSH1 0x40 MLOAD DUP1 SWAP2 SUB SWAP1 REVERT JUMPDEST PUSH1 0x3C PUSH1 0x4 SLOAD PUSH2 0x245 SWAP2 SWAP1 PUSH2 0x4C3 JUMP JUMPDEST PUSH1 0x4 SLOAD GT ISZERO PUSH2 0x289 JUMPI PUSH1 0x40 MLOAD PUSH32 0x8C379A000000000000000000000000000000000000000000000000000000000 DUP2 MSTORE PUSH1 0x4 ADD PUSH2 0x280 SWAP1 PUSH2 0x540 JUMP JUMPDEST PUSH1 0x40 MLOAD DUP1 SWAP2 SUB SWAP1 REVERT JUMPDEST CALLER PUSH20 0xFFFFFFFFFFFFFFFFFFFFFFFFFFFFFFFFFFFFFFFF AND PUSH2 0x8FC PUSH1 0x3 SLOAD SWAP1 DUP2 ISZERO MUL SWAP1 PUSH1 0x40 MLOAD PUSH0 PUSH1 0x40 MLOAD DUP1 DUP4 SUB DUP2 DUP6 DUP9 DUP9 CALL SWAP4 POP POP POP POP ISZERO DUP1 ISZERO PUSH2 0x2CE JUMPI RETURNDATASIZE PUSH0 DUP1 RETURNDATACOPY RETURNDATASIZE PUSH0 REVERT JUMPDEST POP PUSH0 PUSH1 0x3 DUP2 SWAP1 SSTORE POP JUMP JUMPDEST PUSH0 DUP1 SLOAD SWAP1 PUSH2 0x100 EXP SWAP1 DIV PUSH20 0xFFFFFFFFFFFFFFFFFFFFFFFFFFFFFFFFFFFFFFFF AND PUSH20 0xFFFFFFFFFFFFFFFFFFFFFFFFFFFFFFFFFFFFFFFF AND CALLER PUSH20 0xFFFFFFFFFFFFFFFFFFFFFFFFFFFFFFFFFFFFFFFF AND EQ PUSH2 0x365 JUMPI PUSH1 0x40 MLOAD PUSH32 0x8C379A000000000000000000000000000000000000000000000000000000000 DUP2 MSTORE PUSH1 0x4 ADD PUSH2 0x35C SWAP1 PUSH2 0x5A8 JUMP JUMPDEST PUSH1 0x40 MLOAD DUP1 SWAP2 SUB SWAP1 REVERT JUMPDEST CALLVALUE PUSH1 0x3 PUSH0 DUP3 DUP3 SLOAD PUSH2 0x376 SWAP2 SWAP1 PUSH2 0x4C3 JUMP JUMPDEST SWAP3 POP POP DUP2 SWAP1 SSTORE POP JUMP JUMPDEST PUSH0 TIMESTAMP PUSH1 0x4 DUP2 SWAP1 SSTORE POP PUSH1 0x4 SLOAD SWAP1 POP SWAP1 JUMP JUMPDEST PUSH1 0x4 SLOAD DUP2 JUMP JUMPDEST PUSH0 DUP2 SWAP1 POP SWAP2 SWAP1 POP JUMP JUMPDEST PUSH2 0x3A7 DUP2 PUSH2 0x395 JUMP JUMPDEST DUP3 MSTORE POP POP JUMP JUMPDEST PUSH0 PUSH1 0x20 DUP3 ADD SWAP1 POP PUSH2 0x3C0 PUSH0 DUP4 ADD DUP5 PUSH2 0x39E JUMP JUMPDEST SWAP3 SWAP2 POP POP JUMP JUMPDEST PUSH0 PUSH20 0xFFFFFFFFFFFFFFFFFFFFFFFFFFFFFFFFFFFFFFFF DUP3 AND SWAP1 POP SWAP2 SWAP1 POP JUMP JUMPDEST PUSH0 PUSH2 0x3EF DUP3 PUSH2 0x3C6 JUMP JUMPDEST SWAP1 POP SWAP2 SWAP1 POP JUMP JUMPDEST PUSH2 0x3FF DUP2 PUSH2 0x3E5 JUMP JUMPDEST DUP3 MSTORE POP POP JUMP JUMPDEST PUSH0 PUSH1 0x20 DUP3 ADD SWAP1 POP PUSH2 0x418 PUSH0 DUP4 ADD DUP5 PUSH2 0x3F6 JUMP JUMPDEST SWAP3 SWAP2 POP POP JUMP JUMPDEST PUSH0 DUP3 DUP3 MSTORE PUSH1 0x20 DUP3 ADD SWAP1 POP SWAP3 SWAP2 POP POP JUMP JUMPDEST PUSH32 0x596F75277265206E6F74206368696C6400000000000000000000000000000000 PUSH0 DUP3 ADD MSTORE POP JUMP JUMPDEST PUSH0 PUSH2 0x462 PUSH1 0x10 DUP4 PUSH2 0x41E JUMP JUMPDEST SWAP2 POP PUSH2 0x46D DUP3 PUSH2 0x42E JUMP JUMPDEST PUSH1 0x20 DUP3 ADD SWAP1 POP SWAP2 SWAP1 POP JUMP JUMPDEST PUSH0 PUSH1 0x20 DUP3 ADD SWAP1 POP DUP2 DUP2 SUB PUSH0 DUP4 ADD MSTORE PUSH2 0x48F DUP2 PUSH2 0x456 JUMP JUMPDEST SWAP1 POP SWAP2 SWAP1 POP JUMP JUMPDEST PUSH32 0x4E487B7100000000000000000000000000000000000000000000000000000000 PUSH0 MSTORE PUSH1 0x11 PUSH1 0x4 MSTORE PUSH1 0x24 PUSH0 REVERT JUMPDEST PUSH0 PUSH2 0x4CD DUP3 PUSH2 0x395 JUMP JUMPDEST SWAP2 POP PUSH2 0x4D8 DUP4 PUSH2 0x395 JUMP JUMPDEST SWAP3 POP DUP3 DUP3 ADD SWAP1 POP DUP1 DUP3 GT ISZERO PUSH2 0x4F0 JUMPI PUSH2 0x4EF PUSH2 0x496 JUMP JUMPDEST JUMPDEST SWAP3 SWAP2 POP POP JUMP JUMPDEST PUSH32 0x54696D65206F662070696E6720697320696E206C696D69740000000000000000 PUSH0 DUP3 ADD MSTORE POP JUMP JUMPDEST PUSH0 PUSH2 0x52A PUSH1 0x18 DUP4 PUSH2 0x41E JUMP JUMPDEST SWAP2 POP PUSH2 0x535 DUP3 PUSH2 0x4F6 JUMP JUMPDEST PUSH1 0x20 DUP3 ADD SWAP1 POP SWAP2 SWAP1 POP JUMP JUMPDEST PUSH0 PUSH1 0x20 DUP3 ADD SWAP1 POP DUP2 DUP2 SUB PUSH0 DUP4 ADD MSTORE PUSH2 0x557 DUP2 PUSH2 0x51E JUMP JUMPDEST SWAP1 POP SWAP2 SWAP1 POP JUMP JUMPDEST PUSH32 0x596F752063616E27742073656E64206D6F6E6579000000000000000000000000 PUSH0 DUP3 ADD MSTORE POP JUMP JUMPDEST PUSH0 PUSH2 0x592 PUSH1 0x14 DUP4 PUSH2 0x41E JUMP JUMPDEST SWAP2 POP PUSH2 0x59D DUP3 PUSH2 0x55E JUMP JUMPDEST PUSH1 0x20 DUP3 ADD SWAP1 POP SWAP2 SWAP1 POP JUMP JUMPDEST PUSH0 PUSH1 0x20 DUP3 ADD SWAP1 POP DUP2 DUP2 SUB PUSH0 DUP4 ADD MSTORE PUSH2 0x5BF DUP2 PUSH2 0x586 JUMP JUMPDEST SWAP1 POP SWAP2 SWAP1 POP JUMP INVALID LOG2 PUSH5 0x6970667358 0x22 SLT KECCAK256 0xC6 LOG4 PUSH8 0xF5AE0C419FE12AFA PREVRANDAO DUP4 0xED 0xC8 0x4D 0x4F 0xAD XOR SWAP2 CREATE 0xDA LOG3 PUSH25 0x99B4908AE74CE67D64736F6C634300081A0033000000000000 "
				},
				"gasEstimates": {
					"creation": {
						"codeDepositCost": "306400",
						"executionCost": "infinite",
						"totalCost": "infinite"
					},
					"external": {
						"child()": "2531",
						"depositEther()": "infinite",
						"lastcall()": "2491",
						"parent()": "2550",
						"pingByOwner()": "24589",
						"totalAmount()": "2426",
						"withdrawEther()": "infinite"
					}
				},
				"methodIdentifiers": {
					"child()": "237b5e96",
					"depositEther()": "98ea5fca",
					"lastcall()": "e7e4cc63",
					"parent()": "60f96a8f",
					"pingByOwner()": "b718e316",
					"totalAmount()": "1a39d8ef",
					"withdrawEther()": "7362377b"
				}
			},
			"storageLayout": {
				"storage": [
					{
						"astId": 3,
						"contract": "Will Contract/willContract.sol:WillContract",
						"label": "parent",
						"offset": 0,
						"slot": "0",
						"type": "t_address"
					},
					{
						"astId": 5,
						"contract": "Will Contract/willContract.sol:WillContract",
						"label": "child",
						"offset": 0,
						"slot": "1",
						"type": "t_address"
					},
					{
						"astId": 7,
						"contract": "Will Contract/willContract.sol:WillContract",
						"label": "deployTimeStamp",
						"offset": 0,
						"slot": "2",
						"type": "t_uint256"
					},
					{
						"astId": 9,
						"contract": "Will Contract/willContract.sol:WillContract",
						"label": "totalAmount",
						"offset": 0,
						"slot": "3",
						"type": "t_uint256"
					},
					{
						"astId": 82,
						"contract": "Will Contract/willContract.sol:WillContract",
						"label": "lastcall",
						"offset": 0,
						"slot": "4",
						"type": "t_uint256"
					}
				],
				"types": {
					"t_address": {
						"encoding": "inplace",
						"label": "address",
						"numberOfBytes": "20"
					},
					"t_uint256": {
						"encoding": "inplace",
						"label": "uint256",
						"numberOfBytes": "32"
					}
				}
			},
			"userdoc": {
				"kind": "user",
				"methods": {},
				"version": 1
			}
		}
	}
}