{
	"data": {
		"bytecode": {
			"linkReferences": {},
			"object": "6080604052600180553480156012575f80fd5b50335f806101000a81548173ffffffffffffffffffffffffffffffffffffffff021916908373ffffffffffffffffffffffffffffffffffffffff16021790555061108c8061005f5f395ff3fe608060405234801561000f575f80fd5b5060043610610055575f3560e01c806301eb58f6146100595780633eb76b9c146100755780638d4fd934146100915780638dd91a56146100ad578063d8bff5a5146100e1575b5f80fd5b610073600480360381019061006e9190610912565b610115565b005b61008f600480360381019061008a919061099f565b610286565b005b6100ab60048036038101906100a691906109ca565b610436565b005b6100c760048036038101906100c2919061099f565b610602565b6040516100d8959493929190610b46565b60405180910390f35b6100fb60048036038101906100f69190610bf8565b6106d2565b60405161010c959493929190610b46565b60405180910390f35b5f8054906101000a900473ffffffffffffffffffffffffffffffffffffffff1673ffffffffffffffffffffffffffffffffffffffff163373ffffffffffffffffffffffffffffffffffffffff16146101a2576040517f08c379a000000000000000000000000000000000000000000000000000000000815260040161019990610c6d565b60405180910390fd5b6040518060a0016040528060015481526020018381526020018260098111156101ce576101cd610ab9565b5b81526020015f81526020015f151581525060025f60015481526020019081526020015f205f820151815f0155602082015181600101908161020f9190610e85565b506040820151816002015f6101000a81548160ff0219169083600981111561023a57610239610ab9565b5b0217905550606082015181600301556080820151816004015f6101000a81548160ff02191690831515021790555090505060015f81548092919061027d90610f81565b91905055505050565b6040518060a00160405280600154815260200160025f8481526020019081526020015f2060010180546102b890610cb8565b80601f01602080910402602001604051908101604052809291908181526020018280546102e490610cb8565b801561032f5780601f106103065761010080835404028352916020019161032f565b820191905f5260205f20905b81548152906001019060200180831161031257829003601f168201915b5050505050815260200160025f8481526020019081526020015f206002015f9054906101000a900460ff16600981111561036c5761036b610ab9565b5b81526020015f81526020015f151581525060045f3373ffffffffffffffffffffffffffffffffffffffff1673ffffffffffffffffffffffffffffffffffffffff1681526020019081526020015f205f820151815f015560208201518160010190816103d79190610e85565b506040820151816002015f6101000a81548160ff0219169083600981111561040257610401610ab9565b5b0217905550606082015181600301556080820151816004015f6101000a81548160ff02191690831515021790555090505050565b5f8054906101000a900473ffffffffffffffffffffffffffffffffffffffff1673ffffffffffffffffffffffffffffffffffffffff163373ffffffffffffffffffffffffffffffffffffffff16146104c3576040517f08c379a00000000000000000000000000000000000000000000000000000000081526004016104ba90610c6d565b60405180910390fd5b8142111580156104d35750804211155b610512576040517f08c379a000000000000000000000000000000000000000000000000000000000815260040161050990611038565b60405180910390fd5b6040518060a001604052808560098111156105305761052f610ab9565b5b81526020018481526020018381526020018281526020016001151581525060035f86600981111561056457610563610ab9565b5b600981111561057657610575610ab9565b5b81526020019081526020015f205f820151815f015f6101000a81548160ff021916908360098111156105ab576105aa610ab9565b5b021790555060208201518160010190816105c59190610e85565b5060408201518160020155606082015181600301556080820151816004015f6101000a81548160ff02191690831515021790555090505050505050565b6002602052805f5260405f205f91509050805f01549080600101805461062790610cb8565b80601f016020809104026020016040519081016040528092919081815260200182805461065390610cb8565b801561069e5780601f106106755761010080835404028352916020019161069e565b820191905f5260205f20905b81548152906001019060200180831161068157829003601f168201915b505050505090806002015f9054906101000a900460ff1690806003015490806004015f9054906101000a900460ff16905085565b6004602052805f5260405f205f91509050805f0154908060010180546106f790610cb8565b80601f016020809104026020016040519081016040528092919081815260200182805461072390610cb8565b801561076e5780601f106107455761010080835404028352916020019161076e565b820191905f5260205f20905b81548152906001019060200180831161075157829003601f168201915b505050505090806002015f9054906101000a900460ff1690806003015490806004015f9054906101000a900460ff16905085565b5f604051905090565b5f80fd5b5f80fd5b5f80fd5b5f80fd5b5f601f19601f8301169050919050565b7f4e487b71000000000000000000000000000000000000000000000000000000005f52604160045260245ffd5b610801826107bb565b810181811067ffffffffffffffff821117156108205761081f6107cb565b5b80604052505050565b5f6108326107a2565b905061083e82826107f8565b919050565b5f67ffffffffffffffff82111561085d5761085c6107cb565b5b610866826107bb565b9050602081019050919050565b828183375f83830152505050565b5f61089361088e84610843565b610829565b9050828152602081018484840111156108af576108ae6107b7565b5b6108ba848285610873565b509392505050565b5f82601f8301126108d6576108d56107b3565b5b81356108e6848260208601610881565b91505092915050565b600a81106108fb575f80fd5b50565b5f8135905061090c816108ef565b92915050565b5f8060408385031215610928576109276107ab565b5b5f83013567ffffffffffffffff811115610945576109446107af565b5b610951858286016108c2565b9250506020610962858286016108fe565b9150509250929050565b5f819050919050565b61097e8161096c565b8114610988575f80fd5b50565b5f8135905061099981610975565b92915050565b5f602082840312156109b4576109b36107ab565b5b5f6109c18482850161098b565b91505092915050565b5f805f80608085870312156109e2576109e16107ab565b5b5f6109ef878288016108fe565b945050602085013567ffffffffffffffff811115610a1057610a0f6107af565b5b610a1c878288016108c2565b9350506040610a2d8782880161098b565b9250506060610a3e8782880161098b565b91505092959194509250565b610a538161096c565b82525050565b5f81519050919050565b5f82825260208201905092915050565b8281835e5f83830152505050565b5f610a8b82610a59565b610a958185610a63565b9350610aa5818560208601610a73565b610aae816107bb565b840191505092915050565b7f4e487b71000000000000000000000000000000000000000000000000000000005f52602160045260245ffd5b600a8110610af757610af6610ab9565b5b50565b5f819050610b0782610ae6565b919050565b5f610b1682610afa565b9050919050565b610b2681610b0c565b82525050565b5f8115159050919050565b610b4081610b2c565b82525050565b5f60a082019050610b595f830188610a4a565b8181036020830152610b6b8187610a81565b9050610b7a6040830186610b1d565b610b876060830185610a4a565b610b946080830184610b37565b9695505050505050565b5f73ffffffffffffffffffffffffffffffffffffffff82169050919050565b5f610bc782610b9e565b9050919050565b610bd781610bbd565b8114610be1575f80fd5b50565b5f81359050610bf281610bce565b92915050565b5f60208284031215610c0d57610c0c6107ab565b5b5f610c1a84828501610be4565b91505092915050565b7f596f75277265206e6f742061646d696e000000000000000000000000000000005f82015250565b5f610c57601083610a63565b9150610c6282610c23565b602082019050919050565b5f6020820190508181035f830152610c8481610c4b565b9050919050565b7f4e487b71000000000000000000000000000000000000000000000000000000005f52602260045260245ffd5b5f6002820490506001821680610ccf57607f821691505b602082108103610ce257610ce1610c8b565b5b50919050565b5f819050815f5260205f209050919050565b5f6020601f8301049050919050565b5f82821b905092915050565b5f60088302610d447fffffffffffffffffffffffffffffffffffffffffffffffffffffffffffffffff82610d09565b610d4e8683610d09565b95508019841693508086168417925050509392505050565b5f819050919050565b5f610d89610d84610d7f8461096c565b610d66565b61096c565b9050919050565b5f819050919050565b610da283610d6f565b610db6610dae82610d90565b848454610d15565b825550505050565b5f90565b610dca610dbe565b610dd5818484610d99565b505050565b5b81811015610df857610ded5f82610dc2565b600181019050610ddb565b5050565b601f821115610e3d57610e0e81610ce8565b610e1784610cfa565b81016020851015610e26578190505b610e3a610e3285610cfa565b830182610dda565b50505b505050565b5f82821c905092915050565b5f610e5d5f1984600802610e42565b1980831691505092915050565b5f610e758383610e4e565b9150826002028217905092915050565b610e8e82610a59565b67ffffffffffffffff811115610ea757610ea66107cb565b5b610eb18254610cb8565b610ebc828285610dfc565b5f60209050601f831160018114610eed575f8415610edb578287015190505b610ee58582610e6a565b865550610f4c565b601f198416610efb86610ce8565b5f5b82811015610f2257848901518255600182019150602085019450602081019050610efd565b86831015610f3f5784890151610f3b601f891682610e4e565b8355505b6001600288020188555050505b505050505050565b7f4e487b71000000000000000000000000000000000000000000000000000000005f52601160045260245ffd5b5f610f8b8261096c565b91507fffffffffffffffffffffffffffffffffffffffffffffffffffffffffffffffff8203610fbd57610fbc610f54565b5b600182019050919050565b7f43757272656e742074696d652073686f756c64206265206c657373207468616e5f8201527f2053746172742074696d6520616e642f6f7220656e642074696d652e00000000602082015250565b5f611022603c83610a63565b915061102d82610fc8565b604082019050919050565b5f6020820190508181035f83015261104f81611016565b905091905056fea2646970667358221220045de9101763457b0398f988ddffa1b77a47ff04ef8fb8248c54cc4f6b345f0464736f6c634300081a0033",
			"opcodes": "PUSH1 0x80 PUSH1 0x40 MSTORE PUSH1 0x1 DUP1 SSTORE CALLVALUE DUP1 ISZERO PUSH1 0x12 JUMPI PUSH0 DUP1 REVERT JUMPDEST POP CALLER PUSH0 DUP1 PUSH2 0x100 EXP DUP2 SLOAD DUP2 PUSH20 0xFFFFFFFFFFFFFFFFFFFFFFFFFFFFFFFFFFFFFFFF MUL NOT AND SWAP1 DUP4 PUSH20 0xFFFFFFFFFFFFFFFFFFFFFFFFFFFFFFFFFFFFFFFF AND MUL OR SWAP1 SSTORE POP PUSH2 0x108C DUP1 PUSH2 0x5F PUSH0 CODECOPY PUSH0 RETURN INVALID PUSH1 0x80 PUSH1 0x40 MSTORE CALLVALUE DUP1 ISZERO PUSH2 0xF JUMPI PUSH0 DUP1 REVERT JUMPDEST POP PUSH1 0x4 CALLDATASIZE LT PUSH2 0x55 JUMPI PUSH0 CALLDATALOAD PUSH1 0xE0 SHR DUP1 PUSH4 0x1EB58F6 EQ PUSH2 0x59 JUMPI DUP1 PUSH4 0x3EB76B9C EQ PUSH2 0x75 JUMPI DUP1 PUSH4 0x8D4FD934 EQ PUSH2 0x91 JUMPI DUP1 PUSH4 0x8DD91A56 EQ PUSH2 0xAD JUMPI DUP1 PUSH4 0xD8BFF5A5 EQ PUSH2 0xE1 JUMPI JUMPDEST PUSH0 DUP1 REVERT JUMPDEST PUSH2 0x73 PUSH1 0x4 DUP1 CALLDATASIZE SUB DUP2 ADD SWAP1 PUSH2 0x6E SWAP2 SWAP1 PUSH2 0x912 JUMP JUMPDEST PUSH2 0x115 JUMP JUMPDEST STOP JUMPDEST PUSH2 0x8F PUSH1 0x4 DUP1 CALLDATASIZE SUB DUP2 ADD SWAP1 PUSH2 0x8A SWAP2 SWAP1 PUSH2 0x99F JUMP JUMPDEST PUSH2 0x286 JUMP JUMPDEST STOP JUMPDEST PUSH2 0xAB PUSH1 0x4 DUP1 CALLDATASIZE SUB DUP2 ADD SWAP1 PUSH2 0xA6 SWAP2 SWAP1 PUSH2 0x9CA JUMP JUMPDEST PUSH2 0x436 JUMP JUMPDEST STOP JUMPDEST PUSH2 0xC7 PUSH1 0x4 DUP1 CALLDATASIZE SUB DUP2 ADD SWAP1 PUSH2 0xC2 SWAP2 SWAP1 PUSH2 0x99F JUMP JUMPDEST PUSH2 0x602 JUMP JUMPDEST PUSH1 0x40 MLOAD PUSH2 0xD8 SWAP6 SWAP5 SWAP4 SWAP3 SWAP2 SWAP1 PUSH2 0xB46 JUMP JUMPDEST PUSH1 0x40 MLOAD DUP1 SWAP2 SUB SWAP1 RETURN JUMPDEST PUSH2 0xFB PUSH1 0x4 DUP1 CALLDATASIZE SUB DUP2 ADD SWAP1 PUSH2 0xF6 SWAP2 SWAP1 PUSH2 0xBF8 JUMP JUMPDEST PUSH2 0x6D2 JUMP JUMPDEST PUSH1 0x40 MLOAD PUSH2 0x10C SWAP6 SWAP5 SWAP4 SWAP3 SWAP2 SWAP1 PUSH2 0xB46 JUMP JUMPDEST PUSH1 0x40 MLOAD DUP1 SWAP2 SUB SWAP1 RETURN JUMPDEST PUSH0 DUP1 SLOAD SWAP1 PUSH2 0x100 EXP SWAP1 DIV PUSH20 0xFFFFFFFFFFFFFFFFFFFFFFFFFFFFFFFFFFFFFFFF AND PUSH20 0xFFFFFFFFFFFFFFFFFFFFFFFFFFFFFFFFFFFFFFFF AND CALLER PUSH20 0xFFFFFFFFFFFFFFFFFFFFFFFFFFFFFFFFFFFFFFFF AND EQ PUSH2 0x1A2 JUMPI PUSH1 0x40 MLOAD PUSH32 0x8C379A000000000000000000000000000000000000000000000000000000000 DUP2 MSTORE PUSH1 0x4 ADD PUSH2 0x199 SWAP1 PUSH2 0xC6D JUMP JUMPDEST PUSH1 0x40 MLOAD DUP1 SWAP2 SUB SWAP1 REVERT JUMPDEST PUSH1 0x40 MLOAD DUP1 PUSH1 0xA0 ADD PUSH1 0x40 MSTORE DUP1 PUSH1 0x1 SLOAD DUP2 MSTORE PUSH1 0x20 ADD DUP4 DUP2 MSTORE PUSH1 0x20 ADD DUP3 PUSH1 0x9 DUP2 GT ISZERO PUSH2 0x1CE JUMPI PUSH2 0x1CD PUSH2 0xAB9 JUMP JUMPDEST JUMPDEST DUP2 MSTORE PUSH1 0x20 ADD PUSH0 DUP2 MSTORE PUSH1 0x20 ADD PUSH0 ISZERO ISZERO DUP2 MSTORE POP PUSH1 0x2 PUSH0 PUSH1 0x1 SLOAD DUP2 MSTORE PUSH1 0x20 ADD SWAP1 DUP2 MSTORE PUSH1 0x20 ADD PUSH0 KECCAK256 PUSH0 DUP3 ADD MLOAD DUP2 PUSH0 ADD SSTORE PUSH1 0x20 DUP3 ADD MLOAD DUP2 PUSH1 0x1 ADD SWAP1 DUP2 PUSH2 0x20F SWAP2 SWAP1 PUSH2 0xE85 JUMP JUMPDEST POP PUSH1 0x40 DUP3 ADD MLOAD DUP2 PUSH1 0x2 ADD PUSH0 PUSH2 0x100 EXP DUP2 SLOAD DUP2 PUSH1 0xFF MUL NOT AND SWAP1 DUP4 PUSH1 0x9 DUP2 GT ISZERO PUSH2 0x23A JUMPI PUSH2 0x239 PUSH2 0xAB9 JUMP JUMPDEST JUMPDEST MUL OR SWAP1 SSTORE POP PUSH1 0x60 DUP3 ADD MLOAD DUP2 PUSH1 0x3 ADD SSTORE PUSH1 0x80 DUP3 ADD MLOAD DUP2 PUSH1 0x4 ADD PUSH0 PUSH2 0x100 EXP DUP2 SLOAD DUP2 PUSH1 0xFF MUL NOT AND SWAP1 DUP4 ISZERO ISZERO MUL OR SWAP1 SSTORE POP SWAP1 POP POP PUSH1 0x1 PUSH0 DUP2 SLOAD DUP1 SWAP3 SWAP2 SWAP1 PUSH2 0x27D SWAP1 PUSH2 0xF81 JUMP JUMPDEST SWAP2 SWAP1 POP SSTORE POP POP POP JUMP JUMPDEST PUSH1 0x40 MLOAD DUP1 PUSH1 0xA0 ADD PUSH1 0x40 MSTORE DUP1 PUSH1 0x1 SLOAD DUP2 MSTORE PUSH1 0x20 ADD PUSH1 0x2 PUSH0 DUP5 DUP2 MSTORE PUSH1 0x20 ADD SWAP1 DUP2 MSTORE PUSH1 0x20 ADD PUSH0 KECCAK256 PUSH1 0x1 ADD DUP1 SLOAD PUSH2 0x2B8 SWAP1 PUSH2 0xCB8 JUMP JUMPDEST DUP1 PUSH1 0x1F ADD PUSH1 0x20 DUP1 SWAP2 DIV MUL PUSH1 0x20 ADD PUSH1 0x40 MLOAD SWAP1 DUP2 ADD PUSH1 0x40 MSTORE DUP1 SWAP3 SWAP2 SWAP1 DUP2 DUP2 MSTORE PUSH1 0x20 ADD DUP3 DUP1 SLOAD PUSH2 0x2E4 SWAP1 PUSH2 0xCB8 JUMP JUMPDEST DUP1 ISZERO PUSH2 0x32F JUMPI DUP1 PUSH1 0x1F LT PUSH2 0x306 JUMPI PUSH2 0x100 DUP1 DUP4 SLOAD DIV MUL DUP4 MSTORE SWAP2 PUSH1 0x20 ADD SWAP2 PUSH2 0x32F JUMP JUMPDEST DUP3 ADD SWAP2 SWAP1 PUSH0 MSTORE PUSH1 0x20 PUSH0 KECCAK256 SWAP1 JUMPDEST DUP2 SLOAD DUP2 MSTORE SWAP1 PUSH1 0x1 ADD SWAP1 PUSH1 0x20 ADD DUP1 DUP4 GT PUSH2 0x312 JUMPI DUP3 SWAP1 SUB PUSH1 0x1F AND DUP3 ADD SWAP2 JUMPDEST POP POP POP POP POP DUP2 MSTORE PUSH1 0x20 ADD PUSH1 0x2 PUSH0 DUP5 DUP2 MSTORE PUSH1 0x20 ADD SWAP1 DUP2 MSTORE PUSH1 0x20 ADD PUSH0 KECCAK256 PUSH1 0x2 ADD PUSH0 SWAP1 SLOAD SWAP1 PUSH2 0x100 EXP SWAP1 DIV PUSH1 0xFF AND PUSH1 0x9 DUP2 GT ISZERO PUSH2 0x36C JUMPI PUSH2 0x36B PUSH2 0xAB9 JUMP JUMPDEST JUMPDEST DUP2 MSTORE PUSH1 0x20 ADD PUSH0 DUP2 MSTORE PUSH1 0x20 ADD PUSH0 ISZERO ISZERO DUP2 MSTORE POP PUSH1 0x4 PUSH0 CALLER PUSH20 0xFFFFFFFFFFFFFFFFFFFFFFFFFFFFFFFFFFFFFFFF AND PUSH20 0xFFFFFFFFFFFFFFFFFFFFFFFFFFFFFFFFFFFFFFFF AND DUP2 MSTORE PUSH1 0x20 ADD SWAP1 DUP2 MSTORE PUSH1 0x20 ADD PUSH0 KECCAK256 PUSH0 DUP3 ADD MLOAD DUP2 PUSH0 ADD SSTORE PUSH1 0x20 DUP3 ADD MLOAD DUP2 PUSH1 0x1 ADD SWAP1 DUP2 PUSH2 0x3D7 SWAP2 SWAP1 PUSH2 0xE85 JUMP JUMPDEST POP PUSH1 0x40 DUP3 ADD MLOAD DUP2 PUSH1 0x2 ADD PUSH0 PUSH2 0x100 EXP DUP2 SLOAD DUP2 PUSH1 0xFF MUL NOT AND SWAP1 DUP4 PUSH1 0x9 DUP2 GT ISZERO PUSH2 0x402 JUMPI PUSH2 0x401 PUSH2 0xAB9 JUMP JUMPDEST JUMPDEST MUL OR SWAP1 SSTORE POP PUSH1 0x60 DUP3 ADD MLOAD DUP2 PUSH1 0x3 ADD SSTORE PUSH1 0x80 DUP3 ADD MLOAD DUP2 PUSH1 0x4 ADD PUSH0 PUSH2 0x100 EXP DUP2 SLOAD DUP2 PUSH1 0xFF MUL NOT AND SWAP1 DUP4 ISZERO ISZERO MUL OR SWAP1 SSTORE POP SWAP1 POP POP POP JUMP JUMPDEST PUSH0 DUP1 SLOAD SWAP1 PUSH2 0x100 EXP SWAP1 DIV PUSH20 0xFFFFFFFFFFFFFFFFFFFFFFFFFFFFFFFFFFFFFFFF AND PUSH20 0xFFFFFFFFFFFFFFFFFFFFFFFFFFFFFFFFFFFFFFFF AND CALLER PUSH20 0xFFFFFFFFFFFFFFFFFFFFFFFFFFFFFFFFFFFFFFFF AND EQ PUSH2 0x4C3 JUMPI PUSH1 0x40 MLOAD PUSH32 0x8C379A000000000000000000000000000000000000000000000000000000000 DUP2 MSTORE PUSH1 0x4 ADD PUSH2 0x4BA SWAP1 PUSH2 0xC6D JUMP JUMPDEST PUSH1 0x40 MLOAD DUP1 SWAP2 SUB SWAP1 REVERT JUMPDEST DUP2 TIMESTAMP GT ISZERO DUP1 ISZERO PUSH2 0x4D3 JUMPI POP DUP1 TIMESTAMP GT ISZERO JUMPDEST PUSH2 0x512 JUMPI PUSH1 0x40 MLOAD PUSH32 0x8C379A000000000000000000000000000000000000000000000000000000000 DUP2 MSTORE PUSH1 0x4 ADD PUSH2 0x509 SWAP1 PUSH2 0x1038 JUMP JUMPDEST PUSH1 0x40 MLOAD DUP1 SWAP2 SUB SWAP1 REVERT JUMPDEST PUSH1 0x40 MLOAD DUP1 PUSH1 0xA0 ADD PUSH1 0x40 MSTORE DUP1 DUP6 PUSH1 0x9 DUP2 GT ISZERO PUSH2 0x530 JUMPI PUSH2 0x52F PUSH2 0xAB9 JUMP JUMPDEST JUMPDEST DUP2 MSTORE PUSH1 0x20 ADD DUP5 DUP2 MSTORE PUSH1 0x20 ADD DUP4 DUP2 MSTORE PUSH1 0x20 ADD DUP3 DUP2 MSTORE PUSH1 0x20 ADD PUSH1 0x1 ISZERO ISZERO DUP2 MSTORE POP PUSH1 0x3 PUSH0 DUP7 PUSH1 0x9 DUP2 GT ISZERO PUSH2 0x564 JUMPI PUSH2 0x563 PUSH2 0xAB9 JUMP JUMPDEST JUMPDEST PUSH1 0x9 DUP2 GT ISZERO PUSH2 0x576 JUMPI PUSH2 0x575 PUSH2 0xAB9 JUMP JUMPDEST JUMPDEST DUP2 MSTORE PUSH1 0x20 ADD SWAP1 DUP2 MSTORE PUSH1 0x20 ADD PUSH0 KECCAK256 PUSH0 DUP3 ADD MLOAD DUP2 PUSH0 ADD PUSH0 PUSH2 0x100 EXP DUP2 SLOAD DUP2 PUSH1 0xFF MUL NOT AND SWAP1 DUP4 PUSH1 0x9 DUP2 GT ISZERO PUSH2 0x5AB JUMPI PUSH2 0x5AA PUSH2 0xAB9 JUMP JUMPDEST JUMPDEST MUL OR SWAP1 SSTORE POP PUSH1 0x20 DUP3 ADD MLOAD DUP2 PUSH1 0x1 ADD SWAP1 DUP2 PUSH2 0x5C5 SWAP2 SWAP1 PUSH2 0xE85 JUMP JUMPDEST POP PUSH1 0x40 DUP3 ADD MLOAD DUP2 PUSH1 0x2 ADD SSTORE PUSH1 0x60 DUP3 ADD MLOAD DUP2 PUSH1 0x3 ADD SSTORE PUSH1 0x80 DUP3 ADD MLOAD DUP2 PUSH1 0x4 ADD PUSH0 PUSH2 0x100 EXP DUP2 SLOAD DUP2 PUSH1 0xFF MUL NOT AND SWAP1 DUP4 ISZERO ISZERO MUL OR SWAP1 SSTORE POP SWAP1 POP POP POP POP POP POP JUMP JUMPDEST PUSH1 0x2 PUSH1 0x20 MSTORE DUP1 PUSH0 MSTORE PUSH1 0x40 PUSH0 KECCAK256 PUSH0 SWAP2 POP SWAP1 POP DUP1 PUSH0 ADD SLOAD SWAP1 DUP1 PUSH1 0x1 ADD DUP1 SLOAD PUSH2 0x627 SWAP1 PUSH2 0xCB8 JUMP JUMPDEST DUP1 PUSH1 0x1F ADD PUSH1 0x20 DUP1 SWAP2 DIV MUL PUSH1 0x20 ADD PUSH1 0x40 MLOAD SWAP1 DUP2 ADD PUSH1 0x40 MSTORE DUP1 SWAP3 SWAP2 SWAP1 DUP2 DUP2 MSTORE PUSH1 0x20 ADD DUP3 DUP1 SLOAD PUSH2 0x653 SWAP1 PUSH2 0xCB8 JUMP JUMPDEST DUP1 ISZERO PUSH2 0x69E JUMPI DUP1 PUSH1 0x1F LT PUSH2 0x675 JUMPI PUSH2 0x100 DUP1 DUP4 SLOAD DIV MUL DUP4 MSTORE SWAP2 PUSH1 0x20 ADD SWAP2 PUSH2 0x69E JUMP JUMPDEST DUP3 ADD SWAP2 SWAP1 PUSH0 MSTORE PUSH1 0x20 PUSH0 KECCAK256 SWAP1 JUMPDEST DUP2 SLOAD DUP2 MSTORE SWAP1 PUSH1 0x1 ADD SWAP1 PUSH1 0x20 ADD DUP1 DUP4 GT PUSH2 0x681 JUMPI DUP3 SWAP1 SUB PUSH1 0x1F AND DUP3 ADD SWAP2 JUMPDEST POP POP POP POP POP SWAP1 DUP1 PUSH1 0x2 ADD PUSH0 SWAP1 SLOAD SWAP1 PUSH2 0x100 EXP SWAP1 DIV PUSH1 0xFF AND SWAP1 DUP1 PUSH1 0x3 ADD SLOAD SWAP1 DUP1 PUSH1 0x4 ADD PUSH0 SWAP1 SLOAD SWAP1 PUSH2 0x100 EXP SWAP1 DIV PUSH1 0xFF AND SWAP1 POP DUP6 JUMP JUMPDEST PUSH1 0x4 PUSH1 0x20 MSTORE DUP1 PUSH0 MSTORE PUSH1 0x40 PUSH0 KECCAK256 PUSH0 SWAP2 POP SWAP1 POP DUP1 PUSH0 ADD SLOAD SWAP1 DUP1 PUSH1 0x1 ADD DUP1 SLOAD PUSH2 0x6F7 SWAP1 PUSH2 0xCB8 JUMP JUMPDEST DUP1 PUSH1 0x1F ADD PUSH1 0x20 DUP1 SWAP2 DIV MUL PUSH1 0x20 ADD PUSH1 0x40 MLOAD SWAP1 DUP2 ADD PUSH1 0x40 MSTORE DUP1 SWAP3 SWAP2 SWAP1 DUP2 DUP2 MSTORE PUSH1 0x20 ADD DUP3 DUP1 SLOAD PUSH2 0x723 SWAP1 PUSH2 0xCB8 JUMP JUMPDEST DUP1 ISZERO PUSH2 0x76E JUMPI DUP1 PUSH1 0x1F LT PUSH2 0x745 JUMPI PUSH2 0x100 DUP1 DUP4 SLOAD DIV MUL DUP4 MSTORE SWAP2 PUSH1 0x20 ADD SWAP2 PUSH2 0x76E JUMP JUMPDEST DUP3 ADD SWAP2 SWAP1 PUSH0 MSTORE PUSH1 0x20 PUSH0 KECCAK256 SWAP1 JUMPDEST DUP2 SLOAD DUP2 MSTORE SWAP1 PUSH1 0x1 ADD SWAP1 PUSH1 0x20 ADD DUP1 DUP4 GT PUSH2 0x751 JUMPI DUP3 SWAP1 SUB PUSH1 0x1F AND DUP3 ADD SWAP2 JUMPDEST POP POP POP POP POP SWAP1 DUP1 PUSH1 0x2 ADD PUSH0 SWAP1 SLOAD SWAP1 PUSH2 0x100 EXP SWAP1 DIV PUSH1 0xFF AND SWAP1 DUP1 PUSH1 0x3 ADD SLOAD SWAP1 DUP1 PUSH1 0x4 ADD PUSH0 SWAP1 SLOAD SWAP1 PUSH2 0x100 EXP SWAP1 DIV PUSH1 0xFF AND SWAP1 POP DUP6 JUMP JUMPDEST PUSH0 PUSH1 0x40 MLOAD SWAP1 POP SWAP1 JUMP JUMPDEST PUSH0 DUP1 REVERT JUMPDEST PUSH0 DUP1 REVERT JUMPDEST PUSH0 DUP1 REVERT JUMPDEST PUSH0 DUP1 REVERT JUMPDEST PUSH0 PUSH1 0x1F NOT PUSH1 0x1F DUP4 ADD AND SWAP1 POP SWAP2 SWAP1 POP JUMP JUMPDEST PUSH32 0x4E487B7100000000000000000000000000000000000000000000000000000000 PUSH0 MSTORE PUSH1 0x41 PUSH1 0x4 MSTORE PUSH1 0x24 PUSH0 REVERT JUMPDEST PUSH2 0x801 DUP3 PUSH2 0x7BB JUMP JUMPDEST DUP2 ADD DUP2 DUP2 LT PUSH8 0xFFFFFFFFFFFFFFFF DUP3 GT OR ISZERO PUSH2 0x820 JUMPI PUSH2 0x81F PUSH2 0x7CB JUMP JUMPDEST JUMPDEST DUP1 PUSH1 0x40 MSTORE POP POP POP JUMP JUMPDEST PUSH0 PUSH2 0x832 PUSH2 0x7A2 JUMP JUMPDEST SWAP1 POP PUSH2 0x83E DUP3 DUP3 PUSH2 0x7F8 JUMP JUMPDEST SWAP2 SWAP1 POP JUMP JUMPDEST PUSH0 PUSH8 0xFFFFFFFFFFFFFFFF DUP3 GT ISZERO PUSH2 0x85D JUMPI PUSH2 0x85C PUSH2 0x7CB JUMP JUMPDEST JUMPDEST PUSH2 0x866 DUP3 PUSH2 0x7BB JUMP JUMPDEST SWAP1 POP PUSH1 0x20 DUP2 ADD SWAP1 POP SWAP2 SWAP1 POP JUMP JUMPDEST DUP3 DUP2 DUP4 CALLDATACOPY PUSH0 DUP4 DUP4 ADD MSTORE POP POP POP JUMP JUMPDEST PUSH0 PUSH2 0x893 PUSH2 0x88E DUP5 PUSH2 0x843 JUMP JUMPDEST PUSH2 0x829 JUMP JUMPDEST SWAP1 POP DUP3 DUP2 MSTORE PUSH1 0x20 DUP2 ADD DUP5 DUP5 DUP5 ADD GT ISZERO PUSH2 0x8AF JUMPI PUSH2 0x8AE PUSH2 0x7B7 JUMP JUMPDEST JUMPDEST PUSH2 0x8BA DUP5 DUP3 DUP6 PUSH2 0x873 JUMP JUMPDEST POP SWAP4 SWAP3 POP POP POP JUMP JUMPDEST PUSH0 DUP3 PUSH1 0x1F DUP4 ADD SLT PUSH2 0x8D6 JUMPI PUSH2 0x8D5 PUSH2 0x7B3 JUMP JUMPDEST JUMPDEST DUP2 CALLDATALOAD PUSH2 0x8E6 DUP5 DUP3 PUSH1 0x20 DUP7 ADD PUSH2 0x881 JUMP JUMPDEST SWAP2 POP POP SWAP3 SWAP2 POP POP JUMP JUMPDEST PUSH1 0xA DUP2 LT PUSH2 0x8FB JUMPI PUSH0 DUP1 REVERT JUMPDEST POP JUMP JUMPDEST PUSH0 DUP2 CALLDATALOAD SWAP1 POP PUSH2 0x90C DUP2 PUSH2 0x8EF JUMP JUMPDEST SWAP3 SWAP2 POP POP JUMP JUMPDEST PUSH0 DUP1 PUSH1 0x40 DUP4 DUP6 SUB SLT ISZERO PUSH2 0x928 JUMPI PUSH2 0x927 PUSH2 0x7AB JUMP JUMPDEST JUMPDEST PUSH0 DUP4 ADD CALLDATALOAD PUSH8 0xFFFFFFFFFFFFFFFF DUP2 GT ISZERO PUSH2 0x945 JUMPI PUSH2 0x944 PUSH2 0x7AF JUMP JUMPDEST JUMPDEST PUSH2 0x951 DUP6 DUP3 DUP7 ADD PUSH2 0x8C2 JUMP JUMPDEST SWAP3 POP POP PUSH1 0x20 PUSH2 0x962 DUP6 DUP3 DUP7 ADD PUSH2 0x8FE JUMP JUMPDEST SWAP2 POP POP SWAP3 POP SWAP3 SWAP1 POP JUMP JUMPDEST PUSH0 DUP2 SWAP1 POP SWAP2 SWAP1 POP JUMP JUMPDEST PUSH2 0x97E DUP2 PUSH2 0x96C JUMP JUMPDEST DUP2 EQ PUSH2 0x988 JUMPI PUSH0 DUP1 REVERT JUMPDEST POP JUMP JUMPDEST PUSH0 DUP2 CALLDATALOAD SWAP1 POP PUSH2 0x999 DUP2 PUSH2 0x975 JUMP JUMPDEST SWAP3 SWAP2 POP POP JUMP JUMPDEST PUSH0 PUSH1 0x20 DUP3 DUP5 SUB SLT ISZERO PUSH2 0x9B4 JUMPI PUSH2 0x9B3 PUSH2 0x7AB JUMP JUMPDEST JUMPDEST PUSH0 PUSH2 0x9C1 DUP5 DUP3 DUP6 ADD PUSH2 0x98B JUMP JUMPDEST SWAP2 POP POP SWAP3 SWAP2 POP POP JUMP JUMPDEST PUSH0 DUP1 PUSH0 DUP1 PUSH1 0x80 DUP6 DUP8 SUB SLT ISZERO PUSH2 0x9E2 JUMPI PUSH2 0x9E1 PUSH2 0x7AB JUMP JUMPDEST JUMPDEST PUSH0 PUSH2 0x9EF DUP8 DUP3 DUP9 ADD PUSH2 0x8FE JUMP JUMPDEST SWAP5 POP POP PUSH1 0x20 DUP6 ADD CALLDATALOAD PUSH8 0xFFFFFFFFFFFFFFFF DUP2 GT ISZERO PUSH2 0xA10 JUMPI PUSH2 0xA0F PUSH2 0x7AF JUMP JUMPDEST JUMPDEST PUSH2 0xA1C DUP8 DUP3 DUP9 ADD PUSH2 0x8C2 JUMP JUMPDEST SWAP4 POP POP PUSH1 0x40 PUSH2 0xA2D DUP8 DUP3 DUP9 ADD PUSH2 0x98B JUMP JUMPDEST SWAP3 POP POP PUSH1 0x60 PUSH2 0xA3E DUP8 DUP3 DUP9 ADD PUSH2 0x98B JUMP JUMPDEST SWAP2 POP POP SWAP3 SWAP6 SWAP2 SWAP5 POP SWAP3 POP JUMP JUMPDEST PUSH2 0xA53 DUP2 PUSH2 0x96C JUMP JUMPDEST DUP3 MSTORE POP POP JUMP JUMPDEST PUSH0 DUP2 MLOAD SWAP1 POP SWAP2 SWAP1 POP JUMP JUMPDEST PUSH0 DUP3 DUP3 MSTORE PUSH1 0x20 DUP3 ADD SWAP1 POP SWAP3 SWAP2 POP POP JUMP JUMPDEST DUP3 DUP2 DUP4 MCOPY PUSH0 DUP4 DUP4 ADD MSTORE POP POP POP JUMP JUMPDEST PUSH0 PUSH2 0xA8B DUP3 PUSH2 0xA59 JUMP JUMPDEST PUSH2 0xA95 DUP2 DUP6 PUSH2 0xA63 JUMP JUMPDEST SWAP4 POP PUSH2 0xAA5 DUP2 DUP6 PUSH1 0x20 DUP7 ADD PUSH2 0xA73 JUMP JUMPDEST PUSH2 0xAAE DUP2 PUSH2 0x7BB JUMP JUMPDEST DUP5 ADD SWAP2 POP POP SWAP3 SWAP2 POP POP JUMP JUMPDEST PUSH32 0x4E487B7100000000000000000000000000000000000000000000000000000000 PUSH0 MSTORE PUSH1 0x21 PUSH1 0x4 MSTORE PUSH1 0x24 PUSH0 REVERT JUMPDEST PUSH1 0xA DUP2 LT PUSH2 0xAF7 JUMPI PUSH2 0xAF6 PUSH2 0xAB9 JUMP JUMPDEST JUMPDEST POP JUMP JUMPDEST PUSH0 DUP2 SWAP1 POP PUSH2 0xB07 DUP3 PUSH2 0xAE6 JUMP JUMPDEST SWAP2 SWAP1 POP JUMP JUMPDEST PUSH0 PUSH2 0xB16 DUP3 PUSH2 0xAFA JUMP JUMPDEST SWAP1 POP SWAP2 SWAP1 POP JUMP JUMPDEST PUSH2 0xB26 DUP2 PUSH2 0xB0C JUMP JUMPDEST DUP3 MSTORE POP POP JUMP JUMPDEST PUSH0 DUP2 ISZERO ISZERO SWAP1 POP SWAP2 SWAP1 POP JUMP JUMPDEST PUSH2 0xB40 DUP2 PUSH2 0xB2C JUMP JUMPDEST DUP3 MSTORE POP POP JUMP JUMPDEST PUSH0 PUSH1 0xA0 DUP3 ADD SWAP1 POP PUSH2 0xB59 PUSH0 DUP4 ADD DUP9 PUSH2 0xA4A JUMP JUMPDEST DUP2 DUP2 SUB PUSH1 0x20 DUP4 ADD MSTORE PUSH2 0xB6B DUP2 DUP8 PUSH2 0xA81 JUMP JUMPDEST SWAP1 POP PUSH2 0xB7A PUSH1 0x40 DUP4 ADD DUP7 PUSH2 0xB1D JUMP JUMPDEST PUSH2 0xB87 PUSH1 0x60 DUP4 ADD DUP6 PUSH2 0xA4A JUMP JUMPDEST PUSH2 0xB94 PUSH1 0x80 DUP4 ADD DUP5 PUSH2 0xB37 JUMP JUMPDEST SWAP7 SWAP6 POP POP POP POP POP POP JUMP JUMPDEST PUSH0 PUSH20 0xFFFFFFFFFFFFFFFFFFFFFFFFFFFFFFFFFFFFFFFF DUP3 AND SWAP1 POP SWAP2 SWAP1 POP JUMP JUMPDEST PUSH0 PUSH2 0xBC7 DUP3 PUSH2 0xB9E JUMP JUMPDEST SWAP1 POP SWAP2 SWAP1 POP JUMP JUMPDEST PUSH2 0xBD7 DUP2 PUSH2 0xBBD JUMP JUMPDEST DUP2 EQ PUSH2 0xBE1 JUMPI PUSH0 DUP1 REVERT JUMPDEST POP JUMP JUMPDEST PUSH0 DUP2 CALLDATALOAD SWAP1 POP PUSH2 0xBF2 DUP2 PUSH2 0xBCE JUMP JUMPDEST SWAP3 SWAP2 POP POP JUMP JUMPDEST PUSH0 PUSH1 0x20 DUP3 DUP5 SUB SLT ISZERO PUSH2 0xC0D JUMPI PUSH2 0xC0C PUSH2 0x7AB JUMP JUMPDEST JUMPDEST PUSH0 PUSH2 0xC1A DUP5 DUP3 DUP6 ADD PUSH2 0xBE4 JUMP JUMPDEST SWAP2 POP POP SWAP3 SWAP2 POP POP JUMP JUMPDEST PUSH32 0x596F75277265206E6F742061646D696E00000000000000000000000000000000 PUSH0 DUP3 ADD MSTORE POP JUMP JUMPDEST PUSH0 PUSH2 0xC57 PUSH1 0x10 DUP4 PUSH2 0xA63 JUMP JUMPDEST SWAP2 POP PUSH2 0xC62 DUP3 PUSH2 0xC23 JUMP JUMPDEST PUSH1 0x20 DUP3 ADD SWAP1 POP SWAP2 SWAP1 POP JUMP JUMPDEST PUSH0 PUSH1 0x20 DUP3 ADD SWAP1 POP DUP2 DUP2 SUB PUSH0 DUP4 ADD MSTORE PUSH2 0xC84 DUP2 PUSH2 0xC4B JUMP JUMPDEST SWAP1 POP SWAP2 SWAP1 POP JUMP JUMPDEST PUSH32 0x4E487B7100000000000000000000000000000000000000000000000000000000 PUSH0 MSTORE PUSH1 0x22 PUSH1 0x4 MSTORE PUSH1 0x24 PUSH0 REVERT JUMPDEST PUSH0 PUSH1 0x2 DUP3 DIV SWAP1 POP PUSH1 0x1 DUP3 AND DUP1 PUSH2 0xCCF JUMPI PUSH1 0x7F DUP3 AND SWAP2 POP JUMPDEST PUSH1 0x20 DUP3 LT DUP2 SUB PUSH2 0xCE2 JUMPI PUSH2 0xCE1 PUSH2 0xC8B JUMP JUMPDEST JUMPDEST POP SWAP2 SWAP1 POP JUMP JUMPDEST PUSH0 DUP2 SWAP1 POP DUP2 PUSH0 MSTORE PUSH1 0x20 PUSH0 KECCAK256 SWAP1 POP SWAP2 SWAP1 POP JUMP JUMPDEST PUSH0 PUSH1 0x20 PUSH1 0x1F DUP4 ADD DIV SWAP1 POP SWAP2 SWAP1 POP JUMP JUMPDEST PUSH0 DUP3 DUP3 SHL SWAP1 POP SWAP3 SWAP2 POP POP JUMP JUMPDEST PUSH0 PUSH1 0x8 DUP4 MUL PUSH2 0xD44 PUSH32 0xFFFFFFFFFFFFFFFFFFFFFFFFFFFFFFFFFFFFFFFFFFFFFFFFFFFFFFFFFFFFFFFF DUP3 PUSH2 0xD09 JUMP JUMPDEST PUSH2 0xD4E DUP7 DUP4 PUSH2 0xD09 JUMP JUMPDEST SWAP6 POP DUP1 NOT DUP5 AND SWAP4 POP DUP1 DUP7 AND DUP5 OR SWAP3 POP POP POP SWAP4 SWAP3 POP POP POP JUMP JUMPDEST PUSH0 DUP2 SWAP1 POP SWAP2 SWAP1 POP JUMP JUMPDEST PUSH0 PUSH2 0xD89 PUSH2 0xD84 PUSH2 0xD7F DUP5 PUSH2 0x96C JUMP JUMPDEST PUSH2 0xD66 JUMP JUMPDEST PUSH2 0x96C JUMP JUMPDEST SWAP1 POP SWAP2 SWAP1 POP JUMP JUMPDEST PUSH0 DUP2 SWAP1 POP SWAP2 SWAP1 POP JUMP JUMPDEST PUSH2 0xDA2 DUP4 PUSH2 0xD6F JUMP JUMPDEST PUSH2 0xDB6 PUSH2 0xDAE DUP3 PUSH2 0xD90 JUMP JUMPDEST DUP5 DUP5 SLOAD PUSH2 0xD15 JUMP JUMPDEST DUP3 SSTORE POP POP POP POP JUMP JUMPDEST PUSH0 SWAP1 JUMP JUMPDEST PUSH2 0xDCA PUSH2 0xDBE JUMP JUMPDEST PUSH2 0xDD5 DUP2 DUP5 DUP5 PUSH2 0xD99 JUMP JUMPDEST POP POP POP JUMP JUMPDEST JUMPDEST DUP2 DUP2 LT ISZERO PUSH2 0xDF8 JUMPI PUSH2 0xDED PUSH0 DUP3 PUSH2 0xDC2 JUMP JUMPDEST PUSH1 0x1 DUP2 ADD SWAP1 POP PUSH2 0xDDB JUMP JUMPDEST POP POP JUMP JUMPDEST PUSH1 0x1F DUP3 GT ISZERO PUSH2 0xE3D JUMPI PUSH2 0xE0E DUP2 PUSH2 0xCE8 JUMP JUMPDEST PUSH2 0xE17 DUP5 PUSH2 0xCFA JUMP JUMPDEST DUP2 ADD PUSH1 0x20 DUP6 LT ISZERO PUSH2 0xE26 JUMPI DUP2 SWAP1 POP JUMPDEST PUSH2 0xE3A PUSH2 0xE32 DUP6 PUSH2 0xCFA JUMP JUMPDEST DUP4 ADD DUP3 PUSH2 0xDDA JUMP JUMPDEST POP POP JUMPDEST POP POP POP JUMP JUMPDEST PUSH0 DUP3 DUP3 SHR SWAP1 POP SWAP3 SWAP2 POP POP JUMP JUMPDEST PUSH0 PUSH2 0xE5D PUSH0 NOT DUP5 PUSH1 0x8 MUL PUSH2 0xE42 JUMP JUMPDEST NOT DUP1 DUP4 AND SWAP2 POP POP SWAP3 SWAP2 POP POP JUMP JUMPDEST PUSH0 PUSH2 0xE75 DUP4 DUP4 PUSH2 0xE4E JUMP JUMPDEST SWAP2 POP DUP3 PUSH1 0x2 MUL DUP3 OR SWAP1 POP SWAP3 SWAP2 POP POP JUMP JUMPDEST PUSH2 0xE8E DUP3 PUSH2 0xA59 JUMP JUMPDEST PUSH8 0xFFFFFFFFFFFFFFFF DUP2 GT ISZERO PUSH2 0xEA7 JUMPI PUSH2 0xEA6 PUSH2 0x7CB JUMP JUMPDEST JUMPDEST PUSH2 0xEB1 DUP3 SLOAD PUSH2 0xCB8 JUMP JUMPDEST PUSH2 0xEBC DUP3 DUP3 DUP6 PUSH2 0xDFC JUMP JUMPDEST PUSH0 PUSH1 0x20 SWAP1 POP PUSH1 0x1F DUP4 GT PUSH1 0x1 DUP2 EQ PUSH2 0xEED JUMPI PUSH0 DUP5 ISZERO PUSH2 0xEDB JUMPI DUP3 DUP8 ADD MLOAD SWAP1 POP JUMPDEST PUSH2 0xEE5 DUP6 DUP3 PUSH2 0xE6A JUMP JUMPDEST DUP7 SSTORE POP PUSH2 0xF4C JUMP JUMPDEST PUSH1 0x1F NOT DUP5 AND PUSH2 0xEFB DUP7 PUSH2 0xCE8 JUMP JUMPDEST PUSH0 JUMPDEST DUP3 DUP2 LT ISZERO PUSH2 0xF22 JUMPI DUP5 DUP10 ADD MLOAD DUP3 SSTORE PUSH1 0x1 DUP3 ADD SWAP2 POP PUSH1 0x20 DUP6 ADD SWAP5 POP PUSH1 0x20 DUP2 ADD SWAP1 POP PUSH2 0xEFD JUMP JUMPDEST DUP7 DUP4 LT ISZERO PUSH2 0xF3F JUMPI DUP5 DUP10 ADD MLOAD PUSH2 0xF3B PUSH1 0x1F DUP10 AND DUP3 PUSH2 0xE4E JUMP JUMPDEST DUP4 SSTORE POP JUMPDEST PUSH1 0x1 PUSH1 0x2 DUP9 MUL ADD DUP9 SSTORE POP POP POP JUMPDEST POP POP POP POP POP POP JUMP JUMPDEST PUSH32 0x4E487B7100000000000000000000000000000000000000000000000000000000 PUSH0 MSTORE PUSH1 0x11 PUSH1 0x4 MSTORE PUSH1 0x24 PUSH0 REVERT JUMPDEST PUSH0 PUSH2 0xF8B DUP3 PUSH2 0x96C JUMP JUMPDEST SWAP2 POP PUSH32 0xFFFFFFFFFFFFFFFFFFFFFFFFFFFFFFFFFFFFFFFFFFFFFFFFFFFFFFFFFFFFFFFF DUP3 SUB PUSH2 0xFBD JUMPI PUSH2 0xFBC PUSH2 0xF54 JUMP JUMPDEST JUMPDEST PUSH1 0x1 DUP3 ADD SWAP1 POP SWAP2 SWAP1 POP JUMP JUMPDEST PUSH32 0x43757272656E742074696D652073686F756C64206265206C657373207468616E PUSH0 DUP3 ADD MSTORE PUSH32 0x2053746172742074696D6520616E642F6F7220656E642074696D652E00000000 PUSH1 0x20 DUP3 ADD MSTORE POP JUMP JUMPDEST PUSH0 PUSH2 0x1022 PUSH1 0x3C DUP4 PUSH2 0xA63 JUMP JUMPDEST SWAP2 POP PUSH2 0x102D DUP3 PUSH2 0xFC8 JUMP JUMPDEST PUSH1 0x40 DUP3 ADD SWAP1 POP SWAP2 SWAP1 POP JUMP JUMPDEST PUSH0 PUSH1 0x20 DUP3 ADD SWAP1 POP DUP2 DUP2 SUB PUSH0 DUP4 ADD MSTORE PUSH2 0x104F DUP2 PUSH2 0x1016 JUMP JUMPDEST SWAP1 POP SWAP2 SWAP1 POP JUMP INVALID LOG2 PUSH5 0x6970667358 0x22 SLT KECCAK256 DIV TSTORE 0xE9 LT OR PUSH4 0x457B0398 0xF9 DUP9 0xDD SELFDESTRUCT LOG1 0xB7 PUSH27 0x47FF04EF8FB8248C54CC4F6B345F0464736F6C634300081A003300 "
		},
		"gasEstimates": {
			"creation": {
				"codeDepositCost": "847200",
				"executionCost": "47252",
				"totalCost": "894452"
			},
			"external": {
				"addProject(string,uint8)": "infinite",
				"castVote(uint256)": "infinite",
				"projectDetails(uint256)": "infinite",
				"startVotingCampaign(uint8,string,uint256,uint256)": "infinite",
				"votes(address)": "infinite"
			}
		},
		"methodIdentifiers": {
			"addProject(string,uint8)": "01eb58f6",
			"castVote(uint256)": "3eb76b9c",
			"projectDetails(uint256)": "8dd91a56",
			"startVotingCampaign(uint8,string,uint256,uint256)": "8d4fd934",
			"votes(address)": "d8bff5a5"
		}
	},
	"abi": [
		{
			"inputs": [],
			"stateMutability": "nonpayable",
			"type": "constructor"
		},
		{
			"inputs": [
				{
					"internalType": "string",
					"name": "_name",
					"type": "string"
				},
				{
					"internalType": "enum projectVotes.ProjectCategory",
					"name": "_projectCategory",
					"type": "uint8"
				}
			],
			"name": "addProject",
			"outputs": [],
			"stateMutability": "nonpayable",
			"type": "function"
		},
		{
			"inputs": [
				{
					"internalType": "uint256",
					"name": "_projectId",
					"type": "uint256"
				}
			],
			"name": "castVote",
			"outputs": [],
			"stateMutability": "nonpayable",
			"type": "function"
		},
		{
			"inputs": [
				{
					"internalType": "uint256",
					"name": "",
					"type": "uint256"
				}
			],
			"name": "projectDetails",
			"outputs": [
				{
					"internalType": "uint256",
					"name": "projectId",
					"type": "uint256"
				},
				{
					"internalType": "string",
					"name": "projectName",
					"type": "string"
				},
				{
					"internalType": "enum projectVotes.ProjectCategory",
					"name": "projectCategory",
					"type": "uint8"
				},
				{
					"internalType": "uint256",
					"name": "voteCount",
					"type": "uint256"
				},
				{
					"internalType": "bool",
					"name": "votedOnce",
					"type": "bool"
				}
			],
			"stateMutability": "view",
			"type": "function"
		},
		{
			"inputs": [
				{
					"internalType": "enum projectVotes.ProjectCategory",
					"name": "_projectCategory",
					"type": "uint8"
				},
				{
					"internalType": "string",
					"name": "_campaignName",
					"type": "string"
				},
				{
					"internalType": "uint256",
					"name": "_startTime",
					"type": "uint256"
				},
				{
					"internalType": "uint256",
					"name": "_endTime",
					"type": "uint256"
				}
			],
			"name": "startVotingCampaign",
			"outputs": [],
			"stateMutability": "nonpayable",
			"type": "function"
		},
		{
			"inputs": [
				{
					"internalType": "address",
					"name": "",
					"type": "address"
				}
			],
			"name": "votes",
			"outputs": [
				{
					"internalType": "uint256",
					"name": "projectId",
					"type": "uint256"
				},
				{
					"internalType": "string",
					"name": "projectName",
					"type": "string"
				},
				{
					"internalType": "enum projectVotes.ProjectCategory",
					"name": "projectCategory",
					"type": "uint8"
				},
				{
					"internalType": "uint256",
					"name": "voteCount",
					"type": "uint256"
				},
				{
					"internalType": "bool",
					"name": "votedOnce",
					"type": "bool"
				}
			],
			"stateMutability": "view",
			"type": "function"
		}
	]
}