{
	"Property registration platfrom/propDapp.sol": {
		"PropDapp": {
			"abi": [
				{
					"inputs": [],
					"stateMutability": "nonpayable",
					"type": "constructor"
				},
				{
					"inputs": [
						{
							"internalType": "string",
							"name": "_ownerName",
							"type": "string"
						},
						{
							"internalType": "address",
							"name": "_ownerAddress",
							"type": "address"
						},
						{
							"internalType": "string",
							"name": "_propLocation",
							"type": "string"
						}
					],
					"name": "registerProperty",
					"outputs": [],
					"stateMutability": "nonpayable",
					"type": "function"
				}
			],
			"devdoc": {
				"kind": "dev",
				"methods": {},
				"version": 1
			},
			"evm": {
				"assembly": "    /* \"Property registration platfrom/propDapp.sol\":1659:2558  contract PropDapp {... */\n  mstore(0x40, 0x80)\n    /* \"Property registration platfrom/propDapp.sol\":1998:1999  1 */\n  0x01\n    /* \"Property registration platfrom/propDapp.sol\":1976:1999  uint nextPropertyId = 1 */\n  dup1\n  sstore\n    /* \"Property registration platfrom/propDapp.sol\":1702:1748  constructor () {... */\n  callvalue\n  dup1\n  iszero\n  tag_1\n  jumpi\n  0x00\n  dup1\n  revert\ntag_1:\n  pop\n    /* \"Property registration platfrom/propDapp.sol\":1732:1742  msg.sender */\n  caller\n    /* \"Property registration platfrom/propDapp.sol\":1724:1729  owner */\n  0x00\n  dup1\n    /* \"Property registration platfrom/propDapp.sol\":1724:1742  owner = msg.sender */\n  0x0100\n  exp\n  dup2\n  sload\n  dup2\n  0xffffffffffffffffffffffffffffffffffffffff\n  mul\n  not\n  and\n  swap1\n  dup4\n  0xffffffffffffffffffffffffffffffffffffffff\n  and\n  mul\n  or\n  swap1\n  sstore\n  pop\n    /* \"Property registration platfrom/propDapp.sol\":1659:2558  contract PropDapp {... */\n  dataSize(sub_0)\n  dup1\n  dataOffset(sub_0)\n  0x00\n  codecopy\n  0x00\n  return\nstop\n\nsub_0: assembly {\n        /* \"Property registration platfrom/propDapp.sol\":1659:2558  contract PropDapp {... */\n      mstore(0x40, 0x80)\n      callvalue\n      dup1\n      iszero\n      tag_1\n      jumpi\n      0x00\n      dup1\n      revert\n    tag_1:\n      pop\n      jumpi(tag_2, lt(calldatasize, 0x04))\n      shr(0xe0, calldataload(0x00))\n      dup1\n      0x0a1ba0b6\n      eq\n      tag_3\n      jumpi\n    tag_2:\n      0x00\n      dup1\n      revert\n        /* \"Property registration platfrom/propDapp.sol\":2106:2539  function registerProperty (... */\n    tag_3:\n      tag_4\n      0x04\n      dup1\n      calldatasize\n      sub\n      dup2\n      add\n      swap1\n      tag_5\n      swap2\n      swap1\n      tag_6\n      jump\t// in\n    tag_5:\n      tag_7\n      jump\t// in\n    tag_4:\n      stop\n    tag_7:\n        /* \"Property registration platfrom/propDapp.sol\":1804:1809  owner */\n      0x00\n      dup1\n      sload\n      swap1\n      0x0100\n      exp\n      swap1\n      div\n      0xffffffffffffffffffffffffffffffffffffffff\n      and\n        /* \"Property registration platfrom/propDapp.sol\":1790:1809  msg.sender == owner */\n      0xffffffffffffffffffffffffffffffffffffffff\n      and\n        /* \"Property registration platfrom/propDapp.sol\":1790:1800  msg.sender */\n      caller\n        /* \"Property registration platfrom/propDapp.sol\":1790:1809  msg.sender == owner */\n      0xffffffffffffffffffffffffffffffffffffffff\n      and\n      eq\n        /* \"Property registration platfrom/propDapp.sol\":1782:1830  require(msg.sender == owner, \"You're not owner\") */\n      tag_9\n      jumpi\n      mload(0x40)\n      0x08c379a000000000000000000000000000000000000000000000000000000000\n      dup2\n      mstore\n      0x04\n      add\n      tag_10\n      swap1\n      tag_11\n      jump\t// in\n    tag_10:\n      mload(0x40)\n      dup1\n      swap2\n      sub\n      swap1\n      revert\n    tag_9:\n        /* \"Property registration platfrom/propDapp.sol\":2303:2504  Property (... */\n      mload(0x40)\n      dup1\n      0x80\n      add\n      0x40\n      mstore\n      dup1\n        /* \"Property registration platfrom/propDapp.sol\":2347:2361  nextPropertyId */\n      sload(0x01)\n        /* \"Property registration platfrom/propDapp.sol\":2303:2504  Property (... */\n      dup2\n      mstore\n      0x20\n      add\n        /* \"Property registration platfrom/propDapp.sol\":2388:2398  _ownerName */\n      dup7\n      dup7\n        /* \"Property registration platfrom/propDapp.sol\":2303:2504  Property (... */\n      dup1\n      dup1\n      0x1f\n      add\n      0x20\n      dup1\n      swap2\n      div\n      mul\n      0x20\n      add\n      mload(0x40)\n      swap1\n      dup2\n      add\n      0x40\n      mstore\n      dup1\n      swap4\n      swap3\n      swap2\n      swap1\n      dup2\n      dup2\n      mstore\n      0x20\n      add\n      dup4\n      dup4\n      dup1\n      dup3\n      dup5\n      calldatacopy\n      0x00\n      dup2\n      dup5\n      add\n      mstore\n      not(0x1f)\n      0x1f\n      dup3\n      add\n      and\n      swap1\n      pop\n      dup1\n      dup4\n      add\n      swap3\n      pop\n      pop\n      pop\n      pop\n      pop\n      pop\n      pop\n      dup2\n      mstore\n      0x20\n      add\n        /* \"Property registration platfrom/propDapp.sol\":2428:2441  _ownerAddress */\n      dup5\n        /* \"Property registration platfrom/propDapp.sol\":2303:2504  Property (... */\n      0xffffffffffffffffffffffffffffffffffffffff\n      and\n      dup2\n      mstore\n      0x20\n      add\n        /* \"Property registration platfrom/propDapp.sol\":2471:2484  _propLocation */\n      dup4\n      dup4\n        /* \"Property registration platfrom/propDapp.sol\":2303:2504  Property (... */\n      dup1\n      dup1\n      0x1f\n      add\n      0x20\n      dup1\n      swap2\n      div\n      mul\n      0x20\n      add\n      mload(0x40)\n      swap1\n      dup2\n      add\n      0x40\n      mstore\n      dup1\n      swap4\n      swap3\n      swap2\n      swap1\n      dup2\n      dup2\n      mstore\n      0x20\n      add\n      dup4\n      dup4\n      dup1\n      dup3\n      dup5\n      calldatacopy\n      0x00\n      dup2\n      dup5\n      add\n      mstore\n      not(0x1f)\n      0x1f\n      dup3\n      add\n      and\n      swap1\n      pop\n      dup1\n      dup4\n      add\n      swap3\n      pop\n      pop\n      pop\n      pop\n      pop\n      pop\n      pop\n      dup2\n      mstore\n      pop\n        /* \"Property registration platfrom/propDapp.sol\":2269:2284  propertyDetails */\n      0x02\n        /* \"Property registration platfrom/propDapp.sol\":2269:2300  propertyDetails[nextPropertyId] */\n      0x00\n        /* \"Property registration platfrom/propDapp.sol\":2285:2299  nextPropertyId */\n      sload(0x01)\n        /* \"Property registration platfrom/propDapp.sol\":2269:2300  propertyDetails[nextPropertyId] */\n      dup2\n      mstore\n      0x20\n      add\n      swap1\n      dup2\n      mstore\n      0x20\n      add\n      0x00\n      keccak256\n        /* \"Property registration platfrom/propDapp.sol\":2269:2504  propertyDetails[nextPropertyId] = Property (... */\n      0x00\n      dup3\n      add\n      mload\n      dup2\n      0x00\n      add\n      sstore\n      0x20\n      dup3\n      add\n      mload\n      dup2\n      0x01\n      add\n      swap1\n      dup2\n      tag_13\n      swap2\n      swap1\n      tag_14\n      jump\t// in\n    tag_13:\n      pop\n      0x40\n      dup3\n      add\n      mload\n      dup2\n      0x02\n      add\n      exp(0x0100, 0x00)\n      dup2\n      sload\n      dup2\n      0xffffffffffffffffffffffffffffffffffffffff\n      mul\n      not\n      and\n      swap1\n      dup4\n      0xffffffffffffffffffffffffffffffffffffffff\n      and\n      mul\n      or\n      swap1\n      sstore\n      pop\n      0x60\n      dup3\n      add\n      mload\n      dup2\n      0x03\n      add\n      swap1\n      dup2\n      tag_15\n      swap2\n      swap1\n      tag_14\n      jump\t// in\n    tag_15:\n      pop\n      swap1\n      pop\n      pop\n        /* \"Property registration platfrom/propDapp.sol\":2513:2527  nextPropertyId */\n      0x01\n      0x00\n        /* \"Property registration platfrom/propDapp.sol\":2513:2529  nextPropertyId++ */\n      dup2\n      sload\n      dup1\n      swap3\n      swap2\n      swap1\n      tag_16\n      swap1\n      tag_17\n      jump\t// in\n    tag_16:\n      swap2\n      swap1\n      pop\n      sstore\n      pop\n        /* \"Property registration platfrom/propDapp.sol\":2106:2539  function registerProperty (... */\n      pop\n      pop\n      pop\n      pop\n      pop\n      jump\t// out\n        /* \"#utility.yul\":88:205   */\n    tag_19:\n        /* \"#utility.yul\":197:198   */\n      0x00\n        /* \"#utility.yul\":194:195   */\n      dup1\n        /* \"#utility.yul\":187:199   */\n      revert\n        /* \"#utility.yul\":211:328   */\n    tag_20:\n        /* \"#utility.yul\":320:321   */\n      0x00\n        /* \"#utility.yul\":317:318   */\n      dup1\n        /* \"#utility.yul\":310:322   */\n      revert\n        /* \"#utility.yul\":334:451   */\n    tag_21:\n        /* \"#utility.yul\":443:444   */\n      0x00\n        /* \"#utility.yul\":440:441   */\n      dup1\n        /* \"#utility.yul\":433:445   */\n      revert\n        /* \"#utility.yul\":457:574   */\n    tag_22:\n        /* \"#utility.yul\":566:567   */\n      0x00\n        /* \"#utility.yul\":563:564   */\n      dup1\n        /* \"#utility.yul\":556:568   */\n      revert\n        /* \"#utility.yul\":580:697   */\n    tag_23:\n        /* \"#utility.yul\":689:690   */\n      0x00\n        /* \"#utility.yul\":686:687   */\n      dup1\n        /* \"#utility.yul\":679:691   */\n      revert\n        /* \"#utility.yul\":717:1270   */\n    tag_24:\n        /* \"#utility.yul\":775:783   */\n      0x00\n        /* \"#utility.yul\":785:791   */\n      dup1\n        /* \"#utility.yul\":835:838   */\n      dup4\n        /* \"#utility.yul\":828:832   */\n      0x1f\n        /* \"#utility.yul\":820:826   */\n      dup5\n        /* \"#utility.yul\":816:833   */\n      add\n        /* \"#utility.yul\":812:839   */\n      slt\n        /* \"#utility.yul\":802:924   */\n      tag_61\n      jumpi\n        /* \"#utility.yul\":843:922   */\n      tag_62\n      tag_21\n      jump\t// in\n    tag_62:\n        /* \"#utility.yul\":802:924   */\n    tag_61:\n        /* \"#utility.yul\":956:962   */\n      dup3\n        /* \"#utility.yul\":943:963   */\n      calldataload\n        /* \"#utility.yul\":933:963   */\n      swap1\n      pop\n        /* \"#utility.yul\":986:1004   */\n      0xffffffffffffffff\n        /* \"#utility.yul\":978:984   */\n      dup2\n        /* \"#utility.yul\":975:1005   */\n      gt\n        /* \"#utility.yul\":972:1089   */\n      iszero\n      tag_63\n      jumpi\n        /* \"#utility.yul\":1008:1087   */\n      tag_64\n      tag_22\n      jump\t// in\n    tag_64:\n        /* \"#utility.yul\":972:1089   */\n    tag_63:\n        /* \"#utility.yul\":1122:1126   */\n      0x20\n        /* \"#utility.yul\":1114:1120   */\n      dup4\n        /* \"#utility.yul\":1110:1127   */\n      add\n        /* \"#utility.yul\":1098:1127   */\n      swap2\n      pop\n        /* \"#utility.yul\":1176:1179   */\n      dup4\n        /* \"#utility.yul\":1168:1172   */\n      0x01\n        /* \"#utility.yul\":1160:1166   */\n      dup3\n        /* \"#utility.yul\":1156:1173   */\n      mul\n        /* \"#utility.yul\":1146:1154   */\n      dup4\n        /* \"#utility.yul\":1142:1174   */\n      add\n        /* \"#utility.yul\":1139:1180   */\n      gt\n        /* \"#utility.yul\":1136:1264   */\n      iszero\n      tag_65\n      jumpi\n        /* \"#utility.yul\":1183:1262   */\n      tag_66\n      tag_23\n      jump\t// in\n    tag_66:\n        /* \"#utility.yul\":1136:1264   */\n    tag_65:\n        /* \"#utility.yul\":717:1270   */\n      swap3\n      pop\n      swap3\n      swap1\n      pop\n      jump\t// out\n        /* \"#utility.yul\":1276:1402   */\n    tag_25:\n        /* \"#utility.yul\":1313:1320   */\n      0x00\n        /* \"#utility.yul\":1353:1395   */\n      0xffffffffffffffffffffffffffffffffffffffff\n        /* \"#utility.yul\":1346:1351   */\n      dup3\n        /* \"#utility.yul\":1342:1396   */\n      and\n        /* \"#utility.yul\":1331:1396   */\n      swap1\n      pop\n        /* \"#utility.yul\":1276:1402   */\n      swap2\n      swap1\n      pop\n      jump\t// out\n        /* \"#utility.yul\":1408:1504   */\n    tag_26:\n        /* \"#utility.yul\":1445:1452   */\n      0x00\n        /* \"#utility.yul\":1474:1498   */\n      tag_69\n        /* \"#utility.yul\":1492:1497   */\n      dup3\n        /* \"#utility.yul\":1474:1498   */\n      tag_25\n      jump\t// in\n    tag_69:\n        /* \"#utility.yul\":1463:1498   */\n      swap1\n      pop\n        /* \"#utility.yul\":1408:1504   */\n      swap2\n      swap1\n      pop\n      jump\t// out\n        /* \"#utility.yul\":1510:1632   */\n    tag_27:\n        /* \"#utility.yul\":1583:1607   */\n      tag_71\n        /* \"#utility.yul\":1601:1606   */\n      dup2\n        /* \"#utility.yul\":1583:1607   */\n      tag_26\n      jump\t// in\n    tag_71:\n        /* \"#utility.yul\":1576:1581   */\n      dup2\n        /* \"#utility.yul\":1573:1608   */\n      eq\n        /* \"#utility.yul\":1563:1626   */\n      tag_72\n      jumpi\n        /* \"#utility.yul\":1622:1623   */\n      0x00\n        /* \"#utility.yul\":1619:1620   */\n      dup1\n        /* \"#utility.yul\":1612:1624   */\n      revert\n        /* \"#utility.yul\":1563:1626   */\n    tag_72:\n        /* \"#utility.yul\":1510:1632   */\n      pop\n      jump\t// out\n        /* \"#utility.yul\":1638:1777   */\n    tag_28:\n        /* \"#utility.yul\":1684:1689   */\n      0x00\n        /* \"#utility.yul\":1722:1728   */\n      dup2\n        /* \"#utility.yul\":1709:1729   */\n      calldataload\n        /* \"#utility.yul\":1700:1729   */\n      swap1\n      pop\n        /* \"#utility.yul\":1738:1771   */\n      tag_74\n        /* \"#utility.yul\":1765:1770   */\n      dup2\n        /* \"#utility.yul\":1738:1771   */\n      tag_27\n      jump\t// in\n    tag_74:\n        /* \"#utility.yul\":1638:1777   */\n      swap3\n      swap2\n      pop\n      pop\n      jump\t// out\n        /* \"#utility.yul\":1783:2802   */\n    tag_6:\n        /* \"#utility.yul\":1884:1890   */\n      0x00\n        /* \"#utility.yul\":1892:1898   */\n      dup1\n        /* \"#utility.yul\":1900:1906   */\n      0x00\n        /* \"#utility.yul\":1908:1914   */\n      dup1\n        /* \"#utility.yul\":1916:1922   */\n      0x00\n        /* \"#utility.yul\":1965:1967   */\n      0x60\n        /* \"#utility.yul\":1953:1962   */\n      dup7\n        /* \"#utility.yul\":1944:1951   */\n      dup9\n        /* \"#utility.yul\":1940:1963   */\n      sub\n        /* \"#utility.yul\":1936:1968   */\n      slt\n        /* \"#utility.yul\":1933:2052   */\n      iszero\n      tag_76\n      jumpi\n        /* \"#utility.yul\":1971:2050   */\n      tag_77\n      tag_19\n      jump\t// in\n    tag_77:\n        /* \"#utility.yul\":1933:2052   */\n    tag_76:\n        /* \"#utility.yul\":2119:2120   */\n      0x00\n        /* \"#utility.yul\":2108:2117   */\n      dup7\n        /* \"#utility.yul\":2104:2121   */\n      add\n        /* \"#utility.yul\":2091:2122   */\n      calldataload\n        /* \"#utility.yul\":2149:2167   */\n      0xffffffffffffffff\n        /* \"#utility.yul\":2141:2147   */\n      dup2\n        /* \"#utility.yul\":2138:2168   */\n      gt\n        /* \"#utility.yul\":2135:2252   */\n      iszero\n      tag_78\n      jumpi\n        /* \"#utility.yul\":2171:2250   */\n      tag_79\n      tag_20\n      jump\t// in\n    tag_79:\n        /* \"#utility.yul\":2135:2252   */\n    tag_78:\n        /* \"#utility.yul\":2284:2349   */\n      tag_80\n        /* \"#utility.yul\":2341:2348   */\n      dup9\n        /* \"#utility.yul\":2332:2338   */\n      dup3\n        /* \"#utility.yul\":2321:2330   */\n      dup10\n        /* \"#utility.yul\":2317:2339   */\n      add\n        /* \"#utility.yul\":2284:2349   */\n      tag_24\n      jump\t// in\n    tag_80:\n        /* \"#utility.yul\":2266:2349   */\n      swap6\n      pop\n      swap6\n      pop\n        /* \"#utility.yul\":2062:2359   */\n      pop\n        /* \"#utility.yul\":2398:2400   */\n      0x20\n        /* \"#utility.yul\":2424:2477   */\n      tag_81\n        /* \"#utility.yul\":2469:2476   */\n      dup9\n        /* \"#utility.yul\":2460:2466   */\n      dup3\n        /* \"#utility.yul\":2449:2458   */\n      dup10\n        /* \"#utility.yul\":2445:2467   */\n      add\n        /* \"#utility.yul\":2424:2477   */\n      tag_28\n      jump\t// in\n    tag_81:\n        /* \"#utility.yul\":2414:2477   */\n      swap4\n      pop\n        /* \"#utility.yul\":2369:2487   */\n      pop\n        /* \"#utility.yul\":2554:2556   */\n      0x40\n        /* \"#utility.yul\":2543:2552   */\n      dup7\n        /* \"#utility.yul\":2539:2557   */\n      add\n        /* \"#utility.yul\":2526:2558   */\n      calldataload\n        /* \"#utility.yul\":2585:2603   */\n      0xffffffffffffffff\n        /* \"#utility.yul\":2577:2583   */\n      dup2\n        /* \"#utility.yul\":2574:2604   */\n      gt\n        /* \"#utility.yul\":2571:2688   */\n      iszero\n      tag_82\n      jumpi\n        /* \"#utility.yul\":2607:2686   */\n      tag_83\n      tag_20\n      jump\t// in\n    tag_83:\n        /* \"#utility.yul\":2571:2688   */\n    tag_82:\n        /* \"#utility.yul\":2720:2785   */\n      tag_84\n        /* \"#utility.yul\":2777:2784   */\n      dup9\n        /* \"#utility.yul\":2768:2774   */\n      dup3\n        /* \"#utility.yul\":2757:2766   */\n      dup10\n        /* \"#utility.yul\":2753:2775   */\n      add\n        /* \"#utility.yul\":2720:2785   */\n      tag_24\n      jump\t// in\n    tag_84:\n        /* \"#utility.yul\":2702:2785   */\n      swap3\n      pop\n      swap3\n      pop\n        /* \"#utility.yul\":2497:2795   */\n      pop\n        /* \"#utility.yul\":1783:2802   */\n      swap3\n      swap6\n      pop\n      swap3\n      swap6\n      swap1\n      swap4\n      pop\n      jump\t// out\n        /* \"#utility.yul\":2808:2977   */\n    tag_29:\n        /* \"#utility.yul\":2892:2903   */\n      0x00\n        /* \"#utility.yul\":2926:2932   */\n      dup3\n        /* \"#utility.yul\":2921:2924   */\n      dup3\n        /* \"#utility.yul\":2914:2933   */\n      mstore\n        /* \"#utility.yul\":2966:2970   */\n      0x20\n        /* \"#utility.yul\":2961:2964   */\n      dup3\n        /* \"#utility.yul\":2957:2971   */\n      add\n        /* \"#utility.yul\":2942:2971   */\n      swap1\n      pop\n        /* \"#utility.yul\":2808:2977   */\n      swap3\n      swap2\n      pop\n      pop\n      jump\t// out\n        /* \"#utility.yul\":2983:3149   */\n    tag_30:\n        /* \"#utility.yul\":3123:3141   */\n      0x596f75277265206e6f74206f776e657200000000000000000000000000000000\n        /* \"#utility.yul\":3119:3120   */\n      0x00\n        /* \"#utility.yul\":3111:3117   */\n      dup3\n        /* \"#utility.yul\":3107:3121   */\n      add\n        /* \"#utility.yul\":3100:3142   */\n      mstore\n        /* \"#utility.yul\":2983:3149   */\n      pop\n      jump\t// out\n        /* \"#utility.yul\":3155:3521   */\n    tag_31:\n        /* \"#utility.yul\":3297:3300   */\n      0x00\n        /* \"#utility.yul\":3318:3385   */\n      tag_88\n        /* \"#utility.yul\":3382:3384   */\n      0x10\n        /* \"#utility.yul\":3377:3380   */\n      dup4\n        /* \"#utility.yul\":3318:3385   */\n      tag_29\n      jump\t// in\n    tag_88:\n        /* \"#utility.yul\":3311:3385   */\n      swap2\n      pop\n        /* \"#utility.yul\":3394:3487   */\n      tag_89\n        /* \"#utility.yul\":3483:3486   */\n      dup3\n        /* \"#utility.yul\":3394:3487   */\n      tag_30\n      jump\t// in\n    tag_89:\n        /* \"#utility.yul\":3512:3514   */\n      0x20\n        /* \"#utility.yul\":3507:3510   */\n      dup3\n        /* \"#utility.yul\":3503:3515   */\n      add\n        /* \"#utility.yul\":3496:3515   */\n      swap1\n      pop\n        /* \"#utility.yul\":3155:3521   */\n      swap2\n      swap1\n      pop\n      jump\t// out\n        /* \"#utility.yul\":3527:3946   */\n    tag_11:\n        /* \"#utility.yul\":3693:3697   */\n      0x00\n        /* \"#utility.yul\":3731:3733   */\n      0x20\n        /* \"#utility.yul\":3720:3729   */\n      dup3\n        /* \"#utility.yul\":3716:3734   */\n      add\n        /* \"#utility.yul\":3708:3734   */\n      swap1\n      pop\n        /* \"#utility.yul\":3780:3789   */\n      dup2\n        /* \"#utility.yul\":3774:3778   */\n      dup2\n        /* \"#utility.yul\":3770:3790   */\n      sub\n        /* \"#utility.yul\":3766:3767   */\n      0x00\n        /* \"#utility.yul\":3755:3764   */\n      dup4\n        /* \"#utility.yul\":3751:3768   */\n      add\n        /* \"#utility.yul\":3744:3791   */\n      mstore\n        /* \"#utility.yul\":3808:3939   */\n      tag_91\n        /* \"#utility.yul\":3934:3938   */\n      dup2\n        /* \"#utility.yul\":3808:3939   */\n      tag_31\n      jump\t// in\n    tag_91:\n        /* \"#utility.yul\":3800:3939   */\n      swap1\n      pop\n        /* \"#utility.yul\":3527:3946   */\n      swap2\n      swap1\n      pop\n      jump\t// out\n        /* \"#utility.yul\":3952:4051   */\n    tag_32:\n        /* \"#utility.yul\":4004:4010   */\n      0x00\n        /* \"#utility.yul\":4038:4043   */\n      dup2\n        /* \"#utility.yul\":4032:4044   */\n      mload\n        /* \"#utility.yul\":4022:4044   */\n      swap1\n      pop\n        /* \"#utility.yul\":3952:4051   */\n      swap2\n      swap1\n      pop\n      jump\t// out\n        /* \"#utility.yul\":4057:4237   */\n    tag_33:\n        /* \"#utility.yul\":4105:4182   */\n      0x4e487b7100000000000000000000000000000000000000000000000000000000\n        /* \"#utility.yul\":4102:4103   */\n      0x00\n        /* \"#utility.yul\":4095:4183   */\n      mstore\n        /* \"#utility.yul\":4202:4206   */\n      0x41\n        /* \"#utility.yul\":4199:4200   */\n      0x04\n        /* \"#utility.yul\":4192:4207   */\n      mstore\n        /* \"#utility.yul\":4226:4230   */\n      0x24\n        /* \"#utility.yul\":4223:4224   */\n      0x00\n        /* \"#utility.yul\":4216:4231   */\n      revert\n        /* \"#utility.yul\":4243:4423   */\n    tag_34:\n        /* \"#utility.yul\":4291:4368   */\n      0x4e487b7100000000000000000000000000000000000000000000000000000000\n        /* \"#utility.yul\":4288:4289   */\n      0x00\n        /* \"#utility.yul\":4281:4369   */\n      mstore\n        /* \"#utility.yul\":4388:4392   */\n      0x22\n        /* \"#utility.yul\":4385:4386   */\n      0x04\n        /* \"#utility.yul\":4378:4393   */\n      mstore\n        /* \"#utility.yul\":4412:4416   */\n      0x24\n        /* \"#utility.yul\":4409:4410   */\n      0x00\n        /* \"#utility.yul\":4402:4417   */\n      revert\n        /* \"#utility.yul\":4429:4749   */\n    tag_35:\n        /* \"#utility.yul\":4473:4479   */\n      0x00\n        /* \"#utility.yul\":4510:4511   */\n      0x02\n        /* \"#utility.yul\":4504:4508   */\n      dup3\n        /* \"#utility.yul\":4500:4512   */\n      div\n        /* \"#utility.yul\":4490:4512   */\n      swap1\n      pop\n        /* \"#utility.yul\":4557:4558   */\n      0x01\n        /* \"#utility.yul\":4551:4555   */\n      dup3\n        /* \"#utility.yul\":4547:4559   */\n      and\n        /* \"#utility.yul\":4578:4596   */\n      dup1\n        /* \"#utility.yul\":4568:4649   */\n      tag_96\n      jumpi\n        /* \"#utility.yul\":4634:4638   */\n      0x7f\n        /* \"#utility.yul\":4626:4632   */\n      dup3\n        /* \"#utility.yul\":4622:4639   */\n      and\n        /* \"#utility.yul\":4612:4639   */\n      swap2\n      pop\n        /* \"#utility.yul\":4568:4649   */\n    tag_96:\n        /* \"#utility.yul\":4696:4698   */\n      0x20\n        /* \"#utility.yul\":4688:4694   */\n      dup3\n        /* \"#utility.yul\":4685:4699   */\n      lt\n        /* \"#utility.yul\":4665:4683   */\n      dup2\n        /* \"#utility.yul\":4662:4700   */\n      sub\n        /* \"#utility.yul\":4659:4743   */\n      tag_97\n      jumpi\n        /* \"#utility.yul\":4715:4733   */\n      tag_98\n      tag_34\n      jump\t// in\n    tag_98:\n        /* \"#utility.yul\":4659:4743   */\n    tag_97:\n        /* \"#utility.yul\":4480:4749   */\n      pop\n        /* \"#utility.yul\":4429:4749   */\n      swap2\n      swap1\n      pop\n      jump\t// out\n        /* \"#utility.yul\":4755:4896   */\n    tag_36:\n        /* \"#utility.yul\":4804:4808   */\n      0x00\n        /* \"#utility.yul\":4827:4830   */\n      dup2\n        /* \"#utility.yul\":4819:4830   */\n      swap1\n      pop\n        /* \"#utility.yul\":4850:4853   */\n      dup2\n        /* \"#utility.yul\":4847:4848   */\n      0x00\n        /* \"#utility.yul\":4840:4854   */\n      mstore\n        /* \"#utility.yul\":4884:4888   */\n      0x20\n        /* \"#utility.yul\":4881:4882   */\n      0x00\n        /* \"#utility.yul\":4871:4889   */\n      keccak256\n        /* \"#utility.yul\":4863:4889   */\n      swap1\n      pop\n        /* \"#utility.yul\":4755:4896   */\n      swap2\n      swap1\n      pop\n      jump\t// out\n        /* \"#utility.yul\":4902:4995   */\n    tag_37:\n        /* \"#utility.yul\":4939:4945   */\n      0x00\n        /* \"#utility.yul\":4986:4988   */\n      0x20\n        /* \"#utility.yul\":4981:4983   */\n      0x1f\n        /* \"#utility.yul\":4974:4979   */\n      dup4\n        /* \"#utility.yul\":4970:4984   */\n      add\n        /* \"#utility.yul\":4966:4989   */\n      div\n        /* \"#utility.yul\":4956:4989   */\n      swap1\n      pop\n        /* \"#utility.yul\":4902:4995   */\n      swap2\n      swap1\n      pop\n      jump\t// out\n        /* \"#utility.yul\":5001:5108   */\n    tag_38:\n        /* \"#utility.yul\":5045:5053   */\n      0x00\n        /* \"#utility.yul\":5095:5100   */\n      dup3\n        /* \"#utility.yul\":5089:5093   */\n      dup3\n        /* \"#utility.yul\":5085:5101   */\n      shl\n        /* \"#utility.yul\":5064:5101   */\n      swap1\n      pop\n        /* \"#utility.yul\":5001:5108   */\n      swap3\n      swap2\n      pop\n      pop\n      jump\t// out\n        /* \"#utility.yul\":5114:5507   */\n    tag_39:\n        /* \"#utility.yul\":5183:5189   */\n      0x00\n        /* \"#utility.yul\":5233:5234   */\n      0x08\n        /* \"#utility.yul\":5221:5231   */\n      dup4\n        /* \"#utility.yul\":5217:5235   */\n      mul\n        /* \"#utility.yul\":5256:5353   */\n      tag_103\n        /* \"#utility.yul\":5286:5352   */\n      0xffffffffffffffffffffffffffffffffffffffffffffffffffffffffffffffff\n        /* \"#utility.yul\":5275:5284   */\n      dup3\n        /* \"#utility.yul\":5256:5353   */\n      tag_38\n      jump\t// in\n    tag_103:\n        /* \"#utility.yul\":5374:5413   */\n      tag_104\n        /* \"#utility.yul\":5404:5412   */\n      dup7\n        /* \"#utility.yul\":5393:5402   */\n      dup4\n        /* \"#utility.yul\":5374:5413   */\n      tag_38\n      jump\t// in\n    tag_104:\n        /* \"#utility.yul\":5362:5413   */\n      swap6\n      pop\n        /* \"#utility.yul\":5446:5450   */\n      dup1\n        /* \"#utility.yul\":5442:5451   */\n      not\n        /* \"#utility.yul\":5435:5440   */\n      dup5\n        /* \"#utility.yul\":5431:5452   */\n      and\n        /* \"#utility.yul\":5422:5452   */\n      swap4\n      pop\n        /* \"#utility.yul\":5495:5499   */\n      dup1\n        /* \"#utility.yul\":5485:5493   */\n      dup7\n        /* \"#utility.yul\":5481:5500   */\n      and\n        /* \"#utility.yul\":5474:5479   */\n      dup5\n        /* \"#utility.yul\":5471:5501   */\n      or\n        /* \"#utility.yul\":5461:5501   */\n      swap3\n      pop\n        /* \"#utility.yul\":5190:5507   */\n      pop\n      pop\n        /* \"#utility.yul\":5114:5507   */\n      swap4\n      swap3\n      pop\n      pop\n      pop\n      jump\t// out\n        /* \"#utility.yul\":5513:5590   */\n    tag_40:\n        /* \"#utility.yul\":5550:5557   */\n      0x00\n        /* \"#utility.yul\":5579:5584   */\n      dup2\n        /* \"#utility.yul\":5568:5584   */\n      swap1\n      pop\n        /* \"#utility.yul\":5513:5590   */\n      swap2\n      swap1\n      pop\n      jump\t// out\n        /* \"#utility.yul\":5596:5656   */\n    tag_41:\n        /* \"#utility.yul\":5624:5627   */\n      0x00\n        /* \"#utility.yul\":5645:5650   */\n      dup2\n        /* \"#utility.yul\":5638:5650   */\n      swap1\n      pop\n        /* \"#utility.yul\":5596:5656   */\n      swap2\n      swap1\n      pop\n      jump\t// out\n        /* \"#utility.yul\":5662:5804   */\n    tag_42:\n        /* \"#utility.yul\":5712:5721   */\n      0x00\n        /* \"#utility.yul\":5745:5798   */\n      tag_108\n        /* \"#utility.yul\":5763:5797   */\n      tag_109\n        /* \"#utility.yul\":5772:5796   */\n      tag_110\n        /* \"#utility.yul\":5790:5795   */\n      dup5\n        /* \"#utility.yul\":5772:5796   */\n      tag_40\n      jump\t// in\n    tag_110:\n        /* \"#utility.yul\":5763:5797   */\n      tag_41\n      jump\t// in\n    tag_109:\n        /* \"#utility.yul\":5745:5798   */\n      tag_40\n      jump\t// in\n    tag_108:\n        /* \"#utility.yul\":5732:5798   */\n      swap1\n      pop\n        /* \"#utility.yul\":5662:5804   */\n      swap2\n      swap1\n      pop\n      jump\t// out\n        /* \"#utility.yul\":5810:5885   */\n    tag_43:\n        /* \"#utility.yul\":5853:5856   */\n      0x00\n        /* \"#utility.yul\":5874:5879   */\n      dup2\n        /* \"#utility.yul\":5867:5879   */\n      swap1\n      pop\n        /* \"#utility.yul\":5810:5885   */\n      swap2\n      swap1\n      pop\n      jump\t// out\n        /* \"#utility.yul\":5891:6160   */\n    tag_44:\n        /* \"#utility.yul\":6001:6040   */\n      tag_113\n        /* \"#utility.yul\":6032:6039   */\n      dup4\n        /* \"#utility.yul\":6001:6040   */\n      tag_42\n      jump\t// in\n    tag_113:\n        /* \"#utility.yul\":6062:6153   */\n      tag_114\n        /* \"#utility.yul\":6111:6152   */\n      tag_115\n        /* \"#utility.yul\":6135:6151   */\n      dup3\n        /* \"#utility.yul\":6111:6152   */\n      tag_43\n      jump\t// in\n    tag_115:\n        /* \"#utility.yul\":6103:6109   */\n      dup5\n        /* \"#utility.yul\":6096:6100   */\n      dup5\n        /* \"#utility.yul\":6090:6101   */\n      sload\n        /* \"#utility.yul\":6062:6153   */\n      tag_39\n      jump\t// in\n    tag_114:\n        /* \"#utility.yul\":6056:6060   */\n      dup3\n        /* \"#utility.yul\":6049:6154   */\n      sstore\n        /* \"#utility.yul\":5967:6160   */\n      pop\n        /* \"#utility.yul\":5891:6160   */\n      pop\n      pop\n      pop\n      jump\t// out\n        /* \"#utility.yul\":6166:6239   */\n    tag_45:\n        /* \"#utility.yul\":6211:6214   */\n      0x00\n        /* \"#utility.yul\":6166:6239   */\n      swap1\n      jump\t// out\n        /* \"#utility.yul\":6245:6434   */\n    tag_46:\n        /* \"#utility.yul\":6322:6354   */\n      tag_118\n      tag_45\n      jump\t// in\n    tag_118:\n        /* \"#utility.yul\":6363:6428   */\n      tag_119\n        /* \"#utility.yul\":6421:6427   */\n      dup2\n        /* \"#utility.yul\":6413:6419   */\n      dup5\n        /* \"#utility.yul\":6407:6411   */\n      dup5\n        /* \"#utility.yul\":6363:6428   */\n      tag_44\n      jump\t// in\n    tag_119:\n        /* \"#utility.yul\":6298:6434   */\n      pop\n        /* \"#utility.yul\":6245:6434   */\n      pop\n      pop\n      jump\t// out\n        /* \"#utility.yul\":6440:6626   */\n    tag_47:\n        /* \"#utility.yul\":6500:6620   */\n    tag_121:\n        /* \"#utility.yul\":6517:6520   */\n      dup2\n        /* \"#utility.yul\":6510:6515   */\n      dup2\n        /* \"#utility.yul\":6507:6521   */\n      lt\n        /* \"#utility.yul\":6500:6620   */\n      iszero\n      tag_123\n      jumpi\n        /* \"#utility.yul\":6571:6610   */\n      tag_124\n        /* \"#utility.yul\":6608:6609   */\n      0x00\n        /* \"#utility.yul\":6601:6606   */\n      dup3\n        /* \"#utility.yul\":6571:6610   */\n      tag_46\n      jump\t// in\n    tag_124:\n        /* \"#utility.yul\":6544:6545   */\n      0x01\n        /* \"#utility.yul\":6537:6542   */\n      dup2\n        /* \"#utility.yul\":6533:6546   */\n      add\n        /* \"#utility.yul\":6524:6546   */\n      swap1\n      pop\n        /* \"#utility.yul\":6500:6620   */\n      jump(tag_121)\n    tag_123:\n        /* \"#utility.yul\":6440:6626   */\n      pop\n      pop\n      jump\t// out\n        /* \"#utility.yul\":6632:7175   */\n    tag_48:\n        /* \"#utility.yul\":6733:6735   */\n      0x1f\n        /* \"#utility.yul\":6728:6731   */\n      dup3\n        /* \"#utility.yul\":6725:6736   */\n      gt\n        /* \"#utility.yul\":6722:7168   */\n      iszero\n      tag_126\n      jumpi\n        /* \"#utility.yul\":6767:6805   */\n      tag_127\n        /* \"#utility.yul\":6799:6804   */\n      dup2\n        /* \"#utility.yul\":6767:6805   */\n      tag_36\n      jump\t// in\n    tag_127:\n        /* \"#utility.yul\":6851:6880   */\n      tag_128\n        /* \"#utility.yul\":6869:6879   */\n      dup5\n        /* \"#utility.yul\":6851:6880   */\n      tag_37\n      jump\t// in\n    tag_128:\n        /* \"#utility.yul\":6841:6849   */\n      dup2\n        /* \"#utility.yul\":6837:6881   */\n      add\n        /* \"#utility.yul\":7034:7036   */\n      0x20\n        /* \"#utility.yul\":7022:7032   */\n      dup6\n        /* \"#utility.yul\":7019:7037   */\n      lt\n        /* \"#utility.yul\":7016:7065   */\n      iszero\n      tag_129\n      jumpi\n        /* \"#utility.yul\":7055:7063   */\n      dup2\n        /* \"#utility.yul\":7040:7063   */\n      swap1\n      pop\n        /* \"#utility.yul\":7016:7065   */\n    tag_129:\n        /* \"#utility.yul\":7078:7158   */\n      tag_130\n        /* \"#utility.yul\":7134:7156   */\n      tag_131\n        /* \"#utility.yul\":7152:7155   */\n      dup6\n        /* \"#utility.yul\":7134:7156   */\n      tag_37\n      jump\t// in\n    tag_131:\n        /* \"#utility.yul\":7124:7132   */\n      dup4\n        /* \"#utility.yul\":7120:7157   */\n      add\n        /* \"#utility.yul\":7107:7118   */\n      dup3\n        /* \"#utility.yul\":7078:7158   */\n      tag_47\n      jump\t// in\n    tag_130:\n        /* \"#utility.yul\":6737:7168   */\n      pop\n      pop\n        /* \"#utility.yul\":6722:7168   */\n    tag_126:\n        /* \"#utility.yul\":6632:7175   */\n      pop\n      pop\n      pop\n      jump\t// out\n        /* \"#utility.yul\":7181:7298   */\n    tag_49:\n        /* \"#utility.yul\":7235:7243   */\n      0x00\n        /* \"#utility.yul\":7285:7290   */\n      dup3\n        /* \"#utility.yul\":7279:7283   */\n      dup3\n        /* \"#utility.yul\":7275:7291   */\n      shr\n        /* \"#utility.yul\":7254:7291   */\n      swap1\n      pop\n        /* \"#utility.yul\":7181:7298   */\n      swap3\n      swap2\n      pop\n      pop\n      jump\t// out\n        /* \"#utility.yul\":7304:7473   */\n    tag_50:\n        /* \"#utility.yul\":7348:7354   */\n      0x00\n        /* \"#utility.yul\":7381:7432   */\n      tag_134\n        /* \"#utility.yul\":7429:7430   */\n      0x00\n        /* \"#utility.yul\":7425:7431   */\n      not\n        /* \"#utility.yul\":7417:7422   */\n      dup5\n        /* \"#utility.yul\":7414:7415   */\n      0x08\n        /* \"#utility.yul\":7410:7423   */\n      mul\n        /* \"#utility.yul\":7381:7432   */\n      tag_49\n      jump\t// in\n    tag_134:\n        /* \"#utility.yul\":7377:7433   */\n      not\n        /* \"#utility.yul\":7462:7466   */\n      dup1\n        /* \"#utility.yul\":7456:7460   */\n      dup4\n        /* \"#utility.yul\":7452:7467   */\n      and\n        /* \"#utility.yul\":7442:7467   */\n      swap2\n      pop\n        /* \"#utility.yul\":7355:7473   */\n      pop\n        /* \"#utility.yul\":7304:7473   */\n      swap3\n      swap2\n      pop\n      pop\n      jump\t// out\n        /* \"#utility.yul\":7478:7773   */\n    tag_51:\n        /* \"#utility.yul\":7554:7558   */\n      0x00\n        /* \"#utility.yul\":7700:7729   */\n      tag_136\n        /* \"#utility.yul\":7725:7728   */\n      dup4\n        /* \"#utility.yul\":7719:7723   */\n      dup4\n        /* \"#utility.yul\":7700:7729   */\n      tag_50\n      jump\t// in\n    tag_136:\n        /* \"#utility.yul\":7692:7729   */\n      swap2\n      pop\n        /* \"#utility.yul\":7762:7765   */\n      dup3\n        /* \"#utility.yul\":7759:7760   */\n      0x02\n        /* \"#utility.yul\":7755:7766   */\n      mul\n        /* \"#utility.yul\":7749:7753   */\n      dup3\n        /* \"#utility.yul\":7746:7767   */\n      or\n        /* \"#utility.yul\":7738:7767   */\n      swap1\n      pop\n        /* \"#utility.yul\":7478:7773   */\n      swap3\n      swap2\n      pop\n      pop\n      jump\t// out\n        /* \"#utility.yul\":7778:9173   */\n    tag_14:\n        /* \"#utility.yul\":7895:7932   */\n      tag_138\n        /* \"#utility.yul\":7928:7931   */\n      dup3\n        /* \"#utility.yul\":7895:7932   */\n      tag_32\n      jump\t// in\n    tag_138:\n        /* \"#utility.yul\":7997:8015   */\n      0xffffffffffffffff\n        /* \"#utility.yul\":7989:7995   */\n      dup2\n        /* \"#utility.yul\":7986:8016   */\n      gt\n        /* \"#utility.yul\":7983:8039   */\n      iszero\n      tag_139\n      jumpi\n        /* \"#utility.yul\":8019:8037   */\n      tag_140\n      tag_33\n      jump\t// in\n    tag_140:\n        /* \"#utility.yul\":7983:8039   */\n    tag_139:\n        /* \"#utility.yul\":8063:8101   */\n      tag_141\n        /* \"#utility.yul\":8095:8099   */\n      dup3\n        /* \"#utility.yul\":8089:8100   */\n      sload\n        /* \"#utility.yul\":8063:8101   */\n      tag_35\n      jump\t// in\n    tag_141:\n        /* \"#utility.yul\":8148:8215   */\n      tag_142\n        /* \"#utility.yul\":8208:8214   */\n      dup3\n        /* \"#utility.yul\":8200:8206   */\n      dup3\n        /* \"#utility.yul\":8194:8198   */\n      dup6\n        /* \"#utility.yul\":8148:8215   */\n      tag_48\n      jump\t// in\n    tag_142:\n        /* \"#utility.yul\":8242:8243   */\n      0x00\n        /* \"#utility.yul\":8266:8270   */\n      0x20\n        /* \"#utility.yul\":8253:8270   */\n      swap1\n      pop\n        /* \"#utility.yul\":8298:8300   */\n      0x1f\n        /* \"#utility.yul\":8290:8296   */\n      dup4\n        /* \"#utility.yul\":8287:8301   */\n      gt\n        /* \"#utility.yul\":8315:8316   */\n      0x01\n        /* \"#utility.yul\":8310:8928   */\n      dup2\n      eq\n      tag_144\n      jumpi\n        /* \"#utility.yul\":8972:8973   */\n      0x00\n        /* \"#utility.yul\":8989:8995   */\n      dup5\n        /* \"#utility.yul\":8986:9063   */\n      iszero\n      tag_145\n      jumpi\n        /* \"#utility.yul\":9038:9047   */\n      dup3\n        /* \"#utility.yul\":9033:9036   */\n      dup8\n        /* \"#utility.yul\":9029:9048   */\n      add\n        /* \"#utility.yul\":9023:9049   */\n      mload\n        /* \"#utility.yul\":9014:9049   */\n      swap1\n      pop\n        /* \"#utility.yul\":8986:9063   */\n    tag_145:\n        /* \"#utility.yul\":9089:9156   */\n      tag_146\n        /* \"#utility.yul\":9149:9155   */\n      dup6\n        /* \"#utility.yul\":9142:9147   */\n      dup3\n        /* \"#utility.yul\":9089:9156   */\n      tag_51\n      jump\t// in\n    tag_146:\n        /* \"#utility.yul\":9083:9087   */\n      dup7\n        /* \"#utility.yul\":9076:9157   */\n      sstore\n        /* \"#utility.yul\":8945:9167   */\n      pop\n        /* \"#utility.yul\":8280:9167   */\n      jump(tag_143)\n        /* \"#utility.yul\":8310:8928   */\n    tag_144:\n        /* \"#utility.yul\":8362:8366   */\n      0x1f\n        /* \"#utility.yul\":8358:8367   */\n      not\n        /* \"#utility.yul\":8350:8356   */\n      dup5\n        /* \"#utility.yul\":8346:8368   */\n      and\n        /* \"#utility.yul\":8396:8433   */\n      tag_147\n        /* \"#utility.yul\":8428:8432   */\n      dup7\n        /* \"#utility.yul\":8396:8433   */\n      tag_36\n      jump\t// in\n    tag_147:\n        /* \"#utility.yul\":8455:8456   */\n      0x00\n        /* \"#utility.yul\":8469:8677   */\n    tag_148:\n        /* \"#utility.yul\":8483:8490   */\n      dup3\n        /* \"#utility.yul\":8480:8481   */\n      dup2\n        /* \"#utility.yul\":8477:8491   */\n      lt\n        /* \"#utility.yul\":8469:8677   */\n      iszero\n      tag_150\n      jumpi\n        /* \"#utility.yul\":8562:8571   */\n      dup5\n        /* \"#utility.yul\":8557:8560   */\n      dup10\n        /* \"#utility.yul\":8553:8572   */\n      add\n        /* \"#utility.yul\":8547:8573   */\n      mload\n        /* \"#utility.yul\":8539:8545   */\n      dup3\n        /* \"#utility.yul\":8532:8574   */\n      sstore\n        /* \"#utility.yul\":8613:8614   */\n      0x01\n        /* \"#utility.yul\":8605:8611   */\n      dup3\n        /* \"#utility.yul\":8601:8615   */\n      add\n        /* \"#utility.yul\":8591:8615   */\n      swap2\n      pop\n        /* \"#utility.yul\":8660:8662   */\n      0x20\n        /* \"#utility.yul\":8649:8658   */\n      dup6\n        /* \"#utility.yul\":8645:8663   */\n      add\n        /* \"#utility.yul\":8632:8663   */\n      swap5\n      pop\n        /* \"#utility.yul\":8506:8510   */\n      0x20\n        /* \"#utility.yul\":8503:8504   */\n      dup2\n        /* \"#utility.yul\":8499:8511   */\n      add\n        /* \"#utility.yul\":8494:8511   */\n      swap1\n      pop\n        /* \"#utility.yul\":8469:8677   */\n      jump(tag_148)\n    tag_150:\n        /* \"#utility.yul\":8705:8711   */\n      dup7\n        /* \"#utility.yul\":8696:8703   */\n      dup4\n        /* \"#utility.yul\":8693:8712   */\n      lt\n        /* \"#utility.yul\":8690:8869   */\n      iszero\n      tag_151\n      jumpi\n        /* \"#utility.yul\":8763:8772   */\n      dup5\n        /* \"#utility.yul\":8758:8761   */\n      dup10\n        /* \"#utility.yul\":8754:8773   */\n      add\n        /* \"#utility.yul\":8748:8774   */\n      mload\n        /* \"#utility.yul\":8806:8854   */\n      tag_152\n        /* \"#utility.yul\":8848:8852   */\n      0x1f\n        /* \"#utility.yul\":8840:8846   */\n      dup10\n        /* \"#utility.yul\":8836:8853   */\n      and\n        /* \"#utility.yul\":8825:8834   */\n      dup3\n        /* \"#utility.yul\":8806:8854   */\n      tag_50\n      jump\t// in\n    tag_152:\n        /* \"#utility.yul\":8798:8804   */\n      dup4\n        /* \"#utility.yul\":8791:8855   */\n      sstore\n        /* \"#utility.yul\":8713:8869   */\n      pop\n        /* \"#utility.yul\":8690:8869   */\n    tag_151:\n        /* \"#utility.yul\":8915:8916   */\n      0x01\n        /* \"#utility.yul\":8911:8912   */\n      0x02\n        /* \"#utility.yul\":8903:8909   */\n      dup9\n        /* \"#utility.yul\":8899:8913   */\n      mul\n        /* \"#utility.yul\":8895:8917   */\n      add\n        /* \"#utility.yul\":8889:8893   */\n      dup9\n        /* \"#utility.yul\":8882:8918   */\n      sstore\n        /* \"#utility.yul\":8317:8928   */\n      pop\n      pop\n      pop\n        /* \"#utility.yul\":8280:9167   */\n    tag_143:\n      pop\n        /* \"#utility.yul\":7870:9173   */\n      pop\n      pop\n      pop\n        /* \"#utility.yul\":7778:9173   */\n      pop\n      pop\n      jump\t// out\n        /* \"#utility.yul\":9179:9359   */\n    tag_52:\n        /* \"#utility.yul\":9227:9304   */\n      0x4e487b7100000000000000000000000000000000000000000000000000000000\n        /* \"#utility.yul\":9224:9225   */\n      0x00\n        /* \"#utility.yul\":9217:9305   */\n      mstore\n        /* \"#utility.yul\":9324:9328   */\n      0x11\n        /* \"#utility.yul\":9321:9322   */\n      0x04\n        /* \"#utility.yul\":9314:9329   */\n      mstore\n        /* \"#utility.yul\":9348:9352   */\n      0x24\n        /* \"#utility.yul\":9345:9346   */\n      0x00\n        /* \"#utility.yul\":9338:9353   */\n      revert\n        /* \"#utility.yul\":9365:9598   */\n    tag_17:\n        /* \"#utility.yul\":9404:9407   */\n      0x00\n        /* \"#utility.yul\":9427:9451   */\n      tag_155\n        /* \"#utility.yul\":9445:9450   */\n      dup3\n        /* \"#utility.yul\":9427:9451   */\n      tag_40\n      jump\t// in\n    tag_155:\n        /* \"#utility.yul\":9418:9451   */\n      swap2\n      pop\n        /* \"#utility.yul\":9473:9539   */\n      0xffffffffffffffffffffffffffffffffffffffffffffffffffffffffffffffff\n        /* \"#utility.yul\":9466:9471   */\n      dup3\n        /* \"#utility.yul\":9463:9540   */\n      sub\n        /* \"#utility.yul\":9460:9563   */\n      tag_156\n      jumpi\n        /* \"#utility.yul\":9543:9561   */\n      tag_157\n      tag_52\n      jump\t// in\n    tag_157:\n        /* \"#utility.yul\":9460:9563   */\n    tag_156:\n        /* \"#utility.yul\":9590:9591   */\n      0x01\n        /* \"#utility.yul\":9583:9588   */\n      dup3\n        /* \"#utility.yul\":9579:9592   */\n      add\n        /* \"#utility.yul\":9572:9592   */\n      swap1\n      pop\n        /* \"#utility.yul\":9365:9598   */\n      swap2\n      swap1\n      pop\n      jump\t// out\n\n    auxdata: 0xa264697066735822122090b6f196fe66e79e76d420ba6d1b907d1cdee70211f0ff3f1a005656ab5bfd7f64736f6c634300081a0033\n}\n",
				"bytecode": {
					"linkReferences": {},
					"object": "6080604052600180553480156012575f80fd5b50335f806101000a81548173ffffffffffffffffffffffffffffffffffffffff021916908373ffffffffffffffffffffffffffffffffffffffff1602179055506107c28061005f5f395ff3fe608060405234801561000f575f80fd5b5060043610610029575f3560e01c80630a1ba0b61461002d575b5f80fd5b61004760048036038101906100429190610306565b610049565b005b5f8054906101000a900473ffffffffffffffffffffffffffffffffffffffff1673ffffffffffffffffffffffffffffffffffffffff163373ffffffffffffffffffffffffffffffffffffffff16146100d6576040517f08c379a00000000000000000000000000000000000000000000000000000000081526004016100cd906103f1565b60405180910390fd5b6040518060800160405280600154815260200186868080601f0160208091040260200160405190810160405280939291908181526020018383808284375f81840152601f19601f8201169050808301925050505050505081526020018473ffffffffffffffffffffffffffffffffffffffff16815260200183838080601f0160208091040260200160405190810160405280939291908181526020018383808284375f81840152601f19601f8201169050808301925050505050505081525060025f60015481526020019081526020015f205f820151815f015560208201518160010190816101c59190610649565b506040820151816002015f6101000a81548173ffffffffffffffffffffffffffffffffffffffff021916908373ffffffffffffffffffffffffffffffffffffffff16021790555060608201518160030190816102219190610649565b5090505060015f81548092919061023790610745565b91905055505050505050565b5f80fd5b5f80fd5b5f80fd5b5f80fd5b5f80fd5b5f8083601f84011261026c5761026b61024b565b5b8235905067ffffffffffffffff8111156102895761028861024f565b5b6020830191508360018202830111156102a5576102a4610253565b5b9250929050565b5f73ffffffffffffffffffffffffffffffffffffffff82169050919050565b5f6102d5826102ac565b9050919050565b6102e5816102cb565b81146102ef575f80fd5b50565b5f81359050610300816102dc565b92915050565b5f805f805f6060868803121561031f5761031e610243565b5b5f86013567ffffffffffffffff81111561033c5761033b610247565b5b61034888828901610257565b9550955050602061035b888289016102f2565b935050604086013567ffffffffffffffff81111561037c5761037b610247565b5b61038888828901610257565b92509250509295509295909350565b5f82825260208201905092915050565b7f596f75277265206e6f74206f776e6572000000000000000000000000000000005f82015250565b5f6103db601083610397565b91506103e6826103a7565b602082019050919050565b5f6020820190508181035f830152610408816103cf565b9050919050565b5f81519050919050565b7f4e487b71000000000000000000000000000000000000000000000000000000005f52604160045260245ffd5b7f4e487b71000000000000000000000000000000000000000000000000000000005f52602260045260245ffd5b5f600282049050600182168061048a57607f821691505b60208210810361049d5761049c610446565b5b50919050565b5f819050815f5260205f209050919050565b5f6020601f8301049050919050565b5f82821b905092915050565b5f600883026104ff7fffffffffffffffffffffffffffffffffffffffffffffffffffffffffffffffff826104c4565b61050986836104c4565b95508019841693508086168417925050509392505050565b5f819050919050565b5f819050919050565b5f61054d61054861054384610521565b61052a565b610521565b9050919050565b5f819050919050565b61056683610533565b61057a61057282610554565b8484546104d0565b825550505050565b5f90565b61058e610582565b61059981848461055d565b505050565b5b818110156105bc576105b15f82610586565b60018101905061059f565b5050565b601f821115610601576105d2816104a3565b6105db846104b5565b810160208510156105ea578190505b6105fe6105f6856104b5565b83018261059e565b50505b505050565b5f82821c905092915050565b5f6106215f1984600802610606565b1980831691505092915050565b5f6106398383610612565b9150826002028217905092915050565b6106528261040f565b67ffffffffffffffff81111561066b5761066a610419565b5b6106758254610473565b6106808282856105c0565b5f60209050601f8311600181146106b1575f841561069f578287015190505b6106a9858261062e565b865550610710565b601f1984166106bf866104a3565b5f5b828110156106e6578489015182556001820191506020850194506020810190506106c1565b8683101561070357848901516106ff601f891682610612565b8355505b6001600288020188555050505b505050505050565b7f4e487b71000000000000000000000000000000000000000000000000000000005f52601160045260245ffd5b5f61074f82610521565b91507fffffffffffffffffffffffffffffffffffffffffffffffffffffffffffffffff820361078157610780610718565b5b60018201905091905056fea264697066735822122090b6f196fe66e79e76d420ba6d1b907d1cdee70211f0ff3f1a005656ab5bfd7f64736f6c634300081a0033",
					"opcodes": "PUSH1 0x80 PUSH1 0x40 MSTORE PUSH1 0x1 DUP1 SSTORE CALLVALUE DUP1 ISZERO PUSH1 0x12 JUMPI PUSH0 DUP1 REVERT JUMPDEST POP CALLER PUSH0 DUP1 PUSH2 0x100 EXP DUP2 SLOAD DUP2 PUSH20 0xFFFFFFFFFFFFFFFFFFFFFFFFFFFFFFFFFFFFFFFF MUL NOT AND SWAP1 DUP4 PUSH20 0xFFFFFFFFFFFFFFFFFFFFFFFFFFFFFFFFFFFFFFFF AND MUL OR SWAP1 SSTORE POP PUSH2 0x7C2 DUP1 PUSH2 0x5F PUSH0 CODECOPY PUSH0 RETURN INVALID PUSH1 0x80 PUSH1 0x40 MSTORE CALLVALUE DUP1 ISZERO PUSH2 0xF JUMPI PUSH0 DUP1 REVERT JUMPDEST POP PUSH1 0x4 CALLDATASIZE LT PUSH2 0x29 JUMPI PUSH0 CALLDATALOAD PUSH1 0xE0 SHR DUP1 PUSH4 0xA1BA0B6 EQ PUSH2 0x2D JUMPI JUMPDEST PUSH0 DUP1 REVERT JUMPDEST PUSH2 0x47 PUSH1 0x4 DUP1 CALLDATASIZE SUB DUP2 ADD SWAP1 PUSH2 0x42 SWAP2 SWAP1 PUSH2 0x306 JUMP JUMPDEST PUSH2 0x49 JUMP JUMPDEST STOP JUMPDEST PUSH0 DUP1 SLOAD SWAP1 PUSH2 0x100 EXP SWAP1 DIV PUSH20 0xFFFFFFFFFFFFFFFFFFFFFFFFFFFFFFFFFFFFFFFF AND PUSH20 0xFFFFFFFFFFFFFFFFFFFFFFFFFFFFFFFFFFFFFFFF AND CALLER PUSH20 0xFFFFFFFFFFFFFFFFFFFFFFFFFFFFFFFFFFFFFFFF AND EQ PUSH2 0xD6 JUMPI PUSH1 0x40 MLOAD PUSH32 0x8C379A000000000000000000000000000000000000000000000000000000000 DUP2 MSTORE PUSH1 0x4 ADD PUSH2 0xCD SWAP1 PUSH2 0x3F1 JUMP JUMPDEST PUSH1 0x40 MLOAD DUP1 SWAP2 SUB SWAP1 REVERT JUMPDEST PUSH1 0x40 MLOAD DUP1 PUSH1 0x80 ADD PUSH1 0x40 MSTORE DUP1 PUSH1 0x1 SLOAD DUP2 MSTORE PUSH1 0x20 ADD DUP7 DUP7 DUP1 DUP1 PUSH1 0x1F ADD PUSH1 0x20 DUP1 SWAP2 DIV MUL PUSH1 0x20 ADD PUSH1 0x40 MLOAD SWAP1 DUP2 ADD PUSH1 0x40 MSTORE DUP1 SWAP4 SWAP3 SWAP2 SWAP1 DUP2 DUP2 MSTORE PUSH1 0x20 ADD DUP4 DUP4 DUP1 DUP3 DUP5 CALLDATACOPY PUSH0 DUP2 DUP5 ADD MSTORE PUSH1 0x1F NOT PUSH1 0x1F DUP3 ADD AND SWAP1 POP DUP1 DUP4 ADD SWAP3 POP POP POP POP POP POP POP DUP2 MSTORE PUSH1 0x20 ADD DUP5 PUSH20 0xFFFFFFFFFFFFFFFFFFFFFFFFFFFFFFFFFFFFFFFF AND DUP2 MSTORE PUSH1 0x20 ADD DUP4 DUP4 DUP1 DUP1 PUSH1 0x1F ADD PUSH1 0x20 DUP1 SWAP2 DIV MUL PUSH1 0x20 ADD PUSH1 0x40 MLOAD SWAP1 DUP2 ADD PUSH1 0x40 MSTORE DUP1 SWAP4 SWAP3 SWAP2 SWAP1 DUP2 DUP2 MSTORE PUSH1 0x20 ADD DUP4 DUP4 DUP1 DUP3 DUP5 CALLDATACOPY PUSH0 DUP2 DUP5 ADD MSTORE PUSH1 0x1F NOT PUSH1 0x1F DUP3 ADD AND SWAP1 POP DUP1 DUP4 ADD SWAP3 POP POP POP POP POP POP POP DUP2 MSTORE POP PUSH1 0x2 PUSH0 PUSH1 0x1 SLOAD DUP2 MSTORE PUSH1 0x20 ADD SWAP1 DUP2 MSTORE PUSH1 0x20 ADD PUSH0 KECCAK256 PUSH0 DUP3 ADD MLOAD DUP2 PUSH0 ADD SSTORE PUSH1 0x20 DUP3 ADD MLOAD DUP2 PUSH1 0x1 ADD SWAP1 DUP2 PUSH2 0x1C5 SWAP2 SWAP1 PUSH2 0x649 JUMP JUMPDEST POP PUSH1 0x40 DUP3 ADD MLOAD DUP2 PUSH1 0x2 ADD PUSH0 PUSH2 0x100 EXP DUP2 SLOAD DUP2 PUSH20 0xFFFFFFFFFFFFFFFFFFFFFFFFFFFFFFFFFFFFFFFF MUL NOT AND SWAP1 DUP4 PUSH20 0xFFFFFFFFFFFFFFFFFFFFFFFFFFFFFFFFFFFFFFFF AND MUL OR SWAP1 SSTORE POP PUSH1 0x60 DUP3 ADD MLOAD DUP2 PUSH1 0x3 ADD SWAP1 DUP2 PUSH2 0x221 SWAP2 SWAP1 PUSH2 0x649 JUMP JUMPDEST POP SWAP1 POP POP PUSH1 0x1 PUSH0 DUP2 SLOAD DUP1 SWAP3 SWAP2 SWAP1 PUSH2 0x237 SWAP1 PUSH2 0x745 JUMP JUMPDEST SWAP2 SWAP1 POP SSTORE POP POP POP POP POP POP JUMP JUMPDEST PUSH0 DUP1 REVERT JUMPDEST PUSH0 DUP1 REVERT JUMPDEST PUSH0 DUP1 REVERT JUMPDEST PUSH0 DUP1 REVERT JUMPDEST PUSH0 DUP1 REVERT JUMPDEST PUSH0 DUP1 DUP4 PUSH1 0x1F DUP5 ADD SLT PUSH2 0x26C JUMPI PUSH2 0x26B PUSH2 0x24B JUMP JUMPDEST JUMPDEST DUP3 CALLDATALOAD SWAP1 POP PUSH8 0xFFFFFFFFFFFFFFFF DUP2 GT ISZERO PUSH2 0x289 JUMPI PUSH2 0x288 PUSH2 0x24F JUMP JUMPDEST JUMPDEST PUSH1 0x20 DUP4 ADD SWAP2 POP DUP4 PUSH1 0x1 DUP3 MUL DUP4 ADD GT ISZERO PUSH2 0x2A5 JUMPI PUSH2 0x2A4 PUSH2 0x253 JUMP JUMPDEST JUMPDEST SWAP3 POP SWAP3 SWAP1 POP JUMP JUMPDEST PUSH0 PUSH20 0xFFFFFFFFFFFFFFFFFFFFFFFFFFFFFFFFFFFFFFFF DUP3 AND SWAP1 POP SWAP2 SWAP1 POP JUMP JUMPDEST PUSH0 PUSH2 0x2D5 DUP3 PUSH2 0x2AC JUMP JUMPDEST SWAP1 POP SWAP2 SWAP1 POP JUMP JUMPDEST PUSH2 0x2E5 DUP2 PUSH2 0x2CB JUMP JUMPDEST DUP2 EQ PUSH2 0x2EF JUMPI PUSH0 DUP1 REVERT JUMPDEST POP JUMP JUMPDEST PUSH0 DUP2 CALLDATALOAD SWAP1 POP PUSH2 0x300 DUP2 PUSH2 0x2DC JUMP JUMPDEST SWAP3 SWAP2 POP POP JUMP JUMPDEST PUSH0 DUP1 PUSH0 DUP1 PUSH0 PUSH1 0x60 DUP7 DUP9 SUB SLT ISZERO PUSH2 0x31F JUMPI PUSH2 0x31E PUSH2 0x243 JUMP JUMPDEST JUMPDEST PUSH0 DUP7 ADD CALLDATALOAD PUSH8 0xFFFFFFFFFFFFFFFF DUP2 GT ISZERO PUSH2 0x33C JUMPI PUSH2 0x33B PUSH2 0x247 JUMP JUMPDEST JUMPDEST PUSH2 0x348 DUP9 DUP3 DUP10 ADD PUSH2 0x257 JUMP JUMPDEST SWAP6 POP SWAP6 POP POP PUSH1 0x20 PUSH2 0x35B DUP9 DUP3 DUP10 ADD PUSH2 0x2F2 JUMP JUMPDEST SWAP4 POP POP PUSH1 0x40 DUP7 ADD CALLDATALOAD PUSH8 0xFFFFFFFFFFFFFFFF DUP2 GT ISZERO PUSH2 0x37C JUMPI PUSH2 0x37B PUSH2 0x247 JUMP JUMPDEST JUMPDEST PUSH2 0x388 DUP9 DUP3 DUP10 ADD PUSH2 0x257 JUMP JUMPDEST SWAP3 POP SWAP3 POP POP SWAP3 SWAP6 POP SWAP3 SWAP6 SWAP1 SWAP4 POP JUMP JUMPDEST PUSH0 DUP3 DUP3 MSTORE PUSH1 0x20 DUP3 ADD SWAP1 POP SWAP3 SWAP2 POP POP JUMP JUMPDEST PUSH32 0x596F75277265206E6F74206F776E657200000000000000000000000000000000 PUSH0 DUP3 ADD MSTORE POP JUMP JUMPDEST PUSH0 PUSH2 0x3DB PUSH1 0x10 DUP4 PUSH2 0x397 JUMP JUMPDEST SWAP2 POP PUSH2 0x3E6 DUP3 PUSH2 0x3A7 JUMP JUMPDEST PUSH1 0x20 DUP3 ADD SWAP1 POP SWAP2 SWAP1 POP JUMP JUMPDEST PUSH0 PUSH1 0x20 DUP3 ADD SWAP1 POP DUP2 DUP2 SUB PUSH0 DUP4 ADD MSTORE PUSH2 0x408 DUP2 PUSH2 0x3CF JUMP JUMPDEST SWAP1 POP SWAP2 SWAP1 POP JUMP JUMPDEST PUSH0 DUP2 MLOAD SWAP1 POP SWAP2 SWAP1 POP JUMP JUMPDEST PUSH32 0x4E487B7100000000000000000000000000000000000000000000000000000000 PUSH0 MSTORE PUSH1 0x41 PUSH1 0x4 MSTORE PUSH1 0x24 PUSH0 REVERT JUMPDEST PUSH32 0x4E487B7100000000000000000000000000000000000000000000000000000000 PUSH0 MSTORE PUSH1 0x22 PUSH1 0x4 MSTORE PUSH1 0x24 PUSH0 REVERT JUMPDEST PUSH0 PUSH1 0x2 DUP3 DIV SWAP1 POP PUSH1 0x1 DUP3 AND DUP1 PUSH2 0x48A JUMPI PUSH1 0x7F DUP3 AND SWAP2 POP JUMPDEST PUSH1 0x20 DUP3 LT DUP2 SUB PUSH2 0x49D JUMPI PUSH2 0x49C PUSH2 0x446 JUMP JUMPDEST JUMPDEST POP SWAP2 SWAP1 POP JUMP JUMPDEST PUSH0 DUP2 SWAP1 POP DUP2 PUSH0 MSTORE PUSH1 0x20 PUSH0 KECCAK256 SWAP1 POP SWAP2 SWAP1 POP JUMP JUMPDEST PUSH0 PUSH1 0x20 PUSH1 0x1F DUP4 ADD DIV SWAP1 POP SWAP2 SWAP1 POP JUMP JUMPDEST PUSH0 DUP3 DUP3 SHL SWAP1 POP SWAP3 SWAP2 POP POP JUMP JUMPDEST PUSH0 PUSH1 0x8 DUP4 MUL PUSH2 0x4FF PUSH32 0xFFFFFFFFFFFFFFFFFFFFFFFFFFFFFFFFFFFFFFFFFFFFFFFFFFFFFFFFFFFFFFFF DUP3 PUSH2 0x4C4 JUMP JUMPDEST PUSH2 0x509 DUP7 DUP4 PUSH2 0x4C4 JUMP JUMPDEST SWAP6 POP DUP1 NOT DUP5 AND SWAP4 POP DUP1 DUP7 AND DUP5 OR SWAP3 POP POP POP SWAP4 SWAP3 POP POP POP JUMP JUMPDEST PUSH0 DUP2 SWAP1 POP SWAP2 SWAP1 POP JUMP JUMPDEST PUSH0 DUP2 SWAP1 POP SWAP2 SWAP1 POP JUMP JUMPDEST PUSH0 PUSH2 0x54D PUSH2 0x548 PUSH2 0x543 DUP5 PUSH2 0x521 JUMP JUMPDEST PUSH2 0x52A JUMP JUMPDEST PUSH2 0x521 JUMP JUMPDEST SWAP1 POP SWAP2 SWAP1 POP JUMP JUMPDEST PUSH0 DUP2 SWAP1 POP SWAP2 SWAP1 POP JUMP JUMPDEST PUSH2 0x566 DUP4 PUSH2 0x533 JUMP JUMPDEST PUSH2 0x57A PUSH2 0x572 DUP3 PUSH2 0x554 JUMP JUMPDEST DUP5 DUP5 SLOAD PUSH2 0x4D0 JUMP JUMPDEST DUP3 SSTORE POP POP POP POP JUMP JUMPDEST PUSH0 SWAP1 JUMP JUMPDEST PUSH2 0x58E PUSH2 0x582 JUMP JUMPDEST PUSH2 0x599 DUP2 DUP5 DUP5 PUSH2 0x55D JUMP JUMPDEST POP POP POP JUMP JUMPDEST JUMPDEST DUP2 DUP2 LT ISZERO PUSH2 0x5BC JUMPI PUSH2 0x5B1 PUSH0 DUP3 PUSH2 0x586 JUMP JUMPDEST PUSH1 0x1 DUP2 ADD SWAP1 POP PUSH2 0x59F JUMP JUMPDEST POP POP JUMP JUMPDEST PUSH1 0x1F DUP3 GT ISZERO PUSH2 0x601 JUMPI PUSH2 0x5D2 DUP2 PUSH2 0x4A3 JUMP JUMPDEST PUSH2 0x5DB DUP5 PUSH2 0x4B5 JUMP JUMPDEST DUP2 ADD PUSH1 0x20 DUP6 LT ISZERO PUSH2 0x5EA JUMPI DUP2 SWAP1 POP JUMPDEST PUSH2 0x5FE PUSH2 0x5F6 DUP6 PUSH2 0x4B5 JUMP JUMPDEST DUP4 ADD DUP3 PUSH2 0x59E JUMP JUMPDEST POP POP JUMPDEST POP POP POP JUMP JUMPDEST PUSH0 DUP3 DUP3 SHR SWAP1 POP SWAP3 SWAP2 POP POP JUMP JUMPDEST PUSH0 PUSH2 0x621 PUSH0 NOT DUP5 PUSH1 0x8 MUL PUSH2 0x606 JUMP JUMPDEST NOT DUP1 DUP4 AND SWAP2 POP POP SWAP3 SWAP2 POP POP JUMP JUMPDEST PUSH0 PUSH2 0x639 DUP4 DUP4 PUSH2 0x612 JUMP JUMPDEST SWAP2 POP DUP3 PUSH1 0x2 MUL DUP3 OR SWAP1 POP SWAP3 SWAP2 POP POP JUMP JUMPDEST PUSH2 0x652 DUP3 PUSH2 0x40F JUMP JUMPDEST PUSH8 0xFFFFFFFFFFFFFFFF DUP2 GT ISZERO PUSH2 0x66B JUMPI PUSH2 0x66A PUSH2 0x419 JUMP JUMPDEST JUMPDEST PUSH2 0x675 DUP3 SLOAD PUSH2 0x473 JUMP JUMPDEST PUSH2 0x680 DUP3 DUP3 DUP6 PUSH2 0x5C0 JUMP JUMPDEST PUSH0 PUSH1 0x20 SWAP1 POP PUSH1 0x1F DUP4 GT PUSH1 0x1 DUP2 EQ PUSH2 0x6B1 JUMPI PUSH0 DUP5 ISZERO PUSH2 0x69F JUMPI DUP3 DUP8 ADD MLOAD SWAP1 POP JUMPDEST PUSH2 0x6A9 DUP6 DUP3 PUSH2 0x62E JUMP JUMPDEST DUP7 SSTORE POP PUSH2 0x710 JUMP JUMPDEST PUSH1 0x1F NOT DUP5 AND PUSH2 0x6BF DUP7 PUSH2 0x4A3 JUMP JUMPDEST PUSH0 JUMPDEST DUP3 DUP2 LT ISZERO PUSH2 0x6E6 JUMPI DUP5 DUP10 ADD MLOAD DUP3 SSTORE PUSH1 0x1 DUP3 ADD SWAP2 POP PUSH1 0x20 DUP6 ADD SWAP5 POP PUSH1 0x20 DUP2 ADD SWAP1 POP PUSH2 0x6C1 JUMP JUMPDEST DUP7 DUP4 LT ISZERO PUSH2 0x703 JUMPI DUP5 DUP10 ADD MLOAD PUSH2 0x6FF PUSH1 0x1F DUP10 AND DUP3 PUSH2 0x612 JUMP JUMPDEST DUP4 SSTORE POP JUMPDEST PUSH1 0x1 PUSH1 0x2 DUP9 MUL ADD DUP9 SSTORE POP POP POP JUMPDEST POP POP POP POP POP POP JUMP JUMPDEST PUSH32 0x4E487B7100000000000000000000000000000000000000000000000000000000 PUSH0 MSTORE PUSH1 0x11 PUSH1 0x4 MSTORE PUSH1 0x24 PUSH0 REVERT JUMPDEST PUSH0 PUSH2 0x74F DUP3 PUSH2 0x521 JUMP JUMPDEST SWAP2 POP PUSH32 0xFFFFFFFFFFFFFFFFFFFFFFFFFFFFFFFFFFFFFFFFFFFFFFFFFFFFFFFFFFFFFFFF DUP3 SUB PUSH2 0x781 JUMPI PUSH2 0x780 PUSH2 0x718 JUMP JUMPDEST JUMPDEST PUSH1 0x1 DUP3 ADD SWAP1 POP SWAP2 SWAP1 POP JUMP INVALID LOG2 PUSH5 0x6970667358 0x22 SLT KECCAK256 SWAP1 0xB6 CALL SWAP7 INVALID PUSH7 0xE79E76D420BA6D SHL SWAP1 PUSH30 0x1CDEE70211F0FF3F1A005656AB5BFD7F64736F6C634300081A0033000000 "
				},
				"gasEstimates": {
					"creation": {
						"codeDepositCost": "397200",
						"executionCost": "46805",
						"totalCost": "444005"
					},
					"external": {
						"registerProperty(string,address,string)": "infinite"
					}
				},
				"methodIdentifiers": {
					"registerProperty(string,address,string)": "0a1ba0b6"
				}
			},
			"storageLayout": {
				"storage": [
					{
						"astId": 3,
						"contract": "Property registration platfrom/propDapp.sol:PropDapp",
						"label": "owner",
						"offset": 0,
						"slot": "0",
						"type": "t_address"
					},
					{
						"astId": 36,
						"contract": "Property registration platfrom/propDapp.sol:PropDapp",
						"label": "nextPropertyId",
						"offset": 0,
						"slot": "1",
						"type": "t_uint256"
					},
					{
						"astId": 41,
						"contract": "Property registration platfrom/propDapp.sol:PropDapp",
						"label": "propertyDetails",
						"offset": 0,
						"slot": "2",
						"type": "t_mapping(t_uint256,t_struct(Property)33_storage)"
					}
				],
				"types": {
					"t_address": {
						"encoding": "inplace",
						"label": "address",
						"numberOfBytes": "20"
					},
					"t_mapping(t_uint256,t_struct(Property)33_storage)": {
						"encoding": "mapping",
						"key": "t_uint256",
						"label": "mapping(uint256 => struct PropDapp.Property)",
						"numberOfBytes": "32",
						"value": "t_struct(Property)33_storage"
					},
					"t_string_storage": {
						"encoding": "bytes",
						"label": "string",
						"numberOfBytes": "32"
					},
					"t_struct(Property)33_storage": {
						"encoding": "inplace",
						"label": "struct PropDapp.Property",
						"members": [
							{
								"astId": 26,
								"contract": "Property registration platfrom/propDapp.sol:PropDapp",
								"label": "propId",
								"offset": 0,
								"slot": "0",
								"type": "t_uint256"
							},
							{
								"astId": 28,
								"contract": "Property registration platfrom/propDapp.sol:PropDapp",
								"label": "ownerName",
								"offset": 0,
								"slot": "1",
								"type": "t_string_storage"
							},
							{
								"astId": 30,
								"contract": "Property registration platfrom/propDapp.sol:PropDapp",
								"label": "ownerAddress",
								"offset": 0,
								"slot": "2",
								"type": "t_address"
							},
							{
								"astId": 32,
								"contract": "Property registration platfrom/propDapp.sol:PropDapp",
								"label": "propLocation",
								"offset": 0,
								"slot": "3",
								"type": "t_string_storage"
							}
						],
						"numberOfBytes": "128"
					},
					"t_uint256": {
						"encoding": "inplace",
						"label": "uint256",
						"numberOfBytes": "32"
					}
				}
			},
			"userdoc": {
				"kind": "user",
				"methods": {},
				"version": 1
			}
		}
	}
}