{
	"data": {
		"bytecode": {
			"linkReferences": {},
			"object": "60806040525f80553480156011575f80fd5b506040516104c93803806104c9833981810160405281019060319190606e565b805f81905550506094565b5f80fd5b5f819050919050565b6050816040565b81146059575f80fd5b50565b5f815190506068816049565b92915050565b5f60208284031215608057607f603c565b5b5f608b84828501605c565b91505092915050565b610428806100a15f395ff3fe608060405234801561000f575f80fd5b5060043610610055575f3560e01c80631003e2d214610059578063131e2f18146100755780631bd496531461009157806327ee58a6146100af57806345bd069b146100cb575b5f80fd5b610073600480360381019061006e91906101d0565b6100e7565b005b61008f600480360381019061008a91906101d0565b610101565b005b61009961011b565b6040516100a6919061020a565b60405180910390f35b6100c960048036038101906100c491906101d0565b610123565b005b6100e560048036038101906100e091906101d0565b61013d565b005b805f808282546100f79190610250565b9250508190555050565b805f808282546101119190610283565b9250508190555050565b5f8054905090565b805f8082825461013391906102c4565b9250508190555050565b5f810361017f576040517f08c379a000000000000000000000000000000000000000000000000000000000815260040161017690610377565b60405180910390fd5b805f8082825461018f91906103c2565b9250508190555050565b5f80fd5b5f819050919050565b6101af8161019d565b81146101b9575f80fd5b50565b5f813590506101ca816101a6565b92915050565b5f602082840312156101e5576101e4610199565b5b5f6101f2848285016101bc565b91505092915050565b6102048161019d565b82525050565b5f60208201905061021d5f8301846101fb565b92915050565b7f4e487b71000000000000000000000000000000000000000000000000000000005f52601160045260245ffd5b5f61025a8261019d565b91506102658361019d565b925082820190508082111561027d5761027c610223565b5b92915050565b5f61028d8261019d565b91506102988361019d565b92508282026102a68161019d565b915082820484148315176102bd576102bc610223565b5b5092915050565b5f6102ce8261019d565b91506102d98361019d565b92508282039050818111156102f1576102f0610223565b5b92915050565b5f82825260208201905092915050565b7f56616c75652073686f756c64206e6f7420626520657175616c20746f207a65725f8201527f6f00000000000000000000000000000000000000000000000000000000000000602082015250565b5f6103616021836102f7565b915061036c82610307565b604082019050919050565b5f6020820190508181035f83015261038e81610355565b9050919050565b7f4e487b71000000000000000000000000000000000000000000000000000000005f52601260045260245ffd5b5f6103cc8261019d565b91506103d78361019d565b9250826103e7576103e6610395565b5b82820490509291505056fea26469706673582212203e9d9ca939f9bacc2e1ea48ca9d6fc50e8d93f3b75b8c800b7551669118a068564736f6c634300081a0033",
			"opcodes": "PUSH1 0x80 PUSH1 0x40 MSTORE PUSH0 DUP1 SSTORE CALLVALUE DUP1 ISZERO PUSH1 0x11 JUMPI PUSH0 DUP1 REVERT JUMPDEST POP PUSH1 0x40 MLOAD PUSH2 0x4C9 CODESIZE SUB DUP1 PUSH2 0x4C9 DUP4 CODECOPY DUP2 DUP2 ADD PUSH1 0x40 MSTORE DUP2 ADD SWAP1 PUSH1 0x31 SWAP2 SWAP1 PUSH1 0x6E JUMP JUMPDEST DUP1 PUSH0 DUP2 SWAP1 SSTORE POP POP PUSH1 0x94 JUMP JUMPDEST PUSH0 DUP1 REVERT JUMPDEST PUSH0 DUP2 SWAP1 POP SWAP2 SWAP1 POP JUMP JUMPDEST PUSH1 0x50 DUP2 PUSH1 0x40 JUMP JUMPDEST DUP2 EQ PUSH1 0x59 JUMPI PUSH0 DUP1 REVERT JUMPDEST POP JUMP JUMPDEST PUSH0 DUP2 MLOAD SWAP1 POP PUSH1 0x68 DUP2 PUSH1 0x49 JUMP JUMPDEST SWAP3 SWAP2 POP POP JUMP JUMPDEST PUSH0 PUSH1 0x20 DUP3 DUP5 SUB SLT ISZERO PUSH1 0x80 JUMPI PUSH1 0x7F PUSH1 0x3C JUMP JUMPDEST JUMPDEST PUSH0 PUSH1 0x8B DUP5 DUP3 DUP6 ADD PUSH1 0x5C JUMP JUMPDEST SWAP2 POP POP SWAP3 SWAP2 POP POP JUMP JUMPDEST PUSH2 0x428 DUP1 PUSH2 0xA1 PUSH0 CODECOPY PUSH0 RETURN INVALID PUSH1 0x80 PUSH1 0x40 MSTORE CALLVALUE DUP1 ISZERO PUSH2 0xF JUMPI PUSH0 DUP1 REVERT JUMPDEST POP PUSH1 0x4 CALLDATASIZE LT PUSH2 0x55 JUMPI PUSH0 CALLDATALOAD PUSH1 0xE0 SHR DUP1 PUSH4 0x1003E2D2 EQ PUSH2 0x59 JUMPI DUP1 PUSH4 0x131E2F18 EQ PUSH2 0x75 JUMPI DUP1 PUSH4 0x1BD49653 EQ PUSH2 0x91 JUMPI DUP1 PUSH4 0x27EE58A6 EQ PUSH2 0xAF JUMPI DUP1 PUSH4 0x45BD069B EQ PUSH2 0xCB JUMPI JUMPDEST PUSH0 DUP1 REVERT JUMPDEST PUSH2 0x73 PUSH1 0x4 DUP1 CALLDATASIZE SUB DUP2 ADD SWAP1 PUSH2 0x6E SWAP2 SWAP1 PUSH2 0x1D0 JUMP JUMPDEST PUSH2 0xE7 JUMP JUMPDEST STOP JUMPDEST PUSH2 0x8F PUSH1 0x4 DUP1 CALLDATASIZE SUB DUP2 ADD SWAP1 PUSH2 0x8A SWAP2 SWAP1 PUSH2 0x1D0 JUMP JUMPDEST PUSH2 0x101 JUMP JUMPDEST STOP JUMPDEST PUSH2 0x99 PUSH2 0x11B JUMP JUMPDEST PUSH1 0x40 MLOAD PUSH2 0xA6 SWAP2 SWAP1 PUSH2 0x20A JUMP JUMPDEST PUSH1 0x40 MLOAD DUP1 SWAP2 SUB SWAP1 RETURN JUMPDEST PUSH2 0xC9 PUSH1 0x4 DUP1 CALLDATASIZE SUB DUP2 ADD SWAP1 PUSH2 0xC4 SWAP2 SWAP1 PUSH2 0x1D0 JUMP JUMPDEST PUSH2 0x123 JUMP JUMPDEST STOP JUMPDEST PUSH2 0xE5 PUSH1 0x4 DUP1 CALLDATASIZE SUB DUP2 ADD SWAP1 PUSH2 0xE0 SWAP2 SWAP1 PUSH2 0x1D0 JUMP JUMPDEST PUSH2 0x13D JUMP JUMPDEST STOP JUMPDEST DUP1 PUSH0 DUP1 DUP3 DUP3 SLOAD PUSH2 0xF7 SWAP2 SWAP1 PUSH2 0x250 JUMP JUMPDEST SWAP3 POP POP DUP2 SWAP1 SSTORE POP POP JUMP JUMPDEST DUP1 PUSH0 DUP1 DUP3 DUP3 SLOAD PUSH2 0x111 SWAP2 SWAP1 PUSH2 0x283 JUMP JUMPDEST SWAP3 POP POP DUP2 SWAP1 SSTORE POP POP JUMP JUMPDEST PUSH0 DUP1 SLOAD SWAP1 POP SWAP1 JUMP JUMPDEST DUP1 PUSH0 DUP1 DUP3 DUP3 SLOAD PUSH2 0x133 SWAP2 SWAP1 PUSH2 0x2C4 JUMP JUMPDEST SWAP3 POP POP DUP2 SWAP1 SSTORE POP POP JUMP JUMPDEST PUSH0 DUP2 SUB PUSH2 0x17F JUMPI PUSH1 0x40 MLOAD PUSH32 0x8C379A000000000000000000000000000000000000000000000000000000000 DUP2 MSTORE PUSH1 0x4 ADD PUSH2 0x176 SWAP1 PUSH2 0x377 JUMP JUMPDEST PUSH1 0x40 MLOAD DUP1 SWAP2 SUB SWAP1 REVERT JUMPDEST DUP1 PUSH0 DUP1 DUP3 DUP3 SLOAD PUSH2 0x18F SWAP2 SWAP1 PUSH2 0x3C2 JUMP JUMPDEST SWAP3 POP POP DUP2 SWAP1 SSTORE POP POP JUMP JUMPDEST PUSH0 DUP1 REVERT JUMPDEST PUSH0 DUP2 SWAP1 POP SWAP2 SWAP1 POP JUMP JUMPDEST PUSH2 0x1AF DUP2 PUSH2 0x19D JUMP JUMPDEST DUP2 EQ PUSH2 0x1B9 JUMPI PUSH0 DUP1 REVERT JUMPDEST POP JUMP JUMPDEST PUSH0 DUP2 CALLDATALOAD SWAP1 POP PUSH2 0x1CA DUP2 PUSH2 0x1A6 JUMP JUMPDEST SWAP3 SWAP2 POP POP JUMP JUMPDEST PUSH0 PUSH1 0x20 DUP3 DUP5 SUB SLT ISZERO PUSH2 0x1E5 JUMPI PUSH2 0x1E4 PUSH2 0x199 JUMP JUMPDEST JUMPDEST PUSH0 PUSH2 0x1F2 DUP5 DUP3 DUP6 ADD PUSH2 0x1BC JUMP JUMPDEST SWAP2 POP POP SWAP3 SWAP2 POP POP JUMP JUMPDEST PUSH2 0x204 DUP2 PUSH2 0x19D JUMP JUMPDEST DUP3 MSTORE POP POP JUMP JUMPDEST PUSH0 PUSH1 0x20 DUP3 ADD SWAP1 POP PUSH2 0x21D PUSH0 DUP4 ADD DUP5 PUSH2 0x1FB JUMP JUMPDEST SWAP3 SWAP2 POP POP JUMP JUMPDEST PUSH32 0x4E487B7100000000000000000000000000000000000000000000000000000000 PUSH0 MSTORE PUSH1 0x11 PUSH1 0x4 MSTORE PUSH1 0x24 PUSH0 REVERT JUMPDEST PUSH0 PUSH2 0x25A DUP3 PUSH2 0x19D JUMP JUMPDEST SWAP2 POP PUSH2 0x265 DUP4 PUSH2 0x19D JUMP JUMPDEST SWAP3 POP DUP3 DUP3 ADD SWAP1 POP DUP1 DUP3 GT ISZERO PUSH2 0x27D JUMPI PUSH2 0x27C PUSH2 0x223 JUMP JUMPDEST JUMPDEST SWAP3 SWAP2 POP POP JUMP JUMPDEST PUSH0 PUSH2 0x28D DUP3 PUSH2 0x19D JUMP JUMPDEST SWAP2 POP PUSH2 0x298 DUP4 PUSH2 0x19D JUMP JUMPDEST SWAP3 POP DUP3 DUP3 MUL PUSH2 0x2A6 DUP2 PUSH2 0x19D JUMP JUMPDEST SWAP2 POP DUP3 DUP3 DIV DUP5 EQ DUP4 ISZERO OR PUSH2 0x2BD JUMPI PUSH2 0x2BC PUSH2 0x223 JUMP JUMPDEST JUMPDEST POP SWAP3 SWAP2 POP POP JUMP JUMPDEST PUSH0 PUSH2 0x2CE DUP3 PUSH2 0x19D JUMP JUMPDEST SWAP2 POP PUSH2 0x2D9 DUP4 PUSH2 0x19D JUMP JUMPDEST SWAP3 POP DUP3 DUP3 SUB SWAP1 POP DUP2 DUP2 GT ISZERO PUSH2 0x2F1 JUMPI PUSH2 0x2F0 PUSH2 0x223 JUMP JUMPDEST JUMPDEST SWAP3 SWAP2 POP POP JUMP JUMPDEST PUSH0 DUP3 DUP3 MSTORE PUSH1 0x20 DUP3 ADD SWAP1 POP SWAP3 SWAP2 POP POP JUMP JUMPDEST PUSH32 0x56616C75652073686F756C64206E6F7420626520657175616C20746F207A6572 PUSH0 DUP3 ADD MSTORE PUSH32 0x6F00000000000000000000000000000000000000000000000000000000000000 PUSH1 0x20 DUP3 ADD MSTORE POP JUMP JUMPDEST PUSH0 PUSH2 0x361 PUSH1 0x21 DUP4 PUSH2 0x2F7 JUMP JUMPDEST SWAP2 POP PUSH2 0x36C DUP3 PUSH2 0x307 JUMP JUMPDEST PUSH1 0x40 DUP3 ADD SWAP1 POP SWAP2 SWAP1 POP JUMP JUMPDEST PUSH0 PUSH1 0x20 DUP3 ADD SWAP1 POP DUP2 DUP2 SUB PUSH0 DUP4 ADD MSTORE PUSH2 0x38E DUP2 PUSH2 0x355 JUMP JUMPDEST SWAP1 POP SWAP2 SWAP1 POP JUMP JUMPDEST PUSH32 0x4E487B7100000000000000000000000000000000000000000000000000000000 PUSH0 MSTORE PUSH1 0x12 PUSH1 0x4 MSTORE PUSH1 0x24 PUSH0 REVERT JUMPDEST PUSH0 PUSH2 0x3CC DUP3 PUSH2 0x19D JUMP JUMPDEST SWAP2 POP PUSH2 0x3D7 DUP4 PUSH2 0x19D JUMP JUMPDEST SWAP3 POP DUP3 PUSH2 0x3E7 JUMPI PUSH2 0x3E6 PUSH2 0x395 JUMP JUMPDEST JUMPDEST DUP3 DUP3 DIV SWAP1 POP SWAP3 SWAP2 POP POP JUMP INVALID LOG2 PUSH5 0x6970667358 0x22 SLT KECCAK256 RETURNDATACOPY SWAP14 SWAP13 0xA9 CODECOPY 0xF9 0xBA 0xCC 0x2E 0x1E LOG4 DUP13 0xA9 0xD6 0xFC POP 0xE8 0xD9 EXTCODEHASH EXTCODESIZE PUSH22 0xB8C800B7551669118A068564736F6C634300081A0033 "
		},
		"gasEstimates": {
			"creation": {
				"codeDepositCost": "212800",
				"executionCost": "infinite",
				"totalCost": "infinite"
			},
			"external": {
				"add(uint256)": "infinite",
				"division(uint256)": "infinite",
				"mul(uint256)": "infinite",
				"returnVal()": "2454",
				"sub(uint256)": "infinite"
			}
		},
		"methodIdentifiers": {
			"add(uint256)": "1003e2d2",
			"division(uint256)": "45bd069b",
			"mul(uint256)": "131e2f18",
			"returnVal()": "1bd49653",
			"sub(uint256)": "27ee58a6"
		}
	},
	"abi": [
		{
			"inputs": [
				{
					"internalType": "uint256",
					"name": "_num",
					"type": "uint256"
				}
			],
			"stateMutability": "nonpayable",
			"type": "constructor"
		},
		{
			"inputs": [
				{
					"internalType": "uint256",
					"name": "_value",
					"type": "uint256"
				}
			],
			"name": "add",
			"outputs": [],
			"stateMutability": "nonpayable",
			"type": "function"
		},
		{
			"inputs": [
				{
					"internalType": "uint256",
					"name": "_value",
					"type": "uint256"
				}
			],
			"name": "division",
			"outputs": [],
			"stateMutability": "nonpayable",
			"type": "function"
		},
		{
			"inputs": [
				{
					"internalType": "uint256",
					"name": "_value",
					"type": "uint256"
				}
			],
			"name": "mul",
			"outputs": [],
			"stateMutability": "nonpayable",
			"type": "function"
		},
		{
			"inputs": [],
			"name": "returnVal",
			"outputs": [
				{
					"internalType": "uint256",
					"name": "",
					"type": "uint256"
				}
			],
			"stateMutability": "view",
			"type": "function"
		},
		{
			"inputs": [
				{
					"internalType": "uint256",
					"name": "_value",
					"type": "uint256"
				}
			],
			"name": "sub",
			"outputs": [],
			"stateMutability": "nonpayable",
			"type": "function"
		}
	]
}