{
	"Cohort3/Inheritance/truck.sol": {
		"Car": {
			"abi": [
				{
					"inputs": [
						{
							"internalType": "string",
							"name": "_brand",
							"type": "string"
						},
						{
							"internalType": "uint8",
							"name": "_wheels",
							"type": "uint8"
						}
					],
					"stateMutability": "nonpayable",
					"type": "constructor"
				},
				{
					"inputs": [],
					"name": "brand",
					"outputs": [
						{
							"internalType": "string",
							"name": "",
							"type": "string"
						}
					],
					"stateMutability": "view",
					"type": "function"
				},
				{
					"inputs": [],
					"name": "description",
					"outputs": [
						{
							"internalType": "string",
							"name": "",
							"type": "string"
						}
					],
					"stateMutability": "pure",
					"type": "function"
				}
			],
			"devdoc": {
				"kind": "dev",
				"methods": {},
				"version": 1
			},
			"evm": {
				"assembly": "    /* \"Cohort3/Inheritance/truck.sol\":85:385  contract Car is Vehicle {... */\n  mstore(0x40, 0x80)\n    /* \"Cohort3/Inheritance/truck.sol\":135:261  constructor (string memory _brand, uint8 _wheels) Vehicle(_brand) {... */\n  callvalue\n  dup1\n  iszero\n  tag_1\n  jumpi\n  0x00\n  dup1\n  revert\ntag_1:\n  pop\n  mload(0x40)\n  sub(codesize, bytecodeSize)\n  dup1\n  bytecodeSize\n  dup4\n  codecopy\n  dup2\n  dup2\n  add\n  0x40\n  mstore\n  dup2\n  add\n  swap1\n  tag_2\n  swap2\n  swap1\n  tag_3\n  jump\t// in\ntag_2:\n    /* \"Cohort3/Inheritance/truck.sol\":193:199  _brand */\n  dup2\n    /* \"Cohort3/Inheritance/Vehicle.sol\":165:171  _brand */\n  dup1\n    /* \"Cohort3/Inheritance/Vehicle.sol\":157:162  brand */\n  0x00\n    /* \"Cohort3/Inheritance/Vehicle.sol\":157:171  brand = _brand */\n  swap1\n  dup2\n  tag_7\n  swap2\n  swap1\n  tag_8\n  jump\t// in\ntag_7:\n  pop\n    /* \"Cohort3/Inheritance/Vehicle.sol\":111:179  constructor (string memory _brand) {... */\n  pop\n    /* \"Cohort3/Inheritance/truck.sol\":220:226  _brand */\n  dup2\n    /* \"Cohort3/Inheritance/truck.sol\":212:217  brand */\n  0x00\n    /* \"Cohort3/Inheritance/truck.sol\":212:226  brand = _brand */\n  swap1\n  dup2\n  tag_10\n  swap2\n  swap1\n  tag_8\n  jump\t// in\ntag_10:\n  pop\n    /* \"Cohort3/Inheritance/truck.sol\":246:253  _wheels */\n  dup1\n    /* \"Cohort3/Inheritance/truck.sol\":237:243  wheels */\n  0x01\n  0x00\n    /* \"Cohort3/Inheritance/truck.sol\":237:253  wheels = _wheels */\n  0x0100\n  exp\n  dup2\n  sload\n  dup2\n  0xff\n  mul\n  not\n  and\n  swap1\n  dup4\n  0xff\n  and\n  mul\n  or\n  swap1\n  sstore\n  pop\n    /* \"Cohort3/Inheritance/truck.sol\":135:261  constructor (string memory _brand, uint8 _wheels) Vehicle(_brand) {... */\n  pop\n  pop\n    /* \"Cohort3/Inheritance/truck.sol\":85:385  contract Car is Vehicle {... */\n  jump(tag_11)\n    /* \"#utility.yul\":7:82   */\ntag_12:\n    /* \"#utility.yul\":40:46   */\n  0x00\n    /* \"#utility.yul\":73:75   */\n  0x40\n    /* \"#utility.yul\":67:76   */\n  mload\n    /* \"#utility.yul\":57:76   */\n  swap1\n  pop\n    /* \"#utility.yul\":7:82   */\n  swap1\n  jump\t// out\n    /* \"#utility.yul\":88:205   */\ntag_13:\n    /* \"#utility.yul\":197:198   */\n  0x00\n    /* \"#utility.yul\":194:195   */\n  dup1\n    /* \"#utility.yul\":187:199   */\n  revert\n    /* \"#utility.yul\":211:328   */\ntag_14:\n    /* \"#utility.yul\":320:321   */\n  0x00\n    /* \"#utility.yul\":317:318   */\n  dup1\n    /* \"#utility.yul\":310:322   */\n  revert\n    /* \"#utility.yul\":334:451   */\ntag_15:\n    /* \"#utility.yul\":443:444   */\n  0x00\n    /* \"#utility.yul\":440:441   */\n  dup1\n    /* \"#utility.yul\":433:445   */\n  revert\n    /* \"#utility.yul\":457:574   */\ntag_16:\n    /* \"#utility.yul\":566:567   */\n  0x00\n    /* \"#utility.yul\":563:564   */\n  dup1\n    /* \"#utility.yul\":556:568   */\n  revert\n    /* \"#utility.yul\":580:682   */\ntag_17:\n    /* \"#utility.yul\":621:627   */\n  0x00\n    /* \"#utility.yul\":672:674   */\n  0x1f\n    /* \"#utility.yul\":668:675   */\n  not\n    /* \"#utility.yul\":663:665   */\n  0x1f\n    /* \"#utility.yul\":656:661   */\n  dup4\n    /* \"#utility.yul\":652:666   */\n  add\n    /* \"#utility.yul\":648:676   */\n  and\n    /* \"#utility.yul\":638:676   */\n  swap1\n  pop\n    /* \"#utility.yul\":580:682   */\n  swap2\n  swap1\n  pop\n  jump\t// out\n    /* \"#utility.yul\":688:868   */\ntag_18:\n    /* \"#utility.yul\":736:813   */\n  0x4e487b7100000000000000000000000000000000000000000000000000000000\n    /* \"#utility.yul\":733:734   */\n  0x00\n    /* \"#utility.yul\":726:814   */\n  mstore\n    /* \"#utility.yul\":833:837   */\n  0x41\n    /* \"#utility.yul\":830:831   */\n  0x04\n    /* \"#utility.yul\":823:838   */\n  mstore\n    /* \"#utility.yul\":857:861   */\n  0x24\n    /* \"#utility.yul\":854:855   */\n  0x00\n    /* \"#utility.yul\":847:862   */\n  revert\n    /* \"#utility.yul\":874:1155   */\ntag_19:\n    /* \"#utility.yul\":957:984   */\n  tag_56\n    /* \"#utility.yul\":979:983   */\n  dup3\n    /* \"#utility.yul\":957:984   */\n  tag_17\n  jump\t// in\ntag_56:\n    /* \"#utility.yul\":949:955   */\n  dup2\n    /* \"#utility.yul\":945:985   */\n  add\n    /* \"#utility.yul\":1087:1093   */\n  dup2\n    /* \"#utility.yul\":1075:1085   */\n  dup2\n    /* \"#utility.yul\":1072:1094   */\n  lt\n    /* \"#utility.yul\":1051:1069   */\n  0xffffffffffffffff\n    /* \"#utility.yul\":1039:1049   */\n  dup3\n    /* \"#utility.yul\":1036:1070   */\n  gt\n    /* \"#utility.yul\":1033:1095   */\n  or\n    /* \"#utility.yul\":1030:1118   */\n  iszero\n  tag_57\n  jumpi\n    /* \"#utility.yul\":1098:1116   */\n  tag_58\n  tag_18\n  jump\t// in\ntag_58:\n    /* \"#utility.yul\":1030:1118   */\ntag_57:\n    /* \"#utility.yul\":1138:1148   */\n  dup1\n    /* \"#utility.yul\":1134:1136   */\n  0x40\n    /* \"#utility.yul\":1127:1149   */\n  mstore\n    /* \"#utility.yul\":917:1155   */\n  pop\n    /* \"#utility.yul\":874:1155   */\n  pop\n  pop\n  jump\t// out\n    /* \"#utility.yul\":1161:1290   */\ntag_20:\n    /* \"#utility.yul\":1195:1201   */\n  0x00\n    /* \"#utility.yul\":1222:1242   */\n  tag_60\n  tag_12\n  jump\t// in\ntag_60:\n    /* \"#utility.yul\":1212:1242   */\n  swap1\n  pop\n    /* \"#utility.yul\":1251:1284   */\n  tag_61\n    /* \"#utility.yul\":1279:1283   */\n  dup3\n    /* \"#utility.yul\":1271:1277   */\n  dup3\n    /* \"#utility.yul\":1251:1284   */\n  tag_19\n  jump\t// in\ntag_61:\n    /* \"#utility.yul\":1161:1290   */\n  swap2\n  swap1\n  pop\n  jump\t// out\n    /* \"#utility.yul\":1296:1604   */\ntag_21:\n    /* \"#utility.yul\":1358:1362   */\n  0x00\n    /* \"#utility.yul\":1448:1466   */\n  0xffffffffffffffff\n    /* \"#utility.yul\":1440:1446   */\n  dup3\n    /* \"#utility.yul\":1437:1467   */\n  gt\n    /* \"#utility.yul\":1434:1490   */\n  iszero\n  tag_63\n  jumpi\n    /* \"#utility.yul\":1470:1488   */\n  tag_64\n  tag_18\n  jump\t// in\ntag_64:\n    /* \"#utility.yul\":1434:1490   */\ntag_63:\n    /* \"#utility.yul\":1508:1537   */\n  tag_65\n    /* \"#utility.yul\":1530:1536   */\n  dup3\n    /* \"#utility.yul\":1508:1537   */\n  tag_17\n  jump\t// in\ntag_65:\n    /* \"#utility.yul\":1500:1537   */\n  swap1\n  pop\n    /* \"#utility.yul\":1592:1596   */\n  0x20\n    /* \"#utility.yul\":1586:1590   */\n  dup2\n    /* \"#utility.yul\":1582:1597   */\n  add\n    /* \"#utility.yul\":1574:1597   */\n  swap1\n  pop\n    /* \"#utility.yul\":1296:1604   */\n  swap2\n  swap1\n  pop\n  jump\t// out\n    /* \"#utility.yul\":1610:1749   */\ntag_22:\n    /* \"#utility.yul\":1699:1705   */\n  dup3\n    /* \"#utility.yul\":1694:1697   */\n  dup2\n    /* \"#utility.yul\":1689:1692   */\n  dup4\n    /* \"#utility.yul\":1683:1706   */\n  mcopy\n    /* \"#utility.yul\":1740:1741   */\n  0x00\n    /* \"#utility.yul\":1731:1737   */\n  dup4\n    /* \"#utility.yul\":1726:1729   */\n  dup4\n    /* \"#utility.yul\":1722:1738   */\n  add\n    /* \"#utility.yul\":1715:1742   */\n  mstore\n    /* \"#utility.yul\":1610:1749   */\n  pop\n  pop\n  pop\n  jump\t// out\n    /* \"#utility.yul\":1755:2189   */\ntag_23:\n    /* \"#utility.yul\":1844:1849   */\n  0x00\n    /* \"#utility.yul\":1869:1935   */\n  tag_68\n    /* \"#utility.yul\":1885:1934   */\n  tag_69\n    /* \"#utility.yul\":1927:1933   */\n  dup5\n    /* \"#utility.yul\":1885:1934   */\n  tag_21\n  jump\t// in\ntag_69:\n    /* \"#utility.yul\":1869:1935   */\n  tag_20\n  jump\t// in\ntag_68:\n    /* \"#utility.yul\":1860:1935   */\n  swap1\n  pop\n    /* \"#utility.yul\":1958:1964   */\n  dup3\n    /* \"#utility.yul\":1951:1956   */\n  dup2\n    /* \"#utility.yul\":1944:1965   */\n  mstore\n    /* \"#utility.yul\":1996:2000   */\n  0x20\n    /* \"#utility.yul\":1989:1994   */\n  dup2\n    /* \"#utility.yul\":1985:2001   */\n  add\n    /* \"#utility.yul\":2034:2037   */\n  dup5\n    /* \"#utility.yul\":2025:2031   */\n  dup5\n    /* \"#utility.yul\":2020:2023   */\n  dup5\n    /* \"#utility.yul\":2016:2032   */\n  add\n    /* \"#utility.yul\":2013:2038   */\n  gt\n    /* \"#utility.yul\":2010:2122   */\n  iszero\n  tag_70\n  jumpi\n    /* \"#utility.yul\":2041:2120   */\n  tag_71\n  tag_16\n  jump\t// in\ntag_71:\n    /* \"#utility.yul\":2010:2122   */\ntag_70:\n    /* \"#utility.yul\":2131:2183   */\n  tag_72\n    /* \"#utility.yul\":2176:2182   */\n  dup5\n    /* \"#utility.yul\":2171:2174   */\n  dup3\n    /* \"#utility.yul\":2166:2169   */\n  dup6\n    /* \"#utility.yul\":2131:2183   */\n  tag_22\n  jump\t// in\ntag_72:\n    /* \"#utility.yul\":1850:2189   */\n  pop\n    /* \"#utility.yul\":1755:2189   */\n  swap4\n  swap3\n  pop\n  pop\n  pop\n  jump\t// out\n    /* \"#utility.yul\":2209:2564   */\ntag_24:\n    /* \"#utility.yul\":2276:2281   */\n  0x00\n    /* \"#utility.yul\":2325:2328   */\n  dup3\n    /* \"#utility.yul\":2318:2322   */\n  0x1f\n    /* \"#utility.yul\":2310:2316   */\n  dup4\n    /* \"#utility.yul\":2306:2323   */\n  add\n    /* \"#utility.yul\":2302:2329   */\n  slt\n    /* \"#utility.yul\":2292:2414   */\n  tag_74\n  jumpi\n    /* \"#utility.yul\":2333:2412   */\n  tag_75\n  tag_15\n  jump\t// in\ntag_75:\n    /* \"#utility.yul\":2292:2414   */\ntag_74:\n    /* \"#utility.yul\":2443:2449   */\n  dup2\n    /* \"#utility.yul\":2437:2450   */\n  mload\n    /* \"#utility.yul\":2468:2558   */\n  tag_76\n    /* \"#utility.yul\":2554:2557   */\n  dup5\n    /* \"#utility.yul\":2546:2552   */\n  dup3\n    /* \"#utility.yul\":2539:2543   */\n  0x20\n    /* \"#utility.yul\":2531:2537   */\n  dup7\n    /* \"#utility.yul\":2527:2544   */\n  add\n    /* \"#utility.yul\":2468:2558   */\n  tag_23\n  jump\t// in\ntag_76:\n    /* \"#utility.yul\":2459:2558   */\n  swap2\n  pop\n    /* \"#utility.yul\":2282:2564   */\n  pop\n    /* \"#utility.yul\":2209:2564   */\n  swap3\n  swap2\n  pop\n  pop\n  jump\t// out\n    /* \"#utility.yul\":2570:2656   */\ntag_25:\n    /* \"#utility.yul\":2605:2612   */\n  0x00\n    /* \"#utility.yul\":2645:2649   */\n  0xff\n    /* \"#utility.yul\":2638:2643   */\n  dup3\n    /* \"#utility.yul\":2634:2650   */\n  and\n    /* \"#utility.yul\":2623:2650   */\n  swap1\n  pop\n    /* \"#utility.yul\":2570:2656   */\n  swap2\n  swap1\n  pop\n  jump\t// out\n    /* \"#utility.yul\":2662:2780   */\ntag_26:\n    /* \"#utility.yul\":2733:2755   */\n  tag_79\n    /* \"#utility.yul\":2749:2754   */\n  dup2\n    /* \"#utility.yul\":2733:2755   */\n  tag_25\n  jump\t// in\ntag_79:\n    /* \"#utility.yul\":2726:2731   */\n  dup2\n    /* \"#utility.yul\":2723:2756   */\n  eq\n    /* \"#utility.yul\":2713:2774   */\n  tag_80\n  jumpi\n    /* \"#utility.yul\":2770:2771   */\n  0x00\n    /* \"#utility.yul\":2767:2768   */\n  dup1\n    /* \"#utility.yul\":2760:2772   */\n  revert\n    /* \"#utility.yul\":2713:2774   */\ntag_80:\n    /* \"#utility.yul\":2662:2780   */\n  pop\n  jump\t// out\n    /* \"#utility.yul\":2786:2925   */\ntag_27:\n    /* \"#utility.yul\":2841:2846   */\n  0x00\n    /* \"#utility.yul\":2872:2878   */\n  dup2\n    /* \"#utility.yul\":2866:2879   */\n  mload\n    /* \"#utility.yul\":2857:2879   */\n  swap1\n  pop\n    /* \"#utility.yul\":2888:2919   */\n  tag_82\n    /* \"#utility.yul\":2913:2918   */\n  dup2\n    /* \"#utility.yul\":2888:2919   */\n  tag_26\n  jump\t// in\ntag_82:\n    /* \"#utility.yul\":2786:2925   */\n  swap3\n  swap2\n  pop\n  pop\n  jump\t// out\n    /* \"#utility.yul\":2931:3607   */\ntag_3:\n    /* \"#utility.yul\":3018:3024   */\n  0x00\n    /* \"#utility.yul\":3026:3032   */\n  dup1\n    /* \"#utility.yul\":3075:3077   */\n  0x40\n    /* \"#utility.yul\":3063:3072   */\n  dup4\n    /* \"#utility.yul\":3054:3061   */\n  dup6\n    /* \"#utility.yul\":3050:3073   */\n  sub\n    /* \"#utility.yul\":3046:3078   */\n  slt\n    /* \"#utility.yul\":3043:3162   */\n  iszero\n  tag_84\n  jumpi\n    /* \"#utility.yul\":3081:3160   */\n  tag_85\n  tag_13\n  jump\t// in\ntag_85:\n    /* \"#utility.yul\":3043:3162   */\ntag_84:\n    /* \"#utility.yul\":3222:3223   */\n  0x00\n    /* \"#utility.yul\":3211:3220   */\n  dup4\n    /* \"#utility.yul\":3207:3224   */\n  add\n    /* \"#utility.yul\":3201:3225   */\n  mload\n    /* \"#utility.yul\":3252:3270   */\n  0xffffffffffffffff\n    /* \"#utility.yul\":3244:3250   */\n  dup2\n    /* \"#utility.yul\":3241:3271   */\n  gt\n    /* \"#utility.yul\":3238:3355   */\n  iszero\n  tag_86\n  jumpi\n    /* \"#utility.yul\":3274:3353   */\n  tag_87\n  tag_14\n  jump\t// in\ntag_87:\n    /* \"#utility.yul\":3238:3355   */\ntag_86:\n    /* \"#utility.yul\":3379:3453   */\n  tag_88\n    /* \"#utility.yul\":3445:3452   */\n  dup6\n    /* \"#utility.yul\":3436:3442   */\n  dup3\n    /* \"#utility.yul\":3425:3434   */\n  dup7\n    /* \"#utility.yul\":3421:3443   */\n  add\n    /* \"#utility.yul\":3379:3453   */\n  tag_24\n  jump\t// in\ntag_88:\n    /* \"#utility.yul\":3369:3453   */\n  swap3\n  pop\n    /* \"#utility.yul\":3172:3463   */\n  pop\n    /* \"#utility.yul\":3502:3504   */\n  0x20\n    /* \"#utility.yul\":3528:3590   */\n  tag_89\n    /* \"#utility.yul\":3582:3589   */\n  dup6\n    /* \"#utility.yul\":3573:3579   */\n  dup3\n    /* \"#utility.yul\":3562:3571   */\n  dup7\n    /* \"#utility.yul\":3558:3580   */\n  add\n    /* \"#utility.yul\":3528:3590   */\n  tag_27\n  jump\t// in\ntag_89:\n    /* \"#utility.yul\":3518:3590   */\n  swap2\n  pop\n    /* \"#utility.yul\":3473:3600   */\n  pop\n    /* \"#utility.yul\":2931:3607   */\n  swap3\n  pop\n  swap3\n  swap1\n  pop\n  jump\t// out\n    /* \"#utility.yul\":3613:3712   */\ntag_28:\n    /* \"#utility.yul\":3665:3671   */\n  0x00\n    /* \"#utility.yul\":3699:3704   */\n  dup2\n    /* \"#utility.yul\":3693:3705   */\n  mload\n    /* \"#utility.yul\":3683:3705   */\n  swap1\n  pop\n    /* \"#utility.yul\":3613:3712   */\n  swap2\n  swap1\n  pop\n  jump\t// out\n    /* \"#utility.yul\":3718:3898   */\ntag_29:\n    /* \"#utility.yul\":3766:3843   */\n  0x4e487b7100000000000000000000000000000000000000000000000000000000\n    /* \"#utility.yul\":3763:3764   */\n  0x00\n    /* \"#utility.yul\":3756:3844   */\n  mstore\n    /* \"#utility.yul\":3863:3867   */\n  0x22\n    /* \"#utility.yul\":3860:3861   */\n  0x04\n    /* \"#utility.yul\":3853:3868   */\n  mstore\n    /* \"#utility.yul\":3887:3891   */\n  0x24\n    /* \"#utility.yul\":3884:3885   */\n  0x00\n    /* \"#utility.yul\":3877:3892   */\n  revert\n    /* \"#utility.yul\":3904:4224   */\ntag_30:\n    /* \"#utility.yul\":3948:3954   */\n  0x00\n    /* \"#utility.yul\":3985:3986   */\n  0x02\n    /* \"#utility.yul\":3979:3983   */\n  dup3\n    /* \"#utility.yul\":3975:3987   */\n  div\n    /* \"#utility.yul\":3965:3987   */\n  swap1\n  pop\n    /* \"#utility.yul\":4032:4033   */\n  0x01\n    /* \"#utility.yul\":4026:4030   */\n  dup3\n    /* \"#utility.yul\":4022:4034   */\n  and\n    /* \"#utility.yul\":4053:4071   */\n  dup1\n    /* \"#utility.yul\":4043:4124   */\n  tag_93\n  jumpi\n    /* \"#utility.yul\":4109:4113   */\n  0x7f\n    /* \"#utility.yul\":4101:4107   */\n  dup3\n    /* \"#utility.yul\":4097:4114   */\n  and\n    /* \"#utility.yul\":4087:4114   */\n  swap2\n  pop\n    /* \"#utility.yul\":4043:4124   */\ntag_93:\n    /* \"#utility.yul\":4171:4173   */\n  0x20\n    /* \"#utility.yul\":4163:4169   */\n  dup3\n    /* \"#utility.yul\":4160:4174   */\n  lt\n    /* \"#utility.yul\":4140:4158   */\n  dup2\n    /* \"#utility.yul\":4137:4175   */\n  sub\n    /* \"#utility.yul\":4134:4218   */\n  tag_94\n  jumpi\n    /* \"#utility.yul\":4190:4208   */\n  tag_95\n  tag_29\n  jump\t// in\ntag_95:\n    /* \"#utility.yul\":4134:4218   */\ntag_94:\n    /* \"#utility.yul\":3955:4224   */\n  pop\n    /* \"#utility.yul\":3904:4224   */\n  swap2\n  swap1\n  pop\n  jump\t// out\n    /* \"#utility.yul\":4230:4371   */\ntag_31:\n    /* \"#utility.yul\":4279:4283   */\n  0x00\n    /* \"#utility.yul\":4302:4305   */\n  dup2\n    /* \"#utility.yul\":4294:4305   */\n  swap1\n  pop\n    /* \"#utility.yul\":4325:4328   */\n  dup2\n    /* \"#utility.yul\":4322:4323   */\n  0x00\n    /* \"#utility.yul\":4315:4329   */\n  mstore\n    /* \"#utility.yul\":4359:4363   */\n  0x20\n    /* \"#utility.yul\":4356:4357   */\n  0x00\n    /* \"#utility.yul\":4346:4364   */\n  keccak256\n    /* \"#utility.yul\":4338:4364   */\n  swap1\n  pop\n    /* \"#utility.yul\":4230:4371   */\n  swap2\n  swap1\n  pop\n  jump\t// out\n    /* \"#utility.yul\":4377:4470   */\ntag_32:\n    /* \"#utility.yul\":4414:4420   */\n  0x00\n    /* \"#utility.yul\":4461:4463   */\n  0x20\n    /* \"#utility.yul\":4456:4458   */\n  0x1f\n    /* \"#utility.yul\":4449:4454   */\n  dup4\n    /* \"#utility.yul\":4445:4459   */\n  add\n    /* \"#utility.yul\":4441:4464   */\n  div\n    /* \"#utility.yul\":4431:4464   */\n  swap1\n  pop\n    /* \"#utility.yul\":4377:4470   */\n  swap2\n  swap1\n  pop\n  jump\t// out\n    /* \"#utility.yul\":4476:4583   */\ntag_33:\n    /* \"#utility.yul\":4520:4528   */\n  0x00\n    /* \"#utility.yul\":4570:4575   */\n  dup3\n    /* \"#utility.yul\":4564:4568   */\n  dup3\n    /* \"#utility.yul\":4560:4576   */\n  shl\n    /* \"#utility.yul\":4539:4576   */\n  swap1\n  pop\n    /* \"#utility.yul\":4476:4583   */\n  swap3\n  swap2\n  pop\n  pop\n  jump\t// out\n    /* \"#utility.yul\":4589:4982   */\ntag_34:\n    /* \"#utility.yul\":4658:4664   */\n  0x00\n    /* \"#utility.yul\":4708:4709   */\n  0x08\n    /* \"#utility.yul\":4696:4706   */\n  dup4\n    /* \"#utility.yul\":4692:4710   */\n  mul\n    /* \"#utility.yul\":4731:4828   */\n  tag_100\n    /* \"#utility.yul\":4761:4827   */\n  0xffffffffffffffffffffffffffffffffffffffffffffffffffffffffffffffff\n    /* \"#utility.yul\":4750:4759   */\n  dup3\n    /* \"#utility.yul\":4731:4828   */\n  tag_33\n  jump\t// in\ntag_100:\n    /* \"#utility.yul\":4849:4888   */\n  tag_101\n    /* \"#utility.yul\":4879:4887   */\n  dup7\n    /* \"#utility.yul\":4868:4877   */\n  dup4\n    /* \"#utility.yul\":4849:4888   */\n  tag_33\n  jump\t// in\ntag_101:\n    /* \"#utility.yul\":4837:4888   */\n  swap6\n  pop\n    /* \"#utility.yul\":4921:4925   */\n  dup1\n    /* \"#utility.yul\":4917:4926   */\n  not\n    /* \"#utility.yul\":4910:4915   */\n  dup5\n    /* \"#utility.yul\":4906:4927   */\n  and\n    /* \"#utility.yul\":4897:4927   */\n  swap4\n  pop\n    /* \"#utility.yul\":4970:4974   */\n  dup1\n    /* \"#utility.yul\":4960:4968   */\n  dup7\n    /* \"#utility.yul\":4956:4975   */\n  and\n    /* \"#utility.yul\":4949:4954   */\n  dup5\n    /* \"#utility.yul\":4946:4976   */\n  or\n    /* \"#utility.yul\":4936:4976   */\n  swap3\n  pop\n    /* \"#utility.yul\":4665:4982   */\n  pop\n  pop\n    /* \"#utility.yul\":4589:4982   */\n  swap4\n  swap3\n  pop\n  pop\n  pop\n  jump\t// out\n    /* \"#utility.yul\":4988:5065   */\ntag_35:\n    /* \"#utility.yul\":5025:5032   */\n  0x00\n    /* \"#utility.yul\":5054:5059   */\n  dup2\n    /* \"#utility.yul\":5043:5059   */\n  swap1\n  pop\n    /* \"#utility.yul\":4988:5065   */\n  swap2\n  swap1\n  pop\n  jump\t// out\n    /* \"#utility.yul\":5071:5131   */\ntag_36:\n    /* \"#utility.yul\":5099:5102   */\n  0x00\n    /* \"#utility.yul\":5120:5125   */\n  dup2\n    /* \"#utility.yul\":5113:5125   */\n  swap1\n  pop\n    /* \"#utility.yul\":5071:5131   */\n  swap2\n  swap1\n  pop\n  jump\t// out\n    /* \"#utility.yul\":5137:5279   */\ntag_37:\n    /* \"#utility.yul\":5187:5196   */\n  0x00\n    /* \"#utility.yul\":5220:5273   */\n  tag_105\n    /* \"#utility.yul\":5238:5272   */\n  tag_106\n    /* \"#utility.yul\":5247:5271   */\n  tag_107\n    /* \"#utility.yul\":5265:5270   */\n  dup5\n    /* \"#utility.yul\":5247:5271   */\n  tag_35\n  jump\t// in\ntag_107:\n    /* \"#utility.yul\":5238:5272   */\n  tag_36\n  jump\t// in\ntag_106:\n    /* \"#utility.yul\":5220:5273   */\n  tag_35\n  jump\t// in\ntag_105:\n    /* \"#utility.yul\":5207:5273   */\n  swap1\n  pop\n    /* \"#utility.yul\":5137:5279   */\n  swap2\n  swap1\n  pop\n  jump\t// out\n    /* \"#utility.yul\":5285:5360   */\ntag_38:\n    /* \"#utility.yul\":5328:5331   */\n  0x00\n    /* \"#utility.yul\":5349:5354   */\n  dup2\n    /* \"#utility.yul\":5342:5354   */\n  swap1\n  pop\n    /* \"#utility.yul\":5285:5360   */\n  swap2\n  swap1\n  pop\n  jump\t// out\n    /* \"#utility.yul\":5366:5635   */\ntag_39:\n    /* \"#utility.yul\":5476:5515   */\n  tag_110\n    /* \"#utility.yul\":5507:5514   */\n  dup4\n    /* \"#utility.yul\":5476:5515   */\n  tag_37\n  jump\t// in\ntag_110:\n    /* \"#utility.yul\":5537:5628   */\n  tag_111\n    /* \"#utility.yul\":5586:5627   */\n  tag_112\n    /* \"#utility.yul\":5610:5626   */\n  dup3\n    /* \"#utility.yul\":5586:5627   */\n  tag_38\n  jump\t// in\ntag_112:\n    /* \"#utility.yul\":5578:5584   */\n  dup5\n    /* \"#utility.yul\":5571:5575   */\n  dup5\n    /* \"#utility.yul\":5565:5576   */\n  sload\n    /* \"#utility.yul\":5537:5628   */\n  tag_34\n  jump\t// in\ntag_111:\n    /* \"#utility.yul\":5531:5535   */\n  dup3\n    /* \"#utility.yul\":5524:5629   */\n  sstore\n    /* \"#utility.yul\":5442:5635   */\n  pop\n    /* \"#utility.yul\":5366:5635   */\n  pop\n  pop\n  pop\n  jump\t// out\n    /* \"#utility.yul\":5641:5714   */\ntag_40:\n    /* \"#utility.yul\":5686:5689   */\n  0x00\n    /* \"#utility.yul\":5641:5714   */\n  swap1\n  jump\t// out\n    /* \"#utility.yul\":5720:5909   */\ntag_41:\n    /* \"#utility.yul\":5797:5829   */\n  tag_115\n  tag_40\n  jump\t// in\ntag_115:\n    /* \"#utility.yul\":5838:5903   */\n  tag_116\n    /* \"#utility.yul\":5896:5902   */\n  dup2\n    /* \"#utility.yul\":5888:5894   */\n  dup5\n    /* \"#utility.yul\":5882:5886   */\n  dup5\n    /* \"#utility.yul\":5838:5903   */\n  tag_39\n  jump\t// in\ntag_116:\n    /* \"#utility.yul\":5773:5909   */\n  pop\n    /* \"#utility.yul\":5720:5909   */\n  pop\n  pop\n  jump\t// out\n    /* \"#utility.yul\":5915:6101   */\ntag_42:\n    /* \"#utility.yul\":5975:6095   */\ntag_118:\n    /* \"#utility.yul\":5992:5995   */\n  dup2\n    /* \"#utility.yul\":5985:5990   */\n  dup2\n    /* \"#utility.yul\":5982:5996   */\n  lt\n    /* \"#utility.yul\":5975:6095   */\n  iszero\n  tag_120\n  jumpi\n    /* \"#utility.yul\":6046:6085   */\n  tag_121\n    /* \"#utility.yul\":6083:6084   */\n  0x00\n    /* \"#utility.yul\":6076:6081   */\n  dup3\n    /* \"#utility.yul\":6046:6085   */\n  tag_41\n  jump\t// in\ntag_121:\n    /* \"#utility.yul\":6019:6020   */\n  0x01\n    /* \"#utility.yul\":6012:6017   */\n  dup2\n    /* \"#utility.yul\":6008:6021   */\n  add\n    /* \"#utility.yul\":5999:6021   */\n  swap1\n  pop\n    /* \"#utility.yul\":5975:6095   */\n  jump(tag_118)\ntag_120:\n    /* \"#utility.yul\":5915:6101   */\n  pop\n  pop\n  jump\t// out\n    /* \"#utility.yul\":6107:6650   */\ntag_43:\n    /* \"#utility.yul\":6208:6210   */\n  0x1f\n    /* \"#utility.yul\":6203:6206   */\n  dup3\n    /* \"#utility.yul\":6200:6211   */\n  gt\n    /* \"#utility.yul\":6197:6643   */\n  iszero\n  tag_123\n  jumpi\n    /* \"#utility.yul\":6242:6280   */\n  tag_124\n    /* \"#utility.yul\":6274:6279   */\n  dup2\n    /* \"#utility.yul\":6242:6280   */\n  tag_31\n  jump\t// in\ntag_124:\n    /* \"#utility.yul\":6326:6355   */\n  tag_125\n    /* \"#utility.yul\":6344:6354   */\n  dup5\n    /* \"#utility.yul\":6326:6355   */\n  tag_32\n  jump\t// in\ntag_125:\n    /* \"#utility.yul\":6316:6324   */\n  dup2\n    /* \"#utility.yul\":6312:6356   */\n  add\n    /* \"#utility.yul\":6509:6511   */\n  0x20\n    /* \"#utility.yul\":6497:6507   */\n  dup6\n    /* \"#utility.yul\":6494:6512   */\n  lt\n    /* \"#utility.yul\":6491:6540   */\n  iszero\n  tag_126\n  jumpi\n    /* \"#utility.yul\":6530:6538   */\n  dup2\n    /* \"#utility.yul\":6515:6538   */\n  swap1\n  pop\n    /* \"#utility.yul\":6491:6540   */\ntag_126:\n    /* \"#utility.yul\":6553:6633   */\n  tag_127\n    /* \"#utility.yul\":6609:6631   */\n  tag_128\n    /* \"#utility.yul\":6627:6630   */\n  dup6\n    /* \"#utility.yul\":6609:6631   */\n  tag_32\n  jump\t// in\ntag_128:\n    /* \"#utility.yul\":6599:6607   */\n  dup4\n    /* \"#utility.yul\":6595:6632   */\n  add\n    /* \"#utility.yul\":6582:6593   */\n  dup3\n    /* \"#utility.yul\":6553:6633   */\n  tag_42\n  jump\t// in\ntag_127:\n    /* \"#utility.yul\":6212:6643   */\n  pop\n  pop\n    /* \"#utility.yul\":6197:6643   */\ntag_123:\n    /* \"#utility.yul\":6107:6650   */\n  pop\n  pop\n  pop\n  jump\t// out\n    /* \"#utility.yul\":6656:6773   */\ntag_44:\n    /* \"#utility.yul\":6710:6718   */\n  0x00\n    /* \"#utility.yul\":6760:6765   */\n  dup3\n    /* \"#utility.yul\":6754:6758   */\n  dup3\n    /* \"#utility.yul\":6750:6766   */\n  shr\n    /* \"#utility.yul\":6729:6766   */\n  swap1\n  pop\n    /* \"#utility.yul\":6656:6773   */\n  swap3\n  swap2\n  pop\n  pop\n  jump\t// out\n    /* \"#utility.yul\":6779:6948   */\ntag_45:\n    /* \"#utility.yul\":6823:6829   */\n  0x00\n    /* \"#utility.yul\":6856:6907   */\n  tag_131\n    /* \"#utility.yul\":6904:6905   */\n  0x00\n    /* \"#utility.yul\":6900:6906   */\n  not\n    /* \"#utility.yul\":6892:6897   */\n  dup5\n    /* \"#utility.yul\":6889:6890   */\n  0x08\n    /* \"#utility.yul\":6885:6898   */\n  mul\n    /* \"#utility.yul\":6856:6907   */\n  tag_44\n  jump\t// in\ntag_131:\n    /* \"#utility.yul\":6852:6908   */\n  not\n    /* \"#utility.yul\":6937:6941   */\n  dup1\n    /* \"#utility.yul\":6931:6935   */\n  dup4\n    /* \"#utility.yul\":6927:6942   */\n  and\n    /* \"#utility.yul\":6917:6942   */\n  swap2\n  pop\n    /* \"#utility.yul\":6830:6948   */\n  pop\n    /* \"#utility.yul\":6779:6948   */\n  swap3\n  swap2\n  pop\n  pop\n  jump\t// out\n    /* \"#utility.yul\":6953:7248   */\ntag_46:\n    /* \"#utility.yul\":7029:7033   */\n  0x00\n    /* \"#utility.yul\":7175:7204   */\n  tag_133\n    /* \"#utility.yul\":7200:7203   */\n  dup4\n    /* \"#utility.yul\":7194:7198   */\n  dup4\n    /* \"#utility.yul\":7175:7204   */\n  tag_45\n  jump\t// in\ntag_133:\n    /* \"#utility.yul\":7167:7204   */\n  swap2\n  pop\n    /* \"#utility.yul\":7237:7240   */\n  dup3\n    /* \"#utility.yul\":7234:7235   */\n  0x02\n    /* \"#utility.yul\":7230:7241   */\n  mul\n    /* \"#utility.yul\":7224:7228   */\n  dup3\n    /* \"#utility.yul\":7221:7242   */\n  or\n    /* \"#utility.yul\":7213:7242   */\n  swap1\n  pop\n    /* \"#utility.yul\":6953:7248   */\n  swap3\n  swap2\n  pop\n  pop\n  jump\t// out\n    /* \"#utility.yul\":7253:8648   */\ntag_8:\n    /* \"#utility.yul\":7370:7407   */\n  tag_135\n    /* \"#utility.yul\":7403:7406   */\n  dup3\n    /* \"#utility.yul\":7370:7407   */\n  tag_28\n  jump\t// in\ntag_135:\n    /* \"#utility.yul\":7472:7490   */\n  0xffffffffffffffff\n    /* \"#utility.yul\":7464:7470   */\n  dup2\n    /* \"#utility.yul\":7461:7491   */\n  gt\n    /* \"#utility.yul\":7458:7514   */\n  iszero\n  tag_136\n  jumpi\n    /* \"#utility.yul\":7494:7512   */\n  tag_137\n  tag_18\n  jump\t// in\ntag_137:\n    /* \"#utility.yul\":7458:7514   */\ntag_136:\n    /* \"#utility.yul\":7538:7576   */\n  tag_138\n    /* \"#utility.yul\":7570:7574   */\n  dup3\n    /* \"#utility.yul\":7564:7575   */\n  sload\n    /* \"#utility.yul\":7538:7576   */\n  tag_30\n  jump\t// in\ntag_138:\n    /* \"#utility.yul\":7623:7690   */\n  tag_139\n    /* \"#utility.yul\":7683:7689   */\n  dup3\n    /* \"#utility.yul\":7675:7681   */\n  dup3\n    /* \"#utility.yul\":7669:7673   */\n  dup6\n    /* \"#utility.yul\":7623:7690   */\n  tag_43\n  jump\t// in\ntag_139:\n    /* \"#utility.yul\":7717:7718   */\n  0x00\n    /* \"#utility.yul\":7741:7745   */\n  0x20\n    /* \"#utility.yul\":7728:7745   */\n  swap1\n  pop\n    /* \"#utility.yul\":7773:7775   */\n  0x1f\n    /* \"#utility.yul\":7765:7771   */\n  dup4\n    /* \"#utility.yul\":7762:7776   */\n  gt\n    /* \"#utility.yul\":7790:7791   */\n  0x01\n    /* \"#utility.yul\":7785:8403   */\n  dup2\n  eq\n  tag_141\n  jumpi\n    /* \"#utility.yul\":8447:8448   */\n  0x00\n    /* \"#utility.yul\":8464:8470   */\n  dup5\n    /* \"#utility.yul\":8461:8538   */\n  iszero\n  tag_142\n  jumpi\n    /* \"#utility.yul\":8513:8522   */\n  dup3\n    /* \"#utility.yul\":8508:8511   */\n  dup8\n    /* \"#utility.yul\":8504:8523   */\n  add\n    /* \"#utility.yul\":8498:8524   */\n  mload\n    /* \"#utility.yul\":8489:8524   */\n  swap1\n  pop\n    /* \"#utility.yul\":8461:8538   */\ntag_142:\n    /* \"#utility.yul\":8564:8631   */\n  tag_143\n    /* \"#utility.yul\":8624:8630   */\n  dup6\n    /* \"#utility.yul\":8617:8622   */\n  dup3\n    /* \"#utility.yul\":8564:8631   */\n  tag_46\n  jump\t// in\ntag_143:\n    /* \"#utility.yul\":8558:8562   */\n  dup7\n    /* \"#utility.yul\":8551:8632   */\n  sstore\n    /* \"#utility.yul\":8420:8642   */\n  pop\n    /* \"#utility.yul\":7755:8642   */\n  jump(tag_140)\n    /* \"#utility.yul\":7785:8403   */\ntag_141:\n    /* \"#utility.yul\":7837:7841   */\n  0x1f\n    /* \"#utility.yul\":7833:7842   */\n  not\n    /* \"#utility.yul\":7825:7831   */\n  dup5\n    /* \"#utility.yul\":7821:7843   */\n  and\n    /* \"#utility.yul\":7871:7908   */\n  tag_144\n    /* \"#utility.yul\":7903:7907   */\n  dup7\n    /* \"#utility.yul\":7871:7908   */\n  tag_31\n  jump\t// in\ntag_144:\n    /* \"#utility.yul\":7930:7931   */\n  0x00\n    /* \"#utility.yul\":7944:8152   */\ntag_145:\n    /* \"#utility.yul\":7958:7965   */\n  dup3\n    /* \"#utility.yul\":7955:7956   */\n  dup2\n    /* \"#utility.yul\":7952:7966   */\n  lt\n    /* \"#utility.yul\":7944:8152   */\n  iszero\n  tag_147\n  jumpi\n    /* \"#utility.yul\":8037:8046   */\n  dup5\n    /* \"#utility.yul\":8032:8035   */\n  dup10\n    /* \"#utility.yul\":8028:8047   */\n  add\n    /* \"#utility.yul\":8022:8048   */\n  mload\n    /* \"#utility.yul\":8014:8020   */\n  dup3\n    /* \"#utility.yul\":8007:8049   */\n  sstore\n    /* \"#utility.yul\":8088:8089   */\n  0x01\n    /* \"#utility.yul\":8080:8086   */\n  dup3\n    /* \"#utility.yul\":8076:8090   */\n  add\n    /* \"#utility.yul\":8066:8090   */\n  swap2\n  pop\n    /* \"#utility.yul\":8135:8137   */\n  0x20\n    /* \"#utility.yul\":8124:8133   */\n  dup6\n    /* \"#utility.yul\":8120:8138   */\n  add\n    /* \"#utility.yul\":8107:8138   */\n  swap5\n  pop\n    /* \"#utility.yul\":7981:7985   */\n  0x20\n    /* \"#utility.yul\":7978:7979   */\n  dup2\n    /* \"#utility.yul\":7974:7986   */\n  add\n    /* \"#utility.yul\":7969:7986   */\n  swap1\n  pop\n    /* \"#utility.yul\":7944:8152   */\n  jump(tag_145)\ntag_147:\n    /* \"#utility.yul\":8180:8186   */\n  dup7\n    /* \"#utility.yul\":8171:8178   */\n  dup4\n    /* \"#utility.yul\":8168:8187   */\n  lt\n    /* \"#utility.yul\":8165:8344   */\n  iszero\n  tag_148\n  jumpi\n    /* \"#utility.yul\":8238:8247   */\n  dup5\n    /* \"#utility.yul\":8233:8236   */\n  dup10\n    /* \"#utility.yul\":8229:8248   */\n  add\n    /* \"#utility.yul\":8223:8249   */\n  mload\n    /* \"#utility.yul\":8281:8329   */\n  tag_149\n    /* \"#utility.yul\":8323:8327   */\n  0x1f\n    /* \"#utility.yul\":8315:8321   */\n  dup10\n    /* \"#utility.yul\":8311:8328   */\n  and\n    /* \"#utility.yul\":8300:8309   */\n  dup3\n    /* \"#utility.yul\":8281:8329   */\n  tag_45\n  jump\t// in\ntag_149:\n    /* \"#utility.yul\":8273:8279   */\n  dup4\n    /* \"#utility.yul\":8266:8330   */\n  sstore\n    /* \"#utility.yul\":8188:8344   */\n  pop\n    /* \"#utility.yul\":8165:8344   */\ntag_148:\n    /* \"#utility.yul\":8390:8391   */\n  0x01\n    /* \"#utility.yul\":8386:8387   */\n  0x02\n    /* \"#utility.yul\":8378:8384   */\n  dup9\n    /* \"#utility.yul\":8374:8388   */\n  mul\n    /* \"#utility.yul\":8370:8392   */\n  add\n    /* \"#utility.yul\":8364:8368   */\n  dup9\n    /* \"#utility.yul\":8357:8393   */\n  sstore\n    /* \"#utility.yul\":7792:8403   */\n  pop\n  pop\n  pop\n    /* \"#utility.yul\":7755:8642   */\ntag_140:\n  pop\n    /* \"#utility.yul\":7345:8648   */\n  pop\n  pop\n  pop\n    /* \"#utility.yul\":7253:8648   */\n  pop\n  pop\n  jump\t// out\n    /* \"Cohort3/Inheritance/truck.sol\":85:385  contract Car is Vehicle {... */\ntag_11:\n  dataSize(sub_0)\n  dup1\n  dataOffset(sub_0)\n  0x00\n  codecopy\n  0x00\n  return\nstop\n\nsub_0: assembly {\n        /* \"Cohort3/Inheritance/truck.sol\":85:385  contract Car is Vehicle {... */\n      mstore(0x40, 0x80)\n      callvalue\n      dup1\n      iszero\n      tag_1\n      jumpi\n      0x00\n      dup1\n      revert\n    tag_1:\n      pop\n      jumpi(tag_2, lt(calldatasize, 0x04))\n      shr(0xe0, calldataload(0x00))\n      dup1\n      0x2d9fff01\n      eq\n      tag_3\n      jumpi\n      dup1\n      0x7284e416\n      eq\n      tag_4\n      jumpi\n    tag_2:\n      0x00\n      dup1\n      revert\n        /* \"Cohort3/Inheritance/Vehicle.sol\":85:104  string public brand */\n    tag_3:\n      tag_5\n      tag_6\n      jump\t// in\n    tag_5:\n      mload(0x40)\n      tag_7\n      swap2\n      swap1\n      tag_8\n      jump\t// in\n    tag_7:\n      mload(0x40)\n      dup1\n      swap2\n      sub\n      swap1\n      return\n        /* \"Cohort3/Inheritance/truck.sol\":269:378  function description () public pure override returns(string memory) {... */\n    tag_4:\n      tag_9\n      tag_10\n      jump\t// in\n    tag_9:\n      mload(0x40)\n      tag_11\n      swap2\n      swap1\n      tag_8\n      jump\t// in\n    tag_11:\n      mload(0x40)\n      dup1\n      swap2\n      sub\n      swap1\n      return\n        /* \"Cohort3/Inheritance/Vehicle.sol\":85:104  string public brand */\n    tag_6:\n      0x00\n      dup1\n      sload\n      tag_12\n      swap1\n      tag_13\n      jump\t// in\n    tag_12:\n      dup1\n      0x1f\n      add\n      0x20\n      dup1\n      swap2\n      div\n      mul\n      0x20\n      add\n      mload(0x40)\n      swap1\n      dup2\n      add\n      0x40\n      mstore\n      dup1\n      swap3\n      swap2\n      swap1\n      dup2\n      dup2\n      mstore\n      0x20\n      add\n      dup3\n      dup1\n      sload\n      tag_14\n      swap1\n      tag_13\n      jump\t// in\n    tag_14:\n      dup1\n      iszero\n      tag_15\n      jumpi\n      dup1\n      0x1f\n      lt\n      tag_16\n      jumpi\n      0x0100\n      dup1\n      dup4\n      sload\n      div\n      mul\n      dup4\n      mstore\n      swap2\n      0x20\n      add\n      swap2\n      jump(tag_15)\n    tag_16:\n      dup3\n      add\n      swap2\n      swap1\n      0x00\n      mstore\n      keccak256(0x00, 0x20)\n      swap1\n    tag_17:\n      dup2\n      sload\n      dup2\n      mstore\n      swap1\n      0x01\n      add\n      swap1\n      0x20\n      add\n      dup1\n      dup4\n      gt\n      tag_17\n      jumpi\n      dup3\n      swap1\n      sub\n      0x1f\n      and\n      dup3\n      add\n      swap2\n    tag_15:\n      pop\n      pop\n      pop\n      pop\n      pop\n      dup2\n      jump\t// out\n        /* \"Cohort3/Inheritance/truck.sol\":269:378  function description () public pure override returns(string memory) {... */\n    tag_10:\n        /* \"Cohort3/Inheritance/truck.sol\":322:335  string memory */\n      0x60\n        /* \"Cohort3/Inheritance/truck.sol\":348:370  return \"This is a car\" */\n      mload(0x40)\n      dup1\n      0x40\n      add\n      0x40\n      mstore\n      dup1\n      0x0d\n      dup2\n      mstore\n      0x20\n      add\n      0x5468697320697320612063617200000000000000000000000000000000000000\n      dup2\n      mstore\n      pop\n      swap1\n      pop\n        /* \"Cohort3/Inheritance/truck.sol\":269:378  function description () public pure override returns(string memory) {... */\n      swap1\n      jump\t// out\n        /* \"#utility.yul\":7:106   */\n    tag_19:\n        /* \"#utility.yul\":59:65   */\n      0x00\n        /* \"#utility.yul\":93:98   */\n      dup2\n        /* \"#utility.yul\":87:99   */\n      mload\n        /* \"#utility.yul\":77:99   */\n      swap1\n      pop\n        /* \"#utility.yul\":7:106   */\n      swap2\n      swap1\n      pop\n      jump\t// out\n        /* \"#utility.yul\":112:281   */\n    tag_20:\n        /* \"#utility.yul\":196:207   */\n      0x00\n        /* \"#utility.yul\":230:236   */\n      dup3\n        /* \"#utility.yul\":225:228   */\n      dup3\n        /* \"#utility.yul\":218:237   */\n      mstore\n        /* \"#utility.yul\":270:274   */\n      0x20\n        /* \"#utility.yul\":265:268   */\n      dup3\n        /* \"#utility.yul\":261:275   */\n      add\n        /* \"#utility.yul\":246:275   */\n      swap1\n      pop\n        /* \"#utility.yul\":112:281   */\n      swap3\n      swap2\n      pop\n      pop\n      jump\t// out\n        /* \"#utility.yul\":287:426   */\n    tag_21:\n        /* \"#utility.yul\":376:382   */\n      dup3\n        /* \"#utility.yul\":371:374   */\n      dup2\n        /* \"#utility.yul\":366:369   */\n      dup4\n        /* \"#utility.yul\":360:383   */\n      mcopy\n        /* \"#utility.yul\":417:418   */\n      0x00\n        /* \"#utility.yul\":408:414   */\n      dup4\n        /* \"#utility.yul\":403:406   */\n      dup4\n        /* \"#utility.yul\":399:415   */\n      add\n        /* \"#utility.yul\":392:419   */\n      mstore\n        /* \"#utility.yul\":287:426   */\n      pop\n      pop\n      pop\n      jump\t// out\n        /* \"#utility.yul\":432:534   */\n    tag_22:\n        /* \"#utility.yul\":473:479   */\n      0x00\n        /* \"#utility.yul\":524:526   */\n      0x1f\n        /* \"#utility.yul\":520:527   */\n      not\n        /* \"#utility.yul\":515:517   */\n      0x1f\n        /* \"#utility.yul\":508:513   */\n      dup4\n        /* \"#utility.yul\":504:518   */\n      add\n        /* \"#utility.yul\":500:528   */\n      and\n        /* \"#utility.yul\":490:528   */\n      swap1\n      pop\n        /* \"#utility.yul\":432:534   */\n      swap2\n      swap1\n      pop\n      jump\t// out\n        /* \"#utility.yul\":540:917   */\n    tag_23:\n        /* \"#utility.yul\":628:631   */\n      0x00\n        /* \"#utility.yul\":656:695   */\n      tag_31\n        /* \"#utility.yul\":689:694   */\n      dup3\n        /* \"#utility.yul\":656:695   */\n      tag_19\n      jump\t// in\n    tag_31:\n        /* \"#utility.yul\":711:782   */\n      tag_32\n        /* \"#utility.yul\":775:781   */\n      dup2\n        /* \"#utility.yul\":770:773   */\n      dup6\n        /* \"#utility.yul\":711:782   */\n      tag_20\n      jump\t// in\n    tag_32:\n        /* \"#utility.yul\":704:782   */\n      swap4\n      pop\n        /* \"#utility.yul\":791:856   */\n      tag_33\n        /* \"#utility.yul\":849:855   */\n      dup2\n        /* \"#utility.yul\":844:847   */\n      dup6\n        /* \"#utility.yul\":837:841   */\n      0x20\n        /* \"#utility.yul\":830:835   */\n      dup7\n        /* \"#utility.yul\":826:842   */\n      add\n        /* \"#utility.yul\":791:856   */\n      tag_21\n      jump\t// in\n    tag_33:\n        /* \"#utility.yul\":881:910   */\n      tag_34\n        /* \"#utility.yul\":903:909   */\n      dup2\n        /* \"#utility.yul\":881:910   */\n      tag_22\n      jump\t// in\n    tag_34:\n        /* \"#utility.yul\":876:879   */\n      dup5\n        /* \"#utility.yul\":872:911   */\n      add\n        /* \"#utility.yul\":865:911   */\n      swap2\n      pop\n        /* \"#utility.yul\":632:917   */\n      pop\n        /* \"#utility.yul\":540:917   */\n      swap3\n      swap2\n      pop\n      pop\n      jump\t// out\n        /* \"#utility.yul\":923:1236   */\n    tag_8:\n        /* \"#utility.yul\":1036:1040   */\n      0x00\n        /* \"#utility.yul\":1074:1076   */\n      0x20\n        /* \"#utility.yul\":1063:1072   */\n      dup3\n        /* \"#utility.yul\":1059:1077   */\n      add\n        /* \"#utility.yul\":1051:1077   */\n      swap1\n      pop\n        /* \"#utility.yul\":1123:1132   */\n      dup2\n        /* \"#utility.yul\":1117:1121   */\n      dup2\n        /* \"#utility.yul\":1113:1133   */\n      sub\n        /* \"#utility.yul\":1109:1110   */\n      0x00\n        /* \"#utility.yul\":1098:1107   */\n      dup4\n        /* \"#utility.yul\":1094:1111   */\n      add\n        /* \"#utility.yul\":1087:1134   */\n      mstore\n        /* \"#utility.yul\":1151:1229   */\n      tag_36\n        /* \"#utility.yul\":1224:1228   */\n      dup2\n        /* \"#utility.yul\":1215:1221   */\n      dup5\n        /* \"#utility.yul\":1151:1229   */\n      tag_23\n      jump\t// in\n    tag_36:\n        /* \"#utility.yul\":1143:1229   */\n      swap1\n      pop\n        /* \"#utility.yul\":923:1236   */\n      swap3\n      swap2\n      pop\n      pop\n      jump\t// out\n        /* \"#utility.yul\":1242:1422   */\n    tag_24:\n        /* \"#utility.yul\":1290:1367   */\n      0x4e487b7100000000000000000000000000000000000000000000000000000000\n        /* \"#utility.yul\":1287:1288   */\n      0x00\n        /* \"#utility.yul\":1280:1368   */\n      mstore\n        /* \"#utility.yul\":1387:1391   */\n      0x22\n        /* \"#utility.yul\":1384:1385   */\n      0x04\n        /* \"#utility.yul\":1377:1392   */\n      mstore\n        /* \"#utility.yul\":1411:1415   */\n      0x24\n        /* \"#utility.yul\":1408:1409   */\n      0x00\n        /* \"#utility.yul\":1401:1416   */\n      revert\n        /* \"#utility.yul\":1428:1748   */\n    tag_13:\n        /* \"#utility.yul\":1472:1478   */\n      0x00\n        /* \"#utility.yul\":1509:1510   */\n      0x02\n        /* \"#utility.yul\":1503:1507   */\n      dup3\n        /* \"#utility.yul\":1499:1511   */\n      div\n        /* \"#utility.yul\":1489:1511   */\n      swap1\n      pop\n        /* \"#utility.yul\":1556:1557   */\n      0x01\n        /* \"#utility.yul\":1550:1554   */\n      dup3\n        /* \"#utility.yul\":1546:1558   */\n      and\n        /* \"#utility.yul\":1577:1595   */\n      dup1\n        /* \"#utility.yul\":1567:1648   */\n      tag_39\n      jumpi\n        /* \"#utility.yul\":1633:1637   */\n      0x7f\n        /* \"#utility.yul\":1625:1631   */\n      dup3\n        /* \"#utility.yul\":1621:1638   */\n      and\n        /* \"#utility.yul\":1611:1638   */\n      swap2\n      pop\n        /* \"#utility.yul\":1567:1648   */\n    tag_39:\n        /* \"#utility.yul\":1695:1697   */\n      0x20\n        /* \"#utility.yul\":1687:1693   */\n      dup3\n        /* \"#utility.yul\":1684:1698   */\n      lt\n        /* \"#utility.yul\":1664:1682   */\n      dup2\n        /* \"#utility.yul\":1661:1699   */\n      sub\n        /* \"#utility.yul\":1658:1742   */\n      tag_40\n      jumpi\n        /* \"#utility.yul\":1714:1732   */\n      tag_41\n      tag_24\n      jump\t// in\n    tag_41:\n        /* \"#utility.yul\":1658:1742   */\n    tag_40:\n        /* \"#utility.yul\":1479:1748   */\n      pop\n        /* \"#utility.yul\":1428:1748   */\n      swap2\n      swap1\n      pop\n      jump\t// out\n\n    auxdata: 0xa2646970667358221220a098fc14336ece169ae6cb4fb9f13e9ffd765cabebf91c26fd521c213fbaef2b64736f6c634300081a0033\n}\n",
				"bytecode": {
					"linkReferences": {},
					"object": "608060405234801561000f575f80fd5b50604051610797380380610797833981810160405281019061003191906101f5565b81805f9081610040919061045c565b5050815f9081610050919061045c565b508060015f6101000a81548160ff021916908360ff160217905550505061052b565b5f604051905090565b5f80fd5b5f80fd5b5f80fd5b5f80fd5b5f601f19601f8301169050919050565b7f4e487b71000000000000000000000000000000000000000000000000000000005f52604160045260245ffd5b6100d18261008b565b810181811067ffffffffffffffff821117156100f0576100ef61009b565b5b80604052505050565b5f610102610072565b905061010e82826100c8565b919050565b5f67ffffffffffffffff82111561012d5761012c61009b565b5b6101368261008b565b9050602081019050919050565b8281835e5f83830152505050565b5f61016361015e84610113565b6100f9565b90508281526020810184848401111561017f5761017e610087565b5b61018a848285610143565b509392505050565b5f82601f8301126101a6576101a5610083565b5b81516101b6848260208601610151565b91505092915050565b5f60ff82169050919050565b6101d4816101bf565b81146101de575f80fd5b50565b5f815190506101ef816101cb565b92915050565b5f806040838503121561020b5761020a61007b565b5b5f83015167ffffffffffffffff8111156102285761022761007f565b5b61023485828601610192565b9250506020610245858286016101e1565b9150509250929050565b5f81519050919050565b7f4e487b71000000000000000000000000000000000000000000000000000000005f52602260045260245ffd5b5f600282049050600182168061029d57607f821691505b6020821081036102b0576102af610259565b5b50919050565b5f819050815f5260205f209050919050565b5f6020601f8301049050919050565b5f82821b905092915050565b5f600883026103127fffffffffffffffffffffffffffffffffffffffffffffffffffffffffffffffff826102d7565b61031c86836102d7565b95508019841693508086168417925050509392505050565b5f819050919050565b5f819050919050565b5f61036061035b61035684610334565b61033d565b610334565b9050919050565b5f819050919050565b61037983610346565b61038d61038582610367565b8484546102e3565b825550505050565b5f90565b6103a1610395565b6103ac818484610370565b505050565b5b818110156103cf576103c45f82610399565b6001810190506103b2565b5050565b601f821115610414576103e5816102b6565b6103ee846102c8565b810160208510156103fd578190505b610411610409856102c8565b8301826103b1565b50505b505050565b5f82821c905092915050565b5f6104345f1984600802610419565b1980831691505092915050565b5f61044c8383610425565b9150826002028217905092915050565b6104658261024f565b67ffffffffffffffff81111561047e5761047d61009b565b5b6104888254610286565b6104938282856103d3565b5f60209050601f8311600181146104c4575f84156104b2578287015190505b6104bc8582610441565b865550610523565b601f1984166104d2866102b6565b5f5b828110156104f9578489015182556001820191506020850194506020810190506104d4565b868310156105165784890151610512601f891682610425565b8355505b6001600288020188555050505b505050505050565b61025f806105385f395ff3fe608060405234801561000f575f80fd5b5060043610610034575f3560e01c80632d9fff01146100385780637284e41614610056575b5f80fd5b610040610074565b60405161004d91906101ac565b60405180910390f35b61005e6100ff565b60405161006b91906101ac565b60405180910390f35b5f8054610080906101f9565b80601f01602080910402602001604051908101604052809291908181526020018280546100ac906101f9565b80156100f75780601f106100ce576101008083540402835291602001916100f7565b820191905f5260205f20905b8154815290600101906020018083116100da57829003601f168201915b505050505081565b60606040518060400160405280600d81526020017f5468697320697320612063617200000000000000000000000000000000000000815250905090565b5f81519050919050565b5f82825260208201905092915050565b8281835e5f83830152505050565b5f601f19601f8301169050919050565b5f61017e8261013c565b6101888185610146565b9350610198818560208601610156565b6101a181610164565b840191505092915050565b5f6020820190508181035f8301526101c48184610174565b905092915050565b7f4e487b71000000000000000000000000000000000000000000000000000000005f52602260045260245ffd5b5f600282049050600182168061021057607f821691505b602082108103610223576102226101cc565b5b5091905056fea2646970667358221220a098fc14336ece169ae6cb4fb9f13e9ffd765cabebf91c26fd521c213fbaef2b64736f6c634300081a0033",
					"opcodes": "PUSH1 0x80 PUSH1 0x40 MSTORE CALLVALUE DUP1 ISZERO PUSH2 0xF JUMPI PUSH0 DUP1 REVERT JUMPDEST POP PUSH1 0x40 MLOAD PUSH2 0x797 CODESIZE SUB DUP1 PUSH2 0x797 DUP4 CODECOPY DUP2 DUP2 ADD PUSH1 0x40 MSTORE DUP2 ADD SWAP1 PUSH2 0x31 SWAP2 SWAP1 PUSH2 0x1F5 JUMP JUMPDEST DUP2 DUP1 PUSH0 SWAP1 DUP2 PUSH2 0x40 SWAP2 SWAP1 PUSH2 0x45C JUMP JUMPDEST POP POP DUP2 PUSH0 SWAP1 DUP2 PUSH2 0x50 SWAP2 SWAP1 PUSH2 0x45C JUMP JUMPDEST POP DUP1 PUSH1 0x1 PUSH0 PUSH2 0x100 EXP DUP2 SLOAD DUP2 PUSH1 0xFF MUL NOT AND SWAP1 DUP4 PUSH1 0xFF AND MUL OR SWAP1 SSTORE POP POP POP PUSH2 0x52B JUMP JUMPDEST PUSH0 PUSH1 0x40 MLOAD SWAP1 POP SWAP1 JUMP JUMPDEST PUSH0 DUP1 REVERT JUMPDEST PUSH0 DUP1 REVERT JUMPDEST PUSH0 DUP1 REVERT JUMPDEST PUSH0 DUP1 REVERT JUMPDEST PUSH0 PUSH1 0x1F NOT PUSH1 0x1F DUP4 ADD AND SWAP1 POP SWAP2 SWAP1 POP JUMP JUMPDEST PUSH32 0x4E487B7100000000000000000000000000000000000000000000000000000000 PUSH0 MSTORE PUSH1 0x41 PUSH1 0x4 MSTORE PUSH1 0x24 PUSH0 REVERT JUMPDEST PUSH2 0xD1 DUP3 PUSH2 0x8B JUMP JUMPDEST DUP2 ADD DUP2 DUP2 LT PUSH8 0xFFFFFFFFFFFFFFFF DUP3 GT OR ISZERO PUSH2 0xF0 JUMPI PUSH2 0xEF PUSH2 0x9B JUMP JUMPDEST JUMPDEST DUP1 PUSH1 0x40 MSTORE POP POP POP JUMP JUMPDEST PUSH0 PUSH2 0x102 PUSH2 0x72 JUMP JUMPDEST SWAP1 POP PUSH2 0x10E DUP3 DUP3 PUSH2 0xC8 JUMP JUMPDEST SWAP2 SWAP1 POP JUMP JUMPDEST PUSH0 PUSH8 0xFFFFFFFFFFFFFFFF DUP3 GT ISZERO PUSH2 0x12D JUMPI PUSH2 0x12C PUSH2 0x9B JUMP JUMPDEST JUMPDEST PUSH2 0x136 DUP3 PUSH2 0x8B JUMP JUMPDEST SWAP1 POP PUSH1 0x20 DUP2 ADD SWAP1 POP SWAP2 SWAP1 POP JUMP JUMPDEST DUP3 DUP2 DUP4 MCOPY PUSH0 DUP4 DUP4 ADD MSTORE POP POP POP JUMP JUMPDEST PUSH0 PUSH2 0x163 PUSH2 0x15E DUP5 PUSH2 0x113 JUMP JUMPDEST PUSH2 0xF9 JUMP JUMPDEST SWAP1 POP DUP3 DUP2 MSTORE PUSH1 0x20 DUP2 ADD DUP5 DUP5 DUP5 ADD GT ISZERO PUSH2 0x17F JUMPI PUSH2 0x17E PUSH2 0x87 JUMP JUMPDEST JUMPDEST PUSH2 0x18A DUP5 DUP3 DUP6 PUSH2 0x143 JUMP JUMPDEST POP SWAP4 SWAP3 POP POP POP JUMP JUMPDEST PUSH0 DUP3 PUSH1 0x1F DUP4 ADD SLT PUSH2 0x1A6 JUMPI PUSH2 0x1A5 PUSH2 0x83 JUMP JUMPDEST JUMPDEST DUP2 MLOAD PUSH2 0x1B6 DUP5 DUP3 PUSH1 0x20 DUP7 ADD PUSH2 0x151 JUMP JUMPDEST SWAP2 POP POP SWAP3 SWAP2 POP POP JUMP JUMPDEST PUSH0 PUSH1 0xFF DUP3 AND SWAP1 POP SWAP2 SWAP1 POP JUMP JUMPDEST PUSH2 0x1D4 DUP2 PUSH2 0x1BF JUMP JUMPDEST DUP2 EQ PUSH2 0x1DE JUMPI PUSH0 DUP1 REVERT JUMPDEST POP JUMP JUMPDEST PUSH0 DUP2 MLOAD SWAP1 POP PUSH2 0x1EF DUP2 PUSH2 0x1CB JUMP JUMPDEST SWAP3 SWAP2 POP POP JUMP JUMPDEST PUSH0 DUP1 PUSH1 0x40 DUP4 DUP6 SUB SLT ISZERO PUSH2 0x20B JUMPI PUSH2 0x20A PUSH2 0x7B JUMP JUMPDEST JUMPDEST PUSH0 DUP4 ADD MLOAD PUSH8 0xFFFFFFFFFFFFFFFF DUP2 GT ISZERO PUSH2 0x228 JUMPI PUSH2 0x227 PUSH2 0x7F JUMP JUMPDEST JUMPDEST PUSH2 0x234 DUP6 DUP3 DUP7 ADD PUSH2 0x192 JUMP JUMPDEST SWAP3 POP POP PUSH1 0x20 PUSH2 0x245 DUP6 DUP3 DUP7 ADD PUSH2 0x1E1 JUMP JUMPDEST SWAP2 POP POP SWAP3 POP SWAP3 SWAP1 POP JUMP JUMPDEST PUSH0 DUP2 MLOAD SWAP1 POP SWAP2 SWAP1 POP JUMP JUMPDEST PUSH32 0x4E487B7100000000000000000000000000000000000000000000000000000000 PUSH0 MSTORE PUSH1 0x22 PUSH1 0x4 MSTORE PUSH1 0x24 PUSH0 REVERT JUMPDEST PUSH0 PUSH1 0x2 DUP3 DIV SWAP1 POP PUSH1 0x1 DUP3 AND DUP1 PUSH2 0x29D JUMPI PUSH1 0x7F DUP3 AND SWAP2 POP JUMPDEST PUSH1 0x20 DUP3 LT DUP2 SUB PUSH2 0x2B0 JUMPI PUSH2 0x2AF PUSH2 0x259 JUMP JUMPDEST JUMPDEST POP SWAP2 SWAP1 POP JUMP JUMPDEST PUSH0 DUP2 SWAP1 POP DUP2 PUSH0 MSTORE PUSH1 0x20 PUSH0 KECCAK256 SWAP1 POP SWAP2 SWAP1 POP JUMP JUMPDEST PUSH0 PUSH1 0x20 PUSH1 0x1F DUP4 ADD DIV SWAP1 POP SWAP2 SWAP1 POP JUMP JUMPDEST PUSH0 DUP3 DUP3 SHL SWAP1 POP SWAP3 SWAP2 POP POP JUMP JUMPDEST PUSH0 PUSH1 0x8 DUP4 MUL PUSH2 0x312 PUSH32 0xFFFFFFFFFFFFFFFFFFFFFFFFFFFFFFFFFFFFFFFFFFFFFFFFFFFFFFFFFFFFFFFF DUP3 PUSH2 0x2D7 JUMP JUMPDEST PUSH2 0x31C DUP7 DUP4 PUSH2 0x2D7 JUMP JUMPDEST SWAP6 POP DUP1 NOT DUP5 AND SWAP4 POP DUP1 DUP7 AND DUP5 OR SWAP3 POP POP POP SWAP4 SWAP3 POP POP POP JUMP JUMPDEST PUSH0 DUP2 SWAP1 POP SWAP2 SWAP1 POP JUMP JUMPDEST PUSH0 DUP2 SWAP1 POP SWAP2 SWAP1 POP JUMP JUMPDEST PUSH0 PUSH2 0x360 PUSH2 0x35B PUSH2 0x356 DUP5 PUSH2 0x334 JUMP JUMPDEST PUSH2 0x33D JUMP JUMPDEST PUSH2 0x334 JUMP JUMPDEST SWAP1 POP SWAP2 SWAP1 POP JUMP JUMPDEST PUSH0 DUP2 SWAP1 POP SWAP2 SWAP1 POP JUMP JUMPDEST PUSH2 0x379 DUP4 PUSH2 0x346 JUMP JUMPDEST PUSH2 0x38D PUSH2 0x385 DUP3 PUSH2 0x367 JUMP JUMPDEST DUP5 DUP5 SLOAD PUSH2 0x2E3 JUMP JUMPDEST DUP3 SSTORE POP POP POP POP JUMP JUMPDEST PUSH0 SWAP1 JUMP JUMPDEST PUSH2 0x3A1 PUSH2 0x395 JUMP JUMPDEST PUSH2 0x3AC DUP2 DUP5 DUP5 PUSH2 0x370 JUMP JUMPDEST POP POP POP JUMP JUMPDEST JUMPDEST DUP2 DUP2 LT ISZERO PUSH2 0x3CF JUMPI PUSH2 0x3C4 PUSH0 DUP3 PUSH2 0x399 JUMP JUMPDEST PUSH1 0x1 DUP2 ADD SWAP1 POP PUSH2 0x3B2 JUMP JUMPDEST POP POP JUMP JUMPDEST PUSH1 0x1F DUP3 GT ISZERO PUSH2 0x414 JUMPI PUSH2 0x3E5 DUP2 PUSH2 0x2B6 JUMP JUMPDEST PUSH2 0x3EE DUP5 PUSH2 0x2C8 JUMP JUMPDEST DUP2 ADD PUSH1 0x20 DUP6 LT ISZERO PUSH2 0x3FD JUMPI DUP2 SWAP1 POP JUMPDEST PUSH2 0x411 PUSH2 0x409 DUP6 PUSH2 0x2C8 JUMP JUMPDEST DUP4 ADD DUP3 PUSH2 0x3B1 JUMP JUMPDEST POP POP JUMPDEST POP POP POP JUMP JUMPDEST PUSH0 DUP3 DUP3 SHR SWAP1 POP SWAP3 SWAP2 POP POP JUMP JUMPDEST PUSH0 PUSH2 0x434 PUSH0 NOT DUP5 PUSH1 0x8 MUL PUSH2 0x419 JUMP JUMPDEST NOT DUP1 DUP4 AND SWAP2 POP POP SWAP3 SWAP2 POP POP JUMP JUMPDEST PUSH0 PUSH2 0x44C DUP4 DUP4 PUSH2 0x425 JUMP JUMPDEST SWAP2 POP DUP3 PUSH1 0x2 MUL DUP3 OR SWAP1 POP SWAP3 SWAP2 POP POP JUMP JUMPDEST PUSH2 0x465 DUP3 PUSH2 0x24F JUMP JUMPDEST PUSH8 0xFFFFFFFFFFFFFFFF DUP2 GT ISZERO PUSH2 0x47E JUMPI PUSH2 0x47D PUSH2 0x9B JUMP JUMPDEST JUMPDEST PUSH2 0x488 DUP3 SLOAD PUSH2 0x286 JUMP JUMPDEST PUSH2 0x493 DUP3 DUP3 DUP6 PUSH2 0x3D3 JUMP JUMPDEST PUSH0 PUSH1 0x20 SWAP1 POP PUSH1 0x1F DUP4 GT PUSH1 0x1 DUP2 EQ PUSH2 0x4C4 JUMPI PUSH0 DUP5 ISZERO PUSH2 0x4B2 JUMPI DUP3 DUP8 ADD MLOAD SWAP1 POP JUMPDEST PUSH2 0x4BC DUP6 DUP3 PUSH2 0x441 JUMP JUMPDEST DUP7 SSTORE POP PUSH2 0x523 JUMP JUMPDEST PUSH1 0x1F NOT DUP5 AND PUSH2 0x4D2 DUP7 PUSH2 0x2B6 JUMP JUMPDEST PUSH0 JUMPDEST DUP3 DUP2 LT ISZERO PUSH2 0x4F9 JUMPI DUP5 DUP10 ADD MLOAD DUP3 SSTORE PUSH1 0x1 DUP3 ADD SWAP2 POP PUSH1 0x20 DUP6 ADD SWAP5 POP PUSH1 0x20 DUP2 ADD SWAP1 POP PUSH2 0x4D4 JUMP JUMPDEST DUP7 DUP4 LT ISZERO PUSH2 0x516 JUMPI DUP5 DUP10 ADD MLOAD PUSH2 0x512 PUSH1 0x1F DUP10 AND DUP3 PUSH2 0x425 JUMP JUMPDEST DUP4 SSTORE POP JUMPDEST PUSH1 0x1 PUSH1 0x2 DUP9 MUL ADD DUP9 SSTORE POP POP POP JUMPDEST POP POP POP POP POP POP JUMP JUMPDEST PUSH2 0x25F DUP1 PUSH2 0x538 PUSH0 CODECOPY PUSH0 RETURN INVALID PUSH1 0x80 PUSH1 0x40 MSTORE CALLVALUE DUP1 ISZERO PUSH2 0xF JUMPI PUSH0 DUP1 REVERT JUMPDEST POP PUSH1 0x4 CALLDATASIZE LT PUSH2 0x34 JUMPI PUSH0 CALLDATALOAD PUSH1 0xE0 SHR DUP1 PUSH4 0x2D9FFF01 EQ PUSH2 0x38 JUMPI DUP1 PUSH4 0x7284E416 EQ PUSH2 0x56 JUMPI JUMPDEST PUSH0 DUP1 REVERT JUMPDEST PUSH2 0x40 PUSH2 0x74 JUMP JUMPDEST PUSH1 0x40 MLOAD PUSH2 0x4D SWAP2 SWAP1 PUSH2 0x1AC JUMP JUMPDEST PUSH1 0x40 MLOAD DUP1 SWAP2 SUB SWAP1 RETURN JUMPDEST PUSH2 0x5E PUSH2 0xFF JUMP JUMPDEST PUSH1 0x40 MLOAD PUSH2 0x6B SWAP2 SWAP1 PUSH2 0x1AC JUMP JUMPDEST PUSH1 0x40 MLOAD DUP1 SWAP2 SUB SWAP1 RETURN JUMPDEST PUSH0 DUP1 SLOAD PUSH2 0x80 SWAP1 PUSH2 0x1F9 JUMP JUMPDEST DUP1 PUSH1 0x1F ADD PUSH1 0x20 DUP1 SWAP2 DIV MUL PUSH1 0x20 ADD PUSH1 0x40 MLOAD SWAP1 DUP2 ADD PUSH1 0x40 MSTORE DUP1 SWAP3 SWAP2 SWAP1 DUP2 DUP2 MSTORE PUSH1 0x20 ADD DUP3 DUP1 SLOAD PUSH2 0xAC SWAP1 PUSH2 0x1F9 JUMP JUMPDEST DUP1 ISZERO PUSH2 0xF7 JUMPI DUP1 PUSH1 0x1F LT PUSH2 0xCE JUMPI PUSH2 0x100 DUP1 DUP4 SLOAD DIV MUL DUP4 MSTORE SWAP2 PUSH1 0x20 ADD SWAP2 PUSH2 0xF7 JUMP JUMPDEST DUP3 ADD SWAP2 SWAP1 PUSH0 MSTORE PUSH1 0x20 PUSH0 KECCAK256 SWAP1 JUMPDEST DUP2 SLOAD DUP2 MSTORE SWAP1 PUSH1 0x1 ADD SWAP1 PUSH1 0x20 ADD DUP1 DUP4 GT PUSH2 0xDA JUMPI DUP3 SWAP1 SUB PUSH1 0x1F AND DUP3 ADD SWAP2 JUMPDEST POP POP POP POP POP DUP2 JUMP JUMPDEST PUSH1 0x60 PUSH1 0x40 MLOAD DUP1 PUSH1 0x40 ADD PUSH1 0x40 MSTORE DUP1 PUSH1 0xD DUP2 MSTORE PUSH1 0x20 ADD PUSH32 0x5468697320697320612063617200000000000000000000000000000000000000 DUP2 MSTORE POP SWAP1 POP SWAP1 JUMP JUMPDEST PUSH0 DUP2 MLOAD SWAP1 POP SWAP2 SWAP1 POP JUMP JUMPDEST PUSH0 DUP3 DUP3 MSTORE PUSH1 0x20 DUP3 ADD SWAP1 POP SWAP3 SWAP2 POP POP JUMP JUMPDEST DUP3 DUP2 DUP4 MCOPY PUSH0 DUP4 DUP4 ADD MSTORE POP POP POP JUMP JUMPDEST PUSH0 PUSH1 0x1F NOT PUSH1 0x1F DUP4 ADD AND SWAP1 POP SWAP2 SWAP1 POP JUMP JUMPDEST PUSH0 PUSH2 0x17E DUP3 PUSH2 0x13C JUMP JUMPDEST PUSH2 0x188 DUP2 DUP6 PUSH2 0x146 JUMP JUMPDEST SWAP4 POP PUSH2 0x198 DUP2 DUP6 PUSH1 0x20 DUP7 ADD PUSH2 0x156 JUMP JUMPDEST PUSH2 0x1A1 DUP2 PUSH2 0x164 JUMP JUMPDEST DUP5 ADD SWAP2 POP POP SWAP3 SWAP2 POP POP JUMP JUMPDEST PUSH0 PUSH1 0x20 DUP3 ADD SWAP1 POP DUP2 DUP2 SUB PUSH0 DUP4 ADD MSTORE PUSH2 0x1C4 DUP2 DUP5 PUSH2 0x174 JUMP JUMPDEST SWAP1 POP SWAP3 SWAP2 POP POP JUMP JUMPDEST PUSH32 0x4E487B7100000000000000000000000000000000000000000000000000000000 PUSH0 MSTORE PUSH1 0x22 PUSH1 0x4 MSTORE PUSH1 0x24 PUSH0 REVERT JUMPDEST PUSH0 PUSH1 0x2 DUP3 DIV SWAP1 POP PUSH1 0x1 DUP3 AND DUP1 PUSH2 0x210 JUMPI PUSH1 0x7F DUP3 AND SWAP2 POP JUMPDEST PUSH1 0x20 DUP3 LT DUP2 SUB PUSH2 0x223 JUMPI PUSH2 0x222 PUSH2 0x1CC JUMP JUMPDEST JUMPDEST POP SWAP2 SWAP1 POP JUMP INVALID LOG2 PUSH5 0x6970667358 0x22 SLT KECCAK256 LOG0 SWAP9 0xFC EQ CALLER PUSH15 0xCE169AE6CB4FB9F13E9FFD765CABEB 0xF9 SHR 0x26 REVERT MSTORE SHR 0x21 EXTCODEHASH 0xBA 0xEF 0x2B PUSH5 0x736F6C6343 STOP ADDMOD BYTE STOP CALLER "
				},
				"gasEstimates": {
					"creation": {
						"codeDepositCost": "121400",
						"executionCost": "infinite",
						"totalCost": "infinite"
					},
					"external": {
						"brand()": "infinite",
						"description()": "infinite"
					}
				},
				"methodIdentifiers": {
					"brand()": "2d9fff01",
					"description()": "7284e416"
				}
			},
			"storageLayout": {
				"storage": [
					{
						"astId": 3,
						"contract": "Cohort3/Inheritance/truck.sol:Car",
						"label": "brand",
						"offset": 0,
						"slot": "0",
						"type": "t_string_storage"
					},
					{
						"astId": 29,
						"contract": "Cohort3/Inheritance/truck.sol:Car",
						"label": "wheels",
						"offset": 0,
						"slot": "1",
						"type": "t_uint8"
					}
				],
				"types": {
					"t_string_storage": {
						"encoding": "bytes",
						"label": "string",
						"numberOfBytes": "32"
					},
					"t_uint8": {
						"encoding": "inplace",
						"label": "uint8",
						"numberOfBytes": "1"
					}
				}
			},
			"userdoc": {
				"kind": "user",
				"methods": {},
				"version": 1
			}
		}
	}
}