{
	"data": {
		"bytecode": {
			"linkReferences": {},
			"object": "6080604052600180553480156012575f80fd5b50335f806101000a81548173ffffffffffffffffffffffffffffffffffffffff021916908373ffffffffffffffffffffffffffffffffffffffff1602179055506107d58061005f5f395ff3fe608060405260043610610090575f3560e01c806375970193116100585780637597019314610140578063a40398a614610168578063c79de09b14610184578063d4dd5b19146101ac578063e1590753146101c257610090565b806335dda05a14610094578063389ff8ec146100bc5780633e4f2f00146100d25780636085bc27146100fc578063632bd76a14610124575b5f80fd5b34801561009f575f80fd5b506100ba60048036038101906100b59190610397565b6101d8565b005b3480156100c7575f80fd5b506100d0610231565b005b3480156100dd575f80fd5b506100e6610233565b6040516100f39190610582565b60405180910390f35b348015610107575f80fd5b50610122600480360381019061011d9190610397565b610238565b005b61013e600480360381019061013991906105a2565b610291565b005b34801561014b575f80fd5b5061016660048036038101906101619190610397565b610295565b005b610182600480360381019061017d91906105a2565b6102ee565b005b34801561018f575f80fd5b506101aa60048036038101906101a5919061070c565b6102f2565b005b3480156101b7575f80fd5b506101c061034f565b005b3480156101cd575f80fd5b506101d6610351565b005b5f8054906101000a900473ffffffffffffffffffffffffffffffffffffffff1673ffffffffffffffffffffffffffffffffffffffff163373ffffffffffffffffffffffffffffffffffffffff161461022e575f80fd5b50565b565b606090565b5f8054906101000a900473ffffffffffffffffffffffffffffffffffffffff1673ffffffffffffffffffffffffffffffffffffffff163373ffffffffffffffffffffffffffffffffffffffff161461028e575f80fd5b50565b5050565b5f8054906101000a900473ffffffffffffffffffffffffffffffffffffffff1673ffffffffffffffffffffffffffffffffffffffff163373ffffffffffffffffffffffffffffffffffffffff16146102eb575f80fd5b50565b5050565b5f8054906101000a900473ffffffffffffffffffffffffffffffffffffffff1673ffffffffffffffffffffffffffffffffffffffff163373ffffffffffffffffffffffffffffffffffffffff1614610348575f80fd5b5050505050565b565b565b5f604051905090565b5f80fd5b5f80fd5b5f819050919050565b61037681610364565b8114610380575f80fd5b50565b5f813590506103918161036d565b92915050565b5f602082840312156103ac576103ab61035c565b5b5f6103b984828501610383565b91505092915050565b5f81519050919050565b5f82825260208201905092915050565b5f819050602082019050919050565b6103f481610364565b82525050565b5f81519050919050565b5f82825260208201905092915050565b8281835e5f83830152505050565b5f601f19601f8301169050919050565b5f61043c826103fa565b6104468185610404565b9350610456818560208601610414565b61045f81610422565b840191505092915050565b5f60c083015f83015161047f5f8601826103eb565b50602083015184820360208601526104978282610432565b91505060408301516104ac60408601826103eb565b5060608301516104bf60608601826103eb565b5060808301516104d260808601826103eb565b5060a08301516104e560a08601826103eb565b508091505092915050565b5f6104fb838361046a565b905092915050565b5f602082019050919050565b5f610519826103c2565b61052381856103cc565b935083602082028501610535856103dc565b805f5b85811015610570578484038952815161055185826104f0565b945061055c83610503565b925060208a01995050600181019050610538565b50829750879550505050505092915050565b5f6020820190508181035f83015261059a818461050f565b905092915050565b5f80604083850312156105b8576105b761035c565b5b5f6105c585828601610383565b92505060206105d685828601610383565b9150509250929050565b5f80fd5b5f80fd5b7f4e487b71000000000000000000000000000000000000000000000000000000005f52604160045260245ffd5b61061e82610422565b810181811067ffffffffffffffff8211171561063d5761063c6105e8565b5b80604052505050565b5f61064f610353565b905061065b8282610615565b919050565b5f67ffffffffffffffff82111561067a576106796105e8565b5b61068382610422565b9050602081019050919050565b828183375f83830152505050565b5f6106b06106ab84610660565b610646565b9050828152602081018484840111156106cc576106cb6105e4565b5b6106d7848285610690565b509392505050565b5f82601f8301126106f3576106f26105e0565b5b813561070384826020860161069e565b91505092915050565b5f805f805f60a086880312156107255761072461035c565b5b5f86013567ffffffffffffffff81111561074257610741610360565b5b61074e888289016106df565b955050602061075f88828901610383565b945050604061077088828901610383565b935050606061078188828901610383565b925050608061079288828901610383565b915050929550929590935056fea2646970667358221220491ffea78cc7ade0c452226c98f8a9a095eed105afaa88dcdf593558df79791f64736f6c634300081a0033",
			"opcodes": "PUSH1 0x80 PUSH1 0x40 MSTORE PUSH1 0x1 DUP1 SSTORE CALLVALUE DUP1 ISZERO PUSH1 0x12 JUMPI PUSH0 DUP1 REVERT JUMPDEST POP CALLER PUSH0 DUP1 PUSH2 0x100 EXP DUP2 SLOAD DUP2 PUSH20 0xFFFFFFFFFFFFFFFFFFFFFFFFFFFFFFFFFFFFFFFF MUL NOT AND SWAP1 DUP4 PUSH20 0xFFFFFFFFFFFFFFFFFFFFFFFFFFFFFFFFFFFFFFFF AND MUL OR SWAP1 SSTORE POP PUSH2 0x7D5 DUP1 PUSH2 0x5F PUSH0 CODECOPY PUSH0 RETURN INVALID PUSH1 0x80 PUSH1 0x40 MSTORE PUSH1 0x4 CALLDATASIZE LT PUSH2 0x90 JUMPI PUSH0 CALLDATALOAD PUSH1 0xE0 SHR DUP1 PUSH4 0x75970193 GT PUSH2 0x58 JUMPI DUP1 PUSH4 0x75970193 EQ PUSH2 0x140 JUMPI DUP1 PUSH4 0xA40398A6 EQ PUSH2 0x168 JUMPI DUP1 PUSH4 0xC79DE09B EQ PUSH2 0x184 JUMPI DUP1 PUSH4 0xD4DD5B19 EQ PUSH2 0x1AC JUMPI DUP1 PUSH4 0xE1590753 EQ PUSH2 0x1C2 JUMPI PUSH2 0x90 JUMP JUMPDEST DUP1 PUSH4 0x35DDA05A EQ PUSH2 0x94 JUMPI DUP1 PUSH4 0x389FF8EC EQ PUSH2 0xBC JUMPI DUP1 PUSH4 0x3E4F2F00 EQ PUSH2 0xD2 JUMPI DUP1 PUSH4 0x6085BC27 EQ PUSH2 0xFC JUMPI DUP1 PUSH4 0x632BD76A EQ PUSH2 0x124 JUMPI JUMPDEST PUSH0 DUP1 REVERT JUMPDEST CALLVALUE DUP1 ISZERO PUSH2 0x9F JUMPI PUSH0 DUP1 REVERT JUMPDEST POP PUSH2 0xBA PUSH1 0x4 DUP1 CALLDATASIZE SUB DUP2 ADD SWAP1 PUSH2 0xB5 SWAP2 SWAP1 PUSH2 0x397 JUMP JUMPDEST PUSH2 0x1D8 JUMP JUMPDEST STOP JUMPDEST CALLVALUE DUP1 ISZERO PUSH2 0xC7 JUMPI PUSH0 DUP1 REVERT JUMPDEST POP PUSH2 0xD0 PUSH2 0x231 JUMP JUMPDEST STOP JUMPDEST CALLVALUE DUP1 ISZERO PUSH2 0xDD JUMPI PUSH0 DUP1 REVERT JUMPDEST POP PUSH2 0xE6 PUSH2 0x233 JUMP JUMPDEST PUSH1 0x40 MLOAD PUSH2 0xF3 SWAP2 SWAP1 PUSH2 0x582 JUMP JUMPDEST PUSH1 0x40 MLOAD DUP1 SWAP2 SUB SWAP1 RETURN JUMPDEST CALLVALUE DUP1 ISZERO PUSH2 0x107 JUMPI PUSH0 DUP1 REVERT JUMPDEST POP PUSH2 0x122 PUSH1 0x4 DUP1 CALLDATASIZE SUB DUP2 ADD SWAP1 PUSH2 0x11D SWAP2 SWAP1 PUSH2 0x397 JUMP JUMPDEST PUSH2 0x238 JUMP JUMPDEST STOP JUMPDEST PUSH2 0x13E PUSH1 0x4 DUP1 CALLDATASIZE SUB DUP2 ADD SWAP1 PUSH2 0x139 SWAP2 SWAP1 PUSH2 0x5A2 JUMP JUMPDEST PUSH2 0x291 JUMP JUMPDEST STOP JUMPDEST CALLVALUE DUP1 ISZERO PUSH2 0x14B JUMPI PUSH0 DUP1 REVERT JUMPDEST POP PUSH2 0x166 PUSH1 0x4 DUP1 CALLDATASIZE SUB DUP2 ADD SWAP1 PUSH2 0x161 SWAP2 SWAP1 PUSH2 0x397 JUMP JUMPDEST PUSH2 0x295 JUMP JUMPDEST STOP JUMPDEST PUSH2 0x182 PUSH1 0x4 DUP1 CALLDATASIZE SUB DUP2 ADD SWAP1 PUSH2 0x17D SWAP2 SWAP1 PUSH2 0x5A2 JUMP JUMPDEST PUSH2 0x2EE JUMP JUMPDEST STOP JUMPDEST CALLVALUE DUP1 ISZERO PUSH2 0x18F JUMPI PUSH0 DUP1 REVERT JUMPDEST POP PUSH2 0x1AA PUSH1 0x4 DUP1 CALLDATASIZE SUB DUP2 ADD SWAP1 PUSH2 0x1A5 SWAP2 SWAP1 PUSH2 0x70C JUMP JUMPDEST PUSH2 0x2F2 JUMP JUMPDEST STOP JUMPDEST CALLVALUE DUP1 ISZERO PUSH2 0x1B7 JUMPI PUSH0 DUP1 REVERT JUMPDEST POP PUSH2 0x1C0 PUSH2 0x34F JUMP JUMPDEST STOP JUMPDEST CALLVALUE DUP1 ISZERO PUSH2 0x1CD JUMPI PUSH0 DUP1 REVERT JUMPDEST POP PUSH2 0x1D6 PUSH2 0x351 JUMP JUMPDEST STOP JUMPDEST PUSH0 DUP1 SLOAD SWAP1 PUSH2 0x100 EXP SWAP1 DIV PUSH20 0xFFFFFFFFFFFFFFFFFFFFFFFFFFFFFFFFFFFFFFFF AND PUSH20 0xFFFFFFFFFFFFFFFFFFFFFFFFFFFFFFFFFFFFFFFF AND CALLER PUSH20 0xFFFFFFFFFFFFFFFFFFFFFFFFFFFFFFFFFFFFFFFF AND EQ PUSH2 0x22E JUMPI PUSH0 DUP1 REVERT JUMPDEST POP JUMP JUMPDEST JUMP JUMPDEST PUSH1 0x60 SWAP1 JUMP JUMPDEST PUSH0 DUP1 SLOAD SWAP1 PUSH2 0x100 EXP SWAP1 DIV PUSH20 0xFFFFFFFFFFFFFFFFFFFFFFFFFFFFFFFFFFFFFFFF AND PUSH20 0xFFFFFFFFFFFFFFFFFFFFFFFFFFFFFFFFFFFFFFFF AND CALLER PUSH20 0xFFFFFFFFFFFFFFFFFFFFFFFFFFFFFFFFFFFFFFFF AND EQ PUSH2 0x28E JUMPI PUSH0 DUP1 REVERT JUMPDEST POP JUMP JUMPDEST POP POP JUMP JUMPDEST PUSH0 DUP1 SLOAD SWAP1 PUSH2 0x100 EXP SWAP1 DIV PUSH20 0xFFFFFFFFFFFFFFFFFFFFFFFFFFFFFFFFFFFFFFFF AND PUSH20 0xFFFFFFFFFFFFFFFFFFFFFFFFFFFFFFFFFFFFFFFF AND CALLER PUSH20 0xFFFFFFFFFFFFFFFFFFFFFFFFFFFFFFFFFFFFFFFF AND EQ PUSH2 0x2EB JUMPI PUSH0 DUP1 REVERT JUMPDEST POP JUMP JUMPDEST POP POP JUMP JUMPDEST PUSH0 DUP1 SLOAD SWAP1 PUSH2 0x100 EXP SWAP1 DIV PUSH20 0xFFFFFFFFFFFFFFFFFFFFFFFFFFFFFFFFFFFFFFFF AND PUSH20 0xFFFFFFFFFFFFFFFFFFFFFFFFFFFFFFFFFFFFFFFF AND CALLER PUSH20 0xFFFFFFFFFFFFFFFFFFFFFFFFFFFFFFFFFFFFFFFF AND EQ PUSH2 0x348 JUMPI PUSH0 DUP1 REVERT JUMPDEST POP POP POP POP POP JUMP JUMPDEST JUMP JUMPDEST JUMP JUMPDEST PUSH0 PUSH1 0x40 MLOAD SWAP1 POP SWAP1 JUMP JUMPDEST PUSH0 DUP1 REVERT JUMPDEST PUSH0 DUP1 REVERT JUMPDEST PUSH0 DUP2 SWAP1 POP SWAP2 SWAP1 POP JUMP JUMPDEST PUSH2 0x376 DUP2 PUSH2 0x364 JUMP JUMPDEST DUP2 EQ PUSH2 0x380 JUMPI PUSH0 DUP1 REVERT JUMPDEST POP JUMP JUMPDEST PUSH0 DUP2 CALLDATALOAD SWAP1 POP PUSH2 0x391 DUP2 PUSH2 0x36D JUMP JUMPDEST SWAP3 SWAP2 POP POP JUMP JUMPDEST PUSH0 PUSH1 0x20 DUP3 DUP5 SUB SLT ISZERO PUSH2 0x3AC JUMPI PUSH2 0x3AB PUSH2 0x35C JUMP JUMPDEST JUMPDEST PUSH0 PUSH2 0x3B9 DUP5 DUP3 DUP6 ADD PUSH2 0x383 JUMP JUMPDEST SWAP2 POP POP SWAP3 SWAP2 POP POP JUMP JUMPDEST PUSH0 DUP2 MLOAD SWAP1 POP SWAP2 SWAP1 POP JUMP JUMPDEST PUSH0 DUP3 DUP3 MSTORE PUSH1 0x20 DUP3 ADD SWAP1 POP SWAP3 SWAP2 POP POP JUMP JUMPDEST PUSH0 DUP2 SWAP1 POP PUSH1 0x20 DUP3 ADD SWAP1 POP SWAP2 SWAP1 POP JUMP JUMPDEST PUSH2 0x3F4 DUP2 PUSH2 0x364 JUMP JUMPDEST DUP3 MSTORE POP POP JUMP JUMPDEST PUSH0 DUP2 MLOAD SWAP1 POP SWAP2 SWAP1 POP JUMP JUMPDEST PUSH0 DUP3 DUP3 MSTORE PUSH1 0x20 DUP3 ADD SWAP1 POP SWAP3 SWAP2 POP POP JUMP JUMPDEST DUP3 DUP2 DUP4 MCOPY PUSH0 DUP4 DUP4 ADD MSTORE POP POP POP JUMP JUMPDEST PUSH0 PUSH1 0x1F NOT PUSH1 0x1F DUP4 ADD AND SWAP1 POP SWAP2 SWAP1 POP JUMP JUMPDEST PUSH0 PUSH2 0x43C DUP3 PUSH2 0x3FA JUMP JUMPDEST PUSH2 0x446 DUP2 DUP6 PUSH2 0x404 JUMP JUMPDEST SWAP4 POP PUSH2 0x456 DUP2 DUP6 PUSH1 0x20 DUP7 ADD PUSH2 0x414 JUMP JUMPDEST PUSH2 0x45F DUP2 PUSH2 0x422 JUMP JUMPDEST DUP5 ADD SWAP2 POP POP SWAP3 SWAP2 POP POP JUMP JUMPDEST PUSH0 PUSH1 0xC0 DUP4 ADD PUSH0 DUP4 ADD MLOAD PUSH2 0x47F PUSH0 DUP7 ADD DUP3 PUSH2 0x3EB JUMP JUMPDEST POP PUSH1 0x20 DUP4 ADD MLOAD DUP5 DUP3 SUB PUSH1 0x20 DUP7 ADD MSTORE PUSH2 0x497 DUP3 DUP3 PUSH2 0x432 JUMP JUMPDEST SWAP2 POP POP PUSH1 0x40 DUP4 ADD MLOAD PUSH2 0x4AC PUSH1 0x40 DUP7 ADD DUP3 PUSH2 0x3EB JUMP JUMPDEST POP PUSH1 0x60 DUP4 ADD MLOAD PUSH2 0x4BF PUSH1 0x60 DUP7 ADD DUP3 PUSH2 0x3EB JUMP JUMPDEST POP PUSH1 0x80 DUP4 ADD MLOAD PUSH2 0x4D2 PUSH1 0x80 DUP7 ADD DUP3 PUSH2 0x3EB JUMP JUMPDEST POP PUSH1 0xA0 DUP4 ADD MLOAD PUSH2 0x4E5 PUSH1 0xA0 DUP7 ADD DUP3 PUSH2 0x3EB JUMP JUMPDEST POP DUP1 SWAP2 POP POP SWAP3 SWAP2 POP POP JUMP JUMPDEST PUSH0 PUSH2 0x4FB DUP4 DUP4 PUSH2 0x46A JUMP JUMPDEST SWAP1 POP SWAP3 SWAP2 POP POP JUMP JUMPDEST PUSH0 PUSH1 0x20 DUP3 ADD SWAP1 POP SWAP2 SWAP1 POP JUMP JUMPDEST PUSH0 PUSH2 0x519 DUP3 PUSH2 0x3C2 JUMP JUMPDEST PUSH2 0x523 DUP2 DUP6 PUSH2 0x3CC JUMP JUMPDEST SWAP4 POP DUP4 PUSH1 0x20 DUP3 MUL DUP6 ADD PUSH2 0x535 DUP6 PUSH2 0x3DC JUMP JUMPDEST DUP1 PUSH0 JUMPDEST DUP6 DUP2 LT ISZERO PUSH2 0x570 JUMPI DUP5 DUP5 SUB DUP10 MSTORE DUP2 MLOAD PUSH2 0x551 DUP6 DUP3 PUSH2 0x4F0 JUMP JUMPDEST SWAP5 POP PUSH2 0x55C DUP4 PUSH2 0x503 JUMP JUMPDEST SWAP3 POP PUSH1 0x20 DUP11 ADD SWAP10 POP POP PUSH1 0x1 DUP2 ADD SWAP1 POP PUSH2 0x538 JUMP JUMPDEST POP DUP3 SWAP8 POP DUP8 SWAP6 POP POP POP POP POP POP SWAP3 SWAP2 POP POP JUMP JUMPDEST PUSH0 PUSH1 0x20 DUP3 ADD SWAP1 POP DUP2 DUP2 SUB PUSH0 DUP4 ADD MSTORE PUSH2 0x59A DUP2 DUP5 PUSH2 0x50F JUMP JUMPDEST SWAP1 POP SWAP3 SWAP2 POP POP JUMP JUMPDEST PUSH0 DUP1 PUSH1 0x40 DUP4 DUP6 SUB SLT ISZERO PUSH2 0x5B8 JUMPI PUSH2 0x5B7 PUSH2 0x35C JUMP JUMPDEST JUMPDEST PUSH0 PUSH2 0x5C5 DUP6 DUP3 DUP7 ADD PUSH2 0x383 JUMP JUMPDEST SWAP3 POP POP PUSH1 0x20 PUSH2 0x5D6 DUP6 DUP3 DUP7 ADD PUSH2 0x383 JUMP JUMPDEST SWAP2 POP POP SWAP3 POP SWAP3 SWAP1 POP JUMP JUMPDEST PUSH0 DUP1 REVERT JUMPDEST PUSH0 DUP1 REVERT JUMPDEST PUSH32 0x4E487B7100000000000000000000000000000000000000000000000000000000 PUSH0 MSTORE PUSH1 0x41 PUSH1 0x4 MSTORE PUSH1 0x24 PUSH0 REVERT JUMPDEST PUSH2 0x61E DUP3 PUSH2 0x422 JUMP JUMPDEST DUP2 ADD DUP2 DUP2 LT PUSH8 0xFFFFFFFFFFFFFFFF DUP3 GT OR ISZERO PUSH2 0x63D JUMPI PUSH2 0x63C PUSH2 0x5E8 JUMP JUMPDEST JUMPDEST DUP1 PUSH1 0x40 MSTORE POP POP POP JUMP JUMPDEST PUSH0 PUSH2 0x64F PUSH2 0x353 JUMP JUMPDEST SWAP1 POP PUSH2 0x65B DUP3 DUP3 PUSH2 0x615 JUMP JUMPDEST SWAP2 SWAP1 POP JUMP JUMPDEST PUSH0 PUSH8 0xFFFFFFFFFFFFFFFF DUP3 GT ISZERO PUSH2 0x67A JUMPI PUSH2 0x679 PUSH2 0x5E8 JUMP JUMPDEST JUMPDEST PUSH2 0x683 DUP3 PUSH2 0x422 JUMP JUMPDEST SWAP1 POP PUSH1 0x20 DUP2 ADD SWAP1 POP SWAP2 SWAP1 POP JUMP JUMPDEST DUP3 DUP2 DUP4 CALLDATACOPY PUSH0 DUP4 DUP4 ADD MSTORE POP POP POP JUMP JUMPDEST PUSH0 PUSH2 0x6B0 PUSH2 0x6AB DUP5 PUSH2 0x660 JUMP JUMPDEST PUSH2 0x646 JUMP JUMPDEST SWAP1 POP DUP3 DUP2 MSTORE PUSH1 0x20 DUP2 ADD DUP5 DUP5 DUP5 ADD GT ISZERO PUSH2 0x6CC JUMPI PUSH2 0x6CB PUSH2 0x5E4 JUMP JUMPDEST JUMPDEST PUSH2 0x6D7 DUP5 DUP3 DUP6 PUSH2 0x690 JUMP JUMPDEST POP SWAP4 SWAP3 POP POP POP JUMP JUMPDEST PUSH0 DUP3 PUSH1 0x1F DUP4 ADD SLT PUSH2 0x6F3 JUMPI PUSH2 0x6F2 PUSH2 0x5E0 JUMP JUMPDEST JUMPDEST DUP2 CALLDATALOAD PUSH2 0x703 DUP5 DUP3 PUSH1 0x20 DUP7 ADD PUSH2 0x69E JUMP JUMPDEST SWAP2 POP POP SWAP3 SWAP2 POP POP JUMP JUMPDEST PUSH0 DUP1 PUSH0 DUP1 PUSH0 PUSH1 0xA0 DUP7 DUP9 SUB SLT ISZERO PUSH2 0x725 JUMPI PUSH2 0x724 PUSH2 0x35C JUMP JUMPDEST JUMPDEST PUSH0 DUP7 ADD CALLDATALOAD PUSH8 0xFFFFFFFFFFFFFFFF DUP2 GT ISZERO PUSH2 0x742 JUMPI PUSH2 0x741 PUSH2 0x360 JUMP JUMPDEST JUMPDEST PUSH2 0x74E DUP9 DUP3 DUP10 ADD PUSH2 0x6DF JUMP JUMPDEST SWAP6 POP POP PUSH1 0x20 PUSH2 0x75F DUP9 DUP3 DUP10 ADD PUSH2 0x383 JUMP JUMPDEST SWAP5 POP POP PUSH1 0x40 PUSH2 0x770 DUP9 DUP3 DUP10 ADD PUSH2 0x383 JUMP JUMPDEST SWAP4 POP POP PUSH1 0x60 PUSH2 0x781 DUP9 DUP3 DUP10 ADD PUSH2 0x383 JUMP JUMPDEST SWAP3 POP POP PUSH1 0x80 PUSH2 0x792 DUP9 DUP3 DUP10 ADD PUSH2 0x383 JUMP JUMPDEST SWAP2 POP POP SWAP3 SWAP6 POP SWAP3 SWAP6 SWAP1 SWAP4 POP JUMP INVALID LOG2 PUSH5 0x6970667358 0x22 SLT KECCAK256 BLOBHASH 0x1F INVALID 0xA7 DUP13 0xC7 0xAD 0xE0 0xC4 MSTORE 0x22 PUSH13 0x98F8A9A095EED105AFAA88DCDF MSIZE CALLDATALOAD PC 0xDF PUSH26 0x791F64736F6C634300081A003300000000000000000000000000 "
		},
		"gasEstimates": {
			"creation": {
				"codeDepositCost": "401000",
				"executionCost": "46805",
				"totalCost": "447805"
			},
			"external": {
				"addBalance(uint256,uint256)": "infinite",
				"createCampaign(string,uint256,uint256,uint256,uint256)": "infinite",
				"deleteCampaign(uint256)": "2567",
				"emergencyStopCampaign(uint256)": "2634",
				"showCampaignInProgress()": "209",
				"showCampaigns()": "infinite",
				"showCancelledCampaign()": "166",
				"showCompletedCampaign()": "231",
				"startCampaign(uint256)": "2568",
				"withdrawBalance(uint256,uint256)": "infinite"
			}
		},
		"methodIdentifiers": {
			"addBalance(uint256,uint256)": "a40398a6",
			"createCampaign(string,uint256,uint256,uint256,uint256)": "c79de09b",
			"deleteCampaign(uint256)": "75970193",
			"emergencyStopCampaign(uint256)": "6085bc27",
			"showCampaignInProgress()": "d4dd5b19",
			"showCampaigns()": "3e4f2f00",
			"showCancelledCampaign()": "389ff8ec",
			"showCompletedCampaign()": "e1590753",
			"startCampaign(uint256)": "35dda05a",
			"withdrawBalance(uint256,uint256)": "632bd76a"
		}
	},
	"abi": [
		{
			"inputs": [],
			"stateMutability": "nonpayable",
			"type": "constructor"
		},
		{
			"inputs": [
				{
					"internalType": "uint256",
					"name": "_campaignId",
					"type": "uint256"
				},
				{
					"internalType": "uint256",
					"name": "_value",
					"type": "uint256"
				}
			],
			"name": "addBalance",
			"outputs": [],
			"stateMutability": "payable",
			"type": "function"
		},
		{
			"inputs": [
				{
					"internalType": "string",
					"name": "_campaignTittle",
					"type": "string"
				},
				{
					"internalType": "uint256",
					"name": "_category",
					"type": "uint256"
				},
				{
					"internalType": "uint256",
					"name": "_minUser",
					"type": "uint256"
				},
				{
					"internalType": "uint256",
					"name": "_minAmount",
					"type": "uint256"
				},
				{
					"internalType": "uint256",
					"name": "_maxAmount",
					"type": "uint256"
				}
			],
			"name": "createCampaign",
			"outputs": [],
			"stateMutability": "nonpayable",
			"type": "function"
		},
		{
			"inputs": [
				{
					"internalType": "uint256",
					"name": "_campaignId",
					"type": "uint256"
				}
			],
			"name": "deleteCampaign",
			"outputs": [],
			"stateMutability": "nonpayable",
			"type": "function"
		},
		{
			"inputs": [
				{
					"internalType": "uint256",
					"name": "_campaignId",
					"type": "uint256"
				}
			],
			"name": "emergencyStopCampaign",
			"outputs": [],
			"stateMutability": "nonpayable",
			"type": "function"
		},
		{
			"inputs": [],
			"name": "showCampaignInProgress",
			"outputs": [],
			"stateMutability": "nonpayable",
			"type": "function"
		},
		{
			"inputs": [],
			"name": "showCampaigns",
			"outputs": [
				{
					"components": [
						{
							"internalType": "uint256",
							"name": "bettingCampaignId",
							"type": "uint256"
						},
						{
							"internalType": "string",
							"name": "campaignTittle",
							"type": "string"
						},
						{
							"internalType": "uint256",
							"name": "category",
							"type": "uint256"
						},
						{
							"internalType": "uint256",
							"name": "minUser",
							"type": "uint256"
						},
						{
							"internalType": "uint256",
							"name": "minAmount",
							"type": "uint256"
						},
						{
							"internalType": "uint256",
							"name": "maxAmount",
							"type": "uint256"
						}
					],
					"internalType": "struct BattingDapp.bettingCampaign[]",
					"name": "",
					"type": "tuple[]"
				}
			],
			"stateMutability": "view",
			"type": "function"
		},
		{
			"inputs": [],
			"name": "showCancelledCampaign",
			"outputs": [],
			"stateMutability": "nonpayable",
			"type": "function"
		},
		{
			"inputs": [],
			"name": "showCompletedCampaign",
			"outputs": [],
			"stateMutability": "nonpayable",
			"type": "function"
		},
		{
			"inputs": [
				{
					"internalType": "uint256",
					"name": "_campaignId",
					"type": "uint256"
				}
			],
			"name": "startCampaign",
			"outputs": [],
			"stateMutability": "nonpayable",
			"type": "function"
		},
		{
			"inputs": [
				{
					"internalType": "uint256",
					"name": "_campaignId",
					"type": "uint256"
				},
				{
					"internalType": "uint256",
					"name": "_value",
					"type": "uint256"
				}
			],
			"name": "withdrawBalance",
			"outputs": [],
			"stateMutability": "payable",
			"type": "function"
		}
	]
}