{
	"data": {
		"bytecode": {
			"linkReferences": {},
			"object": "60806040526001805560016002553480156017575f80fd5b50335f806101000a81548173ffffffffffffffffffffffffffffffffffffffff021916908373ffffffffffffffffffffffffffffffffffffffff160217905550611455806100645f395ff3fe6080604052600436106100a6575f3560e01c8063632bd76a11610063578063632bd76a1461017e578063759701931461019a578063d4a82a58146101c2578063d4dd5b19146101ea578063e159075314610200578063e374a49414610216576100a6565b806310fe7c48146100aa578063262fa207146100c657806335dda05a146100ee578063389ff8ec146101165780633e4f2f001461012c5780636085bc2714610156575b5f80fd5b6100c460048036038101906100bf91906109ff565b61023e565b005b3480156100d1575f80fd5b506100ec60048036038101906100e79190610b66565b61048f565b005b3480156100f9575f80fd5b50610114600480360381019061010f91906109ff565b6105ea565b005b348015610121575f80fd5b5061012a61072c565b005b348015610137575f80fd5b5061014061072e565b60405161014d9190610e3a565b60405180910390f35b348015610161575f80fd5b5061017c600480360381019061017791906109ff565b610733565b005b61019860048036038101906101939190610e5a565b610830565b005b3480156101a5575f80fd5b506101c060048036038101906101bb91906109ff565b610834565b005b3480156101cd575f80fd5b506101e860048036038101906101e391906109ff565b61088d565b005b3480156101f5575f80fd5b506101fe6108b9565b005b34801561020b575f80fd5b506102146108bb565b005b348015610221575f80fd5b5061023c600480360381019061023791906109ff565b6108bd565b005b60035f60015481526020019081526020015f206008015f9054906101000a900460ff166102a0576040517f08c379a000000000000000000000000000000000000000000000000000000000815260040161029790610ef2565b60405180910390fd5b60035f8281526020019081526020015f206003015460035f8381526020019081526020015f206009015410156102d4575f80fd5b6001151560035f60015481526020019081526020015f206008015f9054906101000a900460ff1615151461033d576040517f08c379a000000000000000000000000000000000000000000000000000000000815260040161033490610f33565b60405180910390fd5b3073ffffffffffffffffffffffffffffffffffffffff166108fc3490811502906040515f60405180830381858888f19350505050158015610380573d5f803e3d5ffd5b5060025460045f8381526020019081526020015f205f018190555060025f8154809291906103ad90610f7e565b91905055503360045f8381526020019081526020015f206001015f6101000a81548173ffffffffffffffffffffffffffffffffffffffff021916908373ffffffffffffffffffffffffffffffffffffffff1602179055508060045f8381526020019081526020015f20600201819055503460045f8381526020019081526020015f20600301819055505f60045f8381526020019081526020015f206004015f6101000a81548160ff0219169083151502179055505f60045f8381526020019081526020015f206004015f6101000a81548160ff02191690831515021790555050565b5f8054906101000a900473ffffffffffffffffffffffffffffffffffffffff1673ffffffffffffffffffffffffffffffffffffffff163373ffffffffffffffffffffffffffffffffffffffff16146104e5575f80fd5b60405180610140016040528060015481526020018881526020018781526020018681526020018581526020018481526020018381526020018281526020015f151581526020015f81525060035f60015481526020019081526020015f205f820151815f0155602082015181600101908161055f91906111bf565b5060408201518160020155606082015181600301556080820151816004015560a0820151816005015560c0820151816006015560e08201518160070155610100820151816008015f6101000a81548160ff021916908315150217905550610120820151816009015590505060015f8154809291906105dc90610f7e565b919050555050505050505050565b5f8054906101000a900473ffffffffffffffffffffffffffffffffffffffff1673ffffffffffffffffffffffffffffffffffffffff163373ffffffffffffffffffffffffffffffffffffffff1614610640575f80fd5b611c2060035f8381526020019081526020015f2060060154610662919061128e565b4211156106a4576040517f08c379a000000000000000000000000000000000000000000000000000000000815260040161069b9061130b565b60405180910390fd5b60035f8281526020019081526020015f20600701544210156106fb576040517f08c379a00000000000000000000000000000000000000000000000000000000081526004016106f290611399565b60405180910390fd5b600160035f60015481526020019081526020015f206008015f6101000a81548160ff02191690831515021790555050565b565b606090565b5f8054906101000a900473ffffffffffffffffffffffffffffffffffffffff1673ffffffffffffffffffffffffffffffffffffffff163373ffffffffffffffffffffffffffffffffffffffff1614610789575f80fd5b60035f8281526020019081526020015f206006015442101580156107c1575060035f8281526020019081526020015f20600701544211155b610800576040517f08c379a00000000000000000000000000000000000000000000000000000000081526004016107f790611401565b60405180910390fd5b5f60035f60015481526020019081526020015f206008015f6101000a81548160ff02191690831515021790555050565b5050565b5f8054906101000a900473ffffffffffffffffffffffffffffffffffffffff1673ffffffffffffffffffffffffffffffffffffffff163373ffffffffffffffffffffffffffffffffffffffff161461088a575f80fd5b50565b60035f8281526020019081526020015f206009015f8154809291906108b190610f7e565b919050555050565b565b565b5f8054906101000a900473ffffffffffffffffffffffffffffffffffffffff1673ffffffffffffffffffffffffffffffffffffffff163373ffffffffffffffffffffffffffffffffffffffff1614610913575f80fd5b60035f8281526020019081526020015f2060060154421015801561094b575060035f8281526020019081526020015f20600701544211155b61098a576040517f08c379a000000000000000000000000000000000000000000000000000000000815260040161098190611401565b60405180910390fd5b600160035f60015481526020019081526020015f206008015f6101000a81548160ff02191690831515021790555050565b5f604051905090565b5f80fd5b5f80fd5b5f819050919050565b6109de816109cc565b81146109e8575f80fd5b50565b5f813590506109f9816109d5565b92915050565b5f60208284031215610a1457610a136109c4565b5b5f610a21848285016109eb565b91505092915050565b5f80fd5b5f80fd5b5f601f19601f8301169050919050565b7f4e487b71000000000000000000000000000000000000000000000000000000005f52604160045260245ffd5b610a7882610a32565b810181811067ffffffffffffffff82111715610a9757610a96610a42565b5b80604052505050565b5f610aa96109bb565b9050610ab58282610a6f565b919050565b5f67ffffffffffffffff821115610ad457610ad3610a42565b5b610add82610a32565b9050602081019050919050565b828183375f83830152505050565b5f610b0a610b0584610aba565b610aa0565b905082815260208101848484011115610b2657610b25610a2e565b5b610b31848285610aea565b509392505050565b5f82601f830112610b4d57610b4c610a2a565b5b8135610b5d848260208601610af8565b91505092915050565b5f805f805f805f60e0888a031215610b8157610b806109c4565b5b5f88013567ffffffffffffffff811115610b9e57610b9d6109c8565b5b610baa8a828b01610b39565b9750506020610bbb8a828b016109eb565b9650506040610bcc8a828b016109eb565b9550506060610bdd8a828b016109eb565b9450506080610bee8a828b016109eb565b93505060a0610bff8a828b016109eb565b92505060c0610c108a828b016109eb565b91505092959891949750929550565b5f81519050919050565b5f82825260208201905092915050565b5f819050602082019050919050565b610c51816109cc565b82525050565b5f81519050919050565b5f82825260208201905092915050565b8281835e5f83830152505050565b5f610c8982610c57565b610c938185610c61565b9350610ca3818560208601610c71565b610cac81610a32565b840191505092915050565b5f8115159050919050565b610ccb81610cb7565b82525050565b5f61014083015f830151610ce75f860182610c48565b5060208301518482036020860152610cff8282610c7f565b9150506040830151610d146040860182610c48565b506060830151610d276060860182610c48565b506080830151610d3a6080860182610c48565b5060a0830151610d4d60a0860182610c48565b5060c0830151610d6060c0860182610c48565b5060e0830151610d7360e0860182610c48565b50610100830151610d88610100860182610cc2565b50610120830151610d9d610120860182610c48565b508091505092915050565b5f610db38383610cd1565b905092915050565b5f602082019050919050565b5f610dd182610c1f565b610ddb8185610c29565b935083602082028501610ded85610c39565b805f5b85811015610e285784840389528151610e098582610da8565b9450610e1483610dbb565b925060208a01995050600181019050610df0565b50829750879550505050505092915050565b5f6020820190508181035f830152610e528184610dc7565b905092915050565b5f8060408385031215610e7057610e6f6109c4565b5b5f610e7d858286016109eb565b9250506020610e8e858286016109eb565b9150509250929050565b5f82825260208201905092915050565b7f43616d706169676e206e6f7420737461727465642079657400000000000000005f82015250565b5f610edc601883610e98565b9150610ee782610ea8565b602082019050919050565b5f6020820190508181035f830152610f0981610ed0565b9050919050565b50565b5f610f1e5f83610e98565b9150610f2982610f10565b5f82019050919050565b5f6020820190508181035f830152610f4a81610f13565b9050919050565b7f4e487b71000000000000000000000000000000000000000000000000000000005f52601160045260245ffd5b5f610f88826109cc565b91507fffffffffffffffffffffffffffffffffffffffffffffffffffffffffffffffff8203610fba57610fb9610f51565b5b600182019050919050565b7f4e487b71000000000000000000000000000000000000000000000000000000005f52602260045260245ffd5b5f600282049050600182168061100957607f821691505b60208210810361101c5761101b610fc5565b5b50919050565b5f819050815f5260205f209050919050565b5f6020601f8301049050919050565b5f82821b905092915050565b5f6008830261107e7fffffffffffffffffffffffffffffffffffffffffffffffffffffffffffffffff82611043565b6110888683611043565b95508019841693508086168417925050509392505050565b5f819050919050565b5f6110c36110be6110b9846109cc565b6110a0565b6109cc565b9050919050565b5f819050919050565b6110dc836110a9565b6110f06110e8826110ca565b84845461104f565b825550505050565b5f90565b6111046110f8565b61110f8184846110d3565b505050565b5b81811015611132576111275f826110fc565b600181019050611115565b5050565b601f8211156111775761114881611022565b61115184611034565b81016020851015611160578190505b61117461116c85611034565b830182611114565b50505b505050565b5f82821c905092915050565b5f6111975f198460080261117c565b1980831691505092915050565b5f6111af8383611188565b9150826002028217905092915050565b6111c882610c57565b67ffffffffffffffff8111156111e1576111e0610a42565b5b6111eb8254610ff2565b6111f6828285611136565b5f60209050601f831160018114611227575f8415611215578287015190505b61121f85826111a4565b865550611286565b601f19841661123586611022565b5f5b8281101561125c57848901518255600182019150602085019450602081019050611237565b868310156112795784890151611275601f891682611188565b8355505b6001600288020188555050505b505050505050565b5f611298826109cc565b91506112a3836109cc565b92508282039050818111156112bb576112ba610f51565b5b92915050565b7f596f752063616e6e6f74207374617274203220686f757273206265666f7265005f82015250565b5f6112f5601f83610e98565b9150611300826112c1565b602082019050919050565b5f6020820190508181035f830152611322816112e9565b9050919050565b7f596f752063616e6e6f7420737461727420626563617573652063616d706169675f8201527f6e2074696d6520616c726561647920656e646564000000000000000000000000602082015250565b5f611383603483610e98565b915061138e82611329565b604082019050919050565b5f6020820190508181035f8301526113b081611377565b9050919050565b7f566f74696e6720697320616c726561647920636c6f73656400000000000000005f82015250565b5f6113eb601883610e98565b91506113f6826113b7565b602082019050919050565b5f6020820190508181035f830152611418816113df565b905091905056fea26469706673582212204301a76bc539aeb6116407883351675625000e33023fd1a25264f13d2935822f64736f6c634300081a0033",
			"opcodes": "PUSH1 0x80 PUSH1 0x40 MSTORE PUSH1 0x1 DUP1 SSTORE PUSH1 0x1 PUSH1 0x2 SSTORE CALLVALUE DUP1 ISZERO PUSH1 0x17 JUMPI PUSH0 DUP1 REVERT JUMPDEST POP CALLER PUSH0 DUP1 PUSH2 0x100 EXP DUP2 SLOAD DUP2 PUSH20 0xFFFFFFFFFFFFFFFFFFFFFFFFFFFFFFFFFFFFFFFF MUL NOT AND SWAP1 DUP4 PUSH20 0xFFFFFFFFFFFFFFFFFFFFFFFFFFFFFFFFFFFFFFFF AND MUL OR SWAP1 SSTORE POP PUSH2 0x1455 DUP1 PUSH2 0x64 PUSH0 CODECOPY PUSH0 RETURN INVALID PUSH1 0x80 PUSH1 0x40 MSTORE PUSH1 0x4 CALLDATASIZE LT PUSH2 0xA6 JUMPI PUSH0 CALLDATALOAD PUSH1 0xE0 SHR DUP1 PUSH4 0x632BD76A GT PUSH2 0x63 JUMPI DUP1 PUSH4 0x632BD76A EQ PUSH2 0x17E JUMPI DUP1 PUSH4 0x75970193 EQ PUSH2 0x19A JUMPI DUP1 PUSH4 0xD4A82A58 EQ PUSH2 0x1C2 JUMPI DUP1 PUSH4 0xD4DD5B19 EQ PUSH2 0x1EA JUMPI DUP1 PUSH4 0xE1590753 EQ PUSH2 0x200 JUMPI DUP1 PUSH4 0xE374A494 EQ PUSH2 0x216 JUMPI PUSH2 0xA6 JUMP JUMPDEST DUP1 PUSH4 0x10FE7C48 EQ PUSH2 0xAA JUMPI DUP1 PUSH4 0x262FA207 EQ PUSH2 0xC6 JUMPI DUP1 PUSH4 0x35DDA05A EQ PUSH2 0xEE JUMPI DUP1 PUSH4 0x389FF8EC EQ PUSH2 0x116 JUMPI DUP1 PUSH4 0x3E4F2F00 EQ PUSH2 0x12C JUMPI DUP1 PUSH4 0x6085BC27 EQ PUSH2 0x156 JUMPI JUMPDEST PUSH0 DUP1 REVERT JUMPDEST PUSH2 0xC4 PUSH1 0x4 DUP1 CALLDATASIZE SUB DUP2 ADD SWAP1 PUSH2 0xBF SWAP2 SWAP1 PUSH2 0x9FF JUMP JUMPDEST PUSH2 0x23E JUMP JUMPDEST STOP JUMPDEST CALLVALUE DUP1 ISZERO PUSH2 0xD1 JUMPI PUSH0 DUP1 REVERT JUMPDEST POP PUSH2 0xEC PUSH1 0x4 DUP1 CALLDATASIZE SUB DUP2 ADD SWAP1 PUSH2 0xE7 SWAP2 SWAP1 PUSH2 0xB66 JUMP JUMPDEST PUSH2 0x48F JUMP JUMPDEST STOP JUMPDEST CALLVALUE DUP1 ISZERO PUSH2 0xF9 JUMPI PUSH0 DUP1 REVERT JUMPDEST POP PUSH2 0x114 PUSH1 0x4 DUP1 CALLDATASIZE SUB DUP2 ADD SWAP1 PUSH2 0x10F SWAP2 SWAP1 PUSH2 0x9FF JUMP JUMPDEST PUSH2 0x5EA JUMP JUMPDEST STOP JUMPDEST CALLVALUE DUP1 ISZERO PUSH2 0x121 JUMPI PUSH0 DUP1 REVERT JUMPDEST POP PUSH2 0x12A PUSH2 0x72C JUMP JUMPDEST STOP JUMPDEST CALLVALUE DUP1 ISZERO PUSH2 0x137 JUMPI PUSH0 DUP1 REVERT JUMPDEST POP PUSH2 0x140 PUSH2 0x72E JUMP JUMPDEST PUSH1 0x40 MLOAD PUSH2 0x14D SWAP2 SWAP1 PUSH2 0xE3A JUMP JUMPDEST PUSH1 0x40 MLOAD DUP1 SWAP2 SUB SWAP1 RETURN JUMPDEST CALLVALUE DUP1 ISZERO PUSH2 0x161 JUMPI PUSH0 DUP1 REVERT JUMPDEST POP PUSH2 0x17C PUSH1 0x4 DUP1 CALLDATASIZE SUB DUP2 ADD SWAP1 PUSH2 0x177 SWAP2 SWAP1 PUSH2 0x9FF JUMP JUMPDEST PUSH2 0x733 JUMP JUMPDEST STOP JUMPDEST PUSH2 0x198 PUSH1 0x4 DUP1 CALLDATASIZE SUB DUP2 ADD SWAP1 PUSH2 0x193 SWAP2 SWAP1 PUSH2 0xE5A JUMP JUMPDEST PUSH2 0x830 JUMP JUMPDEST STOP JUMPDEST CALLVALUE DUP1 ISZERO PUSH2 0x1A5 JUMPI PUSH0 DUP1 REVERT JUMPDEST POP PUSH2 0x1C0 PUSH1 0x4 DUP1 CALLDATASIZE SUB DUP2 ADD SWAP1 PUSH2 0x1BB SWAP2 SWAP1 PUSH2 0x9FF JUMP JUMPDEST PUSH2 0x834 JUMP JUMPDEST STOP JUMPDEST CALLVALUE DUP1 ISZERO PUSH2 0x1CD JUMPI PUSH0 DUP1 REVERT JUMPDEST POP PUSH2 0x1E8 PUSH1 0x4 DUP1 CALLDATASIZE SUB DUP2 ADD SWAP1 PUSH2 0x1E3 SWAP2 SWAP1 PUSH2 0x9FF JUMP JUMPDEST PUSH2 0x88D JUMP JUMPDEST STOP JUMPDEST CALLVALUE DUP1 ISZERO PUSH2 0x1F5 JUMPI PUSH0 DUP1 REVERT JUMPDEST POP PUSH2 0x1FE PUSH2 0x8B9 JUMP JUMPDEST STOP JUMPDEST CALLVALUE DUP1 ISZERO PUSH2 0x20B JUMPI PUSH0 DUP1 REVERT JUMPDEST POP PUSH2 0x214 PUSH2 0x8BB JUMP JUMPDEST STOP JUMPDEST CALLVALUE DUP1 ISZERO PUSH2 0x221 JUMPI PUSH0 DUP1 REVERT JUMPDEST POP PUSH2 0x23C PUSH1 0x4 DUP1 CALLDATASIZE SUB DUP2 ADD SWAP1 PUSH2 0x237 SWAP2 SWAP1 PUSH2 0x9FF JUMP JUMPDEST PUSH2 0x8BD JUMP JUMPDEST STOP JUMPDEST PUSH1 0x3 PUSH0 PUSH1 0x1 SLOAD DUP2 MSTORE PUSH1 0x20 ADD SWAP1 DUP2 MSTORE PUSH1 0x20 ADD PUSH0 KECCAK256 PUSH1 0x8 ADD PUSH0 SWAP1 SLOAD SWAP1 PUSH2 0x100 EXP SWAP1 DIV PUSH1 0xFF AND PUSH2 0x2A0 JUMPI PUSH1 0x40 MLOAD PUSH32 0x8C379A000000000000000000000000000000000000000000000000000000000 DUP2 MSTORE PUSH1 0x4 ADD PUSH2 0x297 SWAP1 PUSH2 0xEF2 JUMP JUMPDEST PUSH1 0x40 MLOAD DUP1 SWAP2 SUB SWAP1 REVERT JUMPDEST PUSH1 0x3 PUSH0 DUP3 DUP2 MSTORE PUSH1 0x20 ADD SWAP1 DUP2 MSTORE PUSH1 0x20 ADD PUSH0 KECCAK256 PUSH1 0x3 ADD SLOAD PUSH1 0x3 PUSH0 DUP4 DUP2 MSTORE PUSH1 0x20 ADD SWAP1 DUP2 MSTORE PUSH1 0x20 ADD PUSH0 KECCAK256 PUSH1 0x9 ADD SLOAD LT ISZERO PUSH2 0x2D4 JUMPI PUSH0 DUP1 REVERT JUMPDEST PUSH1 0x1 ISZERO ISZERO PUSH1 0x3 PUSH0 PUSH1 0x1 SLOAD DUP2 MSTORE PUSH1 0x20 ADD SWAP1 DUP2 MSTORE PUSH1 0x20 ADD PUSH0 KECCAK256 PUSH1 0x8 ADD PUSH0 SWAP1 SLOAD SWAP1 PUSH2 0x100 EXP SWAP1 DIV PUSH1 0xFF AND ISZERO ISZERO EQ PUSH2 0x33D JUMPI PUSH1 0x40 MLOAD PUSH32 0x8C379A000000000000000000000000000000000000000000000000000000000 DUP2 MSTORE PUSH1 0x4 ADD PUSH2 0x334 SWAP1 PUSH2 0xF33 JUMP JUMPDEST PUSH1 0x40 MLOAD DUP1 SWAP2 SUB SWAP1 REVERT JUMPDEST ADDRESS PUSH20 0xFFFFFFFFFFFFFFFFFFFFFFFFFFFFFFFFFFFFFFFF AND PUSH2 0x8FC CALLVALUE SWAP1 DUP2 ISZERO MUL SWAP1 PUSH1 0x40 MLOAD PUSH0 PUSH1 0x40 MLOAD DUP1 DUP4 SUB DUP2 DUP6 DUP9 DUP9 CALL SWAP4 POP POP POP POP ISZERO DUP1 ISZERO PUSH2 0x380 JUMPI RETURNDATASIZE PUSH0 DUP1 RETURNDATACOPY RETURNDATASIZE PUSH0 REVERT JUMPDEST POP PUSH1 0x2 SLOAD PUSH1 0x4 PUSH0 DUP4 DUP2 MSTORE PUSH1 0x20 ADD SWAP1 DUP2 MSTORE PUSH1 0x20 ADD PUSH0 KECCAK256 PUSH0 ADD DUP2 SWAP1 SSTORE POP PUSH1 0x2 PUSH0 DUP2 SLOAD DUP1 SWAP3 SWAP2 SWAP1 PUSH2 0x3AD SWAP1 PUSH2 0xF7E JUMP JUMPDEST SWAP2 SWAP1 POP SSTORE POP CALLER PUSH1 0x4 PUSH0 DUP4 DUP2 MSTORE PUSH1 0x20 ADD SWAP1 DUP2 MSTORE PUSH1 0x20 ADD PUSH0 KECCAK256 PUSH1 0x1 ADD PUSH0 PUSH2 0x100 EXP DUP2 SLOAD DUP2 PUSH20 0xFFFFFFFFFFFFFFFFFFFFFFFFFFFFFFFFFFFFFFFF MUL NOT AND SWAP1 DUP4 PUSH20 0xFFFFFFFFFFFFFFFFFFFFFFFFFFFFFFFFFFFFFFFF AND MUL OR SWAP1 SSTORE POP DUP1 PUSH1 0x4 PUSH0 DUP4 DUP2 MSTORE PUSH1 0x20 ADD SWAP1 DUP2 MSTORE PUSH1 0x20 ADD PUSH0 KECCAK256 PUSH1 0x2 ADD DUP2 SWAP1 SSTORE POP CALLVALUE PUSH1 0x4 PUSH0 DUP4 DUP2 MSTORE PUSH1 0x20 ADD SWAP1 DUP2 MSTORE PUSH1 0x20 ADD PUSH0 KECCAK256 PUSH1 0x3 ADD DUP2 SWAP1 SSTORE POP PUSH0 PUSH1 0x4 PUSH0 DUP4 DUP2 MSTORE PUSH1 0x20 ADD SWAP1 DUP2 MSTORE PUSH1 0x20 ADD PUSH0 KECCAK256 PUSH1 0x4 ADD PUSH0 PUSH2 0x100 EXP DUP2 SLOAD DUP2 PUSH1 0xFF MUL NOT AND SWAP1 DUP4 ISZERO ISZERO MUL OR SWAP1 SSTORE POP PUSH0 PUSH1 0x4 PUSH0 DUP4 DUP2 MSTORE PUSH1 0x20 ADD SWAP1 DUP2 MSTORE PUSH1 0x20 ADD PUSH0 KECCAK256 PUSH1 0x4 ADD PUSH0 PUSH2 0x100 EXP DUP2 SLOAD DUP2 PUSH1 0xFF MUL NOT AND SWAP1 DUP4 ISZERO ISZERO MUL OR SWAP1 SSTORE POP POP JUMP JUMPDEST PUSH0 DUP1 SLOAD SWAP1 PUSH2 0x100 EXP SWAP1 DIV PUSH20 0xFFFFFFFFFFFFFFFFFFFFFFFFFFFFFFFFFFFFFFFF AND PUSH20 0xFFFFFFFFFFFFFFFFFFFFFFFFFFFFFFFFFFFFFFFF AND CALLER PUSH20 0xFFFFFFFFFFFFFFFFFFFFFFFFFFFFFFFFFFFFFFFF AND EQ PUSH2 0x4E5 JUMPI PUSH0 DUP1 REVERT JUMPDEST PUSH1 0x40 MLOAD DUP1 PUSH2 0x140 ADD PUSH1 0x40 MSTORE DUP1 PUSH1 0x1 SLOAD DUP2 MSTORE PUSH1 0x20 ADD DUP9 DUP2 MSTORE PUSH1 0x20 ADD DUP8 DUP2 MSTORE PUSH1 0x20 ADD DUP7 DUP2 MSTORE PUSH1 0x20 ADD DUP6 DUP2 MSTORE PUSH1 0x20 ADD DUP5 DUP2 MSTORE PUSH1 0x20 ADD DUP4 DUP2 MSTORE PUSH1 0x20 ADD DUP3 DUP2 MSTORE PUSH1 0x20 ADD PUSH0 ISZERO ISZERO DUP2 MSTORE PUSH1 0x20 ADD PUSH0 DUP2 MSTORE POP PUSH1 0x3 PUSH0 PUSH1 0x1 SLOAD DUP2 MSTORE PUSH1 0x20 ADD SWAP1 DUP2 MSTORE PUSH1 0x20 ADD PUSH0 KECCAK256 PUSH0 DUP3 ADD MLOAD DUP2 PUSH0 ADD SSTORE PUSH1 0x20 DUP3 ADD MLOAD DUP2 PUSH1 0x1 ADD SWAP1 DUP2 PUSH2 0x55F SWAP2 SWAP1 PUSH2 0x11BF JUMP JUMPDEST POP PUSH1 0x40 DUP3 ADD MLOAD DUP2 PUSH1 0x2 ADD SSTORE PUSH1 0x60 DUP3 ADD MLOAD DUP2 PUSH1 0x3 ADD SSTORE PUSH1 0x80 DUP3 ADD MLOAD DUP2 PUSH1 0x4 ADD SSTORE PUSH1 0xA0 DUP3 ADD MLOAD DUP2 PUSH1 0x5 ADD SSTORE PUSH1 0xC0 DUP3 ADD MLOAD DUP2 PUSH1 0x6 ADD SSTORE PUSH1 0xE0 DUP3 ADD MLOAD DUP2 PUSH1 0x7 ADD SSTORE PUSH2 0x100 DUP3 ADD MLOAD DUP2 PUSH1 0x8 ADD PUSH0 PUSH2 0x100 EXP DUP2 SLOAD DUP2 PUSH1 0xFF MUL NOT AND SWAP1 DUP4 ISZERO ISZERO MUL OR SWAP1 SSTORE POP PUSH2 0x120 DUP3 ADD MLOAD DUP2 PUSH1 0x9 ADD SSTORE SWAP1 POP POP PUSH1 0x1 PUSH0 DUP2 SLOAD DUP1 SWAP3 SWAP2 SWAP1 PUSH2 0x5DC SWAP1 PUSH2 0xF7E JUMP JUMPDEST SWAP2 SWAP1 POP SSTORE POP POP POP POP POP POP POP POP JUMP JUMPDEST PUSH0 DUP1 SLOAD SWAP1 PUSH2 0x100 EXP SWAP1 DIV PUSH20 0xFFFFFFFFFFFFFFFFFFFFFFFFFFFFFFFFFFFFFFFF AND PUSH20 0xFFFFFFFFFFFFFFFFFFFFFFFFFFFFFFFFFFFFFFFF AND CALLER PUSH20 0xFFFFFFFFFFFFFFFFFFFFFFFFFFFFFFFFFFFFFFFF AND EQ PUSH2 0x640 JUMPI PUSH0 DUP1 REVERT JUMPDEST PUSH2 0x1C20 PUSH1 0x3 PUSH0 DUP4 DUP2 MSTORE PUSH1 0x20 ADD SWAP1 DUP2 MSTORE PUSH1 0x20 ADD PUSH0 KECCAK256 PUSH1 0x6 ADD SLOAD PUSH2 0x662 SWAP2 SWAP1 PUSH2 0x128E JUMP JUMPDEST TIMESTAMP GT ISZERO PUSH2 0x6A4 JUMPI PUSH1 0x40 MLOAD PUSH32 0x8C379A000000000000000000000000000000000000000000000000000000000 DUP2 MSTORE PUSH1 0x4 ADD PUSH2 0x69B SWAP1 PUSH2 0x130B JUMP JUMPDEST PUSH1 0x40 MLOAD DUP1 SWAP2 SUB SWAP1 REVERT JUMPDEST PUSH1 0x3 PUSH0 DUP3 DUP2 MSTORE PUSH1 0x20 ADD SWAP1 DUP2 MSTORE PUSH1 0x20 ADD PUSH0 KECCAK256 PUSH1 0x7 ADD SLOAD TIMESTAMP LT ISZERO PUSH2 0x6FB JUMPI PUSH1 0x40 MLOAD PUSH32 0x8C379A000000000000000000000000000000000000000000000000000000000 DUP2 MSTORE PUSH1 0x4 ADD PUSH2 0x6F2 SWAP1 PUSH2 0x1399 JUMP JUMPDEST PUSH1 0x40 MLOAD DUP1 SWAP2 SUB SWAP1 REVERT JUMPDEST PUSH1 0x1 PUSH1 0x3 PUSH0 PUSH1 0x1 SLOAD DUP2 MSTORE PUSH1 0x20 ADD SWAP1 DUP2 MSTORE PUSH1 0x20 ADD PUSH0 KECCAK256 PUSH1 0x8 ADD PUSH0 PUSH2 0x100 EXP DUP2 SLOAD DUP2 PUSH1 0xFF MUL NOT AND SWAP1 DUP4 ISZERO ISZERO MUL OR SWAP1 SSTORE POP POP JUMP JUMPDEST JUMP JUMPDEST PUSH1 0x60 SWAP1 JUMP JUMPDEST PUSH0 DUP1 SLOAD SWAP1 PUSH2 0x100 EXP SWAP1 DIV PUSH20 0xFFFFFFFFFFFFFFFFFFFFFFFFFFFFFFFFFFFFFFFF AND PUSH20 0xFFFFFFFFFFFFFFFFFFFFFFFFFFFFFFFFFFFFFFFF AND CALLER PUSH20 0xFFFFFFFFFFFFFFFFFFFFFFFFFFFFFFFFFFFFFFFF AND EQ PUSH2 0x789 JUMPI PUSH0 DUP1 REVERT JUMPDEST PUSH1 0x3 PUSH0 DUP3 DUP2 MSTORE PUSH1 0x20 ADD SWAP1 DUP2 MSTORE PUSH1 0x20 ADD PUSH0 KECCAK256 PUSH1 0x6 ADD SLOAD TIMESTAMP LT ISZERO DUP1 ISZERO PUSH2 0x7C1 JUMPI POP PUSH1 0x3 PUSH0 DUP3 DUP2 MSTORE PUSH1 0x20 ADD SWAP1 DUP2 MSTORE PUSH1 0x20 ADD PUSH0 KECCAK256 PUSH1 0x7 ADD SLOAD TIMESTAMP GT ISZERO JUMPDEST PUSH2 0x800 JUMPI PUSH1 0x40 MLOAD PUSH32 0x8C379A000000000000000000000000000000000000000000000000000000000 DUP2 MSTORE PUSH1 0x4 ADD PUSH2 0x7F7 SWAP1 PUSH2 0x1401 JUMP JUMPDEST PUSH1 0x40 MLOAD DUP1 SWAP2 SUB SWAP1 REVERT JUMPDEST PUSH0 PUSH1 0x3 PUSH0 PUSH1 0x1 SLOAD DUP2 MSTORE PUSH1 0x20 ADD SWAP1 DUP2 MSTORE PUSH1 0x20 ADD PUSH0 KECCAK256 PUSH1 0x8 ADD PUSH0 PUSH2 0x100 EXP DUP2 SLOAD DUP2 PUSH1 0xFF MUL NOT AND SWAP1 DUP4 ISZERO ISZERO MUL OR SWAP1 SSTORE POP POP JUMP JUMPDEST POP POP JUMP JUMPDEST PUSH0 DUP1 SLOAD SWAP1 PUSH2 0x100 EXP SWAP1 DIV PUSH20 0xFFFFFFFFFFFFFFFFFFFFFFFFFFFFFFFFFFFFFFFF AND PUSH20 0xFFFFFFFFFFFFFFFFFFFFFFFFFFFFFFFFFFFFFFFF AND CALLER PUSH20 0xFFFFFFFFFFFFFFFFFFFFFFFFFFFFFFFFFFFFFFFF AND EQ PUSH2 0x88A JUMPI PUSH0 DUP1 REVERT JUMPDEST POP JUMP JUMPDEST PUSH1 0x3 PUSH0 DUP3 DUP2 MSTORE PUSH1 0x20 ADD SWAP1 DUP2 MSTORE PUSH1 0x20 ADD PUSH0 KECCAK256 PUSH1 0x9 ADD PUSH0 DUP2 SLOAD DUP1 SWAP3 SWAP2 SWAP1 PUSH2 0x8B1 SWAP1 PUSH2 0xF7E JUMP JUMPDEST SWAP2 SWAP1 POP SSTORE POP POP JUMP JUMPDEST JUMP JUMPDEST JUMP JUMPDEST PUSH0 DUP1 SLOAD SWAP1 PUSH2 0x100 EXP SWAP1 DIV PUSH20 0xFFFFFFFFFFFFFFFFFFFFFFFFFFFFFFFFFFFFFFFF AND PUSH20 0xFFFFFFFFFFFFFFFFFFFFFFFFFFFFFFFFFFFFFFFF AND CALLER PUSH20 0xFFFFFFFFFFFFFFFFFFFFFFFFFFFFFFFFFFFFFFFF AND EQ PUSH2 0x913 JUMPI PUSH0 DUP1 REVERT JUMPDEST PUSH1 0x3 PUSH0 DUP3 DUP2 MSTORE PUSH1 0x20 ADD SWAP1 DUP2 MSTORE PUSH1 0x20 ADD PUSH0 KECCAK256 PUSH1 0x6 ADD SLOAD TIMESTAMP LT ISZERO DUP1 ISZERO PUSH2 0x94B JUMPI POP PUSH1 0x3 PUSH0 DUP3 DUP2 MSTORE PUSH1 0x20 ADD SWAP1 DUP2 MSTORE PUSH1 0x20 ADD PUSH0 KECCAK256 PUSH1 0x7 ADD SLOAD TIMESTAMP GT ISZERO JUMPDEST PUSH2 0x98A JUMPI PUSH1 0x40 MLOAD PUSH32 0x8C379A000000000000000000000000000000000000000000000000000000000 DUP2 MSTORE PUSH1 0x4 ADD PUSH2 0x981 SWAP1 PUSH2 0x1401 JUMP JUMPDEST PUSH1 0x40 MLOAD DUP1 SWAP2 SUB SWAP1 REVERT JUMPDEST PUSH1 0x1 PUSH1 0x3 PUSH0 PUSH1 0x1 SLOAD DUP2 MSTORE PUSH1 0x20 ADD SWAP1 DUP2 MSTORE PUSH1 0x20 ADD PUSH0 KECCAK256 PUSH1 0x8 ADD PUSH0 PUSH2 0x100 EXP DUP2 SLOAD DUP2 PUSH1 0xFF MUL NOT AND SWAP1 DUP4 ISZERO ISZERO MUL OR SWAP1 SSTORE POP POP JUMP JUMPDEST PUSH0 PUSH1 0x40 MLOAD SWAP1 POP SWAP1 JUMP JUMPDEST PUSH0 DUP1 REVERT JUMPDEST PUSH0 DUP1 REVERT JUMPDEST PUSH0 DUP2 SWAP1 POP SWAP2 SWAP1 POP JUMP JUMPDEST PUSH2 0x9DE DUP2 PUSH2 0x9CC JUMP JUMPDEST DUP2 EQ PUSH2 0x9E8 JUMPI PUSH0 DUP1 REVERT JUMPDEST POP JUMP JUMPDEST PUSH0 DUP2 CALLDATALOAD SWAP1 POP PUSH2 0x9F9 DUP2 PUSH2 0x9D5 JUMP JUMPDEST SWAP3 SWAP2 POP POP JUMP JUMPDEST PUSH0 PUSH1 0x20 DUP3 DUP5 SUB SLT ISZERO PUSH2 0xA14 JUMPI PUSH2 0xA13 PUSH2 0x9C4 JUMP JUMPDEST JUMPDEST PUSH0 PUSH2 0xA21 DUP5 DUP3 DUP6 ADD PUSH2 0x9EB JUMP JUMPDEST SWAP2 POP POP SWAP3 SWAP2 POP POP JUMP JUMPDEST PUSH0 DUP1 REVERT JUMPDEST PUSH0 DUP1 REVERT JUMPDEST PUSH0 PUSH1 0x1F NOT PUSH1 0x1F DUP4 ADD AND SWAP1 POP SWAP2 SWAP1 POP JUMP JUMPDEST PUSH32 0x4E487B7100000000000000000000000000000000000000000000000000000000 PUSH0 MSTORE PUSH1 0x41 PUSH1 0x4 MSTORE PUSH1 0x24 PUSH0 REVERT JUMPDEST PUSH2 0xA78 DUP3 PUSH2 0xA32 JUMP JUMPDEST DUP2 ADD DUP2 DUP2 LT PUSH8 0xFFFFFFFFFFFFFFFF DUP3 GT OR ISZERO PUSH2 0xA97 JUMPI PUSH2 0xA96 PUSH2 0xA42 JUMP JUMPDEST JUMPDEST DUP1 PUSH1 0x40 MSTORE POP POP POP JUMP JUMPDEST PUSH0 PUSH2 0xAA9 PUSH2 0x9BB JUMP JUMPDEST SWAP1 POP PUSH2 0xAB5 DUP3 DUP3 PUSH2 0xA6F JUMP JUMPDEST SWAP2 SWAP1 POP JUMP JUMPDEST PUSH0 PUSH8 0xFFFFFFFFFFFFFFFF DUP3 GT ISZERO PUSH2 0xAD4 JUMPI PUSH2 0xAD3 PUSH2 0xA42 JUMP JUMPDEST JUMPDEST PUSH2 0xADD DUP3 PUSH2 0xA32 JUMP JUMPDEST SWAP1 POP PUSH1 0x20 DUP2 ADD SWAP1 POP SWAP2 SWAP1 POP JUMP JUMPDEST DUP3 DUP2 DUP4 CALLDATACOPY PUSH0 DUP4 DUP4 ADD MSTORE POP POP POP JUMP JUMPDEST PUSH0 PUSH2 0xB0A PUSH2 0xB05 DUP5 PUSH2 0xABA JUMP JUMPDEST PUSH2 0xAA0 JUMP JUMPDEST SWAP1 POP DUP3 DUP2 MSTORE PUSH1 0x20 DUP2 ADD DUP5 DUP5 DUP5 ADD GT ISZERO PUSH2 0xB26 JUMPI PUSH2 0xB25 PUSH2 0xA2E JUMP JUMPDEST JUMPDEST PUSH2 0xB31 DUP5 DUP3 DUP6 PUSH2 0xAEA JUMP JUMPDEST POP SWAP4 SWAP3 POP POP POP JUMP JUMPDEST PUSH0 DUP3 PUSH1 0x1F DUP4 ADD SLT PUSH2 0xB4D JUMPI PUSH2 0xB4C PUSH2 0xA2A JUMP JUMPDEST JUMPDEST DUP2 CALLDATALOAD PUSH2 0xB5D DUP5 DUP3 PUSH1 0x20 DUP7 ADD PUSH2 0xAF8 JUMP JUMPDEST SWAP2 POP POP SWAP3 SWAP2 POP POP JUMP JUMPDEST PUSH0 DUP1 PUSH0 DUP1 PUSH0 DUP1 PUSH0 PUSH1 0xE0 DUP9 DUP11 SUB SLT ISZERO PUSH2 0xB81 JUMPI PUSH2 0xB80 PUSH2 0x9C4 JUMP JUMPDEST JUMPDEST PUSH0 DUP9 ADD CALLDATALOAD PUSH8 0xFFFFFFFFFFFFFFFF DUP2 GT ISZERO PUSH2 0xB9E JUMPI PUSH2 0xB9D PUSH2 0x9C8 JUMP JUMPDEST JUMPDEST PUSH2 0xBAA DUP11 DUP3 DUP12 ADD PUSH2 0xB39 JUMP JUMPDEST SWAP8 POP POP PUSH1 0x20 PUSH2 0xBBB DUP11 DUP3 DUP12 ADD PUSH2 0x9EB JUMP JUMPDEST SWAP7 POP POP PUSH1 0x40 PUSH2 0xBCC DUP11 DUP3 DUP12 ADD PUSH2 0x9EB JUMP JUMPDEST SWAP6 POP POP PUSH1 0x60 PUSH2 0xBDD DUP11 DUP3 DUP12 ADD PUSH2 0x9EB JUMP JUMPDEST SWAP5 POP POP PUSH1 0x80 PUSH2 0xBEE DUP11 DUP3 DUP12 ADD PUSH2 0x9EB JUMP JUMPDEST SWAP4 POP POP PUSH1 0xA0 PUSH2 0xBFF DUP11 DUP3 DUP12 ADD PUSH2 0x9EB JUMP JUMPDEST SWAP3 POP POP PUSH1 0xC0 PUSH2 0xC10 DUP11 DUP3 DUP12 ADD PUSH2 0x9EB JUMP JUMPDEST SWAP2 POP POP SWAP3 SWAP6 SWAP9 SWAP2 SWAP5 SWAP8 POP SWAP3 SWAP6 POP JUMP JUMPDEST PUSH0 DUP2 MLOAD SWAP1 POP SWAP2 SWAP1 POP JUMP JUMPDEST PUSH0 DUP3 DUP3 MSTORE PUSH1 0x20 DUP3 ADD SWAP1 POP SWAP3 SWAP2 POP POP JUMP JUMPDEST PUSH0 DUP2 SWAP1 POP PUSH1 0x20 DUP3 ADD SWAP1 POP SWAP2 SWAP1 POP JUMP JUMPDEST PUSH2 0xC51 DUP2 PUSH2 0x9CC JUMP JUMPDEST DUP3 MSTORE POP POP JUMP JUMPDEST PUSH0 DUP2 MLOAD SWAP1 POP SWAP2 SWAP1 POP JUMP JUMPDEST PUSH0 DUP3 DUP3 MSTORE PUSH1 0x20 DUP3 ADD SWAP1 POP SWAP3 SWAP2 POP POP JUMP JUMPDEST DUP3 DUP2 DUP4 MCOPY PUSH0 DUP4 DUP4 ADD MSTORE POP POP POP JUMP JUMPDEST PUSH0 PUSH2 0xC89 DUP3 PUSH2 0xC57 JUMP JUMPDEST PUSH2 0xC93 DUP2 DUP6 PUSH2 0xC61 JUMP JUMPDEST SWAP4 POP PUSH2 0xCA3 DUP2 DUP6 PUSH1 0x20 DUP7 ADD PUSH2 0xC71 JUMP JUMPDEST PUSH2 0xCAC DUP2 PUSH2 0xA32 JUMP JUMPDEST DUP5 ADD SWAP2 POP POP SWAP3 SWAP2 POP POP JUMP JUMPDEST PUSH0 DUP2 ISZERO ISZERO SWAP1 POP SWAP2 SWAP1 POP JUMP JUMPDEST PUSH2 0xCCB DUP2 PUSH2 0xCB7 JUMP JUMPDEST DUP3 MSTORE POP POP JUMP JUMPDEST PUSH0 PUSH2 0x140 DUP4 ADD PUSH0 DUP4 ADD MLOAD PUSH2 0xCE7 PUSH0 DUP7 ADD DUP3 PUSH2 0xC48 JUMP JUMPDEST POP PUSH1 0x20 DUP4 ADD MLOAD DUP5 DUP3 SUB PUSH1 0x20 DUP7 ADD MSTORE PUSH2 0xCFF DUP3 DUP3 PUSH2 0xC7F JUMP JUMPDEST SWAP2 POP POP PUSH1 0x40 DUP4 ADD MLOAD PUSH2 0xD14 PUSH1 0x40 DUP7 ADD DUP3 PUSH2 0xC48 JUMP JUMPDEST POP PUSH1 0x60 DUP4 ADD MLOAD PUSH2 0xD27 PUSH1 0x60 DUP7 ADD DUP3 PUSH2 0xC48 JUMP JUMPDEST POP PUSH1 0x80 DUP4 ADD MLOAD PUSH2 0xD3A PUSH1 0x80 DUP7 ADD DUP3 PUSH2 0xC48 JUMP JUMPDEST POP PUSH1 0xA0 DUP4 ADD MLOAD PUSH2 0xD4D PUSH1 0xA0 DUP7 ADD DUP3 PUSH2 0xC48 JUMP JUMPDEST POP PUSH1 0xC0 DUP4 ADD MLOAD PUSH2 0xD60 PUSH1 0xC0 DUP7 ADD DUP3 PUSH2 0xC48 JUMP JUMPDEST POP PUSH1 0xE0 DUP4 ADD MLOAD PUSH2 0xD73 PUSH1 0xE0 DUP7 ADD DUP3 PUSH2 0xC48 JUMP JUMPDEST POP PUSH2 0x100 DUP4 ADD MLOAD PUSH2 0xD88 PUSH2 0x100 DUP7 ADD DUP3 PUSH2 0xCC2 JUMP JUMPDEST POP PUSH2 0x120 DUP4 ADD MLOAD PUSH2 0xD9D PUSH2 0x120 DUP7 ADD DUP3 PUSH2 0xC48 JUMP JUMPDEST POP DUP1 SWAP2 POP POP SWAP3 SWAP2 POP POP JUMP JUMPDEST PUSH0 PUSH2 0xDB3 DUP4 DUP4 PUSH2 0xCD1 JUMP JUMPDEST SWAP1 POP SWAP3 SWAP2 POP POP JUMP JUMPDEST PUSH0 PUSH1 0x20 DUP3 ADD SWAP1 POP SWAP2 SWAP1 POP JUMP JUMPDEST PUSH0 PUSH2 0xDD1 DUP3 PUSH2 0xC1F JUMP JUMPDEST PUSH2 0xDDB DUP2 DUP6 PUSH2 0xC29 JUMP JUMPDEST SWAP4 POP DUP4 PUSH1 0x20 DUP3 MUL DUP6 ADD PUSH2 0xDED DUP6 PUSH2 0xC39 JUMP JUMPDEST DUP1 PUSH0 JUMPDEST DUP6 DUP2 LT ISZERO PUSH2 0xE28 JUMPI DUP5 DUP5 SUB DUP10 MSTORE DUP2 MLOAD PUSH2 0xE09 DUP6 DUP3 PUSH2 0xDA8 JUMP JUMPDEST SWAP5 POP PUSH2 0xE14 DUP4 PUSH2 0xDBB JUMP JUMPDEST SWAP3 POP PUSH1 0x20 DUP11 ADD SWAP10 POP POP PUSH1 0x1 DUP2 ADD SWAP1 POP PUSH2 0xDF0 JUMP JUMPDEST POP DUP3 SWAP8 POP DUP8 SWAP6 POP POP POP POP POP POP SWAP3 SWAP2 POP POP JUMP JUMPDEST PUSH0 PUSH1 0x20 DUP3 ADD SWAP1 POP DUP2 DUP2 SUB PUSH0 DUP4 ADD MSTORE PUSH2 0xE52 DUP2 DUP5 PUSH2 0xDC7 JUMP JUMPDEST SWAP1 POP SWAP3 SWAP2 POP POP JUMP JUMPDEST PUSH0 DUP1 PUSH1 0x40 DUP4 DUP6 SUB SLT ISZERO PUSH2 0xE70 JUMPI PUSH2 0xE6F PUSH2 0x9C4 JUMP JUMPDEST JUMPDEST PUSH0 PUSH2 0xE7D DUP6 DUP3 DUP7 ADD PUSH2 0x9EB JUMP JUMPDEST SWAP3 POP POP PUSH1 0x20 PUSH2 0xE8E DUP6 DUP3 DUP7 ADD PUSH2 0x9EB JUMP JUMPDEST SWAP2 POP POP SWAP3 POP SWAP3 SWAP1 POP JUMP JUMPDEST PUSH0 DUP3 DUP3 MSTORE PUSH1 0x20 DUP3 ADD SWAP1 POP SWAP3 SWAP2 POP POP JUMP JUMPDEST PUSH32 0x43616D706169676E206E6F742073746172746564207965740000000000000000 PUSH0 DUP3 ADD MSTORE POP JUMP JUMPDEST PUSH0 PUSH2 0xEDC PUSH1 0x18 DUP4 PUSH2 0xE98 JUMP JUMPDEST SWAP2 POP PUSH2 0xEE7 DUP3 PUSH2 0xEA8 JUMP JUMPDEST PUSH1 0x20 DUP3 ADD SWAP1 POP SWAP2 SWAP1 POP JUMP JUMPDEST PUSH0 PUSH1 0x20 DUP3 ADD SWAP1 POP DUP2 DUP2 SUB PUSH0 DUP4 ADD MSTORE PUSH2 0xF09 DUP2 PUSH2 0xED0 JUMP JUMPDEST SWAP1 POP SWAP2 SWAP1 POP JUMP JUMPDEST POP JUMP JUMPDEST PUSH0 PUSH2 0xF1E PUSH0 DUP4 PUSH2 0xE98 JUMP JUMPDEST SWAP2 POP PUSH2 0xF29 DUP3 PUSH2 0xF10 JUMP JUMPDEST PUSH0 DUP3 ADD SWAP1 POP SWAP2 SWAP1 POP JUMP JUMPDEST PUSH0 PUSH1 0x20 DUP3 ADD SWAP1 POP DUP2 DUP2 SUB PUSH0 DUP4 ADD MSTORE PUSH2 0xF4A DUP2 PUSH2 0xF13 JUMP JUMPDEST SWAP1 POP SWAP2 SWAP1 POP JUMP JUMPDEST PUSH32 0x4E487B7100000000000000000000000000000000000000000000000000000000 PUSH0 MSTORE PUSH1 0x11 PUSH1 0x4 MSTORE PUSH1 0x24 PUSH0 REVERT JUMPDEST PUSH0 PUSH2 0xF88 DUP3 PUSH2 0x9CC JUMP JUMPDEST SWAP2 POP PUSH32 0xFFFFFFFFFFFFFFFFFFFFFFFFFFFFFFFFFFFFFFFFFFFFFFFFFFFFFFFFFFFFFFFF DUP3 SUB PUSH2 0xFBA JUMPI PUSH2 0xFB9 PUSH2 0xF51 JUMP JUMPDEST JUMPDEST PUSH1 0x1 DUP3 ADD SWAP1 POP SWAP2 SWAP1 POP JUMP JUMPDEST PUSH32 0x4E487B7100000000000000000000000000000000000000000000000000000000 PUSH0 MSTORE PUSH1 0x22 PUSH1 0x4 MSTORE PUSH1 0x24 PUSH0 REVERT JUMPDEST PUSH0 PUSH1 0x2 DUP3 DIV SWAP1 POP PUSH1 0x1 DUP3 AND DUP1 PUSH2 0x1009 JUMPI PUSH1 0x7F DUP3 AND SWAP2 POP JUMPDEST PUSH1 0x20 DUP3 LT DUP2 SUB PUSH2 0x101C JUMPI PUSH2 0x101B PUSH2 0xFC5 JUMP JUMPDEST JUMPDEST POP SWAP2 SWAP1 POP JUMP JUMPDEST PUSH0 DUP2 SWAP1 POP DUP2 PUSH0 MSTORE PUSH1 0x20 PUSH0 KECCAK256 SWAP1 POP SWAP2 SWAP1 POP JUMP JUMPDEST PUSH0 PUSH1 0x20 PUSH1 0x1F DUP4 ADD DIV SWAP1 POP SWAP2 SWAP1 POP JUMP JUMPDEST PUSH0 DUP3 DUP3 SHL SWAP1 POP SWAP3 SWAP2 POP POP JUMP JUMPDEST PUSH0 PUSH1 0x8 DUP4 MUL PUSH2 0x107E PUSH32 0xFFFFFFFFFFFFFFFFFFFFFFFFFFFFFFFFFFFFFFFFFFFFFFFFFFFFFFFFFFFFFFFF DUP3 PUSH2 0x1043 JUMP JUMPDEST PUSH2 0x1088 DUP7 DUP4 PUSH2 0x1043 JUMP JUMPDEST SWAP6 POP DUP1 NOT DUP5 AND SWAP4 POP DUP1 DUP7 AND DUP5 OR SWAP3 POP POP POP SWAP4 SWAP3 POP POP POP JUMP JUMPDEST PUSH0 DUP2 SWAP1 POP SWAP2 SWAP1 POP JUMP JUMPDEST PUSH0 PUSH2 0x10C3 PUSH2 0x10BE PUSH2 0x10B9 DUP5 PUSH2 0x9CC JUMP JUMPDEST PUSH2 0x10A0 JUMP JUMPDEST PUSH2 0x9CC JUMP JUMPDEST SWAP1 POP SWAP2 SWAP1 POP JUMP JUMPDEST PUSH0 DUP2 SWAP1 POP SWAP2 SWAP1 POP JUMP JUMPDEST PUSH2 0x10DC DUP4 PUSH2 0x10A9 JUMP JUMPDEST PUSH2 0x10F0 PUSH2 0x10E8 DUP3 PUSH2 0x10CA JUMP JUMPDEST DUP5 DUP5 SLOAD PUSH2 0x104F JUMP JUMPDEST DUP3 SSTORE POP POP POP POP JUMP JUMPDEST PUSH0 SWAP1 JUMP JUMPDEST PUSH2 0x1104 PUSH2 0x10F8 JUMP JUMPDEST PUSH2 0x110F DUP2 DUP5 DUP5 PUSH2 0x10D3 JUMP JUMPDEST POP POP POP JUMP JUMPDEST JUMPDEST DUP2 DUP2 LT ISZERO PUSH2 0x1132 JUMPI PUSH2 0x1127 PUSH0 DUP3 PUSH2 0x10FC JUMP JUMPDEST PUSH1 0x1 DUP2 ADD SWAP1 POP PUSH2 0x1115 JUMP JUMPDEST POP POP JUMP JUMPDEST PUSH1 0x1F DUP3 GT ISZERO PUSH2 0x1177 JUMPI PUSH2 0x1148 DUP2 PUSH2 0x1022 JUMP JUMPDEST PUSH2 0x1151 DUP5 PUSH2 0x1034 JUMP JUMPDEST DUP2 ADD PUSH1 0x20 DUP6 LT ISZERO PUSH2 0x1160 JUMPI DUP2 SWAP1 POP JUMPDEST PUSH2 0x1174 PUSH2 0x116C DUP6 PUSH2 0x1034 JUMP JUMPDEST DUP4 ADD DUP3 PUSH2 0x1114 JUMP JUMPDEST POP POP JUMPDEST POP POP POP JUMP JUMPDEST PUSH0 DUP3 DUP3 SHR SWAP1 POP SWAP3 SWAP2 POP POP JUMP JUMPDEST PUSH0 PUSH2 0x1197 PUSH0 NOT DUP5 PUSH1 0x8 MUL PUSH2 0x117C JUMP JUMPDEST NOT DUP1 DUP4 AND SWAP2 POP POP SWAP3 SWAP2 POP POP JUMP JUMPDEST PUSH0 PUSH2 0x11AF DUP4 DUP4 PUSH2 0x1188 JUMP JUMPDEST SWAP2 POP DUP3 PUSH1 0x2 MUL DUP3 OR SWAP1 POP SWAP3 SWAP2 POP POP JUMP JUMPDEST PUSH2 0x11C8 DUP3 PUSH2 0xC57 JUMP JUMPDEST PUSH8 0xFFFFFFFFFFFFFFFF DUP2 GT ISZERO PUSH2 0x11E1 JUMPI PUSH2 0x11E0 PUSH2 0xA42 JUMP JUMPDEST JUMPDEST PUSH2 0x11EB DUP3 SLOAD PUSH2 0xFF2 JUMP JUMPDEST PUSH2 0x11F6 DUP3 DUP3 DUP6 PUSH2 0x1136 JUMP JUMPDEST PUSH0 PUSH1 0x20 SWAP1 POP PUSH1 0x1F DUP4 GT PUSH1 0x1 DUP2 EQ PUSH2 0x1227 JUMPI PUSH0 DUP5 ISZERO PUSH2 0x1215 JUMPI DUP3 DUP8 ADD MLOAD SWAP1 POP JUMPDEST PUSH2 0x121F DUP6 DUP3 PUSH2 0x11A4 JUMP JUMPDEST DUP7 SSTORE POP PUSH2 0x1286 JUMP JUMPDEST PUSH1 0x1F NOT DUP5 AND PUSH2 0x1235 DUP7 PUSH2 0x1022 JUMP JUMPDEST PUSH0 JUMPDEST DUP3 DUP2 LT ISZERO PUSH2 0x125C JUMPI DUP5 DUP10 ADD MLOAD DUP3 SSTORE PUSH1 0x1 DUP3 ADD SWAP2 POP PUSH1 0x20 DUP6 ADD SWAP5 POP PUSH1 0x20 DUP2 ADD SWAP1 POP PUSH2 0x1237 JUMP JUMPDEST DUP7 DUP4 LT ISZERO PUSH2 0x1279 JUMPI DUP5 DUP10 ADD MLOAD PUSH2 0x1275 PUSH1 0x1F DUP10 AND DUP3 PUSH2 0x1188 JUMP JUMPDEST DUP4 SSTORE POP JUMPDEST PUSH1 0x1 PUSH1 0x2 DUP9 MUL ADD DUP9 SSTORE POP POP POP JUMPDEST POP POP POP POP POP POP JUMP JUMPDEST PUSH0 PUSH2 0x1298 DUP3 PUSH2 0x9CC JUMP JUMPDEST SWAP2 POP PUSH2 0x12A3 DUP4 PUSH2 0x9CC JUMP JUMPDEST SWAP3 POP DUP3 DUP3 SUB SWAP1 POP DUP2 DUP2 GT ISZERO PUSH2 0x12BB JUMPI PUSH2 0x12BA PUSH2 0xF51 JUMP JUMPDEST JUMPDEST SWAP3 SWAP2 POP POP JUMP JUMPDEST PUSH32 0x596F752063616E6E6F74207374617274203220686F757273206265666F726500 PUSH0 DUP3 ADD MSTORE POP JUMP JUMPDEST PUSH0 PUSH2 0x12F5 PUSH1 0x1F DUP4 PUSH2 0xE98 JUMP JUMPDEST SWAP2 POP PUSH2 0x1300 DUP3 PUSH2 0x12C1 JUMP JUMPDEST PUSH1 0x20 DUP3 ADD SWAP1 POP SWAP2 SWAP1 POP JUMP JUMPDEST PUSH0 PUSH1 0x20 DUP3 ADD SWAP1 POP DUP2 DUP2 SUB PUSH0 DUP4 ADD MSTORE PUSH2 0x1322 DUP2 PUSH2 0x12E9 JUMP JUMPDEST SWAP1 POP SWAP2 SWAP1 POP JUMP JUMPDEST PUSH32 0x596F752063616E6E6F7420737461727420626563617573652063616D70616967 PUSH0 DUP3 ADD MSTORE PUSH32 0x6E2074696D6520616C726561647920656E646564000000000000000000000000 PUSH1 0x20 DUP3 ADD MSTORE POP JUMP JUMPDEST PUSH0 PUSH2 0x1383 PUSH1 0x34 DUP4 PUSH2 0xE98 JUMP JUMPDEST SWAP2 POP PUSH2 0x138E DUP3 PUSH2 0x1329 JUMP JUMPDEST PUSH1 0x40 DUP3 ADD SWAP1 POP SWAP2 SWAP1 POP JUMP JUMPDEST PUSH0 PUSH1 0x20 DUP3 ADD SWAP1 POP DUP2 DUP2 SUB PUSH0 DUP4 ADD MSTORE PUSH2 0x13B0 DUP2 PUSH2 0x1377 JUMP JUMPDEST SWAP1 POP SWAP2 SWAP1 POP JUMP JUMPDEST PUSH32 0x566F74696E6720697320616C726561647920636C6F7365640000000000000000 PUSH0 DUP3 ADD MSTORE POP JUMP JUMPDEST PUSH0 PUSH2 0x13EB PUSH1 0x18 DUP4 PUSH2 0xE98 JUMP JUMPDEST SWAP2 POP PUSH2 0x13F6 DUP3 PUSH2 0x13B7 JUMP JUMPDEST PUSH1 0x20 DUP3 ADD SWAP1 POP SWAP2 SWAP1 POP JUMP JUMPDEST PUSH0 PUSH1 0x20 DUP3 ADD SWAP1 POP DUP2 DUP2 SUB PUSH0 DUP4 ADD MSTORE PUSH2 0x1418 DUP2 PUSH2 0x13DF JUMP JUMPDEST SWAP1 POP SWAP2 SWAP1 POP JUMP INVALID LOG2 PUSH5 0x6970667358 0x22 SLT KECCAK256 NUMBER ADD 0xA7 PUSH12 0xC539AEB61164078833516756 0x25 STOP 0xE CALLER MUL EXTCODEHASH 0xD1 LOG2 MSTORE PUSH5 0xF13D293582 0x2F PUSH5 0x736F6C6343 STOP ADDMOD BYTE STOP CALLER "
		},
		"gasEstimates": {
			"creation": {
				"codeDepositCost": "1041000",
				"executionCost": "69555",
				"totalCost": "1110555"
			},
			"external": {
				"createCampaign(string,uint256,uint256,uint256,uint256,uint256,uint256)": "infinite",
				"deleteCampaign(uint256)": "2589",
				"emergencyResumeCampaign(uint256)": "33547",
				"emergencyStopCampaign(uint256)": "33547",
				"joinCampaign(uint256)": "infinite",
				"placeBet(uint256)": "infinite",
				"showCampaignInProgress()": "209",
				"showCampaigns()": "infinite",
				"showCancelledCampaign()": "210",
				"showCompletedCampaign()": "231",
				"startCampaign(uint256)": "infinite",
				"withdrawBalance(uint256,uint256)": "infinite"
			}
		},
		"methodIdentifiers": {
			"createCampaign(string,uint256,uint256,uint256,uint256,uint256,uint256)": "262fa207",
			"deleteCampaign(uint256)": "75970193",
			"emergencyResumeCampaign(uint256)": "e374a494",
			"emergencyStopCampaign(uint256)": "6085bc27",
			"joinCampaign(uint256)": "d4a82a58",
			"placeBet(uint256)": "10fe7c48",
			"showCampaignInProgress()": "d4dd5b19",
			"showCampaigns()": "3e4f2f00",
			"showCancelledCampaign()": "389ff8ec",
			"showCompletedCampaign()": "e1590753",
			"startCampaign(uint256)": "35dda05a",
			"withdrawBalance(uint256,uint256)": "632bd76a"
		}
	},
	"abi": [
		{
			"inputs": [],
			"stateMutability": "nonpayable",
			"type": "constructor"
		},
		{
			"inputs": [
				{
					"internalType": "string",
					"name": "_campaignTittle",
					"type": "string"
				},
				{
					"internalType": "uint256",
					"name": "_category",
					"type": "uint256"
				},
				{
					"internalType": "uint256",
					"name": "_minUser",
					"type": "uint256"
				},
				{
					"internalType": "uint256",
					"name": "_minAmount",
					"type": "uint256"
				},
				{
					"internalType": "uint256",
					"name": "_maxAmount",
					"type": "uint256"
				},
				{
					"internalType": "uint256",
					"name": "_startTime",
					"type": "uint256"
				},
				{
					"internalType": "uint256",
					"name": "_endTime",
					"type": "uint256"
				}
			],
			"name": "createCampaign",
			"outputs": [],
			"stateMutability": "nonpayable",
			"type": "function"
		},
		{
			"inputs": [
				{
					"internalType": "uint256",
					"name": "_campaignId",
					"type": "uint256"
				}
			],
			"name": "deleteCampaign",
			"outputs": [],
			"stateMutability": "nonpayable",
			"type": "function"
		},
		{
			"inputs": [
				{
					"internalType": "uint256",
					"name": "_campaignId",
					"type": "uint256"
				}
			],
			"name": "emergencyResumeCampaign",
			"outputs": [],
			"stateMutability": "nonpayable",
			"type": "function"
		},
		{
			"inputs": [
				{
					"internalType": "uint256",
					"name": "_campaignId",
					"type": "uint256"
				}
			],
			"name": "emergencyStopCampaign",
			"outputs": [],
			"stateMutability": "nonpayable",
			"type": "function"
		},
		{
			"inputs": [
				{
					"internalType": "uint256",
					"name": "_campaignId",
					"type": "uint256"
				}
			],
			"name": "joinCampaign",
			"outputs": [],
			"stateMutability": "nonpayable",
			"type": "function"
		},
		{
			"inputs": [
				{
					"internalType": "uint256",
					"name": "_campaignId",
					"type": "uint256"
				}
			],
			"name": "placeBet",
			"outputs": [],
			"stateMutability": "payable",
			"type": "function"
		},
		{
			"inputs": [],
			"name": "showCampaignInProgress",
			"outputs": [],
			"stateMutability": "nonpayable",
			"type": "function"
		},
		{
			"inputs": [],
			"name": "showCampaigns",
			"outputs": [
				{
					"components": [
						{
							"internalType": "uint256",
							"name": "bettingCampaignId",
							"type": "uint256"
						},
						{
							"internalType": "string",
							"name": "campaignTittle",
							"type": "string"
						},
						{
							"internalType": "uint256",
							"name": "category",
							"type": "uint256"
						},
						{
							"internalType": "uint256",
							"name": "minUser",
							"type": "uint256"
						},
						{
							"internalType": "uint256",
							"name": "minAmount",
							"type": "uint256"
						},
						{
							"internalType": "uint256",
							"name": "maxAmount",
							"type": "uint256"
						},
						{
							"internalType": "uint256",
							"name": "startTime",
							"type": "uint256"
						},
						{
							"internalType": "uint256",
							"name": "endTime",
							"type": "uint256"
						},
						{
							"internalType": "bool",
							"name": "isStart",
							"type": "bool"
						},
						{
							"internalType": "uint256",
							"name": "totalUser",
							"type": "uint256"
						}
					],
					"internalType": "struct BettingDapp.bettingCampaign[]",
					"name": "",
					"type": "tuple[]"
				}
			],
			"stateMutability": "view",
			"type": "function"
		},
		{
			"inputs": [],
			"name": "showCancelledCampaign",
			"outputs": [],
			"stateMutability": "nonpayable",
			"type": "function"
		},
		{
			"inputs": [],
			"name": "showCompletedCampaign",
			"outputs": [],
			"stateMutability": "nonpayable",
			"type": "function"
		},
		{
			"inputs": [
				{
					"internalType": "uint256",
					"name": "_campaignId",
					"type": "uint256"
				}
			],
			"name": "startCampaign",
			"outputs": [],
			"stateMutability": "nonpayable",
			"type": "function"
		},
		{
			"inputs": [
				{
					"internalType": "uint256",
					"name": "_campaignId",
					"type": "uint256"
				},
				{
					"internalType": "uint256",
					"name": "_value",
					"type": "uint256"
				}
			],
			"name": "withdrawBalance",
			"outputs": [],
			"stateMutability": "payable",
			"type": "function"
		}
	]
}